H0000010060576018279บริษัท ไทเอซ สิสซิ่ง จำกัด              17112011TALHO                                                                                                                                                                                       
D000002006057601827917112011083511นายจำปี ราวิทย์ ทล9183                            8858-8999           3121-9348                               03150478CCSH       0000001700000000                                                                             
D000003006057601827917112011083602นยวิวัฒน์ ขันติพวษ์                               8847-9692           96217359                                01220753CCSH       0000001833500000                                                                             
D000004006057601827917112011090642นายพสิษฐ์ สกุลวา มฉ 6129                          8886-9893           9131-6072                               04580699CCSH       0000001090200000                                                                             
D000005006057601827917112011092437นายวชิระ อยู่โต                                   8815-9894           6033-9067                               01070737CCSH       0000000289800000                                                                             
D000006006057601827917112011094919นางพิกุล ม่วงมงคล                                 88539989            107011097                               02610551CCSH       0000001090000000                                                                             
D000007006057601827917112011101334นายประเสริฐ บุญเพ็ง ทศ8726                        88259894            67218362                                01890658CCSH       0000002081300000                                                                             
D000008006057601827917112011103101นางธีลาวัลย์ ศรีบุศยดี                            88879895            54219310                                00520480CCSH       0000001517700000                                                                             
D000009006057601827917112011103959นาย สมเกียรติ สีธงชัยรุ่งโรจน์ ทย 1584            8866-9987           4521-1328                               04581882CCSH       0000001374500000                                                                             
D000010006057601827917112011104018นายปฐมพัฒน์ ผาทอง                                 88289681            08312070            มฉ 2800             10525505CCSH       0000001799200000                                                                             
D000011006057601827917112011104505ทองอาน ประดิษฐ์ ทย7593                            8895-9796           3521-7329                               11730509CCSH       0000001400000000                                                                             
D000012006057601827917112011105108นายชนะชัย ลัญฉเวโรจน์ ทล 6803                     8868-9882           3821-6340                               02251074CCSH       0000001700000000                                                                             
D000013006057601827917112011110002นายอนันต์ สิงห์น้อย ทศ1141                        88569498            11211364                                04950176CCSH       0000001925940000                                                                             
D000014006057601827917112011110934นายสุรศักดิ์ เลิศไกร                              88569291            76214361                                09550547CCSH       0000001859500000                                                                             
D000015006057601827917112011113121นายสมาน เดชะบุญ ทม131                             88868697            11210313                                04581830CCSH       0000001280000000                                                                             
D000016006057601827917112011113452สามารถ แถมเงิน                                    88889192            5531-2071                               00500664CCSH       0000001750000000                                                                             
D000017006057601827917112011114316นายอุดม เชาวรินทร์                                88668797            96066083                                11634256CCSH       0000000670000000                                                                             
D000018006057601827917112011114643นางสาวพิมพ์ชนก  แซ่ตั้ง                           88779391            34213336                                01770569CCSH       0000001232500000                                                                             
D000019006057601827917112011115227นาย บุญฤทธิ์  ศรีสุยิ่ง มง 3430                   8887-9586           0431-3053                               10250225CCSH       0000000808500000                                                                             
D000020006057601827917112011121430สมพงษ์ ใจดี                                       8837-9196           3331-4077                               00631326CCSH       0000001898200000                                                                             
D000021006057601827917112011123238นาย สุรชัย แก้วใจจง ทว9791                        8857-8989           1721-9359                               02590600CCSH       0000001884200000                                                                             
D000022006057601827917112011124104นาย สุภะชัย  ตู้ที                                88569198            64211360                                04060965CCSH       0000001923800000                                                                             
D000023006057601827917112011124455นางรำพึง แดงเกาะโพธิ์                             88169096            95212360                                01951142CCSH       0000002423100000                                                                             
D000024006057601827917112011124725ดำรงค์ เทพสมบูรณ์                                 88500099            104125523                               10320746CCSH       0000002211400000                                                                             
D000025006057601827917112011124825อารีวรรณ อิ่มสนธิ์                                88279492            51219288                                10320746CCSH       0000000754800000                                                                             
D000026006057601827917112011130731ปัญญา  วงษ์สง่า                                   88989595            47217339                                02600520CCSH       0000001808900000                                                                             
D000027006057601827917112011132735นายวันดี ใจกล้า                                   88888998            35216326                                07660676CCSH       0000001460200000                                                                             
D000028006057601827917112011133012นายมนตรี  แก้วใจจง  มฉ 4715                       88979894            57314071                                01740029CCSH       0000001884200000                                                                             
D000029006057601827917112011133319นางคนึงนิตย์ ตะคุณนะ                              88479687            34214354                                00940557CCSH       0000002221000000                                                                             
D000030006057601827917112011133504นายสุรศักดิ์  อินทศร ทว 1327                      8836-9290           7321-1352                               04585612CCSH       0000002037000000                                                                             
D000031006057601827917112011134700นางจินตรัตน์ อุทัยพยัคฆ์ ทว5650                   8807-9995           0621-5355                               06987335CCSH       0000001884200000                                                                             
D000032006057601827917112011135451คุณชิตนะภา ศรีเงินงาม                             88878998            82218315                                01520196CCSH       0000001550000000                                                                             
D000033006057601827917112011135732นายกวี  พันธ์นาม                                  88516889            107061658                               11470668CCSH       0000000812500000                                                                             
D000034006057601827917112011142854นาย ธวัช พานิชอัตรา มฉ 5998                       8837-8989           8931-5079                               01784404CCSH       0000001500700000                                                                             
D000035006057601827917112011143607นายเรืองเดช  ภิญโญยิ่ง                            88359396            79217368            081-482-7778        04600142CCSH       0000001920000000                                                                             
D000036006057601827917112011143832นาย ฐาปนัท  บูชา ทล6252                           88989783            22216345                                05690088CCSH       0000001676000000                                                                             
D000037006057601827917112011145329นาย เชาวฤทธิ์  ปานนวม                             8858-9291           4021-8340                               01230233CCSH       0000001780000000                                                                             
D000038006057601827917112011145525พิกิจ  ภูมิภาค  ทษ 496                            88521299            106198852                               02530516CCSH       0000002223000000                                                                             
D000039006057601827917112011145636พิกิจ  ภูมิภาค  ทศ 2160                           88069887            01212366                                02530516CCSH       0000002346000000                                                                             
D000040006057601827917112011152751นายบุญฐิน ถนอมเมฆ                                 88278099            11316072                                11379009CCSH       0000001799200000                                                                             
D000041006057601827917112011152932DUANGJAN H.                                       88502899            107154831                               08510239CCSH       0000000732700000                                                                             
D000042006057601827917112011165158นางสิริอร ศรีกิ้ม                                 88359394            70219334                                05756320CCSH       0000000727600000                                                                             
T000043006057601827900000000000000000000000064861340000041                                                                                                                                                                                                      
