H0000010060576018279บริษัท ไทเอซ สิสซิ่ง จำกัด              11112011TALHO                                                                                                                                                                                       
D000002006057601827911112011091002นายชัยโรจน์ เพชรพันธศักดิ์                        88879092            50218353                                00640403CCSH       0000001799200000                                                                             
D000003006057601827911112011091021นางสุพรรษา ไชยมาตย์ ทม3280                        88569194            02213318                                03150686CCSH       0000001650000000                                                                             
D000004006057601827911112011092105นายสมนึก จิตรมนตรี ทว 3297                        88479298            72213359                                02530554CCSH       0000001918500000                                                                             
D000005006057601827911112011092808รัชนี  แก้วหาญ                                    88279291            64315076                                02600520CCSH       0000001918500000                                                                             
D000006006057601827911112011093833นาย ปัญญา มนตรีชน มฉ.887                          8879-8297           7831-0078                               00339885CCSH       0000001665500000                                                                             
D000007006057601827911112011094147พุธชัย  โพธิ์ทอง                                  88869987            70318053            089-4442908         04600142CCSH       0000001040600000                                                                             
D000008006057601827911112011094631นาย เสถียร คุณปรึกษา  ทร 2692                     8828-9290           2621-2339                               01890619CCSH       0000001665900000                                                                             
D000009006057601827911112011094959นายสมหมาย บ้านแสน                                 8869-8398           4721-2340                               11475258CCSH       0000000919000000                                                                             
D000010006057601827911112011101033สุดาวัลย์  วินทะไชย                               88298898            94212340            025482410           04600142CCSH       0000000973400000                                                                             
D000011006057601827911112011101159นาย บารมี ศรีสงคราม                               88259893            99212346                                07690734CCSH       0000001400000000                                                                             
D000012006057601827911112011103611คุณประพันธ์ยุทธ์ ชัยศรี                           8838-8797           8721-1359                               01950809CCSH       0000001968500000                                                                             
D000013006057601827911112011103616นายเพชร เกาะแก้ว                                  88523399            107037867                               00910833CCSH       0000002066000000                                                                             
D000014006057601827911112011104333นายธีระศักดิ์  สุประภากร                          88779791            31218356                                00911077CCSH       0000001897900000                                                                             
D000015006057601827911112011105542ด.ต.หญิงสุภรณ์ บัวงาม                             88879881            86218352                                00940557CCSH       0000001356900000                                                                             
D000016006057601827911112011110608วีระ  ม้าเฒ่า                                     88279984            1831-4073                               00200135CCSH       0000002116700000                                                                             
D000017006057601827911112011110756นายประวัติ  กองทน  ทว 6982                        88527399            106147070           080-6007815         08690033CCSH       0000001782900000                                                                             
D000018006057601827911112011110816นางมยุรี นนทรีย์ ทว 6176                          8877-9994           6121-6357                               01951137CCSH       0000001535300000                                                                             
D000019006057601827911112011110950นายคงฤทธิ์ ผดาวัลย์                               8847-9192           5021-4318                               01560232CCSH       0000001220000000                                                                             
D000020006057601827911112011111909นาย เสรี ผายพิมพ์ ทร 7314                         8846-8797           4321-7331                               02501180CCSH       0000001105700000                                                                             
D000021006057601827911112011112256จสต. วิถี ชัยงาม                                  88889298            99213341                                08553235CCSH       0000001561200000                                                                             
D000022006057601827911112011113356นายอมฤต สนิทขำ                                    88069195            99212360                                00771291CCSH       0000000030000000                                                                             
D000023006057601827911112011114203สำฤทธิ์  แก่นจันทร์                               88189097            06214345            089-5158050         04600142CCSH       0000001723500000                                                                             
D000024006057601827911112011121611นายศราวุฒิ สุขพัฒน์ ทล 3987                       88189498            79213348                                04580699CCSH       0000001665500000                                                                             
D000025006057601827911112011121651นายศราวุฒิ สุขพัฒน์ ทล 3986                       88289498            69213348                                04580699CCSH       0000001665500000                                                                             
D000026006057601827911112011122612นายสังคม ขังผง                                    88524399            104121280                               04101825CCSH       0000001559400000                                                                             
D000027006057601827911112011123049นางสาวพัชรินทร์  พงศ์สิริสาโรช ชป5924             88512499            700011980                               05690088CCSH       0000001274400000                                                                             
D000028006057601827911112011123445นายถวิล จำเริญ                                    88879891            51218350            ทว.8105             07990541CCSH       0000001476800000                                                                             
D000029006057601827911112011123536นายถวิล จำเริญ                                    88079090            73219357            ทว.9377             07990541CCSH       0000001476800000                                                                             
D000030006057601827911112011124246นายสฤทธิ์  เสนสอน  ทล 5927                        8888-9093           7921-5342                               04690052CCSH       0000001734300000                                                                             
D000031006057601827911112011125444นายไพศาล พรประภาศักดิ์                            88478098            73210369                                10063491CCSH       0000001704800000                                                                             
D000032006057601827911112011125828นายไพศาล พรประภาศักดิ์                            88579390            51219355                                10063491CCSH       0000001704800000                                                                             
D000033006057601827911112011130123นายไพศาล พรประภาศักดิ์                            88478098            73210369                                10063491CCSH       0000001704800000                                                                             
D000034006057601827911112011130343น.ส.สุวภัทร พรประภาศักดิ์                         88469198            89214361                                10063491CCSH       0000001852500000                                                                             
D000035006057601827911112011130826น.ส. จิรัฏฐ์ ศิริกิจจาขจร ทศ7373                  88059497            33217367                                10154881CCSH       0000001846600000                                                                             
D000036006057601827911112011131920นาย   ณรงค์   พรหมอ่อน                            8886-8797           3121-5313           ทม5133              00611358CCSH       0000000841800000                                                                             
D000037006057601827911112011132320นายสุวรรณ ตรีเหรา                                 88659898            31315061                                03833635CCSH       0000001141000000                                                                             
D000038006057601827911112011133332วราภรณ์ แก้วทอง                                   8828-9580           2321-9349           ทล 9392             04920051CCSH       0000001793300000                                                                             
D000039006057601827911112011134204นางวันเพ็ญ กิจนิยม ทม8375                         88279690            53218317                                01970387CCSH       0000000968800000                                                                             
D000040006057601827911112011141014นางสาวนัฐณี อินทร์เพ็ญ                            88539099            107129677                               00640715CCSH       0000001610740000                                                                             
D000041006057601827911112011141923ไพจิตต์ ก.                                        88516989            106202801                               02560119CCSH       0000001140000000                                                                             
D000042006057601827911112011142024นาย ไพรัตน์ สุริยะวรรณ                            88598798            107049780                               01230882CCSH       0000000873900000                                                                             
D000043006057601827911112011142024นายดนุเดช สายบัว มฉ4624                           88179395            46314072                                01890420CCSH       0000001800000000                                                                             
D000044006057601827911112011143109นายธันวา ณะธรรม                                   8807-9096           1221-5333                               02110116CCSH       0000001339300000                                                                             
D000045006057601827911112011143548นาง อุลัยรักษ์ โพธิ์นอก ทศ1434                    88969498            44211363                                08691827CCSH       0000002022500000                                                                             
D000046006057601827911112011143721ทวีศักดิ์   ด้วงศรี                               88369193            56213368                                10330395CCSH       0000001893500000                                                                             
D000047006057601827911112011144553นายชอบ  เสวะมาตย์  ทล2386                         88398299            63212348            084-4219129         08690033CCSH       0000001665500000                                                                             
D000048006057601827911112011144705น.สเพชรมณี สิงห์วิชัย                             88789894            87217326                                00443099CCSH       0000000717700000                                                                             
D000049006057601827911112011144955น.ส.เพียนจิตร์ สิทธินาม                           88515499            107066329                               01771050CCSH       0000000980900000                                                                             
D000050006057601827911112011145458นายองอาจ มหิทธิโรจน์                              8887-9784           4621-6351                               02152851CCSH       0000001194400000                                                                             
D000051006057601827911112011145625นายองอาจ มหิทธิโรจน์ ทว6613                       8897-9784           3621-6351                               02152851CCSH       0000001194400000                                                                             
D000052006057601827911112011150810นายดำรงค์รักษ์ โชคพิมาย ทว 4436                   88579887            64214353                                00771132CCSH       0000001884200000                                                                             
D000053006057601827911112011151558ไพโรจน์ แก้วงาม                                   8808-9093           5021-6341           0811046403          04607752CCSH       0000001792300000                                                                             
D000054006057601827911112011152720จ.ส.อ.ศักดิ์ สะราคำ                               88378897            81313064                                01230490CCSH       0000001064400000                                                                             
D000055006057601827911112011153707นาย ภูริณัฐ อดุลนิรัตน์                           8858-8099           6521-0356                               10720567CCSH       0000001918500000                                                                             
D000056006057601827911112011154653นายอิสระ สัจจะสรรเสริญ                            88059096            14310083                                01787080CCSH       0000001846600000                                                                             
D000057006057601827911112011160011นางสาวสุมาลี ศรีอินทร์ ทว 5402                    8857-9686           2421-5350                               05970092CCSH       0000001884200000                                                                             
D000058006057601827911112011162121นส.ฐาปณภัท ธรรมวิหาร ทล2303                       88898199            33212340                                07952158CCSH       0000001665500000                                                                             
D000059006057601827911112011162251นส.ฐาปณภัท ธรรมวิหาร ทล2304                       88998199            43212340                                07952158CCSH       0000001665500000                                                                             
D000060006057601827911112011163022นายสานิตย์ ศรีม่วง                                8876-7997           0421-4312                               07950091CCSH       0000001451700000                                                                             
D000061006057601827911112011171322ณรงค์ ทศ 8418                                     88359395            84218361                                07960038CCSH       0000002632000000                                                                             
D000062006057601827911112011180042นาย สมประสงค์ ยูพานิช ทว6437                      8827-9794           7421-6353                               04950529CCSH       0000001792700000                                                                             
D000063006057601827911112011180132นาย สมประสงค์ ยูพานิช ทว6437                      8827-9794           7421-6353                               04950529CCSH       0000000235500000                                                                             
T000064006057601827900000000000000000000000093992240000062                                                                                                                                                                                                      
