H0000010060576018279บริษัท ไทเอซ สิสซิ่ง จำกัด              20102011TALHO                                                                                                                                                                                       
D000002006057601827920102011084805นางฉวีวรรณ ดาราดวง ทพ7196                         8821-9196           6121-7289                               00820726CCSH       0000000207000000                                                                             
D000003006057601827920102011084945อั๋น  แป้งใส                                      88779688            58215322                                11310957CCSH       0000001447100000                                                                             
D000004006057601827920102011085023สมพร  กาศักดิ์  084-1324719                       88479896            07214356                                00336605CCSH       0000001700000000                                                                             
D000005006057601827920102011095735นางทิฆัมพร แช่มเกษม                               88379494            86364366            ศศ 4668             01593373CCSH       0000000823900000                                                                             
D000006006057601827920102011095955นายไพวัลย์ พันธ์หนองหว้า                          8878898             26210355                                10522154CCSH       0000002240200000                                                                             
D000007006057601827920102011100803นายสุรศักดิ์ เลิศไกร                              88569291            76214361                                09550205CCSH       0000001859500000                                                                             
D000008006057601827920102011100918นางศุทธนุช ภัทรศรีสุวัฒน์ ทร3398                  88469095            83213339                                04950176CCSH       0000000961700000                                                                             
D000009006057601827920102011101156นายชาตรี  เวษาสิทธิ์  ทย2217                      8805-9495           7221-2321                               00280900CCSH       0000000699100000                                                                             
D000010006057601827920102011101806นาย สฤษดิ์ศักดิ์  พินิจกุลดี  ทศ 2034             88769787            40212363                                09760540CCSH       0000001918400000                                                                             
D000011006057601827920102011101843นางสาว จิราพร กองประมูล                           8859-8897           7121-3340           ทล 3107             04712940CCSH       0000001476200000                                                                             
D000012006057601827920102011102849นายปฐมพัฒน์  ผาทอง                                8828-9681           0831-2070           มฉ 2800             00740180CCSH       0000001799200000                                                                             
D000013006057601827920102011104049พงษ์ศักดิ์  บริบูรณ์                              8888-8789           1321-0355                               08690542CCSH       0000002116000000                                                                             
D000014006057601827920102011104352ด.ต.พชร ดีพอ มฉ 5607                              8817-9890           7631-5070                               04991118CCSH       0000001515300000                                                                             
D000015006057601827920102011105446นายอำนาจ จันทรวิวัฒน์ ทว3664                      88979788            46213356                                08405593CCSH       0000001652150000                                                                             
D000016006057601827920102011110705นาย รณชัย อินช่วย มช476                           8845-9995           6431-0087                               10900089CCSH       0000001697900000                                                                             
D000017006057601827920102011110903นาย อุดร ผาน้อยวงค์ ทล3562                        8868-9998           2521-3346                               02590600CCSH       0000001665500000                                                                             
D000018006057601827920102011111133นายประกอบ ประทุมศรี  ทศ2817                       88769895            78212361                                10121673CCSH       0000001950000000                                                                             
D000019006057601827920102011111454นาง อัมพร ยารังษี                                 88569590            22316065                                03830197CCSH       0000001105700000                                                                             
D000020006057601827920102011111752นาง หนูกร คงศิริ ทศ2130                           88769896            01212363                                10070203CCSH       0000001884200000                                                                             
D000021006057601827920102011113345นาย ศราวุฒิ สุขพัฒน์  ทล 4135                     8828-9997           5121-4343                               04581882CCSH       0000001665500000                                                                             
D000022006057601827920102011113508นาย ศราวุฒิ สุขพัฒน์  ทล 6068                     8838-9892           8021-6346                               04581882CCSH       0000001700000000                                                                             
D000023006057601827920102011114030นายอรรณพ ศรีปัญญานนท์  ทศ8230                     88559986            02218363                                10074338CCSH       0000001830000000                                                                             
D000024006057601827920102011114719นาย พงษ์กฤษณ์ เกียรติเจริญพันธุ์ ทศ 8353          8835-9895           3321-8365                               04581882CCSH       0000002479200000                                                                             
D000025006057601827920102011115744ร.ท.จักรกฤษณ์ เพียรพิจิตร ทศ9199                  88779998            91219369                                04991118CCSH       0000001800000000                                                                             
D000026006057601827920102011115907ร.ท.จักรกฤษณ์ เพียรพิจิตร ทว 9969                 8898-9891           9921-9356                               04991118CCSH       0000001760000000                                                                             
D000027006057601827920102011120336ด.ต.สุวนัย เสาศิริ ทศ 2620                        8866-9986           0621-2362                               04780120CCSH       0000002252200000                                                                             
D000028006057601827920102011120758นายสมปอง สายยศ                                    88279896            28214353                                03291073CCSH       0000003270400000                                                                             
D000029006057601827920102011121523นางนฤมล  ลมสูงเนิน  ทษ366                         88517699            106199002                               05701141CCSH       0000001575000000                                                                             
D000030006057601827920102011124018นาย อุทัย ธานี                                    88088097            35212358                                02420049CCSH       0000001700000000                                                                             
D000031006057601827920102011124825นายสุพจน์ ภาคฐิน                                  88469897            76211362                                10331749CCSH       0000001864400000                                                                             
D000032006057601827920102011125013นางอุบลรัตน์ บัวเพชร ทย1457                       8896-9192           7421-1325                               02610535CCSH       0000001799000000                                                                             
D000033006057601827920102011125145นายพิสิฐ  บุญมา  ทล 8113                          8848-9690           3121-8341                               11310028CCSH       0000001933700000                                                                             
D000034006057601827920102011125419นางณัฎฐสิณี อยู่พันธุ์                            88779784            07216351                                11730509CCSH       0000001884200000                                                                             
D000035006057601827920102011130216นางสาวสุนิสา ชัยชนะ  ทศ 8295                      88159995            52218369                                11670707CCSH       0000001846600000                                                                             
D000036006057601827920102011130626นางเรณุกา ขันทอง ทศ9728                           88528799            106198465                               04991118CCSH       0000001618700000                                                                             
D000037006057601827920102011131109นายสุรศักดิ์  วิเศษปัดสา  มช 1445                 88528999            107094818                               05701141CCSH       0000001570000000                                                                             
D000038006057601827920102011131425นางประไพวรรณ หวานเย็น  ทร3546                     8815-9798           6521-3334                               05670558CCSH       0000001326800000                                                                             
D000039006057601827920102011133110นายสุริยัน พุทธสิงห์ ทล2401                       88498898            14212340                                10360570CCSH       0000001677400000                                                                             
D000040006057601827920102011133559นายบุญเหลือ พงษ์ธนู                               88388097            50315072                                09760107CCSH       0000001700000000                                                                             
D000041006057601827920102011134227วิรัช อ่อนละออ                                    88502399            106155697                               06990912CCSH       0000001530600000                                                                             
D000042006057601827920102011134229นางณัฐพร ผลเกลี้ยง ทม787                          8847-9894           7721-0318                               10860704CCSH       0000001072400000                                                                             
D000043006057601827920102011134711นาย อนันต์ ขำนิล                                  8809-8499           6121-2347                               00000578CCSH       0000002669000000                                                                             
D000044006057601827920102011134756นางสลิล มะลิต้น ทย 6326                           88189791            63216322                                04585612CCSH       0000001498000000                                                                             
D000045006057601827920102011140051บุยส่ง ต. ทร8401                                  8846-9692           1421-8330                               10360281CCSH       0000004406300000                                                                             
D000046006057601827920102011140436นายสิทธิศักดิ์ หมายมั่น มฉ4985                    8857-9093           5931-4078                               04585612CCSH       0000001700000000                                                                             
D000047006057601827920102011141646ศุภมงคล  สร้อยสายอุบล                             8877-9888           1621-3321                               00650498CCSH       0000000400000000                                                                             
D000048006057601827920102011143021นายปริญญา ผลพานิช มจ9448                          88468399            84319064                                00220927CCSH       0000000927400000                                                                             
D000049006057601827920102011143310มานิตย์  จูจวง                                    8866-7997           0221-1360                               00650498CCSH       0000004865500000                                                                             
D000050006057601827920102011144558นายพิภพ  ใจยอด  ทย 4261                           8888-9797           1221-4326                               04880055CCSH       0000000519000000                                                                             
D000051006057601827920102011153842นางลดาวัลย์ ภักดีสุวรรณ  ทย6474                   88159996            44216327                                10074338CCSH       0000001107900000                                                                             
D000052006057601827920102011163624น.ส.นวลจันทร์ แก้วทอง                             88369492            24210355                                04888904CCSH       0000002007300000                                                                             
D000053006057601827920102011175519นาย พิเชษฐ์  ศรีหาประทุม  ทศ  1499                8826-9997           9421-1369                               08400047CCSH       0000002169600000                                                                             
D000054006057601827920102011181817นาย ทศพล ผาช้างเผือก มฉ 4088                      88669296            80314078                                08450154CCSH       0000001700000000                                                                             
D000055006057601827920102011181933สิทธิพงศ์ น้อยแสง                                 88537299            107075093                               07660694CCSH       0000000950000000                                                                             
D000056006057601827920102011183415นางสาวเมตตา ตะคุณนะ                               88288498            67210355                                11520403CCSH       0000001104300000                                                                             
D000057006057601827920102011185957ธนาเศรษฐ์  ทวีชัยธนธรณ์                           8866-9893           4221-5339                               04888904CCSH       0000001610000000                                                                             
T000058006057601827900000000000000000000000096209450000056                                                                                                                                                                                                      
