H0000010060576018279บริษัท ไทเอซ สิสซิ่ง จำกัด              19082011TALHO                                                                                                                                                                                       
D000002006057601827919082011083137นาย วีระ ไพรณรงค์ มง 3264                         88389291            42313056                                01481887CCSH       0000001078800000                                                                             
D000003006057601827919082011084303นาย ธีรวัฒน์  ไชยสงค์ มช 877                      8805-9794           7831-0087                               04690052CCSH       0000001846600000                                                                             
D000004006057601827919082011084926อำนาจ เจียมเชื่อม  ทศ 2094                        8866-9596           4021-2369                               02530516CCSH       0000001884200000                                                                             
D000005006057601827919082011085057อำนาจ เจียมเชื่อม  ทว 3760                        8817-9797           0721-3356                               02530516CCSH       0000001756700000                                                                             
D000006006057601827919082011092452นาย สุรพงษ์ ยารังษี มจ6252                        8856-9590           2231-6065                               03830885CCSH       0000001105700000                                                                             
D000007006057601827919082011094213พิรภัทรา                                          8887-9792           0921-7358                               06991739CCSH       0000001884200000                                                                             
D000008006057601827919082011094402นาย โยธิน มาดลย์  ทว 3506                         8837-9997           6521-3350                               04581882CCSH       0000001884200000                                                                             
D000009006057601827919082011095607นาง อรณิชา เทพเทียน                               88529899            106197834                               02190470CCSH       0000001584400000                                                                             
D000010006057601827919082011095741นาง อรณิชา เทพเทียน                               88768797            42216368                                02190470CCSH       0000001856500000                                                                             
D000011006057601827919082011101203นางบุญโฮม เกษแสนศรี ทร5420                        88569591            04215332                                04581830CCSH       0000001105700000                                                                             
D000012006057601827919082011102622นาย ประสิทธิ์ ฟังสันเทียะ มจ5293                  8816-9396           3231-5069                               01200274CCSH       0000001753700000                                                                             
D000013006057601827919082011102926นาย วิชาญ ปานสุวรรณ มง 5076                       8816-9698           6031-5057                               10900089CCSH       0000000659000000                                                                             
D000014006057601827919082011103446นางสาว ประสงค์ เที่ยงสันเทียะ ทม4630              8855-9898           0621-4313                               07601138CCSH       0000000829300000                                                                             
D000015006057601827919082011103514นาย ดำรงค์ ศรีนุรัตน์ ทศ4601                      88269391            16214360                                01480840CCSH       0000002513400000                                                                             
D000016006057601827919082011103646นาย ดำรงค์ ศรีนุรัตน์ ทศ4602                      88369391            26214360                                01480840CCSH       0000002513400000                                                                             
D000017006057601827919082011105930นส.อรพิน ธนารักษ์เจริญกุล ทล9301                  88188899            13219340                                07801196CCSH       0000001838900000                                                                             
D000018006057601827919082011112156นายธนกฤต อินนุช                                   88289491            63217340                                05710084CCSH       0000001834700000                                                                             
D000019006057601827919082011112811นายอนันต์ สิงห์น้อย ทศ1463                        88769797            34211366                                04950176CCSH       0000001918440000                                                                             
D000020006057601827919082011112917นายอนันต์ สิงห์น้อย ทศ1141                        88569498            11211364                                04950176CCSH       0000001918440000                                                                             
D000021006057601827919082011113026นายอนันต์ สิงห์น้อย ทว3038                        88179398            80213353                                04950176CCSH       0000001790940000                                                                             
D000022006057601827919082011113211นาง สุพรรณี ภูนุมา ทศ 7276                        8805-9797           6221-7367                               08450242CCSH       0000000252400000                                                                             
D000023006057601827919082011114638นายอมรวงษ์ เปี่ยไพบูลย์                           8858-9781           8821-7342                               00771064CCSH       0000001587900000                                                                             
D000024006057601827919082011115414สมพงษ์ เครือพัฒน์ ทว 9286                         8817-9190           6221-9358                               10903618CCSH       0000001799200000                                                                             
D000025006057601827919082011115539สมพงษ์                                            8807-9190           0221-9359                               10903618CCSH       0000001799200000                                                                             
D000026006057601827919082011115943นางสาวสุภา กุลวงษ์                                8876-9095           8921-0331                               00860473CCSH       0000001565300000                                                                             
D000027006057601827919082011121252นาย วิรุฬห์ภพ ศรีงาม ทร3200                       8840-9191           0221-3330                               02680531CCSH       0000000361500000                                                                             
D000028006057601827919082011121332นาย วิรุฬห์ภพ ศรีงาม ทร3200                       8840-9191           0221-3330                               02680531CCSH       0000000562700000                                                                             
D000029006057601827919082011121334นางจิราภรณ์ เถื่อนอาราม                           8897-9096           4521-0325                               02540078CCSH       0000001319700000                                                                             
D000030006057601827919082011122810นาง ประไพวรรณ  หวานเย็น                           88159798            65213334                                00510019CCSH       0000001326800000                                                                             
D000031006057601827919082011123049นายสิทธิพร   แวดอุดม  มช162                       8885-9796           2131-0086                               04670545CCSH       0000001663600000                                                                             
D000032006057601827919082011123739นาง พลอยงาม ทุ่งไธสงค์ ทย8225                     8825-9896           5221-8322                               00860670CCSH       0000001460000000                                                                             
D000033006057601827919082011124000น.ส.จิรัฏฐ์ ศิริกิจจาขจร ทศ7373                   88059497            33217367                                10150069CCSH       0000000098500000                                                                             
D000034006057601827919082011124004นาย จักรพันธ์ เลี่ยมรัตน์ ทว6307                  88679794            73216350                                01480840CCSH       0000001669200000                                                                             
D000035006057601827919082011124358ศิริชัย จุลแดง ทศ 9189                            8865-9195           9121-9368                               01890216CCSH       0000001546700000                                                                             
D000036006057601827919082011125300สุรพรรณ  จันทะสิทธิ์  ทร2928                      8845-9596           8921-2332                               04950191CCSH       0000000733300000                                                                             
D000037006057601827919082011125631สุนิสา ชัยชนะ                                     8815-9995           5221-8369                               09680060CCSH       0000001846600000                                                                             
D000038006057601827919082011125747ชาตรี เวษาสิทธิ์                                  8805-9495           7221-2321                               00243534CCSH       0000000699100000                                                                             
D000039006057601827919082011130622นายณัฐชัย พลอยสมบูรณ์                             88359996            96217362                                00650260CCSH       0000001889900000                                                                             
D000040006057601827919082011131133นาย บุญเลียน สุขจิตต์ มจ6357                      88578998            73316065                                10070203CCSH       0000002000000000                                                                             
D000041006057601827919082011131250นางอาภาภรณ์ ไชยวรรณ                               88478399            33218329            ทย8393              06971662CCSH       0000001285000000                                                                             
D000042006057601827919082011132026อรวรรณ ศรีสุวรรณเกศ                               88789490            22218343                                09760107CCSH       0000001700000000                                                                             
D000043006057601827919082011132907นายสุนทร  บุญเกิด                                 8806-9292           8521-7357                               03965684CCSH       0000001800000000                                                                             
D000044006057601827919082011133031นางอุบลรัตน์ บัวเพชร ทย.1457                      8896-9192           7421-1325                               04603236CCSH       0000001769000000                                                                             
D000045006057601827919082011133200นางอุบลรัตน์ บัวเพชร ทศ 4094                      8886-9192           4021-4369                               04603236CCSH       0000002346000000                                                                             
D000046006057601827919082011133203นางสาวกนิษฐา อินฉาย ทม 7045                       88378598            50217314                                01760698CCSH       0000000617200000                                                                             
D000047006057601827919082011133622คุณ ทิฆัมพร แช่มเกษม                              8837-9494           8636-4366                               00310005CCSH       0000000823900000                                                                             
D000048006057601827919082011135632นายสำราญ ไทรกลมเกลียว                             88369693            10213335                                08558551CCSH       0000000989800000                                                                             
D000049006057601827919082011141130นาย ปริญญา  ผลพานิช                               8846-8399           8431-9064                               00360243CCSH       0000000927400000                                                                             
D000050006057601827919082011141245นางดวงจันทร์ หันจางสิทธิ์                         8849-9890           5421-1342           ทล1425              01900020CCSH       0000000240000000                                                                             
D000051006057601827919082011141735นายปัญญา วงษ์สง่า                                 88989595            47217339                                03250446CCSH       0000005971900000                                                                             
D000052006057601827919082011142640เพชรมณี สิงห์วิชัย ทย7768                         8878-9894           8721-7326                               00441768CCSH       0000000064800000                                                                             
D000053006057601827919082011144957น.อ.แมน ศีตะจิตต์                                 8855-9994           6721-8365                               04500664COTH       0000001541100000                                                                             
D000054006057601827919082011150948นายไพวัลย์ พันธ์หนองหว้า ทว652                    8878-8898           2621-0355                               10520393CCSH       0000002240200000                                                                             
D000055006057601827919082011151556นาย สุรินทร์ ชูวงศ์วาน มง2983                     8826-9592           3931-2058                               07822714CCSH       0000001000000000                                                                             
D000056006057601827919082011152402นายนรชัย แพงศร                                    88779192            09217357                                09760107CCSH       0000001884200000                                                                             
D000057006057601827919082011152938เอกสิทธิ์ ศรีทองอ่อน                              88379696            37214359                                00170047CCSH       0000001918700000                                                                             
D000058006057601827919082011153132สุกัญญา ศรีจันทร์                                 88279696            37214355                                00170047CCSH       0000001228700000                                                                             
D000059006057601827919082011153147นายรามา ยาเดียว ทย1415                            8845-9894           5421-1321                               11522191CCSH       0000000632100000                                                                             
D000060006057601827919082011153202นายสมหมาย ปานเนาว์ มง8921                         8865-9894           1931-8052                               07609426CCSH       0000000701500000                                                                             
D000061006057601827919082011153522นาย  อำนาจ  จันทรวิวัฒน์ ทว3664                   8897-9788           4621-3356                               08401303CCSH       0000001617900000                                                                             
D000062006057601827919082011160233ด.ต.เสิม หยุ่นแก้ว ทล7009                         8848-7497           9021-7340           0898165953          01970387CCSH       0000001700000000                                                                             
D000063006057601827919082011164004นายสุรเชษฎ ตปนิยนันท์ ทล 3756                     88589898            67213345                                10071091CCSH       0000001699800000                                                                             
D000064006057601827919082011164017นายปรีชา เชื้อหมอ ทว9753                          8857-8099           3721-9355                               08691092CCSH       0000001515300000                                                                             
D000065006057601827919082011165345นายสรรเสริญ สีธงชัยรุ่งโรจน์                      88468597            47216327                                07930096CCSH       0000001010600000                                                                             
D000066006057601827919082011165633นายสรรเสริญ สีธงชัยรุ่งโรจน์                      88068797            84215364                                07930096CCSH       0000001010600000                                                                             
D000067006057601827919082011170915นาง ฉวีวรรณ ลาภบริสุทธิ์ ทล805                    8839-9791           5821-0340                               07627621CCSH       0000001665500000                                                                             
D000068006057601827919082011170946นางสมฤทัย บุญถนอมจิต  ทร994                       88669493            49210339                                08690335CCSH       0000001480200000                                                                             
D000069006057601827919082011173725นาย ณัฐวุฒิ คำมุงคุณ                              88068999            81215360                                08691827CCSH       0000001925300000                                                                             
D000070006057601827919082011173928นายณัฐวุฒิ คำมุงคุณ ทศ5108                        88068999            81215360                                08691827CCSH       0000001856500000                                                                             
D000071006057601827919082011181429นางสุกัญญา วิไลลักษณ์ ทศ2376                      8866-9796           6321-2367                               04671136CCSH       0000001356900000                                                                             
D000072006057601827919082011181634น.อ. ธวัชชัย วิไลลักษณ์ ฌษ7111                    8836-9396           1110-7371                               04671136CCSH       0000001150000000                                                                             
D000073006057601827919082011183442นายภิชาติ ศรีหาประทุม ทล8536                      8868-9090           6521-8343                               08405593CCSH       0000000286300000                                                                             
D000074006057601827919082011183655นางสาว กิตติพร ตรีศุภกานต์ ทศ4090                 8866-9192           0021-4369                               04780158CCSH       0000001918500000                                                                             
D000075006057601827919082011183848นางสาว กิตติพร ตรีศุภกานต์ ทศ4088                 8876-9192           8021-4368                               04780158CCSH       0000001918500000                                                                             
D000076006057601827919082011184249ธนาเศรษฐ์ ทวีชัยธนธรณ์                            8866-9893           4221-5339                               06980188CCSH       0000001610000000                                                                             
T000077006057601827900000000000000000000000111142220000075                                                                                                                                                                                                      
