H0000010060576018279บริษัท ไทเอซ สิสซิ่ง จำกัด              18082011TALHO                                                                                                                                                                                       
D000002006057601827918082011084719นางสาว เอมอร ศักดิ์เดชะมณี ทม 8135                8828-9593           5121-8313                               02501180CCSH       0000001973700000                                                                             
D000003006057601827918082011084905นายอนันต์ มีลาภา มฉ3101                           8875-7797           1131-3070                               02260861CCSH       0000001799200000                                                                             
D000004006057601827918082011085358นางดวงจันทร์ หันจางสิทธิ์                         8849-9890           5421-1342                               04710157CCSH       0000001350000000                                                                             
D000005006057601827918082011090610นางธีลาวัลย์ ศรีบุศยดี                            8887-9895           5421-9310                               05110459CCSH       0000001517700000                                                                             
D000006006057601827918082011090822นายสมชาติ กวดนอก ทศ 9169                          8885-9884           9121-9366                               04580699CCSH       0000001602500000                                                                             
D000007006057601827918082011091803นายสุขสันต์  นวลดี                                88698998            23212348                                00800156CCSH       0000001590000000                                                                             
D000008006057601827918082011092247มณฑิรา ทวีกัลป์                                   88789696            87214345                                01880018CCSH       0000001714500000                                                                             
D000009006057601827918082011093106นางสาวหยาดอรุณ ศรีทับทิม                          8847-9297           7921-2335                               04710157CCSH       0000000700000000                                                                             
D000010006057601827918082011094157นางน้ำฝน ขาวนุ่น                                  88159296            20215341                                07331114CCSH       0000001565700000                                                                             
D000011006057601827918082011095817นาย อนุกูล แก้ววิเชียร ทว 7783                    8866-9695           3721-7358                               01920913CCSH       0000001884200000                                                                             
D000012006057601827918082011095911ชันษา  คุณประทุม                                  88979192            09217351                                07580441CCSH       0000001884200000                                                                             
D000013006057601827918082011100203นายมงคล ทองอยู่ ทว 8154                           8867-9982           4121-8355                               01971063CCSH       0000001799200000                                                                             
D000014006057601827918082011102736คุณธนเดช  จารุฐิติมาศ  ทย 7318                    8856-9493           8321-7321                               02260835CCSH       0000001105700000                                                                             
D000015006057601827918082011103210นาย อนันต์  เปสโล มฉ 1360                         8808-9497           0331-1076                               04690052CCSH       0000000030000000                                                                             
D000016006057601827918082011103215นายศักดิ์คร  พวงพิลา มฉ.6033                      88778998            30316073                                01307047CCSH       0000001884200000                                                                             
D000017006057601827918082011103219นายทองปาน เหล่าบัวดี                              8857-7397           2521-1359                               11071071CCSH       0000001432600000                                                                             
D000018006057601827918082011104707นายปฐมพัฒน์ ผาทอง มฉ 2800                         8828-9681           0831-2070                               00620586CCSH       0000001799200000                                                                             
D000019006057601827918082011110350นาย ธวัชชัย เจริญบัณฑิตชัย                        8867-9796           5431-4075                               01980916CCSH       0000002411300000                                                                             
D000020006057601827918082011113623นายคงฤทธิ์  ผดาวัลย์  ทม  4085                    8847-9192           5021-4318                               03970523CCSH       0000001220000000                                                                             
D000021006057601827918082011114801นางจรรยา อินทศร ทว 825                            8816-7697           5821-0352                               04580699CCSH       0000001818100000                                                                             
D000022006057601827918082011115016นายอรัญ ขาวเนตร ทร 5834                           88879794            48215333                                09769761CCSH       0000001696200000                                                                             
D000023006057601827918082011115131นายอรัญ ขาวเนตร ทร 2398                           88269898            83212339                                09769761CCSH       0000001560000000                                                                             
D000024006057601827918082011120027นายสมบัติ    โคกลือชา   ทว 7622                   8847-9683           2621-7352                               04670545CCSH       0000001700000000                                                                             
D000025006057601827918082011120633นส.วิยะดา ยิ่งยงค์ ทศ 742                         8807-8397           2721-0364                               11521628CCSH       0000001894200000                                                                             
D000026006057601827918082011121256คุณ ณัฐนนท์ นมนาน                                 8878-8989           8721-9344                               03830446CCSH       0000001700000000                                                                             
D000027006057601827918082011122753นายสามารถ สุขเรือง                                88579886            53105318            ฌม 5385             01528111CCSH       0000001100000000                                                                             
D000028006057601827918082011122838นาย ดำรงค์  ด่านกำจัด  ทม 4812                    8897-9490           2821-4311                               09760540CCSH       0000000808500000                                                                             
D000029006057601827918082011125946นายมณฑล วรรณขาม                                   8895-9297           8921-5338           ทร 5988             10325821CCSH       0000001490000000                                                                             
D000030006057601827918082011130023นาย  ถวิล   จำเริญ                                8817-8899           1321-9359           ทว9391              07990852CCSH       0000001476800000                                                                             
D000031006057601827918082011130128นาย  ถวิล   จำเริญ                                8827-9197           8021-4357           ทว4078              07990852CCSH       0000001476800000                                                                             
D000032006057601827918082011130226นาย  ถวิล   จำเริญ                                8817-9698           4721-2357           ทว2774              07990852CCSH       0000001476800000                                                                             
D000033006057601827918082011130311สำเร็จ  บุตรปราบ  ทศ 7282                         8865-9897           2221-7368                               04950191CCSH       0000000030000000                                                                             
D000034006057601827918082011130336นาง วินาพร  ทองคลองไทร  ทว 6336                   8807-9894           6321-6353                               09760540CCSH       0000001791300000                                                                             
D000035006057601827918082011130706นางอุไรวรรณ นุตตะโยธิน ทย 3491                    8816-8898           1421-3329                               04603236CCSH       0000001391000000                                                                             
D000036006057601827918082011132608นิยม ค. มข9919                                    8806-9397           9931-9021                               10360281CCSH       0000001754000000                                                                             
D000037006057601827918082011133349พ.ท. เรวัต มากกุญชร                               8847-9393           7021-7353                               00340753CCSH       0000002084000000                                                                             
D000038006057601827918082011133910บุญสม สุขเล่ห์ มฉ3863                             8837-9998           3831-3076                               03830885CCSH       0000001734300000                                                                             
D000039006057601827918082011134507นางภัททิรา วีระกูล ทศ34                           8888598             40210363                                01936586CCSH       0000001851800000                                                                             
D000040006057601827918082011135551นายวิโรจน์  แก่นจันทร์ มจ6921                     88869493            19316062                                06921923CCSH       0000001062400000                                                                             
D000041006057601827918082011140627นาง สุภาพรณ์ เทพทวี                               8867-9996           5621-4357           ทว 4675             10410154CCSH       0000001861300000                                                                             
D000042006057601827918082011140746นาย อิทธิโชค  ทัดเทียม                            8828-8897           8221-2351                               08000737CCSH       0000001954400000                                                                             
D000043006057601827918082011141035นาย สุวรรณ  เนื่องดิถี ทม 5641                    8846-9895           1621-5314                               00620222CCSH       0000001159200000                                                                             
D000044006057601827918082011141431นายสุรพล  อยู่หาญ                                 8887-8299           8531-9060                               00336716CCSH       0000001290300000                                                                             
D000045006057601827918082011141834นาย สมบูรณ์ ผามั่ง                                88269892            08312065                                00201688CCSH       0000001052200000                                                                             
D000046006057601827918082011142813นายเจริญ แสงแดง                                   88379390            18210347            ทล871               00540034CCSH       0000000198800000                                                                             
D000047006057601827918082011145106นางสาว นภารัตน์  ปิมปา  ทว544                     8886-8899           4521-0354                               00330234CCSH       0000001880000000                                                                             
D000048006057601827918082011150538นายนภดล  เจตรุ่งพันธุ์                            8867-9391           4321-8359                               04700012CCSH       0000000877600000                                                                             
D000049006057601827918082011153318นาย สหฐิเกียรตื โปร่งนุช มจ 9968                  8839-9291           8931-9066                               04780120COTH       0000001056000000                                                                             
D000050006057601827918082011153641ณัชชา สุนทรโชติ                                   88678299            37351407                                11250232CCSH       0000000950000000                                                                             
D000051006057601827918082011154146นายสมพร  กาศักดิ์  ทว4760                         8847-9896           0721-4356                               00330234CCSH       0000001700000000                                                                             
D000052006057601827918082011165747นางสาวพวงเพ็ญ  ศิริพละ                            8887-9997           9521-3354                               04700012CCSH       0000002116700000                                                                             
D000053006057601827918082011170401ทองสุข ศรศิริ                                     88678398            46319055                                08450262CCSH       0000000715200000                                                                             
D000054006057601827918082011170456นายพงษ์ศักดิ์  บริบูรณ์   ทว 5397                 8817-9686           7321-5359           089-1110798         08690033CCSH       0000001897900000                                                                             
D000055006057601827918082011170635นาย พงษ์ศํกดิ์  บริบูรณ์  ทศ1318                  8836-9398           8321-1361           089-1110798         08690033CCSH       0000001990000000                                                                             
D000056006057601827918082011172027นายโชคชัย สนธิ์ชัยสกุล ทว 3503                    88879688            35213350                                00810467CCSH       0000001756700000                                                                             
D000057006057601827918082011173725นางสาว นริสา จำนงนิตย์ ทม5651                     88879398            16215315                                10070203CCSH       0000000870000000                                                                             
D000058006057601827918082011174153นายเสกสรร นาสวน ทศ2861                            8856-9195           1821-2366                               05671599CCSH       0000001194400000                                                                             
D000059006057601827918082011180759นายกิตติชัย ใจกว้าง                               8868-9580           5121-9343                               07650724CCSH       0000001838900000                                                                             
D000060006057601827918082011190243นายสมชาย ตราลาภ ทว 9521                           88078599            15219352                                10071091CCSH       0000001950000000                                                                             
D000061006057601827918082011195346นายบุญเลิศ เทศขำ ปอ2964                           8888-8497           4925-2416                               07620899CCSH       0000000680000000                                                                             
T000062006057601827900000000000000000000000088149700000060                                                                                                                                                                                                      
