H0000010060576018279บริษัท ไทเอซ สิสซิ่ง จำกัด              30082011TALHO                                                                                                                                                                                       
D000002006057601827930082011083527นายเผด็จ ยินดีขันธ์                               88898598            55212346                                01395578CCSH       0000001715800000                                                                             
D000003006057601827930082011085531นางสาวศิริกานดา  ทานุรัตน์                        88989790            67218341                                03970257CCSH       0000001794600000                                                                             
D000004006057601827930082011085830นายคำรณ  ภู่ลา                                    88579491            45315071                                03970257CCSH       0000001124500000                                                                             
D000005006057601827930082011092131นายกมล  แต้มสว่าง                                 8858-9590           6521-7333                               00911077CCSH       0000001819000000                                                                             
D000006006057601827930082011092247นายกมล  แต้มสว่าง                                 8836-9590           8421-8335                               00911077CCSH       0000001498000000                                                                             
D000007006057601827930082011092355นายกมล  แต้มสว่าง                                 8888-9790           8421-8327                               00911077CCSH       0000001617000000                                                                             
D000008006057601827930082011092511นายกมล  แต้มสว่าง                                 8878-8699           4321-6326                               00911077CCSH       0000001617000000                                                                             
D000009006057601827930082011093514นายสุวัฒน์  มีพลอย                                8817-9992           0031-6062                               02161072CCSH       0000001418100000                                                                             
D000010006057601827930082011093836นาย กุล โสมณวัฒน์                                 8886-8298           7131-0059                               01270563CCSH       0000001336800000                                                                             
D000011006057601827930082011095209นายสมบูรณ์  สนศรี                                 8807-9496           7921-4352                               01520502CCSH       0000001756700000                                                                             
D000012006057601827930082011101029นายวัชรพงษ์ ภูครองตา                              88479293            69314076                                02610862CCSH       0000001884200000                                                                             
D000013006057601827930082011102927นายสวนิช ชาติเผือก ทย2873                         8875-9984           3821-2327                               01100538CCSH       0000001402900000                                                                             
D000014006057601827930082011104416นายกัมพล ชายทวีป  ทร 7375                         8889-9896           5321-7337                               08000757CCSH       0000000261200000                                                                             
D000015006057601827930082011104854นายวรฉัตร ทศศะ มฉ193                              8859-9590           3131-0079                               00190024CCSH       0000001447900000                                                                             
D000016006057601827930082011105230นายตะวัน ประสพวงค์ มจ8810                         88599883            08318061                                07930240CCSH       0000000502000000                                                                             
D000017006057601827930082011110135นายสมเกียรติ บุญปาน  ทศ 3363                      8845-9698           3321-3366                               06230870CCSH       0000001372800000                                                                             
D000018006057601827930082011110148จ.ส.อ.ประดิษฐ์ ยุบลนวน ทล 3610                    88189898            06213341                                11250232CCSH       0000001447900000                                                                             
D000019006057601827930082011111226กมล แต้มสว่าง                                     88289590            84218348                                00911062CCSH       0000001800000000                                                                             
D000020006057601827930082011111355กมล แต้มสว่าง                                     88189690            31218343                                00911062CCSH       0000001800000000                                                                             
D000021006057601827930082011111444กมล แต้มสว่าง                                     88689590            42218336                                00911062CCSH       0000001738200000                                                                             
D000022006057601827930082011111532กมล แต้มสว่าง                                     88889790            84218327                                00911062CCSH       0000001617000000                                                                             
D000023006057601827930082011111626กมล แต้มสว่าง                                     88369590            84218335                                00911062CCSH       0000001500000000                                                                             
D000024006057601827930082011111724กมล แต้มสว่าง                                     88788699            43216326                                00911062CCSH       0000001617000000                                                                             
D000025006057601827930082011111812กมล แต้มสว่าง                                     88589590            65217333                                00911062CCSH       0000001819000000                                                                             
D000026006057601827930082011111934กมล แต้มสว่าง                                     88189590            85218348                                00911062CCSH       0000001800000000                                                                             
D000027006057601827930082011112022กมล แต้มสว่าง                                     88289590            84218348                                00911062CCSH       0000001800000000                                                                             
D000028006057601827930082011112109กมล แต้มสว่าง                                     88189690            31218343                                00911062CCSH       0000001800000000                                                                             
D000029006057601827930082011112156กมล แต้มสว่าง                                     88689590            42218336                                00911062CCSH       0000001738200000                                                                             
D000030006057601827930082011113639นายจุมพล เหมือนจีน                                8826-8597           6621-0368                               09760107CCSH       0000000998700000                                                                             
D000031006057601827930082011114139ส.ต.อ. สมบัติ  สิมหลวง ทล3824                     8858-9798           4821-3342                               11340169CCSH       0000001665500000                                                                             
D000032006057601827930082011114550นาย เขษม  คุ้มประยูร  ทล 5260                     8858-9594           0221-5346                               04690052CCSH       0000001692200000                                                                             
D000033006057601827930082011114629พิสิฐพงศ์ พันจำปา                                 88959397            23212359                                04710657CCSH       0000001877300000                                                                             
D000034006057601827930082011114641นาย ณัฐพร ธนะเนตร ทล 943                          88799491            39210344                                01481887CCSH       0000001665500000                                                                             
D000035006057601827930082011114742ประพนธ์ ละม้ายแข                                  88879498            79212357                                10365296CCSH       0000001787500000                                                                             
D000036006057601827930082011124123นายพล เกิดชู                                      88619790            10212321                                04880760CCSH       0000001227200000                                                                             
D000037006057601827930082011125650นางสาว ธาริณี แก้วผลึก                            88579096            51215355                                00330398CCSH       0000001884200000                                                                             
D000038006057601827930082011130902ประยูร                                            88479587            09212311                                00190408CCSH       0000001670000000                                                                             
D000039006057601827930082011131855นายชวลิต ฮั่นปุดโจ๊ว ทว3709                       8867-9697           9721-3350                               04951583CCSH       0000001884200000                                                                             
D000040006057601827930082011132055นายณัฐนนท์ นมนาน                                  88788989            87219344                                03830412CCSH       0000001034800000                                                                             
D000041006057601827930082011132334นายปรีชา ธารีไทย                                  8897-9197           6221-4350                               10150151CCSH       0000001756700000                                                                             
D000042006057601827930082011134000บุญมี พันศิริพัฒน์                                88459986            79216325                                01441668CCSH       0000000958600000                                                                             
D000043006057601827930082011135925น.ส.วีณา  วงศ์ศิริ                                88479591            03218352                                11140161CCSH       0000001884200000                                                                             
D000044006057601827930082011140439วิรัตน์ อมรนิรุตติ                                8887-8797           6728-2215                               01990942CCSH       0000001105700000                                                                             
D000045006057601827930082011141543นายธงชัย ปลัดศรี                                  8867-9683           6421-7354                               00160728CCSH       0000001990000000                                                                             
D000046006057601827930082011143322นายมานิตย์  จูจวง                                 8866-7997           0221-1360                               05760270CCSH       0000001627900000                                                                             
D000047006057601827930082011143819นาย โชคชัย สนธิ์ชัยสกุล ทล6671                    8818-9392           1621-6347                               00640141CCSH       0000001700000000                                                                             
D000048006057601827930082011145120ยงยุทธ บรรจง 0894596109                           88898997            87310070                                03993086CCSH       0000001665500000                                                                             
D000049006057601827930082011145707นายกิตติธร นนพละ                                  8859-9591           5921-0344                               01520889CCSH       0000001459200000                                                                             
D000050006057601827930082011145759ชูชีพ ฉายน้อย                                     8898-9393           7521-3317                               11255243CCSH       0000001400000000                                                                             
D000051006057601827930082011145924นายวุฒิชัย มาตชะรา                                88549499            104115407                               04990552CCSH       0000001901600000                                                                             
D000052006057601827930082011150648นายกิมชัย แซ่อือ                                  8817-9896           6821-4350           ทว 4806             01441666CCSH       0000001519300000                                                                             
D000053006057601827930082011151317วรรณภา  เจริญอินทร์                               8826-9690           1221-5361                               07990174CCSH       0000003241900000                                                                             
D000054006057601827930082011154132นาย ธนทร โสภาวงศ์ ทล3531                          8819-8297           1521-3343                               00311061CCSH       0000001835400000                                                                             
D000055006057601827930082011163946นายพิชิตชัย  ดวงจรัส  ทล 885                      8896-8398           5821-0348                               08450703CCSH       0000001010600000                                                                             
D000056006057601827930082011171637สมยศ มูลเมืองแสน                                  8897-9587           6021-5350                               08510017CCSH       0000000235500000                                                                             
D000057006057601827930082011173052นายอดิศักดิ์ หันวิสัย                             8856-9693           6531-5067                               01730481CCSH       0000000415400000                                                                             
D000058006057601827930082011180307ด.ต.ชาญ ทับพุ่ม ทม1606                            8879-8198           6621-1310                               08780012CCSH       0000001450000000                                                                             
D000059006057601827930082011184741นายสมพงษ์ ดารักษ์ ทล593                           8896-9391           3521-0349                               10360725CCSH       0000000100000000                                                                             
T000060006057601827900000000000000000000000087690400000058                                                                                                                                                                                                      
