H0000010060576018279บริษัท ไทเอซ สิสซิ่ง จำกัด              11012012TALHO                                                                                                                                                                                       
D000002006057601827911012012083816นางธาชินี อรชุน ฌค 6368                           88469892            83106036                                11730509CCSH       0000000850000000                                                                             
D000003006057601827911012012084659นายชำนาญ สินสำอางค์                               88519199            107093077                               02173494CCSH       0000001368000000                                                                             
D000004006057601827911012012085452นายสมนึก จิตรมนตรี ทว 3297                        88479298            72213359                                02530654CCSH       0000001918500000                                                                             
D000005006057601827911012012085709น.ส.นริสรา  แปนสวย                                88859896            06217364                                11470668CCSH       0000001863100000                                                                             
D000006006057601827911012012085717นายสำฤทธิ์  แก่นจันทร์                            88189097            06214345                                06920406CCSH       0000001756800000                                                                             
D000007006057601827911012012092045นายสำฤทธิ์  แก่นจันทร์ มจ7524                     88259595            45317092                                06921923CCSH       0000001261700000                                                                             
D000008006057601827911012012094843นายประเสริฐ แก้วจั่นเพ็ชร                         88378398            81214332                                00510528CCSH       0000001585000000                                                                             
D000009006057601827911012012095004นางดวงจันทร์ หันจางสิทธิ์                         88502899            107154831                               01900719CCSH       0000000732700000                                                                             
D000010006057601827911012012100307นายสุรพล  อยู่หาญ  มจ9508                         88878299            85319060                                00330234CCSH       0000000132800000                                                                             
D000011006057601827911012012103442นายสิทธิรัตน์ ศูนย์ผล ทว 4273                     88379097            32214357                                04950529CCSH       0000001605200000                                                                             
D000012006057601827911012012104946นางสาวสุรัตน์ นาคคล้าย                            88510599            107161060                               01810675CCSH       0000001538200000                                                                             
D000013006057601827911012012105217นายเลิศพร  แสนบรรดิษฐ์ ทร 5542                    88478197            25215334                                01951095CCSH       0000001550700000                                                                             
D000014006057601827911012012110011นางอารยา ลมจิตร                                   88968897            75319060            มจ.9507             07990541CCSH       0000001647500000                                                                             
D000015006057601827911012012111331นายประวัติ  กองทน                                 88527399            106147070           ทว6982              04881604CCSH       0000001782900000                                                                             
D000016006057601827911012012111603นางจุไรรัตน์ สุทธิเวช                             88089197            76214347                                11520403CCLQ400866 00000010000000040089                                                                         
D000017006057601827911012012111742นางจุไรรัตน์ สุทธิเวช                             88089197            76214347                                11520403CCSH       0000001391700000                                                                             
D000018006057601827911012012113132สิทธิโชค อภิชยารักษ์ ทล4771                       77389197            17214347                                04950529CCSH       0000007507600000                                                                             
D000019006057601827911012012113251อนุสรณ์  ศรีมาลี                                  88759398            87319070                                00130105CCSH       0000001905500000                                                                             
D000020006057601827911012012113624นางสาวพนิดา แสงรัมย์                              88259096            90218366                                03960229CCSH       0000001519900000                                                                             
D000021006057601827911012012115113นางวันเพ็ญ กิจนิยม ทม8375                         88279690            53218317            0842099624          01970387CCSH       0000000970800000                                                                             
D000022006057601827911012012115740นางนงคราญ  เขมะวิริยะ                             88079790            71147245                                00120138CCSH       0000000329400000                                                                             
D000023006057601827911012012115840นวพล  ก้านอินทร์                                  88501099            106139735                               08550648CCSH       0000000132800000                                                                             
D000024006057601827911012012120023นายสุพน หาบัณฑิตย์  ทม6402                        88359694            24216310                                01770677CCSH       0000000903600000                                                                             
D000025006057601827911012012120416นายระเบียบ  คัมภิรานนท์ ทร.5462                   88669790            24215336                                04650095CCSH       0000001237000000                                                                             
D000026006057601827911012012120439นายธีรพงษ์ สมนาม ทร.4469                          88523899            107136028                               10151588CCSH       0000000490500000                                                                             
D000027006057601827911012012121638นางสายพิณ พรมประดิษ                               88546989            104116364                               04660883CCSH       0000003710600000                                                                             
D000028006057601827911012012122028นายวารี สืบสายลา                                  88530099            104119506                               11475258CCSH       0000001372800000                                                                             
D000029006057601827911012012123102นายพงศ์เพียร เพียรสวัสดิ์ มจ3391                  8888-9681           1331-3069                               08691092CCSH       0000002662900000                                                                             
D000030006057601827911012012124902คุณพิสิฐพงศ์ พันจำปา                              8895-9397           2321-2359                               04710654CCSH       0000001850000000                                                                             
D000031006057601827911012012131826นาย  ณรงค์   พรหมอ่อน                             88868797            31215313            ทม5133              00611358CCSH       0000000841800000                                                                             
D000032006057601827911012012133858นางสาวสมหวัง นับกลาง                              88479291            34218359                                01730481CCSH       0000001884200000                                                                             
D000033006057601827911012012133928นายวิสุทธิ์ ปามา ทศ2292                           88269887            22212369                                07960037CCSH       0000001900000000                                                                             
D000034006057601827911012012141052นาย ปรีชา สุขสมร                                  8857-9896           9231-4075                               00000130CCSH       0000001756400000                                                                             
D000035006057601827911012012141341ถนอม ไพจิตร                                       88520399            107121179                               00390143CCSH       0000000044000000                                                                             
D000036006057601827911012012142331นายสมพร คำใจ ทล 1840                              88268699            08211344            0860462986          01086005CCSH       0000001162700000                                                                             
D000037006057601827911012012143239นายรัศเธียร บัวคลี่  ทศ2933                       88169095            39212363                                01480206CCSH       0000001799200000                                                                             
D000038006057601827911012012143511นายไพศาล พรประภาศักดิ์   ทว 9155                  88579390            51219355                                11830488CCSH       0000001704800000                                                                             
D000039006057601827911012012143710นายไพศาล พรประภาศักดิ์   ทว 9158                  88479390            81219355                                11830488CCSH       0000001704800000                                                                             
D000040006057601827911012012143907ด.ต.เสิม หยุ่นแก้ว ทว4197                         88479197            71214359            0898165953          01970387CCSH       0000001884200000                                                                             
D000041006057601827911012012143957ด.ต.เสิม หยุ่นแก้ว ทล4228                         88789093            82214342                                01970387CCSH       0000001665500000                                                                             
D000042006057601827911012012150531นายภูริณัฐ อดุลนิรัตน์                            88588099            65210356                                10720377CCSH       0000001918500000                                                                             
D000043006057601827911012012152251นาย ดำรงค์รักษ์ โชคพิมาย                          88579887            64214353                                00771064CCSH       0000001884200000                                                                             
D000044006057601827911012012153754นายสายชล คงสมบูลย์                                88499390            32216320                                11500535CCSH       0000001405500000                                                                             
D000045006057601827911012012154332พ.ต.ณัฐ  กาญจนโรจน์    ทว5812                     88505899            106140169                               04770321CCSH       0000000037000000                                                                             
D000046006057601827911012012165048นาย บุญมี งามขำ ทว210                             8818-8989           0221-0351                               08510017CCSH       0000001700000000                                                                             
D000047006057601827911012012170414นส.วิยะดา ยิ่งยงค์ ทศ 742                         8807-8397           2721-0364                               10996785CCSH       0000001884200000                                                                             
D000048006057601827911012012174354นายณัฏฐพล พูลสวัสดิ์ ทร3240                       88503299            107131978                               07540596CCSH       0000001105900000                                                                             
D000049006057601827911012012174858วิชาญ ขนอม                                        88078498            20210369                                10990511CCSH       0000001878600000                                                                             
D000050006057601827911012012175434นายวรวิทย์ และสง่า ทล1052                         88679992            20211345                                05690216CCSH       0000001602000000                                                                             
D000051006057601827911012012175614นางสุภาพร เดชวรรณ ทว7742                          88079692            27217354                                05690216CCSH       0000000030000000                                                                             
D000052006057601827911012012181539นายธีระ สุวรรณเกิด                                88279986            51215359            ทว5195              06971662CCSH       0000001700000000                                                                             
D000053006057601827911012012192418น.ส. จิรัฏฐ์ ศิริกิจจาขจร ทศ7373                  88059497            33217367                                10154881CCSH       0000001846600000                                                                             
T000054006057601827900000000000000000000000079918300000052                                                                                                                                                                                                      
