H0000010060576018279บริษัท ไทเอซ สิสซิ่ง จำกัด              07082011TALHO                                                                                                                                                                                       
D000002006057601827907082011112643นายวรวิทย์ ทิพนัด                                 8818-9090           6721-8344           ทล8746              08510518CCSH       0000001622500000                                                                             
D000003006057601827907082011120515นางสกาวเดือน โสตา ทย8795                          8876-8899           5721-8329                               04781103CCSH       0000001997300000                                                                             
D000004006057601827907082011124747วินัย  กองเงินนอก                                 88779884            30315072                                10670210CCSH       0000001700000000                                                                             
D000005006057601827907082011125256ทศพล ผาช้างเผือก                                  88169296            45212362                                08450160CCSH       0000001884200000                                                                             
D000006006057601827907082011132026นาง ธาชินี อรชุน  ฌค 6368                         8846-9892           8310-6036                               05700767CCSH       0000000850000000                                                                             
D000007006057601827907082011134500นายสุรเดช  แก่นโนรา                               8886-9797           0636-1072           ศฉ1620              08690266CCSH       0000000588500000                                                                             
D000008006057601827907082011140123นายสังทอง  มูลเมืองแสน  ทว 5006                   8897-9587           6021-5350                               08510045CCSH       0000001501500000                                                                             
D000009006057601827907082011142956นาย คำพูน สะหุนันต์ มฉ9183                        88568997            31319078                                07930727CCSH       0000001133400000                                                                             
D000010006057601827907082011143414นาย กมล แต้มสว่าง  ทศ3666                         8896-9293           6621-3366                               08000757CCSH       0000001799200000                                                                             
D000011006057601827907082011153847นายสุชาติ อิ่มอร่าม ทล 3868                       8848-9398           8821-3346                               08510258CCSH       0000001665500000                                                                             
D000012006057601827907082011154117นางสาว สุกัญญา มีชัย ทศ 6490                      8886-8597           0421-6369                               04780158CCSH       0000001839700000                                                                             
D000013006057601827907082011165359นายวานิช สงเคราะห์                                88089294            59311076            มฉ 1965             04880760CCSH       0000001295300000                                                                             
D000014006057601827907082011165614นายเบญจพนต์ รุ่งศรีศศิธร                          88159895            24213346            ทล3462              04880760CCSH       0000001091400000                                                                             
D000015006057601827907082011165924นายนคร  ทองแก้ว  ทศ 3174                          8866-9494           4121-3367                               09760540CCSH       0000001915200000                                                                             
D000016006057601827907082011172553paiboon  kaewsrimuang                             8856-9886           5521-3351                               04700196CCSH       0000001664000000                                                                             
D000017006057601827907082011172824นาย ธีระชาย แสงสุวรรณ                             88589292            45216342            ทล6524              04881144CCSH       0000001735000000                                                                             
D000018006057601827907082011174740นายสรรเสริญ สีธงชัยรุ่งโรจน์ ทล2637               88359596            76212343                                07930727CCSH       0000001305000000                                                                             
D000019006057601827907082011174820นายสรรเสริญ สีธงชัยรุ่งโรจน์ ทย7860               88859998            08217326                                07930727CCSH       0000001010600000                                                                             
D000020006057601827907082011174903นายสมเกียรติ สีธงชัยรุ่งโรจน์ ทย6955              88469694            59216325                                07930727CCSH       0000001159200000                                                                             
D000021006057601827907082011175005นายสมเกียรติ สีธงชัยรุ่งโรจน์ ทพ3098              88178597            80213289                                07930727CCSH       0000001226300000                                                                             
D000022006057601827907082011181216นาย สุรศักดิ์ อินทศร                              8836-9290           7321-1352                               08690335CCSH       0000001979500000                                                                             
D000023006057601827907082011192818นายเจริญ จันทร์แสนตอ มฉ5227                       8807-9492           7231-5072                               10721605CCSH       0000001880000000                                                                             
T000024006057601827900000000000000000000000032843300000022                                                                                                                                                                                                      
