H0000010060576018279บริษัท ไทเอซ สิสซิ่ง จำกัด              31012012TALHO                                                                                                                                                                                       
D000002006057601827931012012082148นายเสริมศิลป์ โพนาคา มฉ3240                       8858-8199           0231-3074                               11320523CCSH       0000001700000000                                                                             
D000003006057601827931012012090355นาย วุฒิชัย มูลกลาง                               88979696            88214352                                10130550CCSH       0000001884200000                                                                             
D000004006057601827931012012090719ธีระศักดิ์ สุประภากร                              88389880            67218340                                00980224CCSH       0000001700000000                                                                             
D000005006057601827931012012090953ธีระศักดิ์ สุประภากร                              88489882            60217342                                00980224CCSH       0000001700000000                                                                             
D000006006057601827931012012090959ยุทธชนะ แดงอินทวัฒน์                              88543499            104115860                               02540078CCSH       0000001602440000                                                                             
D000007006057601827931012012093245นายวิทยา ดาวเรือง                                 88526799            107067177                               01900719CCSH       0000000132800000                                                                             
D000008006057601827931012012094922นางสาวแก้วตา หนูเจริญ                             88512399            106202166                               01521090CCSH       0000001951300000                                                                             
D000009006057601827931012012100321นาย สมชาย ศิริรักษ์                               8856-9997           2521-5329                               00691238CCSH       0000000100000000                                                                             
D000010006057601827931012012103327นายอนันต์ พลูแสวง                                 8857-9695           8721-5356                               06875261CCSH       0000001549600000                                                                             
D000011006057601827931012012103929นายเสน่ห์ ยิกุสังข์                               88089796            38214343                                10294192CCSH       0000001665500000                                                                             
D000012006057601827931012012104155นาย ระเริง หยูเอียด                               88878499            65219358                                08771836CCSH       0000001884200000                                                                             
D000013006057601827931012012104517นายเสน่ห์ ยิกุสังข์                               88089796            38214343                                10294192CCSH       0000000034240000                                                                             
D000014006057601827931012012110045นายเพียร แดงโร่ มฉ 4350                           88279296            03314075                                01971063CCSH       0000001880000000                                                                             
D000015006057601827931012012110932คุณ ชัยณรงค์ สวัสดี มจ 5911                       88534499            107124684                               11250101CCSH       0000001671300000                                                                             
D000016006057601827931012012113041นางขวัญหทัย ดีใจ ทว5701                           88479795            17215350                                04810155CCSH       0000001884200000                                                                             
D000017006057601827931012012113502นายสวิด วงษ์จำปา                                  8877-9498           7021-3352           ทว 3027             00611046CCSH       0000001853000000                                                                             
D000018006057601827931012012114448นางธนันทร หอมหวล ทว4993                           88579496            39214359                                07961583CCSH       0000001967500000                                                                             
D000019006057601827931012012114635นายขวัญเมือง อยู่คง                               88570398            107158693                               00740081CCSH       0000000650500000                                                                             
D000020006057601827931012012114903นายปรีชา สุขสมร มฉ4259                            8857-9896           9231-4075                               00000824CCSH       0000001746800000                                                                             
D000021006057601827931012012120904นายรุ่งระชัย พุฒิ  ทว3365                         88679888            53213356                                00551772CCSH       0000000911800000                                                                             
D000022006057601827931012012121222นายสมชัย คณฑา ทม 6643                             88169292            36216314                                00282766CCSH       0000000509800000                                                                             
D000023006057601827931012012121621นางสาวมณีรัตน์ จันทมล ทร 4085                     88669898            50214338                                10150884CCSH       0000000927400000                                                                             
D000024006057601827931012012122152นางสาว ภัทรานิษฐ์ รัตนวรธันยา                     8887-9892           2621-7359                               04811415CCSH       0000001595000000                                                                             
D000025006057601827931012012123050นายอภิรัตน์  ภู่ศิริ ทย2404                       88179295            44212320                                01760442CCSH       0000001663900000                                                                             
D000026006057601827931012012124000นายวรภพ งะบัว / ทร 2133                           8826-9096           3121-2333                               04650095CCSH       0000000235500000                                                                             
D000027006057601827931012012131449นายวิฑูร คงเจริญ มฉ3485                           88288298            54313078                                02530836CCSH       0000001893500000                                                                             
D000028006057601827931012012132734นายสมเหมาะ จันทร์ทิพย์                            88469294            54218311                                07690239CCSH       0000000805700000                                                                             
D000029006057601827931012012132922นายจักร แท่งเหล็ก                                 88889394            53215345                                01480560CCSH       0000001617900000                                                                             
D000030006057601827931012012133319น.ส.ฐาปณภัท ธรรมวิหาร                             88998199            43212340                                07580441CCSH       0000001665500000                                                                             
D000031006057601827931012012133409น.ส.ฐาปณภัท  ธรรมวิหาร                            88898199            33212340                                07580441CCSH       0000001665500000                                                                             
D000032006057601827931012012133542นายวานิช ศรีบุญเรือง มค 7111                      8847-9991           1131-7031                               00470242CCSH       0000001300000000                                                                             
D000033006057601827931012012134534นาย สมชาย  จูทะจันทร์                             88189894            62215340                                08000737CCSH       0000001617200000                                                                             
D000034006057601827931012012135045นส.เจนนภา ไทยเจริญ  ทว6432  0864153183            88747299            106144748                               10074338CCSH       0000001740000000                                                                             
D000035006057601827931012012135507ธวัชชัย กลิ่นหนู 0807866265                       88379393            65215322                                03993086CCSH       0000001617000000                                                                             
D000036006057601827931012012141616นายอัจฉริยะ อุเทนะพันธุ์                          88579894            32216358                                00190024CCSH       0000001884200000                                                                             
D000037006057601827931012012142146นายประทิน ช้างร้าย                                88502499            106133255                               10990515CCSH       0000001814600000                                                                             
D000038006057601827931012012145052นายโกศล อุทัย มว 5267                             88588898            106137888                               04580699CCSH       0000001440000000                                                                             
D000039006057601827931012012150331นาย กิตตินันท์ วุฒิวงศ์ ทล 6804                   88591498            106118683                               01784404CCSH       0000001226100000                                                                             
D000040006057601827931012012150911นายสมบูรณ์  เพิ่มพูล                              88574698            104127259                               00610756CCSH       0000001942700000                                                                             
D000041006057601827931012012151435นายอนุสรณ์  วารีน้อย ทย 372                       8827-8299           2321-0327                               01781712CCSH       0000001455200000                                                                             
D000042006057601827931012012152357นายนิติพล ดีเฉลา                                  88359295            49214343                                00630269CCSH       0000001267500000                                                                             
D000043006057601827931012012152920ผจญ เฉลิมวัฒน์                                    88479883            85217351                                10365296CCSH       0000001990000000                                                                             
D000044006057601827931012012154215นาย จิรศักดิ์  ศรีบุญจิตต์                        88369298            82210341                                08000737CCSH       0000001459300000                                                                             
D000045006057601827931012012154240นายไพฑูรย์ วันเชียง   ทล4128                      8878-9997           8121-4342                               08000757CCSH       0000001056000000                                                                             
D000046006057601827931012012161717นางเข็มทอง สงเคราะห์                              88769897            05211362                                02610077CCSH       0000002015300000                                                                             
D000047006057601827931012012163337น.ส.มณีรัตน์ ชูมณี ทว9810                         8807-8999           0821-9351                               10810269CCSH       0000001650000000                                                                             
D000048006057601827931012012172301ด.ต.ชาญ ทับพุ่ม ทม 1606                           88798198            66211310                                07680647CCSH       0000001444000000                                                                             
D000049006057601827931012012172958อาด ไม้น้อย                                       88089091            67217348                                10135785CCSH       0000001799200000                                                                             
D000050006057601827931012012182057นางสาววรรณา ท้วมเหลือ                             88878698            09219356                                09620092CCSH       0000001884200000                                                                             
D000051006057601827931012012182210นางสาว วชิราภรณ์ นุชสุข                           8818-9796           7821-4341                               09620092CCSH       0000001476200000                                                                             
D000052006057601827931012012182618นาย ประโยชน์  บุญสมเชื้อ                          8805-9396           0431-5060                               11250233CCSH       0000001056000000                                                                             
T000053006057601827900000000000000000000000074183780000051                                                                                                                                                                                                      
