H0000010060576018279บริษัท ไทเอซ สิสซิ่ง จำกัด              14122011TALHO                                                                                                                                                                                       
D000002006057601827914122011091635นาย กันภัย  จิตราวัฒน์ มจ 9229                    88519399            107146492                               04990266CCSH       0000000800000000                                                                             
D000003006057601827914122011093659นายวิทยา  แก่นทองเจริญ  ทร  2673                  88859697            36212337                                03970523CCSH       0000000917500000                                                                             
D000004006057601827914122011100024นาย ตะวัน ประสพวงค์ มจ 8810                       8866-9391           0831-8061                               05365560CCSH       0000000511900000                                                                             
D000005006057601827914122011101639นายกิตติพงศ์ กรศุภอานนท์                          8877-8599           0921-2329           ทย2990              03970649CCSH       0000001650000000                                                                             
D000006006057601827914122011101816นาย ปริญญา  สุพร 085-6779039                      8886-9593           1720-3389                               04360235CCSH       0000000312700000                                                                             
D000007006057601827914122011104807เฉียบวุฒิ อ่อนยิ่ง                                88969292            01318074                                03083999CCSH       0000001432800000                                                                             
D000008006057601827914122011105338นาย อนันต์ สิงห์น้อย ทศ1141                       8856-9498           1121-1364                               04950529CCSH       0000001918440000                                                                             
D000009006057601827914122011105915นายพรเทพ ชื่นจำรัส                                88269192            25214323                                00650260CCSH       0000001447000000                                                                             
D000010006057601827914122011111158นเรศ สุขประเสริฐ                                  88539399            107083971                               07950091CCSH       0000000940000000                                                                             
D000011006057601827914122011111721นางสาว ลำไพ ปัญยาง  ทล 1025                       88538799            107154380                               04581882CCSH       0000000829300000                                                                             
D000012006057601827914122011113634นาย ภัชชภณ แก้วกาเหรียญ มช 2044                   88518889            104122560           087-5634862         00651478CCSH       0000001874100000                                                                             
D000013006057601827914122011114357เสกสรรค์ กลิ่นรอด ทว6617                          88479984            76216351                                01990939COTH       0000001515300000                                                                             
D000014006057601827914122011114807นายจรัล เผยสกุล                                   88678497            86210362            ทศ 628              02581796CCSH       0000001070000000                                                                             
D000015006057601827914122011122002นายนรชัย  แพงศร ทล 3466                           88698397            64213346                                09760114CCSH       0000001665500000                                                                             
D000016006057601827914122011122058นายนรชัย  แพงศร ทร 5912                           88512299            107138252                               09760114CCSH       0000001275100000                                                                             
D000017006057601827914122011122144นาง ภัสรา  เรศสุข ทศ 5620                         88668299            06215362                                08401303CCSH       0000001799200000                                                                             
D000018006057601827914122011122301นาง ภัสรา  เรศสุข ทศ 5626                         88568299            66215362                                08401303CCSH       0000001799200000                                                                             
D000019006057601827914122011122305นางสายบัว ยิ้มใย                                  88377197            47217348                                04590914CCSH       0000004064000000                                                                             
D000020006057601827914122011122828นายจักรกริช รอดทอง ทล4743                         8848-9987           3721-4344                               01890097CCSH       0000001708800000                                                                             
D000021006057601827914122011123158นายพงษ์ศักดิ์ แหล่งสนาม                           88778798            49219350                                04603236CCSH       0000001906200000                                                                             
D000022006057601827914122011124606นางรำพึง แดงเกาะโพธิ์ ทว 2349                     88469493            93212354                                01951095CCSH       0000001830000000                                                                             
D000023006057601827914122011125031นายเหมราช เนื่องพิมพ์ ทล2922                      88389983            29212342                                11245499CCSH       0000001748600000                                                                             
D000024006057601827914122011125036นายสมนึก สืบพิลัย ทล9579                          88867497            95219347                                02260861CCSH       0000001700000000                                                                             
D000025006057601827914122011125143นายสมนึก สืบพิลัย ทว7061                          8897-9393           1021-7356                               02260861CCSH       0000000205500000                                                                             
D000026006057601827914122011125742นางนงลักษณ์ ชิโมมูร่า                             88500989            104122553                               05700127CCSH       0000001031200000                                                                             
D000027006057601827914122011130041คุณพิกุล  ม่วงมงคล                                88539989            107011097                               02617277CCSH       0000001089000000                                                                             
D000028006057601827914122011131112นายประกาศ   หลุมทอง ทม 659                        88979394            96210315                                06921923CCSH       0000000860000000                                                                             
D000029006057601827914122011131556นายสุทร บุญเกิด                                   88069292            85217357            ทว.7578             03961384CCSH       0000001800000000                                                                             
D000030006057601827914122011131717นายสุทร บุญเกิด                                   88328697            49215314            ทม 5944             03961384CCSH       0000001159200000                                                                             
D000031006057601827914122011131821นายสุทร บุญเกิด                                   88503599            107075019           ทม 5944             03961384CCSH       0000001159200000                                                                             
D000032006057601827914122011132006นายธันวา  ณะธรรม                                  88760099            107137557                               07540593CCSH       0000001346800000                                                                             
D000033006057601827914122011132015นายคชา แสนดา                                      8891-8097           3721-5323           ทย5733              00250058CCSH       0000000750000000                                                                             
D000034006057601827914122011140818นาย ทองสูน เที่ยงแก๊ส                             88069197            49211367                                04730538CCSH       0000001884200000                                                                             
D000035006057601827914122011141446นางรัชนี อยู่บำรุง ทม 6787                        88507989            107079819                               02580367CCSH       0000001449100000                                                                             
D000036006057601827914122011142037นายธีระพงษ์ เจริญอินทร์                           88378499            99210369            ทศ999               07990541CCSH       0000002048500000                                                                             
D000037006057601827914122011143006รัชนี  แก้วหาญ                                    88279291            64315076                                02600520CCSH       0000001918500000                                                                             
D000038006057601827914122011143512นางสาวฉวีวรรณ  สุวรรณวงษ์ ทว 8164                 8867-9882           4121-8356                               10560561CCSH       0000001986000000                                                                             
D000039006057601827914122011143555นาย อั๋น แป้งใส ทย5825                            8877-9688           5821-5322                               04671034CCSH       0000001034800000                                                                             
D000040006057601827914122011144647นายวชิระ ตรงดี ทล3955                             88589198            59213345                                01746989CCSH       0000001619200000                                                                             
D000041006057601827914122011144943นางภัททิรา วีระกูล                                88868598            40210363                                01451218CCSH       0000001739400000                                                                             
D000042006057601827914122011145445นายกิตติศักดิ์ นาสวน ทษ1305                       88509199            104121985                               05671599CCSH       0000001330700000                                                                             
D000043006057601827914122011145631นายเสกสรร นาสวน ทศ3713                            88069393            37213361                                05671599CCSH       0000001194400000                                                                             
D000044006057601827914122011145747นายสมชัย ไทยสง่า ทร 6345                          8846-8599           5321-6334                               05670406CCSH       0000001414800000                                                                             
D000045006057601827914122011151034นายศิริชัย จุลแดง  ทศ9189                         88659195            91219368                                04830677CCSH       0000001546700000                                                                             
D000046006057601827914122011151144ขนิษฐา  ทิพยโส                                    88869695            08217320                                04930773CCSH       0000001071400000                                                                             
D000047006057601827914122011152705ประยูร วิเศษนอก โทร.0892336293                    88769190            77217355                                10070236CCSH       0000001969200000                                                                             
D000048006057601827914122011152807ประยูร วิเศษนอก โทร.0892336293                    88069491            85214360                                10070236CCSH       0000001833400000                                                                             
D000049006057601827914122011153330นายฐิติวัสส์ นาคสุทธิ                             88501499            107157914                               00970119CCSH       0000001620000000                                                                             
D000050006057601827914122011154309น.ส.เพชรมณี สิงห์วิชัย                            8878-9894           87217326                                00443099CCSH       0000000400000000                                                                             
D000051006057601827914122011160626นาย สมศักดิ์ อะโน ทล2494                          8897-9792           4421-2349                               08510017CCSH       0000001620000000                                                                             
D000052006057601827914122011163658นายชัยรัตน์ พัฒนจันทร์ มง3181                     88369190            11313058                                10150069CCSH       0000001269800000                                                                             
D000053006057601827914122011180417นาง วันพร องค์ศิริพร                              8816-9994           1321-3323                               10990248CCSH       0000000544300000                                                                             
T000054006057601827900000000000000000000000073610940000052                                                                                                                                                                                                      
