H0000010060576018279บริษัท ไทเอซ สิสซิ่ง จำกัด              31072011TALHO                                                                                                                                                                                       
D000002006057601827931072011102525PETNAMNUANG TO-AIM                                88699991            27210340                                08518511CCSH       0000000905000000                                                                             
D000003006057601827931072011114147นาย หวังการีม  โซ๊ะวิเศษ  ทล8015                  8868-9390           5021-8341           083-7512942         08690033CCSH       0000001697800000                                                                             
D000004006057601827931072011121336นางพรเพ็ญ แซ่ก๊วย                                 88289190            04218344                                10720571CCSH       0000001700000000                                                                             
D000005006057601827931072011123638วิชัย วงศ์อัศวเวศย์                               8867-9586           8321-5356                               10330064CCSH       0000001482600000                                                                             
D000006006057601827931072011125909นายบุญมา  ล้ำทวีภักดี                             8847-8899           0621-2322                               05700034CCSH       0000001000000000                                                                             
D000007006057601827931072011130550นาย พิชิตชัย ดวงจรัส ทล885                        88968398            58210348                                10070203CCSH       0000001010600000                                                                             
D000008006057601827931072011133608นางสาวภาวิณี แซ่กอ                                88189480            92219344                                09761108CCSH       0000001483100000                                                                             
D000009006057601827931072011134426พรพรต พาทีทิน ทว6175                              8885-9886           5121-6357                               07620899CCSH       0000000673200000                                                                             
D000010006057601827931072011134542นันท์มนัส  พอใจ                                   8817-9692           4821-7353           ทว7834              08690266CCSH       0000001884200000                                                                             
D000011006057601827931072011135209เชษฐา อุดมลาภ                                     8866-8897           7921-1365           ทศ1957              07955605CCSH       0000001893200000                                                                             
D000012006057601827931072011143110นาย ยอด ศรีราชา                                   8836-7997           5821-7321                               10330064CCSH       0000000851900000                                                                             
D000013006057601827931072011151130นางสาวนิภา เปียสัมปทวน ทร9533                     8849-9493           3521-9333                               10150884CCSH       0000001680500000                                                                             
D000014006057601827931072011152843นายประยูร โพธิ์บริสุทธิ์                          8847-9587           0921-2311           ทม2910              04930415CCSH       0000001692000000                                                                             
D000015006057601827931072011152844นาย สุรชัช ภู่อยู่  มฉ4909                        8877-9993           9931-4070                               04883617CCSH       0000001228700000                                                                             
D000016006057601827931072011154223นางสาว สมทรัพย์ หนองหาร                           8827-8697           5621-0362           ทศ625               00860864CCSH       0000002518200000                                                                             
D000017006057601827931072011160922นางลำเพย  ศรีดาวเดือน ทล5807                      88589393            78215340                                11140161CCSH       0000001432800000                                                                             
D000018006057601827931072011171452สุภาพร เดชวรรณ                                    88079692            27217354            ทว7742              07622098CCSH       0000002116400000                                                                             
D000019006057601827931072011172922นางสาวนิภา เปียสัมปทวน ทร9534                     8839-9493           4521-9333                               10150884CCSH       0000001680500000                                                                             
D000020006057601827931072011174355นางสาววิยะดา ยิ่งยงค์  ทศ3503                     88669693            35213360                                10990539CCSH       0000001799200000                                                                             
D000021006057601827931072011175514นางสาว  กนกวรรณ  ทรงวิรัตน์ ทม 4619               8897-8199           9621-4311                               09760540CCSH       0000001105700000                                                                             
D000022006057601827931072011180004นาย กฤษฏา  แก้วพารา                               8875-9986           5221-8360                               08550648CCSH       0000001798500000                                                                             
D000023006057601827931072011180346นายวีระศักดิ์ สีสันต์  ทร 9522                    8868-8499           2521-9332                               07680524CCSH       0000001627900000                                                                             
T000024006057601827900000000000000000000000033262000000022                                                                                                                                                                                                      
