H0000010060576018279บริษัท ไทเอซ สิสซิ่ง จำกัด              29072011TALHO                                                                                                                                                                                       
D000002006057601827929072011084637นาย สุกิจ ดาวเรือง                                88459194            31218331                                01900191CCSH       0000001109100000                                                                             
D000003006057601827929072011085830นาย ฉกาจ ไพมณี  ทล 1871                           8876-8598           1821-1347           081-7350186         02460596CCSH       0000000602700000                                                                             
D000004006057601827929072011090129นายอำนาจ หมื่นจบ  ทล804                           8879-9791           4821-0340                               01160137CCSH       0000001813800000                                                                             
D000005006057601827929072011091207นายวุฒิชัย มูลกลาง ทว4828                         8897-9696           8821-4352                               10137595CCSH       0000001884200000                                                                             
D000006006057601827929072011092020นางสาวอุไร ชูศักดิ์ ทร9232                        8849-9094           2221-9333                               02152851CCSH       0000000825000000                                                                             
D000007006057601827929072011092622นายภาวัต ไชยสร                                    8877-8989           9631-9059                               01210671CCSH       0000001519400000                                                                             
D000008006057601827929072011093036นาย สุรพล อันทวงษ์                                8867-9486           3221-1342                               00821044CCSH       0000001484700000                                                                             
D000009006057601827929072011093144นาย สุรพล อันทวงษ์                                8867-9486           3221-1342                               00821044CCSH       0000001484700000                                                                             
D000010006057601827929072011093243นาย สุรพล อันทวงษ์                                8867-9486           3221-1342                               00821044CCSH       0000001484700000                                                                             
D000011006057601827929072011094705นายสุจินต์ ทรงขำ                                  8806-9392           1131-8078                               02610862CCSH       0000001721500000                                                                             
D000012006057601827929072011095817นายวิทยา  แซ่จึง                                  8885-9597           2321-7362                               00650326CCLQ671458 00000003400000140080                                                                         
D000013006057601827929072011095955นายวิทยา แซ่จึง ทศ 7322                           8885-9597           2321-7362                               00650326CCLQ671383 00000005500000140080                                                                         
D000014006057601827929072011100234นายสุวรรณ ฟูศรีกุล มฉ249                          8839-9490           9231-0074                               02501075CCSH       0000001686400000                                                                             
D000015006057601827929072011100351นายอนุรักษ์  แซ่คู                                8858-8898           7621-3352                               01410494CCSH       0000001700000000                                                                             
D000016006057601827929072011103304นัทธดา สุขประเสริฐ                                88089193            31312070                                10365296CCSH       0000001500000000                                                                             
D000017006057601827929072011103412นางสาว วรกมล บุญมา ทศ7231                         8825-9797           1221-7363                               02152851CCSH       0000002352600000                                                                             
D000018006057601827929072011103549นาย พิทักษ์ วรรณไทย  มจ 301                       8857-9090           1331-0060                               00137514CCSH       0000000873300000                                                                             
D000019006057601827929072011110023นายวิทยา พัดเย็นใจ                                8856-9095           2821-4339           ทร 4892             08511738CCSH       0000002400000000                                                                             
D000020006057601827929072011111933ธนันทร หอมหวล ทว4993                              88579496            39214359                                07960121CCSH       0000001914700000                                                                             
D000021006057601827929072011112012นายชัชวาลย์ แทนเพ็ชร ทล 502                       8888-7797           2521-0340                               04603621CCSH       0000001438000000                                                                             
D000022006057601827929072011112135นายนิธิพัฒน์  บังเกิดคงคาดิษฐ์  ทศ7194            8885-9897           4121-7369                               10631094CCSH       0000002546900000                                                                             
D000023006057601827929072011112203สุมาลี ศรีกะกา                                    88599192            36210345                                00170047CCSH       0000000733300000                                                                             
D000024006057601827929072011114222นาย คำนวน กรโกษา มฉ3609                           8868-8797           9631-3070                               02190075CCSH       0000002116700000                                                                             
D000025006057601827929072011114354ด.ต.ถนอม ไพจิตร มจ6073                            88069894            30316067                                00394304CCSH       0000000010000000                                                                             
D000026006057601827929072011115335นายมนัส  ใจกระสินธ์  ทว 865                       88288898            58210356                                09760114CCSH       0000001432800000                                                                             
D000027006057601827929072011115423นาย วรายุทธ กล้าพร้อม ทร 4792                     8817-8297           2721-4339                               01200402CCSH       0000001298300000                                                                             
D000028006057601827929072011115944นาย คำกอง  ผดาศรี  มง 7442                        8877-9495           2431-7054                               02260835CCSH       0000001193500000                                                                             
D000029006057601827929072011121522นาย ชัชวาลย์  แสงอาวุธ  ทศ  7235                  8815-9797           5221-7363                               08400047CCSH       0000001856500000                                                                             
D000030006057601827929072011121549นายกิตติศักดิ์ อารัณย์รักษ์ ทย9993                8806-9198           3921-9329                               00250613CCSH       0000001432100000                                                                             
D000031006057601827929072011121804วัลลภา พรหมฤดี                                    88779194            35211329                                01080545CCSH       0000002030000000                                                                             
D000032006057601827929072011123436นายณัฐพร ธนะเนตร                                  8879-9491           3921-0344                               10130851CCSH       0000001665500000                                                                             
D000033006057601827929072011123616สำเร็จ บุตรปราบ ทศ9389                            88159094            93219368                                07960121CCSH       0000001656600000                                                                             
D000034006057601827929072011123758สำเร็จ บุตรปราบ  ทศ7282                           88659897            22217368                                07960121CCSH       0000001696900000                                                                             
D000035006057601827929072011123934สำเร็จ บุตรปราบ ทล5653                            88689493            36215345                                07960121CCSH       0000001467100000                                                                             
D000036006057601827929072011124111สำเร็จ บุตรปราบ ทว8498                            88179691            84218359                                07960121CCSH       0000002185600000                                                                             
D000037006057601827929072011124255สำเร็จ บุตรปราบ ทศ2872                            88169395            28212367                                07960121CCSH       0000001501300000                                                                             
D000038006057601827929072011125230ไพจิตต์ กีรติพินิจ                                88988897            50217359                                02564997CCSH       0000001364000000                                                                             
D000039006057601827929072011130157นายสมเกียรติ บุญปาน ทศ 3363                       8845-9698           3321-3366                               10630631CCSH       0000001372800000                                                                             
D000040006057601827929072011130509นายโชคชัย สนธิ์ชัยสกุล  ทล 6671                   8818-9392           1621-6347                               02590096CCSH       0000001700000000                                                                             
D000041006057601827929072011130935นาย เผด็จ ยินดีขันธ์                              8889-8598           5521-2346                               01100207CCSH       0000001741800000                                                                             
D000042006057601827929072011132456นายรักคิด จันทร์สุวรรณ  มฉ3518                    8858-8198           8531-3071                               10410720CCSH       0000001884200000                                                                             
D000043006057601827929072011133525วิชาญ  อุดมธาดาพงศ์                               88369292            38215339                                00190408CCSH       0000001053000000                                                                             
D000044006057601827929072011134112น.อ.ชูชีพ ฉายน้อย  ทม 3577                        8898-9393           7521-3317                               01690234CCSH       0000001350000000                                                                             
D000045006057601827929072011134242น.อ.ชูชีพ ฉายน้อย ทม 2009                         8808-9493           9021-2310                               01690234CCSH       0000001350000000                                                                             
D000046006057601827929072011142751ปัญญา หวังโซ๊ะ                                    88979190            40315077                                02460660CCSH       0000001072000000                                                                             
D000047006057601827929072011143306ธนิก มนูลักษณ์ 0838372575                         88589495            77311071                                00591167CCSH       0000001617900000                                                                             
D000048006057601827929072011144303นายผจญ   เฉลิมวัฒน์  ทว7518                       8847-9883           8521-7351                               04670545CCSH       0000001990000000                                                                             
D000049006057601827929072011144447นาง ศิริ เกียรติเฉลิม ทว.1536                     8868-8598           6521-1353                               00339885CCSH       0000003300000000                                                                             
D000050006057601827929072011145337นาย สุนทร ทองไพรวรรณ                              8838-8597           4721-2353                               00821044CCSH       0000000060000000                                                                             
D000051006057601827929072011150716นาย สุวัฒน์ มีพลอย มจ 6020                        8817-9992           0031-6062                               01200547CCSH       0000001437100000                                                                             
D000052006057601827929072011151134นายประสงค์ มาศิริ                                 8806-9891           9921-5310                               00951079CCSH       0000001290600000                                                                             
D000053006057601827929072011151850นางวรรณภา  เจริญอินทร์                            8826-9690           1221-5361                               07990132CCSH       0000003241900000                                                                             
D000054006057601827929072011152648ร.ท.จักรกฤษณ์ เพียรพิจิตร ทล-9879                 8856-9391           9821-9347                               05674254CCSH       0000001030000000                                                                             
D000055006057601827929072011160225นาย สุรินทร์ บุญมาเลิศ                            8878-9293           3421-5348                               00640141CCSH       0000001678000000                                                                             
D000056006057601827929072011161444น.อ.ธวัชชัย  วิไลลักษณ์                           8836-9296           1110-7371           ณษ 7111             00651473CCSH       0000001150000000                                                                             
D000057006057601827929072011162047นายอนุสรณ์ วารีน้อย                               88479981            73217358            ทว.7387             07990541CCSH       0000001344700000                                                                             
D000058006057601827929072011162308นายสมัย สีหะวงษ์ มฉ 2947                          8808-9880           7931-2074                               11041041CCSH       0000001484700000                                                                             
D000059006057601827929072011164834นายสมเกียรติ สีธงชัยรุ่งโรจน์ ทย3603              8816-9595           3621-3320                               04880262CCSH       0000001596700000                                                                             
D000060006057601827929072011171506นางสาว วชิราภรณ์ นุชสุข ทล 4817                   8818-9796           7821-4341                               09621104CCSH       0000001476200000                                                                             
D000061006057601827929072011174159นาย อัจฉริยะ อุเทนะพันธุ์                         8857-9894           32216358                                10050395CCSH       0000001884200000                                                                             
D000062006057601827929072011174510นายคำนวน กรโกษา มฉ3609                            8868-8797           9631-3070                               04950529CCSH       0000002120000000                                                                             
D000063006057601827929072011175927นางมณีรัตน์  จันทมล                               88669898            50214338                                08553235CCSH       0000000927400000                                                                             
D000064006057601827929072011180948นางขวัญหทัย ดีใจ ทว5701                           88479795            17215350                                10360570CCSH       0000001884200000                                                                             
T000065006057601827900000000000000000000000095909300000063                                                                                                                                                                                                      
