H0000010060576018279บริษัท ไทเอซ สิสซิ่ง จำกัด              19122011TALHO                                                                                                                                                                                       
D000002006057601827919122011082933นายคงศักดิ์  รุ่งรัตน์  ทล3972                    8838-9198           2921-3347           0896909500          11300791CCSH       0000001665500000                                                                             
D000003006057601827919122011083304พิพัฒน์  จำปาทอง                                  88500999            106202979                               00650498CCSH       0000001444000000                                                                             
D000004006057601827919122011085824นาง วลียา  อภิสิทธิวาสนา                          8867-7497           1521-5344           086-3134754         01593373CCSH       0000001936500000                                                                             
D000005006057601827919122011090148นายประชุม ศรีคล้ำ  ทม9656                         8831-9293           6621-9315                               01480206CCSH       0000000060000000                                                                             
D000006006057601827919122011091612นายไพรศักดิ์ เทพแสง                               88579982            89212337                                05940947CCSH       0000001088800000                                                                             
D000007006057601827919122011092421นายสามารถ สุขเรือง                                88579886            53105318            ฌม 5385             01528111CCSH       0000001100000000                                                                             
D000008006057601827919122011092430นายวรวิทย์   ทิพนัด  ทร  3598                     88582898            107132655                               03970523CCSH       0000000869400000                                                                             
D000009006057601827919122011092942นายอัครเดช  จารุนัย มฉ 2075                       8885-9294           50314-2077                              00137576CCSH       0000002000000000                                                                             
D000010006057601827919122011093515นายอุดม เชาวรินทร์                                88668797            96066083                                11630242CCSH       0000000670000000                                                                             
D000011006057601827919122011093738ร.ท.วิไล ลูกบัว                                   88769592            63210352                                00650260CCSH       0000002600000000                                                                             
D000012006057601827919122011093859นายพิเชษฐ เลิศสุรัง                               88534699            107011889                               02564581CCSH       0000000571200000                                                                             
D000013006057601827919122011100300นายเจริญ สุวรรณคีรี  ทศ 9726                      88526899            104119622                               08560792CCSH       0000003400000000                                                                             
D000014006057601827919122011100618สิทธิพร แวดอุดม                                   8885-9796           2131-0086                               10520224COTH       0000001663600000                                                                             
D000015006057601827919122011100634พ.อ.อ.สุรัศ  ศรีหาเลิศ                            88557697            36211354                                09760114CCSH       0000001799200000                                                                             
D000016006057601827919122011100647มาลาศรี ทองชา                                     88669194            10211322                                01370091CCSH       0000001835000000                                                                             
D000017006057601827919122011101327นางทองจันทร์ โพธิ์ศรี                             88520599            107117401                               00410764CCSH       0000001159200000                                                                             
D000018006057601827919122011101408น.ส.นันท์ญา จันท์มารถ ทม5715                      88378099            57215311                                11670890CCSH       0000000460000000                                                                             
D000019006057601827919122011102612สาคร นามใจยา                                      88779397            10215336                                01100754CCSH       0000002147400000                                                                             
D000020006057601827919122011102655บจก.ทู-มิเตอร์ ทรานสปอร์ต ทล 5582                 8816-7797           2521-5348                               07601138CCSH       0000001652150000                                                                             
D000021006057601827919122011103122นาย โชคชัย สนธิ์ชัยสกุล ทว3503                    88879688            35213350                                02590600CCSH       0000001756700000                                                                             
D000022006057601827919122011104855นายพรศักดิ์  วีระพันธ์  ทว6961                    8847-9593           1921-6356                               11300791CCLQ342662800000015900000020187                                                                         
D000023006057601827919122011105357นิลวรรณ สมประสงค์                                 88279191            45218350                                04950176CCSH       0000001897700000                                                                             
D000024006057601827919122011105859นายฉกาจ ไพมณี                                     88768598            18211347                                02460584CCSH       0000000610000000                                                                             
D000025006057601827919122011110950นายมานพ กรณ์งูเหลือม                              88059597            60214338                                01101667CCSH       0000000450600000                                                                             
D000026006057601827919122011111405นายสุรเชษฎ  ตปนิยนันท์                            88589898            67213345                                11520515CCSH       0000000809000000                                                                             
D000027006057601827919122011111936นางสาว กิตติพร ตรีศุภกานต์ ทศ4088                 8876-9192           8021-4368                               04781103CCSH       0000001918500000                                                                             
D000028006057601827919122011111953คุณสุรศักดิ์ เลิศไกร                              88569291            76214361                                09550205CCSH       0000001856500000                                                                             
D000029006057601827919122011112027นางสาว กิตติพร ตรีศุภกานต์ ทศ4090                 88669192            00214369                                04781103CCSH       0000001918500000                                                                             
D000030006057601827919122011112515นายสมนึก สืบพิลัย ทศ8696                          88359994            66218369                                02260861CCSH       0000002069400000                                                                             
D000031006057601827919122011112654นายสมพงษ์  พลพุทธา                                8808-8097           3521-2358                               04110708CCSH       0000001700000000                                                                             
D000032006057601827919122011112706นายวิภพ ฉิวกระโทก                                 88778099            51219357                                00837602CCSH       0000003125000000                                                                             
D000033006057601827919122011113457ประไพวรรณ หวานเย็น                                8815-9798           6521-3334                               00210342CCSH       0000001326800000                                                                             
D000034006057601827919122011113707ประสูตร อินทรรักษ์ มช1914                         88514399            106202231                               07620899CCSH       0000001883800000                                                                             
D000035006057601827919122011113810ประสูตร อินทรรักษ์ ทว5810                         88079695            08215351                                07620899CCSH       0000001880000000                                                                             
D000036006057601827919122011114419นายกิตติชัย ใจกว้าง                               88689580            51219343                                01260388CCSH       0000002013400000                                                                             
D000037006057601827919122011115720นายอำนาจ บินตอเล็บ  ทว 7523                       8897-9783           3521-7352                               02590096CCSH       0000001884200000                                                                             
D000038006057601827919122011120236นายจิตธง เทียนหิรัญชัยกุล                         88289998            16213341                                00390709CCSH       0000000948200000                                                                             
D000039006057601827919122011122017คุณสัมพันธ์  ปรารมย์                              8897-9296           4521-5355                               01787080CCSH       0000002705300000                                                                             
D000040006057601827919122011124013นายราเชนทร์  จันทร์ศรีเมือง ทล8004                8858-9291           4021-8340                               01215368CCSH       0000001780300000                                                                             
D000041006057601827919122011124646น.ส. จิราภา ยอดรัก ทศ 1961                        88969291            19211366                                01481887CCSH       0000002764200000                                                                             
D000042006057601827919122011124823นาง วารินทร์  ยอดรัก ทว 7715                      88769593            57217351                                01481887CCSH       0000001880000000                                                                             
D000043006057601827919122011125438นายวรเทพ  ชมดวง ทว5501                            8817-9995           1521-5350                               04600072CCSH       0000001400000000                                                                             
D000044006057601827919122011130648ด.ต. สุวนัย เสาศิริ ทศ2867                        8876-9195           7821-2366                               04780201CCSH       0000002072200000                                                                             
D000045006057601827919122011130819ด.ต. สุวนัย เสาศิริ ทม 9303                       8831-9094           3321-9310                               04780201CCSH       0000000205500000                                                                             
D000046006057601827919122011131010นายวีระพงษ์ สาลีรัมย์                             88279890            73210323                                05760932CCSH       0000001758900000                                                                             
D000047006057601827919122011131107นายอิทธิโชติ ทัดเทียม ทว2218                      88288897            82212351                                05671599CCSH       0000001946000000                                                                             
D000048006057601827919122011131157นายสมพงษ์ เครือพัฒน์                              88179190            62219358                                04880436CCSH       0000001799200000                                                                             
D000049006057601827919122011131319นายสมพงษ์ เครือพัฒน์ ทว 9290                      88079190            02219359                                04880436CCSH       0000001799200000                                                                             
D000050006057601827919122011132044นายประจัญชัย อัฒจักร มง3798                       8816-9992           8731-3059                               00130241CCSH       0000000030000000                                                                             
D000051006057601827919122011132730นายดำรงค์ ศรีนุรัตน์  ทศ4601                      88269391            16214360                                01480206CCSH       0000002513400000                                                                             
D000052006057601827919122011132832นายดำรงค์ ศรีนุรัตน์  ทศ4602                      88369391            26214360                                01480206CCSH       0000002513400000                                                                             
D000053006057601827919122011133300อุไรวรรณ  นุตตะโยธิน                              8816-8898           1421-3329           089-0507177         04600142CCSH       0000001391000000                                                                             
D000054006057601827919122011133308นายวิชาญ ปานสุวรรณ มง 5076                        88169698            60315057                                10900089CCSH       0000000680600000                                                                             
D000055006057601827919122011133404สุกัญญา ว. ทศ2376                                 88669796            63212367                                10360281CCSH       0000001356900000                                                                             
D000056006057601827919122011133825นายสัญชัย ยุทธารักษ์                              88889894            42215340                                02190470CCSH       0000002000000000                                                                             
D000057006057601827919122011134252นายสำราญ   ไทรกลมเกลียว                           88369693            10213335                                08553235CCSH       0000000989800000                                                                             
D000058006057601827919122011134515นางณัฎฐสิณี อยู่พันธุ์                            88779784            07216351                                11730509CCSH       0000001884200000                                                                             
D000059006057601827919122011134639นายวรา จันทร์หลวง                                 88878899            07215330                                01971063CCSH       0000001621000000                                                                             
D000060006057601827919122011135230นายวิวัฒน์ ขันติพงษ์ ทว7699                       88479692            96217359                                07930727CCSH       0000001833500000                                                                             
D000061006057601827919122011140852นางสาวณัฐธิชา ทาระเวท ทว6174                      88567697            41216357                                02564581CCSH       0000001918600000                                                                             
D000062006057601827919122011141026นายอภิวัฒน์  เครืองวงศ์ ทว8586                    8827-9781           6521-8358           0852534570          11300791CCSH       0000001884200000                                                                             
D000063006057601827919122011141035ประเทือง สุขสมพืช                                 88879090            18315070                                01230490CCSH       0000002000000000                                                                             
D000064006057601827919122011142347นายบุญช่วย  พิศาลภูรินาถ ทร4094                   88668498            40214339                                04600072CCSH       0000001136000000                                                                             
D000065006057601827919122011144107นายศุภกร วิเศษธนาดุล ทย 6327                      88508899            107104674                               10270592CCSH       0000001202500000                                                                             
D000066006057601827919122011144517ปรีชา  เชื้อหมอ                                   8857-8099           3721-9355                               08690542CCSH       0000001515300000                                                                             
D000067006057601827919122011144701นายทองหล่อ  โภคา                                  8839-9883           8821-9335                               03970257CCSH       0000000235500000                                                                             
D000068006057601827919122011144926นายประภาส จันทวิมล                                88098298            49218314                                01773764CCSH       0000001595700000                                                                             
D000069006057601827919122011145004นายสมหมาย ปานเนาว์ มง8921                         88659894            19318052                                07601138CCSH       0000000701500000                                                                             
D000070006057601827919122011145059นายสมชาติ กวดนอก ทศ 9169                          88548889            104116063                               04580699CCSH       0000001568200000                                                                             
D000071006057601827919122011145945นายรัฐ ใจฉ่ำ มจ2008                               88506499            107092179                               01890658CCSH       0000001230500000                                                                             
D000072006057601827919122011150450นางสาว ศืรินทร์ทิพย์ สลุงอยู่  ทศ 7643            88959896            36217364                                04580699CCSH       0000001519900000                                                                             
D000073006057601827919122011151314มานิตย์ พลพฤกษ์ ทว746                             8808-8898           6721-0354                               01989572CCSH       0000001728300000                                                                             
D000074006057601827919122011151809นาย ภูเมศ   ภู่เกลี้ยง                            88059397            11215340                                08560865CCSH       0000001814600000                                                                             
D000075006057601827919122011153206นายปฐมพัฒน์ ผาทอง                                 88289681            08312070                                00748904CCSH       0000001799200000                                                                             
D000076006057601827919122011155228นายธนเดช จารุฐิติมาศ ทย7318                       88569493            83217321                                04950176CCSH       0000001175400000                                                                             
D000077006057601827919122011155954นายศราวุธ ชาญฉลาด                                 8871-9593           7821-9313                               00000806CCSH       0000000090000000                                                                             
D000078006057601827919122011160107ด.ต.เสิม หยุ่นแก้ว ทล 7009                        88487497            90217340                                01971063CCSH       0000001700000000                                                                             
D000079006057601827919122011160301นายสรรเสริญ สีธงชัยรุ่งโรจน์ ทล5168               88368797            81215346                                07930727CCSH       0000001010600000                                                                             
D000080006057601827919122011160803นางชลพรรณ  แก้วสามสี  ทว  7583                    8817-9792           3521-7358                               01200195CCSH       0000001884200000                                                                             
D000081006057601827919122011162052สุรศักดิ์ ถนอมสุข                                 88468898            38318055                                09761108CCSH       0000000705200000                                                                             
D000082006057601827919122011163123นาย สุรศักดิ์ วิเชียรเกื้อ                        8885-9497           5321-7368           ทศ 7385             04670151CCSH       0000001340000000                                                                             
D000083006057601827919122011164038นายเสกสรร นาสวน / ทศ 2861                         88569195            18212366                                05670826CCSH       0000001194400000                                                                             
D000084006057601827919122011170049พ.ต.ณัฐ กาญจนโรจน์                                8897-9590           3821-8359                               04770491CCSH       0000002082100000                                                                             
D000085006057601827919122011185120นายบุญเลิศ เทศขำ  ปอ2964                          88888497            49252416                                08690335CCSH       0000000680000000                                                                             
D000086006057601827919122011185149นายลำดวน  วงสา                                    482988898           28212343                                11520515CCSH       0000001333000000                                                                             
D000087006057601827919122011194332นางสาวนิตยา ศิริพลัด                              88159595            09318068                                11140807CCSH       0000001437400000                                                                             
T000088006057601827900000000000000000000000131167150000086                                                                                                                                                                                                      
