H0000010060576018279บริษัท ไทเอซ สิสซิ่ง จำกัด              02012012TALHO                                                                                                                                                                                       
D000002006057601827902012012100211สมัย  สีหะวงษ์                                    88089880            79312074                                08690542CCSH       0000001484700000                                                                             
D000003006057601827902012012104808นายบุญมา ล้ำทวีภักดี                              88578899            10212327                                07621493CCSH       0000001000000000                                                                             
D000004006057601827902012012111621นาย ประจบ โตพิทักษ์ ทว7333                        88078398            33217353                                10090237CCSH       0000001979600000                                                                             
D000005006057601827902012012115101นางพร จันทอง                                      88515789            107117586                               10320156CCSH       0000000938700000                                                                             
D000006006057601827902012012121330นายประพนธ์ ละม้ายแข ทว2977                        88879498            79212357                                10360570CCSH       0000001700000000                                                                             
D000007006057601827902012012122108นายปรีชา พราวศรี ทว949                            8828-8798           9921-0354                               08691092CCSH       0000001914200000                                                                             
D000008006057601827902012012132103นายประพันธ์  มุขเงิน                              88659884            10219365                                11520515CCSH       0000001888300000                                                                             
D000009006057601827902012012132215นายประพันธ์ม  มุขเงิน                             88659884            10219365                                11520515CCSH       0000001888300000                                                                             
D000010006057601827902012012133801น.ส.ขัตติยา วิเชียรเขียว                          88769993            15215333                                07953686CCSH       0000000611100000                                                                             
D000011006057601827902012012141135นาย ไพบูลย์ วิทิตกนกปรีดา                         88768198            67219283                                10970213CCSH       0000001052200000                                                                             
D000012006057601827902012012151102น.ส.ฐิติยา มีนันทร                                88788397            04212351                                07627621CCSH       0000001884200000                                                                             
D000013006057601827902012012151645นายชาญณรงค์  ธารีพฤกษ์                            88088099            70210358                                08670376CCSH       0000001700000000                                                                             
D000014006057601827902012012151800นายเสน่ห์ แย้มสุดใจ ทว 6057                       88379994            70216355                                02501075CCSH       0000001517700000                                                                             
D000015006057601827902012012151949ยุทธชัย พ. ทว9032                                 8877-9490           2021-9353                               10360281CCSH       0000002080000000                                                                             
D000016006057601827902012012152920นางสาว นุชนารถ แจ่มศุภพันธ์ ทศ2116                8826-9097           6121-2361           0891110798          07620610CCSH       0000001987300000                                                                             
D000017006057601827902012012153119นายพงษ์ศักดิ์ บริบูรณ์ ทว 5397                    8817-9686           7321-5359           0891110798          07620610CCSH       0000001897900000                                                                             
D000018006057601827902012012153437นายพงษ์ศักดิ์ บริบูรณ์ ทศ 1318                    8836-9398           8321-1361           0891110798          07620610CCSH       0000001990000000                                                                             
D000019006057601827902012012153632นายพงษ์ศักดิ์ บริบูรณ์ ทว 5452                    8827-9486           2421-5355           0891110798          07620610CCSH       0000002580000000                                                                             
D000020006057601827902012012160442น.ส.น้ำฝน จันทร์หอม  ทล5655                       88889893            56215345                                10320014CCSH       0000001212800000                                                                             
D000021006057601827902012012162643นางสาวลำไพ ปัญยาง                                 88538799            107154380                               05700127CCSH       0000000829300000                                                                             
D000022006057601827902012012165838นายสมพงษ์ ติคำ ทล5020                             88503099            000025503                               10720930CCSH       0000001508500000                                                                             
D000023006057601827902012012171038ดต.ภัคพงศ์ พลมีศักดิ์                             88369496            94212361            ทศ2419              11370491CCSH       0000001650000000                                                                             
D000024006057601827902012012172846นางเกสฬา พันจุย ทศ 2866                           8856-9495           6821-2366                               04880262CCSH       0000001500700000                                                                             
D000025006057601827902012012183928นายปริญญา คงคาสุริยฉาย                            88179090            99089403            ชฬ9939              10330484CCSH       0000001123000000                                                                             
T000026006057601827900000000000000000000000037918500000024                                                                                                                                                                                                      
