H0000010060576018279บริษัท ไทเอซ สิสซิ่ง จำกัด              12122011TALHO                                                                                                                                                                                       
D000002006057601827912122011101031นางเครือวรรณ์  สมนาค  ทศ 220                      88978198            02210362                                08510045CCSH       0000001700000000                                                                             
D000003006057601827912122011111426นันท์ภัทรธร  เดชากุลธัช                           88169996            30310062                                07961036CCSH       0000001161000000                                                                             
D000004006057601827912122011113615นางมุกดา ประสงค์สุข ทศ 311                        88978988            13210361                                10071091CCSH       0000001884200000                                                                             
D000005006057601827912122011114013นาย วรวิทย์ และสง่า ทล 1052                       8867-9992           2021-1345           0894456842          07620610CCSH       0000001601000000                                                                             
D000006006057601827912122011122427นายองอาจ ทว6614                                   88879784            46216351                                04950176CCSH       0000000894400000                                                                             
D000007006057601827912122011122531นายองอาจ ทว6613                                   88979784            36216351                                04950176CCSH       0000001194400000                                                                             
D000008006057601827912122011123104นายสมชาย พิณยะเพียน                               88759196            06217366                                01520889CCSH       0000001327900000                                                                             
D000009006057601827912122011123315นางสุพรรณี ภูนุภา                                 48659997            62217367                                10720571CCSH       0000000300000000                                                                             
D000010006057601827912122011123503นางสุพรรณี ภูนุภา                                 88059797            62217367                                10720571CCSH       0000001756700000                                                                             
D000011006057601827912122011124823นางสาวนิภาภัทร  มอมุงคุณ                          88519799            107152522                               09760114CCSH       0000000980900000                                                                             
D000012006057601827912122011124852นายธีรพงษ์ สมนาม (082-9629855)                    88523899            107136028           ทร 4469             08552980CCSH       0000000490500000                                                                             
D000013006057601827912122011133148นายวินัย ผลดี ทว6853                              88279784            38216355                                10254482CCSH       0000002302600000                                                                             
D000014006057601827912122011135304นายมานัส  มุงบัง  5ฒ-6170                         88521699            099246185                               08510045CCSH       0000000485000000                                                                             
D000015006057601827912122011141228นาย เมธี เผือกพันธ์มุข                            8855-9797           7521-3323                               08450154CCSH       0000001090700000                                                                             
D000016006057601827912122011144954นาย ยงยุทธ  เมฆยงค์  ทร3795                       8857-9786           5721-3339           084-0975163         08690033CCSH       0000003600000000                                                                             
D000017006057601827912122011145519ภูริณัฐ  อดุลนิรัตน์                              88588099            65210356                                10720208CCSH       0000001918500000                                                                             
D000018006057601827912122011152206บุญมี สิงห์ป้อง ทว.6475                           8867-9094           5421-6357                               07620899CCSH       0000002900000000                                                                             
D000019006057601827912122011154712นคร ทองแก้ว                                       88669494            41213367                                09761108CCSH       0000001884200000                                                                             
D000020006057601827912122011163036นายไพศาล พรประภาศักดิ์                            88579390            51219355                                04670151CCSH       0000001704800000                                                                             
D000021006057601827912122011163139นายไพศาล พรประภาศักดิ์                            88479390            81219355                                04670151CCSH       0000001704800000                                                                             
D000022006057601827912122011165315อนุสรณ์  วารีน้อย                                 8817-8399           3421-3310           ทม 3403             07990132CCSH       0000000695500000                                                                             
D000023006057601827912122011165503อนุสรณ์  วารีน้อย                                 8846-9797           4721-7314           ทม 7744             07990132CCSH       0000001517700000                                                                             
D000024006057601827912122011181702นายรอง หงฝาแก้ว( มฉ2105)                          8858-9293           5131-2070                               10330484CCSH       0000001480000000                                                                             
D000025006057601827912122011184816นายชุมพล   ด้านสิงห์                              88769890            3221-0347                               10330395CCSH       0000001262600000                                                                             
T000026006057601827900000000000000000000000035837400000024                                                                                                                                                                                                      
