H0000010060576018279บริษัท ไทเอซ สิสซิ่ง จำกัด              31082011TALHO                                                                                                                                                                                       
D000002006057601827931082011091753นายกิตติศักดิ์  อารัณย์รักษ์                      8870-9292           3921-9329                               00250474CCSH       0000001490400000                                                                             
D000003006057601827931082011094432ส.ต.อ. จรัส อินบุตร                               8885-9594           2221-5339           ทร 5292             00600443CCSH       0000001293500000                                                                             
D000004006057601827931082011094524จ.ส.ต. จรัส อินบุตร                               8861-8499           3421-3326           ทย3463              00600443CCSH       0000000998700000                                                                             
D000005006057601827931082011100015นายวิรัตน์ เกิดผล ทล4272                          8858-9797           2221-4347                               00830255CCSH       0000001558300000                                                                             
D000006006057601827931082011100130นายอนันต์ พูลแสวง                                 88579695            87215356                                06872983CCSH       0000001549600000                                                                             
D000007006057601827931082011100541สมพงษ์ ติคำ ทล2487                                88498798            74212348                                00980134CCSH       0000001699800000                                                                             
D000008006057601827931082011105359รักคิด จันทร์สุวรรณ                               88588198            85313071                                00190041CCSH       0000001884200000                                                                             
D000009006057601827931082011105533นาย ปรีชา สุขสมร                                  8857-9896           9231-4075                               00000578CCSH       0000000235500000                                                                             
D000010006057601827931082011105826นางสาว พิรุณรัตน์ ยงท้วม ทว 9247                  8807-9390           7221-9354                               00651478CCSH       0000001930000000                                                                             
D000011006057601827931082011110308นางสาว นัตยา จันทาทอง                             8849-8797           6121-3340           ทล 3106             01860389CCSH       0000001665500000                                                                             
D000012006057601827931082011111146นาง สลิล มะลิต้น ทล 24                            8818-9995           4021-0342                               04581882CCSH       0000001711300000                                                                             
D000013006057601827931082011112025นายบุญมา ล้ำทวีภักดี ทย 2620                      8847-8899           0621-2322                               05700767CCSH       0000001000000000                                                                             
D000014006057601827931082011112741นาง นันธดา สุขประเสริฐ มฉ2103                     88089193            31312070                                10070236CCSH       0000001500000000                                                                             
D000015006057601827931082011113739นาง จันทร์สม โพธิ์แดง                             8825-9693           1421-9369                               01396715CCSH       0000001922300000                                                                             
D000016006057601827931082011114324นายธวัชชัย  บุญอยู่                               88979882            26211329                                10290212CCSH       0000000301500000                                                                             
D000017006057601827931082011114945จิรศักดิ์ ศรีบุญจิตต์ ทล218                       8836-9298           8221-0341                               08001096CCSH       0000001498100000                                                                             
D000018006057601827931082011120131คุณ วินัย  กองเงินนอก มฉ 5023                     8877-9884           3031-5072                               04880062CCSH       0000001700000000                                                                             
D000019006057601827931082011122923นปดล สุขกำเนิด                                    88868799            30213325                                00820194CCSH       0000001481300000                                                                             
D000020006057601827931082011123241นายอัจฉริยะ อุเทนะพันธุ์                          8857-9894           3221-6358                               01260388CCSH       0000001884200000                                                                             
D000021006057601827931082011123504นาย แพน ชนะพาล                                    88769695            43317071                                05760932CCSH       0000000350000000                                                                             
D000022006057601827931082011125217นายสวิด วงษ์จำปา                                  8877-9498           7021-3352                               00610756CCSH       0000001817200000                                                                             
D000023006057601827931082011125625นางสาวภาวิณี แซ่กอ                                88189480            92219344                                09760107CCSH       0000001479100000                                                                             
D000024006057601827931082011125832มณีรัตน์ จันทมล ทร4085                            8866-9898           5021-4338                               10154881CCSH       0000000927400000                                                                             
D000025006057601827931082011131009นาย อภิวัฒน์ เครือวงค์ ทว 8586                    8827-9781           6521-8358                               04780201CCSH       0000001045600000                                                                             
D000026006057601827931082011131933นายวรุตม์  สุขบัติ ทว 6753                        8867-9993           3721-6355                               04585612CCSH       0000001377800000                                                                             
D000027006057601827931082011134009สงกรานต์ ด. ทล4841                                8898-9196           1821-4344                               10360281CCSH       0000001570000000                                                                             
D000028006057601827931082011144428นายองอาจ มหิทธิโรจน์ ทล6463                       88589692            34216346                                02150700CCSH       0000001004800000                                                                             
D000029006057601827931082011144501วรโชติ คำเรืองฤทธิ์                               88379892            31315073                                03830197CCSH       0000001884200000                                                                             
D000030006057601827931082011144613นายองอาจ มหิทธิโรจน์ ทล6441                       88689692            14216344                                02150700CCSH       0000001010000000                                                                             
D000031006057601827931082011150354นาย อนุสรณ์  วารีน้อย  ทศ 9301                    8853-6799           106194991                               01781712CCSH       0000002087700000                                                                             
D000032006057601827931082011153435นายสุรศักดิ์ อินทศร ทว 9592                       8867-8399           2521-9359                               04580699CCSH       0000002167000000                                                                             
D000033006057601827931082011155517น.ส.กนกวรรณ ทรงวิรัตน์ ทม 4619                    8897-8199           9621-4311                               10410123CCSH       0000001105700000                                                                             
D000034006057601827931082011155542นางกาญจนา ด่านวิริยะกุล 0874972767                8898-9297           3521-4329                               02561499CCSH       0000001598000000                                                                             
D000035006057601827931082011155700นายสมบัติ วงษ์เดอรี                               8866-9691           1021-5321           ทย 5011             11044460CCSH       0000001146700000                                                                             
D000036006057601827931082011160319นายสมัย สีหะวงษ์ มฉ2947                           8808-9880           7931-2074                               08691092CCSH       0000001484700000                                                                             
D000037006057601827931082011161336นายพงษ์ศักดิ์  สุวรรณคาม                          8847-9097           7221-4350                               07661056CCSH       0000001734300000                                                                             
D000038006057601827931082011163755นายสุรเชษฐ์ สินเวช                                88532499            106137366                               10151588CCSH       0000000098500000                                                                             
D000039006057601827931082011164808WARAYU  T.                                        88769497            67316078                                08510239CCSH       0000001506000000                                                                             
D000040006057601827931082011165236บจก.สิฎฐ์โชคดี3 ปอ7392                            8827-9593           2325-7419                               08691092CCSH       0000001185800000                                                                             
D000041006057601827931082011170149นางสุวีรยา นาสวน ทศ2716                           8846-9595           6721-2361                               05670390CCSH       0000001194400000                                                                             
D000042006057601827931082011170602นางสาวสมทรัพย์ หนองหาร                            88278697            56210362                                00860220CCSH       0000002518200000                                                                             
D000043006057601827931082011174006นายอำนวย รวยภิรมย์ มฉ5413                         88079691            34315071                                07990070CCSH       0000001918500000                                                                             
D000044006057601827931082011180803นายวีระศักดิ์ สีสันต์ ทร9522                      88688499            25219332                                07683054CCSH       0000001627900000                                                                             
D000045006057601827931082011181516เมตตา ต. ทว4450                                   8837-9687           0421-4355                               10360281CCSH       0000000098500000                                                                             
D000046006057601827931082011181545นางสุภาพร เดชวรรณ ทว7742                          8807-9692           2721-7354                               05690237CCSH       0000002138600000                                                                             
D000047006057601827931082011181853นายภานุพงค์  จรมณี  ทม8962                        88789394            29218316                                05701141CCSH       0000001710900000                                                                             
D000048006057601827931082011182656นายประวิทย์  รัตนมงคลกุล  มฉ 5213                 88979392            32315071                                05701141CCSH       0000001979000000                                                                             
D000049006057601827931082011183702นางธนันทร  หอมหวล                                 8857-9496           3921-4359           ทว 4993             07961036CCSH       0000001960000000                                                                             
D000050006057601827931082011183955น.ส.ขัตติยา วิเชียรเขียว                          8876-9993           1521-5333                               07953686CCSH       0000000611100000                                                                             
D000051006057601827931082011190146นายเรืองจรัส อิสระวิภรณ์สกุล                      8828-8689           0821-1317                               10130851CCSH       0000001114100000                                                                             
T000052006057601827900000000000000000000000070755900000050                                                                                                                                                                                                      
