H0000010060576018279บริษัท ไทเอซ สิสซิ่ง จำกัด              28122011TALHO                                                                                                                                                                                       
D000002006057601827928122011085143นางสาวณัฐธิชา  ทาระเวท                            88469597            76211367                                00330234CCSH       0000001861800000                                                                             
D000003006057601827928122011090547ธีระศักดิ์  สุประภากร                             88389880            67218340                                00911062CCSH       0000001700000000                                                                             
D000004006057601827928122011093335นางสาวรัชนีวรรณ บุตรานนท์                         88517099            106166498                               07758583CCSH       0000001186000000                                                                             
D000005006057601827928122011094159อำพัน ศรีโพธิ์                                    88589297            26214343            029566253           04607752CCSH       0000001561200000                                                                             
D000006006057601827928122011095659ประเสริฐศิล  อินประสิทธิ์                         77068799            107151268                               11280716CCSH       0000001217100000                                                                             
D000007006057601827928122011100044นางพรสวรรค์  เงินนาม                              8846-9196           3521-8321                               04120550CCSH       0000001382100000                                                                             
D000008006057601827928122011102512นางเสน่ห์ อินสุ                                   8877-9690           4721-8358                               05370806CCSH       0000001652200000                                                                             
D000009006057601827928122011103623นายสัญญา บุญประเทือง  ทว 7302                     8847-9093           2321-7350                               02590096CCSH       0000000030000000                                                                             
D000010006057601827928122011103849นายจรัล เผยสกุล ทศ2717                            88669595            77212361                                02580367CCSH       0000001918500000                                                                             
D000011006057601827928122011104145นายปรีชา ธารีไทย  ทว4206                          88979197            62214350                                10154881CCSH       0000001756700000                                                                             
D000012006057601827928122011111128สุรพงษ์ วงศ์กำภู                                  88759795            14218364                                01230490CCSH       0000001812300000                                                                             
D000013006057601827928122011112608นางสาวสมพร อินทรสอน ทล 5631                       88489193            16215343                                10900089CCSH       0000001664300000                                                                             
D000014006057601827928122011112918นายแอน หวังผล                                     88659495            94218361                                11600125CCSH       0000001505200000                                                                             
D000015006057601827928122011115127นายไพฑูรย์ วันเชียง ทล4128                        88789997            81214342                                08003818CCSH       0000001650000000                                                                             
D000016006057601827928122011115333นายอนันต์ พูลแสวง                                 8857-9695           8721-5356                               06870274CCSH       0000001549600000                                                                             
D000017006057601827928122011115615นายประทุม สุขลาภ                                  8806-9390           3821-4324           ทย 4843             10013714CCSH       0000000995100000                                                                             
D000018006057601827928122011115641นายทิพย์มนต์ สวนไพรินทร์ ทว8422                   88359698            24218352                                01920913CCSH       0000002129600000                                                                             
D000019006057601827928122011115914บจก. สิฎฐ์โชคดี3 ปอ7392                           8829-9593           2325-7419                               05700127CCSH       0000000780400000                                                                             
D000020006057601827928122011120008นายสุชาติ แก้วดอนรี                               88798499            30212346                                02265594CCSH       0000001756500000                                                                             
D000021006057601827928122011120804นายเชาว์  พินยะเพียน                              88579986            50215350                                11240673CCSH       0000000785000000                                                                             
D000022006057601827928122011121648นางนงค์เครือ พุทธางกูรวงศ์                        88989396            78214349                                01210586CCSH       0000001398700000                                                                             
D000023006057601827928122011123830พิรุณรัตน์ ยงท้วม                                 88079390            72219354                                11305412CCSH       0000001937000000                                                                             
D000024006057601827928122011124242นางสาวปาริชาติ สุกกลิ่น มช1955                    88518399            106198723                               07940349CCSH       0000001834200000                                                                             
D000025006057601827928122011124537นายเสนอ สุดศรี                                    88889592            54216342                                10720567CCSH       0000001734300000                                                                             
D000026006057601827928122011124554นายจิระเดช ราหูรักษ์  ทศ4707                      88969790            77214360                                01480206CCSH       0000001890800000                                                                             
D000027006057601827928122011130247คุณทิมากร  จันทร์หง่อม ทว 4808                    8847-9696           8821-4350                               11670205CCSH       0000001918500000                                                                             
D000028006057601827928122011131409ด.ต.สุวนัย เสาศิริ ทม 9303                        8831-9094           3321-9310                               04780201CCSH       0000000529100000                                                                             
D000029006057601827928122011132633นางมาลาศรี  ทองชา  ทร 2902                        88521499            107130390                               01230402CCSH       0000001307300000                                                                             
D000030006057601827928122011133300คุณศักดิ์ชัย นิยมนา                               88069792            54427020                                04690188CCSH       0000000350000000                                                                             
D000031006057601827928122011133356นาย เพทาย ขันทนาลัย                               88078598            47214331            ทร4714              10250012CCSH       0000001371600000                                                                             
D000032006057601827928122011133524จ.ส.อ.ประดิษฐ์ ยุบลนวน ทล3610                     88189898            06213341                                01211627CCSH       0000001447900000                                                                             
D000033006057601827928122011134433นายสัญญา กังวานไกล                                88557997            30210364            ทศ43                00540034CCLQ411051 00000018842000140120                                                                         
D000034006057601827928122011141744นายสมบูรณ์ สนศรี                                  88079496            79214352                                11240096CCSH       0000001756700000                                                                             
D000035006057601827928122011142609นายยวด ยินดี                                      88534299            106134477                               10720567CCSH       0000001269400000                                                                             
D000036006057601827928122011142706นายสุภะชัย ตู้ที                                  88569198            64211360            ทศ1406              01528111CCSH       0000000124300000                                                                             
D000037006057601827928122011150748นายประพันธ์ ริเป๊ก                                88169792            18213369                                11730509CCSH       0000001862700000                                                                             
D000038006057601827928122011151130นางสาวเพลินทิพย์  เหิมสารจอด  ทย210               88469195            02210321                                02130427CCSH       0000000889300000                                                                             
D000039006057601827928122011151857น.ส.ภาวิณี แซ่กอ                                  88189480            92219344                                04991118CCSH       0000001502800000                                                                             
D000040006057601827928122011152117นางพรทิพย์ ใจตรง                                  88179593            29216356                                09760107CCSH       0000002346000000                                                                             
D000041006057601827928122011152220นาย ทรงกลด ไฝ่ขัน                                 8829-9290           1231-0075                               00860670CCSH       0000001066000000                                                                             
D000042006057601827928122011152557นายศรัญญู ศิคเจริญ ทว 5737                        8845-7897           7721-5353                               11510664CCSH       0000002160000000                                                                             
D000043006057601827928122011152744นายอนันต์ เปสโล                                   88089497            03311076                                04690188CCSH       0000001774000000                                                                             
D000044006057601827928122011152906นายอนันต์ เปสโล                                   88089497            03311076                                04690188CCSH       0000000034300000                                                                             
D000045006057601827928122011160211ด.ต.เสิม หยุ่นแก้ว ทศ7818                         88859496            88217361            0898168953          01970387CCSH       0000001822300000                                                                             
D000046006057601827928122011161221นางเพ็ชรไพริน รัศมี ทย885                         8861-9192           5821-0328                               04950486CCSH       0000000342400000                                                                             
D000047006057601827928122011161347นายเถกิงเดช พุกพิบูลย์                            88188397            37313072                                09624492CCSH       0000000973200000                                                                             
D000048006057601827928122011164404นาง นฤมล ฟ้าอรุณ ทว 2768                          88679798            87212356                                05700767CCSH       0000001432800000                                                                             
D000049006057601827928122011165844นายวิทสุวัฒน์  โสวิบูรณ์                          88969792            86210369                                11140161CCSH       0000001920000000                                                                             
D000050006057601827928122011173956พิพัมน์ ธัญญพืช                                   8867-8998           7331-6063                               08000990CCSH       0000001091600000                                                                             
D000051006057601827928122011184427นายอนันต์ สิงห์น้อย ทศ1463                        88769797            34211366                                04950176CCSH       0000001918440000                                                                             
D000052006057601827928122011190435นายสำเร็จ บุตรปราบ ทล5653                         88689493            36215345                                07960037CCSH       0000001467100000                                                                             
D000053006057601827928122011190533นายสำเร็จ บุตรปราบ ทว8498                         88179691            84218359                                07960037CCSH       0000002048700000                                                                             
D000054006057601827928122011190630นายสำเร็จ บุตรปราบ ทศ2872                         88169395            28212367                                07960037CCSH       0000001467100000                                                                             
D000055006057601827928122011190724นายสำเร็จ บุตรปราบ ทศ7282                         88659897            22217368                                07960037CCSH       0000001560000000                                                                             
D000056006057601827928122011190813นายสำเร็จ บุตรปราบ ทศ9389                         88541099            104115288                               07960037CCSH       0000001656600000                                                                             
D000057006057601827928122011190846นายโชคชัย สนธิ์ชัยสกุล                            88189392            16216347                                10320864CCSH       0000001700000000                                                                             
T000058006057601827900000000000000000000000080682940000056                                                                                                                                                                                                      
