H0000010060576018279บริษัท ไทเอซ สิสซิ่ง จำกัด              24112011TALHO                                                                                                                                                                                       
D000002006057601827924112011090016นายหวัน  กาฬภักดี                                 88504199            107039670                               07412055CCSH       0000001025500000                                                                             
D000003006057601827924112011090017จิรเดช  โพธิ์สว่าง                                88078797            68218356                                02560706CCSH       0000001385700000                                                                             
D000004006057601827924112011090426ด.ต.  พชร  ดีพอ  มฉ5607                           8817-9890           7631-5070                               04990266CCSH       0000001515300000                                                                             
D000005006057601827924112011090647นายอาด ไม้น้อย                                    8808-9091           6721-7348                               02870680CCSH       0000001500000000                                                                             
D000006006057601827924112011091806นายพรศักดิ์ วีระพันธ์                             88479593            19216356                                09621011CCLQ342659300000015900000020187                                                                         
D000007006057601827924112011091854วิรัตน์  เกิดผล                                   8858-9797           2221-4347                               00360791CCSH       0000003116600000                                                                             
D000008006057601827924112011095347นางสาว อรวรรณ ศรีสุวรรณเกศ                        8878-9490           2221-8343                               07752367CCSH       0000001700000000                                                                             
D000009006057601827924112011101040นายสายันห์  เอี่ยมลออ                             88569290            13215337                                11240673CCSH       0000001121200000                                                                             
D000010006057601827924112011101839นายวีระยุทธ เคลือบคนโท ทว 5780                    8857-9795           0721-5358                               06100234CCSH       0000001979300000                                                                             
D000011006057601827924112011101844นายอดิศร ดอนสว่าง                                 88889597            60211336                                02190805CCSH       0000001484700000                                                                             
D000012006057601827924112011103118อุบลรัตน์  บัวเพชร                                88178098            13210363            0877087439          04600142CCSH       0000001275500000                                                                             
D000013006057601827924112011103346ปวีณา  บัวเพชร                                    88599898            106203903           02-9884781          04600142CCSH       0000002248400000                                                                             
D000014006057601827924112011103353นายอั๋น  แป้งใส ทย 5825                           8877-9688           5821-5322                               01700681CCSH       0000001447100000                                                                             
D000015006057601827924112011104915นายสันต์ชัย ฤทธิ์เทพ                              88502799            104122463                               01770930CCSH       0000001892600000                                                                             
D000016006057601827924112011110504นายสิทธิวิชญ์   เกษมพงศ์วณิช                      88368497            61315077                                01820228CCSH       0000001429200000                                                                             
D000017006057601827924112011110516น.ส.นันท์ญา  จันท์มารถ  ทม 5715                   8837-8099           5721-5311                               11670205CCSH       0000001286500000                                                                             
D000018006057601827924112011110545ประดิษฐ์ ไลยการ                                   88759898            07216361                                04607752CCSH       0000001200300000                                                                             
D000019006057601827924112011111006นายสายัณห์  เจริญสุข   มจ 7981                    88668298            19317068            086-5883906         08690033CCSH       0000000755800000                                                                             
D000020006057601827924112011111437นาย วิมล  สุขจาด  มฉ9815                          88259298            58319071                                00339885CCSH       0000001917900000                                                                             
D000021006057601827924112011114231นายสำรวย จางนอก                                   8836-8897           6221-6360           ทศ.6206             00570712CCSH       0000001006600000                                                                             
D000022006057601827924112011114617นายไพบูลย์ พิมไธสง                                8895-9595           1531-0082                               11731731CCSH       0000001696000000                                                                             
D000023006057601827924112011115122ด.ต.สุวนัย เสาศิริ วศ4499                         8846-9890           9435-4369                               04781103CCSH       0000000988000000                                                                             
D000024006057601827924112011120401นายไพศาล พรประภาศักดิ์ ทศ397                      88478098            73210369                                01520684CCSH       0000000809000000                                                                             
D000025006057601827924112011121354นายชัชวาล แสงอาวุธ ทศ8357                         88059895            73218365                                08401304CCSH       0000001828800000                                                                             
D000026006057601827924112011121923นาย อุทัย การเกษ ทย6248                           8857-8197           8221-6324                               08450531CCSH       0000001067000000                                                                             
D000027006057601827924112011122720ขวัญเมือง แก้วสระแสน                              88859196            01216326                                00281171CCSH       0000001613400000                                                                             
D000028006057601827924112011124215นาย ประสิทธิ์ จันทร์พิพัฒน์ผล  ทย 5664            8847-8599           4621-5326                               01890619CCSH       0000001091500000                                                                             
D000029006057601827924112011130553นายแพน ชนะพาล                                     8876-9695           4331-7071                               03270982CCSH       0000001705000000                                                                             
D000030006057601827924112011133603นายอริย์ธัช วิสาติ                                8867-9990           5421-8356           ทว 8465             00820884CCSH       0000001385700000                                                                             
D000031006057601827924112011134429นายประพันธ์ ริเป๊ก ทศ3891                         8816-9792           1821-3369                               08420293CCSH       0000001892500000                                                                             
D000032006057601827924112011141614วัสมล โชติสิงห์                                   88267497            36217352                                08000990CCSH       0000001799200000                                                                             
D000033006057601827924112011143201นายประทุม สุขลาภ                                  8806-9390           3821-4324           ทย 4843             10013714CCSH       0000000995100000                                                                             
D000034006057601827924112011143655นายสุรพล การสร้าง  ทศ8874                         88379194            24212323                                02190241CCSH       0000001774900000                                                                             
D000035006057601827924112011143709นายสาคร นามใจยา                                   88779397            10215336                                01100550CCSH       0000001580000000                                                                             
D000036006057601827924112011145003นายอุดง  คงนอง                                    8898-8589           3421-0357                               04774771CCSH       0000001432800000                                                                             
D000037006057601827924112011150108นายสาคร นามใจยา                                   88779397            10215336                                01100550CCSH       0000000510000000                                                                             
D000038006057601827924112011150312นายยอดชาย  ขำจำรูญ                                88498199            82212349                                08401304CCSH       0000001000000000                                                                             
D000039006057601827924112011152225นายสุชาติ จันทร์เสวก                              88169893            59218314                                07110043CCSH       0000001723800000                                                                             
D000040006057601827924112011152833นายสมพงษ์ สุตรา มฉ 1961                           8878-9984           1931-1076                               03730745CCSH       0000001688700000                                                                             
D000041006057601827924112011152938ด.ต.เสิม หยุ่นแก้ว ทษ1009                         88505699            104121396                               01971063CCSH       0000001912300000                                                                             
D000042006057601827924112011153243นายบุญช่วย จิตตั้ง ทศ702                          88978397            27210360            0852454028          00310272CCSH       0000002002500000                                                                             
D000043006057601827924112011154922หจก.วิน คาร์ ทล1134                               88699491            41211343                                00470517CCSH       0000000500000000                                                                             
D000044006057601827924112011181926ร.ต.อ.ศุภกร ธัญญกรรม                              88089797            91214346            ทล4169              10151005CCSH       0000001476200000                                                                             
D000045006057601827924112011182106ร.ต.อ.ศุภกร ธัญญกรรม                              88588899            23219340            ทล9302              10151005CCSH       0000001432800000                                                                             
D000046006057601827924112011182234ร.ต.อ.ศุภกร ธัญญกรรม                              88989984            33215345            ทล 5353             10151005CCSH       0000001617900000                                                                             
D000047006057601827924112011183532นาง สมร  ราวินิช                                  8848-8899           5721-0340                               08550648CCSH       0000000780000000                                                                             
D000048006057601827924112011183645นาง สมร  ราวินิช                                  8827-9993           3421-3345                               08550648CCSH       0000000960000000                                                                             
T000049006057601827900000000000000000000000068141300000047                                                                                                                                                                                                      
