H0000010060576018279บริษัท ไทเอซ สิสซิ่ง จำกัด              14092011TALHO                                                                                                                                                                                       
D000002006057601827914092011083159นางสายบัว  ยิ้มใย  ทล7784                         8837-7197           4721-7348                               04590095CCSH       0000002032000000                                                                             
D000003006057601827914092011090634นายสุรศักดิ์ อินทศร ทศ 5534                       8876-8399           4521-5363                               04580699CCSH       0000002685000000                                                                             
D000004006057601827914092011091606นายธวัชชัย บุญอยู่                                8897-9882           2621-1329                               10290291CCSH       0000001485700000                                                                             
D000005006057601827914092011094657นายวินัย ผลดี                                     88279784            38216355                                00740081CCSH       0000001918500000                                                                             
D000006006057601827914092011101353นางสาวนัฐณี อินทร์เพ็ญ                            88539099            107129677                               00640715COTH       0000001610740000                                                                             
D000007006057601827914092011105817นาย เหมราช เนื่องพิมพ์ ทล 2922                    88389983            29212342                                10270592CCSH       0000001748600000                                                                             
D000008006057601827914092011110245อิทธิพงศ์ อินทรีย์                                8888-9781           9731-2076                               01550599CCSH       0000001800000000                                                                             
D000009006057601827914092011111217นายพุฒิพัฒน์ พีรชัยทัศน์ ทว9161                   88979290            11219356                                07650724CCSH       0000000843300000                                                                             
D000010006057601827914092011111739นายชัยวัฒน์ สิทธิประสงค์                          8821-9596           0621-7317                               00200593CCSH       0000000415500000                                                                             
D000011006057601827914092011112316นายเจริญ  น้อยชื่น                                8818-9380           4031-3077                               01470418CCSH       0000001432800000                                                                             
D000012006057601827914092011112726นายทีระชาติ ภิญโญ                                 8806-8499           73214364                                00240918CCSH       0000001748600000                                                                             
D000013006057601827914092011113151สิทธิรัตน์  ศูนย์ผล                               88379097            32214357                                04950191CCSH       0000001605200000                                                                             
D000014006057601827914092011113232นายกิตติพงศ์ กรศุภอานนท์                          8877-8599           0921-2329           ทย2990              03970649CCSH       0000001650000000                                                                             
D000015006057601827914092011115229นาย อนุสรณ์  วารีน้อย  ทศ9301                     88536799            106194991                               01781712CCSH       0000002087700000                                                                             
D000016006057601827914092011115605นายเสถียร  คุณปรึกษา                              88289290            26212339                                00760338CCSH       0000001670400000                                                                             
D000017006057601827914092011120538นายสมบัติ โคกลือชา                                88479683            26217352                                11342729CCSH       0000001700000000                                                                             
D000018006057601827914092011120839นางสาว กุหลาบ สีคร้าม ทล650                       88499991            06210345                                10070236CCSH       0000001267800000                                                                             
D000019006057601827914092011120939นายสมพร  หนุขวัญ  ทล 7350                         88289391            03217345                                02260835CCSH       0000001880000000                                                                             
D000020006057601827914092011121952นาย ศราวุฒิ สุขพัฒน์  ทล 3987                     8818-9498           7921-3348                               04581882CCSH       0000001665500000                                                                             
D000021006057601827914092011122043นาย ศราวุฒิ สุขพัฒน์  ทล 3986                     8828-9498           6921-3348                               04581882CCSH       0000001665500000                                                                             
D000022006057601827914092011122205นายทองสูน เที่ยงแก๊ส ทศ 1974                      88069197            49211367                                04731091CCSH       0000001884200000                                                                             
D000023006057601827914092011123502นาย วิชาญ ปานสุวรรณ มง 5076                       8816-9698           6031-5057                               10900089CCSH       0000000654100000                                                                             
D000024006057601827914092011124641นายจักรกริช รอดทอง ทล4743                         88489987            37214344                                01890436CCSH       0000001755800000                                                                             
D000025006057601827914092011131427นาย วิชัย  ตุลา  ทย201                            88168697            12210320                                02590911CCSH       0000001543200000                                                                             
D000026006057601827914092011132522นายประกาศ หลุมทอง ทม 659                          8897-9394           9621-0315                               06925867CCSH       0000000879300000                                                                             
D000027006057601827914092011132617จ.ส.ต.บุญเลิศ  ทองเตี้ย                           8877-8399           0521-9356                               04700012CCSH       0000001878600000                                                                             
D000028006057601827914092011132758นาย สมพร พงษ์เหล่างิ้ว                            88459897            17313053                                07930240CCSH       0000000700000000                                                                             
D000029006057601827914092011134109นายสุชาติ จันทร์เสวก                              8816-9893           5921-8314                               07112537CCSH       0000001159200000                                                                             
D000030006057601827914092011140223คุณ สมทัย  องอาจ                                  8836-9896           3121-2366                               01270439CCSH       0000000030000000                                                                             
D000031006057601827914092011141329นาง สุมาลี สังข์ทอง                               88279587            85214356                                07660497CCSH       0000001799200000                                                                             
D000032006057601827914092011141506วาสนา จันทร์เพ็ชร                                 88510299            107154092                               01451246CCSH       0000001275100000                                                                             
D000033006057601827914092011145251นายประพันธ์  มุขเงิน                              88546889            106197807                               09760114CCSH       0000001984300000                                                                             
D000034006057601827914092011150329นาย เฉียบวุฒิ  อ่อนยิ่ง มฉ8140                    8896-9292           0131-8074                               03080685CCSH       0000001432800000                                                                             
D000035006057601827914092011150433นายเฉลิม จันทร์สอน                                8896-7097           5431-6066                               05760270CCSH       0000001022600000                                                                             
D000036006057601827914092011150559นางภัททิรา  วีระกูล ทศ 34                         8886-8598           4021-0363                               01080089CCSH       0000001773700000                                                                             
D000037006057601827914092011151301นายฉลาด วันชนะ  ทศ307                             88078988            73210360                                10074338CCSH       0000001918500000                                                                             
D000038006057601827914092011154016คุณพิษณุ ด้วยสาร ทย 4415                          88679795            54214321                                08550650CCSH       0000001670000000                                                                             
D000039006057601827914092011171647นายสุทธิรักษ์ พวงพิลา                             88479887            02314076                                11370660CCSH       0000002240200000                                                                             
T000040006057601827900000000000000000000000058513640000038                                                                                                                                                                                                      
