H0000010060576018279บริษัท ไทเอซ สิสซิ่ง จำกัด              02092011TALHO                                                                                                                                                                                       
D000002006057601827902092011083255นาย อนุชิต ปูพบุญ                                 88589090            51219282                                01900191CCSH       0000001517700000                                                                             
D000003006057601827902092011084209น.ส.สมจินตนา มัจฉาชีพ                             88659196            70218360                                06872983CCSH       0000001798500000                                                                             
D000004006057601827902092011085739นายอำนาจ  เจียมเชื่อม  ทศ 6549                    8856-8497           9521-6364                               02530516CCSH       0000001856500000                                                                             
D000005006057601827902092011092658นาย พิชิต พรหมมาวัน มช 309                        8805-9296           9331-0080                               01781712CCSH       0000001846600000                                                                             
D000006006057601827902092011094451นายบุญมี จันทร์กอง ทล 8809                        8898-9190           9821-8340                               01970208CCSH       0000001700000000                                                                             
D000007006057601827902092011094710นายบุยมี จันทร์กอง ทย8684                         8889-9397           4621-8328                               01970208CCSH       0000001613300000                                                                             
D000008006057601827902092011095331นางเข็มทอง สงเคราะห์  ทว 7880                     8857-9492           0821-7358                               04600072CCSH       0000001515300000                                                                             
D000009006057601827902092011100848นฤมล ราชอาษา                                      88278599            66213334                                01720538CCSH       0000001100000000                                                                             
D000010006057601827902092011102927นายชายชาญ งามชื่น                                 8887-9596           1821-4353                               10200553CCSH       0000001895800000                                                                             
D000011006057601827902092011103058อำนาจ กฤษณะเศรณี                                  88569986            65212364                                00170047CCSH       0000001515300000                                                                             
D000012006057601827902092011103240ยุทธชัย พ. ทว9032                                 8877-9490           2021-9353                               10360281CCSH       0000001914300000                                                                             
D000013006057601827902092011103901นายประเสริฐ แก้วจั่นเพ็ชร                         8837-8398                                                   06881117CCSH       0000001550700000                                                                             
D000014006057601827902092011104742นายกิจจา คลังเพ็ชร มง8290                         8856-8398           0231-8059                               02501075CCSH       0000000637200000                                                                             
D000015006057601827902092011105103นายประเสริฐ แออ่วม                                88669592            04217312                                01480363CCSH       0000001414000000                                                                             
D000016006057601827902092011105142ทัตพล  ฤกษ์อุโฆษ                                  88879897            52217349                                11310957CCSH       0000001187700000                                                                             
D000017006057601827902092011105302นายประเสริฐ แออ่วม                                88169791            59210321                                01480363CCSH       0000001495000000                                                                             
D000018006057601827902092011105343นายเพียร  แดงโร่ มฉ4350                           8827-9296           0331-4075                               00820726CCSH       0000001880000000                                                                             
D000019006057601827902092011105835นาย พิภพ  ใจยอด  ทย4261                           8888-9797           1221-4326           089-9203752         08690033CCSH       0000001484700000                                                                             
D000020006057601827902092011110306นาย ธนัช กันติ๊บ                                  88169692            14212333            ทร 2431             00600443CCSH       0000001555600000                                                                             
D000021006057601827902092011110421อนุ สุริยะ                                        88069596            02211340                                02542373CCSH       0000001738100000                                                                             
D000022006057601827902092011111158นาย บวรพลภ์ สุนทราธนาทิพย์  ทว 5690               8847-9995           0621-5359                               04581882CCSH       0000001556500000                                                                             
D000023006057601827902092011111209นายประสิทธิ์ ผ่านจังหาร ทล 3202                   88998497            22213340                                04731091CCSH       0000001700000000                                                                             
D000024006057601827902092011111342นายปัญญา ศรีคำ ทว5697                             8897-9795           7621-5359                               02580367CCLQ166739300000004500000020118                                                                         
D000025006057601827902092011111351นาย บุญฤทธิ์ ศรีสุยิ่ง                            8887-9586           0431-3053           มง3430              10250012CCSH       0000000808500000                                                                             
D000026006057601827902092011111653นายปัญญา ศรีคำ ทว 5697                            8897-9795           7621-5359                               02580367CCSH       0000001439700000                                                                             
D000027006057601827902092011112458นายพงษ์ศักดิ์  แหล่งสนาม ทว9904                   8877-8798           4921-9350                               04600072CCSH       0000001931000000                                                                             
D000028006057601827902092011112605นาง เครือวัลย์  มุสิกะนันทน์                      8858-9498           5821-3348                               11540466CCSH       0000001744800000                                                                             
D000029006057601827902092011112849นายนิรันดร์ จันทัด                                88259096            90218366                                01781711CCSH       0000000030000000                                                                             
D000030006057601827902092011113336คุณประไพวรรณ หวานเย็น                             8857-9591           5321-8352                               00210342CCSH       0000001700000000                                                                             
D000031006057601827902092011113443คุณประไพวรรณ หวานเย็น                             8825-9798           1721-6364                               00210342CCSH       0000001839700000                                                                             
D000032006057601827902092011113446น.ส.วาสนา สุขเกษม ทม1448                          8885-9895           8421-1314                               06920243CCSH       0000000998700000                                                                             
D000033006057601827902092011113627น.ส.วาสนา สุขเกษม ม.6319                          8895-9895           9331-6051                               06920243CCSH       0000000998700000                                                                             
D000034006057601827902092011114241นส.นงชบา วรปาณิ                                   8838-9695           20081554                                00282352CCSH       0000001650000000                                                                             
D000035006057601827902092011114836นาย วานิช พานะคุณ                                 8817-8197           4331-4074                               00821044CCSH       0000000098500000                                                                             
D000036006057601827902092011120540นายเสน่ห์ ขาวสวัสดิ์  ทร7423                      8836-9698           3421-7332                               02590096CCSH       0000000030000000                                                                             
D000037006057601827902092011121124นางสาวสมร สมสุภาพ ทร 537                          8858-9497           7521-0333                               10050089CCSH       0000001655400000                                                                             
D000038006057601827902092011121933นายชนะชาติ ทับทิม                                 8897-8899           8031-2065                               05761504CCSH       0000001047000000                                                                             
D000039006057601827902092011123139นาย พรเทพ  สบาย ทล 7160                           8816-7997           0121-7346                               04690052CCSH       0000001650900000                                                                             
D000040006057601827902092011123337นายชัยวัฒน์  ลีเลิศยานนท์  ทล 5928                8838-9593           8921-5342                               11310028CCSH       0000001617900000                                                                             
D000041006057601827902092011124004ว่าที่ รต.บุญส่ง สุขทิพย์กิจ                      88533399            104119058                               00701878CCSH       0000000524500000                                                                             
D000042006057601827902092011124108น ส จินดา บุญญานนท์                               8875-9698           1821-6365                               10151588CCSH       0000001839700000                                                                             
D000043006057601827902092011124706นาง นัทธดา สุขประเสริฐ มฉ2103                     88089193            31312070                                10070203CCSH       0000000579100000                                                                             
D000044006057601827902092011125045นายสมนึก สืบพิลัย ทว7061                          8897-9393           1021-7356                               02260861CCSH       0000002116700000                                                                             
D000045006057601827902092011125153นายสมนึก สืบพิลัย ทล9062                          8888-9580           2021-9346                               02260861CCSH       0000002116700000                                                                             
D000046006057601827902092011125302นายสมนึก สืบพิลัย ทว7854                          8807-9392           4821-7355                               02260861CCSH       0000002116700000                                                                             
D000047006057601827902092011130210รุจี นุชภู่                                       88768699            99219337                                02610551CCSH       0000001555600000                                                                             
D000048006057601827902092011130543นาย มานะ ขำสุวรรณ ทศ6817                          88559698            78216361                                01480840CCSH       0000001874000000                                                                             
D000049006057601827902092011140554ด.ต.ถนอม ไพจิตร มจ 6073                           88259897            30316067                                10660615CCSH       0000001084700000                                                                             
D000050006057601827902092011141309นายธนกร  แสงศรี  ทม 4691                          8876/8099           1621-4319                               00530118CCSH       0000000517700000                                                                             
D000051006057601827902092011141421นาย สงวน มุลตะกร                                  8878-9493           7621-5349                               10720567CCSH       0000001700000000                                                                             
D000052006057601827902092011141635นาย บุญมา ล้ำทวีภักดี                             8857-8899           1021-2327                               07620396CCSH       0000001000000000                                                                             
D000053006057601827902092011142443นายพริ้ง  จอมดวง                                  8806-9993           7231-5055                               11520515CCSH       0000000832300000                                                                             
D000054006057601827902092011142822นางกาญจนา  เอี่ยมจีน  0881123744                  8829-9990           6121-5320                               00651473CCSH       0000000604443000                                                                             
D000055006057601827902092011143408นายภูริพัฒน์ มะโรงศรี ทศ6020                      8896-8598           0021-6362                               00810695CCSH       0000001514700000                                                                             
D000056006057601827902092011143458นาย อรรถพันธ์  สีปูน ทม 5094                      8816-9294           4021-5319                               02271067CCSH       0000000983300000                                                                             
D000057006057601827902092011145801นายสุรศักดิ์ อินทศร ทล 2720                       8899-8498           0721-2342                               04585612CCSH       0000001913600000                                                                             
D000058006057601827902092011152853นพรัตน์ เที่ยงสมบุญ                               8835-9884           0621-4323                               10320746CCSH       0000001124400000                                                                             
D000059006057601827902092011154437นาง เกสฬา  พันจุย ทศ2866                          8856-9495           6821-2366                               10250225CCSH       0000001500700000                                                                             
D000060006057601827902092011155601นายสัมฤทธิ์ พิลาดี                                8877-9496           6921-5319                               01500843CCSH       0000000889300000                                                                             
D000061006057601827902092011162337พิชยนต์ เปี่ยนทอง                                 8856-9991           1221-1319                               05970092CCSH       0000001345900000                                                                             
D000062006057601827902092011162456นางสาว สุนันท์  แก้วเผือก 9ฬ-7005                 8816-8999           5009-7400                               09760540CCSH       0000000312100000                                                                             
D000063006057601827902092011163642นาง วันพร  องค์ศิริพร                             8816-9994           1321-3323                               10990248CCSH       0000000918800000                                                                             
D000064006057601827902092011165722นาย ธนพัต คุ้มวงษ์                                8867-8797           2331-6074                               07667661CCSH       0000001773000000                                                                             
D000065006057601827902092011165758จ.ส.ท.กมล แสงสว่าง ทร 9592                        88969793            25219339                                04780158CCSH       0000000829300000                                                                             
D000066006057601827902092011170620แอน หวังผล                                        8865-9495           9421-8361                               08000990CCSH       0000001505200000                                                                             
D000067006057601827902092011175539นางสาว ฐิติยา มีนันทร                             8878-8397           0421-2351                               07620396CCSH       0000001884200000                                                                             
D000068006057601827902092011181231นส.ภัคจิรา เอี่ยมนอก                              8895-9396           0621-6360                               10675535CCSH       0000001682000000                                                                             
D000069006057601827902092011181430นาย ชันกาญจน์ น้อยพินิจ มจ 5033                   8825-9996           3031-5063                               07682416CCSH       0000002030000000                                                                             
D000070006057601827902092011181712นายวิชัย  วงศ์อัศวเวศย์  ทว5368                   8867-9586           8321-5356                               04880055CCSH       0000001484200000                                                                             
T000071006057601827900000000000000000000000094316443000069                                                                                                                                                                                                      
