H0000010060576018279บริษัท ไทเอซ สิสซิ่ง จำกัด              16082011TALHO                                                                                                                                                                                       
D000002006057601827916082011083404นาย วสันต์ สุวรรณรังษี ทล7089                     8868-9682           9021-7348                               01200274CCSH       0000001561200000                                                                             
D000003006057601827916082011084541นายธวัชชัย   บุญอยู่                              8897-9882           2621-1329                               10290212CCSH       0000001451700000                                                                             
D000004006057601827916082011092050นาง สมควร ทิพศักดิ์ ทม 6401                       88689898            14216310                                10270592CCSH       0000001357000000                                                                             
D000005006057601827916082011093130นาย สัญญา  สาแก้ว  ทร 3054                        8816-7897           4021-3335                               02260835CCSH       0000001134800000                                                                             
D000006006057601827916082011103546นาย บัวลา ทองขาว ทล6566                           8805-9595           6521-6346                               01211627CCSH       0000001840000000                                                                             
D000007006057601827916082011103729นาย บัวลา ทองขาว ทศ7406                           8865-9497           6421-7360                               01211627CCSH       0000001828800000                                                                             
D000008006057601827916082011103944นาย วรวิทย์ และสง่า ทล 1052                       88679992            20211345                                01890436CCSH       0000000500000000                                                                             
D000009006057601827916082011104651นางสาวพาฝัน  ศิริสวัสดิ์ ทร 3620                  88059593            06213332                                01770444CCSH       0000000829300000                                                                             
D000010006057601827916082011104950นายชาติชาย  ชาติขยัน ทว3510                       8897-9688           0521-3351                               00280900CCSH       0000001884200000                                                                             
D000011006057601827916082011105307นางวิไลลักษณ์ แก้วแกมเกษ                          8878-9591           5121-7348                               01720538CCSH       0000000829300000                                                                             
D000012006057601827916082011105922นาย พงษ์ศักดิ์ บริบูรณ์  ทล 7838                  8886-9291           8821-7343                               04581882CCSH       0000001970000000                                                                             
D000013006057601827916082011105930นายสมชัย  คณฑา  ทม6643                            8816-9292           3621-6314                               00280900CCSH       0000000509800000                                                                             
D000014006057601827916082011110035นายแค่น โพธิ์ศรี ทล 1237                          8817-7997           7221-1343                               00560394CCSH       0000001589600000                                                                             
D000015006057601827916082011110226นางสาว มะลิวัลย์ จุ่นทอง                          8807-9982           6021-8354                               07540596CCSH       0000001734200000                                                                             
D000016006057601827916082011111122นายจิรวัฒน์ ชื่นชม                                88068599            64214318                                09761108CCSH       0000001023600000                                                                             
D000017006057601827916082011112054อุไร ชูศักดิ์ ทร9232                              8849-9094           2221-9333                               02150209CCSH       0000000034300000                                                                             
D000018006057601827916082011112419นาย อนุสรณ์  วารีน้อย                             8885-9795           8421-3317                               01780229CCLQ103437800000009951000040766                                                                         
D000019006057601827916082011114018นาง มาลาศรี ทองชา                                 88669194            10211322                                01230882CCSH       0000000310800000                                                                             
D000020006057601827916082011114658นาย พิเชษฐ์ ศรีหาประทุม ทว 4013                   88779197            30214351                                08401304CCSH       0000000235500000                                                                             
D000021006057601827916082011114835นางพัชรี ศรีหาประทุม ทม 8664                      88319994            46218316                                08401304CCSH       0000000755800000                                                                             
D000022006057601827916082011120354นายขอบตะวัน ดีประเสริฐ                            8856-9393           7621-3362                               00500245CCSH       0000001799200000                                                                             
D000023006057601827916082011121624นายสาคร รีฮุง มฉ4195                              8827-9887           5131-4079                               09770483CCSH       0000001992000000                                                                             
D000024006057601827916082011122320นายเสาร์คำ เเก้ววิมล มฉ4686                       8807-9994           6631-4078                               00771064CCSH       0000001884200000                                                                             
D000025006057601827916082011123254นาย สมาน เดชะบุญ  ทม 131                          8886-8697           1121-0313                               04581882COTH       0000001277600000                                                                             
D000026006057601827916082011123657ทวีเดช ศักดิ์ปรีชายืนยง                           88759896            38211324                                08560792CCSH       0000001392800000                                                                             
D000027006057601827916082011124056นายมนตรี แก้วใจจง มฉ 4715                         8897-9894           5731-4071                               04990497CCSH       0000001884200000                                                                             
D000028006057601827916082011125757นางเข็มทอง สงเคราะห์                              88769897            05211362                                02610551CCSH       0000001515300000                                                                             
D000029006057601827916082011130358นางอุบลรัตน์ บัวเพชร                              88178098            13210363                                02610862CCSH       0000001884200000                                                                             
D000030006057601827916082011130912นางจำเนียร ปรีชา                                  88759597            63217366                                08558551CCSH       0000000201200000                                                                             
D000031006057601827916082011134038นายเทพอำพล ประสงค์ทรัพย์ ทล 7687                  88389990            76217348                                07347293CCSH       0000002256900000                                                                             
D000032006057601827916082011140758นาย เฉลิมชัย  จันทร์งาม                           88479998            23217333                                00190408CCSH       0000001859000000                                                                             
D000033006057601827916082011140827นายอุดม คงนอง                                     8898-8589           3421-0357                               07620489CCSH       0000001432800000                                                                             
D000034006057601827916082011143523นายพรรษ เสริมทอง มจ2830                           8835-9796           0831-2063                               04781103CCSH       0000001437400000                                                                             
D000035006057601827916082011144112นาย วิโรจน์  เจริญทรัพย์  ทย 5146                 8867-9981           6121-5324                               02260835CCSH       0000001010600000                                                                             
D000036006057601827916082011144339นายวิชาญ อินไชย ทศ8953                            8885-9195           3921-8365                               05750619CCSH       0000001400000000                                                                             
D000037006057601827916082011144340น.อ.ชูชีพ ฉายน้อยทม2009                           88089493            90212310                                11253283CCSH       0000001030000000                                                                             
D000038006057601827916082011151129นาย บุญฐิน ถนอมเมฆ                                88278099            11316072                                11370660CCSH       0000001799200000                                                                             
D000039006057601827916082011151151นาย เอกสิทธิ์ ศรีตองอ่อน ทว597                    8858-8689           7521-0359                               02590600CCSH       0000001918700000                                                                             
D000040006057601827916082011153821ฉวีวรรณ สุวรรณวงษ์                                88679882            41218356                                00390351CCSH       0000000383300000                                                                             
D000041006057601827916082011154509นายเอกชัย รัตนวิจิตร                              8825-7897           9921-4318                               00210342CCSH       0000001715600000                                                                             
D000042006057601827916082011160133นางจุไรรัตน์  สุทธิเวช ทล 4577                    8848-9097           7521-4347                               11521628CCSH       0000002391700000                                                                             
D000043006057601827916082011163643ชูชัย จันทร์สมุทร                                 88559996            11310080                                10365296CCSH       0000001832800000                                                                             
D000044006057601827916082011164150นายฐาปนัท บูชา ทล6252                             8898-9783           2221-6345                               05690237CCSH       0000001672400000                                                                             
D000045006057601827916082011164851นายสุรชัย แก้วใจจง ทว9791                         88578989            17219359                                07930727CCSH       0000001884200000                                                                             
D000046006057601827916082011171437นางสาว นัฐพร ประวงษ์ ทม 3599                      8896-9193           9521-3319                               00860083CCSH       0000000600000000                                                                             
D000047006057601827916082011173200นางสาว บังอร บูระพิน ทว 3507                      8827-9788           7521-3350                               09621104CCSH       0000001965200000                                                                             
D000048006057601827916082011174812นางสายบัว ยิ้มใย ทล 7784                          8837-7197           4721-7348                               08830061CCSH       0000002032000000                                                                             
D000049006057601827916082011181830นายชายชาญ งามชื่น                                 8807-9696           2631-9052                               10661017CCSH       0000000871600000                                                                             
D000050006057601827916082011182139นายสุวิทย์ กองทน ทร5878                           8857-8898           8821-5337                               08691092CCSH       0000001405700000                                                                             
D000051006057601827916082011184622นายสุรศักดิ์ อินทศร ทล6058                        8848-8698           8021-6345                               08691092CCSH       0000001798500000                                                                             
D000052006057601827916082011184903น.ส.นิตยา  ศิริพลัด                               88899395            09318068                                11140161CCSH       0000001471700000                                                                             
D000053006057601827916082011185256นายระเริง  หยูเอียด  ทว 9586                      8887-8499           6521-9358                               04881090CCSH       0000001884200000                                                                             
D000054006057601827916082011185905นายเสนห์ แย้มสุดใจ ทว6057                         88379994            70216355                                04950176CCSH       0000001517700000                                                                             
T000055006057601827900000000000000000000000073776900000053                                                                                                                                                                                                      
