H0000010060576018279บริษัท ไทเอซ สิสซิ่ง จำกัด              22022012TALHO                                                                                                                                                                                       
D000002006057601827922022012084806นางฉวีวรรณ  ดาราดวง ทพ7196                        8821-9196           6121-7289                               00280900CCSH       0000000207000000                                                                             
D000003006057601827922022012090230นายเกรียงไกร ศรอินทร์  ทย 2486                    88969492            64212328                                02590096CCSH       0000000829300000                                                                             
D000004006057601827922022012100112นาง นิตยา วรสาร                                   88369893            03213363                                08771836CCSH       0000001175500000                                                                             
D000005006057601827922022012101326นงนุช สุทธาวาส   ทศ1611                           88669298            16211361                                05943617CCSH       0000001884200000                                                                             
D000006006057601827922022012102732นายชญาณัตถพล เขมรพันธ์ มฉ4912                     88879793            29314071                                00820726CCSH       0000003498600000                                                                             
D000007006057601827922022012104239นางสมร  มะหะหมัด  ทม 1328                         88279294            83211312                                05948265CCSH       0000000470000000                                                                             
D000008006057601827922022012104533นายวิเชต มารกลม                                   88789994            61215346                                08830893CCSH       0000002012500000                                                                             
D000009006057601827922022012105014นายธงชัย ฉวีจันทร์ทล2606                          0198187995598       107159527                               04690578CCSH       0000000820400000                                                                             
D000010006057601827922022012105628นางบัวแก้ว พรมทอง                                 88518199            106199312                               11540166CCSH       0000000064300000                                                                             
D000011006057601827922022012105659นายคงศักดิ์ รุ่งรัตน์                             88479784            17216351                                00650260CCSH       0000001990000000                                                                             
D000012006057601827922022012110123นายสรรเสริญ สีธงชัยรุ่งโรจน์ ทร 7039              88545499            107142777                               07930240CCSH       0000001172300000                                                                             
D000013006057601827922022012110243นายสมเกียรติ สีธงชัยรุ่งโรจน์ ทว 717              88169697            77210351                                07930240CCSH       0000001112900000                                                                             
D000014006057601827922022012112818พล ชะนะมี                                         88779796            12314078                                01990942CCSH       0000001833500000                                                                             
D000015006057601827922022012113547นางศิริดา บุราณคุณ                                88688699            94219341                                11541541CCSH       0000001855200000                                                                             
D000016006057601827922022012114851บุญส่ง ต. ทร8401                                  88469692            14218330                                10360281CCSH       0000001583300000                                                                             
D000017006057601827922022012115409นายสุวัฒน์  ตั้งตระกูล                            88501899            104123798                               09760114CCSH       0000001867300000                                                                             
D000018006057601827922022012120523นายสุทิน เจาะจง    ทล 8122                        88089690            21218342                                01200195CCSH       0000001595500000                                                                             
D000019006057601827922022012124330นางสาววีณา วงศ์ศิริ                               88479591            03218352            ทว 8320             11142022CCSH       0000001918500000                                                                             
D000020006057601827922022012124522นายวรวิทย์ และสง่า  ทล 1052                       88679992            20211345                                01890619CCSH       0000000030000000                                                                             
D000021006057601827922022012125736นายคงศักดิ์ กองทอง                                88527799            104119626                               00281171CCSH       0000001644300000                                                                             
D000022006057601827922022012125808นางภัสรา เรศสุข ทศ2334                            8876-9694           4321-2363                               11812551CCSH       0000001800000000                                                                             
D000023006057601827922022012125928นายชัชวาล แสงอาวุธ ทศ8357                         88059895            73218365                                11812551CCSH       0000001863100000                                                                             
D000024006057601827922022012131231นายแพน  ชนะพาล                                    88769695            43317071                                05760270CCSH       0000002263100000                                                                             
D000025006057601827922022012131700นายสัญญา สาแก้ว                                   88167897            40213335            ทร3054              03970649CCSH       0000001212700000                                                                             
D000026006057601827922022012134043นางวิจิตรา ลาวัณย์วิจิตร                          88188997            75211358                                01851837CCLQ276937 00000001700000040042                                                                         
D000027006057601827922022012134348นางวิจิตรา ลาวัณย์วิจิตร                          88188997            75211358                                01851837CCLQ307885300000001000000140222                                                                         
D000028006057601827922022012134511นายปรีชา บุญมั่น ทว8783                           88679790            37218358                                11460299CCSH       0000001900000000                                                                             
D000029006057601827922022012134730นางวิจิตรา ลาวัณย์วิจิตร                          88188997            75211358                                01851837CCSH       0000001614200000                                                                             
D000030006057601827922022012140844นาย อนุสรณ์ วารีน้อย ทม 9309                      8896-8599           9321-9310                               01784404CCSH       0000000050000000                                                                             
D000031006057601827922022012140949นาย อนุสรณ์ วารีน้อย ทล6528                       8836-9794           8521-6342                               01784404CCSH       0000001484700000                                                                             
D000032006057601827922022012141559นางศิริพร บัติดอน                                 88169097            65215329                                01480560CCSH       0000002305000000                                                                             
D000033006057601827922022012141817ธนะจิตต์  พึ่งโพธิ์สภ                             8838-8689           2521-0351           ทว512               08690266CCSH       0000001700000000                                                                             
D000034006057601827922022012145449นางสาวนงลักษณ์  ศรีชมชื่น ทศ9832                  88527899            104119706           026428336           07990070CCSH       0000001805600000                                                                             
D000035006057601827922022012154450กาญจนา  ด่านวิริยะกุล                             88869896            96215323                                07620776CCSH       0000001121000000                                                                             
D000036006057601827922022012170206จิราพร  ทองร่มโพธิ์ ทว6633                        88179884            36216353                                07620776CCSH       0000001700000000                                                                             
D000037006057601827922022012185601นาย วรพงศ์ พูลพิพิธ                               88988597            06216329            ทย6690              10250256CCSH       0000001200000000                                                                             
D000038006057601827922022012193259นางพลอยงาม ทุ่งไธสงค์ ทย 8225                     8825-9896           5221-8322                               00860473CCSH       0000000965000000                                                                             
T000039006057601827900000000000000000000000050819000000037                                                                                                                                                                                                      
