H0000010060576018279บริษัท ไทเอซ สิสซิ่ง จำกัด              12012012TALHO                                                                                                                                                                                       
D000002006057601827912012012083858วาสนา  สันติสุขสถาพร                              88688297            74212355                                02600520CCSH       0000001850000000                                                                             
D000003006057601827912012012083901นายสมเกียรติ สีธงชัยรุ่งโรจน์                     88669987            45211328            ทย 1584             00820884CCSH       0000001374500000                                                                             
D000004006057601827912012012085620นายไพรัตน์ สุริยวรรณ                              88598798            107049780                               01231109CCSH       0000000873900000                                                                             
D000005006057601827912012012100456ยุทธพงศ์ เพิ่มพรพิทักษ์                           88679393            56211339                                01991041CCSH       0000000235500000                                                                             
D000006006057601827912012012102517สุโรจน์ เสรีกุล                                   88089298            30311075                                00240400CCSH       0000001004800000                                                                             
D000007006057601827912012012102937คุณสุรศักดิ์ เลิศไกร                              88575497            107119489                               09550205CCSH       0000001683500000                                                                             
D000008006057601827912012012103906นายธณานันท์ คุปตะวาทิน ทร 4796                    88288097            67214339                                10270592CCSH       0000001484700000                                                                             
D000009006057601827912012012110432นายสำฤทธิ์  แก่นจันทร์ มจ7524                     88259595            45317062                                06921923CCSH       0000000001000000                                                                             
D000010006057601827912012012111041นายกันภัย จิตราวัฒน์ มจ9229                       88519399            107146492                               04991118CCSH       0000000606800000                                                                             
D000011006057601827912012012111909นายสุริยันต์ ทองโพธิ์ศรี ทล9182                   8857-7897           2121-9348                               05670390CCSH       0000001838900000                                                                             
D000012006057601827912012012114508นายรังสันติ เวียงนนท์ ทล 5124                     8888-9795           4121-5342                               02500437CCSH       0000001699200000                                                                             
D000013006057601827912012012115541นางดาลานี วงษา ทศ 3601                            88769793            16213360                                10320746CCSH       0000002285500000                                                                             
D000014006057601827912012012115636อุดมรักษ์ ขอนสี                                   88378198            21210367                                02540078CCSH       0000001918500000                                                                             
D000015006057601827912012012120030นายบัวลา  ทองขาว                                  88669290            45210364                                01215368CCSH       0000001670000000                                                                             
D000016006057601827912012012120147นายชนะชัย ลัญฉเวโรจน์ ทล6803                      88689882            38216340                                02250511CCSH       0000001700000000                                                                             
D000017006057601827912012012121511นางลำยอง แพงจันทร์ศรี มจ6323                      8837-9191           3331-6062                               10860250CCSH       0000001658500000                                                                             
D000018006057601827912012012121651เมธี เผือกพันธ์มุข                                88559797            75213323                                08450160CCSH       0000001092200000                                                                             
D000019006057601827912012012121934นายพงษ์ศักดิ์ หิรัญวรรณ ทศ3175                    88869194            51213367                                00470207CCSH       0000001500700000                                                                             
D000020006057601827912012012125517น.ส.  วัสมล โชติสิงห์ ทศ 9033                     8805-9094           3021-9363                               05700767CCSH       0000001922300000                                                                             
D000021006057601827912012012130138นาย อรุณ สมัครณรงค์   ทษ 1692                     88593498            104126046                               04581882CCSH       0000002392740000                                                                             
D000022006057601827912012012130341สมชาย ตราลาภ ทศ8840                               88159794            08218364                                03830885CCSH       0000004000000000                                                                             
D000023006057601827912012012130454สมชาย ตราลาภ ทย 2948                              8845-9794           8921-2324                               03830885CCSH       0000004650000000                                                                             
D000024006057601827912012012130556สมชาย ตราลาภ ทร 6892                              88359794            28216339                                03830885CCSH       0000004650000000                                                                             
D000025006057601827912012012131530นางสาวธนิก มนูลักษณ์                              88589495            77311071                                00000097CCSH       0000001617900000                                                                             
D000026006057601827912012012131908นายชัยกะมน สุขกำเนิด                              88768997            35219343                                05760932CCSH       0000001847500000                                                                             
D000027006057601827912012012132047นายธนกฤษ มะสังหลง                                 88368598            97215363                                11600073CCSH       0000001946200000                                                                             
D000028006057601827912012012134931นาย ชายชาญ งามชื่น                                8807-9696           2631-9052                               11634256CCSH       0000000874100000                                                                             
D000029006057601827912012012135059นายชายชาญ งามชื่น                                 8887-9596           1821-4353                               11634256CCSH       0000001922500000                                                                             
D000030006057601827912012012140355นายปิยะ เข็มกลัด ทว6984                           88527599            106145962                               05671599CCSH       0000003775200000                                                                             
D000031006057601827912012012142021นาย ชัชวัสส์   ธีรพงษ์                            88508199            104125275                               08560865CCSH       0000002117800000                                                                             
D000032006057601827912012012142723นายศุภกร วิเศษธนาดุล ทย 6327                      88508899            107104674                               10270592CCSH       0000001159200000                                                                             
D000033006057601827912012012144243จ.ส.ต.วิถี ชัยงาม  ทล 3919                        88889298            99213341                                02260509CCSH       0000001561200000                                                                             
D000034006057601827912012012145150นายสันต์ ลาภรุ่งเรือง ทล 5698                     88789593            86215349                                05705512CCSH       0000001366700000                                                                             
D000035006057601827912012012145437นายสันต์ ลาภรุ่งเรือง ทล 6781                     88289392            17216348                                05705512CCSH       0000001469400000                                                                             
D000036006057601827912012012145557นายยุทธนา กาวินัน ทย 2433                         88503999            107098708                               10270592CCSH       0000001419000000                                                                             
D000037006057601827912012012150023น.ส.นิภาพัทร มอมุงคุณ                             88519799            107152522                               00650260CCSH       0000000980900000                                                                             
D000038006057601827912012012150520ดำรงค์ ต่อมพิทักษ์ไพร                             8817-9290           6021-9358                               01890216CCSH       0000001884200000                                                                             
D000039006057601827912012012151433น.ส.นัฐณี  อินทร์เพ็ญ                             88539099            107129677                               00640201CCSH       0000001610740000                                                                             
D000040006057601827912012012153729ภัคจิรา เอี่ยมนอก                                 88959396            06216360                                11840873CCSH       0000001570300000                                                                             
D000041006057601827912012012165043นาย สุรเดช  แก่นโนรา  ศฉ1620                      88869797            06361072            083-2255870         08690033CCSH       0000000588500000                                                                             
D000042006057601827912012012170923นางสาวเพลินทิพย์ เหิมสารจอด                       88469195            02210321                                10100871CCSH       0000000167000000                                                                             
D000043006057601827912012012173135นายมานพ   แข็งเขตการณ์                            88769997            35211362                                08553235CCSH       0000001884200000                                                                             
D000044006057601827912012012174241ด.ต.หญิงสุภรณ์  บัวงาม  ทว8628                    88879881            86218352                                07620776CCSH       0000001356900000                                                                             
T000045006057601827900000000000000000000000073212680000043                                                                                                                                                                                                      
