H0000010060576018279บริษัท ไทเอซ สิสซิ่ง จำกัด              12022012TALHO                                                                                                                                                                                       
D000002006057601827912022012111848นายธีระ เสือทอง                                   88889398            68213340                                02503235CCSH       0000001665500000                                                                             
D000003006057601827912022012112524เครือฟ้า ท. ทว3903                                88779797            39213350                                10360281CCSH       0000000877600000                                                                             
D000004006057601827912022012114851นาย สุรศักดิ์ วิเชียรเกื้อ                        8885-9497           5321-7368           ทศ7385              04670151CCSH       0000001342000000                                                                             
D000005006057601827912022012124053วิสุทธิ์                                          88269887            22212369                                07966650CCSH       0000001900000000                                                                             
D000006006057601827912022012130742นิภาภัทร มอมุงคุณ                                 88519799            107152522                               09761108CCSH       0000000980900000                                                                             
D000007006057601827912022012132902นายสุรเดช แก่นโนรา ศฉ1620                         8886-9797           0636-1072                               08691092CCSH       0000000588500000                                                                             
D000008006057601827912022012155944นางสาว ชิตนะภา ศรีเงินงาม ทม 8258                 8887-8998           8221-8315                               09741083CCSH       0000001550000000                                                                             
D000009006057601827912022012161503นายเสรี ผายพิมพ์                                  88468797            43217331                                08510518CCSH       0000001105700000                                                                             
D000010006057601827912022012172141พ.ต.ท.จิตติณัติ รักชาติ                           88169492            34214364                                04781103CCSH       0000002083900000                                                                             
D000011006057601827912022012172818นายคมสัน จันทร์หอม  ทศ825                         88278397            58210362                                10320156CCSH       0000001587900000                                                                             
D000012006057601827912022012181715นาย บุญเลิศ   สาระพร                              88389298            20214344                                11250233CCSH       0000001504500000                                                                             
D000013006057601827912022012183106นางมะลิ สุดสอยาด                                  88279994            53216350            ทว6305              08510518CCSH       0000001700000000                                                                             
D000014006057601827912022012192702นายภูริณัฐ อดุลนิรัตน์                            88588099            65210356                                10721605CCSH       0000001918500000                                                                             
T000015006057601827900000000000000000000000018805000000013                                                                                                                                                                                                      
