H0000010060576018279บริษัท ไทเอซ สิสซิ่ง จำกัด              09032012TALHO                                                                                                                                                                                       
D000002006057601827909032012083228ด.ต.จักรภัทร สังข์วิเศน                           88575498            106206192                               01340680CCSH       0000001712500000                                                                             
D000003006057601827909032012083324นางสิทธิฐนี สังข์วิเศน                            88576498            106206149                               01340680CCSH       0000001712500000                                                                             
D000004006057601827909032012084441นาย ศุภณัฐฐ์   ใจกล้า 0853170845                  8866-7197           0231-3076                               00336605CCSH       0000001884200000                                                                             
D000005006057601827909032012091442นาย วิภพ ฉิวกระโทก ทว 9175                        88778099            51219357                                00830255CCSH       0000001439000000                                                                             
D000006006057601827909032012092234นายวานิช ศรีบุญเรือง                              88479991            11317031                                02610535CCSH       0000001300000000                                                                             
D000007006057601827909032012093300นายไพฑูรย์ วันเชียง                               88789997            81214342                                00170444CCSH       0000000850000000                                                                             
D000008006057601827909032012093627นาย ไพฑูรย์ วันเชียง                              88789997            81214342                                00170444CCLQ841211300000005000000110171                                                                         
D000009006057601827909032012093755นายไพฑูรย์ วันเชียง                               88789997            81214342                                00170444CCLQ277912 00000003000000040042                                                                         
D000010006057601827909032012094818นายประเสริฐ แก้วจั่นเพ็ชร                         88378398            81214332                                00883551CCSH       0000001550700000                                                                             
D000011006057601827909032012094833นางสาวพนิดา  แสงรัมย์                             88259096            90218366                                03965684CCSH       0000001519900000                                                                             
D000012006057601827909032012094958นางสาวพนิดา  แสงรัมย์                             88259096            90218366                                03965684CCSH       0000001085800000                                                                             
D000013006057601827909032012095322น.ส.นงนาถ ปัญญา ทล8617                            88389980            76218341                                01480705CCSH       0000001700000000                                                                             
D000014006057601827909032012095338นางสาว ณัฐธิชา ทาระเวท ทศ1664                     8856-9597           4621-1366                               03830885CCSH       0000001861800000                                                                             
D000015006057601827909032012100533นายสมชาย ตราลาภ ทม9802                            88259794            28219310                                10360725CCLQ776878 00000005518000140080                                                                         
D000016006057601827909032012101401นางราตรี ศรีคันธะรักษ์                            8828-9594           0521-6310                               09310526CCSH       0000000100500000                                                                             
D000017006057601827909032012102302แดนชัย  ศรีพรม                                    88188198            81211357                                00911062CCSH       0000001561200000                                                                             
D000018006057601827909032012102504นายสำฤทธิ์  แก่นจันทร์                            88189097            06214345                                06921923CCSH       0000001716600000                                                                             
D000019006057601827909032012102856นายพงษ์ศักดิ์ บริบูรณ์ ทว 5152                    88279886            21215355                                04581830CCSH       0000001995000000                                                                             
D000020006057601827909032012103204นายสุรเชษฐ์  อ่อนคล้าย                            88574198            104123661                               11310028CCSH       0000001261500000                                                                             
D000021006057601827909032012111100นายวารี สืบสายลา มช1293                           88530099            104119506                               08510017CCSH       0000001372800000                                                                             
D000022006057601827909032012111949นางสาวลัดดา วงศ์เหลืองอ่อน ญก3407                 88859794            74113010                                09740391CCSH       0000000405700000                                                                             
D000023006057601827909032012112058นาง ระเบียบ  พิมทอง                               88583798            104123321                               04700196CCSH       0000001922300000                                                                             
D000024006057601827909032012112530นายทวีศักดิ์  แหวนหล่อ                            88659598            26319079                                00360013CCSH       0000001874000000                                                                             
D000025006057601827909032012112636นายสมาน คิมหันตา                                  88531199            107161476                               08560792CCSH       0000001000000000                                                                             
D000026006057601827909032012114541นายนิวัฒน์ คำสงค์ ทม 6757                         88509099            107078749                               01760698CCSH       0000001120600000                                                                             
D000027006057601827909032012114723ด.ต.สมทัย องอาจ ทศ 2163                           8836-9896           3121-2366                               07540487CCSH       0000000960000000                                                                             
D000028006057601827909032012115527นางประไพวรรณ  หวานเย็น                            8857-9983           7321-7351                               00210676CCSH       0000001700000000                                                                             
D000029006057601827909032012115918นายสันติ คำคง มค9371                              88059796            13319037                                05758278CCSH       0000000364100000                                                                             
D000030006057601827909032012122053คุณธีรศักดิ์ ตั้งวิรุฬห์รัตน์                     88279596            27214355                                08550650CCSH       0000000953300000                                                                             
D000031006057601827909032012122331นายชำนาญ สินสำอางค์ ทย1358                        88519199            107093077                               04950529CCSH       0000001368000000                                                                             
D000032006057601827909032012122343นายสุชาติ จันทร์เสวก                              88169893            59218314                                07112537CCSH       0000001159200000                                                                             
D000033006057601827909032012122941นายสังทอง  มูลเมืองแสน  ทว 5006                   88979587            60215350                                08510045CCSH       0000000315500000                                                                             
D000034006057601827909032012124109นาง ภัสรา เรศสุข ทศ 5626                          88568299            66215362                                11819722CCSH       0000001934200000                                                                             
D000035006057601827909032012124244นาง ภัสรา เรศสุข ทศ 5630                          88768299            06215363                                11819722CCSH       0000001934200000                                                                             
D000036006057601827909032012125353นางระเบียบ คัมภิรานนท์ ทร5462                     88669790            24215336                                04650095CCSH       0000001159200000                                                                             
D000037006057601827909032012125549อาคม  มังกรทอง                                    88069495            98313054                                00360791CCSH       0000000671000000                                                                             
D000038006057601827909032012130515วราภรณ์ แก้วทอง                                   88289580            23219349                                04920051CCSH       0000001786800000                                                                             
D000039006057601827909032012132541นายกิมชัย แซ่อือ                                  88179896            68214350                                01100754CCSH       0000001159100000                                                                             
D000040006057601827909032012133316นายวีระ งามจิตร                                   88517989            104123379                               00334177CCSH       0000001716700000                                                                             
D000041006057601827909032012133545นายวรรณลภ กิจทา                                   88769995            09216327                                02260861CCSH       0000001105700000                                                                             
D000042006057601827909032012133640นายณรงค์   ประทุมวัน                              8897-9686           0620-2233                               07240152CCSH       0000001360000000                                                                             
D000043006057601827909032012133930นายคำมี ปะตังเวสา                                 88879495            28215359                                07010751CCSH       0000001652200000                                                                             
D000044006057601827909032012134110ด.ต.สุวนัย เสาศิริ ทศ 2620                        88669986            06212362                                04780120CCSH       0000002159500000                                                                             
D000045006057601827909032012134216ด.ต.สุวนัย เสาศิริ วศ 4499                        8846-9890           9435-4369                               04780120CCSH       0000000995000000                                                                             
D000046006057601827909032012135456นายสรรเสริญ สีธงชัยรุ่งโรจน์ ทร 6888              88510499            107140582                               07930240CCSH       0000001111700000                                                                             
D000047006057601827909032012135509นางสาวนงนุช กาฬภักดี ทว78                         88288099            80210357                                04650095CCSH       0000001700000000                                                                             
D000048006057601827909032012135618นายสรรเสริญ สีธงชัยรุ่งโรจน์ ทม7700               88979090            07217310                                07930240CCSH       0000001159200000                                                                             
D000049006057601827909032012135743นายสรรเสริญ สีธงชัยรุ่งโรจน์ ทร 843               88541699            107124919                               07930240CCSH       0000001293600000                                                                             
D000050006057601827909032012135915นายสมเกียรติ สีธงชัยรุ่งโรจน์ ทย 3148             88469197            81213324                                07930240CCSH       0000001252000000                                                                             
D000051006057601827909032012140350นางสายพิณ พรมประดิษ                               88546989            104116364                               04661696CCSH       0000001839800000                                                                             
D000052006057601827909032012140445นายสุวรรณ อุทสาร                                  8886-9693           0621-9327                               02190470CCSH       0000000889100000                                                                             
D000053006057601827909032012140640นายพรชัย  โคกลือชา  ทษ1839                        88577198            104126870                               10631094CCSH       0000001839800000                                                                             
D000054006057601827909032012141523นายสมหวัง แซ่อึ้ง ทม6062                          88526499            107076561                               00530863CCSH       0000002369700000                                                                             
D000055006057601827909032012141924นายยอดรัก  จันทุม                                 8836-9592           0721-8331                               06972020CCSH       0000001600000000                                                                             
D000056006057601827909032012142444นายสุรัตน์ จิตตนาค                                88789190            04219344            ทล 9440             00820884CCSH       0000001700000000                                                                             
D000057006057601827909032012142710นายนิสสัย  กล่าวเกลี้ยง                           88507899            106155208                               11520515CCSH       0000003630000000                                                                             
D000058006057601827909032012142925นางสำรวย เดชเถร ทศ9474                            88535199            104116249                               07930240CCSH       0000001901600000                                                                             
D000059006057601827909032012143305นายเทพฤทธิ์ สองใหม่ มง 9935                       88879196            59319053                                11460299CCSH       0000000217000000                                                                             
D000060006057601827909032012144428นายทวีป คงชนะ                                     88969597            66213339                                07470928CCSH       0000000866000000                                                                             
D000061006057601827909032012150334นายอนุสรณ์  วารีน้อย                              88369797            19213336                                01780229CCSH       0000001649600000                                                                             
D000062006057601827909032012150545นายมนัด ตั้งเรือนรัตน์  ทล 284                    88659997            42210348                                08560792CCSH       0000001140000000                                                                             
D000063006057601827909032012150746นางสมควร  หงษ์ทอง  ทร3964                         88069790            49213336                                04585612CCSH       0000001616900000                                                                             
D000064006057601827909032012153956นายจักรพงษ์   สียางนอก                            88668899            54211329            ทย 1495             04930093CCSH       0000001105700000                                                                             
D000065006057601827909032012164056นางเพ็ญศิริ วัฒนไตร ทว3294                        8837-9298           4221-3359                               04880262CCSH       0000001750000000                                                                             
D000066006057601827909032012165303สุวรรณี แก้วแจ่มใส                                88859396            09217362                                05700906CCSH       0000001386200000                                                                             
D000067006057601827909032012170032นางสุนิจ สมบัติ                                   88969295            48212335                                07540596CCSH       0000000308700000                                                                             
D000068006057601827909032012172016นายประเสริฐ คุ้มชู                                88169498            22211367                                07990501CCSH       0000001771600000                                                                             
D000069006057601827909032012173745นายถนอม สารลี ทล 9090                             88578398            106129128                               04930681CCSH       0000001782900000                                                                             
D000070006057601827909032012175651นายสำราญ อินไชย ทศ8953                            88590498            104115266                               04880262CCSH       0000001831300000                                                                             
D000071006057601827909032012180313นายทองปาน  บุญแสนยศ  ทร 7940                      88468897            09217334                                01730895CCSH       0000001061400000                                                                             
D000072006057601827909032012182840นายพงษ์เกียรติ บุญเส็ง                            88959696            57217310                                07620489CCSH       0000001498000000                                                                             
T000073006057601827900000000000000000000000097023900000071                                                                                                                                                                                                      
