H0000010060576018279บริษัท ไทเอซ สิสซิ่ง จำกัด              28022012TALHO                                                                                                                                                                                       
D000002006057601827928022012084719นายเชาว์ พินยะเพียน                               8857-9986           5021-5350                               11240796CCSH       0000000785000000                                                                             
D000003006057601827928022012090553นายยุทธชนะ แดงอินทวัฒน์                           88543499            104115860                               02540078CCSH       0000001602440000                                                                             
D000004006057601827928022012092514นายสัญญา กังวานไกล                                88557997            30210364            ทศ43                00540034CCLQ384720 00000018842000140120                                                                         
D000005006057601827928022012092833นาย วัชรินทร์ จงดูกลาง                            88869295            66214312                                03830197CCSH       0000000863900000                                                                             
D000006006057601827928022012095159ไชยรส ทับทิมไสย                                   88669496            73212367                                01800625CCSH       0000001884200000                                                                             
D000007006057601827928022012103615ส.อ.ทิมากร จันทร์หง่อม ทว 4808                    8847-9696           8821-4350                               00220792CCSH       0000001918500000                                                                             
D000008006057601827928022012103629นางสาววิยะดา ยิ่งยงค์                             88669693            35213360                                05670403CCSH       0000001799200000                                                                             
D000009006057601827928022012111047นางสาว ภัทรานิษฐ์  รัตนวรธันยา ทว7692             88879892            26217359                                00521049CCSH       0000001595000000                                                                             
D000010006057601827928022012112259สมฤทัย  บุญถนอมจิต                                88588998            107124356                               08690542CCSH       0000000982400000                                                                             
D000011006057601827928022012112523นาย อนุสรณ์ วารีน้อย ทม5583                       8827-8399           3521-5318                               01780060CCLQ537298400000013910000040766                                                                         
D000012006057601827928022012112747นาย เฉลิม จันทร์สอน                               88967097            54316066                                05760932CCSH       0000001060600000                                                                             
D000013006057601827928022012113209นายสุรศักดิ์ อินทศร ทล 6058                       88488698            80216345                                04580699CCSH       0000001821500000                                                                             
D000014006057601827928022012113756คำพูน  สะหุนันต์                                  88568997            31319078                                07930498CCSH       0000001153400000                                                                             
D000015006057601827928022012115005กิตติพงษ์ ผดุงกิจ                                 88510989            104123384                               01370906CCSH       0000000030000000                                                                             
D000016006057601827928022012121523สมชาย ศิริรักษ์                                   88569997            25215329                                01720543CCSH       0000000100000000                                                                             
D000017006057601827928022012121840นาง นฤมล ฟ้าอรุณ ทว 2768                          88679798            87212356                                05700767CCSH       0000001432800000                                                                             
D000018006057601827928022012122006ร.ต.อ.ศุภกร ธัญญกรรม ทล9302                       8858-8899           2321-9340                               02190859CCSH       0000001432800000                                                                             
D000019006057601827928022012122045นายมนัส ใจกระสินธ์                                8828-8898           5821-0356                               11312191CCSH       0000001432800000                                                                             
D000020006057601827928022012122126ร.ต.อ.ศุภกร ธัญญกรรม ทล5353                       8898-9984           3321-5345                               02190859CCSH       0000001617900000                                                                             
D000021006057601827928022012122244ร.ต.อ.ศุภกร ธัญญกรรม ทล4169                       8808-9797           9121-4346                               02190859CCSH       0000001476200000                                                                             
D000022006057601827928022012122255นายอรัญ  ขาวเนตร ทร 1576                          8817-8499           6521-1337                               00650326CCSH       0000001938600000                                                                             
D000023006057601827928022012122301นายอุทิศ กรวยกลาง                                 8857-8597           2031-2075                               07340305CCSH       0000001979500000                                                                             
D000024006057601827928022012122848ด.ต.เสิม  หยุ่นแก้ว                               88505699            104121396                               01970208CCSH       0000001922300000                                                                             
D000025006057601827928022012123544นายไพบูลย์  พิมไธสง                               88959595            15310082                                10990536CCSH       0000001698000000                                                                             
D000026006057601827928022012124142พ.ต.ณัฐ กาญจนโรจน์                                88979590            38218359                                04770491CCSH       0000002082100000                                                                             
D000027006057601827928022012124345ว่าที่ร.ต.สนธยา มั่นหมาย ทย5816                   88519789            107109637                               09740391CCSH       0000000556000000                                                                             
D000028006057601827928022012125813นายพิมูล  บุตรอำคา                                88571398            107106869           ทย5175              04881144CCSH       0000000925800000                                                                             
D000029006057601827928022012130027นางวรรณภา เจริญอินทร์                             88269690            12215361                                07990501CCSH       0000003241900000                                                                             
D000030006057601827928022012131258นายไพวัลย์ พันธ์หนองหว้า                          88583898            106132308                               10520869CCSH       0000001250000000                                                                             
D000031006057601827928022012133758นายชาตรี เวษาสิทธิ์                               88059495            72212321                                00282352CCSH       0000000699200000                                                                             
D000032006057601827928022012134417นายวัฒนา เทพแสง                                   88516899            107065424           ทม 3676             01902940CCSH       0000001300000000                                                                             
D000033006057601827928022012140054นายศรายุทธ แก้วแกมเกษ                             8878-9591           5121-7348                               01720820CCSH       0000001833500000                                                                             
D000034006057601827928022012140901วันชัย เอี่ยมผ่องใส  ทศ 2429                      88769796            94212362                                02530516CCSH       0000001884200000                                                                             
D000035006057601827928022012141311นายจงเจริญ  ช่วยสงค์ ทว 8106                      88779882            61218350                                00650326CCSH       0000002000000000                                                                             
D000036006057601827928022012142606นาย วรายุทธ  กล้าพร้อม  ทร 4792                   88178297            27214339                                04670086CCSH       0000001298300000                                                                             
D000037006057601827928022012142640นางสาววิวรรณ  ละม้ายโสม                           88778699            73219358                                02170046CCSH       0000002108500000                                                                             
D000038006057601827928022012143216นายดำเนิน มนทอง                                   88579398            107161051                               06900758CCSH       0000001077600000                                                                             
D000039006057601827928022012143559นาย ธีระศักดิ์  สุประภากร                         88389880            67218340                                00910199CCSH       0000001700000000                                                                             
D000040006057601827928022012144246นาย ตะวัน  ประสพวงค์                              8866-9391           0831-8061                               07930498CCSH       0000000512400000                                                                             
D000041006057601827928022012144703นายสันต์ชัย ฤทธิ์เทพ                              88502799            104122463                               10720144CCSH       0000001857500000                                                                             
D000042006057601827928022012150445นายสมศักดิ์ ลีประโคน 0844369332                   88069190            61215367                                03993086CCSH       0000001933000000                                                                             
D000043006057601827928022012150913นางพรทิพย์ ใจตรง ทว6962                           88179593            29216356                                00650099CCSH       0000002346000000                                                                             
D000044006057601827928022012153321นายดำรงค์ เทพสมบูรณ์                              48507999            104125523                               02590600CCSH       0000000271000000                                                                             
D000045006057601827928022012153439น.ส.ชญาณัฐ ยอดรัก ทว 7715                         88579297            106148352                               01481588CCSH       0000001880000000                                                                             
D000046006057601827928022012154740มงคล ปราบภัย ทว4624                               8865-9597           4621-4352                               05750619CCSH       0000000819000000                                                                             
D000047006057601827928022012155226นายวิน  แซ่วี                                     88524699            104120696           089-4460096         00248943CCSH       0000001867300000                                                                             
D000048006057601827928022012161206นายวิทยา แซ่จึง                                   88859597            23217362                                09760107CCSH       0000001561500000                                                                             
D000049006057601827928022012161551สุพัตรา ภิรมย์ขวัญ ทว.8951 0894873182             88379790            19218355                                05943281CCSH       0000001884200000                                                                             
D000050006057601827928022012165739ด.ต.สุวนัย เสาศิริ ทศ 2620                        88669986            06212362                                04780158CCSH       0000002157200000                                                                             
D000051006057601827928022012171257นายโอวาท ศรีตระกูลพร                              88369598            86316072                                08450038CCSH       0000001757900000                                                                             
D000052006057601827928022012172706ธนกฤต อินนุช                                      8828-9491           6321-7340                               05713677CCSH       0000001861200000                                                                             
D000053006057601827928022012174131นายสังทอง มูลเมืองแสน                             88979587            60215350            ทว                  08510518CCSH       0000000809000000                                                                             
D000054006057601827928022012174244นายสังทอง มูลเมืองแสน                             88979587            60215350            ทว5006              08510518CCSH       0000001501500000                                                                             
D000055006057601827928022012174809นายกิตติศักดิ์ ร่ำรวย ทว8178                      88479691            81218357                                08691092CCSH       0000001918500000                                                                             
D000056006057601827928022012182155เพลินทิพย์ เหิมสารจอดทย210                        88469195            02210321                                04701737CCSH       0000000889300000                                                                             
D000057006057601827928022012184617นายระเริง  หยูเอียด                               88878499            65219358                                09701296CCSH       0000001884200000                                                                             
T000058006057601827900000000000000000000000083470040000056                                                                                                                                                                                                      
