H0000010060576018279บริษัท ไทเอซ สิสซิ่ง จำกัด              29022012TALHO                                                                                                                                                                                       
D000002006057601827929022012083600ประเสริฐศรี สุวรรณภูมิ                            88577498            005002558                               04607752CCSH       0000000324600000                                                                             
D000003006057601827929022012084937นายมนต์ชัย สุรเกียรติกำจร   ทษ2224                88591898            106203909                               02590096CCSH       0000002248400000                                                                             
D000004006057601827929022012091928นาย สมบูรณ์ ศรีอ่อนจันทร์                         88559194            58315058                                05760932CCSH       0000000995100000                                                                             
D000005006057601827929022012091955นาย โกศล เกิดศรี                                  88459795            53218365                                00820154CCSH       0000001798500000                                                                             
D000006006057601827929022012092156นาย ทวี นากนิยม ทว 4315                           8837-9197           5321-4351                               02590570CCSH       0000001671700000                                                                             
D000007006057601827929022012092505นาย สมศักดิ์  บุญเที่ยง                           88519499            106111285                               10860716CCSH       0000000300000000                                                                             
D000008006057601827929022012094716นายคำรณ  ภู่ลา                                    88579491            45315071                                03970257CCSH       0000000235500000                                                                             
D000009006057601827929022012100542นาย คณินทร์ นึ่งพุดซา มง5039                      88572298            107029741                               02250416CCSH       0000000579600000                                                                             
D000010006057601827929022012100549นายขวัญชัย  บุญนาค                                88503799            106203179                               01820815CCSH       0000001733300000                                                                             
D000011006057601827929022012104222นายวัฒนะ   นะจะคูณ                                88279498            59313071                                04070459CCSH       0000001846000000                                                                             
D000012006057601827929022012112010อนุรักษ์  แซ่คู                                   88588898            76213352                                01410687CCSH       0000001700000000                                                                             
D000013006057601827929022012112405นายพิษณุ  หนูโพธิ์                                88759895            92213341                                00700299CCSH       0000002314700000                                                                             
D000014006057601827929022012113308นายธเนศ  ตราชูกุล                                 88506989            104123341                               01630855CCSH       0000001922300000                                                                             
D000015006057601827929022012113326วานิช                                             88379991            36212320                                02610551CCSH       0000001572200000                                                                             
D000016006057601827929022012113602นาย บรรเจิด  หล่ำจรูญ                             88178997            23310060                                00970410CCSH       0000000800000000                                                                             
D000017006057601827929022012114651นายนัทวัฒน์ วงสุโท                                88779494            66216318                                10270592CCSH       0000001583600000                                                                             
D000018006057601827929022012120302กิตติกวินทร์ สุขกำเนิด                            88868799            30213325                                00820194CCSH       0000001481300000                                                                             
D000019006057601827929022012122445คุณ ณัฐธิชา ทาระเวท                               8846-9597           7621-1367                               03830446CCSH       0000001601800000                                                                             
D000020006057601827929022012122857คุณ ณัฐธิชา ทาระเวท                               88469597            76211367                                03830446CCLQ232483300000002600000670001                                                                         
D000021006057601827929022012123010นายนิพนธ์ สิทธิราช ทษ 455                         88511599            104121274                               09680098CCSH       0000001867300000                                                                             
D000022006057601827929022012123559นาย สวิด  วงษ์จำปา ทว 3027                        8877-9498           7021-3352                               00610829CCSH       0000001845000000                                                                             
D000023006057601827929022012124216นาย วิชัย ปุสารัมย์                               8895196             29217368                                07620396CCSH       0000001554200000                                                                             
D000024006057601827929022012125534นายธันยา  บุญเพิ่ม                                88069998            73211364                                11520515CCSH       0000001884200000                                                                             
D000025006057601827929022012130616มานพ  แข็งเขตการณ์                                88769997            35211362                                02500872CCSH       0000001884200000                                                                             
D000026006057601827929022012131009นายยวด ยินดี                                      88534299            106134477                               10720571CCSH       0000001234700000                                                                             
D000027006057601827929022012134723thitiwan                                          88569787            51218338                                00530428CCSH       0000000400000000                                                                             
D000028006057601827929022012134812นายมลตรี ธัญญเจริญ                                88593798            106204005                               10800405CCSH       0000001868500000                                                                             
D000029006057601827929022012140904สุรเชษฐ์ สินเวช                                   88532499            106137366                               02150209CCSH       0000000570000000                                                                             
D000030006057601827929022012141420นายสมหวัง เหล็งศิริ ทล.1204                       88979886            42211340                                02564581CCSH       0000000030000000                                                                             
D000031006057601827929022012141810นาย พรเทพ  สบาย  ทล 7160                          8816-7997           0121-7346                               04690052CCSH       0000001703900000                                                                             
D000032006057601827929022012142356นายชัยวัฒน์ อ่อนอก มค9955                         88879096            59319035                                04690578CCSH       0000000030000000                                                                             
D000033006057601827929022012143158มณีรัตน์ จันทมล  ทร 4085                          88669898            50214338                                10151588CCSH       0000000927400000                                                                             
D000034006057601827929022012144206นายปรีชา ธารีไทย ทว4206                           8897-9197           6221-4350                               10150884CCSH       0000001756700000                                                                             
D000035006057601827929022012145255นายวรุตม์ สุขบัติ ทว 6753                         88679993            37216355                                04580699CCSH       0000001377800000                                                                             
D000036006057601827929022012150129นาย เขษม  คุ้มประยูร  ทล 5260                     8858-9594           0221-5346                               04690052CCSH       0000001710000000                                                                             
D000037006057601827929022012152533นายมานิตย์ จูจวง                                  88667997            02211360                                00650260CCSH       0000001800000000                                                                             
D000038006057601827929022012152739นางชลิตดา เจริญพวง                                88888588            76214329                                09760107CCSH       0000000840000000                                                                             
D000039006057601827929022012154745นาย ธีรศักดิ์  ตั้งวิรุฬห์รัตน์                   88279596            27214355                                00310190CCSH       0000001918500000                                                                             
D000040006057601827929022012154806นาย อดิศักดิ์ บำรุงเมือง  ทล 7788                 88968497            87217348                                04581882CCSH       0000001503000000                                                                             
D000041006057601827929022012160020สุพล                                              88789397            69214325                                07960038CCSH       0000001649600000                                                                             
D000042006057601827929022012162756น.ส.ปาริชาติ สุกกลิ่น                             88518399            106198723           มช 1955             04670151CCSH       0000001834200000                                                                             
D000043006057601827929022012164610นางสาวเครือฟ้า ทาใจ ทว3903                        8877-9797           3921-3350                               10360725CCSH       0000001756700000                                                                             
D000044006057601827929022012170505นายวิชาญ  อุดมธาดาพงศ์                            88514099            107136915                               11521628CCSH       0000001550000000                                                                             
D000045006057601827929022012171300นายชัยวัฒย์ ชุ่มเย็น ป้ายแดง                      88501599            106203136                               10070236CCSH       0000002011700000                                                                             
D000046006057601827929022012173058นายสมนึก  ทัพน้อย ทศ2375                          88269496            53212367                                07990070CCSH       0000001884200000                                                                             
D000047006057601827929022012173715นางธนันทร หอมหวล ทว4993                           88579496            39214359                                07960037CCSH       0000001948000000                                                                             
D000048006057601827929022012181545นส.ขัตติยา วิเชียรเขียว ทร5531                    88769993            15215333                                07952158CCSH       0000000611100000                                                                             
D000049006057601827929022012185316สำเร็จ ทล5653                                     88689493            36215345                                07960038CCSH       0000001467100000                                                                             
D000050006057601827929022012185626สำเร็จ ทว8498                                     88179691            84218359                                07960038CCSH       0000002048700000                                                                             
D000051006057601827929022012185725สำเร็จ ทศ2872                                     88169395            28212367                                07960038CCSH       0000001467100000                                                                             
D000052006057601827929022012190223สำเร็จ ทษ2098                                     88579198            104123392                               07960038CCSH       0000001656600000                                                                             
D000053006057601827929022012194412นายประยูร  โพธิ์บริสุทธิ์  ทม 2910                88479587            09212311                                04670086CCSH       0000001681500000                                                                             
T000054006057601827900000000000000000000000073240500000052                                                                                                                                                                                                      
