H0000010060576018279บริษัท ไทเอซ สิสซิ่ง จำกัด              18022012TALHO                                                                                                                                                                                       
D000002006057601827918022012102130นาง อุลัยรักษ์  โพธิ์นอก  ทศ1434                  8896-9498           4421-1363           089-9168424         08690033CCSH       0000002022500000                                                                             
D000003006057601827918022012102305นรชัย แพงศร                                       88779192            09217357                                09761108CCSH       0000001884200000                                                                             
D000004006057601827918022012102421นรชัย แพงศร                                       88069996            86217327                                09761108CCSH       0000001271600000                                                                             
D000005006057601827918022012110323สุมาลี  สังข์ทอง                                  8827-9587           8521-4356                               07661135CCSH       0000001799200000                                                                             
D000006006057601827918022012115757นาย อมรวงษ์  เปียไพบูลย์                          88589698            104127141                               04830966CCSH       0000000983000000                                                                             
D000007006057601827918022012115922นาย อมรวงษ์  เปียไพบูลย์                          88519599            104122431                               04830966CCSH       0000001568200000                                                                             
D000008006057601827918022012120021นาย อมรวงษ์  เปียไพบูลย์                          88589781            88217342                                04830966CCSH       0000001587900000                                                                             
D000009006057601827918022012120835นาย จำรัส ผายสุวรรณ                               88759994            06218365            ทศ8650              04881144CCSH       0000001663600000                                                                             
D000010006057601827918022012121001นายจำรัส ผายสุวรรณ                                48859994            06218365            ทศ8650              04881144CCSH       0000000221000000                                                                             
D000011006057601827918022012125106นางอำพร พันธุ์ไพโรจน์                             88516399            104122440           ทษ612               04881144CCSH       0000000030000000                                                                             
D000012006057601827918022012131910นางจรรยา อินทศร ทว7014                            88069892            40217351                                08691092CCSH       0000002149000000                                                                             
D000013006057601827918022012132103นายมณฑล วรรณขาม    ทร 5988                        88959297            89215338                                10320156CCSH       0000000300000000                                                                             
D000014006057601827918022012132819นางเครือวรรณ์  สมนาค                              88978198            02210362                                08511072CCSH       0000001745300000                                                                             
D000015006057601827918022012132922นาง มุกดา ประสงค์สุข ทศ311                        88978988            13210361                                10070203CCSH       0000001918500000                                                                             
D000016006057601827918022012141610นางวินาพร ทองคลองไทร                              8807-9894           6321-6353                               10010424CCSH       0000001793800000                                                                             
D000017006057601827918022012143801สิริอร ศรีกิ้ม                                    88359394            70219334                                05755751CCSH       0000000762000000                                                                             
D000018006057601827918022012143926นางสาวดวงกมล ห้องแซง ทว8526                       8897-9881           6521-8352                               10360725CCSH       0000001700000000                                                                             
D000019006057601827918022012150534นายณรงค์  ภู่กรุต ทศ6877                          88559798            78216367                                07961036CCSH       0000000782900000                                                                             
D000020006057601827918022012150658นายณรงค์  ภู่กรุต ทศ6858                          88459798            88216365                                07961036CCSH       0000000782900000                                                                             
D000021006057601827918022012150810นายณรงค์  ภู่กรุต ทศ6818                          88259998            88216361                                07961036CCSH       0000000782900000                                                                             
D000022006057601827918022012154209นางสัญญา จันเวียง ทว4936                          88479396            69214353                                11370605CCSH       0000001043000000                                                                             
D000023006057601827918022012154949นายวีระพงษ์ สาลีรัมย์ ทย337                       88279890            73210323                                11522040CCSH       0000001740000000                                                                             
D000024006057601827918022012160632นายดำรงค์  ด่านกำจัด  ทม 4812                     88979490            28214311                                09760540CCSH       0000000808500000                                                                             
D000025006057601827918022012161259นาย สัญชัย ยุทธารักษ์ ทล5204                      8888-9894           4221-5340                               04950529CCSH       0000001988000000                                                                             
D000026006057601827918022012163617คุณกันยา เทพารส                                   88059096            14310083                                10061102CCSH       0000001844600000                                                                             
D000027006057601827918022012173914พ.ต.ท.เสน่ห์ เสนน้อย โทร.0819321287               88879895            54219310                                10070071CCSH       0000001517700000                                                                             
D000028006057601827918022012182443นายวิโรจน์ แก่นจันทร์                             88869493            19316062                                10061102CCSH       0000001064500000                                                                             
D000029006057601827918022012184947โชคชัย สนธิ์ชัยสกุล                               88879688            35213350            ทว3503              00860473CCSH       0000001756700000                                                                             
D000030006057601827918022012185224สุรัศ ศรีหาเลิศ                                   88557697            36211354                                11521521CCSH       0000001799200000                                                                             
D000031006057601827918022012192816นางสาวนิตยา ศิริพลัด                              88159595            09318068                                11140807CCSH       0000001471700000                                                                             
T000032006057601827900000000000000000000000040782400000030                                                                                                                                                                                                      
