H0000010060576018279บริษัท ไทเอซ สิสซิ่ง จำกัด              19112011TALHO                                                                                                                                                                                       
D000002006057601827919112011115411นายวิรุช สุทธิจันทร์                              88489593            77211317                                04780120CCSH       0000001447100000                                                                             
D000003006057601827919112011120252นางเครือวรรณ์ สมนาค                               88978198            02210362            ทศ.220              08510518CCSH       0000000500000000                                                                             
D000004006057601827919112011120800จักรพันธ์ เลี่ยมรัตน์                             88679794            73216350                                01520230CCSH       0000001680000000                                                                             
D000005006057601827919112011122129น.ส.วีณา วงศ์ศิริ ทว8320                          8847-9591           0321-8352                               10720930CCSH       0000001884200000                                                                             
D000006006057601827919112011123245นายสำราญ  ขาวผ่อง  ทว 1931                        8898-8697           1921-1353                               10720208CCSH       0000001800000000                                                                             
D000007006057601827919112011131200โชคชัย สนธิ์ชัยสกุล                               88879688            35213350                                10320746CCSH       0000001756700000                                                                             
D000008006057601827919112011133742นางสาว มณีรัตน์  ชูมณี                            88078999            08219351                                07661135CCSH       0000001670000000                                                                             
D000009006057601827919112011134402นายปรีชา เชื้อหมอ                                 8857-8099           3721-9355           ทว 9753             08698691CCSH       0000001515300000                                                                             
D000010006057601827919112011135550คุณสำราญ ไทรกลมเกลียว ทร 3051                     88369693            10213335                                08550650CCSH       0000000989800000                                                                             
D000011006057601827919112011140908นายวรา จันทร์หลวง                                 88878899            07215330                                08690335CCSH       0000001458000000                                                                             
D000012006057601827919112011143036นายบุญโฮม อนุชาด                                  88525699            107102099                               11330131CCSH       0000000869400000                                                                             
D000013006057601827919112011144927นายบุญเลิศ เทศขำ                                  88888497            49252416                                07622098CCSH       0000000683000000                                                                             
D000014006057601827919112011163105อรณิชา  เทพเทียน  ทศ9867                          88529899            106197834                               04950191CCSH       0000001584400000                                                                             
D000015006057601827919112011163256อรณิชา  เทพเทียน  ทศ6284                          88768797            42216368                                04950191CCSH       0000001856500000                                                                             
D000016006057601827919112011194014นางสาว นิตยา ศิริพลัด มจ 8980                     8815-9595           0931-8068                               11140083CCSH       0000001471700000                                                                             
T000017006057601827900000000000000000000000021166100000015                                                                                                                                                                                                      
