H0000010060576018279บริษัท ไทเอซ สิสซิ่ง จำกัด              29122011TALHO                                                                                                                                                                                       
D000002006057601827929122011084021นาย กฤษฎา แก้วพารา                                88759986            52218360                                01720563CCSH       0000001798500000                                                                             
D000003006057601827929122011084411นายสิทธิกิตติ์ วรมาลี                             88514699            106105508                               00920219CCSH       0000001204200000                                                                             
D000004006057601827929122011084755พัฐสรร  อินนุช                                    8828-9491           6321-7340                               00120138CCSH       0000001892500000                                                                             
D000005006057601827929122011092859นายนิพนธ์ สิทธิราช                                88511599            104121274           ทษ455               09680098CCSH       0000001867300000                                                                             
D000006006057601827929122011100652นายประเสริฐ  แก้วจั่นเพ็ชร                        88378398            81214332                                01531951CCSH       0000001550700000                                                                             
D000007006057601827929122011101052นางประไพวรรณ หวานเย็น                             88579591            53218352                                00210830CCSH       0000001700000000                                                                             
D000008006057601827929122011101202นางประไพวรรณ หวานเย็น                             88259798            17216364                                00210830CCSH       0000001839700000                                                                             
D000009006057601827929122011102532นางเฉลา อำนวยพานิช ทศ743                          88978497            37210364                                01440144CCSH       0000001549600000                                                                             
D000010006057601827929122011102755นายมนต์ชัย สุรเกียรติกำจร                         88591898            106203909                               00471296CCSH       0000002248400000                                                                             
D000011006057601827929122011103059นายสุรินทร์ เขียนทอง ทร8359                       8825-9295           9321-8335                               00241807CCSH       0000001556000000                                                                             
D000012006057601827929122011103628ด.ต. สายชล  กฤษวงษ์ ทศ 53                         8867-8598           3021-0365                               01931056CCSH       0000001884200000                                                                             
D000013006057601827929122011103753ยุทธชนะ แดงอินทวัฒน์                              88543499            104115860                               02540469CCSH       0000001602440000                                                                             
D000014006057601827929122011103953นายนปดล สุขกำเนิด                                 88868799            30213325            ทย. 3053            00820884CCSH       0000001481300000                                                                             
D000015006057601827929122011105528นายบวร วันเพ็ญ  ทว826                             88288698            68210352                                01480206CCSH       0000001884200000                                                                             
D000016006057601827929122011110132นาย ยอดรัก จันทุม                                 8836-9592           0121-8331                               07580556CCSH       0000001600000000                                                                             
D000017006057601827929122011111049นายเพชร เกาะแก้ว                                  88359797            45210349                                11734224CCSH       0000001881300000                                                                             
D000018006057601827929122011111416นางสาววิชุดา พลายแก้ว                             8897-7297           8421-3344                               01270563CCSH       0000000710500000                                                                             
D000019006057601827929122011120147นางทีตา พันลำจันทร์                               88533599            107137960           ทร 5200             03960529CCSH       0000001063200000                                                                             
D000020006057601827929122011121057สุนทร ทศ.4811                                     8836-9690           1821-4361                               07581173CCSH       0000001952300000                                                                             
D000021006057601827929122011121059ศิริดา บุราณคุณ                                   88559796            77217360                                04930773CCSH       0000002065900000                                                                             
D000022006057601827929122011123016นางสาว เบญจมาศ มูลลาด ทษ 616                      88519299            104122436                               04581882CCSH       0000002080000000                                                                             
D000023006057601827929122011123328ทองดี สุดหล้า                                     88968397            92314055                                01411495CCSH       0000000500000000                                                                             
D000024006057601827929122011123426นายธนรัตน พิทักเจริญ                              88504799            106499546                               02610077CCSH       0000001918100000                                                                             
D000025006057601827929122011125348นางศุทธนุช ภัทรศรีสุวัฒน์                         8846-9095           8321-3339                               00920219CCSH       0000000950000000                                                                             
D000026006057601827929122011131711นายอุเทน  เพชร์ทอง                                88268298            80216368                                11521628CCSH       0000001799200000                                                                             
D000027006057601827929122011131741นาย สุรศักดิ์ อินทศร ทล 2720                      88998498            07212342                                04581882CCSH       0000001969600000                                                                             
D000028006057601827929122011132152นาง จรรยา อินทศร  ทว 7014                         8806-9892           4021-7351                               04581882CCSH       0000002168000000                                                                             
D000029006057601827929122011132303นาย สุรศักดิ์ อินทศร ทว 9592                      8867-8399           2521-9359                               04581882CCSH       0000002233000000                                                                             
D000030006057601827929122011132413นาย สุรศักดิ์ อินทศร ทศ 5534                      88768399            45215363                                04581882CCSH       0000002789600000                                                                             
D000031006057601827929122011132459นัทวัฒน์ วงสุโท ทม6686                            88779494            66216318                                10270539CCSH       0000001583600000                                                                             
D000032006057601827929122011132510นาย สุรศักดิ์ อินทศร ทศ 8843                      8815-9994           3821-8364                               04581882CCSH       0000002521200000                                                                             
D000033006057601827929122011132609นาย สุรศักดิ์ อินทศร  ทศ 4057                     88269292            70214365                                04581882CCSH       0000001777300000                                                                             
D000034006057601827929122011132737นาย สุรศักดิ์ อินทศร  ทว 5449                     8887-9386           9421-5354                               04581882CCSH       0000002526400000                                                                             
D000035006057601827929122011133918นางชลิตตา เจริญพวง                                88468397            76214329                                09760107CCSH       0000000900000000                                                                             
D000036006057601827929122011134336นาย นวพล ก้านอินทร์                               88501099            106139735                               04061732CCSH       0000001300000000                                                                             
D000037006057601827929122011134836นายโกศล เกิดศรี                                   88459795            53218365                                05760932CCSH       0000001798500000                                                                             
D000038006057601827929122011134925นางนันท์นภัส พิพิธพัทธอาภา                        88512599            104121266                               01980897CCSH       0000002069400000                                                                             
D000039006057601827929122011135125นายอ็อด บุดดีคำ มฉ7573                            88759194            35317077                                10150069CCSH       0000000999400000                                                                             
D000040006057601827929122011135231นายอ็อด บุดดีคำ มฉ7573                            88759194            35317077                                10150069CCSH       0000000999400000                                                                             
D000041006057601827929122011135646นายอัจฉริยะ อุเทนะพันธุ์ ทว6283                   88579894            32216358                                04780120CCSH       0000001884200000                                                                             
D000042006057601827929122011135835นายสาคร นามใจยา                                   88679397            63211342                                01100550CCSH       0000001580000000                                                                             
D000043006057601827929122011140050K.ธีรสิริ                                         88359995            33218367                                02610535CCSH       0000001876100000                                                                             
D000044006057601827929122011140106พลฯพันธ์ศักดิ์ ผลอินทร์                           88959497            68219322            ทย9826              03970649CCSH       0000000661400000                                                                             
D000045006057601827929122011144511คุณพรเทพ สบาย ทล7160                              88167997            01217346                                04690578CCSH       0000001701900000                                                                             
D000046006057601827929122011145051ชนินทร์  อ่ อนใจเอื้อ                             88889682            37312071                                00663162CCSH       0000001767700000                                                                             
D000047006057601827929122011150440นายไชยรส ทับทิมไสย                                88669496            73212367                                04790146CCSH       0000001884200000                                                                             
D000048006057601827929122011151459จ.อ.วรายุ  ทองฉิม  มฉ6786                         88769497            67316078                                08510045CCSH       0000001506000000                                                                             
D000049006057601827929122011151706นายสมพร หนูขวัญ                                   88289391            03217345                                02260861CCSH       0000001899500000                                                                             
D000050006057601827929122011160152นายนพรัตน์ เที่ยงสมบุญ                            88543889            107104167                               10320864CCSH       0000002400000000                                                                             
D000051006057601827929122011160916สุรินทร์ บุญมาเลิศ  ทล 5483                       88789293            34215348                                08000757CCSH       0000000030000000                                                                             
D000052006057601827929122011164152นายมนัส ใจกระสินธ์                                88288898            58210356                                09760107CCSH       0000001432800000                                                                             
D000053006057601827929122011174449คุณธีรศักดิ์ ตั้งวิรุฬห์รัตน์                     88279596            27214355                                08550650CCSH       0000001918500000                                                                             
D000054006057601827929122011175020นายชาญศักดิ์ สาระ                                 88069994            30315050            มง5003              05750020CCSH       0000000700000000                                                                             
D000055006057601827929122011185756นางสาวสุปราณี วงษ์เสนา                            88279491            53218354            ทว8345              08510518COTH       0000001884200000                                                                             
T000056006057601827900000000000000000000000089341440000054                                                                                                                                                                                                      
