H0000010060576018279บริษัท ไทเอซ สิสซิ่ง จำกัด              31122011TALHO                                                                                                                                                                                       
D000002006057601827931122011104834นายธานี  แช่มวัฒนา                                88589694            28311075                                04931325CCSH       0000001617900000                                                                             
D000003006057601827931122011113429น.ส. ณิชนันทน์ ใจอุ่น                             88591798            104125690           ทษ 1546             10250012CCSH       0000002126300000                                                                             
D000004006057601827931122011115715นายสมมาด แสงสุขขา ทว7504                          885799992           45217350                                04950176CCSH       0000000235500000                                                                             
D000005006057601827931122011121536วรกมล  บุญมา  ทศ 7231                             88259797            12217363                                08550664CCSH       0000002352600000                                                                             
D000006006057601827931122011121806วรกมล  บุญมา  ทษ 1103                             88507499            106199558                               08550664CCSH       0000002422300000                                                                             
D000007006057601827931122011122624นายปางทอง แซ่ตั้ง มฉ3803                          88869986            38313070                                10360570CCSH       0000001010600000                                                                             
D000008006057601827931122011125756นางสาวนงลักษณ์ ใหม่คำ ชฎ8028                      88502099            016000069                               11040535CCSH       0000000499400000                                                                             
D000009006057601827931122011134712นายวิระ งามจิตร                                   88517989            104123379                               10060150CCSH       0000001716700000                                                                             
D000010006057601827931122011143156นายกมล แต้มสว่าง                                  8828-9590           8421-8348                               05700127CCSH       0000001800000000                                                                             
D000011006057601827931122011153501วิชัย ปุสารัมย์                                   88959196            29217368                                07621764CCSH       0000001519900000                                                                             
D000012006057601827931122011153829นางรุ่งอรุณ  ภมรจันทร์                            88514889            106202867                               09620418CCSH       0000001450000000                                                                             
D000013006057601827931122011154106ด.ต.วิรัตน์ ตะคุณนะ                               88388498            84211352                                11520403CCSH       0000001932600000                                                                             
D000014006057601827931122011155546นายวิทยา แซ่จึง                                   8885-9597           2321-7362                               10661140CCSH       0000001600000000                                                                             
D000015006057601827931122011164521นายอำนาจ  รวยภิรมย์  มฉ5275                       8867-9092           5231-5077                               07620776CCSH       0000001918500000                                                                             
D000016006057601827931122011165614นิวัติ ปะเกยายอ                                   88598698            104123568                               05700127CCSH       0000002218900000                                                                             
D000017006057601827931122011173044นายสมศักดิ์ บุญเที่ยง                             88519499            106111285                               05700127CCSH       0000001715600000                                                                             
D000018006057601827931122011185736นายเสน่ห์  ยิกุสังข์                              88089796            38214343                                07950592CCSH       0000001665500000                                                                             
D000019006057601827931122011185844นายเสน่ห์  ยิกุสังข์                              88089796            38214343                                07950592CCSH       0000000034240000                                                                             
T000020006057601827900000000000000000000000027836540000018                                                                                                                                                                                                      
