H0000010060576018279บริษัท ไทเอซ สิสซิ่ง จำกัด              16072011TALHO                                                                                                                                                                                       
D000002006057601827916072011111727ม.ล. ปิยะ จักรพันธุ์ ทล133                        8889-9992           3121-0343                               10970213CCSH       0000001680500000                                                                             
D000003006057601827916072011112001ม.ล. ปิยะ จักรพันธุ์ ทล1081                       8839-9391           1021-1348                               10970213CCSH       0000001665500000                                                                             
D000004006057601827916072011125114นายวินัย  จันลา  ทล 6120                          88989892            01216342                                05701141CCSH       0000001700000000                                                                             
D000005006057601827916072011130312นายอุดม เชาวรินทร์  6ช-6639                       8866-8797           9606-6083                               07540593CCSH       0000000670000000                                                                             
D000006006057601827916072011132451นายบุญฐิน ถนอมเมฆ                                 88278099            11316072            มฉ6121              11370491CCSH       0000001799200000                                                                             
D000007006057601827916072011141442นางนงคราญ  คำมอญ  ทว 7259                         88479993            92217355                                05701141CCSH       0000002528000000                                                                             
D000008006057601827916072011153028นางชลิตดา เจริญพวง                                8817-9587           1621-4355           ทว 4651             09768355CCSH       0000000400000000                                                                             
D000009006057601827916072011155940นายลือชา ศรีพาณิชพันธุ์ ทม7383                    8846-9494           3321-7318                               10631143CCSH       0000001394000000                                                                             
D000010006057601827916072011161030นายเสาร์คำ แก้ววิมล                               88079994            66314078                                04880760CCSH       0000001884200000                                                                             
D000011006057601827916072011171343คุณ ฉวีวรรณ  ลาภบริสุทธิ์                         8839-9791           5821-0340                               07620776CCSH       0000001665500000                                                                             
D000012006057601827916072011172527นาย ฐาปนัท บูชา  ทล 6252                          8898-9783           2221-6345                               05690088CCSH       0000001665000000                                                                             
D000013006057601827916072011173034นายสุทธิรักษ์ พวงพิลา มฉ4260                      8847-9887           0231-4076                               11370605CCSH       0000002240200000                                                                             
T000014006057601827900000000000000000000000019292100000012                                                                                                                                                                                                      
