H0000010060576018279บริษัท ไทเอซ สิสซิ่ง จำกัด              29112011TALHO                                                                                                                                                                                       
D000002006057601827929112011083233นายสนิท ดอดกระโทก                                 88369195            22218334                                02540020CCSH       0000000991300000                                                                             
D000003006057601827929112011083508ธนกฤต  อินนุช                                     88289491            63217340                                00500664CCSH       0000001893300000                                                                             
D000004006057601827929112011083758สุกัญญา  จันทร์แจ้ง ทย 3085                       88359986            50213328                                03870798CCSH       0000000595200000                                                                             
D000005006057601827929112011085628นางสาว วรกมล บุญมา ทศ7231                         8825-9797           1221-7363                               02150209CCSH       0000002352600000                                                                             
D000006006057601827929112011085752นางสาววรกมล บุญมา ทษ1103                          88507499            106199558                               02150209CCSH       0000002422300000                                                                             
D000007006057601827929112011090505นายประภูศักดิ์  บุญอำนวย                          8878-9897           6131-1073                               03400719CCSH       0000003459000000                                                                             
D000008006057601827929112011091455นางจารุวรรณ เลิศไกร                               8846-9594           0921-4326                               09550507CCSH       0000001839300000                                                                             
D000009006057601827929112011101958นางกมลวัลย์ เสาะขุนทด                             88279795            67215354            ทว5746              03970649CCSH       0000001886200000                                                                             
D000010006057601827929112011105249พ.อ.อ.สมนาม อ่วมประสิทธิ์ ทศ3177                  88669894            71213367                                07930240CCSH       0000001987000000                                                                             
D000011006057601827929112011110433นายพิทักษ์ วรรณไทย                                88579090            13310060                                00130755CCSH       0000000870800000                                                                             
D000012006057601827929112011113628นายสมชัย ไทยสง่า ทร 6345                          88468599            53216334                                01890658CCSH       0000001414800000                                                                             
D000013006057601827929112011121056บุญเหลือ พงษ์ธนู                                  88388097            50315072                                00800173CCSH       0000001700000000                                                                             
D000014006057601827929112011121324คุณประเสริฐ แพงจันทร์ศรี                          88269598            93211361                                04040169CCSH       0000002659000000                                                                             
D000015006057601827929112011121603นาย สุวรรณ์ ศรีวิวัฒน์ ทษ 1104                    88509899            106199334                               00720609CCSH       0000001929500000                                                                             
D000016006057601827929112011121957ภาวิณี  แซ่กอ 0813847411                          8818-9480           9221-9344                               00651473CCSH       0000001518100000                                                                             
D000017006057601827929112011122034นายสมเหมาะ จันทร์ทิพย์                            88469294            54218311                                05700127CCSH       0000000713700000                                                                             
D000018006057601827929112011123057นายจักรกริช รอดทอง                                88489987            37214344                                01897527CCSH       0000000423800000                                                                             
D000019006057601827929112011124007นางณัฏฐินันท์ ทองน้อย  ทศ9896                     88525899            104119553                               05670558CCSH       0000001751000000                                                                             
D000020006057601827929112011125217นายยุทธชนะ แดงอินทวัฒน์                           88543499            104115860                               02540020CCSH       0000001602440000                                                                             
D000021006057601827929112011130413นายชญาณัตถพล เขมรพันธ์                            88879793            29314071                                00821044CCSH       0000003443000000                                                                             
D000022006057601827929112011131030นางสุภาพร เดชวรรณ ทว7742                          88079692            27217354                                04884881CCSH       0000002157400000                                                                             
D000023006057601827929112011131753นายชวลิต  ฮั่นปุดโจ๊ว ทว 3709                     8867-9697           9721-3350                               08510045CCSH       0000001884200000                                                                             
D000024006057601827929112011131921นายวัฒนา เทพแสง ทม3676                            88516899            107065424                               10070071CCSH       0000001300000000                                                                             
D000025006057601827929112011134211นายประสิทธิ์ บัวเพชร                              88788399            15219349                                02610077CCSH       0000001884200000                                                                             
D000026006057601827929112011134519นาย อัจฉริยะ อุเทนะพันธุ์                         8857-9894           3221-6358                               01230490CCSH       0000001884200000                                                                             
D000027006057601827929112011135745นางสาว ณัฐธิชา  ทาระเวท ทศ1677                    88469597            76211367                                02590608CCSH       0000001950000000                                                                             
D000028006057601827929112011135912นายชิ้น  ทองไพรวรรณ ทว 7605                       88579692            56217350                                00820726CCSH       0000002021200000                                                                             
D000029006057601827929112011140118นายสวิด วงษ์จำปา                                  8877-9498           7021-3352           ทว 3027             00611046CCSH       0000001847500000                                                                             
D000030006057601827929112011142521นางจรรยา อินทศรี  ทล8704                          8846-9793           4721-8340                               04585612CCSH       0000002137000000                                                                             
D000031006057601827929112011145004นายผจญ เฉลิมวัฒน์  ทว 7518                        8847-9883           8521-7351                               04585612CCSH       0000001990000000                                                                             
D000032006057601827929112011145943คุณประกอบ                                         8886-9895           8631-3050                               09550205CCSH       0000000563400000                                                                             
D000033006057601827929112011150229ด.ต.เสิม หยุ่นแก้ว                                8806-9391           2921-1366                               01970387CCSH       0000001739400000                                                                             
D000034006057601827929112011150320ด.ต.เสิม หยุ่นแก้ว ทษ1009                         88505699            104121396           0898165953          01970387CCSH       0000000010000000                                                                             
D000035006057601827929112011150458นายธนรัตน  พิทักเจริญ                             88504799            106199546           089-68666146        04600142CCSH       0000001918100000                                                                             
D000036006057601827929112011151322นายพิกิจ ภูมิภาค ทศ 2834                          8826-9895           4821-2363                               02530654CCSH       0000002082100000                                                                             
D000037006057601827929112011152254นายโกศล เกิดศรี                                   88459795            53218365            ทศ 8355             00820884CCSH       0000001798500000                                                                             
D000038006057601827929112011152401นายณัฐวุฒิ คำมุงคุณ ทศ5108                        8806-8999           8121-5360                               08691092CCSH       0000002120800000                                                                             
D000039006057601827929112011152423นายภักดี ถาวรวัฒนะ                                88669697            45310062                                09740485CCSH       0000001578000000                                                                             
D000040006057601827929112011153613น.ส.ปาริชาติ สุกกลิ่น                             88518399            106198723                               09740387CCSH       0000001834200000                                                                             
D000041006057601827929112011162050นายสำเร็จ บุตรปราบ ทล5653                         88689493            36215345                                07960037CCSH       0000001467100000                                                                             
D000042006057601827929112011162203นายสำเร็จ บุตรปราบ ทว8498                         88179691            84218359                                07960037CCSH       0000002048700000                                                                             
D000043006057601827929112011162255นายสำเร็จ บุตรปราบ ทศ2872                         88169395            28212367                                07960037CCSH       0000001467100000                                                                             
D000044006057601827929112011162349นายสำเร็จ บุตรปราบ ทศ7282                         88659897            22217368                                07960037CCSH       0000001560000000                                                                             
D000045006057601827929112011162444นายสำเร็จ บุตรปราบ ทศ9389                         88541099            104115288                               07960037CCSH       0000001656600000                                                                             
D000046006057601827929112011172454นาย มัด  มลมิตร  มฉ4425                           8876-9987           5431-4072                               10250225CCSH       0000001749600000                                                                             
D000047006057601827929112011181847นาย ธานี ชาญตะบะ ทล3447                           8829-8797           7421-3344                               04950529CCSH       0000001665500000                                                                             
D000048006057601827929112011190526นาย โชคชัย สนธิ์ชัยสกุล  ทล6671                   88189392            16216347                                10320156CCSH       0000001700000000                                                                             
T000049006057601827900000000000000000000000081467140000047                                                                                                                                                                                                      
