H0000010060576018279บริษัท ไทเอซ สิสซิ่ง จำกัด              24092011TALHO                                                                                                                                                                                       
D000002006057601827924092011082846นายพรชัย สุจริตพัตถชัย                            88519989            107029121                               11240437CCSH       0000000030000000                                                                             
D000003006057601827924092011103906นางสาว  อรวรรณ  ศรีสุวรรณเกศ  ทล 8232             8878-9490           2221-8343                               09760540CCSH       0000001700000000                                                                             
D000004006057601827924092011111644นาย อนุสรณ์  วารีน้อย                             8836-9797           1921-3336           ทร 3961             07990132CCSH       0000000315500000                                                                             
D000005006057601827924092011113132นางสาว วัสมล โชติสิงห์                            8826-7497           3621-7352                               08000757CCSH       0000001799200000                                                                             
D000006006057601827924092011113856นายสมเกียรติ สีธงชัยรุ่งโรจน์                     88169886            15218316                                07930727CCSH       0000001495600000                                                                             
D000007006057601827924092011114036นาย สมเกียรติ สีธงชัยรุ่งโรจน์ ทร3321             88369994            13213332                                07930727CCSH       0000001334000000                                                                             
D000008006057601827924092011120746เรืองจรัส อิสระวิภรณ์สกุล                         88288689            0821-1317                               10130131CCSH       0000001070000000                                                                             
D000009006057601827924092011122413นางสาวพวงเพ็ญ  ศิริพละ ทว4158                     8827-9297           8121-4355                               07620776CCSH       0000002116700000                                                                             
D000010006057601827924092011122516นางสาวพวงเพ็ญ  ศิริพละ ทว4189                     8817-9297           9121-4358                               07620776CCSH       0000002116700000                                                                             
D000011006057601827924092011123319นางเข็มทอง สงเคราะห์                              88769897            05211362                                04880760CCSH       0000001515300000                                                                             
D000012006057601827924092011132124นายคมเดช จันทร์ไสว ทศ 6230                        88068897            02216363                                07650577CCSH       0000001626600000                                                                             
D000013006057601827924092011132519อรัญ ขาวเนตร                                      88398798            64212348                                09761108CCSH       0000001755300000                                                                             
D000014006057601827924092011145446นายอุเทน เพชร์ทอง                                 88268298            80216368                                11521521CCSH       0000001839700000                                                                             
D000015006057601827924092011150944นางสาวน้ำฝน จันทร์หอม                             88889893            56215345                                10720567CCSH       0000001212800000                                                                             
D000016006057601827924092011151920นายสมภพ  วชิรประชานุกูล                           88189696            88217331                                11520515CCSH       0000001400000000                                                                             
D000017006057601827924092011152132นายอนุสรณ์ วารีน้อย                               88178399            34213310            ทม.3403             07990541CCSH       0000000695500000                                                                             
D000018006057601827924092011164223นาย พงษ์ศักดิ์  บริบูรณ์  ทศ 7652                 8845-9896           2621-7365           089-1110798         08690033CCSH       0000002376400000                                                                             
D000019006057601827924092011164407นางสาว สุทธิลักษณ์  สาวะโห  ทว 5574               8897-9895           4521-5357           089-1110798         08690033CCSH       0000002080000000                                                                             
D000020006057601827924092011172818นายอั๋น แป้งใส ทย 5825                            8877-9688           5821-5322                               10630571CCSH       0000001447100000                                                                             
D000021006057601827924092011172953นาย บัญชา พิษวงษ์                                 8847-9697           1221-4350                               10090237CCSH       0000001750000000                                                                             
D000022006057601827924092011173819รตอ. ศุภกร ธัญญกรรม ทล5353                        88989984            33215345                                10154881CCSH       0000001617900000                                                                             
D000023006057601827924092011173932รตอ.ศุภกร ธัญญกรรม ทล4169                         88089797            91214346                                10154881CCSH       0000001476200000                                                                             
D000024006057601827924092011175206น.ส.สอาด บัวขนก                                   88969798            00211365                                04888904CCSH       0000001515300000                                                                             
D000025006057601827924092011175806คุณสมร ราวินิช ทล 3453                            88279993            34213345                                08550650CCSH       0000000960000000                                                                             
D000026006057601827924092011180059คุณสมร ราวินิช ทล 705                             88488899            57210340                                08550650CCSH       0000000780000000                                                                             
D000027006057601827924092011180357รตอ.ศุภกร ธัญญกรรม ทล9302                         88588899            23219340                                10154881CCSH       0000001432800000                                                                             
D000028006057601827924092011185953คุณ วิชุดา  พลายแก้ว                              8878-9496           1821-7312                               07540439CCSH       0000001603600000                                                                             
T000029006057601827900000000000000000000000039062200000027                                                                                                                                                                                                      
