H0000010060576018279บริษัท ไทเอซ สิสซิ่ง จำกัด              14032012TALHO                                                                                                                                                                                       
D000002006057601827914032012085639ธีระศักดิ์ สุประภากร                              88779791            31218356                                00980134CCSH       0000001897900000                                                                             
D000003006057601827914032012090950คุณสาคร  รีฮุง                                    88279887            51314079                                01170796CCSH       0000001990000000                                                                             
D000004006057601827914032012094113นางสาวฉวีวรรณ สุวรรณวงษ์                          88679882            41218356                                10560053CCSH       0000001975500000                                                                             
D000005006057601827914032012101624นายรัศเธียร บังคลี่  ทศ2933                       88169095            39212363                                01480206CCSH       0000001799200000                                                                             
D000006006057601827914032012101718นายสำราญ เลิศนิมิตร                               88577998            106152447                               04990497CCSH       0000001735200000                                                                             
D000007006057601827914032012101840นายเหมราช เนื่องพิมพ์ ทล 2922                     88389983            29212342                                10270592CCSH       0000001748600000                                                                             
D000008006057601827914032012103052สุพรรณษา ไชยมาตย์                                 88569194            02213318                                00190041CCSH       0000001892900000                                                                             
D000009006057601827914032012105318นายภิญโญ กันเนียม ทศ 8537                         88159395            75218363                                04603236CCSH       0000001812300000                                                                             
D000010006057601827914032012105840ณัชชารีย์-วงษ์กิตติสิงห์                          88506199            106203185                               01470546CCSH       0000001770700000                                                                             
D000011006057601827914032012110527นายถวิล จำเริญ                                    88079090            73219357            ทว.9377             07990541CCSH       0000001476800000                                                                             
D000012006057601827914032012110652นายถวิล จำเริญ                                    88879891            51218350            ทว.8105             07990541CCSH       0000001476800000                                                                             
D000013006057601827914032012113723นายชัยกะมน  สุขกำเนิด                             88768997            35219343                                05760270CCSH       0000001847500000                                                                             
D000014006057601827914032012114137นางไพรัตน์ สุขเกษม                                88509989            802177886                               11510117CCSH       0000002144000000                                                                             
D000015006057601827914032012114637นายสุรเดช ขันทอง                                  88269398            14211365            ทศ 1451             06971662CCSH       0000001976500000                                                                             
D000016006057601827914032012115731จ.ส.อ.กมล แสงสว่าง ทร 9592                        0198187998498       107151222                               04780158CCSH       0000000753500000                                                                             
D000017006057601827914032012115917นายเฉียบวุฒิ อ่อนยิ่ง                             8896-9292           0131-8074                               03082289CCSH       0000001432800000                                                                             
D000018006057601827914032012120004นายรัญจกร  กูลสวัสดิ์                             8847-9593           1921-6356           0819045619          11300791CCLQ342668900000016000000020187                                                                         
D000019006057601827914032012120459คุณนงนุช มาลัย                                    8815-9594           7417-2065                               01898928CCSH       0000000555300000                                                                             
D000020006057601827914032012120829นาย วินัย ลมสูงเนิน ทว 2512                       88788097            25212351                                05700496CCSH       0000001432800000                                                                             
D000021006057601827914032012122120นายรามา ยาเดียว                                   88659994            47218361                                05670403CCLQ389560 00000001200000060056                                                                         
D000022006057601827914032012122239นายรามา ยาเดียว                                   88659994            47218361                                05670403CCLQ348418500000005000000020187                                                                         
D000023006057601827914032012122347นายรามา ยาเดียว                                   88659994            47218361                                05670403CCLQ188684600000006900000020118                                                                         
D000024006057601827914032012122457นายรามา ยาเดียว                                   88659994            47218361                                05670403CCSH       0000000223000000                                                                             
D000025006057601827914032012122720เพียร                                             88279296            03314075                                02610551CCSH       0000000604800000                                                                             
D000026006057601827914032012123503นส.นวลอนงค์ อินไกร                                88588688            35211358                                00282352CCSH       0000001918500000                                                                             
D000027006057601827914032012124346นางรำพึง แดงเกาะโพธิ์                             88469493            93212354                                01951137CCSH       0000001864300000                                                                             
D000028006057601827914032012125634นาย อนุสรณ์  วารีน้อย ทย5441                      8827-8598           1421-5324                               01781712CCSH       0000001484700000                                                                             
D000029006057601827914032012125641นายธวัชชัย  บุญอยู่                               88979882            26211329                                10290212CCSH       0000001485700000                                                                             
D000030006057601827914032012133509นายทองสูน เที่ยงแก๊ส ทศ 1974                      88069197            49211367                                04730614CCSH       0000001884200000                                                                             
D000031006057601827914032012133649นางวชิราภรณ์ แสงใจหนัก ทว 1593                    88688997            35211359                                01520684CCSH       0000001800000000                                                                             
D000032006057601827914032012134158น.ส.นิภาภัทร มอมุงคุณ                             88519799            107152522                               00650260CCSH       0000000980900000                                                                             
D000033006057601827914032012140149พ.อ.อ.ชำนาญ มณีวรรณ                               88533799            104116069           ทศ 9149             01980826CCSH       0000001652200000                                                                             
D000034006057601827914032012142355ด.ต. สุวนัย เสาศิริ ทศ 2867                       88769195            78212366                                04780201CCSH       0000001897000000                                                                             
D000035006057601827914032012142627ส.อ.วรวุฒิ  ศรีไพร                                88098297            81311078                                11070686CCSH       0000000034300000                                                                             
D000036006057601827914032012142740นายวีระ ฉ่ำมณี                                    88468497            39215331                                00443099CCSH       0000001780000000                                                                             
D000037006057601827914032012142920นายธงชัย ปลัดศรี                                  88679683            64217354                                11320905CCSH       0000000300000000                                                                             
D000038006057601827914032012142927นายวีระศักดิ์ อินจันทึก                           88979980            87315079                                12021436CCSH       0000001884200000                                                                             
D000039006057601827914032012143232นายถิรณะ แสงทับทิม                                88469295            10211326                                06990912CCSH       0000000700000000                                                                             
D000040006057601827914032012144328นายยวด ยินดี                                      88534299            106134477                               10720144CCSH       0000001234700000                                                                             
D000041006057601827914032012145324นายศรชัย ไศลวงศ์สกุล                              88279291            64315076                                02602931CCSH       0000001918500000                                                                             
D000042006057601827914032012154221นายมานะ ธีรภัทรไพบูลย์                            0198187997297       107066942                               00170444CCSH       0000000983100000                                                                             
D000043006057601827914032012163227นาย วชิระ  อยู่ใต้  รจ9076                        88159894            60339067                                04880528CCSH       0000000120000000                                                                             
D000044006057601827914032012173950นายวิทยา แก่นทองเจริญ                             88859697            36212337            ทร 2673             08510518CCSH       0000000917500000                                                                             
D000045006057601827914032012174542นายชัยรัตน์ พัฒนจันทร์ มง3181                     88369190            11313058                                10151588CCSH       0000001268800000                                                                             
D000046006057601827914032012174632นางภัสรา เรศสุข                                   88768299            06215363                                10720144CCSH       0000001825400000                                                                             
D000047006057601827914032012174746นางภัสรา เรศสุข                                   88868299            66215363            ทศ5636              10720144CCSH       0000001799200000                                                                             
D000048006057601827914032012174847นางภัสรา เรศสุข                                   88359296            01218364                                10720144CCSH       0000001156900000                                                                             
D000049006057601827914032012181458น.ส. จิรัฏฐ์ ศิริกิจจาขจร ทศ7373                  88059497            33217367                                10154881CCSH       0000001846600000                                                                             
D000050006057601827914032012184244นาย ณัฏฐพล พูลสวัสดิ์ ทศ 4667                     8826-9291           7621-4366                               04780158CCSH       0000002082800000                                                                             
D000051006057601827914032012184426นายณัฏฐพล พูลสวัสดิ์ ทร 3237                      88502299            107131584                               04780158CCSH       0000001200000000                                                                             
D000052006057601827914032012184536นายณัฏฐพล พูลสวัสดิ์ ทร 3240                      88503299            107131978                               04780158CCSH       0000001200000000                                                                             
T000053006057601827900000000000000000000000070675600000051                                                                                                                                                                                                      
