H0000010060576018279บริษัท ไทเอซ สิสซิ่ง จำกัด              10092011TALHO                                                                                                                                                                                       
D000002006057601827910092011103426นายธนะจิตต์ พึ่งโพธิ์สภ ทล9961                    8818-8199           1921-9346                               08691092CCSH       0000001700000000                                                                             
D000003006057601827910092011103542นายสมชาย พินยะเพียน                               8875-9196           0621-7366                               01520347CCSH       0000001327900000                                                                             
D000004006057601827910092011112358วัลภาไชยนิด                                       8846-9490           2921-4369                               04670401CCSH       0000001188600000                                                                             
D000005006057601827910092011120324นาง สัญญา จันเวียง ทว4936                         8847-9396           6921-4353                               07951194CCSH       0000000064300000                                                                             
D000006006057601827910092011125920สลิล มะลิต้น ทล 1756                              8858-9984           6721-1345                               11045221CCSH       0000001670000000                                                                             
D000007006057601827910092011130749นายจารึก ชัณษา ทล361                              88879783            13210346                                05694077CCSH       0000001652000000                                                                             
D000008006057601827910092011131009นายสมชาย ทองแดง                                   88369096            85212369                                00860670CCSH       0000002000000000                                                                             
D000009006057601827910092011140140นางศศิธร เชาว์โน ทร 5037                          8886-9298           7021-5333                               07933341CCSH       0000001448500000                                                                             
D000010006057601827910092011141626นายวรวิทย์ ทิพนัด ทร3598                          8816-9190           8521-3339                               08510017CCSH       0000000897800000                                                                             
D000011006057601827910092011142315นางสกาวเดือน โสตา ทย 8795                         8876-8899           5721-8329                               04780201CCSH       0000001997300000                                                                             
D000012006057601827910092011145119นายชัยรัตน์ พัฒนจันทร์ มง3181                     8836-9190           1131-3058                               10150884CCSH       0000001296300000                                                                             
D000013006057601827910092011145704วชิราภรณ์ แสงใจหนัก                               8816-8397           1521-6364                               01520196CCSH       0000001724300000                                                                             
D000014006057601827910092011145752นายศิลา เกษมโชติพัฒน์ ทศ 6047                     88668398            70216364                                04780158CCSH       0000001890800000                                                                             
D000015006057601827910092011150130นายสฤทธิ์ เสนสอน ทล5927                           8888-9093           7921-5342                               04950529CCSH       0000001734300000                                                                             
D000016006057601827910092011150523นายวิทยา แซ่จึง                                   48459997            33217362                                09761108CCSH       0000000321000000                                                                             
D000017006057601827910092011150629นายวิทยา แซ่จึง                                   88559597            33217362                                09761108CCSH       0000001467400000                                                                             
D000018006057601827910092011151124ประเสริฐ  คุ้มชู  ทศ1272                          8816-9498           2221-1367                               04930173CCSH       0000001739300000                                                                             
D000019006057601827910092011151710นาย เสรี  ผายพิมพ์ ทร7314                         8846-8797           4321-7331                               08550648CCSH       0000001105700000                                                                             
D000020006057601827910092011161616นายจักรชัย ลมัยกุล ทศ4710                         88069890            07214361                                10130538CCSH       0000001075000000                                                                             
D000021006057601827910092011171303น.ต.ยอด แย้มยืนยงค์                               88979787            52214357                                10360570CCSH       0000001816700000                                                                             
D000022006057601827910092011171940นายสรรเสริญ สีธงชัยรุ่งโรจน์ ทย 2914              88259596            49212321                                07930240CCSH       0000001302400000                                                                             
D000023006057601827910092011172117นายสรรเสริญ สีธงชัยรุ่งโรจน์ ทศ 6050              88168698            00216365                                07930240CCSH       0000001091500000                                                                             
D000024006057601827910092011172243นายสรรเสริญ สีธงชัยรุ่งโรจน์ ทย 7291              88479490            12217329                                07930240CCSH       0000001216300000                                                                             
D000025006057601827910092011172403นายสรรเสริญ สีธงชัยรุ่งโรจน์ ทม 3067              88779982            70213316                                07930240CCSH       0000001252000000                                                                             
D000026006057601827910092011172525นายสรรเสริญ สีธงชัยรุ่งโรจน์ ทย8872               88268698            28218327                                07930240CCSH       0000001091500000                                                                             
D000027006057601827910092011172701นายสมเกียรติ สีธงชัยรุ่งโรจน์ ทศ2343              88469792            33212364                                07930240CCSH       0000001132000000                                                                             
D000028006057601827910092011173047นายวรวิทย์ และสง่า ทล1052                         88679992            20211345                                05690237CCSH       0000001594000000                                                                             
D000029006057601827910092011180138นายสุรศักดิ์ อินทศร ทศ5543                        8877-9493           3521-5364                               08691092CCSH       0000002125000000                                                                             
D000030006057601827910092011180212นางจรรยา อินทศร ทว7014                            8806-9892           4021-7351                               08691092CCSH       0000002125000000                                                                             
D000031006057601827910092011191312นาย ดนุเดช สายบัว                                 8817-9395           4631-4072           มฉ 4624             10330064CCSH       0000001800000000                                                                             
D000032006057601827910092011191355นายชุมพล ด้านสิงห์                                88769890            3221-0347                               10330833CCSH       0000001262600000                                                                             
T000033006057601827900000000000000000000000044109500000031                                                                                                                                                                                                      
