H0000010060576018279บริษัท ไทเอซ สิสซิ่ง จำกัด              20072011TALHO                                                                                                                                                                                       
D000002006057601827920072011083250นาย คงศักดิ์ รุ่งรัตน์ ทล 3972                    88389198            29213347                                00651478CCSH       0000001665500000                                                                             
D000003006057601827920072011083544พ.ต.ท. ประเจต  ภาพสมุทร ทล5536                    88177697            65215343                                01740029CCSH       0000001700000000                                                                             
D000004006057601827920072011083641นาย คงศักดิ์ รุ่งรัตน์ ทว 6711                    88479784            17216351                                00651478CCSH       0000001990000000                                                                             
D000005006057601827920072011084542นายวรา  จันทร์หลวง                                8887-8899           0721-5330                               00748904CCLQ477394 00000014600000140143                                                                         
D000006006057601827920072011085514นายวรภพ งะบัว ทร.2133                             8826-9096           31212333                                00540018CCSH       0000001261500000                                                                             
D000007006057601827920072011091019นาย  สฤษดิ์ศักดิ์  พินิจกุลดี   ทศ  2034          8876-9787           4021-2363                               09760820CCSH       0000001918400000                                                                             
D000008006057601827920072011091705นาย สุริยา บุรีรัตน์ ทร 3296                      88869590            62213339                                10270592CCSH       0000000829300000                                                                             
D000009006057601827920072011094822นางฑิฆัมพร แช่มเกษม ศศ4668                        8837-9494           86364366                                01590526CCSH       0000000823900000                                                                             
D000010006057601827920072011095558ประกอบ ประทุมศรี                                  88769895            78212361                                10121086CCSH       0000001951500000                                                                             
D000011006057601827920072011101913นางบุญโฮม เกษแสรศรี ทร 5420                       8856-9591           0421-5332                               04580699CCSH       0000001105700000                                                                             
D000012006057601827920072011102537นาย สมพร  หนูขวัญ  ทล 7350                        8828-9391           0321-7345                               02260835CCSH       0000002756200000                                                                             
D000013006057601827920072011102616KERWAN  D.                                        48868998            02210362                                08510239CCSH       0000000306000000                                                                             
D000014006057601827920072011110752นาย วรวิทย์ และสง่า ทว3030                        8806-9697           0021-3353                               05690707CCSH       0000000064300000                                                                             
D000015006057601827920072011110849ด.ต.ชาญ ทับพุ่ม ทม 1606                           88798198            66211310                                08780447CCSH       0000000529000000                                                                             
D000016006057601827920072011111523นาย สมชาย หนองเส ทว6335                           8846-9991           5321-6353                               08001096CCSH       0000001880500000                                                                             
D000017006057601827920072011111822ประมวล เพ์งนิล                                    8846-7097           42219342                                01101665CCSH       0000002116700000                                                                             
D000018006057601827920072011113056นายประยูร วิเศษนอก                                88769190            77217355                                11520403CCSH       0000001935000000                                                                             
D000019006057601827920072011113650นายดำรงค์ ศรีนุรัตน์  ทศ4601                      8826-9391           1621-4360                               01480206CCSH       0000002513400000                                                                             
D000020006057601827920072011113813นายดำรงค์ ศรีนุรัตน์  ทศ4602                      8836-9391           2621-4360                               01480206CCSH       0000002513400000                                                                             
D000021006057601827920072011114441นายสุรศักดิ์ อินทศร ทศ 4057                       8826-9292           7021-4365                               04580699CCSH       0000001719800000                                                                             
D000022006057601827920072011114850นายสุรพรรณ  จันทะสิทธิ์                           8845-9596           8921-2332                               02170046CCSH       0000001020000000                                                                             
D000023006057601827920072011120205ด.ต.วิรัตน์ ตะคุณนะ ทล 8062                       8868-9990           2021-8346                               05675671CCSH       0000001955000000                                                                             
D000024006057601827920072011121241นายสถาพร เมฆแก้ว                                  8876-8498           2731-5057                               01520889CCSH       0000000700000000                                                                             
D000025006057601827920072011121332นายบัวลา ทอง                                      8866-9290           45210364                                01210671CCSH       0000001670000000                                                                             
D000026006057601827920072011122531นายบุญช่วย พิศาลภูรินาถ ทร 4094                   88668498            40214339                                04603621CCSH       0000001192700000                                                                             
D000027006057601827920072011122744นาง ประไพวรรณ  หวานเย็น ทร 3546                   88159798            65213334                                00510019CCSH       0000001326800000                                                                             
D000028006057601827920072011122820นายทองหล่อ  โตวัตร ทล2406                         8819-8998           6421-2340                               04670595CCSH       0000001665500000                                                                             
D000029006057601827920072011123013ถวิล  จำเริญ ทว9391                               8817-8899           1321-9359                               07990174CCSH       0000001476800000                                                                             
D000030006057601827920072011123119ถวิล  จำเริญ ทว 4078                              8827-9197           8021-4357                               07990174CCSH       0000001476800000                                                                             
D000031006057601827920072011123222ถวิล  จำเริญ ทว 2774                              8817-9698           4721-2357                               07990174CCSH       0000001476800000                                                                             
D000032006057601827920072011123323นางสาว สุนิสา ชัยชนะ                              8815-9995           5221-8369                               09680060CCSH       0000001846600000                                                                             
D000033006057601827920072011123324นายประสิทธิ์  ฟังสันเทียะ  มจ 5293                8816-9396           3231-5069                               01200195CCSH       0000001753700000                                                                             
D000034006057601827920072011124258นายสันต์ ลาภรุ่งเรือง ทล6781                      8828-9392           1721-6348                               05700914CCSH       0000000829300000                                                                             
D000035006057601827920072011124436นายธีระ เสือทอง ทล 3806                           8888-9398           6821-3340                               02530654CCSH       0000000205500000                                                                             
D000036006057601827920072011125433นายรณภพ พวงวรินทร์                                8898-9780           0031-3071           มฉ3010              00570153CCSH       0000001714000000                                                                             
D000037006057601827920072011131603สุริยัน พ. ทล2401                                 8849-8898           1421-2340                               10360281CCSH       0000001670900000                                                                             
D000038006057601827920072011133858นาย ธนโชติ พุ่มศิริ                               88589392            83312072                                01900191CCSH       0000000863600000                                                                             
D000039006057601827920072011134353ดวงกมล ห. ทว8526                                  8897-9881           6521-8352                               10360281CCSH       0000001700000000                                                                             
D000040006057601827920072011134543วรรณชัย วิมูลคำ                                   88479793            68314078                                02564997CCSH       0000001700000000                                                                             
D000041006057601827920072011134714นายศราวุฒิ  สุขพัฒน์ ทล 4135                      88289997            51214343                                00950177CCSH       0000001665500000                                                                             
D000042006057601827920072011135246วุฒิสิทธิ์ ยินดีเวท                               8878-9682           8021-7340                               03830885CCSH       0000001617900000                                                                             
D000043006057601827920072011135801นาย ธนทร โสภาวงศ์                                 8819-8297           1521-3343                               00920219CCSH       0000001835400000                                                                             
D000044006057601827920072011140658นายสุนทร บุญเกิด ทว7578                           88069292            85217357                                03960529CCSH       0000001800000000                                                                             
D000045006057601827920072011140926นายพรชัย ศักดิ์เดชะมณี ื                          8850-8897           7021-1311                               02260861CCSH       0000000227000000                                                                             
D000046006057601827920072011141105นายพรชัย ศักดิ์เดชะมณี                            8850-8397           5021-1311                               02260861CCSH       0000000227000000                                                                             
D000047006057601827920072011141216นายพรชัย ศักดิ์เดชะมณี                            8870-8398           8921-0316                               02260861CCSH       0000000227000000                                                                             
D000048006057601827920072011141323นายพรชัย ศักดิ์เดชะมณี                            8830-8298           6921-0316                               02260861CCSH       0000000227000000                                                                             
D000049006057601827920072011141427นายพรชัย ศักดิ์เดชะมณี                            8829-7997           9021-2336                               02260861CCSH       0000000361500000                                                                             
D000050006057601827920072011141755นางสาวเอมอร ศักดิ์เดชะมณี                         8828-9593           5121-8313                               02260861CCSH       0000001691400000                                                                             
D000051006057601827920072011143043นายธีระพงษ์  เจริญอินทร์ ทศ999                    88378499            99210369                                07990070CCSH       0000001870000000                                                                             
D000052006057601827920072011143627นางสุภัค   ชาติไธสง                               8835-7997           8721-4355                               10290212CCSH       0000001756700000                                                                             
D000053006057601827920072011143727สังข์วาลย์ เนตะเวณ                                8899-9791           5821-0343                               00030525CCSH       0000001589600000                                                                             
D000054006057601827920072011144432อมรรัตน จันทศร                                    88188399            88217321                                01480363CCSH       0000001378200000                                                                             
D000055006057601827920072011144531นางมณฑิรา ทวีกัลป์                                88789696            87214345                                05760932CCSH       0000001747400000                                                                             
D000056006057601827920072011145123นางสาวเฉลิมศรี                                    8856-9390           8121-6339                               06991739CCSH       0000000030000000                                                                             
D000057006057601827920072011145408นาง ธิดา เนาวรัตน์ ทร 4223                        8897-9893           3221-4332                               05750619CCSH       0000001131900000                                                                             
D000058006057601827920072011145454นาง ธิดา เนาวรัตน์ ทว6892                         8807-9993           2821-6359                               05750619CCSH       0000001897900000                                                                             
D000059006057601827920072011145953นายวีระ  ฉ่ำมณี                                   8846-8497           3921-5331                               00580488CCSH       0000001090000000                                                                             
D000060006057601827920072011150138นางวิจิตรา ลาวัณย์วิจิตร                          8818-8997           7521-1358                               07620899CCSH       0000001884200000                                                                             
D000061006057601827920072011150142สมพร อินทรสอน ทล 5631                             8848-9193           1621-5343                               00243844CCSH       0000001612300000                                                                             
D000062006057601827920072011151815นาง พรทิพย์  ใจตรง  ทว  6962                      8817-9593           2921-6356                               09760820CCSH       0000003957700000                                                                             
D000063006057601827920072011162836นายบุญส่ง  ตระกูลจั่นนาค  ทล710                   8829-9592           0721-0341                               10360901CCSH       0000000622600000                                                                             
D000064006057601827920072011163316ไพวัลย์ พันธ์หนองหว้า                             8878-8898           2621-0355                               10520224CCSH       0000002240200000                                                                             
D000065006057601827920072011163921นางพร จันทอง ทย9490                               8857-9490           0421-9329                               08691092CCSH       0000001135600000                                                                             
D000066006057601827920072011170333นายพิเชษฐ์ ศรีหาประทุม ทศ1499                     88269997            94211369                                08401304CCSH       0000002169600000                                                                             
D000067006057601827920072011171529นางสาวนภารัตน์ ปิมปา                              88868899            45210354                                10661140CCSH       0000001775000000                                                                             
D000068006057601827920072011172851สมร  ราวินิช  ทศ 2149                             88069797            91212364                                08550664CCSH       0000001435000000                                                                             
D000069006057601827920072011173405น.ส. หยกฟ้า เจตจำเนียรกุล ทร3655                  8877-7397           5621-3335                               10151005CCSH       0000001220700000                                                                             
D000070006057601827920072011175003นายอธิชา  สุวรรณไตร  ทร 7573                      8869-9696           3521-7337           089-7840541         08770142CCSH       0000000200000000                                                                             
D000071006057601827920072011175714ร.ท.จักรกฤษณ์ เพียรพิจิตร ทว9969                  8898-9891           9921-9356                               05671599CCSH       0000001800000000                                                                             
D000072006057601827920072011175845ร.ท.จักรกฤษณ์ เพียรพิจิตร ทว3199                  8877-9998           9121-3359                               05671599CCSH       0000001760000000                                                                             
D000073006057601827920072011181835นายณัฐวุฒิ คำมุงคุณ                               88068999            81215360                                11520403CCSH       0000001965000000                                                                             
D000074006057601827920072011182539นายสมชาย    ศิริรักษ์                             88569997            25215329                                10660073CCSH       0000000100000000                                                                             
T000075006057601827900000000000000000000000103533400000073                                                                                                                                                                                                      
