H0000010060576018279บริษัท ไทเอซ สิสซิ่ง จำกัด              28092011TALHO                                                                                                                                                                                       
D000002006057601827928092011083348นาย คอนศรี จิตอามาตย์ ทย 8513                     8846-9196           3521-8321                               04120730CCSH       0000001382100000                                                                             
D000003006057601827928092011084637นายสุจินต์ ทรงขำ                                  8806-9392           1131-8078                               02610551CCSH       0000000110000000                                                                             
D000004006057601827928092011085220นายวุฒิชัย มูลกลาง  ทว4828                        88979696            88214352                                01440144CCSH       0000001884200000                                                                             
D000005006057601827928092011085913นายโชคชัย สนธิ์ชัยสกุล                            8818-9392           1621-6347                               00470195CCSH       0000001700000000                                                                             
D000006006057601827928092011091156นางสาวสุภา กุลวงษ์                                88769095            89210331                                00560501CCSH       0000001586300000                                                                             
D000007006057601827928092011094107นางสาวสมจินตนา มัจฉาชีพ                           88659196            70218360                                06870274CCSH       0000000250100000                                                                             
D000008006057601827928092011095259นายทิพย์มนต์ สวนไพรินทร์                          88359698            24218352            ทว 8422             01920913CCSH       0000001914800000                                                                             
D000009006057601827928092011095631คุณ ศิลมน                                         88659695            43218361                                02610090CCSH       0000001584300000                                                                             
D000010006057601827928092011100513ณัฐพล  ทรัพย์เอนก                                 88139598            86215281                                00981066CCSH       0000000287000000                                                                             
D000011006057601827928092011102515นางนงนุช สุทธาวาส โทร.0879946035                  88669298            16211361                                05943281CCSH       0000001897200000                                                                             
D000012006057601827928092011103500นายสมหมาย เจริญสุข ทว 8645                        88579890            56218354                                04580699CCSH       0000001170000000                                                                             
D000013006057601827928092011104940นายนันท์มนัส พอใจ ทว7834                          8817-9692           4821-7353                               08691092CCSH       0000001884200000                                                                             
D000014006057601827928092011105255นายกิตติชัย ใจกว้าง                               88689580            51219343                                07650724CCSH       0000001732000000                                                                             
D000015006057601827928092011113658นายสมชัย ไทยสง่า                                  88468599            53216334                                04880760CCSH       0000001414800000                                                                             
D000016006057601827928092011114653นายอนุสรณ์ วารีน้อย                               8827-8598           1421-5324                               01781711CCSH       0000001484700000                                                                             
D000017006057601827928092011114750นายรามา ยาเดียว                                   88659994            47218361                                05670558CCSH       0000000733000000                                                                             
D000018006057601827928092011115027นายรามา ยาเดียว                                   88659994            47218361                                05670558CCLQ813819900000008000000020102                                                                         
D000019006057601827928092011115658จ.ส.อ.บุญเลิศ ทองเย็น ทล3687                      8868-9798           7621-3348                               08450531CCSH       0000001699740000                                                                             
D000020006057601827928092011121336นายสวิด  วงษ์จำปา                                 8877-9498           7021-3352                               00610756CCSH       0000001845900000                                                                             
D000021006057601827928092011122833นาย ยวด ยินดี                                     88534299            10613447                                05970398CCSH       0000001233900000                                                                             
D000022006057601827928092011123329เมตตา  ต. ทว756                                   8828-8498           6721-0355                               10360281CCSH       0000002280000000                                                                             
D000023006057601827928092011124819นายโพธิ์ บุญกระพือ มช1282                         88535099            104119597                               04671136CCSH       0000001100000000                                                                             
D000024006057601827928092011131040นายสมบัติ คมขำ ทย7818                             88188399            88217321                                01480363CCSH       0000001317900000                                                                             
D000025006057601827928092011131723ด.ต.สายชล กฤษวงษ์ ทศ53                            8867-8598           3021-0365                               00970597CCSH       0000001884200000                                                                             
D000026006057601827928092011132233นาย สมพร คำใจ                                     88268699            08211344                                01471089CCSH       0000000493300000                                                                             
D000027006057601827928092011133448อนุ                                               88069596            02211340                                02542373CCSH       0000001738100000                                                                             
D000028006057601827928092011135346นายกุล โสมณวัฒน์ มง197                            88868298            71310059                                10520393CCSH       0000001338300000                                                                             
D000029006057601827928092011135441นายกุล โสมณวัฒน์ ทล356                            88899492            63210345                                10520393CCSH       0000001786800000                                                                             
D000030006057601827928092011135925ส.อ.ทิมากร จันทร์หง่อม ทว 4808                    88479696            88214350                                00221053CCSH       0000001884200000                                                                             
D000031006057601827928092011141326นายวัฒนา                                          8878-9496           1821-7312                               01270115CCSH       0000000235500000                                                                             
D000032006057601827928092011142935นายปิยะ เข็มกลัด                                  88527599            106145962                               05670558CCSH       0000003775200000                                                                             
D000033006057601827928092011150242นายเฉลา ศรีนาค  มจ2581                            8851-9981           1531-2068                               10097074CCSH       0000000730600000                                                                             
D000034006057601827928092011151726นางสาววัชรี เพิ่มพูลสวัสดิ์                       88679196            79214351                                05970617CCSH       0000002314200000                                                                             
D000035006057601827928092011151901นายอ๊อด บุดดีคำ มฉ7573                            88759194            35317077                                07690734CCSH       0000002267800000                                                                             
D000036006057601827928092011152336นายเดช บุญประคม  ทย 9380                          88609795            03219328                                02260509CCSH       0000000415500000                                                                             
D000037006057601827928092011153237นางพรทิพย์ ใจตรง                                  88179593            29216356                                00650260CCSH       0000002436000000                                                                             
D000038006057601827928092011154616นาย เกรียงไกร  ศรอินทร์  ทย2486                   88969492            64212328                                02590608CCSH       0000001500000000                                                                             
D000039006057601827928092011154855นางนฤมล ฟ้าอรุณ ทว 2768                           88679798            87212356                                05700767CCSH       0000001432800000                                                                             
D000040006057601827928092011162945ด.ต.วิรัตน์ ตะคุณนะ ทย7605                        8856-8397           5621-7320                               05671599CCSH       0000000633200000                                                                             
D000041006057601827928092011165118ด.ต.สุวนัย เสาศิริ ทศ 2860                        88869195            08212366                                04780201CCSH       0000001669400000                                                                             
D000042006057601827928092011165327ด.ต.สุวนัย เสาศิริ วศ 4499                        88469890            94354369                                04780201CCSH       0000000995000000                                                                             
D000043006057601827928092011172600นายชัชวาล แสงอาวุธ  ทศ8356                        88559595            6321-8365                               08401304CCSH       0000001828800000                                                                             
D000044006057601827928092011172736นาย ชัชวาล แสงอาวุธ ทศ8732                        88059594            27218363                                08401304CCSH       0000001883800000                                                                             
D000045006057601827928092011172754นายผจญ เฉลิมวัฒน์ ทว7518                          88479883            85217351                                10360570CCSH       0000001990000000                                                                             
D000046006057601827928092011184135นายภุชงค์ บลบาง ทร9122                            8889-9984           2121-9332                               04950529CCSH       0000000102900000                                                                             
D000047006057601827928092011191110นาย ธนพัต  คุ้มวงษ์                               88078897            85210364                                07661135CCSH       0000001773000000                                                                             
T000048006057601827900000000000000000000000066400740000046                                                                                                                                                                                                      
