H0000010060576018279บริษัท ไทเอซ สิสซิ่ง จำกัด              17082011TALHO                                                                                                                                                                                       
D000002006057601827917082011090610ม.ล.ปิยะ  จักรพันธุ์                              88399391            10211348                                00090221CCSH       0000001070000000                                                                             
D000003006057601827917082011090740นายสมพงษ์  พลพุทธา  ทว  2583                      8808-8097           3521-2358                               10130063CCSH       0000001700000000                                                                             
D000004006057601827917082011094127นายประจัญชัย อัฒจักร ทว9202                       8867-9190           2221-9350                               01761687CCSH       0000001918500000                                                                             
D000005006057601827917082011100540นาย สมนึก สืบพิลัย  ทล 9579                       88867497            95219347                                02260509CCSH       0000001700000000                                                                             
D000006006057601827917082011101802นางสาวคนึงนิจ หอฉ่อย ทศ8271                       8805-9995           1221-8367                               09670530CCSH       0000001820000000                                                                             
D000007006057601827917082011103125นายนิกรณ์ สิงห์เสนา มง8587                        88569995            75318058                                10360570CCSH       0000000755800000                                                                             
D000008006057601827917082011104241สมพงษ์ ด. ทล593                                   8896-9391           3521-0349                               10360281CCSH       0000000100000000                                                                             
D000009006057601827917082011104329นาย ภาวัต  ไชยสร                                  8836-9695           5531-4050                               03991081CCSH       0000000135000000                                                                             
D000010006057601827917082011104851นายทรง อ่อนใจ ทว 8576                             8857-9781           6521-8357                               04580699CCSH       0000001884200000                                                                             
D000011006057601827917082011105041นาย วรัฐ นบนอบ มง 2846                            88059294            68312054                                00600151CCSH       0000000030000000                                                                             
D000012006057601827917082011110830นางสาวศิริกานดา ทานุรัตน์ ทศ 3342                 8876-9893           2321-3364                               01770894CCSH       0000001799200000                                                                             
D000013006057601827917082011110920นายวิทูร สุนทรีรัตน์ ทล3543                       8878-9998           3521-3344                               05670390CCSH       0000001468500000                                                                             
D000014006057601827917082011111025นายสุรศักดิ์ เลิศไกร                              8856-9291           7621-4361                               09550507CCSH       0000001856500000                                                                             
D000015006057601827917082011111724นาย อนุชา นนทกา ทว 8386                           88879391            63218358                                07682416CCSH       0000001178500000                                                                             
D000016006057601827917082011113916นาย วินัย ลมสูงเนิน ทว2512                        8878-8097           2521-2351                               05700914CCSH       0000001432800000                                                                             
D000017006057601827917082011115209นาย พงษ์ศักดิ์ บริบูรณ์  ทล 9178                  8858-9280           8121-9347                               04581882CCSH       0000002116700000                                                                             
D000018006057601827917082011115416นางสาวธนิก มนูลักษณ์                              88589495            77311071                                00000384CCSH       0000001617900000                                                                             
D000019006057601827917082011120109นายปรีดา พิลาแสน  ทพ6359                          8856-8697           9321-6285                               06920151CCSH       0000001072200000                                                                             
D000020006057601827917082011120214นายปรีดา พิลาแสน  ทพ6025                          8846-8697           5021-6282                               06920151CCSH       0000001131200000                                                                             
D000021006057601827917082011120422นาย พิกิจ ภูมิภาค ทศ 2160                         8806-9887           0121-2366                               02501180CCSH       0000002346000000                                                                             
D000022006057601827917082011123043นาย ชัชวาลย์ แสงอาวุธ ทศ7235                      8815-9797           5221-7363                               08401303CCSH       0000000030000000                                                                             
D000023006057601827917082011124250สุนทร จันทร                                       88679791            61218355                                04710657CCSH       0000001884200000                                                                             
D000024006057601827917082011124606นายยงยุทธ สึกชัย มฉ3221                           8868-8299           1231-3072                               00771132CCSH       0000000788900000                                                                             
D000025006057601827917082011130636นายเสกสันต์ ไชยเสนา ทว4674                        88679587            46214357                                10071100CCSH       0000001758300000                                                                             
D000026006057601827917082011131123นางอำนวย  เขลาลำธาร                               88989693            64215343                                01930534CCSH       0000001567000000                                                                             
D000027006057601827917082011131621นายอภิศักดิ์ ลือเมือง                             88868897            25215333                                01480560CCSH       0000001198400000                                                                             
D000028006057601827917082011134606นางสาว พิมพ์ชนก แซ่ตั้ง                           8877-9391           3421-3336                               01771050CCSH       0000001237500000                                                                             
D000029006057601827917082011135551วรเทพ ชมดวง                                       88179995            15215350                                02564997CCSH       0000001906000000                                                                             
D000030006057601827917082011135948สุวรรณ อุทสาร                                     8886-9693           0621-9327                               02190470CCSH       0000000604800000                                                                             
D000031006057601827917082011140621นายสุชาติ วิเศษชิต                                8885-9596           8121-2329                               06960116CCSH       0000001052200000                                                                             
D000032006057601827917082011141311ส.ต.ท. ชัยญา เชื้อหงษ์                            8847-9891           0621-8350                               04730538CCSH       0000001501200000                                                                             
D000033006057601827917082011141623นางคนึงนิตย์ ตะคุณนะ ทว4443                       8847-9687           3421-4354                               05670390CCSH       0000002225500000                                                                             
D000034006057601827917082011143308นรินทร์ ร่มลำดวน                                  8806-9297           4021-0320                               01371972CCSH       0000002160700000                                                                             
D000035006057601827917082011145553นาง ชลพรรณ แก้วสามสี ทว 7583                      8817-9792           3521-7358                               01200547CCSH       0000001884200000                                                                             
D000036006057601827917082011150714นายสมพงษ์ ใจดี                                    8837-9196           3331-4077                               00631326CCSH       0000001932500000                                                                             
D000037006057601827917082011150731นายนาวี มีสมวงษ์                                  8897-8889           3031-6071                               00282352CCSH       0000001617900000                                                                             
D000038006057601827917082011151038นางสิริอร  ศรีกิ้ม                                8835-9394           7021-9334                               05756198CCSH       0000000727600000                                                                             
D000039006057601827917082011151310จ.ส.ต.วิถี ชัยงาม  ทล 3919                        88889298            99213341                                02260509CCSH       0000001561200000                                                                             
D000040006057601827917082011152226นายบุญจันทร์  สีธาติ  ทพ 9485                     8805-9793           5421-9288                               08510258CCSH       0000001038000000                                                                             
D000041006057601827917082011152939นายมงคล โตเอี่ยม                                  8848-9791           4121-7348                               04700568CCSH       0000000534800000                                                                             
D000042006057601827917082011155035ไพรสน คำอ่อน ทศ6093                               88368398            30216369                                10270539CCSH       0000001890800000                                                                             
D000043006057601827917082011160002นายอภิรักษ์ ห้อยหวล ทม8269                        88979391            92218316                                10071100CCSH       0000001337600000                                                                             
D000044006057601827917082011161825นางศิริ เกียรติเฉลิม                              8858-9697           9621-9324                               00336716CCSH       0000003053400000                                                                             
D000045006057601827917082011164227นายบุญเลิศ ทรัพย์เจริญกุล ทย1627                  8806-9991           7621-1322                               10320214CCSH       0000001473100000                                                                             
D000046006057601827917082011165142นายพิเชษฐ  เลิศสุรัง  ทม 5447                     88459693            74215314                                05701141CCSH       0000000561200000                                                                             
D000047006057601827917082011172712นาย วินัย ผลดี ทว 7638                            8867-9792           8621-7353                               10250225CCSH       0000001985500000                                                                             
D000048006057601827917082011182833พ.อ.อ.สุรัศ  ศรีหาเลิศ ทว 1643                    8855-7697           3621-1354                               11521628CCSH       0000001799200000                                                                             
D000049006057601827917082011184215พัฐสรร อินนุช                                     88289491            63217340                                05710084CCSH       0000000877600000                                                                             
T000050006057601827900000000000000000000000067322300000048                                                                                                                                                                                                      
