H0000010060576018279บริษัท ไทเอซ สิสซิ่ง จำกัด              11092011TALHO                                                                                                                                                                                       
D000002006057601827911092011101415KLURWAN S                                         88978198            02210362                                08518511CCSH       0000001734300000                                                                             
D000003006057601827911092011102712นาย อรัญ  ขาวเนตร  ทม 3639                        8886-9293           9621-3313                               09760540CCSH       0000001534300000                                                                             
D000004006057601827911092011110321นาง สุนิจ สมบัติ ทร2854                           88969295            48212335                                10070203CCSH       0000001440000000                                                                             
D000005006057601827911092011120459นายชอบ  เสวะมาตย์                                 8839-8299           6321-2348                               08690542CCSH       0000001665500000                                                                             
D000006006057601827911092011122633นายสวัสดิ์ จันทร์งาม                              88699291            69319063                                05710084CCSH       0000001665500000                                                                             
D000007006057601827911092011124256นางสาววัสมล โชติสิงห์                             8805-9094           3021-9363                               05700127CCSH       0000001922300000                                                                             
D000008006057601827911092011130650นคร ทองแก้ว                                       88669494            41213367                                09761108CCSH       0000001884200000                                                                             
D000009006057601827911092011135713นายอาด ไม้น้อย                                    8808-9091           6721-7348                               10136228CCSH       0000001799200000                                                                             
D000010006057601827911092011140148นายพงษ์เทพ จึงตระกูล มฉ 1167                      88537499            107161465           0895143990          07620610CCSH       0000001213500000                                                                             
D000011006057601827911092011145707นางจุไรรัตน์  สุทธิเวช                            8808-9197           7621-4347                               11520515CCSH       0000001641700000                                                                             
D000012006057601827911092011152955สุรเดช  แก่นโนรา                                  8886-9797           0636-1072                               08690542CCSH       0000000588500000                                                                             
D000013006057601827911092011155742นาย พงษ์ศักดิ์ บริบูรณ์ ทว5152                    88279886            21215355                                08691827CCSH       0000001995000000                                                                             
D000014006057601827911092011164810นางสาว วรกมล  บุญมา ทศ6058                        8846-8398           8021-6365                               08550648CCSH       0000002352600000                                                                             
D000015006057601827911092011164906นายสมาน พวงพิลา มฉ9416                            8836-8597           6431-9071                               11370605CCSH       0000002417000000                                                                             
D000016006057601827911092011165240ไพโรจน์  แก้วงาม                                  8808-9093           5021-6341                               08690542CCSH       0000001855000000                                                                             
D000017006057601827911092011171516นายจักรพงษ์ สียางนอก ทย 1495                      88668899            54211329                                07540908CCSH       0000001105700000                                                                             
D000018006057601827911092011173931น.ส.ฐาปณภัท  ธรรมวิหาร                            88998199            43212340                                06972020CCSH       0000001665500000                                                                             
D000019006057601827911092011174112น.ส.ฐาปณภัท   ธรรมวิหาร                           88898199            33212340                                06972020CCSH       0000001665500000                                                                             
D000020006057601827911092011182616นางสาว วชิราภรณ์ นุชสุข                           88969591            04214362                                09621011CCSH       0000001772800000                                                                             
D000021006057601827911092011185804ร.อ. ณีฐ  กาญจนโรจน์ ทล8432                       88969290            24218343                                00310190CCSH       0000001382100000                                                                             
D000022006057601827911092011191233น.ส.โชติรส  รอดนารี  ทว399                        88388789            93210359                                07540090CCSH       0000002240200000                                                                             
T000023006057601827900000000000000000000000035540400000021                                                                                                                                                                                                      
