H0000010060576018279บริษัท ไทเอซ สิสซิ่ง จำกัด              21082011TALHO                                                                                                                                                                                       
D000002006057601827921082011100949นาย พงษ์ศักดิ์ บริบูรณ์  ทว5452                   88279486            24215355                                08690335CCSH       0000002580000000                                                                             
D000003006057601827921082011112027นางสมร สุภชีรักษ์ ทล55                            8819-8698           5021-0345                               11522040CCSH       0000001743500000                                                                             
D000004006057601827921082011114652นาย ธีระ เสือทอง ทล 3806                          8888-9398           6821-3340                               02501180CCSH       0000001665500000                                                                             
D000005006057601827921082011114734นาย วิชัย วิเศษ ทล 1277                           8849-9881           7221-1347                               02501180CCSH       0000001665500000                                                                             
D000006006057601827921082011114827นาย บรรจง วิเศษ ทล 2032                           8826-7397           2021-2343                               02501180CCSH       0000001267800000                                                                             
D000007006057601827921082011120854นางสาวเฉลิมศรี ทองขาว ทร 6198                     8856-9390           8121-6339                               00860606CCSH       0000001105700000                                                                             
D000008006057601827921082011124715ด.ต.วิรัตน์ ตะคุณนะ                               88689990            20218346                                11520403CCSH       0000001986400000                                                                             
D000009006057601827921082011131147นายวันเฉลิม เกษตรสินธุ์                           88679487            26214355                                11520403CCSH       0000000064300000                                                                             
D000010006057601827921082011131808นางสุมาลี สังข์ทอง                                8827-9587           8521-4356           ทว4568              04930415CCSH       0000001799200000                                                                             
D000011006057601827921082011133928ร.ท.จักรกฤษณ์ เพียรพิจิตร ทว3199                  88779998            91213359                                07930727CCSH       0000001760000000                                                                             
D000012006057601827921082011140410นาย จักรชัย ลมัยกุล                               8806-9890           0721-4361                               09620092CCSH       0000001900000000                                                                             
D000013006057601827921082011140506อัครเดช ขันคำ มฉ5285                              88479982            52315078                                10270539CCSH       0000001799200000                                                                             
D000014006057601827921082011150237นายวีระศักดิ์ ศรีสมุทร ทล7727                     8898-9091           7721-7342                               10360725CCSH       0000001124500000                                                                             
D000015006057601827921082011161220ธนวันต์ เปี่ยมวรนันท์ ทว4990                      88079596            09214359                                10270539CCSH       0000001487300000                                                                             
D000016006057601827921082011161846นาย มานพ  แข็งเขตการณ์ ทศ1523                     8876-9997           3521-1362                               08550648CCSH       0000001884200000                                                                             
D000017006057601827921082011170000นายจำรัส  ผายสุวรรณ  ทศ8650                       8875-9994           0621-8365                               04881090CCSH       0000001663600000                                                                             
D000018006057601827921082011170115นายจำรัส  ผายสุวรรณ ทศ8650                        4885-9994           0621-8365                               04881090CCSH       0000000221000000                                                                             
D000019006057601827921082011171614นางสุมาลี ศรีกะภา ทล 653                          8859-9192           3621-0345                               10320156CCSH       0000001714300000                                                                             
D000020006057601827921082011173118นาง ผกาพร  พูลวิเชียร                             8876-9390           8221-1347                               06972020CCSH       0000001099400000                                                                             
D000021006057601827921082011173514นาย บุญเลียน สุขจิตต์ มจ6357                      88578998            73316065                                10070203CCSH       0000000590000000                                                                             
D000022006057601827921082011173701บุญเลิศ ทรัพย์เจริญกุล                            8856-9994           2921-2363                               10320746CCSH       0000001679300000                                                                             
D000023006057601827921082011175157นายประยูร วิเศษนอก  ทว7757                        8876-9190           7721-7355                               10074338CCSH       0000001935000000                                                                             
D000024006057601827921082011175619นายปางทอง แซ่ตั้ง ทศ2657                          8816-9986           7621-2365                               10360725CCSH       0000001884200000                                                                             
D000025006057601827921082011191442นายพิเชษฐ์ ทวีนุช                                 8845-9298           6421-0357                               10670880CCSH       0000001798000000                                                                             
D000026006057601827921082011191528นายพิเชษฐ์ ทวีนุช                                 8855-9298           4321-7340                               10670880CCSH       0000001798000000                                                                             
T000027006057601827900000000000000000000000038215900000025                                                                                                                                                                                                      
