H0000010060576018279บริษัท ไทเอซ สิสซิ่ง จำกัด              21112011TALHO                                                                                                                                                                                       
D000002006057601827921112011155225นายกมล  กลั่นขจร                                  8891-8298           0521-4323                               04774771CCSH       0000001184500000                                                                             
D000003006057601827921112011155515นายกมล  กลั่นขจร                                  8871-8298           1521-4323                               04774771CCSH       0000001164300000                                                                             
D000004006057601827921112011155638นายกมล  กลั่นขจร                                  8881-8298           0521-4325                               04774771CCSH       0000001013300000                                                                             
D000005006057601827921112011155939น.อ.แมน คีตะจิตต์                                 88545999            104117323                               10560685CCSH       0000000785400000                                                                             
D000006006057601827921112011163003ชวลิต จักษุดำ                                     88597798            104127149                               04700261CCSH       0000001811100000                                                                             
D000007006057601827921112011164702พ.ต.ณัฐ กาญจนโรจน์                                88505899            106140169                               04770491CCSH       0000001721900000                                                                             
D000008006057601827921112011165514นางจิราภรณ์  เถื่อนอาราม ทย554                    88979096            45210325                                04700012CCSH       0000001319700000                                                                             
D000009006057601827921112011165743นางชลพรรณ แก้วสามสี                               8817-9792           3521-7358                               10660506CCSH       0000001884200000                                                                             
D000010006057601827921112011171507นายปุณยาวัจน์ บุญน้อม                             88389791            15312075                                07620496CCSH       0000001432800000                                                                             
D000011006057601827921112011171815วัชรพล สิงห์ลี0873290146                          88379496            90215357                                04701737CCSH       0000001894500000                                                                             
D000012006057601827921112011174046นายณรงค์ชัย  อารีรักษ์                            8866-9887           3921-1367                               07961036CCSH       0000001833500000                                                                             
T000013006057601827900000000000000000000000016045200000011                                                                                                                                                                                                      
