H0000010060576018279บริษัท ไทเอซ สิสซิ่ง จำกัด              01092011TALHO                                                                                                                                                                                       
D000002006057601827901092011081837นายเอกสิทธิ์ ศรีแตงอ่อน  ทว 597                   8858-8689           7521-0359                               02590096CCLQ582751200000010000000040400                                                                         
D000003006057601827901092011082242นายเสริมศิลป์ โพนาคา มฉ3240                       8858-8199           0231-3074                               11320523CCSH       0000001700000000                                                                             
D000004006057601827901092011083938เฉลิม สมบัติมี                                    8826-9193           0621-9314                               02540078CCSH       0000000829300000                                                                             
D000005006057601827901092011090325นายพงศ์รพี ปรีชาไพศาลจิต                          8826-8598           1821-5366                               09550887CCSH       0000001856500000                                                                             
D000006006057601827901092011091541นายยุทธชนะ แดงอินทวัฒน์                           88543499            104115860                               02540020CCSH       0000001602440000                                                                             
D000007006057601827901092011094032เกริกเกียรติ มะลิโพธิ์กลาง                        88534399            104117514                               00101356CCSH       0000001575400000                                                                             
D000008006057601827901092011101812นายสุทที อัฒจันทร์                                88679983            50315071                                01210586CCSH       0000001745700000                                                                             
D000009006057601827901092011101900นายหวังการีม โซ๊ะวิเศษ ทล8015                     8868-9390           5021-8341                               08691092CCSH       0000001697800000                                                                             
D000010006057601827901092011101915นาง นงคราญ คำมอญ ทล 7464                          8828-9591           4421-7346                               04581882CCSH       0000002036500000                                                                             
D000011006057601827901092011102335นาย พสิษฐ์ สกุลวา  มฉ 6129                        8886-9893           9131-6072                               04581882CCSH       0000002062000000                                                                             
D000012006057601827901092011104641นัทวัฒน์ วงสุโท ทม6686                            88779494            66216318                                10270539CCSH       0000001583600000                                                                             
D000013006057601827901092011110957นิลวรรณ  สมประสงค์  ทศ9208                        8895-9883           8221-9360                               04950191CCSH       0000000567100000                                                                             
D000014006057601827901092011111046นายสุพล สืบดี ทย4956                              88789397            69214325                                07960037CCSH       0000001650000000                                                                             
D000015006057601827901092011112911นายสามารถ  พรมศักดิ์ ทย3770                       8818-8689           0721-3327                               00171297CCSH       0000000773900000                                                                             
D000016006057601827901092011112919นาย เอกพล  ลมจิตร  มจ 191                         8898-8899           1131-0069                               08400047CCSH       0000001212700000                                                                             
D000017006057601827901092011113024นาง อารยา  ลมจิตร  มจ 9507                        8896-8897           7531-9060                               08400047CCSH       0000001646500000                                                                             
D000018006057601827901092011113822นาย ไพบูลย์ วิทิตกนกปรีดา ทพ9736                  8876-8198           6721-9283                               04650665CCSH       0000001152700000                                                                             
D000019006057601827901092011114121นาวสาว นริสา จำนงนิตย์ ทม 5651                    88879398            16215315                                10071091CCSH       0000001890000000                                                                             
D000020006057601827901092011115138นางอนงค์  พงค์โสภี                                8827-9597           18213350                                05756198CCSH       0000001622400000                                                                             
D000021006057601827901092011120339นายรัฐพงศ์ สุวรรณศักดิ์ ทล2062                    88998699            20212346                                07950594CCSH       0000001665500000                                                                             
D000022006057601827901092011121429ณัฐพล ทรัพย์เอนก                                  8883-9690           8221-8286                               00980495CCSH       0000001523900000                                                                             
D000023006057601827901092011121702น.ส.วิยะดา ยิ่งยงค์ ทศ3503                        8866-9693           3521-3360                               11520390CCSH       0000001799200000                                                                             
D000024006057601827901092011122811นาย ประสูตร อินทรรักษ์ ทว 5810                    8807-9695           0821-5351           0866135171          07620610CCSH       0000001880000000                                                                             
D000025006057601827901092011123825นายธนดล สุขจิตต์ ทร1688                           8866-9598           8621-1338                               08691092CCSH       0000000468000000                                                                             
D000026006057601827901092011124506นายคณินทร์  นึ่งพุดซา                             88579995            90315053                                02251174CCSH       0000000827500000                                                                             
D000027006057601827901092011124545นงลักษณ์ จันต๊ะราชา  ทว5453                       8847-9486           3421-5355                               00651470CCSH       0000001970700000                                                                             
D000028006057601827901092011124639ดตงเสิม หยุ่นแก้ว                                 88098599            60212349                                01970208CCSH       0000001665500000                                                                             
D000029006057601827901092011124841นายชาญศักดิ์ สาระ นง5003                          88069994            30315050                                05750619CCSH       0000000815500000                                                                             
D000030006057601827901092011125906นาย พงษ์กฤษณ์ เกียรติเจริญพันธุ์ ทล 9028          8828-9880           8021-9342                               04581882CCSH       0000002150000000                                                                             
D000031006057601827901092011130249นางวัลลภา พรหมฤดี                                 8877-9194           3521-1329                               01086005CCSH       0000001580000000                                                                             
D000032006057601827901092011131242นายเพทาย ขันทนาลัย                                8807-8598           4721-4331           ทร4714              10253620CCSH       0000001378100000                                                                             
D000033006057601827901092011131609นาย สมชาย เอนจินทะ                                88179494            78314070                                05760932CCSH       0000001768500000                                                                             
D000034006057601827901092011132448นายปรีชา พราวศรี                                  8828-8798           9921-0354           ทว949               08698691CCSH       0000001920000000                                                                             
D000035006057601827901092011133042นายชินพันธุ์ รุจิเจริญโรจน์ ทย1446                8887-8798           6421-1324                               10360725CCSH       0000001139200000                                                                             
D000036006057601827901092011133411นางทัศนีย์ ลาภผลเจริญ                             8830-9291           9521-7315           ทม7559              10253620CCSH       0000000415000000                                                                             
D000037006057601827901092011140926นายไพรสิน คำอ่อน ทศ 6693                          8835-9898           3621-6369                               09749741CCSH       0000001874000000                                                                             
D000038006057601827901092011141248สุบิน งามปานแก้ว                                  88689097            66214347                                11342729CCSH       0000000235500000                                                                             
D000039006057601827901092011141629นายพงษ์ศักดิ์ วันอยู่                             8837-9096           8121-5350                               01210241CCSH       0000001884200000                                                                             
D000040006057601827901092011141807นาย ประเสริฐ สุริยะ ทม6580                        88478397            05216318                                07930240CCSH       0000001195200000                                                                             
D000041006057601827901092011142957นายวีระ ฉ่ำมณี                                    8846-8497           3921-5331                               00580618CCSH       0000000500000000                                                                             
D000042006057601827901092011150226นายเรืองเดช ภิญโญยิ่ง ทศ 7987                     88359396            79217368                                04603621CCSH       0000001920100000                                                                             
D000043006057601827901092011152900นายธีระศักดิ์   สุประภากร                         8838-9880           6721-8340                               00911077CCSH       0000001700000000                                                                             
D000044006057601827901092011153841วาสนา  สันติสุขสถาพร                              88688297            74212355                                02600520CCSH       0000001828800000                                                                             
D000045006057601827901092011162004นางชุติมา ธรรพสิทธิ์                              88279998            08212354                                09760107CCSH       0000001833500000                                                                             
D000046006057601827901092011162916วรพงศ์ พูลพิพิธ ทม4898                            8845-9297           8821-4319                               04880262CCSH       0000001220000000                                                                             
D000047006057601827901092011164413นายสรรเสริญ สีธงชัยรุ่งโรจน์ ทร5034               88368498            40215333                                07930240CCSH       0000001091500000                                                                             
D000048006057601827901092011164539นายสรรเสริย สีธงชัยรุ่งโรจน์ ทร 8316              88679690            63218331                                07930240CCSH       0000001492700000                                                                             
D000049006057601827901092011164718นายสมเกียรติ สีธงชัยรุ่งโรจน์ ทว 717              88169697            77210351                                07930240CCSH       0000001112900000                                                                             
D000050006057601827901092011164847นายสมเกียรติ สีธงชัยรุ่งโรจน์ ทม1072              88378197            20211317                                07930240CCSH       0000001382100000                                                                             
D000051006057601827901092011171230ประจบ โตพิทักษ์                                   8807-8398           3321-7353                               10090237CCSH       0000001979600000                                                                             
D000052006057601827901092011173945นาย วิษณุ  ไชยา  ทศ2527                           88886-9396          7521-2362                               08550648CCSH       0000002191500000                                                                             
D000053006057601827901092011174225นาย เมตตา นวมน้ำจิตต์ มช 498                      88159795            84310089                                08450154CCSH       0000001822500000                                                                             
D000054006057601827901092011180151ด.ต.วิรัตน์ ตะคุณนะ ทว 1428                       8838-8498           8421-1352                               11520390CCSH       0000002047400000                                                                             
D000055006057601827901092011180538นายกิตติศักดิ์ ร่ำรวย ทว8178                      8847-9691           8121-8357                               08691092CCSH       0000001975000000                                                                             
D000056006057601827901092011180856นางสาวปัทมา  ทรัพย์กลิ่น มฉ 5434                  8897-9491           4431-5073                               05690088CCSH       0000001730000000                                                                             
D000057006057601827901092011182134ร.อ.ณัฐ กาญจนโรจน์ ทว 5812                        8817-9695           2821-5351                               04770553CCSH       0000002715500000                                                                             
D000058006057601827901092011183442ภัคพงศ์  พลมีศักดิ์                               8836-9496           9421-2361                               07950091CCSH       0000001650000000                                                                             
D000059006057601827901092011183505นางหวานใจ โกศัลวิตร  ทร 5195                      88669993            5121-5339                               10990539CCSH       0000000857300000                                                                             
D000060006057601827901092011183751พุทธินันทน์ อ. ทล4836                             8878-9495           6821-4343                               10360281CCSH       0000001665500000                                                                             
D000061006057601827901092011194702เฉลิมชัย                                          8866-8697           8221-6368                               04930773CCSH       0000001940000000                                                                             
D000062006057601827901092011195005เฉลิมชัย สายคำ                                    4866-8997           8221-6368                               04930773CCSH       0000000363000000                                                                             
T000063006057601827900000000000000000000000091378940000061                                                                                                                                                                                                      
