H0000010060576018279บริษัท ไทเอซ สิสซิ่ง จำกัด              27122011TALHO                                                                                                                                                                                       
D000002006057601827927122011083831นายชาตรี  วงค์เพ็ญ                                88869997            38215338                                01500779CCSH       0000001207000000                                                                             
D000003006057601827927122011091555นางเข็มทอง   สงเคราะห์                            88769897            05211362                                04600142CCSH       0000001515300000                                                                             
D000004006057601827927122011092216ภัททิยา  จึง                                      88379690            20211344                                11342729CCSH       0000001890000000                                                                             
D000005006057601827927122011092933นายวัฒนา  เทพแสง                                  88516899            107065424                               01900549CCSH       0000001413000000                                                                             
D000006006057601827927122011094507นายประยุทธ ศรีอำนาจ                               88507699            100104553                               05760932CCSH       0000001908400000                                                                             
D000007006057601827927122011100915ไชยยา กลมเกลียว                                   88179683            95217350                                00170047CCSH       0000000064300000                                                                             
D000008006057601827927122011103453นายทองหล่อ  โภคา                                  88789492            09216340                                03970257CCSH       0000001700000000                                                                             
D000009006057601827927122011104519สุพล ทย4956                                       88789397            69214325                                07960038CCSH       0000001860600000                                                                             
D000010006057601827927122011105122นายรณชัย อินช่วย                                  88459995            64310087                                00740081CCSH       0000001697900000                                                                             
D000011006057601827927122011110720นายพุธชัย  โพธิ์ทอง มง8037                        88869987            70318053                                04600072CCSH       0000003225000000                                                                             
D000012006057601827927122011111601จ.ส.ต.เสกสรรค์ กลิ่นรอด                           88479496            89214359                                01991041CCSH       0000001799200000                                                                             
D000013006057601827927122011111656พ.ต.ณัฐ กาญจนโรจน์                                88969290            24218343                                04770515CCSH       0000001319900000                                                                             
D000014006057601827927122011112746นายพรประสิทธิ์ บัวเพชร ทล 9591                    8878-8399           1521-9349                               04603236CCSH       0000001884200000                                                                             
D000015006057601827927122011112840นายสุทิน เจาะจง  ทล 8122                          88089690            21218342                                01480206CCSH       0000001595500000                                                                             
D000016006057601827927122011113433นาย พงษ์ศักดิ์ บริบูรณ์ ทว 6228                   8857-9794           8221-6352                               04581882CCSH       0000001987300000                                                                             
D000017006057601827927122011113757น.ส.วณิชชา จำนงนิตย์  ทม 5651                     88507399            107073444                               01481887CCSH       0000000500000000                                                                             
D000018006057601827927122011113922นายสำรวย จากนอก                                   8836-8897           6221-6360                               00570221CCSH       0000001006600000                                                                             
D000019006057601827927122011114246นาง สุวทณีย์ จิตต์สนธิ                            88757697            48317074                                00880462CCSH       0000001799200000                                                                             
D000020006057601827927122011115532นายไสว  เทพแสง มจ5781                             88559598            17315068                                00280900CCSH       0000001286700000                                                                             
D000021006057601827927122011115806นางประทวน เขียวแล ทศ 4012                         88869692            20214361                                10371561CCSH       0000001928500000                                                                             
D000022006057601827927122011120538นายสมชาย ตราลาภ                                   88078599            15219352                                09550176CCSH       0000002000000000                                                                             
D000023006057601827927122011123256ดต.วิรัตน์  ตะคุณนะ ทย 7605                       8856-8397           5621-7320                               11521628CCSH       0000000597500000                                                                             
D000024006057601827927122011123843นายโอวาท ศรีตะกูลพร มฉ 6628                       88369598            86316072                                02530554CCSH       0000001700000000                                                                             
D000025006057601827927122011124320พล ศุภมงคล  สร้อยสายอุบล                          88779888            16213321                                00130755CCSH       0000000941500000                                                                             
D000026006057601827927122011131037นายวินัย ผลดี                                     88679792            86217353            ทว7638              10253620CCSH       0000004222000000                                                                             
D000027006057601827927122011133059จ.ส.ต. ยุทธภูมิ รัตนบัติ                          88369196            75210331                                10050475CCSH       0000001105700000                                                                             
D000028006057601827927122011133213นายคนันต์ งามเจริญ                                88989986            30210320                                00910850CCSH       0000001308000000                                                                             
D000029006057601827927122011133336นางพรรณา  วรรณโนรักษ์ ทว 6918                     8827-9793           8921-6351                               08510045CCSH       0000001602800000                                                                             
D000030006057601827927122011135738นายสาธิต ทองอร่ามเรือง  ทล3726                    88518989            107161814                               01480206CCSH       0000001449000000                                                                             
D000031006057601827927122011135932นายองอาจ มหิทธิโรจน์ ทล6441                       8868-9692           1421-6344                               02150082CCSH       0000001004800000                                                                             
D000032006057601827927122011140104นายองอาจ มหิทธิโรจน์ ทล6463                       8858-9692           3421-6346                               02150082CCSH       0000001004800000                                                                             
D000033006057601827927122011142454นาย  สวิต  วงษ์จำปา                               8877-9498           7021-3352           ทว3027              00611358CCSH       0000001807500000                                                                             
D000034006057601827927122011143611นายเวชยันต์ พรธิอั้ว                              88157697            44210355                                10270271CCSH       0000003826400000                                                                             
D000035006057601827927122011144020ดนุเดช  สายบัว มฉ.4624                            88179395            46314072                                05960547CCSH       0000001800000000                                                                             
D000036006057601827927122011145142นายประสิทธิ์ แจ้งเหตุผล                           88525299            107152834                               08770801CCSH       0000000927400000                                                                             
D000037006057601827927122011150422นางชนาทิพย์  สาทสนิท ทศ9480                       88524899            107034554                               05701141CCSH       0000001500000000                                                                             
D000038006057601827927122011151925นงลักษณ์ จันต๊ะราชา                               88479486            34215355                                10630515CCSH       0000001931000000                                                                             
D000039006057601827927122011153946นายวัชรินทร์ จงดูกลาง                             88869295            66214312                                03833635CCSH       0000000863900000                                                                             
D000040006057601827927122011154032นาย นิพนธ์ โง่นใจรัก                              88479792            07217356                                01370194CCSH       0000001884200000                                                                             
D000041006057601827927122011154239นายธเนศ ไกรสิทธิ์                                 88596698            107024624                               08691827CCSH       0000001300000000                                                                             
D000042006057601827927122011154259ยุทธพงศ์ พ. ทร1695                                88679393            56211339                                10360281CCSH       0000001580000000                                                                             
D000043006057601827927122011160220นายสุรัตน์  สังข์เงิน   ทล 1367                   88503199            107154503                               01200195CCSH       0000000919800000                                                                             
D000044006057601827927122011165041นางวันพร  องค์ศิริพร                              8816-9994           1321-3323                               10990536COTH       0000000910500000                                                                             
D000045006057601827927122011170605นายสมเกียรติ จิระศรีรังสรรค์                      88505099            107065942                               11140807CCSH       0000002000000000                                                                             
D000046006057601827927122011172332นายประเสริฐ สุริยะ                                88478397            05216318                                07930240CCSH       0000001262700000                                                                             
D000047006057601827927122011173510นาย มัด มลมิตร                                    88769987            54314072            มฉ4425              10250012CCSH       0000001747000000                                                                             
D000048006057601827927122011181227นางพัชรี  ศรีหาประทุม                             88769491            46218316                                08404479CCSH       0000000808500000                                                                             
D000049006057601827927122011182240นายวีระ ยุบลพริ้ง ทว6589                          88369887            95216358                                10320214CCSH       0000001550000000                                                                             
D000050006057601827927122011182859รตอ. ศุภกร ธัญญกรรม ทล5353                        88989984            33215345                                10154881CCSH       0000001617900000                                                                             
D000051006057601827927122011183015รตอ. ศุภกร ธัญญกรรม ทล9302                        88588899            23219340                                10154881CCSH       0000001432800000                                                                             
D000052006057601827927122011183133รตอ. ศุภกร ธัญญกรรม ทล4169                        88089797            91214346                                10154881CCSH       0000001476200000                                                                             
D000053006057601827927122011183158นางสาว กิตติพร ตรีศุภกานต์ ทว6376                 8897-9594           6321-6357                               04781103CCSH       0000001918500000                                                                             
T000054006057601827900000000000000000000000081589000000052                                                                                                                                                                                                      
