H0000010060576018279บริษัท ไทเอซ สิสซิ่ง จำกัด              10082011TALHO                                                                                                                                                                                       
D000002006057601827910082011083354นายรัศเธียร บัวคลี่  ทว3504                       8817-9788           4521-3350                               01480206CCSH       0000002014400000                                                                             
D000003006057601827910082011084102นายสิทธิวิชญ์ เกษมพงศ์วณิช                        8836-8497           6131-5077                               01820662CCSH       0000000400000000                                                                             
D000004006057601827910082011084311นางกรรณิการ์ สุบุญสันธิ์                          88359893            56210321                                01840202CCSH       0000000681100000                                                                             
D000005006057601827910082011084434นางพรนัชชา เนตรจุ้ย                               88459893            35217333                                01840202CCSH       0000000681100000                                                                             
D000006006057601827910082011084535นาย กิตตินัย ปึงประยูร                            8807-9198           7321-3351                               10900089CCSH       0000001947200000                                                                             
D000007006057601827910082011084842ประสิทธิ์ คำรัหษ์                                 8886-9991           5121-9332                               06320017CCSH       0000001543200000                                                                             
D000008006057601827910082011091015นายสมชาย พินยะเพียน                               8875-9196           0621-7366           ทศ 7660             01520196CCSH       0000001327900000                                                                             
D000009006057601827910082011091037นายเฉลา   ฉางทรัพย์  ทศ7004                       8805-9398           4021-7360                               00611358CCSH       0000001455300000                                                                             
D000010006057601827910082011091959สุกัญญา จันทร์แจ้ง                                88359986            50213328                                03870091CCSH       0000000005000000                                                                             
D000011006057601827910082011094051พ.ต.ท.จิตติณัติ  รักชาติ  ทศ5445                  8846-8299           5421-5364                               11300791CCLQ393476200000022000000040762                                                                         
D000012006057601827910082011094250พ.ต.ท.จิตติณัติ  รักชาติ  ทศ4443                  8816-9492           3421-4364                               11300791CCLQ393476100000020839000040762                                                                         
D000013006057601827910082011100255นาย วินัย ผลดี                                    8897-9395           6021-8337           ทร 8076             10250012CCSH       0000001683900000                                                                             
D000014006057601827910082011103442นางสาวนฤมล  ราชอาษา                               8827-8599           6621-3334                               01720479CCSH       0000001100000000                                                                             
D000015006057601827910082011104841นางสาววิชุดา พลายแก้ว                             8888-9496           0221-2310                               01270128CCSH       0000000604800000                                                                             
D000016006057601827910082011104928จ.ส.ท. อรรณนพ โคตรโสภา ทว 5439                    88079786            94215353                                01980529CCSH       0000001884200000                                                                             
D000017006057601827910082011105723นาง  นงคราญ  เขมะวิริยะ  ฐบ  7157                 8807-9790           7114-7245                               09760820CCSH       0000000328400000                                                                             
D000018006057601827910082011111105นาย อนุสรณ์  วารีน้อย  ทม 5553                    8826-9394           3521-5315                               01781712CCLQ103437600000014957000040766                                                                         
D000019006057601827910082011111401นายทองหล่อ โภคา                                   8859-9191           2121-1344           ทล1142              03970649CCSH       0000001185300000                                                                             
D000020006057601827910082011112124นายนิสสัย กล่าวเกลี้ยง ทล7057                     8888-9991           7021-7345                               11522040CCSH       0000000809000000                                                                             
D000021006057601827910082011112648นายสุวรรณ อุทสาร ทย 9670                          88869693            06219327                                02190833CCSH       0000000892600000                                                                             
D000022006057601827910082011113012นายสมมาด แสงสุขขา ทศ1875                          88669497            58211367                                04950176CCSH       0000001884200000                                                                             
D000023006057601827910082011115608นางทีตา พันลำจันทร์                               8835-9593           0221-5330                               03960229CCSH       0000001053000000                                                                             
D000024006057601827910082011120422นายสมนึก จิตรมนตรี ทว3297                         88479298            72213359                                02530836CCSH       0000001918500000                                                                             
D000025006057601827910082011121040นาง ศศิธร  เชาว์โน ทล2468                         8859-8598           8421-2346                               04880528CCSH       0000001499000000                                                                             
D000026006057601827910082011121514มยุรี นนทรีย์ ทว6176                              8877-9994           6121-6357                               01951142CCSH       0000001515300000                                                                             
D000027006057601827910082011121805สุชาติ เรืองเผ่าพันธ์ ษง3638                      8865-9593           8637-3053                               01951142CCSH       0000000815700000                                                                             
D000028006057601827910082011121846นายสันติ คำคง                                     8805-9796           1331-9037           มค9371              05750020CCSH       0000000364100000                                                                             
D000029006057601827910082011122016นางภัสรา เรศสุข ทศ5620                            8866-8299           0621-5362                               08405593CCSH       0000001799200000                                                                             
D000030006057601827910082011122215นางภัสรา เรศสุข ทศ5626                            8856-8299           6621-5362                               08405593CCSH       0000001799200000                                                                             
D000031006057601827910082011122402นางภัสรา เรศสุข ทศ5630                            8876-8299           0621-5363                               08405593CCSH       0000001799200000                                                                             
D000032006057601827910082011122605นางภัสรา เรศสุข ทศ5636                            8886-8299           6621-5363                               08405593CCSH       0000001799200000                                                                             
D000033006057601827910082011123252นาย วิรัตน์  ติ่งทอง  ทศ266                       8867-8098           6221-0366                               02590608CCSH       0000001700000000                                                                             
D000034006057601827910082011123446สฤทธิ์ เสนสอน                                     88889093            79215342                                04692643CCSH       0000001734300000                                                                             
D000035006057601827910082011123458นาย จักร แท่งเหล็ก ทล 5355                        88889394            53215345                                10270592CCSH       0000001617900000                                                                             
D000036006057601827910082011124216นายสุริยันต์ ทองโพธิ์ศรี ทล9182                   8857-7897           2121-9348                               05670390CCSH       0000001838900000                                                                             
D000037006057601827910082011124906นาย ธีรพงศ์ กองแก้ว ทร 2717                       88209891            77212331                                10270592CCSH       0000001094800000                                                                             
D000038006057601827910082011130005พ.ต.ณัฐ กาญจนโรจน์                                8896-9290           2421-8343                               04770491CCSH       0000001382100000                                                                             
D000039006057601827910082011130318ประจักษ์ เวชปาน ทม 5376                           88369791            63215317                                01980529CCSH       0000000939800000                                                                             
D000040006057601827910082011134916นายสำเร็จ บุตรปราบ ทว8498                         88179691            84218359                                04950176CCSH       0000001070000000                                                                             
D000041006057601827910082011140906นายนิวัช แสงหนักใจ                                8868-8997           3521-1359                               11240437CCSH       0000001793800000                                                                             
D000042006057601827910082011141025วิทยา แซ่จึง                                      88559597            33217362                                09760107CCSH       0000001501600000                                                                             
D000043006057601827910082011141233วิทยา แซ่จึง                                      48459997            33217362                                09760107CCSH       0000000321000000                                                                             
D000044006057601827910082011141718นายสุวรรณ  เนื่องดิถี ทม 5641                     8846-9895           1621-5314                               00620586CCSH       0000001159200000                                                                             
D000045006057601827910082011142200นาย วิลาศ สวัสดิ์วราห์กุล ทย 2937                 8807-9493           7921-2323                               11140702CCSH       0000000529100000                                                                             
D000046006057601827910082011142222นางสาว รวิตา ธิสาร  มจ.6756                       88879983            6731-6065           0806296875          00207452CCSH       0000001810000000                                                                             
D000047006057601827910082011142913ร.อ. ฤทธิชัย ปรีชาจารย์                           8848-8299           5821-9342           ทล9825              00600443CCSH       0000001834700000                                                                             
D000048006057601827910082011143355นาย  เผชิญ   โพธิ์ศรี ทว6007                      8837-9395           7021-6350                               00611358CCSH       0000001884200000                                                                             
D000049006057601827910082011143741นางสาวพิมพ์ชนก  แซ่ตั้ง  ทร 496                   8847-9493           6421-0339                               01770208CCSH       0000000869800000                                                                             
D000050006057601827910082011145456น.ต.ยอด  แย้มยืนยงค์ ทว 4275                      8897-9787           5221-4357                               00650326CCSH       0000001813700000                                                                             
D000051006057601827910082011145923นายธงชัย สุขศิริ ทย 1489                          8851-9991           9421-1328                               01089009CCSH       0000001335500000                                                                             
D000052006057601827910082011150552นาย ภูเมศ ภู่เกลี้ยง                              8805-9397           1121-5340                               08568561CCSH       0000001814600000                                                                             
D000053006057601827910082011150855นายราเชนทร์ จันทร์ศรีเมือง                        88589291            40218340                                01210586CCSH       0000001804300000                                                                             
D000054006057601827910082011151539พงษ์ศักดิ์ หิรัญวรรณ                              8886-9194           5121-3367                               05970092CCSH       0000001500700000                                                                             
D000055006057601827910082011152609นาย กฤษณะ จันโอ                                   8818-9797           5421-4336                               02190075CCSH       0000001604600000                                                                             
D000056006057601827910082011153139นาย ชัยรัตน์ พัฒนจันทร์                           8836-9190           1131-3058                               10151005CCSH       0000001267800000                                                                             
D000057006057601827910082011154755น.ส. นงนารถ ปัญญา ทล 8617                         88389980            76218341                                01481887CCSH       0000001700000000                                                                             
D000058006057601827910082011160004นาย พงษ์เทพ จึงตระกูล มฉ1167                      8875-9493           7131-1076                               05700914CCSH       0000001179200000                                                                             
D000059006057601827910082011161141จารึก ชัณษา                                       88879783            13210346                                02560119CCSH       0000002660000000                                                                             
D000060006057601827910082011162436ขนิษฐา  ทิพยโส                                    8886-9695           0821-7320                               04930687CCSH       0000002143000000                                                                             
D000061006057601827910082011163045นายสรรเสริญ สีธงชัยรุ่งโรจน์ ทศ 6050              88168698            00216365                                07930727CCSH       0000001091500000                                                                             
D000062006057601827910082011163112น.ส.สุมาลี ศรีอินทร์ ทว5402                       8857-9686           2421-5350                               10320214CCSH       0000001884200000                                                                             
D000063006057601827910082011163134นายสรรเสริญ สีธงชัยรุ่งโรจน์ ทย8872               88268698            28218327                                07930727CCSH       0000001091500000                                                                             
D000064006057601827910082011163222นายสมเกียรติ สีธงชัยรุ่งโรจน์ ทศ2343              88469792            33212364                                07930727CCSH       0000001132000000                                                                             
D000065006057601827910082011164154พุทธา พลนันท์                                     88378699            82313050                                10365296CCSH       0000001000000000                                                                             
D000066006057601827910082011165841นางสาว วรกมล  บุญมา                               นางสาว วรกมล  บุญมา                                         08550648CCSH       0000002352600000                                                                             
D000067006057601827910082011170253นาง  อารยา  ลมจิตร                                8896-8897           7531-9060           มจ9507              07990852CCSH       0000001646500000                                                                             
D000068006057601827910082011173030นายพงศ์เพียร เพียรสวัสดิ์ มจ3391                  8888-9681           1331-3069                               08691092CCSH       0000002683400000                                                                             
D000069006057601827910082011181818นายวรวิทย์ และสง่า                                8867-9992           2021-1345                               05690127CCSH       0000001612000000                                                                             
D000070006057601827910082011182109นายประจัยชัย  อัฒจักร                             8816-9992           8731-3059                               07661056CCSH       0000000130000000                                                                             
D000071006057601827910082011184019นางสุนิจ  สมบัติ  ทร 2854                         8896-9295           4821-2335                               04670545CCSH       0000001000000000                                                                             
D000072006057601827910082011184311นายสำฤทธิ์ แก่นจันทร์ ทล4650                      8818-9097           0621-4345                               09740222CCSH       0000001754000000                                                                             
D000073006057601827910082011185021ศักดิ์สิทธิ์ พิริยะไพโรจน์                        8826-9886           6521-7357                               10810244CCSH       0000001884200000                                                                             
T000074006057601827900000000000000000000000101736100000072                                                                                                                                                                                                      
