H0000010060576018279บริษัท ไทเอซ สิสซิ่ง จำกัด              07032012TALHO                                                                                                                                                                                       
D000002006057601827907032012111101สมชาย                                             8897-8399           2221-2348                               05970092CCSH       0000001553700000                                                                             
D000003006057601827907032012114712น.ส.รัชนีวรรณ บุตรานนท์                           88517099            106166498                               07758583CCSH       0000000212800000                                                                             
D000004006057601827907032012115913นางสุพรรณี ภูนุภา                                 48659997            62217367                                10720567CCSH       0000000300000000                                                                             
D000005006057601827907032012120024นางสุพรรณี ภูนุภา                                 88059797            62217367                                10720567CCSH       0000001756700000                                                                             
D000006006057601827907032012120156นายสมมาด แสงสุขขา ทศ1875                          8866-9497           5821-1367                               04950486CCSH       0000001884200000                                                                             
D000007006057601827907032012120242นายสมมาด แสงสุขขา ทว7504                          88579992            45217350                                04950486CCSH       0000001515300000                                                                             
D000008006057601827907032012122958นายสมพร โพธิ์สว่าง                                8877-8197           5421-5327                               07620489CCSH       0000001420000000                                                                             
D000009006057601827907032012124048SURACHA  T.                                       88531699            107160824                               08510239CCSH       0000001400000000                                                                             
D000010006057601827907032012124155ประจัญชัย อัฒจักร                                 88169992            87313059                                07660694CCSH       0000000718700000                                                                             
D000011006057601827907032012125726นาย ไสว เทพแสง มจ5781                             88559598            17315068                                08691827CCSH       0000001286700000                                                                             
D000012006057601827907032012130849นายสันต์ ลาภรุ่งเรือง                             88590898            106113947                               05700127CCSH       0000001030000000                                                                             
D000013006057601827907032012130932นายสันต์ ลาภรุ่งเรือง                             8599798             106119256                               05700127CCSH       0000001030000000                                                                             
D000014006057601827907032012141459นายวรวิทย์ ทิพนัด                                 88189090            67218344            ทล8746              08510518CCSH       0000001622500000                                                                             
D000015006057601827907032012141554นายวรวิทย์ ทิพนัด                                 88269993            52214326            ทย4265              08510518CCSH       0000000552800000                                                                             
D000016006057601827907032012143705นายปริญญา คงคาสุริยฉาย                            88179090            99089403                                10810244CCSH       0000001258600000                                                                             
D000017006057601827907032012145119นางสาวสุนันท์ แก้วเผือก                           8816-8999           5009-7400                               06900847CCSH       0000000312100000                                                                             
D000018006057601827907032012154944นางดาลานี วงษา ทศ3601                             88769793            16213360                                10320214CCSH       0000002274450000                                                                             
D000019006057601827907032012171513นาย สรรเสริญ สีธงชัยรุ่งโรจน์ ทย 6774             88468597            47216327                                07937931CCSH       0000001010600000                                                                             
D000020006057601827907032012171740นางกชกร สุยะ                                      88512999            030126620                               07620489CCSH       0000000780300000                                                                             
D000021006057601827907032012172944นางสัญญา จันเวียง                                 88519699            106112638                               11370660CCSH       0000001793000000                                                                             
D000022006057601827907032012180437นายอนุสรณ์ วารีน้อย                               88537799            106138007                               10060150CCSH       0000001658500000                                                                             
D000023006057601827907032012180650นาง บุญมี สิงห์ป้อง                               88679094            54216357            ทว6475              10250256CCSH       0000001884200000                                                                             
D000024006057601827907032012182119นายสมพงษ์ ติคำ                                    88503099            000025503                               10720567CCSH       0000001508500000                                                                             
D000025006057601827907032012183130นายเจริญ จันทร์แสนตอ                              88079492            72315072                                10720144CCSH       0000001880000000                                                                             
D000026006057601827907032012183832ภัคจิรา  เอี่ยมนอก                                88959396            06216360                                10670819CCSH       0000002020000000                                                                             
D000027006057601827907032012184404นาย จักรชัย ลมัยกุล                               88169890            28311065                                09629621CCSH       0000000700000000                                                                             
D000028006057601827907032012184514SUCHART  I.                                       88489398            88213346                                08510239CCSH       0000001665500000                                                                             
D000029006057601827907032012191110นางสาว วรกมล  บุญมา ทศ7231                        88259797            12217363                                08550648CCSH       0000002352600000                                                                             
T000030006057601827900000000000000000000000037381750000028                                                                                                                                                                                                      
