H0000010060576018279บริษัท ไทเอซ สิสซิ่ง จำกัด              27022012TALHO                                                                                                                                                                                       
D000002006057601827927022012082952นางสาว ทองไสย สิงห์น้อย ทศ 5736                   88068898            67215363                                00251980CCSH       0000001800000000                                                                             
D000003006057601827927022012083825นายหวัน กาฬภักดี                                  88504199            107039670           ทพ 8919             07410893CCSH       0000001025500000                                                                             
D000004006057601827927022012085935นางเยาวะรัชน์ โคมแก้ว ทร 2850                     88959194            08212335                                04580699CCSH       0000000648600000                                                                             
D000005006057601827927022012090315นางสาวรัชนีวรรณ  บุตรานนท์                        88517099            106166498                               07750920CCSH       0000000809000000                                                                             
D000006006057601827927022012090813นายสิทธิวิชญ์ เกษมพงศ์วณิช                        88368497            61315077            มฉ5176              01820662CCSH       0000001458700000                                                                             
D000007006057601827927022012092044นายวรพงศ์ พูลพิพิธ                                88189591            73211311                                04592453CCSH       0000000150000000                                                                             
D000008006057601827927022012092833นางสาว ศิริกานดา  ทานุรัตน์  ทศ  2135             8889-9796           5121-2363                               03970523CCSH       0000001799200000                                                                             
D000009006057601827927022012092956นาย สุรศักดิ์ อินทศร  ทว 5449                     8887-9386           9421-5354                               04581882CCSH       0000002529300000                                                                             
D000010006057601827927022012100453นายสฤษดิ์ศักดิ์  พินิจกุลดี                       88769787            40212363                                09760114CCSH       0000001172800000                                                                             
D000011006057601827927022012100804นางภัททิยา จึงเจริญกิจไพศาล ทล 1042               8837-9690           2021-1344                               01520684CCSH       0000001890000000                                                                             
D000012006057601827927022012105210พ.ท.เรวัต มากกุญชร ทว7037                         88479393            70217353                                04730614CCSH       0000002084000000                                                                             
D000013006057601827927022012110103นายสุรพงษ์ วงศ์กำภู                               88759795            14218364                                01230490CCSH       0000001812300000                                                                             
D000014006057601827927022012110406นาย ทิพย์มนต์ สวนไพรินทร์(ทว 8422)                88359698            24218352                                01921386CCSH       0000001944800000                                                                             
D000015006057601827927022012111455นาง จารุวรรณ เลิศไกร ทย 4960                      8846-9594           0921-4326                               09550503CCSH       0000001839300000                                                                             
D000016006057601827927022012111728นายนันท์มนัส พอใจ ทว7834                          88179692            48217353                                08691092CCSH       0000001884200000                                                                             
D000017006057601827927022012112733นายเกียรติศักดิ์ บุญเอก                           8886-9996           5321-2322           ทย 2325             11330915CCSH       0000001301000000                                                                             
D000018006057601827927022012113008นาย ประจักษ์ เวชปาน                               88369791            63215317                                01980916CCSH       0000000939800000                                                                             
D000019006057601827927022012113854นายเทพอำพล ประสงค์ทรัพย์ ทล7687                   88389990            76217348                                07341146CCSH       0000001542400000                                                                             
D000020006057601827927022012114239พลฯศุภมงคล  สร้อยสายอุบล                          88779888            16213321                                07930498CCSH       0000000907700000                                                                             
D000021006057601827927022012114449นายเสนอ สุดศรี                                    88889592            54216342                                01771050CCSH       0000001734300000                                                                             
D000022006057601827927022012120011ด.ต.สายชล กฤษวงษ์ ทศ53                            8867-8598           3021-0365                               07660497CCSH       0000001884200000                                                                             
D000023006057601827927022012122155นาย สนิท ขุนทอง                                   88079694            06314079                                07690544CCSH       0000001833500000                                                                             
D000024006057601827927022012122420นายสายธาร พันธ์ศรี ทร 7265                        88059498            52217336                                07650138CCSH       0000001238000000                                                                             
D000025006057601827927022012122945นายมงคล พลรักษา ทว 9440                           8817-8699           0421-9354                               07650577CCSH       0000001834200000                                                                             
D000026006057601827927022012124642พล ชะนะมี มฉ4281                                  88779796            12314078                                01990939CCSH       0000001021800000                                                                             
D000027006057601827927022012124944นาง สุมาลี  สังข์ทอง                              8827-9587           8521-4356                               07661135CCSH       0000001239500000                                                                             
D000028006057601827927022012130021นายปราโมทย์ อภิรมย์ดี                             8847-9092           6721-6315                               10200553CCSH       0000000204200000                                                                             
D000029006057601827927022012130658นางสาววิชุดา พลายแก้ว                             88789496            18217312                                01270128CCSH       0000001603600000                                                                             
D000030006057601827927022012130810นายนิพนธ์  โง่นใจรัก  ทว  7760                    88479792            07217356                                01100063CCSH       0000001884200000                                                                             
D000031006057601827927022012130858นาย วิรัตน์  วาณิชพิเชียร                         88479094            65216353                                00190408CCSH       0000001967800000                                                                             
D000032006057601827927022012132022นายวิรัช อ่อนละออ                                 88502399            106155697                               06990912CCSH       0000001530600000                                                                             
D000033006057601827927022012132043นายสุนัย  พรมไพโรจน์ ทย 7596                      88468698            65217329                                09760114CCSH       0000001374400000                                                                             
D000034006057601827927022012132544นางธนันทร หอมหวล ทว4993                           88579496            39214359                                07960037CCSH       0000001104300000                                                                             
D000035006057601827927022012132945นายบวร  วันเพ็ญ ทว 826                            88288698            68210352                                06921923CCSH       0000001884200000                                                                             
D000036006057601827927022012134331นายปัญญา ศรีคำ                                    88979795            76215359                                02580146CCSH       0000001954500000                                                                             
D000037006057601827927022012134548สาคร  นามใจยา                                     8899-9896           1521-7335                               01100576CCSH       0000000202800000                                                                             
D000038006057601827927022012134728สาคร  นามใจยา                                     88679397            63211342                                01100576CCSH       0000000235500000                                                                             
D000039006057601827927022012141539นายสมพงษ์ จิตวรางกูร                              88899694            36218337                                01880018CCSH       0000001140000000                                                                             
D000040006057601827927022012141733ด.ต.วิรัตน์ ตะคุณนะ ทย 7605                       88568397            56217320                                05670406CCSH       0000000632700000                                                                             
D000041006057601827927022012141734นายกิตติศักดิ์ อารัณย์รักษ์ ทย9993                8806-9198           3921-9329                               05980234CCSH       0000001479400000                                                                             
D000042006057601827927022012141746ศุภกร วิเศษธนาดุล ทย6327                          88508899            107104674                               10270539CCSH       0000001207500000                                                                             
D000043006057601827927022012142151ประดิษฐ์ ไลยการ                                   88759898            07216361                                04607752CCSH       0000001200300000                                                                             
D000044006057601827927022012142543นางสาวหยาดอรุณ ศรีทับทิม                          88479297            79212335                                04711084CCSH       0000001800000000                                                                             
D000045006057601827927022012143206นายบุญเทิด มาชุมแสง                               88779593            20315072                                06910170CCSH       0000000130000000                                                                             
D000046006057601827927022012143406นายดำรงค์ ภูทองขาว                                88068698            3121-6362           ทศ 6123             01870676CCSH       0000001839700000                                                                             
D000047006057601827927022012143533นายยุทธพงศ์ เพิ่มพรพิทักษ์ ทร1695                 88679393            56211339                                10360570CCSH       0000001580000000                                                                             
D000048006057601827927022012143646นายทีระชาติ ภิญโญ                                 88068499            73214364                                00240918CCSH       0000001748600000                                                                             
D000049006057601827927022012144036นายอริย์ธัช วิสาติ ทว 8465                        88679990            54218356                                00820726CCSH       0000001402200000                                                                             
D000050006057601827927022012144854ประพันธ์ ริเป๊ก                                   88169792            18213369                                11730509CCSH       0000001799200000                                                                             
D000051006057601827927022012150118นายอนุสรณ์  วารีน้อย                              88479981            73217358                                01780229CCSH       0000001344700000                                                                             
D000052006057601827927022012150951นาย กิ๋ม พาดขุนทด (0817726336)                    88088499            07219340            ทล 9700             08552980CCSH       0000001700000000                                                                             
D000053006057601827927022012151756นางเฉลา   อำนวนพานิช                              8897-8497           3721-0364           ทศ 743              01446513CCSH       0000001549600000                                                                             
D000054006057601827927022012153659นาย วัฒนศักดิ์   ศรีบรบือ                         8896-8699           7121-9347                               03420997CCSH       0000001831500000                                                                             
D000055006057601827927022012155937นางแสงเดือน เพ็ชรนิล                              88592598            106112505                               10430894CCSH       0000001542800000                                                                             
D000056006057601827927022012160221นางพัชรี  ศรีหาประทุม                             88769491            46218316                                11861304CCSH       0000001014000000                                                                             
D000057006057601827927022012160505รณชัย อินช่วย                                     88459995            64310087                                10900400CCSH       0000001697900000                                                                             
D000058006057601827927022012160936นางสาวพวงเพ็ญ ศิริพละ ทว 4189                     88179297            91214358                                04580699CCSH       0000001124500000                                                                             
D000059006057601827927022012160948ด.ต.เสิม  หยุ่นแก้ว                               88859496            88217361                                01970208CCSH       0000001822300000                                                                             
D000060006057601827927022012161017นางสาวพวงเพ็ญ ศิริพละ ทว 4189                     88179297            91214358                                04580699CCSH       0000002116700000                                                                             
D000061006057601827927022012161102นางสาวพวงเพ็ญ ศิริพละ ทว 4158                     88279297            81214355                                04580699CCSH       0000002116700000                                                                             
D000062006057601827927022012161138นางสาวพวงเพ็ญ ศิริพละ ทว 4158                     88279297            81214355                                04580699CCSH       0000001124500000                                                                             
D000063006057601827927022012161836นาย มัด มลมิตร                                    88769987            54314072            มฉ4425              10250256CCSH       0000001715600000                                                                             
D000064006057601827927022012172921นางสาว น้ำฝน จันทร์หอม                            88889893            56215345                                00860082CCSH       0000001212800000                                                                             
D000065006057601827927022012173942นายนิยม กล้าหาญ มช123                             88598498            107114878                               08691092CCSH       0000000453000000                                                                             
D000066006057601827927022012175036นายวีระ ยุบลพริ้ง ทว6589                          88369887            95216358                                10320214CCSH       0000001550000000                                                                             
D000067006057601827927022012175147นางสาว นัฐพร ประวงษ์ ทม3599                       8896-9193           9521-3319                               00860606CCSH       0000000457000000                                                                             
D000068006057601827927022012182535นางจินตรัตน์ อุทัยพยัคฆ์                          88079995            06215355                                09740387CCSH       0000001884200000                                                                             
D000069006057601827927022012185018ขวัญหทัย ดีใจ                                     88479795            17215350                                10365296CCSH       0000001884200000                                                                             
D000070006057601827927022012192151นางสาว สาวิตรี  จิตมั่น                           88571298            310001385                               07661135CCSH       0000000579600000                                                                             
D000071006057601827927022012192429นายถนอม สารลี                                     88574598            106123228           ทล7391              04930415CCSH       0000001370300000                                                                             
T000072006057601827900000000000000000000000098321700000070                                                                                                                                                                                                      
