H0000010060576018279บริษัท ไทเอซ สิสซิ่ง จำกัด              25082011TALHO                                                                                                                                                                                       
D000002006057601827925082011084516นายประสิทธิ์  หอมสนั่น  มฉ  2840                  8888-9990           0831-2074                               04990266CCSH       0000001799200000                                                                             
D000003006057601827925082011084714นายประสิทธิ์  หอมสนั่น  มฉ  2840                  8888-9990           0831-2074                               04990266CCSH       0000001323800000                                                                             
D000004006057601827925082011090958นายสัมเดช  เกลี้ยงดี ทร1348                       8816-9995           8321-1334                               04600072CCSH       0000001550000000                                                                             
D000005006057601827925082011091243นายครกริช กรศุภกุล ทว 5177                        88279496            71215357                                01266669CCSH       0000002074500000                                                                             
D000006006057601827925082011091845นาย อนุกูล แก้ววิเชียร ทล8454                     8868-9190           4421-8345                               01921386CCSH       0000001700000000                                                                             
D000007006057601827925082011091955นาย อนุกูล แก้ววิเชียร ทศ1963                     8846-9591           3921-1366                               01921386CCSH       0000001884200000                                                                             
D000008006057601827925082011092131นาย อนุกูล แก้ววิเชียร ทศ4802                     8876-9590           2821-4360                               01921386CCSH       0000001884200000                                                                             
D000009006057601827925082011094101นายศราวุธ วิเก็ง ทศ 9348                          8885-9693           8321-9364                               02530654CCSH       0000002750300000                                                                             
D000010006057601827925082011094123สิทธิวิชญ์ เกษมพงศ์วณิช                           8836-8497           6131-5077                               01820154CCSH       0000001430700000                                                                             
D000011006057601827925082011094337น.ส.ดวงพร ภาระจ่า ทศ 7701                         8875-9696           1721-7360                               02530654CCSH       0000002042700000                                                                             
D000012006057601827925082011094352นายเสนอ  สุดศรี  ทล 6425                          88889592            54216342                                01770444CCSH       0000001734300000                                                                             
D000013006057601827925082011094419นาย ชัชรินทร์ ไทรย้อย มฉ7328                      8896-9495           8331-7072                               04581882CCSH       0000001515300000                                                                             
D000014006057601827925082011102125นาย ชนินทร์ อ่อนใจเอื้อ                           8888-9682           3731-2071                               00660527CCSH       0000000491500000                                                                             
D000015006057601827925082011102314คุณปราโมทย์                                       8847-9092           6721-6315                               10200129CCSH       0000000843000000                                                                             
D000016006057601827925082011103618รัชนงค์  เชียงศรี                                 8888-9391           4421-7343                               00397779CCSH       0000001622400000                                                                             
D000017006057601827925082011103753ชัยณรงค์  เชียงศรี                                8888-9691           6221-7348                               00397779CCSH       0000001943900000                                                                             
D000018006057601827925082011104311นาง ธมน จันทะเหล็ก ทศ 1476                        8866-9897           6421-1367                               02501180CCSH       0000001884200000                                                                             
D000019006057601827925082011105518นายอำพร ซองทอง                                    8830-9896           1221-8322                               10320746CCSH       0000000090000000                                                                             
D000020006057601827925082011111215นาย กองสี  เหล่าตรี ทย 6806                       8846-9398           6821-6320                               01951095CCSH       0000001050400000                                                                             
D000021006057601827925082011111716นางสัมฤทธิ์   เกิดชู  ทย 464                      8846-9498           4421-0326                               04670545CCSH       0000001030000000                                                                             
D000022006057601827925082011112016นายปรีชา สุขสมร                                   8857-9896           9231-4075                               00000762CCSH       0000001700000000                                                                             
D000023006057601827925082011112821เสกสรรค์ กลิ่นรอด ทว4998                          8847-9496           8921-4359                               01990939COTH       0000001799200000                                                                             
D000024006057601827925082011113419จสอ.สุรพล ชุมพลพันธ์ มฉ 4059                      8877-9997           9031-4075                               04580699CCSH       0000001875000000                                                                             
D000025006057601827925082011113611นายมงคล  มูลมณี                                   8868-9793           7031-2071                               06920406CCSH       0000001688700000                                                                             
D000026006057601827925082011113904นายทินภัทร วันทา 0865666033                       8885-9896           0621-7364                               11474993CCSH       0000001863100000                                                                             
D000027006057601827925082011114129นาย โอวาท ศรีตระกูลพร มฉ 6628                     8836-9598           8631-6072                               02501180CCSH       0000001659400000                                                                             
D000028006057601827925082011115035อรัญ ขาวเนตร                                      88578599            45219352                                00650260CCSH       0000001974500000                                                                             
D000029006057601827925082011115545นางเยาวะรัชน์ โคมแก้ว ทร 2850                     8895-9194           0821-2335                               04580699CCSH       0000000646800000                                                                             
D000030006057601827925082011120017นาย นรชัย  แพงศร  ทศ 2128                         8896-9896           8121-2362                               09760540CCSH       0000001884200000                                                                             
D000031006057601827925082011120412นายสมปอง โข่สูงเนิน                               8897-9092           3531-6051                               10320746CCSH       0000001082900000                                                                             
D000032006057601827925082011120413สมชาติ จันทร์ฤดี                                  88569797            04211368                                00170047CCSH       0000001884200000                                                                             
D000033006057601827925082011121051นายยอด ศรีราชา                                    8836-7997           5821-7321                               01810675CCSH       0000000881900000                                                                             
D000034006057601827925082011121709พรทิพา วิเชียรโชติ                                88899791            68210340                                00590110CCSH       0000001665500000                                                                             
D000035006057601827925082011122104พ.อ.หญิง วิภาจรี ณ ตะกั่วุท่ง                     88699791            38210340                                00590110CCSH       0000001665500000                                                                             
D000036006057601827925082011130049นาย บวร วันเพ็ญ  ทว826                            8828-8698           6821-0352                               06920151CCSH       0000001884200000                                                                             
D000037006057601827925082011130241นายชญาณัตถพล เขมรพันธ์                            8887-9793           2931-4071                               00820194CCSH       0000001734000000                                                                             
D000038006057601827925082011131231ณรงค์ ภู่กรุต                                     ทล 8185                                                     07969064CCSH       0000001321500000                                                                             
D000039006057601827925082011131317พงษ์ศักดิ์  บุญมา                                 88969197            48211367                                11310957CCSH       0000000030000000                                                                             
D000040006057601827925082011131339นายสุพจน์ ภาคฐิน                                  8846-9897           7621-1362                               10331749CCSH       0000001864400000                                                                             
D000041006057601827925082011134252นางสาว วรรณวิการ์ ศิริเจริญ                       88889598            87213342            ทล3728              04881144CCSH       0000001800000000                                                                             
D000042006057601827925082011134945นาย เจอดศักดิ์  ละอองศรี ทล 5202                  8848-9794           2221-5340                               10250225CCSH       0000003300000000                                                                             
D000043006057601827925082011135900นายกุล โสมณวัฒน์                                  8889-9492           6321-0345           ทล 356              10525505CCSH       0000001742400000                                                                             
D000044006057601827925082011141443นางกาญจนา คำภา ทล1181                             8869-9891           1121-1348                               01951137CCSH       0000001665500000                                                                             
D000045006057601827925082011141945บัวทอง มั่นแม่น                                   8808-9893           4621-5342                               00980495CCSH       0000001617900000                                                                             
D000046006057601827925082011143329นาย สมบูรณ์ เนตรแสงศรี ทย 8290                    8837-8297           0221-8329                               02501180CCSH       0000001806000000                                                                             
D000047006057601827925082011143657นายชาตรี  เวษาสิทธิ์                              8805-9495           7221-2321                               00281171CCSH       0000000980300000                                                                             
D000048006057601827925082011143827นายสมพร  โยธาจันทร์                               88059898            95312061                                00981066CCSH       0000001198500000                                                                             
D000049006057601827925082011150943นายนิพนธ์ โง่นใจรัก                               8847-9792           0721-7356                               00631326CCSH       0000001884200000                                                                             
D000050006057601827925082011152434นายมานิตย์ พลพฤกษ์                                8808-8898           6721-0354                               01980916CCSH       0000001530000000                                                                             
D000051006057601827925082011154823วิรัตน์ วาณิชพิเชียร                              88479094            65216353                                00190041CCSH       0000001955000000                                                                             
D000052006057601827925082011160824นายเกรียงไกร ศรอินทร์                             8896-9492           6421-2328                               10320746CCSH       0000000102000000                                                                             
D000053006057601827925082011161027นาย เชี่ยว ไหมดำ                                  8876-9498           3031-3064           มจ 3043             00950541CCSH       0000001500000000                                                                             
D000054006057601827925082011161359นาย คมสัน ศรีวะรมย์                               8888-9492           9321-6345                               07620396CCSH       0000001774800000                                                                             
D000055006057601827925082011162327นายอภิชิต สุวรรณคณารักษ์                          8837-9093           6021-0348                               01860389CCSH       0000000034300000                                                                             
D000056006057601827925082011162419นายมาโนช นภากาศ                                   88079795            86314072                                09760107CCSH       0000002350000000                                                                             
D000057006057601827925082011163731นาย ขวัญเมือง อยู่คง ทล 3128                      8809-8897           8121-3342                               09741083CCSH       0000001830600000                                                                             
D000058006057601827925082011164346นายวิรุช สุทธิจันทร์ ทม1777                       8848-9593           7721-1317                               04781103CCSH       0000001447100000                                                                             
D000059006057601827925082011173546นาย ทองเสาว์ นนท์ยะโส ทล3001                      8809-8997           1021-3340                               00000215CCSH       0000001665500000                                                                             
D000060006057601827925082011175929คุณ บุญเลิศ สาระพร ทล 4042                        88389298            20214344                                11250101CCSH       0000001504500000                                                                             
D000061006057601827925082011180106นาย ทศพล ผาช้างเผือก มฉ4088                       8866-9296           8031-4078                               08450531CCSH       0000000300000000                                                                             
D000062006057601827925082011181007นายวรพงศ์  พูลพิพิธ  ทม1317                       8818-9591           7321-1311                               04880055CCSH       0000000400000000                                                                             
D000063006057601827925082011181348วิยะดา ยิ่งยงค์                                   88978197            07210365                                10990515CCSH       0000001897200000                                                                             
D000064006057601827925082011181608นาย เฉลา ศรีนาค มจ  2581                          8866-9594           15312068                                09660252CCSH       0000000730600000                                                                             
D000065006057601827925082011184841นายวีระยุทธ เคลือบคนโท                            8857-9795           0721-5358                               07650103CCSH       0000001967500000                                                                             
D000066006057601827925082011191221ปริญญา คงคาสุริยฉาย                               8817-9090           9908-9403                               10330064CCSH       0000001130000000                                                                             
T000067006057601827900000000000000000000000097863500000065                                                                                                                                                                                                      
