H0000010060576018279บริษัท ไทเอซ สิสซิ่ง จำกัด              03092011TALHO                                                                                                                                                                                       
D000002006057601827903092011101717บุญเลิศ  ทอเตี้ย ทว9560                           8877-8399           0521-9356                               04950191CCSH       0000001878600000                                                                             
D000003006057601827903092011105051นายวิรัตน์ ติ่งทอง ทศ266                          8867-8098           6221-0366                               05970062CCSH       0000001700000000                                                                             
D000004006057601827903092011110432นายชนดล นาทาม                                     8857-9486           6421-3328                               04700568CCSH       0000001156800000                                                                             
D000005006057601827903092011111659นายธีระชาย  แสงสุวรรณ ทล6524                      8858-9292           4521-6342                               04670086CCSH       0000001700000000                                                                             
D000006006057601827903092011113523พิพรรธ แสนอินทร์                                  88878498            79219350                                07621764CCSH       0000001884200000                                                                             
D000007006057601827903092011115755นายสุนัย พรมไพโรจน์                               88789292            24216346                                09761108CCSH       0000001700000000                                                                             
D000008006057601827903092011122138นาย ชาญณรงค์ ธารีพฤกษ์                            88088099            7021-0358                               08670404CCSH       0000001700000000                                                                             
D000009006057601827903092011124159อรัญ ขาวเนตร                                      88978298            20214333                                09761108CCSH       0000001885300000                                                                             
D000010006057601827903092011124255อรัญ ขาวเนตร                                      88878298            30214333                                09761108CCSH       0000001883300000                                                                             
D000011006057601827903092011125903นายณัฏฐพล พูนสวัสดิ์ ทศ 4667                      8826-9291           7621-4366                               04780536CCSH       0000003280000000                                                                             
D000012006057601827903092011130011นาย ณัฏฐพล พูลสวัสดิ์  ทร 1792                    8836-9291           2721-1339                               04780536CCSH       0000001103000000                                                                             
D000013006057601827903092011130111นายอรุณ พงษ์ภักดี                                 8888-9191           0121-9280                               11251251CCSH       0000001719900000                                                                             
D000014006057601827903092011131955นาง ศศิญา จันทร์สิน ทล 7296                       8858-9491           6221-7349                               04780158CCSH       0000001700000000                                                                             
D000015006057601827903092011141411นายอนุสรณ์ วารีน้อย                               88369794            85216342            ทล.6528             07990541CCSH       0000001484700000                                                                             
D000016006057601827903092011144339สุเทพ                                             88288597            02212351                                05755751CCSH       0000001799200000                                                                             
D000017006057601827903092011151121นางจิราพร ทองร่มโพธิ์                             88979492            92217359            ทว7299              07622098CCSH       0000001500000000                                                                             
D000018006057601827903092011151252นางจิราพร ทองร่มโพธิ์                             88078698            99219351            ทว9919              07622098CCSH       0000001680000000                                                                             
D000019006057601827903092011151303นาง จำเนียร ปรีชา (0878002249)                    8875-9597           6321-7366           ทศ 7366             08552980CCSH       0000001839700000                                                                             
D000020006057601827903092011151700นายเพ็ชรน้ำหนึ่ง โตเอี่ยม ทล702                   8869-9991           2721-0340                               08510017CCSH       0000001734800000                                                                             
D000021006057601827903092011152516นายชะอ้อน  แหยมประเสริฐ                           8879-9593           8421-9334                               04700012CCSH       0000000034300000                                                                             
D000022006057601827903092011155118จันทา ชัยราช                                      8806-9597           6721-1363                               10320746CCSH       0000001918500000                                                                             
D000023006057601827903092011155540นายอานนท์  วันแจ  วฉ5956                          88199391            69355075            084-3879858         08690033CCSH       0000000624200000                                                                             
D000024006057601827903092011162931นางลดาวัลย์ ภักดีสุวรรณ ทย6474                    88159996            44216327                                10070071CCSH       0000000995100000                                                                             
D000025006057601827903092011164429สันติ ฤทธี ทศ7203                                 88559897            32217360                                10361274CCSH       0000001873950000                                                                             
D000026006057601827903092011164721สันติ ฤทธี ทศ 7203                                4875-9997           3221-7360                               10361274CCSH       0000000274500000                                                                             
D000027006057601827903092011170546นายอดิศักดิ์ อุ้ยหะ โทร.0846093375                88679980            05219355                                10070236CCSH       0000002082100000                                                                             
D000028006057601827903092011171911นายอมรชัย จันทร์สมุทร ทศ3320                      88469794            03213362                                10360570CCSH       0000001467900000                                                                             
D000029006057601827903092011173934นาย วิทวัส เงินมงคล                               8857-9593           0931-4074                               07540596CCSH       0000002019500000                                                                             
D000030006057601827903092011174308นายอุดร  สังกระธาตุ ทล9970                        88188499            09219347                                04700012CCSH       0000001732100000                                                                             
D000031006057601827903092011184050นางสาว สุปราณี วงษ์เสนา ทว8345                    8827-9491           5321-8354                               08510017CCSH       0000001884200000                                                                             
T000032006057601827900000000000000000000000048235850000030                                                                                                                                                                                                      
