H0000010060576018279บริษัท ไทเอซ สิสซิ่ง จำกัด              26122011TALHO                                                                                                                                                                                       
D000002006057601827926122011083012นางสาวทองไสย สิงห์น้อย                            88068898            67215363                                00251069CCSH       0000001800000000                                                                             
D000003006057601827926122011084434นายสุกิจ ดาวเรือง                                 88459194            31218331                                01900719CCSH       0000000999000000                                                                             
D000004006057601827926122011085254นายธนเดช สงวนรัตน์                                88579796            57214355                                02580601CCSH       0000001884200000                                                                             
D000005006057601827926122011085821นายหวัน กาฬภักดี                                  88504199            107039670                               07416279CCSH       0000001025500000                                                                             
D000006006057601827926122011092506นาย คงศักดิ์  รุ่งรัตน์                           88479784            17216351                                00650498CCSH       0000001990000000                                                                             
D000007006057601827926122011093508นาย ขวัญชัย บุญนาค                                88503799            106203179                               01920548CCSH       0000001733300000                                                                             
D000008006057601827926122011095647คุณสุวรรณ ชัยชนะ                                  88513499            104121190                               04710654CCSH       0000002069400000                                                                             
D000009006057601827926122011103257นายพิทยา ผิวผ่อง มฉ3186                           88388499            61313078                                00330398CCSH       0000000600000000                                                                             
D000010006057601827926122011103258นายพิทยา  ผิวผ่อง  มฉ3186                         88388499            61313078                                00330234CCLQ392220 00000011000000040089                                                                         
D000011006057601827926122011104307นายธนพัต  คุ้มวงษ์                                88078897            85210364                                01930068CCLQ982895300000001900000650673                                                                         
D000012006057601827926122011104525นายธนพัต  คุ้มวงษ์                                88078897            85210364                                01930068CCSH       0000001583000000                                                                             
D000013006057601827926122011104610นาย กิตติศักดิ์ อารัณย์รักษ์ ทย 9993              8806-9198           3921-9329                               10090768CCSH       0000001469000000                                                                             
D000014006057601827926122011105006นางสมร มะหะหมัด ทม1328                            88279294            83211312                                05750619CCSH       0000001200000000                                                                             
D000015006057601827926122011111048นายอุทัย การเกษ ทย6248                            8857-8197           8221-6324                               06990912CCSH       0000001067000000                                                                             
D000016006057601827926122011111149นาย รัชตะ มาวงษ์นอก                               88668497            30214331                                02190075CCLQ147964 00000002300000060095                                                                         
D000017006057601827926122011111356นาย รัชตะ มาวงษ์นอก                               88668497            30214331                                02190075CCSH       0000000611800000                                                                             
D000018006057601827926122011111748นายอดิศร ดอนสว่าง  ทร 1066                        88889597            60211336                                02190241CCSH       0000001484700000                                                                             
D000019006057601827926122011112049นาย วรพงศ์ พูลพิพิธ                               8818-9591           7321-1311           ทม1317              10250012CCSH       0000000190000000                                                                             
D000020006057601827926122011112228นายวันชัย เอี่ยมผ่องใส ทศ 2429                    88769796            94212362                                02530554CCSH       0000001884200000                                                                             
D000021006057601827926122011112500ชมนภัส ใจตรงกล้า                                  88689580            51219343                                01140638CCSH       0000001855800000                                                                             
D000022006057601827926122011113609นายนันทวี สุนา                                    88479794            57314075            0860048246          01890216CCSH       0000001884200000                                                                             
D000023006057601827926122011114921ปริณตา ฮะยิ้ม                                     8845-9696           7821-7366                               02464901CCSH       0000001798000000                                                                             
D000024006057601827926122011120650นางธมน จันทะเหล็ก ทศ1476                          88669897            64211367                                02501075CCSH       0000001918500000                                                                             
D000025006057601827926122011120832นันท์มนัส พอใจ                                    88179692            48217353                                08690542CCSH       0000001884200000                                                                             
D000026006057601827926122011121124นาย จำนงค์  นันโท                                 8885-9194           7431-9053           081-4441279         01230233CCSH       0000000982100000                                                                             
D000027006057601827926122011121447จ.ส.ท.นปภัช  โฉมแก้วกัลยา                         88515889            104123262                               00200304CCSH       0000001766500000                                                                             
D000028006057601827926122011121451พ.ท.เรวัต มากกุญชร                                88479393            70217353                                00340279CCSH       0000001554000000                                                                             
D000029006057601827926122011122622แสงเดือน เพ็ชรนิล0817238934                       88592598            106112505                               07830075CCSH       0000001542800000                                                                             
D000030006057601827926122011122628นส.ขวัญเมือง แก้วสระแสน                           88859196            01216326                                00282352CCSH       0000001826200000                                                                             
D000031006057601827926122011123239นางสาว ศิริกานดา ทานุรัตน์   ทศ 2135              88869796            51212363                                02260509CCSH       0000001799200000                                                                             
D000032006057601827926122011124245นิสิต หล่อดี  ทย 3722                             88879592            27213322                                08000757CCSH       0000001451700000                                                                             
D000033006057601827926122011124339นางเยาวะรัชน์ โคมแก้ว   ทร 2850                   8895-9194           0821-2335                               04581882CCSH       0000000646800000                                                                             
D000034006057601827926122011131651นายบุญเหลือ พงษ์ธนู                               8838-8097           5031-5072                               04660090CCSH       0000001700000000                                                                             
D000035006057601827926122011132126นายสมรภูมิ  กุลสุวรรณ์  มง 7695                   88769294            56317059                                08560585CCSH       0000000600000000                                                                             
D000036006057601827926122011132519สำรวย มูหะหมัดสะแระ ทย.7987                       88522899            107112791                               01371194CCSH       0000000483500000                                                                             
D000037006057601827926122011133714นางศุภากร สมสุภาพ                                 88998398            03212349                                06230046CCSH       0000001616600000                                                                             
D000038006057601827926122011134426นายสมพงษ์ ดารักษ์                                 8896-9391           3521-0349           ทล593               00741604CCSH       0000000958000000                                                                             
D000039006057601827926122011134505นายอนุชา สอนเสนา                                  8898-9983           0621-5343                               09630379CCSH       0000001567200000                                                                             
D000040006057601827926122011134512นางนันท์นภัส พิพิธพัทธอาภา                        88512599            104121266                               01980897CCSH       0000002105400000                                                                             
D000041006057601827926122011134551นายสนิท ดอดกระโทก                                 88369195            22218334                                05760270CCSH       0000000949000000                                                                             
D000042006057601827926122011135736นายอริย์ธัช วิสาติ                                88679990            54218356                                00820726CCSH       0000001396700000                                                                             
D000043006057601827926122011140252ศุภกร วิเศษธนาดุล ทย6327                          88508899            107104674                               10270539CCSH       0000000500000000                                                                             
D000044006057601827926122011141259นายไพบูลย์ พิมไธสง มช 521                         88959595            15310082                                11734224CCSH       0000001700000000                                                                             
D000045006057601827926122011141402นายธนะสิทธิ์  สัจจสิงห์                           8848-9797           6221-4343                               01260418CCSH       0000001624000000                                                                             
D000046006057601827926122011141528นายปราโมทย์ อภิรมย์ดี                             8847-9092           6721-6315                               10200553CCSH       0000000871000000                                                                             
D000047006057601827926122011142058นายกฤษณะ ขัดสี  มจ8462                            8820-8987           2431-8066                               01901901CCSH       0000000530000000                                                                             
D000048006057601827926122011142216ประโยชน์ บุญสมเชื้อ                               8805-9396           0431-50601 มจ.5400                      11250232CCSH       0000001056000000                                                                             
D000049006057601827926122011142530นายอนุสรณ์ วารีน้อย                               8847-9981           7321-7358                               01781711CCSH       0000001344700000                                                                             
D000050006057601827926122011144003นาย กึ๋ม  พาดขุนทด ทล9700                         8808-8499           0721-9340                               08550648CCSH       0000001700000000                                                                             
D000051006057601827926122011144512นายชิ้น ทองไพรวรรณ                                88579692            56217350                                10150884CCSH       0000001926000000                                                                             
D000052006057601827926122011145220วิรัตน์ วาณิชพิเชียร                              8847-9094           6521-6353                               00190041CCSH       0000001968500000                                                                             
D000053006057601827926122011145734นางกมลวัลย์ เสาะขุนทด                             8827-9795           6721-5354           ทว5746              02260933CCSH       0000001917200000                                                                             
D000054006057601827926122011150148เรืองเดช ภิญโญยิ่ง                                88359396            79217368                                04607752CCSH       0000001920000000                                                                             
D000055006057601827926122011150238มงคล  หลักทอง                                     88279881            00315061                                00140565CCSH       0000001387000000                                                                             
D000056006057601827926122011150707นางณัฏฐินันท์ ทองน้อย ทศ 9896                     88525899            104119553                               05670406CCSH       0000001751000000                                                                             
D000057006057601827926122011152212นายวรวิทย์  และสง่า  ทว3030                       8806-9697           0021-3353                               05690088CCSH       0000000426300000                                                                             
D000058006057601827926122011153142นางสาววิชุดา พลายแก้ว                             8878-9496           1821-7312                               01270128CCSH       0000001653600000                                                                             
D000059006057601827926122011153611นายสมนึก ทัพน้อย ทศ 2375                          88269496            53212367                                00560227CCSH       0000002437000000                                                                             
D000060006057601827926122011155343นายสถาพร เมฆแก้ว มง 5772                          8876-8498           2731-5057                               07650577CCSH       0000003637400000                                                                             
D000061006057601827926122011160344นางสาวนันท์ญา จันท์มารถ ทม 5715                   88378099            57215311                                10520829CCSH       0000001280000000                                                                             
D000062006057601827926122011161953ด.ต.เสิม หยุ่นแก้ว ทว9322                         88469994            23219352                                01971063CCSH       0000001800000000                                                                             
D000063006057601827926122011162035นางเรณู จริตเอก                                   8861-8189           1321-4325           ทย4351              04930415CCSH       0000000970000000                                                                             
D000064006057601827926122011162055ด.ต.เสิม หยุ่นแก้ว ทษ1009                         88505699            104121396                               01971063CCSH       0000001922300000                                                                             
D000065006057601827926122011162200ด.ต.เสิม หยุ่นแก้ว ทศ 1962                        88069391            29211366                                01971063CCSH       0000001739400000                                                                             
D000066006057601827926122011171213นิยม  กล้าหาญ                                     88598498            107114878                               08690542CCSH       0000000453000000                                                                             
D000067006057601827926122011174146นายสุภะชัย  ตู้ที  ทศ1406                         88569198            64211360            085-9434717         08690033CCSH       0000000127500000                                                                             
D000068006057601827926122011180443นายปุณยาวัจน์  บุญน้อย มฉ                         88389791            15312075                                05701141CCSH       0000001432800000                                                                             
D000069006057601827926122011180758ขัตติยา วิเชียรเขียว                              88769993            15215333                                07951972CCSH       0000000877600000                                                                             
D000070006057601827926122011180951นางสัญญา จันเวียง ทว4936                          88479396            69214353                                11370605CCSH       0000002090000000                                                                             
D000071006057601827926122011185440นายณรงค์ ภู่กรุต                                  88459798            88216365            ทศ6858              07967961CCSH       0000003216000000                                                                             
D000072006057601827926122011185746ธนาเศรษฐ์ ทวีชัยธนธรณ์                            8866-9893           4221-5339                               07952158CCSH       0000001610000000                                                                             
D000073006057601827926122011185945นายณรงค์ ภู่กรุต                                  88559798            78216367            ทศ6877              07967961CCSH       0000003216000000                                                                             
D000074006057601827926122011190216นายณรงค์ ภู่กรุต                                  88259998            88216361            ทศ6818              07967961CCSH       0000003216000000                                                                             
D000075006057601827926122011191444นางสาวมณีรัตน์ ชูมณี                              8807-8999           0821-9351           ทว9810              04930415CCSH       0000001650000000                                                                             
T000076006057601827900000000000000000000000109347800000074                                                                                                                                                                                                      
