H0000010060576018279บริษัท ไทเอซ สิสซิ่ง จำกัด              09092011TALHO                                                                                                                                                                                       
D000002006057601827909092011083247น.ส.อำพร  บุนลอด                                  8819-8397           7421-3346           ทล3467              11470668CCSH       0000001665500000                                                                             
D000003006057601827909092011091526น.ส.จุฑามาศ ทองเปลว                               88479493            64210339                                01770554CCSH       0000000869300000                                                                             
D000004006057601827909092011094010นางราตรี ศรีคันธะรักษ์                            8828-9594           0521-6310                               10620473CCSH       0000001695000000                                                                             
D000005006057601827909092011094222นายวินัย ผลดี                                     8897-9395           6021-8337           ทร 8076             00740562CCSH       0000001700900000                                                                             
D000006006057601827909092011100155พุฒิพัฒน์  พีรชัยทัศน์                            8897-9290           1121-9356                               00681670CCSH       0000001918500000                                                                             
D000007006057601827909092011100215นางสุณีย์  ดีอดุลย์                               88689391            54217342            ทล7425              01528111CCSH       0000002274500000                                                                             
D000008006057601827909092011101115นายสมชาย พงษ์เวช ทม 5986                          88059894            69215318                                07930240CCSH       0000000995100000                                                                             
D000009006057601827909092011101429นางนงคราญ  เขมะวิริยะ ฐบ 7157                     88079790            71147245                                09760114CCSH       0000000329000000                                                                             
D000010006057601827909092011102411นายรัฐ ใจฉ่ำ                                      8817-8998           8031-2060                               00640403CCSH       0000001105700000                                                                             
D000011006057601827909092011103600นายสันติ คำคง มค9371                              8805-9796           1331-9037                               05750619CCSH       0000000364100000                                                                             
D000012006057601827909092011104359นางสาว นงนาถ ปัญญา  ทล 8617                       8838-9980           7621-8341                               01480206CCSH       0000001700000000                                                                             
D000013006057601827909092011104720นางสมควร   หงษ์ทอง  ทร3964                        8806-9790           4921-3336                               05948265CCSH       0000001616900000                                                                             
D000014006057601827909092011104824นาย กิตตินัย ปึงประยูร ทว 3317                    8807-9198           7321-3351                               10900089CCSH       0000001981000000                                                                             
D000015006057601827909092011104841นายสาคร นามใจยา ทร5061                            88779397            10215336                                01440144CCSH       0000001580000000                                                                             
D000016006057601827909092011104931นายพุธชัย  โพธิ์ทอง  มง8037                       8886-9987           7031-8053                               05948265CCSH       0000001100000000                                                                             
D000017006057601827909092011105405นาย ศุภณัฎฐ์ ใจกล้า มฉ3260                        8866-7197           0231-3076                               01780060CCSH       0000001884200000                                                                             
D000018006057601827909092011112058เสกสรรค์ กลิ่รอด ทม8374                           8891-9595           4321-8317                               01990939COTH       0000000805800000                                                                             
D000019006057601827909092011113226สุวรรณ ตรีเหรา                                    88659898            31315061                                03830197CCSH       0000001135000000                                                                             
D000020006057601827909092011113408ด.ต.  พชร  ดีพอ  มฉ 5607                          8817-9890           76315070                                04990266CCSH       0000000050000000                                                                             
D000021006057601827909092011113431นายสุวรรณ  อุทสาร                                 88869693            06219327                                02190168CCSH       0000000890600000                                                                             
D000022006057601827909092011114329นาย พรรษ เสริมทอง                                 88359796            08312063                                06830233CCSH       0000001144700000                                                                             
D000023006057601827909092011115135นางสายพิณ พรมประดิษ                               88546989            104116364                               04660099CCSH       0000001839800000                                                                             
D000024006057601827909092011120139นายวิชิต เลียงเล็กจำนงค์                          88538099            104119018                               06910170CCSH       0000001922300000                                                                             
D000025006057601827909092011120920นายวานิช  สงเคราะห์ มฉ 1965                       88089294            59311076                                04600072CCSH       0000001295300000                                                                             
D000026006057601827909092011121127น.ส.สุรรณี  แก้วแจ่มใส                            8885-9396           0921-7362                               00956995CCSH       0000001386200000                                                                             
D000027006057601827909092011121451วราภรณ์                                           88289580            23219349                                04929939CCSH       0000001788800000                                                                             
D000028006057601827909092011122207นาง ภัสรา  เรศสุข   ทศ 5630                       88768299            06215363                                08400047CCSH       0000001799200000                                                                             
D000029006057601827909092011122311นาง ภัสรา  เรศสุข  ทศ 5636                        88868299            66215363                                08400047CCSH       0000001799200000                                                                             
D000030006057601827909092011122420นาง ภัสรา  เรศสุข  ทศ 5626                        88568299            66215362                                08400047CCSH       0000000925300000                                                                             
D000031006057601827909092011122505นาง ภัสรา  เรศสุข    ทศ 5620                      88668299            06215362                                08400047CCSH       0000001799200000                                                                             
D000032006057601827909092011123553พ.ต.ท.จิตติณัติ รักชาติ ทศ4443                    88169492            34214364                                04781103CCLQ393476500000020839000040762                                                                         
D000033006057601827909092011123755พ.ต.ท.จิตติณัติ รักชาติ ทศ5445                    88468299            54215364                                04781103CCLQ393476400000022000000040762                                                                         
D000034006057601827909092011124419นางคำพันธ์ จันทร์พลงาม ทศ 7539                    88759297            95217363                                07540908CCSH       0000002200500000                                                                             
D000035006057601827909092011124445ประไพวรรณ                                         8857-9983           7321-7351                               00210713CCSH       0000001700000000                                                                             
D000036006057601827909092011124551นายแก้วมูล เกษมพัฒน์                              8826-9395           5931-2068                               02610551CCSH       0000000870000000                                                                             
D000037006057601827909092011124730นายบุญจันทร์ สีธาตุ ทพ9485                        88530799            107043199                               08510017CCSH       0000001033000000                                                                             
D000038006057601827909092011125017ชื่นใจ  ศิริคุณ                                   8855-9997           1521-6338           ทร6581              08690266CCSH       0000001105700000                                                                             
D000039006057601827909092011125114ชื่นใจ  ศิริคุณ                                   88879294            96213337            ทร3679              08690266CCSH       0000001104300000                                                                             
D000040006057601827909092011125425ด.ต. พิพรรธ แสนอินทร์                             8828-9193           2621-3340                               07620396CCSH       0000001450000000                                                                             
D000041006057601827909092011125548นายประวัติ กองทน ทว6982                           88527399            106147070                               08691092CCSH       0000001782900000                                                                             
D000042006057601827909092011125605สมมาต  แสสุขขา  ทศ1875                            88669497            58211367                                04950191CCSH       0000001884200000                                                                             
D000043006057601827909092011130006นายรอง หงฝาแก้ว                                   88589293            51312070                                10522154CCSH       0000001467000000                                                                             
D000044006057601827909092011130821นายสุมิตร แพไธสง  ทย2040                          8826-9591           0021-2324                               06920151CCSH       0000000869400000                                                                             
D000045006057601827909092011130844นางสาวนิ่มนวล ดอกนาค                              88889190            14218343                                04700568CCSH       0000001877900000                                                                             
D000046006057601827909092011131434นาง ณัฐพร  ผลเกลี้ยง                              88479894            77210318                                10860716CCSH       0000000755800000                                                                             
D000047006057601827909092011132559นายอาทิตย์ อึ่งบำเหน็จ ทว 2554                    8898-8097           4521-2355                               02610535CCSH       0000005047700000                                                                             
D000048006057601827909092011132626ทิมากร                                            88479696            88214350                                00220601CCSH       0000000030000000                                                                             
D000049006057601827909092011133845นางเพ็ญศิริ วัฒนไตร                               88379298            4221-3359                               04990552CCSH       0000001750000000                                                                             
D000050006057601827909092011134245นายนปดล  สุขกำเนิด                                8886-8799           3021-3325                               00820465CCSH       0000000038800000                                                                             
D000051006057601827909092011134537นายวรรณลภ  กิจทา                                  88769995            09216327                                04700012CCSH       0000001105700000                                                                             
D000052006057601827909092011134950นาย พรเทพ   ชื่นจำรัส                             88269192            25214323            ทย4532              00611358CCSH       0000001447000000                                                                             
D000053006057601827909092011135348นางสาวสุรีย์รัตน์ วงษ์เดอรี  ทย5009               8866-9891           9021-5320                               11041367CCSH       0000001091400000                                                                             
D000054006057601827909092011135651นายพิมูล  บุตรอำคา  ทย5175                        8827-9783           5121-5327                               04881090CCSH       0000001012600000                                                                             
D000055006057601827909092011142011นายสุรพล  ไกรพ้น มฉ6159                           8887-8198           9131-6075                               04600072CCSH       0000001880000000                                                                             
D000056006057601827909092011143342นายสุรศักดิ์  วิเชียรเกื้อ ทศ 7385                8885-9497           5321-7368                               04670988CCSH       0000001309900000                                                                             
D000057006057601827909092011150100ลือชา  ศรีพาณิชพันธุ์ ทม 7383                     8846-9494           3321-7318                               07990174CCSH       0000000030000000                                                                             
D000058006057601827909092011150415ภัททิรา วีระกูล                                   88159396            79217364                                01080545CCSH       0000002064700000                                                                             
D000059006057601827909092011151320คุณประชา กัลยา                                    88488697            03212353            ทว 2330             10250251CCSH       0000001943500000                                                                             
D000060006057601827909092011152247คุณ ประพันธ์ยุทธ์ ชัยศรี                          8838-8797           8721-1359           ทว1798              01950405CCSH       0000002009700000                                                                             
D000061006057601827909092011152314นายประสิทธิ์ คำรักษา                              88869991            51219332                                00240918CCSH       0000001577500000                                                                             
D000062006057601827909092011152745จ.ส.อ. ศักดิ์ สะราคำ                              88378897            81313064                                01980212CCSH       0000001061100000                                                                             
D000063006057601827909092011154107นาง ศิริพร บัติดอน  ทย 5596                       8816-9097           6521-5329                               01200488CCSH       0000000529100000                                                                             
D000064006057601827909092011154123จ.ส.ท.อรรณนพ โคตรโสภา ทว 5439                     88079786            94215353                                00340279CCSH       0000001900000000                                                                             
D000065006057601827909092011155136นายพงษ์ศักดิ์ หิรัญวรรณ                           88869194            51213367                                10320746CCSH       0000001500700000                                                                             
D000066006057601827909092011174829นายทองปาน บุญแสนยศ                                8846-8897           0921-7334                               01730481CCSH       0000001061400000                                                                             
D000067006057601827909092011180300นางสาว วิไลรัตน์ บุญเผือก ทล7670                  48789891            06217347                                10070236CCSH       0000000760000000                                                                             
D000068006057601827909092011181407นายนิติพล ดีเฉลา                                  8835-9295           4921-4343                               10974093CCSH       0000001212700000                                                                             
D000069006057601827909092011185555นาย สมชาย แซ่ตั้ง ทล 3497                         8899-8297           7421-3349                               08450531CCSH       0000001290000000                                                                             
D000070006057601827909092011192231นาง บุญมี  สิงห์ป้อง ทว 6475                      8867-9094           5421-6357                               10250225CCSH       0000004000000000                                                                             
T000071006057601827900000000000000000000000099399200000069                                                                                                                                                                                                      
