H0000010060576018279บริษัท ไทเอซ สิสซิ่ง จำกัด              30072011TALHO                                                                                                                                                                                       
D000002006057601827930072011103619นายสมบูรณ์ สนศรี                                  8807-9496           7921-4352                               01521090CCSH       0000001756700000                                                                             
D000003006057601827930072011112158นายมาโนช  นภากาศ  มฉ 4628                         8807-9795           8631-4072                               09760540CCSH       0000002098300000                                                                             
D000004006057601827930072011112403นายธันยา บุญเพิ่ม ทศ 1347                         8806-9998           7321-1364                               11522191CCSH       0000002022700000                                                                             
D000005006057601827930072011114711นายสมบูรณ์ ศรีอ่อนจันทร์ มง5885                   8855-9194           5831-5058                               08450531CCSH       0000000995100000                                                                             
D000006006057601827930072011121710นายประวิทย์   รัตนมงคลกุล                         8897-9392           3231-5071                               05700034CCSH       0000001987500000                                                                             
D000007006057601827930072011121731นาย เมตตา นวนน้ำจิตต์ มช 498                      88159795            84310089                                08450242CCSH       0000001812300000                                                                             
D000008006057601827930072011123733ฉวีวรรณ สุวรรณวงษ์                                88679882            41218356                                10365296CCSH       0000000544300000                                                                             
D000009006057601827930072011125213นายพิภพ  ใจยอด                                    8888-9797           1221-4326           ทย4261              08690266CCSH       0000001484700000                                                                             
D000010006057601827930072011130727CHAWALIT H.                                       88679697            97213350                                08510239CCSH       0000001884200000                                                                             
D000011006057601827930072011134245นาย ภรนุพงค์ จรมณี ทม8962                         8878-9394           2921-8316                               05700914CCSH       0000000755800000                                                                             
D000012006057601827930072011135152ณัฐ กาญจนโรจน์                                    8897-9590           3821-8359                               04770102CCSH       0000002082100000                                                                             
D000013006057601827930072011143819นายจิรศักดิ์ ศรีบุญจิตต์ ทล218                    8836-9298           8221-0341                               08000757CCSH       0000001454300000                                                                             
D000014006057601827930072011145359นายชัยชาญ มีแวว                                   88289592            48312074                                11520403CCSH       0000002014400000                                                                             
D000015006057601827930072011145528ด.ต.ชาญ ทับพุ่ม    ทม 1606                        8879-8198           6621-1310                               08780888CCSH       0000001480000000                                                                             
D000016006057601827930072011145806ไพจิตต์ กีรติพินิจ                                88379895            99218329                                05700906CCSH       0000001383600000                                                                             
D000017006057601827930072011150027นายสมเหมาะ  จันทร์ทิพย์                           88469294            54218311                                04810155CCSH       0000000707700000                                                                             
D000018006057601827930072011154610นายอินทรัตน์ อินทปุระ                             88879990            74215324                                09761108CCSH       0000001110000000                                                                             
D000019006057601827930072011161434เขษม  คุ้มประยูร  ทล5260                          8858-9594           0221-5346                               04950191CCSH       0000001716700000                                                                             
D000020006057601827930072011165017นายสมศักดิ์ อาบสุวรรณ์                            8831-8587           3238-6192                               07951758CCSH       0000002060000000                                                                             
D000021006057601827930072011165331กิตติศักดิ์  ร่ำรวย                               8847-9691           8121-8357                               08690542CCSH       0000001884200000                                                                             
D000022006057601827930072011172015นายจงเจริญ ช่วยสงค์                               8877-9882           6121-8350           ทว 8106             09620049CCSH       0000001279600000                                                                             
D000023006057601827930072011174653นายอำนวย  รวยภิรมย์ มฉ5413                        88079691            34315071                                07990070CCSH       0000001884200000                                                                             
D000024006057601827930072011183647นายอาด ไม้น้อย ทล7786                             8808-9091           6721-7348                               10130715CCSH       0000001799200000                                                                             
D000025006057601827930072011192042นภดล เจตรุ่งพันธ์ ทว.8394                         8867 9391           4321 8359                               08518511CCSH       0000003714800000                                                                             
T000026006057601827900000000000000000000000039912400000024                                                                                                                                                                                                      
