H0000010060576018279บริษัท ไทเอซ สิสซิ่ง จำกัด              24102011TALHO                                                                                                                                                                                       
D000002006057601827924102011091050นายนรชัย แพงศร                                    88779192            09217357                                09761108CCSH       0000001884200000                                                                             
D000003006057601827924102011091239นายนรชัย แพงศร                                    88969896            81212362                                09761108CCSH       0000001884200000                                                                             
D000004006057601827924102011105835นาย ประสูตร อินทรรักษ์ มช 1914                    88514399            106202231                               05700767CCSH       0000001883800000                                                                             
D000005006057601827924102011111325นาย ประสิทธิ์ หอมสนั่น                            88889990            08312074            มฉ2840              04881144CCSH       0000001799200000                                                                             
D000006006057601827924102011122528มงคล โตเอี่ยม                                     88489791            41217348                                04700261CCSH       0000001850000000                                                                             
D000007006057601827924102011125920นายอำพล ชื่นแย้ม  0838862585                      8896-8898           8031-9073                               10660230CCSH       0000000647300000                                                                             
D000008006057601827924102011130033นายบัญชา พิษวงษ์ ทว 4201                          88479697            12214350                                10090081CCSH       0000001700000000                                                                             
D000009006057601827924102011130508จ.ส.อ.สุรพล ชุมพลพันธ์ มฉ4059                     8877-9997           9031-4075                               11040535CCSH       0000001875000000                                                                             
D000010006057601827924102011131816นายพล  เกิดชู ทย 3668                             8851-8589           8621-3326                               11521628CCSH       0000001184500000                                                                             
D000011006057601827924102011131927นาย อนุวัฒน์ ทวิชวรพงศ์                           88668898            76215341            ทล5617              04881144CCSH       0000001477100000                                                                             
D000012006057601827924102011132005นางสัมฤทธิ์  เกิดชู ทย 464                        88469498            44210326                                11521628CCSH       0000000995100000                                                                             
D000013006057601827924102011133743นายศิริมงคล เจริญศิริ ทว7521                      8837-9992           1521-7352                               10720930CCSH       0000001700000000                                                                             
D000014006057601827924102011133858นายศิริมงคล เจริญศิริ ทว7520                      8827-9992           0521-7352                               10720930CCSH       0000001700000000                                                                             
D000015006057601827924102011141032นางบุญสุข จงศิริโชค                               8467987             18216358                                07951758CCSH       0000001799200000                                                                             
D000016006057601827924102011141908นายสรรเสริญ สีธงชัยรุ่งโรจน์ ทย6774               88468597            47216327                                07930727CCSH       0000001010600000                                                                             
D000017006057601827924102011141953นายสรรเสริญ สีธงชัยรุ่งโรจน์ ทศ5448               88068797            84215364                                07930727CCSH       0000001010600000                                                                             
D000018006057601827924102011142211นายสมเกียรติ สีธงชัยรุ่งโรจน์ ทย2945              88278197            59212324                                07930727CCSH       0000001253100000                                                                             
D000019006057601827924102011144141นายประโยชน์ บุญสมเชื้อ                            8805-9396           0431-5060                               10141151CCSH       0000001051000000                                                                             
D000020006057601827924102011144149นางสาวนภารัตน์  ปิมปา                             88868899            45210354                                10660073CCSH       0000000212800000                                                                             
D000021006057601827924102011154207นาง สมร ราวินิช ทล 705                            8848-8899           5721-0340                               02501180CCSH       0000000780000000                                                                             
D000022006057601827924102011154449ร.ท.จักรกฤษณ์ เพียรพิจิตร ทศ9499                  88779698            94213359                                07930727CCSH       0000001710000000                                                                             
D000023006057601827924102011154836ร.ท.จักรกฤษณ์ เพียรพิจิตร ทศ9799                  88379697            97219369                                07930727CCSH       0000001710000000                                                                             
D000024006057601827924102011162214นายนิรันทร์ วงษ์จันทร์เพ็ญ ทว 8176                88779891            61218357                                04780591CCSH       0000001918500000                                                                             
D000025006057601827924102011174829นางสาวนัฐพร  ประวงษ์ ทม3599                       88969193            95213319                                00860606CCSH       0000000098000000                                                                             
D000026006057601827924102011175928นางสาวธาริณี แก้วผลึก ทร9545                      8807-9597           5521-9334                               06900618CCSH       0000001583600000                                                                             
D000027006057601827924102011181231นางสาวสอาด บัวขนก ทศ 1050                         88969798            00211365                                04881100CCSH       0000001515300000                                                                             
D000028006057601827924102011182830นาย สายันห์ เอี่ยมลออ                             8856-9290           1321-5337                               09561138CCSH       0000001120000000                                                                             
D000029006057601827924102011193602ร.ต.อ.ศุภกร ธัญญกรรม ทล5353                       88989984            33215345                                10150884CCSH       0000001617900000                                                                             
D000030006057601827924102011193701ร.ต.อ.ศุภกร ธัญญกรรม ทล4169                       88089797            91214346                                10150884CCSH       0000001476200000                                                                             
D000031006057601827924102011193745ร.ต.อ.ศุภกร ธัญญกรรม ทล9302                       88588899            23219340                                10150884CCSH       0000001432800000                                                                             
T000032006057601827900000000000000000000000041880000000030                                                                                                                                                                                                      
