H0000010060576018279บริษัท ไทเอซ สิสซิ่ง จำกัด              19092011TALHO                                                                                                                                                                                       
D000002006057601827919092011084341นาย อนุกูล แก้ววิเชียร ทว7783                     8866-9695           3721-7358                               01920913CCSH       0000001884200000                                                                             
D000003006057601827919092011084408นายคงศักดิ์ รุ่งรัตน์                             8838-9198           2921-3347                               00640403CCSH       0000001665500000                                                                             
D000004006057601827919092011091051นายเมธี  เผือกพันธ์มุข                            8855-9797           7521-3323                               05760270CCSH       0000001065700000                                                                             
D000005006057601827919092011091343นายอัครเดช  จารุนัย มฉ 2075                       8885-9294           5031-2077                               00130162CCSH       0000001900000000                                                                             
D000006006057601827919092011091823นายสุรพล อยู่หาญ                                  88878299            85319060                                00330398CCSH       0000001306300000                                                                             
D000007006057601827919092011093315นายสำราย ทองแย้ม มง688                            88869798            86310058                                01951137CCSH       0000000475700000                                                                             
D000008006057601827919092011093658นายชุน เข็มละทอง                                  8828-9480           1631-9035                               11071071CCSH       0000000099000000                                                                             
D000009006057601827919092011094518บุญสม สุขเล่ห์ มฉ 3863                            8837-9998           3831-3076                               03830885CCSH       0000001734300000                                                                             
D000010006057601827919092011100541นายสอน นามเหลา ทว3303                             8836-9795           3321-3350                               02610535CCSH       0000004000000000                                                                             
D000011006057601827919092011100656นายสุระ บรรจง                                     88520799            104120699                               00360013CCSH       0000002029000000                                                                             
D000012006057601827919092011101104นางสมฤทัย  บุญถนอมจิต ทร 994                      8866-9493           4921-0339                               00820726CCSH       0000001484700000                                                                             
D000013006057601827919092011101758นายสมพงษ์ เครือพัฒน์ ทว 9290                      88079190            02219359                                10900089CCSH       0000001799200000                                                                             
D000014006057601827919092011101917นายสมพงษ์ เครือพัฒน์ ทว 9286                      88179190            62219358                                10900089CCSH       0000001799200000                                                                             
D000015006057601827919092011102024นายสมชัย คณฑา                                     88169292            36216314                                00281171CCSH       0000000509800000                                                                             
D000016006057601827919092011102549นายวิเชียร แซ่ลิ้ม                                8845-9394           3721-3345                               00282352CCSH       0000001028600000                                                                             
D000017006057601827919092011103123นายทวีศักดิ์ หารบุรุษ ทล2488                      88998798            84212348                                02530836CCSH       0000001665500000                                                                             
D000018006057601827919092011103211นางสาวพิรภัทรา                                    8887-9792           0921-7358                               06991739CCSH       0000001884200000                                                                             
D000019006057601827919092011103347นางสาวคนึงนิจ หอฉ่อย                              8805-9995           1221-8367                               11730878CCSH       0000001820000000                                                                             
D000020006057601827919092011103527นายเสกสรร นาสวน ทศ2861                            88569195            18212366                                05674254CCSH       0000001194400000                                                                             
D000021006057601827919092011104952นายสุรัตน์  จิตตนาค  ทล9440                       88789190            04219344                                00000370CCSH       0000000733300000                                                                             
D000022006057601827919092011105358นาย อมร แสงสุวรรณ ทร3831                          8890-9590           1821-3333                               01200274CCSH       0000000276000000                                                                             
D000023006057601827919092011105652ประสงค์ ท.                                        88559898            06214313                                02560119CCSH       0000000829300000                                                                             
D000024006057601827919092011110237นาย อิทธิโชติ ทัดเทียม                            8828-8897           8221-2351                               08000757CCSH       0000001977900000                                                                             
D000025006057601827919092011110558นาย ศักดิ์คร พวงพิลา มฉ6033                       8877-8998           3031-6073                               01300316CCSH       0000001884200000                                                                             
D000026006057601827919092011110633นาย ธันวา ณะ ธรรม ทร 5231                         8807-9096           1221-5333                               07540984CCSH       0000001344800000                                                                             
D000027006057601827919092011110922นายดำรงค์ ศรีนุรัตน์                              88369391            26214360                                01480560CCSH       0000002513400000                                                                             
D000028006057601827919092011111100นายดำรงค์ ศรีนุรัตน์                              88269391            16214360                                01480560CCSH       0000002513400000                                                                             
D000029006057601827919092011111109นาย อนุสรณ์ วารีน้อย ทม 9309                      8896-8599           9321-9310                               00561145CCLQ103739300000024967000040766                                                                         
D000030006057601827919092011111148นาย สุรพล อันทวงษ์                                8867-9486           3221-1342                               00821044CCSH       0000001484700000                                                                             
D000031006057601827919092011111314นาย สุรพล อันทวงษ์                                8867-9486           3221-1342                               00821044CCSH       0000001484700000                                                                             
D000032006057601827919092011111729นาย สมบูรณ์ คงดี                                  88530399            107089667           มจ2328              10250256CCSH       0000000939600000                                                                             
D000033006057601827919092011113110นาง ลำยอง แพงจันทร์ศรี  ทว 8569                   8887-9981           9521-8356                               04581882CCSH       0000002346000000                                                                             
D000034006057601827919092011113146นางสาว ชฎารัตน ช่อกลาง ทว 117                     8816-7497           7121-0351                               01370181CCSH       0000001640000000                                                                             
D000035006057601827919092011115919จ.ส.อ.สมพิศ โหมดเทศ                               8836-9294           7121-5341                               08568561CCSH       0000001510300000                                                                             
D000036006057601827919092011120422นายสายัณห์ เจริญสุข                               88668298            19317068                                08690335CCSH       0000001119700000                                                                             
D000037006057601827919092011121846นางทิฆัมพร แช่มเกษม  ศศ 4668                      88379494            86364366                                00310005CCSH       0000000823900000                                                                             
D000038006057601827919092011123719นายสานิตย์  ศรีม่วง                               88767997            04214312                                10290212CCSH       0000001034800000                                                                             
D000039006057601827919092011124124นายเจริญ  สุวรรณคีรี  ทศ 9726                     88526899            104119622                               08560585CCSH       0000003316500000                                                                             
D000040006057601827919092011125532นายอำนสจ  จันทรวิวัฒน์ ทว 3664                    88979788            46213356                                08401304CCSH       0000001652150000                                                                             
D000041006057601827919092011131208นายเทพอำพล ประสงค์ทรัพย์ ทล 7687                  8838-9990           7621-7348                               07347293CCSH       0000001501100000                                                                             
D000042006057601827919092011131842นายสุรชัย แก้วใจจง                                8857-8989           1721-9359                               01880367CCSH       0000001884200000                                                                             
D000043006057601827919092011132025น.ส. พิมพ์ชนก แซ่ตั้ง ทร3463                      8877-9391           3421-3336                               01771050CCSH       0000001235500000                                                                             
D000044006057601827919092011132401นายสัญชัย ยุทธารักษ์                              88889894            42215340                                02190470CCSH       0000001600000000                                                                             
D000045006057601827919092011132641นายวรา จันทร์หลวง                                 88878899            07215330                                00740081CCSH       0000001494800000                                                                             
D000046006057601827919092011133155นายสุรพรรณ จันทะสิทธิ์ ทร 2928                    8845-9596           8921-2332           0875055292          02173494CCSH       0000001020000000                                                                             
D000047006057601827919092011134422นายสิทธิพร   แวดอุดม  มช 162                      8885-9796           2131-0086                               04670545CCSH       0000001663600000                                                                             
D000048006057601827919092011134553นายนิสสัย  กล่าวเกลี้ยง กท 7057                   8888-9991           7021-7345                               11521628CCSH       0000001730000000                                                                             
D000049006057601827919092011134629น.ส.มะลิวัลย์   จุ่นทอง  ทว 8046                  8807-9982           6021-8354                               04670545CCSH       0000001734200000                                                                             
D000050006057601827919092011134654จ.ส.ต.เสกสรรค์ กลิ่นรอด ทว4998                    8847-9496           8921-4359                               01991041COTH       0000000205500000                                                                             
D000051006057601827919092011135653นาย สุริเยศ โรจน์สุธี  มฉ 8064                    8846-9392           4031-8076                               04581882CCSH       0000000754500000                                                                             
D000052006057601827919092011140427เสกสรรค์ กลิ่นรอด ทว4998                          88479496            89214359                                01990939CCSH       0000000030000000                                                                             
D000053006057601827919092011140623สุริยัน พุทธสิงห์                                 88498898            14212340                                10365296CCSH       0000001676000000                                                                             
D000054006057601827919092011140636นายบุญเหลือ พงษ์ธนู                               8838-8097           5031-5072                               04660883CCSH       0000001700000000                                                                             
D000055006057601827919092011140745นายโยธิน  มาดลย์  ืทว3506                         8837-9997           6521-3350                               04585612CCSH       0000002072200000                                                                             
D000056006057601827919092011141602ดำรงค์ เทพสมบูรณ์ ทร3892                          88409690            28213339                                07950594CCSH       0000001321500000                                                                             
D000057006057601827919092011142148ไพจิตต์ ก.                                        88578199            22219314                                02560119CCSH       0000001087800000                                                                             
D000058006057601827919092011142323นาย ปรีชา เชื้อหมอ                                88578099            37219355                                10070203CCSH       0000001515300000                                                                             
D000059006057601827919092011142431ร.ท.จักรกฤษณ์ เพียรพิจิตร ทศ 9199                 88779998            91219369                                07930240CCSH       0000001770000000                                                                             
D000060006057601827919092011143613อรณิชา เทพเทียน ทศ9867                            88529899            106197834                               02190075CCSH       0000001584400000                                                                             
D000061006057601827919092011144435นายมานิตย์  จูจวง                                 88667997            02211360                                00650498CCSH       0000001124500000                                                                             
D000062006057601827919092011145555นายไกรสร ทิพย์โอสถ                                8816-8899           1021-2343                               05670558CCSH       0000001247000000                                                                             
D000063006057601827919092011145808นายกำพล  นวปฎลชัยเขต ทล6874                       8878-9891           4821-6347                               00820726CCSH       0000001809900000                                                                             
D000064006057601827919092011150322นายสมชาติ  กวดนอก  ทศ 9169                        88548889            104116063                               04585612CCSH       0000001602500000                                                                             
D000065006057601827919092011152222นายธีรชัย  จิตมีธรรมเลิศ                          8899-8599           5221-8315                               02170046CCSH       0000001550000000                                                                             
D000066006057601827919092011153222นายสงัด  ทองดีนอก                                 8819-9496           3031-0053                               11470668CCSH       0000000100000000                                                                             
D000067006057601827919092011154010นายชาติชาย เกษตรเอี่ยม ทล4880                     88389596            08214348                                07601301CCSH       0000000064300000                                                                             
D000068006057601827919092011154531คุณสำราญ ไทรกลมเกลียว ทร 3051                     88369693            10213335                                08550650CCSH       0000000989800000                                                                             
D000069006057601827919092011154844นายสุเทพ แก้วฮ่องคำ มฉ7233                        88569895            32317073                                04950176CCSH       0000001515300000                                                                             
D000070006057601827919092011155154นายพิเชษฐ แก้วมา ทว2775                           88179898            57212357                                08401304CCSH       0000001787300000                                                                             
D000071006057601827919092011162852นางชลพรรณ  แก้วสามสี  ทว7583                      8817-9792           3521-7358                               10630901CCSH       0000001884200000                                                                             
D000072006057601827919092011171825นายชาตรี เวษาสิทธิ์  ทย2217                       88059495            72212321                                08690335CCSH       0000000699100000                                                                             
D000073006057601827919092011172348นาง สมร ราวินิช                                   88069797            91212364                                08558551CCSH       0000001435000000                                                                             
D000074006057601827919092011172523นายมงคล ทองอยู่                                   88679982            41218355                                09760107CCSH       0000001799200000                                                                             
D000075006057601827919092011174846นายวิษณุ ไชยา                                     88869396            75212362                                10320156CCSH       0000000064300000                                                                             
D000076006057601827919092011181111นาย พิเชษฐ์  ศรีหาประทุม  ทศ 1499                 8826-9997           9421-1369                               08400047CCSH       0000004391600000                                                                             
D000077006057601827919092011190342นายธนาเศรษฐ์ ทวีชัยธนธรณ์                         8866-9893           4221-5339                               08648641CCSH       0000001610000000                                                                             
T000078006057601827900000000000000000000000112521250000076                                                                                                                                                                                                      
