H0000010060576018279บริษัท ไทเอซ สิสซิ่ง จำกัด              28082011TALHO                                                                                                                                                                                       
D000002006057601827928082011104228หจก. วิน คาร์  ทล 1134                            88699491            41211343                                10330395CCSH       0000000809000000                                                                             
D000003006057601827928082011110050นายมนัส ใจกระสินธ์ ทว 865                         88288898            58210356                                09769761CCSH       0000001432800000                                                                             
D000004006057601827928082011114859นางสาววัชรี เพิ่มพูลสวัสดิ์                       8867-9196           7921-4351                               05970617CCSH       0000002338500000                                                                             
D000005006057601827928082011122215ร.อ. ณัฐ กาญจนโรจน์                               88979590            38218359                                04770491CCSH       0000002082100000                                                                             
D000006006057601827928082011122444คุณคณิต คล้องช้าง                                 88959897            28217365                                04670401CCSH       0000001839700000                                                                             
D000007006057601827928082011125309นาย ยวด  ยินดี มฉ3640                             88459293            06313074                                08401304CCSH       0000001233900000                                                                             
D000008006057601827928082011132541นายทวีศักดิ์  หารบุรุษ                            8899-8798           8421-2348                               02501795CCSH       0000001665500000                                                                             
D000009006057601827928082011135556นางขวัญหทัย ดีใจ ทย 276                           88169393            62210327                                10071100CCSH       0000000673500000                                                                             
D000010006057601827928082011135935นาย อินผล  อินมาตย์                               8888-8899           6521-9348                               08000737CCSH       0000002116700000                                                                             
D000011006057601827928082011144235เครือฟ้า ทาใจ                                     88779797            39213350                                10365296CCSH       0000001760000000                                                                             
D000012006057601827928082011151252นายสมาน ปัญญาดี  มง 3920                          8827-9595           0931-3052                               08000757CCSH       0000000808500000                                                                             
D000013006057601827928082011153121นาย นิรันทร์ วงษ์จันทร์เพ็ญ ทว 8176               8877-9891           6121-8357                               04780158CCSH       0000001895200000                                                                             
D000014006057601827928082011155601นายวรายุทธ กล้าพร้อม ทร4792                       88178297            27214339                                10071100CCSH       0000001298300000                                                                             
D000015006057601827928082011155631นางพรทิพย์ ใจตรง                                  88179593            29216356                                09761108CCSH       0000001646000000                                                                             
D000016006057601827928082011164929คุณวรกมล บุญมา ทศ 7231                            88259797            1221-7363                               08550650CCSH       0000002318300000                                                                             
D000017006057601827928082011171808นายอุเทน เพชร์ทอง                                 88268298            80216368                                11520403CCSH       0000001853700000                                                                             
T000018006057601827900000000000000000000000025771700000016                                                                                                                                                                                                      
