H0000010060576018279บริษัท ไทเอซ สิสซิ่ง จำกัด              12112011TALHO                                                                                                                                                                                       
D000002006057601827912112011115710นางสัญญา จันเวียง                                 88479396            69214353                                11370491CCSH       0000002082800000                                                                             
D000003006057601827912112011131129นายคมสัน  จันทร์หอม  ทศ 825                       88278397            58210362                                10720208CCSH       0000001587900000                                                                             
D000004006057601827912112011135034นาย สุโรจน์ เสรีกุล                               8808-9298           3031-1075           มฉ1053              09500463CCSH       0000001004800000                                                                             
D000005006057601827912112011154459นายพรพรต  พาทีทิน  ทว 6175                        8857-9395           5121-6357                               07620776CCSH       0000001186600000                                                                             
D000006006057601827912112011155152นางเครือวรรณ์ สมนาค ทศ.220                        88978198            02210362                                08511738CCSH       0000001734300000                                                                             
D000007006057601827912112011164809นางมะลิ สุดสอาด  ทว 6305                          88279994            53216350                                08510258CCSH       0000001700000000                                                                             
D000008006057601827912112011172257นายสมพร ไกรศรศรี ทศ 1644                          88169897            46211364                                10154881CCSH       0000001650000000                                                                             
T000009006057601827900000000000000000000000010946400000007                                                                                                                                                                                                      
