H0000010060576018279บริษัท ไทเอซ สิสซิ่ง จำกัด              18012012TALHO                                                                                                                                                                                       
D000002006057601827918012012094051นายสามารถ แถมเงิน                                 88889192            55312071                                01980897CCSH       0000001742000000                                                                             
D000003006057601827918012012094735วิเชียร  แซ่ลิ้ม                                  88459394            37213345                                00280900CCSH       0000001010600000                                                                             
D000004006057601827918012012101515นายราเชนทร์ จันทร์ศรีเมือง ทล8004                 8858-9291           4021-8340                               01211627CCSH       0000001777300000                                                                             
D000005006057601827918012012102440นาง บุญโฮม เกษแสนศรี  ทร 5420                     8856-9591           0421-5332                               04581882CCSH       0000001105700000                                                                             
D000006006057601827918012012104328นางธีลาวัลย์ ศรีบุศยดี ทม9405                     8887-9895           5421-9310                               05240349CCSH       0000001517700000                                                                             
D000007006057601827918012012105144นายไชยยา กลมเกลียว  ทว 7509                       88179683            95217350                                02590096CCSH       0000000150000000                                                                             
D000008006057601827918012012105551นาย บัวลา ทองขาว ทศ2832                           88517799            106168881                               01211627CCSH       0000001922500000                                                                             
D000009006057601827918012012110017นางสัมฤทธิ์ เกิดชู ทย 464                         8846-9498           4421-0326                               01971063CCSH       0000000995100000                                                                             
D000010006057601827918012012110335นางทองจันทร์  โพธิ์ศรี ทย 8868                    88520599            107117401                               00610756CCSH       0000001109200000                                                                             
D000011006057601827918012012110928นายทองหล่อ โภคา                                   88789492            09216340            ทล6900              03970649CCSH       0000000201200000                                                                             
D000012006057601827918012012112830น.ส. พัชรินทร์ พงศ์สิริสาโรช                      88512499            700011980           ชป/5924             05699910CCSH       0000001274400000                                                                             
D000013006057601827918012012114359สมพร หนูขวัญ                                      88289391            03217345                                02500872CCSH       0000001870500000                                                                             
D000014006057601827918012012114800นายสมพร พงษ์เหล่างิ้ว                             88459897            17313053                                10810244CCSH       0000000695500000                                                                             
D000015006057601827918012012114817นายฉกาจ ไพมณี                                     88768598            18211347                                02460540CCSH       0000000601200000                                                                             
D000016006057601827918012012115023นายศักดิ์คร พวงพิลา                               8877-8998           3031-6073                               01300510CCSH       0000001884200000                                                                             
D000017006057601827918012012120306นาย ธนชัย วุฒิยา มฉ3358                           8818-8889           8331-3075                               07601138CCSH       0000001914200000                                                                             
D000018006057601827918012012122008นางสาวภัทรลภา โคตรสมบัติ มจ1615                   88579397            56311061                                02250511CCSH       0000001008800000                                                                             
D000019006057601827918012012122308นายทอง ไสยวิจิตร ทล 4143                          88589997            31214344                                00650326CCSH       0000001717800000                                                                             
D000020006057601827918012012124157คุณ จิราพร                                        88879896            06214355                                08770090CCSH       0000001610300000                                                                             
D000021006057601827918012012124324นายเฉลิม  จันทร์สอน                               88967097            54316066                                05760270CCSH       0000001024400000                                                                             
D000022006057601827918012012124557นายวีระศักดิ์ สีสันต์                             88688499            25219332                                00837602CCSH       0000000980900000                                                                             
D000023006057601827918012012125242นายสมคิด อินตา                                    8828-8197           9121-1320                               01480560CCSH       0000001551900000                                                                             
D000024006057601827918012012130259นายอนุสรณ์ วารีน้อย                               8827-8598           1421-5324                               01787080CCSH       0000001484700000                                                                             
D000025006057601827918012012130806นายสนิท  ขุนทอง                                   88079694            06314079                                07690467CCSH       0000001860000000                                                                             
D000026006057601827918012012130911นาย ประสิทธิ์ ผ่านจังหาร                          88998497            22213340                                04730538CCSH       0000001310800000                                                                             
D000027006057601827918012012132840นายสุระ  บรรจง                                    88520799            104120699                               00360013CCSH       0000002029000000                                                                             
D000028006057601827918012012133413โชคชัย สนธิ์ชัยสกุล                               88879688            35213350            ทว3503              10320321CCSH       0000001756700000                                                                             
D000029006057601827918012012133803คุณสาธิต ทองอร่ามเรือง                            88518989            107161814                               01480560CCSH       0000000822200000                                                                             
D000030006057601827918012012133859นายไพศักดิ์  เทพแสง                               88579982            89212337                                01900549CCSH       0000001088800000                                                                             
D000031006057601827918012012134752สิทธิพร  ถาระโท                                   88520499            107131544                               04993358CCSH       0000000363800000                                                                             
D000032006057601827918012012135940นายสุรศักดิ์  อินทศร  ทศ 5534                     88768399            45215363                                04585612CCSH       0000002721500000                                                                             
D000033006057601827918012012140405นายสุรพล  อยู่หาญ  มจ9508                         88878299            85319060                                00330234CCSH       0000001230000000                                                                             
D000034006057601827918012012140412นายวีระ  ฉ่ำมณี  ทร5913                           88468497            39215331                                01931056CCSH       0000000200000000                                                                             
D000035006057601827918012012141129นายดำรงค์  ด่านกำจัด  ทม 4812                     88979490            28214311                                09760114CCSH       0000000808500000                                                                             
D000036006057601827918012012142305นายนรชัย  แพงศร  ทร5912                           88512299            107138252                               09760114CCSH       0000001275100000                                                                             
D000037006057601827918012012142926นางเครือวัลย์ มุสิกะนันทน์                        88479688            23214358                                11540516CCSH       0000001708000000                                                                             
D000038006057601827918012012143444นายประพจน์  พิลาดี                                88504999            104123374           0879072604          04600142CCSH       0000001994700000                                                                             
D000039006057601827918012012143643นายพิกิจ ภูมิภาค ทษ 1716                          88592498            106203209                               02530554CCSH       0000002223000000                                                                             
D000040006057601827918012012143803นายพิกิจ ภูมิภาค ทศ 2160                          88069887            01212366                                02530554CCSH       0000002346000000                                                                             
D000041006057601827918012012143841นางนงนุช  ซอวลี  ทว607                            88588797            76210350                                08691827CCSH       0000001742400000                                                                             
D000042006057601827918012012143927นายพิกิจ ภูมิภาค ทษ 496                           88521299            106198852                               02530554CCSH       0000002223000000                                                                             
D000043006057601827918012012145133ศักดิ์  สะราคำ                                    88378897            81313064                                01980820CCSH       0000001082000000                                                                             
D000044006057601827918012012145205นางสาวมลิกา  สายที  ทว4921                        88679396            19214352                                02590911CCSH       0000001679300000                                                                             
D000045006057601827918012012145232นายพิพัฒน์ จำปาทอง ทษ810                          88500999            106202979                               07601138CCSH       0000001444000000                                                                             
D000046006057601827918012012145535ชูชัย จ. มช101                                    88559996            11310080                                10360281CCSH       0000001832800000                                                                             
D000047006057601827918012012150106นางสาว นัฐพร ประวงษ์   ทม 3599                    8896-9193           9521-3319                               01800267CCSH       0000000850000000                                                                             
D000048006057601827918012012150908นายปรีดา พิลาแสน                                  88568697            93216285                                01730481CCSH       0000001032700000                                                                             
D000049006057601827918012012151100นายปรีดา พิลาแสน                                  88468697            50216282                                01730481CCSH       0000001032700000                                                                             
D000050006057601827918012012151949K.อุบลรัตน์ บัวเพชร ทศ331                         88178098            13210363                                02610535CCSH       0000001884200000                                                                             
D000051006057601827918012012152606นาง ชลพรรณ แก้วสามสี   ทว 7583                    8817-9792           3521-7358                               01200546CCSH       0000001884200000                                                                             
D000052006057601827918012012153203นายองอาจ มหิทธิโรจน์ ทล 6463                      8858-9692           3421-6346                               02150209CCSH       0000000235500000                                                                             
D000053006057601827918012012153240นายสุรเดช ขันทอง                                  88269398            14211365                                11520403CCSH       0000001991000000                                                                             
D000054006057601827918012012153332นายองอาจ มหิทธิโรจน์ ทล 6441                      8868-9692           1421-6344                               02150209CCSH       0000000235500000                                                                             
D000055006057601827918012012153710นายวิชาญ ปานสุวรรณ มง 5076                        88169698            60315057                                10900089CCSH       0000000656600000                                                                             
D000056006057601827918012012154004นายพงษ์ศักดิ์ บริบูรณ์  ทว5152                    88279886            21215355                                08690335CCSH       0000001995000000                                                                             
D000057006057601827918012012154223นายพงษ์ศักดิ์ บริบูรณ์  m;5397                    88179686            73215359                                08690335CCSH       0000001897900000                                                                             
D000058006057601827918012012154331นายพงษ์ศักดิ์ บริบูรณ์  ทศ1318                    88369398            83211361                                08690335CCSH       0000001990000000                                                                             
D000059006057601827918012012160450นาย ประพันธ์ยุทธ์ ชัยศรี                          88388797            87211359                                01950405CCSH       0000001982500000                                                                             
D000060006057601827918012012172537นายยอดรัก จันทุม                                  88369592            07218331            ทร 8710             06971662CCSH       0000000269700000                                                                             
D000061006057601827918012012172834จารุวรรณ  แซ่หลี                                  88359394            70219334                                05755751CCSH       0000000727600000                                                                             
D000062006057601827918012012173344นายณัฐนนท์ นมนาน                                  88788989            87219344                                11060745CCSH       0000001700000000                                                                             
D000063006057601827918012012174354ร.ท.จักรกฤษณ์ เพียรพิจิตร                         88989891            99219356                                11520403CCSH       0000001800000000                                                                             
D000064006057601827918012012174943นางสาว วิไลรัตน์ บุญเผือก ทล7670                  88789981            06217347                                10070236CCSH       0000001000000000                                                                             
D000065006057601827918012012175727นางวินาพร ทองคลองไทร                              88079894            63216353                                11520403CCSH       0000001792300000                                                                             
D000066006057601827918012012180106นายพิเชษฐ์  ศรีหาประทุม                           88269997            94211369                                11861304CCSH       0000003231100000                                                                             
D000067006057601827918012012183427พ.อ.อ.สุรัศ ศรีหาเลิศ                             88557697            36211354                                11520403CCSH       0000001799200000                                                                             
D000068006057601827918012012184432นางสาวนันทา สมทรัพย์                              88679884            15216358                                11520403CCSH       0000001850000000                                                                             
D000069006057601827918012012185716นาย วิโรจน์ แก่นจันทร์                            8886-9493           1931-6062                               10061102CCSH       0000001062400000                                                                             
T000070006057601827900000000000000000000000095791800000068                                                                                                                                                                                                      
