H0000010060576018279บริษัท ไทเอซ สิสซิ่ง จำกัด              11082011TALHO                                                                                                                                                                                       
D000002006057601827911082011083645สุโรจน์ เสรีกุล                                   8808-9298           3031-1075                               00240918CCSH       0000001004800000                                                                             
D000003006057601827911082011085239นายโกศล  เกิดศรี                                  8845-9795           5321-8365                               00820465CCSH       0000001798500000                                                                             
D000004006057601827911082011092032นางสาว ทองศรี ธิปไชย ทย1506                       88369886            65211320                                00830518CCSH       0000001048800000                                                                             
D000005006057601827911082011093649นายนเรศ สุวรรณปาล                                 8836-9596           8521-3324           ทย 3548             00611046CCSH       0000001181000000                                                                             
D000006006057601827911082011093757นางภิรมย์ สุวรรณปาล                               8846-9596           6621-1322           ทย 1626             00611046CCSH       0000001181000000                                                                             
D000007006057601827911082011095312นายสุริเยศ โรจน์สุธี มฉ 8064                      8846-9392           4031-8076                               04580699CCSH       0000000311000000                                                                             
D000008006057601827911082011095657นางสาว ณัฐธิชา ทาระเวท                            8846-9597           7621-1367           ทศ 1677             03830182CCSH       0000002000000000                                                                             
D000009006057601827911082011102028นาย ทวีศักดิ์  กันภูมิ                            8867-8697           9931-7038                               00620222CCSH       0000002123000000                                                                             
D000010006057601827911082011102738น.ส.ฐาปณภัท ธรรมวิหาร                             8899-8199           4321-2340                               01210241CCSH       0000001690000000                                                                             
D000011006057601827911082011102916น.ส.ฐาปณภัทร ธรรมวิหาร  ทล2303                    8889-8199           3321-2340                               01210241CCSH       0000001690000000                                                                             
D000012006057601827911082011104402นาย ไพศาล พรประภาศักดิ์ ทว9155                    8857-9390           5121-9355                               01200274CCSH       0000001704800000                                                                             
D000013006057601827911082011104515นายปฏิภาณ  สมดี ทศ5045                            8866-9390           5021-5364                               04600072CCSH       0000001432800000                                                                             
D000014006057601827911082011104616นาย ไพศาล พรประภาศักดิ์ ทว9158                    8847-9390           8121-9355                               01200274CCSH       0000001704800000                                                                             
D000015006057601827911082011104752นาย ไพศาล พรประภาศักดิ์ ทศ397                     8847-8098           7321-0369                               01200274CCSH       0000001704800000                                                                             
D000016006057601827911082011112137เวชยันต์ พรธิอั้ว                                 88157697            44210355                                10279615CCSH       0000001918400000                                                                             
D000017006057601827911082011112721สุรีย์รัตน์  วงษ์เดอรี ทย5009                     8866-9891           9021-5320                               07627621CCSH       0000001091400000                                                                             
D000018006057601827911082011112836นายปิยะ ประทีปช่วง ทศ3805                         8866-9792           5821-3360                               00720058CCSH       0000001799200000                                                                             
D000019006057601827911082011113411นางสาวจิรัฎฐ์  ศิริกิจจาขจร ทศ 7373               8805-9497           3321-7367                               02260835CCSH       0000001846600000                                                                             
D000020006057601827911082011114011นาย สงบ ระย้า มง1372                              88069598            23311057                                08691827CCSH       0000000409000000                                                                             
D000021006057601827911082011114231นางสาวชื่นใจ  ศิริคุณ  ทร 3679                    8887-9294           9621-3337           081-6277045         08690033CCSH       0000001158700000                                                                             
D000022006057601827911082011115254นายวินัย ผลดี ทร8076                              88979395            60218337                                10254482CCSH       0000000280000000                                                                             
D000023006057601827911082011115629วราภรณ์ แก้วทอง                                   8828-9580           2321-9349           ทล 9392             04920051CCSH       0000001789800000                                                                             
D000024006057601827911082011120443ชนินทร์ อ่อนใจเอื้อ                               8888-9682           3731-2071           มฉ2713              04661696CCSH       0000001800000000                                                                             
D000025006057601827911082011121231นายสุรศักดิ์ อินทศร ทว 5456                       8877-9586           6421-5355                               04580699CCSH       0000002174400000                                                                             
D000026006057601827911082011121821ระพีพรรณ ต่อเจริญ                                 8815-9794           0821-8364                               09550205CCSH       0000001910000000                                                                             
D000027006057601827911082011122215ถวิล  จำเริญ ทล8441                               8838-9490           1421-8344                               07990174CCSH       0000001476800000                                                                             
D000028006057601827911082011122412ถวิล  จำเริญ ทว8105                               8887-9090           5121-8350                               07990174CCSH       0000001476800000                                                                             
D000029006057601827911082011122436นายวีระ ม้าเฒ่า มฉ.4831                           88279984            18314073            086-60581670        00207452CCSH       0000002116700000                                                                             
D000030006057601827911082011122508นฤมล ลมสูงเนิน                                    88869398            08219314                                05700906CCSH       0000001131900000                                                                             
D000031006057601827911082011122523ถวิล  จำเริญ ทว9377                               8807-9090           7321-9357                               07990174CCSH       0000001476800000                                                                             
D000032006057601827911082011123835นายเสรี ผายพิมพ์  ทร7314                          8846-8797           4321-7331                               02501075CCSH       0000001105700000                                                                             
D000033006057601827911082011123921นายดนุเดช  สายบัว                                 8817-9395           4631-4072                               00640493CCSH       0000001800000000                                                                             
D000034006057601827911082011124320นายอนุสรณ์ วารีน้อย                               8877-9991           6921-4311                               00910515CCLQ103437700000018244000040766                                                                         
D000035006057601827911082011124538นาย บุญสูง ปัญสา                                  88169794            85213318                                01900191CCSH       0000000863600000                                                                             
D000036006057601827911082011125455นางคำพันธ์ จันทร์พลงาม ทศ 7539                    88759297            95217363                                10071091CCSH       0000002230500000                                                                             
D000037006057601827911082011125929นาย ธณานันท์ คุปตะวาทิน ทร 4796                   88288097            67214339                                10270592CCSH       0000001405700000                                                                             
D000038006057601827911082011131700นายอนันท์  ทับทิม ทร 1004                         88459695            40211330                                02251174CCSH       0000000224200000                                                                             
D000039006057601827911082011131819นายปรีชา ชูชนะ มจ 8553                            8848-9094           3531-8065                               06981879CCSH       0000001646400000                                                                             
D000040006057601827911082011132729นายรัฐ ใจฉ่ำ                                      8817-8998           8031-2060                               00640403CCSH       0000001105700000                                                                             
D000041006057601827911082011132907นายเสกสรร นาสวน ทศ3713                            8806-9393           3721-3361                               05671599CCSH       0000001194400000                                                                             
D000042006057601827911082011134021นางวัญเพ็ญ กิจนิยม                                88279690            53218317                                00650260CCSH       0000001548000000                                                                             
D000043006057601827911082011134646นายพีระเดช  ศักดิ์เดชะมณี  ทร 2990                8808-7897           0921-2339                               02260835CCSH       0000000411500000                                                                             
D000044006057601827911082011135745นางสาว ชฎารัตน ช่อกลาง                            8816-7497           7121-0351                               01211627CCSH       0000001640000000                                                                             
D000045006057601827911082011140822นางนงนุช ซอวลี ทว 607                             8858-8797           7621-0350                               02610535CCSH       0000001700000000                                                                             
D000046006057601827911082011142806นาย อรัญ ขาวเนตร  ทม 3639                         88869293            96213313                                00651478CCSH       0000001498000000                                                                             
D000047006057601827911082011142821นายเลิศพร แสนประดิษฐ์ ทร 5542                     8847-8197           2521-5334                               01951137CCSH       0000001550700000                                                                             
D000048006057601827911082011143639นายศรชัย ไศลวงศ์สกุล                              88279291            64315076                                02600066CCSH       0000001918500000                                                                             
D000049006057601827911082011144001นายศรชัย ไศลวงศ์สกุล                              88279291            64315076                                02600066CCSH       0000001070000000                                                                             
D000050006057601827911082011144228นายวิชัย บุญวัฒน์                                 88969691            66214329                                05760932CCSH       0000001060000000                                                                             
D000051006057601827911082011144402ธวัชชัย กลิ่นหนู 0868912072                       88379393            65215322                                03993086CCSH       0000000885000000                                                                             
D000052006057601827911082011144725จ.ส.อ.ศักดิ์ สะราคำ มจ 3148                       88378897            81313064                                01980529CCSH       0000001063900000                                                                             
D000053006057601827911082011145132นายสุรชัย โทศรี ทศ 2773                           8846-9986           3721-2367                               00601118CCSH       0000001919200000                                                                             
D000054006057601827911082011145145นางชูชื่น เทพสุภรณ์กุล มฉ 4637                    8847-9395           7631-4073                               08001040CCSH       0000001884200000                                                                             
D000055006057601827911082011150220นายวิชาญ ขนอม ทศ 92                               8807-8498           2021-0369                               04603236CCSH       0000001900000000                                                                             
D000056006057601827911082011150311นายปัญญา มนตรีชน                                  8879-8297           7831-0078                               00336716CCSH       0000001665500000                                                                             
D000057006057601827911082011150812นายดำรงค์รักษ์ โชคพิมาย ทว4436                    8857-9887           6421-4353                               00771064CCSH       0000001884200000                                                                             
D000058006057601827911082011151935นางสุนิจ สมบัติ โทร.0885070199                    88969295            48212335                                10070071CCSH       0000000400000000                                                                             
D000059006057601827911082011153035นางวัลลภา  พรหมฤดี ทย 1593                        887-9194            3521-1329                               01080089CCSH       0000000809000000                                                                             
D000060006057601827911082011153635นาย จักรพงษ์  สียางนอก ทย 1495                    8866-8899           5421-1329                               04670086CCSH       0000001105700000                                                                             
D000061006057601827911082011155548นายณรงค์    พรหมอ่อน  ทม5133                      8886-8797           3121-5313                               00611358CCSH       0000000841500000                                                                             
D000062006057601827911082011160148นางวรรณภา  เจริญอินทร์ ทศ1945                     8886-9598           5921-1364                               07990174CCSH       0000003269600000                                                                             
D000063006057601827911082011161042นายองอาจ มหิทธิโรจน์ ทว6613                       8897-9784           3621-6351                               02150082CCSH       0000001194400000                                                                             
D000064006057601827911082011161215นายองอาจ มหิทธิโรจน์ ทว6614                       8887-9784           4621-6351                               02150082CCSH       0000001194400000                                                                             
D000065006057601827911082011165711รามา ยาเดียว                                      88459894            54211321                                10365296CCSH       0000000927400000                                                                             
D000066006057601827911082011172629นางณภัทร   อ่อนละออ   มง3396                      8847-9690           6331-3059                               04670545CCSH       0000000902600000                                                                             
D000067006057601827911082011180133นายสมประสงค์ ยูพาณิช ทว6437                       88279794            74216353                                04950176CCSH       0000001756700000                                                                             
D000068006057601827911082011180748นางสาว วัสมล โชติสิงห์  ทศ 9033                   8805-9094           3021-9363                               08000757CCSH       0000001922300000                                                                             
D000069006057601827911082011185020นาย ภูริณัฐ อดุลนิรัตน์                           8858-8099           6521-0356                               10720567CCSH       0000001918500000                                                                             
T000070006057601827900000000000000000000000097673200000068                                                                                                                                                                                                      
