H0000010060576018279บริษัท ไทเอซ สิสซิ่ง จำกัด              05122011TALHO                                                                                                                                                                                       
D000002006057601827905122011105014นายวิศว  คาดหมาย                                  88079984            75216353                                07961036CCSH       0000001884200000                                                                             
D000003006057601827905122011105459มลิกา สายที                                       88679396            19214352            ทว 4921             10320321CCSH       0000001679300000                                                                             
D000004006057601827905122011110212นายธนะสิทธิ์  สัจสิงห์                            8888-8198           4121-2358                               09644891CCSH       0000001918500000                                                                             
D000005006057601827905122011110455นาย กิติชัย รัตมาศาณประไพ                         88298697            14213344                                07620396CCSH       0000001738400000                                                                             
D000006006057601827905122011112813นางวัลภา ไชยนิด ทศ 4992                           8846-9490           2921-4369                               04671034CCSH       0000002349000000                                                                             
D000007006057601827905122011113316นางจำเนียร ปรีชา                                  88759597            63217366            ทศ 7366             08510518CCSH       0000001839700000                                                                             
D000008006057601827905122011120354นายไขแสง แสงโสฬส  ทย6805                          88479797            58216320                                08450531CCSH       0000001022800000                                                                             
D000009006057601827905122011120840ประคอง สามงามนิ่ม                                 8827-9193           7521-7355                               08000990CCSH       0000002238240000                                                                             
D000010006057601827905122011133452นาย จุมพล  เหมือนจีน  ทศ 686                      8826-8597           6621-0368                               09760540CCSH       0000000998700000                                                                             
D000011006057601827905122011135858นายกันยา ทับพระ ทย2328                            88769292            83212322                                04880528CCSH       0000000636000000                                                                             
D000012006057601827905122011142809จันทรา ชัยราช                                     88069597            67211363            ทศ 1736             10320321CCSH       0000001918500000                                                                             
D000013006057601827905122011143244ร.อ.ณัฐ กาญจนโรจน์                                88969290            24218343                                04770515CCSH       0000001382100000                                                                             
D000014006057601827905122011143921นางศิริ  เกียรติเฉลิม                             88589697            96219324                                10800227CCSH       0000000098500000                                                                             
D000015006057601827905122011144012นางศิริ  เกียรติเฉลิม                             88688598            65211353                                10800227CCSH       0000000178500000                                                                             
D000016006057601827905122011144101นางศิริ  เกียรติเฉลิม                             88489790            75218327                                10800227CCSH       0000001000000000                                                                             
D000017006057601827905122011144433สมพงษ์  กาฬสินธุ์ ทม 1281                         8882-9096           1221-1318                               00860606CCSH       0000000192800000                                                                             
D000018006057601827905122011145644นางสาว พวงเพ็ญ ศิริพละ                            88579398            31213354                                07620496CCSH       0000002116700000                                                                             
D000019006057601827905122011145854นางสาว พวงเพ็ญ ศิริพละ ทว 3142                    88679398            21213354                                07620496CCSH       0000002116700000                                                                             
D000020006057601827905122011150012นางสาว พวงเพ็ญ ศิริพละ ทว 3144                    88479398            41213354                                07620496CCSH       0000002116700000                                                                             
D000021006057601827905122011150821นาย นรชัย  แพงศร  ทษ 608                          88511299            104123041                               09760540CCSH       0000001994700000                                                                             
D000022006057601827905122011165317นางทิพย์  ธนทรัพย์สมบัติ                          88576597            106182015                               08644543CCSH       0000001834300000                                                                             
D000023006057601827905122011172623นายเสน่ห์  แย้มสุดใจ                              8837-9994           7021-6355                               02501795CCSH       0000000417700000                                                                             
D000024006057601827905122011174744นางสาวจินดา บุญญานนท์                             88759698            18216365                                00860473CCSH       0000001874000000                                                                             
D000025006057601827905122011180556นายจิตตกร โกษากุล                                 88369392            61214369            ทศ4196              10720144CCSH       0000002000000000                                                                             
D000026006057601827905122011183731นายสราวุฒิ สุขพัฒน์ ทศ5002                        88669490            20215360                                08691827CCSH       0000001856500000                                                                             
D000027006057601827905122011185306นาย สมนิตย์ ศรีม่วง                               88767997            04214312                                07950194CCSH       0000001451700000                                                                             
T000028006057601827900000000000000000000000038854240000026                                                                                                                                                                                                      
