H0000010060576018279บริษัท ไทเอซ สิสซิ่ง จำกัด              25112011TALHO                                                                                                                                                                                       
D000002006057601827925112011085032นายประชา พราวศรี                                  88288798            99210354                                05760932CCSH       0000000110000000                                                                             
D000003006057601827925112011093803นางสาวสมพร อินทรสอน ทล5631                        88489193            16215343                                01746989CCSH       0000002153400000                                                                             
D000004006057601827925112011094816นส.จิราพร กองประมูล                               88598897            71213340                                04400187CCSH       0000001476200000                                                                             
D000005006057601827925112011095106นายพลอย เถาว์พุดซา                                8848-8898           7721-0352                               00611046CCSH       0000001700000000                                                                             
D000006006057601827925112011100427สัมเดช  เกลี้ยงดี                                 88169995            83211334            089-9633314         04600142CCSH       0000001550000000                                                                             
D000007006057601827925112011100958นางสาว ทองไสย สิงห์น้อย                           88068898            67215363                                00251069CCLQ713179 00000003600000140057                                                                         
D000008006057601827925112011101602นางสาว ทองไสย สิงห์น้อย                           88068898            67215363                                00251069CCSH       0000001440000000                                                                             
D000009006057601827925112011103909คุณบุญเทิด  มาชุมแสง                              88779593            20315072                                01701658CCSH       0000001734300000                                                                             
D000010006057601827925112011105220นายบวร วันเพ็ญ ทว 826                             88288698            68210352                                06920243CCSH       0000001884200000                                                                             
D000011006057601827925112011105920นาง สัมฤทธิ์ เกิดชู ทย 464                        8846-9498           4421-0326                               11634256CCSH       0000000995100000                                                                             
D000012006057601827925112011111259ไพฑูรย์ วันเชียง ทล4128                           8878-9997           8121-4342                               08001096CCSH       0000001645000000                                                                             
D000013006057601827925112011114421นายประเสริฐ สุริยะ ทม6580                         8831-9298           0521-6318                               03400536CCSH       0000001161700000                                                                             
D000014006057601827925112011115115เสกสรรค์ กลิ่นรอด ทว 4998                         8847-9496           8921-4359                               01990606CCSH       0000001799200000                                                                             
D000015006057601827925112011115512คุณพรรษ  เสริมทอง                                 88359796            08312063                                06830486CCSH       0000001437400000                                                                             
D000016006057601827925112011120904สมชาติ จันทร์ฤดี                                  88569797            04211368                                00170047CCSH       0000001884200000                                                                             
D000017006057601827925112011121415นาย สุรศักดิ์ อินทศร  ทศ 4057                     8826-9292           7021-4365                               04581882CCSH       0000001760500000                                                                             
D000018006057601827925112011122134นายประยูร วิเศษนอก                                8806-9491           8521-4360           ทศ4508              10253620CCSH       0000001833500000                                                                             
D000019006057601827925112011122322นายประยูร วิเศษนอก                                8876-9190           7721-7355           ทว7757              10253620CCSH       0000002003600000                                                                             
D000020006057601827925112011123153นาง พัชรี ศรีหาประทุม ทม 8664                     88769491            46218316                                08401304CCSH       0000000808500000                                                                             
D000021006057601827925112011123725คุณนิรันทร์                                       8877-9891           6121-8357                               10120558CCSH       0000001918500000                                                                             
D000022006057601827925112011123734นายทีระชาติ ภิญโญ ทศ 4347                         88068499            73214364                                01970208CCSH       0000001748600000                                                                             
D000023006057601827925112011123911นายสุรพล ไกรพ้น มฉ 6159                           88878198            91316075                                07620859CCSH       0000000820000000                                                                             
D000024006057601827925112011124040นายวันชัย เอี่ยมผ่องใส ทศ2429                     88769796            94212362                                02530836CCSH       0000001884200000                                                                             
D000025006057601827925112011125025นาย นิสิต หล่อดี ทย3722                           88879592            27213322                                08001096CCSH       0000001451700000                                                                             
D000026006057601827925112011125128นายรัชตะ  มาวงษ์นอก ทร 4013                       8810-9290           3021-4331                               04690052CCSH       0000000841800000                                                                             
D000027006057601827925112011125620นายนพดล โคตา                                      88598297            74211338                                00390709CCSH       0000001451700000                                                                             
D000028006057601827925112011132458นายอมร จันทร์ไว                                   88998398            03212349            ทล2390              06230872CCSH       0000001016600000                                                                             
D000029006057601827925112011132553คุณผานิต จันทร์เมฆา                               88467297            76210353                                07341122CCSH       0000001799200000                                                                             
D000030006057601827925112011135843นายเชี่ยว  ไหมดำ มจ3043                           88769498            30313064                                00950177CCSH       0000001382100000                                                                             
D000031006057601827925112011140011นายเทพฤทธิ์ สองใหม่ มง9935                        8887-9196           5931-9053                               11460299CCSH       0000001451700000                                                                             
D000032006057601827925112011140859นาย อนุสรณ์ วารีน้อย ทว 7387                      88479981            73217358                                01784404CCSH       0000001344700000                                                                             
D000033006057601827925112011141925นายวิทยา ทิพย์บุญผล ทศ 7619                       4835-9997           9621-7361                               07931067CCSH       0000000321000000                                                                             
D000034006057601827925112011142119นายวิทยา ทิพย์บุญผล ทศ 7619                       8875-9497           9621-7361                               07931067CCSH       0000001706900000                                                                             
D000035006057601827925112011142912นายพิทักษ์ สายบุตร                                8827-9891           5121-8356                               03240869CCSH       0000001918500000                                                                             
D000036006057601827925112011143225นางแสงเดือน เพ็ชรนิล ทล 5539                      88689893            95215343                                02530654CCSH       0000001542800000                                                                             
D000037006057601827925112011143240นายอนุชา สอนเสนา                                  8898-9983           0621-5343                               04514932CCSH       0000001567200000                                                                             
D000038006057601827925112011144222นายวีระ ฉ่ำมณี                                    8846-8497           3921-5331                               00580153CCSH       0000000760000000                                                                             
D000039006057601827925112011145048นายบุญมี หวังประเสริฐ                             88759295            71218334            0855066045          00081879CCSH       0000000697000000                                                                             
D000040006057601827925112011152814นางสาว พวงเพ็ญ ศิริพละ  ทว 4189                   8817-9297           9121-4358                               04581882CCSH       0000002116700000                                                                             
D000041006057601827925112011152917นางสาว พวงเพ็ญ ศิริพละ  ทว 4158                   8827-9297           8121-4355                               04581882CCSH       0000002116700000                                                                             
D000042006057601827925112011160040นาย วรพงศ์  พูลพิพิธ  ทม 1317                     88189591            73211311                                04880062CCSH       0000000200000000                                                                             
D000043006057601827925112011162945นายธรรมสันต์ อุดมวิริยากร                         88379590            17104365                                10435689CCSH       0000002238800000                                                                             
D000044006057601827925112011171848นางสาววชิราภรณ์ นุชสุข                            88189796            78214341                                09621011CCSH       0000001476200000                                                                             
D000045006057601827925112011171942นางสาววชิราภรณ์ นุชสุข                            88779794            12216358                                09621011CCSH       0000001787800000                                                                             
D000046006057601827925112011172856สอาด  บัวขนก                                      88969798            00211365            ทศ1050              08690266CCSH       0000001515300000                                                                             
D000047006057601827925112011173604ประโยชน์ บุญสมเชื้อ                               8805-9396           0431-50601 มจ.5400                      10141356CCSH       0000001051000000                                                                             
D000048006057601827925112011180720นายวรฉัตร ทศศะ                                    88599590            31310079                                06900759CCSH       0000001447900000                                                                             
D000049006057601827925112011181605มนัสนันท์ ศุภสุข                                  88079792            76319051                                07730252CCSH       0000001683800000                                                                             
D000050006057601827925112011181651จ.ส.ต. ยุทธภูมิ รัตนบัติ ทร 517                   8836-9196           7521-0331                               10050466CCSH       0000001105700000                                                                             
D000051006057601827925112011190219นายสมพงษ์ ดารักษ์ ทล593                           88969391            35210349                                10150069CCSH       0000000958000000                                                                             
D000052006057601827925112011191126คุณ กุลรักษ์ บริสุทธิ์                            77588989            35210354                                06982410CCSH       0000001881600000                                                                             
T000053006057601827900000000000000000000000072940500000051                                                                                                                                                                                                      
