H0000010060576018279บริษัท ไทเอซ สิสซิ่ง จำกัด              09012012TALHO                                                                                                                                                                                       
D000002006057601827909012012083241นางสาวคนึงนิจ หอฉ่อย                              8805-9995           1221-8367                               11730878CCSH       0000002000000000                                                                             
D000003006057601827909012012083357นายรักคิด จันทร์สุวรรณ                            88588198            85313071                                00190041CCSH       0000001884200000                                                                             
D000004006057601827909012012083525พ.จ.อ.หญิงบุญทอง จันทร์สุวรรณ                     88069295            38212362                                00190041CCSH       0000001884200000                                                                             
D000005006057601827909012012083607นายมานะ ปานนพภา ทล4957                            88889196            79214345                                00641096CCSH       0000001596500000                                                                             
D000006006057601827909012012090106นส ณัฐธิชา ทาระเวท ทศ 1664                        8856-9597           4621-1366                               01781712CCSH       0000001861800000                                                                             
D000007006057601827909012012090451นายธีระศักดิ์  สุประภากร                          88779791            31218356                                00981066CCSH       0000001897900000                                                                             
D000008006057601827909012012094813นางเปรมฤดี สวัสดี ทศ9015                          88544299            104115854                               01746989CCSH       0000002006700000                                                                             
D000009006057601827909012012100114นายปรีชา หงส์ทอง ทศ 5836                          8856-8698           6821-5363                               04580699CCSH       0000001943400000                                                                             
D000010006057601827909012012101743นายบรรจง สนิท ทล 7688                             8878-9881           8621-7348                               04991118CCSH       0000001800000000                                                                             
D000011006057601827909012012102740นายชัยโรจน์ เพชรพันธศักดิ์ ทว8035                 88879092            50218353                                00641096CCSH       0000001834500000                                                                             
D000012006057601827909012012103120นายขอบตะวัน  ดีประเสริฐ                           88569393            76213362                                01930534CCSH       0000002034700000                                                                             
D000013006057601827909012012103429นายนคร  ทองแก้ว ทศ 3174                           88669494            41213367                                09760114CCSH       0000001884200000                                                                             
D000014006057601827909012012104034นายวิรัตน์  ติ่งทอง  ทศ266                        8867-8098           6221-0366                               02590911CCSH       0000001700000000                                                                             
D000015006057601827909012012104244นายมานะ เกตุชาญ                                   88542199            107102705                               01900719CCSH       0000001447000000                                                                             
D000016006057601827909012012104925นายสุนทร บุญเกิด                                  88069292            85217357            ทว 7578             03961384CCSH       0000000235500000                                                                             
D000017006057601827909012012105042หจก. วิน คาร์ ทล3594                              88098397            45213349                                00771064CCLQ888237700000016655000110180                                                                         
D000018006057601827909012012105113นายสายัณห์  เจริญสุข  มจ7981                      88668298            19317068            0865883906          08690033CCSH       0000001124700000                                                                             
D000019006057601827909012012105439นางสมควร หงษ์ทอง ทร3964                           88069790            49213336                                04581830CCSH       0000001616900000                                                                             
D000020006057601827909012012110115จ.ส.อ.บุญส่ง หวังผล มจ414                         88548099            107076146                               05670390CCSH       0000000960000000                                                                             
D000021006057601827909012012110151นายไพรัช เข็มหนู                                  88679295            00216355                                01619541CCSH       0000001799200000                                                                             
D000022006057601827909012012110524นายเข็มพร  จันจุติ ทว4204                         88779097            42214350                                10710048CCSH       0000001791000000                                                                             
D000023006057601827909012012111039คุณสุรีย์รัตน์ วงษ์เดอรี                          8866-9891           9021-5320                               11040809CCSH       0000001091400000                                                                             
D000024006057601827909012012113644นายเสรี ผายพิมพ์                                  88468797            43217331            ทร7314              03970649CCSH       0000001105700000                                                                             
D000025006057601827909012012113745นายพุฒิพัฒน์ พีรชัยทัศน์                          8897-9290           1121-9356                               07650103CCSH       0000001918500000                                                                             
D000026006057601827909012012114651นางสาวสุวรรณี แก้วแจ่มใส                          88859396            09217362                                00951079CCSH       0000001386200000                                                                             
D000027006057601827909012012115309นายสมยศ กลิ่นเกษร                                 8868-8298           0421-1353                               01270115CCSH       0000001958800000                                                                             
D000028006057601827909012012115702นายประจัญชัย  อัฒจักร                             88169992            87313059                                01760442CCSH       0000000718700000                                                                             
D000029006057601827909012012115802นายบัวลา  ทองขาว  ทศ 7406                         8865-9497           6421-7360                               01215368CCSH       0000002702600000                                                                             
D000030006057601827909012012115817นางสาวอิงอร เอี่ยมวิไล ทว2127                     8818-8988           7121-2352                               02490109CCSH       0000001700000000                                                                             
D000031006057601827909012012120430นายประสิทธิ์ แสนจะบก                              88512699            107036744                               09761108CCSH       0000000869400000                                                                             
D000032006057601827909012012121104นายสุพจน์ ภาคฐิน                                  88469897            76211362                                10330484CCSH       0000001864400000                                                                             
D000033006057601827909012012123057นายสมาน คิมหันตา                                  88531199            107161476                               09621011CCSH       0000001666400000                                                                             
D000034006057601827909012012123517นายมงคล ปราบภัย ทว4624                            8865-9597           4621-4352                               05750619CCSH       0000001617000000                                                                             
D000035006057601827909012012124415นาย กิตติพงศ์  กรศุภอานนท์   ทย 2007              8897-8799           7021-2320                               03970523CCSH       0000001590000000                                                                             
D000036006057601827909012012124528นาย กิตติพงศ์  กรศุภอานนท์  ทม 6002               8807-8899           2021-6310                               03970523CCSH       0000001590000000                                                                             
D000037006057601827909012012125102วิรัช อ่อนละออ                                    88502399            106155697                               06990912CCSH       0000001547600000                                                                             
D000038006057601827909012012125451ศรีทน กองงาม                                      88179093            53317073                                04607752CCSH       0000002204000000                                                                             
D000039006057601827909012012125517นายวิชัย ตุลา ทย201                               88168697            12210320                                02590600CCSH       0000000235500000                                                                             
D000040006057601827909012012130619พ.ต.ณัฐ  กาญจนโรจน์                               88505899            106140169                               04770321CCSH       0000001721900000                                                                             
D000041006057601827909012012130626น.ส.สายันต์  ศรีวงค์ษา                            88778397            76210368                                01880688CCSH       0000001652000000                                                                             
D000042006057601827909012012131852นางศิริดา   บุราณคุณ                              88869394            91213367            ทศ 3179             04930093CCSH       0000001833200000                                                                             
D000043006057601827909012012132257นายวารอง เฉลยโฉม ทพ9918                           88969696            89219281                                10360725CCSH       0000000863600000                                                                             
D000044006057601827909012012133326นาย ณัฐพล นาคอนุเคราะห์ ทศ 6023                   8836-8697           3021-6362                               10900089CCSH       0000001495700000                                                                             
D000045006057601827909012012133700นายประทุม ไทรแช่มจันทร์                           88467897            98214353                                01820662CCSH       0000001884200000                                                                             
D000046006057601827909012012133900นางสาวบังอร  บูระพิน                              48659996            22218367                                09550486CCSH       0000002048200000                                                                             
D000047006057601827909012012134036นาย ทนงศักดิ์  คงแก้ว  ทล4327                     8848-9597           7321-4342           0810775883          08690033CCSH       0000001275700000                                                                             
D000048006057601827909012012134206นาย ทนงศักดิ์  คงแก้ว  ทล4326                     88389597            63214342            0810775863          08690033CCSH       0000001275700000                                                                             
D000049006057601827909012012134240นาง วราภรณ์  แก้วทอง  ทล 9392                     8828-9580           2321-9349                               04920231CCSH       0000001790300000                                                                             
D000050006057601827909012012134403นายวิมล  สุขจาด                                   88259298            58319071                                00330234CCSH       0000001912300000                                                                             
D000051006057601827909012012135128นายนิธิพัฒน์ บังเกิดคงคาดิษฐ์                     88069293            16213368                                04670151CCSH       0000002800000000                                                                             
D000052006057601827909012012135448นายวิทวัส   เงินมงคล   มฉ 4940                    88579593            09314074                                11310028CCSH       0000002019500000                                                                             
D000053006057601827909012012140312นิรมล ม่วงปาน                                     88189981            87217340                                01890216CCSH       0000001700000000                                                                             
D000054006057601827909012012141025นางสาวนงนุช กาฬภักดี                              88288099            80210357                                04650095CCSH       0000001700000000                                                                             
D000055006057601827909012012141303นายสิทธิ์ธา อินทร์จันทร์ ทย6879                   8890-9698           9821-6327                               08691092CCSH       0000000409000000                                                                             
D000056006057601827909012012141440นาย สุวัฒน์ มีพลอย                                88500399            107122515                               01101665CCSH       0000000869400000                                                                             
D000057006057601827909012012141822รอง หงฝาแก้ว                                      8859-9293           5131-2070                               10520224CCSH       0000001467000000                                                                             
D000058006057601827909012012142450นายวินัย แสงปาน มฉ 8623                           88768998            36318072            0841608085          01481588CCSH       0000000030000000                                                                             
D000059006057601827909012012142715นาย บัณฑิต คำสงค์                                 88507099            107155079                               00340753CCSH       0000001714300000                                                                             
D000060006057601827909012012144139นาย วรรณลภ กิจทา                                  88769995            09216327            ทย 6970             03950157CCSH       0000001105700000                                                                             
D000061006057601827909012012145115บุญจันทร์                                         88530799            107043199                               02542373CCSH       0000002048700000                                                                             
D000062006057601827909012012145147นายนิทัศน์                                        88869591            25317051                                02611283CCSH       0000002340000000                                                                             
D000063006057601827909012012150346นายองอาจ มหิทธิโรจน์ ทว6614                       88879784            46216351                                02152851CCSH       0000001194400000                                                                             
D000064006057601827909012012150536นายองอาจ มหิทธิโรจน์ ทว6613                       88979784            36216351                                02152851CCSH       0000001194400000                                                                             
D000065006057601827909012012151339นาย อำนาจ รวยภิรมย์  มฉ5275                       88679092            52315077                                07620396CCSH       0000000022500000                                                                             
D000066006057601827909012012151504นาย อำนวย รวยภิรมย์ มฉ5413                        8807-9691           3431-5071                               07620396CCSH       0000001934000000                                                                             
D000067006057601827909012012151525นาง สำรรวย เดชเถร ทศ 9474                         88535199            104116249                               07937931CCSH       0000001901600000                                                                             
D000068006057601827909012012151528นายสุรศักดิ์ วิเชียรเกื้อ ทศ 7385                 88859497            53217368                                04670492CCSH       0000001342000000                                                                             
D000069006057601827909012012151554พตท.สุเทพ ภูดวงเดือน ทศ7409                       88359597            94217360                                01800598CCSH       0000001828800000                                                                             
D000070006057601827909012012152820อิทธิกร ตันดิลก ทว7954                            8817-9292           4921-7355                               01991041CCSH       0000003768400000                                                                             
D000071006057601827909012012153415นางสาวสุมาลี  ศรีอินทร์  ทว5402                   88579686            24215350                                02590911CCSH       0000001884200000                                                                             
D000072006057601827909012012153703ภัททิรา วีระกูล                                   88159396            79217364                                01451246CCSH       0000001812300000                                                                             
D000073006057601827909012012154458นายอนุน คำทา                                      88513099            107145685                               00440033CCSH       0000000599300000                                                                             
D000074006057601827909012012154910คุณ ชื่นใจ                                        8855-9997           1521-6338                               08770090CCSH       0000001161500000                                                                             
D000075006057601827909012012155034คุณ ชื่นใจ                                        88505999            107149438                               08770090CCSH       0000001132800000                                                                             
D000076006057601827909012012160441คุณวันดี ใจกล้า                                   88888998            35216326                                07660497CCSH       0000001453400000                                                                             
D000077006057601827909012012160856นาย อนุสรณ์ วารีน้อย                              88369797            19213336                                10061102CCSH       0000001649600000                                                                             
D000078006057601827909012012162519ร.อ.ฤทธิชัย ปรีชาจารย์ ทล9825                     88488299            58219342                                07930727CCSH       0000001836700000                                                                             
D000079006057601827909012012163433นางเพ็ญศิริ วัฒนไตร                               8837-9298           4221-3359           ทว3294              04881604CCSH       0000001750000000                                                                             
D000080006057601827909012012170341นาย วินัย ผลดี                                    8897-9395           6021-8337           ทร8076              10250012CCSH       0000003376900000                                                                             
D000081006057601827909012012171901นางระเบียบ พิมทอง                                 88583798            104123321                               04700190CCSH       0000001922300000                                                                             
D000082006057601827909012012171944นางวัลลภา พรหมฤดี                                 88779194            35211329                                07953686CCSH       0000002248500000                                                                             
D000083006057601827909012012172208นายพงษ์เกียรติ บุญเส็ง                            88959696            57217310                                09680260CCSH       0000001498000000                                                                             
D000084006057601827909012012173454นายสมเจตน์ จงพินิจ ทว 1956                        88534989            106133589                               01734121CCSH       0000001444500000                                                                             
D000085006057601827909012012173739นายประเสรืฐ คุ้มชู                                8816-9498           2221-1367                               07990501CCSH       0000001798600000                                                                             
D000086006057601827909012012180217นายสมาน  คนหลวง ทว7908                            88379192            89217350                                11040535CCSH       0000001884200000                                                                             
D000087006057601827909012012181859นายทองปาน บุญแสนยศ ทร 7940                        88468897            09217334                                01734121CCSH       0000001062800000                                                                             
D000088006057601827909012012193003นายอรรณพ แจ่มใส ทย 1118                           88513599            107094402                               11140083CCSH       0000001043300000                                                                             
T000089006057601827900000000000000000000000139435500000087                                                                                                                                                                                                      
