H0000010060576018279บริษัท ไทเอซ สิสซิ่ง จำกัด              06082011TALHO                                                                                                                                                                                       
D000002006057601827906082011103651นางพรรณา วรรณโนรักษ์ ทว 6918                      8827-9793           8921-6351                               08510017CCSH       0000001602800000                                                                             
D000003006057601827906082011105911นายไพรสน คำอ่อน                                   88768697            33216369                                07621493CCSH       0000001874000000                                                                             
D000004006057601827906082011110106นายไพรสน คำอ่อน                                   88159496            392173699                               07621493CCSH       0000001846600000                                                                             
D000005006057601827906082011110239นายไพรสน คำอ่อน                                   88259496            38217369                                07621493CCSH       0000001846600000                                                                             
D000006006057601827906082011110349นายไพรสน คำอ่อน                                   48568997            33216369                                07621493CCSH       0000000300000000                                                                             
D000007006057601827906082011115026นาย สุรพล ไกรพ้น                                  8887-8198           9131-6075                               08771836CCSH       0000001880000000                                                                             
D000008006057601827906082011132132นายทรัพย์ นิลเนตร มง1542                          88869790            25311054                                10360570CCSH       0000000857800000                                                                             
D000009006057601827906082011135038นายศิวะ นามราชา ทย3773                            8897-9790           3721-3327                               11370605CCSH       0000001105700000                                                                             
D000010006057601827906082011143458นางบุณยานิตย์ ศิริรักษ์ ทร7780                    8887-8397           0721-7338                               11240761CCSH       0000001572000000                                                                             
D000011006057601827906082011144016นายเจริญ ชัชวาลย์                                 88078499            39315077                                09761108CCSH       0000002017700000                                                                             
D000012006057601827906082011144854นางสาวสุนันท์  แก้วเผือก                          8816-8999           5009-7400                               04930913CCSH       0000000312100000                                                                             
D000013006057601827906082011144905น.ส.บุญสิตา สุนทรสวัสดิ์                          8866-9197           5231-7077                               09740387CCSH       0000001842700000                                                                             
D000014006057601827906082011145713นายธรรมสันต์  อุดมวิริยากร                        8837-9590           1710-4365                               04700012CCSH       0000001201400000                                                                             
D000015006057601827906082011152513เชาน์วัศ   หล้าสุดตา  ทว 5002                     8897-9196           2021-5350                               04670063CCSH       0000001776500000                                                                             
D000016006057601827906082011153230นาย วีระศักดิ์ ศรีสมุทร ทล7727                    8898-9091           7721-7342                               07540596CCSH       0000001808800000                                                                             
D000017006057601827906082011162117นางสาว นัฐพร ประวงษ์ ทม 3599                      8807-9098           9521-3319                               00860606CCSH       0000000800000000                                                                             
D000018006057601827906082011165306น.ส.ปนัดดา  สาระวัน                               8887-9886           6121-5356                               02501795CCSH       0000001454900000                                                                             
D000019006057601827906082011165335นาย ภานุพงค์ จรมณี ทม8962                         8878-9394           2921-8316                               05700914CCSH       0000000436000000                                                                             
D000020006057601827906082011170245นายธนกร  โพธารัตน์  ทม 5571                       8807-9794           1521-5317                               04881090CCSH       0000001040000000                                                                             
D000021006057601827906082011170303วิชัย ปุสารัมย์                                   8895-9196           2921-7368                               08000990CCSH       0000001519900000                                                                             
D000022006057601827906082011170356นาย จักรชัย ลมัยกุล มจ 1852                       8816-9890           2831-1065                               09620029CCSH       0000001632800000                                                                             
D000023006057601827906082011171157นายองอาจ มหิทธิโรจน์ ทร2720                       8840-9982           0721-2332                               04950486CCSH       0000000957800000                                                                             
D000024006057601827906082011172113นายอรัญ ขาวเนตร                                   88678599            42219326                                09761108CCSH       0000001290000000                                                                             
D000025006057601827906082011172433นายไสว เทพแสง                                     8855-9598           1731-5068                               04700568CCSH       0000001286700000                                                                             
D000026006057601827906082011173307นางสาว สุปราณี ธนูศิลป์ ทล 8861                   88589780            18218346                                10071091CCSH       0000001687700000                                                                             
D000027006057601827906082011173936นางรัชนี จันทร์แก้ว                               8809-8399           7121-2347                               05690127CCSH       0000001566800000                                                                             
D000028006057601827906082011175311นาย กรชาล จันทะเอ  ทว 8622                        88857697            26218352                                10073833CCSH       0000002020700000                                                                             
D000029006057601827906082011180320นางชลิตดา เจริญพวง                                88979097            53214355                                09761108CCSH       0000002400000000                                                                             
D000030006057601827906082011183401นายประยูร วิเศษนอก                                88069491            8524360                                 11521521CCSH       0000001823400000                                                                             
D000031006057601827906082011190544นายธนพงษ์ เครือวณิชธรรมทม.4468                    8885-7897           8421-4316                               10154881CCSH       0000001374400000                                                                             
D000032006057601827906082011190559นางอัจรา เสริฐใส                                  8877-9990           1821-3320           ทย 3801             10091582CCSH       0000001086100000                                                                             
T000033006057601827900000000000000000000000044221900000031                                                                                                                                                                                                      
