H0000010060576018279บริษัท ไทเอซ สิสซิ่ง จำกัด              19102011TALHO                                                                                                                                                                                       
D000002006057601827919102011084940อรณิชา เทพเทียน ทศ6284                            88768797            42216368                                02190075CCSH       0000001856500000                                                                             
D000003006057601827919102011085045อรณิชา เทพเทียน ทศ9867                            88529899            106197834                               02190075CCSH       0000001584400000                                                                             
D000004006057601827919102011090201นางบุญโฮม เกษแสนศรี ทร 5420                       8856-9591           0421-5332                               04580699CCSH       0000001105700000                                                                             
D000005006057601827919102011091934นาย คงศักดิ์  รุ่งรัตน์                           88479784            17216351                                00650498CCSH       0000001990000000                                                                             
D000006006057601827919102011092111นาย คงศักดิ์  รุ่งรัตน์                           8838-9198           2921-3347                               00650498CCSH       0000001665500000                                                                             
D000007006057601827919102011092322คุณสมหมาย ปานเนาว์ มง8921                         88659894            19318052                                07601301CCSH       0000000868500000                                                                             
D000008006057601827919102011092506สุกัญญา  วิไลลักษณ์                               88669796            63212367                                11310957CCSH       0000001356900000                                                                             
D000009006057601827919102011092654นายสุกิจ  ดาวเรือง                                8845-9194           3121-8331                               01900032CCSH       0000000098500000                                                                             
D000010006057601827919102011093617นายสวัสดิ์  คูณพรม                                88869390            46214337                                00200304CCSH       0000001444000000                                                                             
D000011006057601827919102011101334นายอมรวงษ์ เปียไพบูลย์ ทษ 530                     88519599            104122431                               00771132CCSH       0000001568200000                                                                             
D000012006057601827919102011101435นายณรงค์ ภู่กรุต ทล9779                           88588499            97219347                                07960121CCSH       0000000060000000                                                                             
D000013006057601827919102011101455นายอมรวงษ์ เปียไพบูลย์ ทล 7828                    8858-9781           8821-7342                               00771132CCSH       0000001587900000                                                                             
D000014006057601827919102011101648นาย ดำรงค์ ศรีนุรัตน์ ทศ 4602                     88369391            26214360                                01481887CCSH       0000002513400000                                                                             
D000015006057601827919102011101738นาย ดำรงค์ ศรีนุรัตน์ ทศ 4601                     88269391            16214360                                01481887CCSH       0000002513400000                                                                             
D000016006057601827919102011102749นาง วันเพ็ญ กิจนิยม ทม8375                        88279690            53218317                                00660527CCSH       0000000030000000                                                                             
D000017006057601827919102011102925คงศักดิ์  กองทอง ทศ9790                           88527799            104119626                               00280900CCSH       0000001644300000                                                                             
D000018006057601827919102011103100นางอุไรวรรณ  นุตตะโยธิน                           88168898            14213329            089-050-7177        04600142CCSH       0000001391000000                                                                             
D000019006057601827919102011104241นาย อภิรักษ์  ห้อยหวล                             88979391            92218316                                09680060CCSH       0000000475000000                                                                             
D000020006057601827919102011110330นายสัญชัย ยุทธารักษ์ ทล5204                       8888-9894           4221-5340                               02190241CCSH       0000001952300000                                                                             
D000021006057601827919102011112524นายสุรินทร์ ชูวงศ์วาน                             88269592            39312058                                03539462CCSH       0000000963300000                                                                             
D000022006057601827919102011112636นายฉัตรชัย งานไว                                  88574497            107028810           มง  4505            03991662CCSH       0000001390000000                                                                             
D000023006057601827919102011113059นายสำรวย ทองแย้ม  มง688                           88869798            86310058                                08690335CCSH       0000000470200000                                                                             
D000024006057601827919102011115947นายธีรพงษ์ สมนาม ทร4469                           88523899            107136028                               02260861CCSH       0000000733300000                                                                             
D000025006057601827919102011121310นายทรง อ่อนใจ ทว 8576                             8857-9781           6521-8357                               04580699CCSH       0000001884200000                                                                             
D000026006057601827919102011125010นายฉัตรชัย งานไว                                  88574497            107028810                               03991662CCSH       0000000001000000                                                                             
D000027006057601827919102011134507นางสาว รัชนี ไชยชะนะ ทร 4404                      8860-8399           4421-4330                               01890420CCSH       0000001441500000                                                                             
D000028006057601827919102011135026นาย กำพล นวปฎลชัยเขต ทล6874                       8878-9891           4821-6347                               01771050CCSH       0000001806000000                                                                             
D000029006057601827919102011135413สุนทร  จันทร                                      88679791            61218355                                01900549CCSH       0000001884200000                                                                             
D000030006057601827919102011140505นายวรา จันทร์หลวง                                 88878899            07215330                                00740081CCSH       0000001490300000                                                                             
D000031006057601827919102011142124นายเทพฤทธิ์ สองใหม่ มง9935                        88879196            59319053                                11460299CCSH       0000001451700000                                                                             
D000032006057601827919102011142637นายสำราญ   ไทรกลมเกลียว                           88369693            10213335                                08553235CCSH       0000000989800000                                                                             
D000033006057601827919102011143146คุณ ประเทือง  สุขสมพืช                            8887-9090           1831-5070           029620032           01230233CCSH       0000002000000000                                                                             
D000034006057601827919102011143314นายสมชาย ศิริรักษ์ ทย5592                         88569997            25215329                                00190024CCSH       0000000100000000                                                                             
D000035006057601827919102011145002นางสาว ประทุม ตรีภักดิ์                           88278989            79219359                                10090237CCSH       0000002338900000                                                                             
D000036006057601827919102011145612พ.ต.ท. จิตติณัติ รักชาติ ทศ 6565                  8856-8298           5521-6366                               04780201CCSH       0000002248300000                                                                             
D000037006057601827919102011145859ประกอบ  ทองสะอาด                                  88778799            33218311                                03322338CCSH       0000000132800000                                                                             
D000038006057601827919102011153234นอ.แมน  ศีติจิตต์                                 88559994            67218365                                11310957COTH       0000001541100000                                                                             
D000039006057601827919102011154344นายประยูร วิเศษนอก ทศ4508                         8806-9491           8521-4360                               05670390CCSH       0000001833400000                                                                             
D000040006057601827919102011154933วีระ ไพรณรงค์                                     88389291            42313056                                10365296CCSH       0000001062800000                                                                             
D000041006057601827919102011160416ด.ต.เสิม หยุ่นแก้ว ทล7009                         88487497            90217340                                01971063CCSH       0000001700000000                                                                             
D000042006057601827919102011181549นางสมฤทัย บุญถนอมจิต ทร994                        886-9493            4921-0339                               08691092CCSH       0000001483700000                                                                             
D000043006057601827919102011185113นายพิเชษฐ แก้วมา ทว2775                           88179898            57212357                                08405593CCSH       0000001786300000                                                                             
D000044006057601827919102011191313นางสาว ชมพู เชิดพงษ์ ทศ 567                       77569894            75210366                                04950529CCSH       0000001879700000                                                                             
D000045006057601827919102011192327นางสาว ชมพู เชิดพงษ์ ทว 1586                      779459894           106132978                               04950529CCSH       0000001728000000                                                                             
T000046006057601827900000000000000000000000060046000000044                                                                                                                                                                                                      
