H0000010060576018279บริษัท ไทเอซ สิสซิ่ง จำกัด              04022012TALHO                                                                                                                                                                                       
D000002006057601827904022012101443กิตติศักดิ์  ร่ำรวย                               88479691            81218357                                08690542CCSH       0000000030000000                                                                             
D000003006057601827904022012110337นาง เกสฬา พันจุย                                  88569495            68212366            ทศ2866              10250256CCSH       0000001500700000                                                                             
D000004006057601827904022012110714ว่าที่ร.ต.ทรงพล เสตถาภิรมย์                       88059798            16216369                                01730481CCSH       0000002636000000                                                                             
D000005006057601827904022012110823ว่าที่ร.ต.ทรงพล เสตถาภิรมย์                       88168497            94216361                                01730481CCSH       0000002636000000                                                                             
D000006006057601827904022012110938นาง ทัศนีย์  ลาภผลเจริญ ทม 7559                   8888-9280           9521-7315                               10250225CCSH       0000000500000000                                                                             
D000007006057601827904022012110940ว่าที่ร.ต.ทรงพล เสตถาภิรมย์                       88547299            104116007                               01730481CCSH       0000002269900000                                                                             
D000008006057601827904022012111043ว่าที่ร.ต.ทรงพล เสตถาภิรมย์                       88546299            104116011                               01730481CCSH       0000002269900000                                                                             
D000009006057601827904022012113703นายสัญญา จันเวียง มฉ3234                          88578397            106131044                               11370605CCSH       0000001601000000                                                                             
D000010006057601827904022012115652ธำรงค์ยศ มจ1418                                   88859997            84311061                                07960038CCSH       0000000597700000                                                                             
D000011006057601827904022012121728พ.ต.ท.จิตติณัติ รักชาติ ทศ 9993                   88525599            104119885                               04780120CCSH       0000002463100000                                                                             
D000012006057601827904022012122341สมชาย ศรีพลัง ทม 3031                             8866-9787           1021-3313                               10330064CCSH       0000000698500000                                                                             
D000013006057601827904022012122946สุมาลี ศรีกะภา ทล 653                             88599192            36210345                                10320746CCSH       0000000167000000                                                                             
D000014006057601827904022012124825นายชัชวาล แสงอาวุธ ทศ 8140                        88359296                                                    11812551CCSH       0000001863100000                                                                             
D000015006057601827904022012130625นายนพพร รักษาคุณ มฉ1741                           8845-9994           1731-1074                               08450531CCSH       0000001405500000                                                                             
D000016006057601827904022012131227นายคำรณ ภู่ลา                                     88579491            45315071                                04700568CCSH       0000001799200000                                                                             
D000017006057601827904022012131724นายธรรมโรจน์  ศรีบุญเลิศ                          88879786            84314071                                07690793CCSH       0000001356900000                                                                             
D000018006057601827904022012133904นางพรเพ็ญ แซ่ก๊วย ทล 8440                         88289190            04218344                                11140083CCSH       0000001700000000                                                                             
D000019006057601827904022012141345นางวิภา ดำขำ ทว 3931                              8897-9297           1921-3353                               04780120CCSH       0000002116700000                                                                             
D000020006057601827904022012141452นางวิภา ดำขำ ทว 3932                              8807-9397           2921-3353                               04780120CCSH       0000002116700000                                                                             
D000021006057601827904022012141620นางวิภา ดำขำ ทว 3933                              8887-9297           3921-3353                               04780120CCSH       0000002116700000                                                                             
D000022006057601827904022012141622นายพงษ์เทพ  จึงตระกูล  มฉ 1167                    88537499            107161465                               05701141CCSH       0000000877600000                                                                             
D000023006057601827904022012152930นางสาวเสาวรส จำนงค์ไวย                            88502599            107140020                               04880528CCSH       0000001302400000                                                                             
D000024006057601827904022012165343คุณทองใบ ดีวัน ทม 8675                            88379394            56218317                                08550650CCSH       0000001710000000                                                                             
D000025006057601827904022012172004นายประเสริฐ คุ้มชู                                88169498            22211367            0818303298          07990070CCSH       0000001726300000                                                                             
D000026006057601827904022012175053นายสุรเดช แก่นโนรา  ศฉ1620                        88869797            06361072                                08690335CCSH       0000001107600000                                                                             
D000027006057601827904022012175502นายอานนท์ วันแจ วฉ5956                            88199391            69355075                                08691827CCSH       0000000624200000                                                                             
D000028006057601827904022012180422นายวิทยา ภิราพร                                   88789191            74217349                                10660903CCSH       0000001700000000                                                                             
D000029006057601827904022012180635นายสุพพัต ตองติดรัมย์                             88679886            33314078            มฉ 4383             04880760CCSH       0000001983000000                                                                             
D000030006057601827904022012180758นางสาววิชุดา  พลายแก้ว                            88977297            84213344                                07540984CCSH       0000001665500000                                                                             
D000031006057601827904022012180812นาย สุนทร  ผาครบุรี                               88516199            106199157                               10250225CCSH       0000000056000000                                                                             
T000032006057601827900000000000000000000000044597200000030                                                                                                                                                                                                      
