H0000010060576018279บริษัท ไทเอซ สิสซิ่ง จำกัด              16122011TALHO                                                                                                                                                                                       
D000002006057601827916122011084936K.วชิระ อยู่โต                                    88159894            60339067                                02610535CCSH       0000000289800000                                                                             
D000003006057601827916122011090741นาย ฉลาด วันชนะ                                   8807-8988           7321-0360           ทศ307               00600443CCSH       0000001918500000                                                                             
D000004006057601827916122011091819นาย  สามารถ  แถมเงิน  มฉ 2515                     88889192            55312071                                01980820CCSH       0000001740000000                                                                             
D000005006057601827916122011091858นายสุชาติ วิเศษชิต                                88859596            81212329            0862084470          06960116CCSH       0000001052200000                                                                             
D000006006057601827916122011093630นาย ชัยกะมน สุขกำเนิด                             88768997            35219343                                05760932CCSH       0000001847500000                                                                             
D000007006057601827916122011093855น.ส.ศิริกานดา  ทานุรัตน์                          8876-9893           2321-3364                               11470668CCSH       0000001799200000                                                                             
D000008006057601827916122011093917นาย เพชร  เกาะแก้ว                                88522399            107157654                               00910199CCSH       0000001819000000                                                                             
D000009006057601827916122011102818นางนงคราญ คำมอญ  ทว 7259                          8847-9993           9221-7355                               04581882CCSH       0000002528000000                                                                             
D000010006057601827916122011103829นายธนะสิทธิ์  สัจจสิงห์                           88888198            41212358                                01260418CCSH       0000000204200000                                                                             
D000011006057601827916122011104612ประเสริฐ บุญเพ็ง                                  88259894            67218362                                00530572CCSH       0000001960100000                                                                             
D000012006057601827916122011105936นาย วสันต์ สุวรรณรังษี ทล 7089                    8868-9682           9021-7348                               01200547CCSH       0000001595500000                                                                             
D000013006057601827916122011110211สมศักดิ์  เกตุกรัต มฉ5532                         8877-9981           2531-5073                               04830668CCSH       0000001918500000                                                                             
D000014006057601827916122011110426นาย บุญเลิศ  สาระพร  ทล4042                       88389298            20214344                                11340169CCSH       0000001504500000                                                                             
D000015006057601827916122011112238นาย มนตรี  แก้วใจจง                               88979894            57314071                                06980188CCSH       0000001884200000                                                                             
D000016006057601827916122011113814นางสาวภัทรานิษฐ์ รัตนวรธันยา ทศ 2066              88269787            60212366                                04810155CCSH       0000001595000000                                                                             
D000017006057601827916122011113916นางสาวภัทรานิษฐ์ รัตนวรธันยา ทว 7692              88879892            26217359                                04810155CCSH       0000001595000000                                                                             
D000018006057601827916122011114050นาย  สมบัติ  โคกลือชา  ทว  7622                   88479683            26217352                                01980820CCSH       0000001731000000                                                                             
D000019006057601827916122011114144ชาติชาย ชาติขยัน                                  88979688            05213351                                00240400CCSH       0000001884200000                                                                             
D000020006057601827916122011114226นายพิเชษฐ  กลั่นประโคน  ทว4504                    88079687            45214350                                11140161CCSH       0000001700000000                                                                             
D000021006057601827916122011114234คุณธีลาวัลย์ ศรีบุศยดี                            8887-9895           5421-9310                               09550205CCSH       0000001517700000                                                                             
D000022006057601827916122011120305นางนงนุช มาลัย ณจ2457                             88159594            74172065                                01890658CCSH       0000000553000000                                                                             
D000023006057601827916122011121145นางสาวสุนิสา ชัยชนะ                               88159995            52218369            ทศ 8295             11940913CCSH       0000001846600000                                                                             
D000024006057601827916122011121327นาย เอกสิทธิ์  ศรีตองอ่อน ทว597                   8858-8689           7521-0359                               02590608CCSH       0000001918700000                                                                             
D000025006057601827916122011123650นายศักดิ์คร พวงพิลา มฉ 6033                       8877-8998           3031-6073                               01300249CCSH       0000001884200000                                                                             
D000026006057601827916122011123811นายอิสระ  สัจจะสรรเสริญ                           88059096            14310083                                00336716CCSH       0000001846600000                                                                             
D000027006057601827916122011125520นาง สมควร ทิพศักดิ์ ทม 6401                       88689898            14216310                                10270592CCSH       0000001399000000                                                                             
D000028006057601827916122011130033นางกฤษญา  แจ้งเพชร                                88269294            33213364                                07540984CCSH       0000001515600000                                                                             
D000029006057601827916122011130147จ.ส.อ.สมพิศ  โหมดเทศ                              88659596            41374078                                07540984CCSH       0000000720000000                                                                             
D000030006057601827916122011132342นายบุญเลิศ ทรัพย์เจริญกุล ทย1627                  88069991            76211322                                10320156CCSH       0000001473100000                                                                             
D000031006057601827916122011132519นายมณฑล วรรณขาม  ทร5988                           88959297            89215338                                10320156CCSH       0000000300000000                                                                             
D000032006057601827916122011132631วิรุช สุทธิจันทร์                                 88489593            77211317                                11305412CCSH       0000001447100000                                                                             
D000033006057601827916122011140728นายไพศาล พรประภาศักดิ์ ทศ397                      88478098            73210369                                04671136CCSH       0000001704800000                                                                             
D000034006057601827916122011141019นายพรชัย สุจริตหัตถชัย                            88519989            107029121                               01522997CCSH       0000000723000000                                                                             
D000035006057601827916122011141033นาง ณัฐพร ผลเกลี้ยง ทม787                         8847-9894           7721-0318                               10860565CCSH       0000001069400000                                                                             
D000036006057601827916122011142309นาย ทอง ไสยวิจิตร ทล 4143                         88589997            31214344                                00651478CCSH       0000001714300000                                                                             
D000037006057601827916122011142434นายบุญกฐิน ถนอมเมฆ                                88278099            11316072                                11370660CCSH       0000001799200000                                                                             
D000038006057601827916122011143218นายธนชัย วุฒิยา มฉ3358                            88188889            83313075                                07601138CCSH       0000001914200000                                                                             
D000039006057601827916122011143246นายประจัญชัย อัฒจักร ทว9202                       8867-9190           2221-9350                               00130241CCSH       0000001918500000                                                                             
D000040006057601827916122011144702นายธวัชชัย บุญอยู่ ทย 1692                        88979882            26211329                                10292512CCSH       0000001485700000                                                                             
D000041006057601827916122011145835นาย เสาร์คำ แก้ววิมล                              88079994            66314078                                01720543CCSH       0000001884200000                                                                             
D000042006057601827916122011150849นายนาวี มีสมวงษ์                                  8897-8889           3031-6071                               00282352CCSH       0000001617900000                                                                             
D000043006057601827916122011151239นางประทวน  เขียวแล                                88569592            25315061                                10370321CCSH       0000000994100000                                                                             
D000044006057601827916122011152540นายอนุสรณ์ วารีน้อย                               88178598            09212328                                01781711CCSH       0000001649600000                                                                             
D000045006057601827916122011153301นายวีระ ฉ่ำมณี ทร 5913                            8846-8497           3921-5331                               00580153CCSH       0000000700000000                                                                             
D000046006057601827916122011154413นายบุญจันทร์ สีธาตุ                               88530799            107043199                               08510017CCSH       0000002047200000                                                                             
D000047006057601827916122011154938มะรินทร์ พรมโลกา                                  88579587            67214355                                00470517CCSH       0000001912900000                                                                             
D000048006057601827916122011162524มารีนา  ประกอบผล                                  8876-8798           3021-7359           ทว7093              08690266CCSH       0000000685400000                                                                             
D000049006057601827916122011162922สัณหณัฐ ทศ8979                                    88759195            99218367                                07960038CCSH       0000003258500000                                                                             
D000050006057601827916122011164053อวิรุจ  บุทธิจักร                                 88779093            41217353                                08690542CCSH       0000004255000000                                                                             
D000051006057601827916122011164643นายพงษ์ศักดิ์ บริบูรณ์ ทล7838                     88869291            88217343                                08691092CCSH       0000001970000000                                                                             
D000052006057601827916122011172627นางชลิตดา เจริญพวง                                88179587            16214355                                09760107CCSH       0000002400000000                                                                             
D000053006057601827916122011173447นายพงศ์เพียร  เพียรสวัสดิ์                        8888-9681           1331-3069           มจ3391              08690266CCSH       0000003107900000                                                                             
T000054006057601827900000000000000000000000085799800000052                                                                                                                                                                                                      
