H0000010060576018279บริษัท ไทเอซ สิสซิ่ง จำกัด              27082011TALHO                                                                                                                                                                                       
D000002006057601827927082011103456อนุรักษ์  แซ่คู                                   8858-8898           7621-3352                               04930173CCSH       0000001700000000                                                                             
D000003006057601827927082011112415นาย วิชัย วิเศษ ทล 1277                           8849-9881           7221-1347                               02501180CCSH       0000001261500000                                                                             
D000004006057601827927082011121233นายนิวัฒน์ คำสงค์ ทม 6757                         88559498            77216315                                10660615CCSH       0000001105700000                                                                             
D000005006057601827927082011122734นายธรรมสันต์ อุดมวิริยากร                         88379590            17104365                                04700568CCSH       0000001078900000                                                                             
D000006006057601827927082011123048อรัญ ขาวเนตร                                      88178499            65211337                                09761108CCSH       0000001970500000                                                                             
D000007006057601827927082011145136ด.ต.วิรัตน์ ตะคุณนะ                               88568397            56217320                                11520403CCSH       0000000631700000                                                                             
D000008006057601827927082011151846วรรณภา  เจริญอินทร์                               88869598            5921-1364                               07990132CCSH       0000000235500000                                                                             
D000009006057601827927082011154718นายนันท์มนัส พอใจ ทว7834                          88179692            48217353                                08691092CCSH       0000001884200000                                                                             
D000010006057601827927082011155054นายสมเกียรติ สีธงชัยรุ่งโรจน์ ทม4973              88469598            39214317                                07930318CCSH       0000001212700000                                                                             
D000011006057601827927082011155146นายสมเกียรติ สีธงชัยรุ่งโรจน์ ทว783               88069787            37210358                                07930318CCSH       0000001382100000                                                                             
D000012006057601827927082011155251นายสมเกียรติ สีธงชัยรุ่งโรจน์ ทพ9097              88569794            70219289                                07930318CCSH       0000001159200000                                                                             
D000013006057601827927082011155351นายสมเกียรติ สีธงชัยรุ่งโรจน์ ทพ4790              88269797            07214289                                07930318CCSH       0000001159200000                                                                             
D000014006057601827927082011155421นายภักดี  ถาวรวัฒนะ                               8866-9697           4531-0062                               07540984CCSH       0000001572000000                                                                             
D000015006057601827927082011155503นายสรรเสริญ สีธงชัยรุ่งโรจน์                      88259596            49212321                                07930318CCSH       0000001302400000                                                                             
D000016006057601827927082011161332นาง ภัททิยา จึงเจริญกิจไพศาล ทล1042               8837-9690           2021-1344                               04780158CCSH       0000001890000000                                                                             
D000017006057601827927082011162133นาง นิธิกานต์ วัฒนถนอม                            8835-9897           8321-7368                               10810244CCSH       0000002297300000                                                                             
D000018006057601827927082011162414ด.ต.สุวนัย เสาศิริ                                8876-9195           7821-2366                               04780536CCSH       0000001915500000                                                                             
D000019006057601827927082011170048นายอดิศักดิ์ เพ็ญคำ ทร 5301                       88768497            13215330                                10071091CCSH       0000001200000000                                                                             
D000020006057601827927082011170203นางนฤมล  ฟ้าอรุณ ทว 2768                          88679798            87212356                                05701141CCSH       0000001432800000                                                                             
D000021006057601827927082011170245นางสาวกัญชลิกา ชุติอาภา                           8835-9297           3421-7369                               05970617CCSH       0000001846600000                                                                             
D000022006057601827927082011170348นางสาวกัญชลิกา ชุติอาภา                           8817-9796           1721-4355                               05970617CCSH       0000001918500000                                                                             
D000023006057601827927082011171147คุณ ประโยชน์ บุญสมเชื้อ มจ5400                    88059396            04315060                                11250101CCSH       0000001056500000                                                                             
D000024006057601827927082011171602นางวิไลภรณ์  ผลบุญพิทักษ์  ทว8709                 8847-9890           9721-8350                               10631094CCSH       0000002018500000                                                                             
D000025006057601827927082011182224นายวีระ ยุบลพริ้ง ทว6589                          8836-9887           9521-6358                               10320156CCSH       0000001583400000                                                                             
D000026006057601827927082011183012นายสุชาติ แก้วดอนรี ทล2063                        8879-8499           3021-2346                               10150884CCSH       0000001665500000                                                                             
D000027006057601827927082011183101นายสุชาติ แก้วดอนรี ทล2063                        8879-8499           3021-2346                               10150884CCSH       0000000034200000                                                                             
T000028006057601827900000000000000000000000036514400000026                                                                                                                                                                                                      
