H0000010060576018279บริษัท ไทเอซ สิสซิ่ง จำกัด              28112011TALHO                                                                                                                                                                                       
D000002006057601827928112011092509นายธนกฤษ  มะสังหลง                                8836-8598           9721-5363           084-353-4472        04600142CCSH       0000001908800000                                                                             
D000003006057601827928112011092753นางพรสวรรค์  เงินนาม                              8846-9196           3521-8321                               04120413CCSH       0000001382100000                                                                             
D000004006057601827928112011093159นายอมร จันทร์ไว                                   88998398            03212349                                06232183CCSH       0000000132800000                                                                             
D000005006057601827928112011100926นายเลิศ สอดศรี ทร8895                             88699294            58218339                                00470517CCSH       0000000265500000                                                                             
D000006006057601827928112011101300นิตยา วรสาร                                       88369893            03213363                                00240400CCSH       0000000030000000                                                                             
D000007006057601827928112011104807นางดารา ผลจันทร์                                  88268798            02211347            ทล 1270             08510518CCSH       0000001600000000                                                                             
D000008006057601827928112011104932นายวีระศักดิ์  ธิโสภา  มฉ  963                    88989698            39310076                                08560585CCSH       0000001700000000                                                                             
D000009006057601827928112011111439นายนันท์มนัส พอใจ ทว7834                          88179692            48217353                                08691092CCSH       0000001884200000                                                                             
D000010006057601827928112011112453นายเกรียงไกร ศรอินทร์  ทย2486                     88969492            64212328                                10320014CCSH       0000000829300000                                                                             
D000011006057601827928112011113007นาย ประทิน ช้างร้าย                               88502499            106133255                               10990511CCSH       0000001814600000                                                                             
D000012006057601827928112011113309นายกิตติกวิน สุขกำเนิด                            8886-8799           3021-3325                               00824310CCSH       0000001481300000                                                                             
D000013006057601827928112011113656นางเสน่ห์ อินสุ                                   88779690            47218358                                01900719CCSH       0000001652200000                                                                             
D000014006057601827928112011115033นาย ธนพัต คุ้มวงษ์                                88078897            85210364                                00201688CCSH       0000001773000000                                                                             
D000015006057601827928112011115214นางมาลาศรี ทองชา                                  88521499            107130390           ทร2902              04930415CCSH       0000001328300000                                                                             
D000016006057601827928112011121837นายยงยุทธ์ สึกชัย มฉ 3221                         8868-8299           1231-3072                               00770525CCSH       0000001866400000                                                                             
D000017006057601827928112011122246นายทองหล่อ  โภคา  ทล 6900                         88789492            09216340                                03970523CCSH       0000001700000000                                                                             
D000018006057601827928112011122352นายทองหล่อ  โภคา ทร 9858                          8839-9883           8821-9335                               03970523CCSH       0000000477400000                                                                             
D000019006057601827928112011122725ยุทธพงศ์                                          8867-9393           5621-1339                               01990942CCSH       0000001580000000                                                                             
D000020006057601827928112011123027นางสาวสุชาดา ไทยแท้                               88512099            106202782           ทษ 800              04712940CCSH       0000002046000000                                                                             
D000021006057601827928112011123604นาย ขวัญชัย บุญนาค                                88503799            106203179                               09700656CCSH       0000001733300000                                                                             
D000022006057601827928112011123757นายสุพงศ์ เพชรศักดา ทย 8516                       8890-9796           6521-8321                               01880367CCSH       0000000604800000                                                                             
D000023006057601827928112011124932วัชรินทร์ จงดูกลาง                                88869295            66214312                                03830885CCSH       0000000858000000                                                                             
D000024006057601827928112011125545น.ส.นงลักษณ์ ใหม่คำ                               88502099            016000069                               00760677CCSH       0000000499400000                                                                             
D000025006057601827928112011125710นางนฤมล ฟ้าอรุณ                                   88679798            87212356                                05700127CCSH       0000001432800000                                                                             
D000026006057601827928112011130925นายสุนทร  บุญเกิด                                 88504599            107107351                               03965684CCSH       0000000110000000                                                                             
D000027006057601827928112011130944ด.ต. สายชล กฤษวงษ์                                8867-8598           3021-0365           ทศ 53               07667661CCSH       0000001884200000                                                                             
D000028006057601827928112011132525นาย อนุสรณ์ วารีนอย ทย372                         88278299            23210327                                07997991CCSH       0000001455200000                                                                             
D000029006057601827928112011134038กึ๋ม พาดขุนทด                                     88088499            07219340                                08550664CCSH       0000001700000000                                                                             
D000030006057601827928112011134058นายสัญญา  กังวานไกล  ทศ43                         8855-7997           3021-0364                               00540531CCLQ411054 00000018842000140120                                                                         
D000031006057601827928112011134234นาย นรชัย แพงศร  ทษ 608                           88511299            104123041                               00651478CCSH       0000001994700000                                                                             
D000032006057601827928112011134258นายวัชรินทร์ จงดูกลาง                             88869295            66214312                                03833635CCSH       0000001659600000                                                                             
D000033006057601827928112011134413นาย นรชัย แพงศร  ทว 7970                          88779192            09217357                                00651478CCSH       0000001884200000                                                                             
D000034006057601827928112011134459วิจิตรา ลาวัณย์วิจิตร                             88188997            75211358                                05700906CCSH       0000001897700000                                                                             
D000035006057601827928112011134618นาย นรชัย แพงศร  ทษ 1386                          88504989            104125388                               00651478CCSH       0000001867300000                                                                             
D000036006057601827928112011134712นายปรีชา ธารีไทย ทว 4206                          88979197            62214350                                10151588CCSH       0000001756700000                                                                             
D000037006057601827928112011141114นางภัททิยา จึงเจริญกิจไพศาล ทล1042                8837-9690           2021-1344                               04781103CCSH       0000001890000000                                                                             
D000038006057601827928112011141555นางสาวฐาปณภัท ธรรมวิหาร                           88898199            33212340                                01260388CCSH       0000000500000000                                                                             
D000039006057601827928112011141644นางสาวฐาปณภัท ธรรมวิหาร                           88998199            43212340                                01260388CCSH       0000000500000000                                                                             
D000040006057601827928112011142104นายพิสิฐพงศ์ พันจำปา                              8895-9397           2321-2359                               04710157CCSH       0000001851000000                                                                             
D000041006057601827928112011143224นางบุญสุข จงศิริโชค  ทว.6881                      88467987            18216358                                07951758CCSH       0000001799200000                                                                             
D000042006057601827928112011143543นายประสิทธิ์ เเจ้งเหตุผล                          88525299            107152834                               04690188CCSH       0000000991200000                                                                             
D000043006057601827928112011143938ส.อ. ทิมากร  จันทร์หง่อม ทว 4808                  88479696            88214350                                00221053CCSH       0000001918500000                                                                             
D000044006057601827928112011145643น.ส.ไพจิตต์ กีรติพินิจ ทม 9242                    88578199            22219314                                05705512CCSH       0000001087800000                                                                             
D000045006057601827928112011150957นางกาญจนา ด่านวิริยะกุล ทย 4593                   88989297            35214329                                02560706CCSH       0000001568700000                                                                             
D000046006057601827928112011151113นายบัญชา พิษวงษ์                                  88479697            12214350                                00741604CCSH       0000001700000000                                                                             
D000047006057601827928112011153658ด.ต.วิรัตน์ ตะคุณนะ  ทว1428                       88388498            84211352                                05670558CCSH       0000000517700000                                                                             
D000048006057601827928112011153753ด.ต.วิรัตน์ ตะคุณนะ  ทย7605                       88568397            56217320                                05670558CCSH       0000000634200000                                                                             
D000049006057601827928112011155136นายนิพนธ์  โง่นใจรัก ทว 7760                      88479792            07217356                                01370592CCSH       0000001884200000                                                                             
D000050006057601827928112011162111จ.อ.วรายุ ทองฉิม                                  88769497            67316078            มฉ6786              08510518CCSH       0000001506000000                                                                             
D000051006057601827928112011163457พ.อ.อ.สุรัศ ศรีหาเลิศ                             88557697            36211354                                11520403CCSH       0000000960000000                                                                             
D000052006057601827928112011172048จ.ส.อ.บุญเลิศ ทองเย็น ทล 3687                     88689798            76213348                                08450154CCSH       0000001699740000                                                                             
D000053006057601827928112011172245พรพรรณ                                            88879093            31217353                                11510113CCSH       0000001927100000                                                                             
D000054006057601827928112011173601นาย ธีรศักดิ์  ตั้งวิรุฬหรัตน์ ทว4752             8827-9596           2721-4355                               08550648CCSH       0000001918500000                                                                             
D000055006057601827928112011184000เสนอ สุดศรี                                       88889592            54216342                                08450262CCSH       0000001734300000                                                                             
D000056006057601827928112011185435เพลินทิพย์ เหิมสารจอด                             88469195            02210321                                05700906CCSH       0000000889300000                                                                             
T000057006057601827900000000000000000000000076151440000055                                                                                                                                                                                                      
