H0000010060576018279บริษัท ไทเอซ สิสซิ่ง จำกัด              23122011TALHO                                                                                                                                                                                       
D000002006057601827923122011083245นางพันธ์วิรา ธีมาจิรเกียรติ                       88179192            91214333                                00741604CCSH       0000001419400000                                                                             
D000003006057601827923122011085502นายวิเชียร  ชื่นยินดี  ทศ 8397                    88559695            73218369                                08560585CCSH       0000001812300000                                                                             
D000004006057601827923122011090808นายประดิษฐ์  ไลยการ                               88759898            07216361                                04600072CCSH       0000001200300000                                                                             
D000005006057601827923122011091507นายสายัณห์ เจริญสุข มจ 7981 T.0865883906          8866-8298           1931-7068                               05943281CCSH       0000001151000000                                                                             
D000006006057601827923122011091527นายอินทรัตน์  อินทปุระ  ทย 5447                   88511099            107106318                               09760540CCSH       0000000204200000                                                                             
D000007006057601827923122011091624นายอินทรัตน์  อินทปุระ  ทย 5447                   88511099            107106318                               09760540CCSH       0000001100000000                                                                             
D000008006057601827923122011091946นางชลิตดา  เจริญพวง  ทว 550                       88510099            106131663                               09760540CCSH       0000001450000000                                                                             
D000009006057601827923122011094203นายชูเกียรติ โควเนตร                              88588897            37211353                                09760107CCSH       0000001799200000                                                                             
D000010006057601827923122011104620นายมงคล  มฉ2017                                   88689793            70312071                                06921923CCSH       0000001688700000                                                                             
D000011006057601827923122011110020นายประสิทธิ์ นาดอนดู่ มฉ 758                      88585798            107159980                               00680233CCSH       0000001043300000                                                                             
D000012006057601827923122011110023นาย สุรพล อยู่หาญ                                 88878299            85319060                                00339885CCSH       0000001230000000                                                                             
D000013006057601827923122011111004นาย เจริญ แสงแดง ทล871                            8837-9390           1821-0347                               00540039CCSH       0000001764300000                                                                             
D000014006057601827923122011111719นายทน กองเกตุใหญ่ มฉ 6034                         88878999            40316073                                02530554CCSH       0000001884200000                                                                             
D000015006057601827923122011111746นางคูณ  เทศแท้  ทว  6783                          88579993            37216358                                03970523CCSH       0000001700000000                                                                             
D000016006057601827923122011112727นางนฤมล  ลมสูงเนิน ทษ366                          88517699            106199002                               05701141CCSH       0000001575000000                                                                             
D000017006057601827923122011113010พ.ต.ท.สุเทพ ภูดวงเดือน  ทม9460                    88459597            04219316                                01800267CCSH       0000001232200000                                                                             
D000018006057601827923122011115323นางสาวเกตุนลิน ริ้วกระโทก                         88268897            82216360            ทศ6208              01770144CCSH       0000002060000000                                                                             
D000019006057601827923122011121237นายสัมเดช เกลี้ยงดี ทร 1348                       88169995            83211334                                04603236CCSH       0000001550000000                                                                             
D000020006057601827923122011122206นายบุญเชิด มาชุมแสง มฉ5022                        88779593            20315072                                06910768CCSH       0000001734300000                                                                             
D000021006057601827923122011122449นายอมฤต สนิทขำ ทศ 2909                            8806-9195           9921-2360                               00770525CCSH       0000001918500000                                                                             
D000022006057601827923122011122753สมชาต จันทร์ฤดี                                   88569797            04211368                                00170047CCSH       0000001884200000                                                                             
D000023006057601827923122011123253นายมานพ ฉิมพล ษม2927                              88779392            79372312                                01453812CCSH       0000000714200000                                                                             
D000024006057601827923122011123845นายนิธิพัฒน์   บังเกิดคงคาดิษฐ์  ทษ 15            88522799            104120693                               04670545CCSH       0000002949300000                                                                             
D000025006057601827923122011123952นายนิธิพัฒน์   บังเกิดคงคาดิษฐ์   ทศ7194          8885-9897           4121-7369                               04670545CCSH       0000002668400000                                                                             
D000026006057601827923122011130558วาสนา  สันติสุขสถาพร                              88459396            47219313                                02600520CCSH       0000001250000000                                                                             
D000027006057601827923122011131551นางสาวอรวรรณ ศรีสุวรรณเกศ                         88789490            22218343                                09760107CCSH       0000001700000000                                                                             
D000028006057601827923122011132249พรทิพย์ จันทร์ทึก                                 88596898            107063382                               04607752CCSH       0000000916000000                                                                             
D000029006057601827923122011132914นายเทพดุสิต แก้วกลางเมือง                         88518499            106115604                               01100550CCSH       0000001360800000                                                                             
D000030006057601827923122011133057นายทวี นากนิยม                                    88379197            53214351                                01880688CCSH       0000001677100000                                                                             
D000031006057601827923122011134547นางสาวดวงจันทร์  โมฆรัตน์                         8866-7697           0221-6358                               01440888CCSH       0000001884200000                                                                             
D000032006057601827923122011134708ปริญญา ประจญยุทธ                                  88536099            107107041                               10325821CCSH       0000001570000000                                                                             
D000033006057601827923122011135245นาย ประเสริฐ สุรพงษ์รักเจริญ ทศ 3144              77569994            41213364                                04581882CCSH       0000002459400000                                                                             
D000034006057601827923122011135352นาย ประเสริฐ สุรพงษ์รักเจริญ ทศ 5784              77468599            104105416                               04581882CCSH       0000002018500000                                                                             
D000035006057601827923122011135455นาย ประเสริฐ สุรพงษ์รักเจริญ ทว 4205              77679697            52214350                                04581882CCSH       0000002407700000                                                                             
D000036006057601827923122011135607นาย ประเสริฐ สุรพงษ์รักเจริญ ทล 4457              77867297            107160819                               04581882CCSH       0000001732500000                                                                             
D000037006057601827923122011140509นายสุรพล ไกรพ้น                                   88878198            91316075                                02610862CCSH       0000001880000000                                                                             
D000038006057601827923122011141126นายพรรษ เสริมทอง                                  88359796            08312063                                06830233CCSH       0000001437400000                                                                             
D000039006057601827923122011142245นางสุวิน หวะสุวรรณ                                88579791            02218356                                09740261CCSH       0000002000000000                                                                             
D000040006057601827923122011143246นายมงคล พลรักษา ทว9940                            88178699            04219354                                01527628CCSH       0000001863500000                                                                             
D000041006057601827923122011144241นางศิริ เกียรติเฉลิม                              88504399            107102379                               07690734CCSH       0000001025000000                                                                             
D000042006057601827923122011145017นายคมสัน ศรีวะรมย์                                88889492            93216345                                07620489CCSH       0000001793300000                                                                             
D000043006057601827923122011145140นายวรรณชัย วิมูลคำ มฉ4886                         88479793            68314078                                02564581CCSH       0000001700000000                                                                             
D000044006057601827923122011150031น.ส.แก้วตา  หนูเจริญ                              88512399            106202166           0813815518          01521824CCSH       0000001945500000                                                                             
D000045006057601827923122011150056นายวราวุฒิ จันทร์ประโคน ทว3900                    88879697            09213350                                02590600CCSH       0000001700000000                                                                             
D000046006057601827923122011150247เฉลิมชัย พ.                                       88779692            66217350                                01470243CCSH       0000001235000000                                                                             
D000047006057601827923122011150331นางสาวนุชนารถ แจ่มศุภพันธ์ ทว 3501                8806-7097           1521-3350                               04580699CCSH       0000001884200000                                                                             
D000048006057601827923122011150603นายสุรชัย แก้วใจจง ทว9791                         88578989            17219359                                07930727CCSH       0000001884200000                                                                             
D000049006057601827923122011150730นางสาว  เพียรทอง  ศรีโคตร  ทย 6217                8861-8487           7221-6321                               03970523CCSH       0000001108800000                                                                             
D000050006057601827923122011152108นายอุดม คงนอง                                     88988589            34210357                                07620489CCSH       0000001432800000                                                                             
D000051006057601827923122011152627นายอุเทน เพชร์ทอง ทศ5608                          88668399            86215360                                10071100CCSH       0000001856500000                                                                             
D000052006057601827923122011153346นางสุภาพร  บุบผา  ทศ1506                          8886-9697           6521-1360                               07620776CCSH       0000001885000000                                                                             
D000053006057601827923122011155208นายสุนัย พรมไพโรจน์                               88547899            107159104                               09760107CCSH       0000001374400000                                                                             
D000054006057601827923122011155946นายอดิศักดิ์ บำรุงเมือง ทล 7788                   8896-8497           8721-7348                               04580699CCSH       0000001483300000                                                                             
D000055006057601827923122011160014นายอดิศร  ซอและ   ทล 1296                         88959695            62211349                                05690088CCSH       0000001370000000                                                                             
D000056006057601827923122011161956นาย จิรเดช โพธิ์สว่าง ทว 8866                     88078797            68218356                                05700767CCSH       0000001385700000                                                                             
D000057006057601827923122011164801นายสงบ ระย้า มง 1372                              88069598            23311057                                04881100CCSH       0000000571500000                                                                             
D000058006057601827923122011171605นายบัญชา สีจุ้ย/ทศ 2313                           88169796            33212361                                05670826CCSH       0000001981000000                                                                             
D000059006057601827923122011174403จ.ส.อ.บุญเลิศ ทองเย็น ทล 3687                     8868-9798           7621-3348                               08450531CCSH       0000001699740000                                                                             
D000060006057601827923122011174423นางลำยอง  แพงจันทร์ศรี                            88879981            95218356            ทว8569              03920815CCSH       0000002898000000                                                                             
D000061006057601827923122011184924นางสาวนันทา สมทรัพย์                              88679884            15216358                                11520403CCSH       0000001845500000                                                                             
T000062006057601827900000000000000000000000097949540000060                                                                                                                                                                                                      
