H0000010060576018279บริษัท ไทเอซ สิสซิ่ง จำกัด              06122011TALHO                                                                                                                                                                                       
D000002006057601827906122011085317น.ส.สมจินตนา มัจฉาชีพ                             88659196            70218360                                06872983CCSH       0000001798500000                                                                             
D000003006057601827906122011090824ชาตรี วงค์เพ็ญ                                    88869997            38215338                                01091500CCSH       0000001088000000                                                                             
D000004006057601827906122011091101นางสาวบุญสิตา  สุนทรสวัสดิ์  มฉ7275               88669197            52317077                                06921923CCSH       0000003717000000                                                                             
D000005006057601827906122011091550นายอนิวรรตน์ ไชกองชา มฉ 6186                      88178398            61316078                                00770525CCSH       0000001884200000                                                                             
D000006006057601827906122011092525นายจำลูน ไชยช่วย                                  88569890            13318076                                00910902CCSH       0000001052200000                                                                             
D000007006057601827906122011092529นายสมหวัง เหล็งศิริ ทล 1204                       88979886            42211340                                02560706CCSH       0000001490000000                                                                             
D000008006057601827906122011092654นายชาญชัย งามวิไลสมศักดิ์                         88708098            61215338            ทร5186              02580146CCSH       0000000800000000                                                                             
D000009006057601827906122011092912นายเข็มพร จันจุติ                                 88779097            42214350                                00830255CCSH       0000001791000000                                                                             
D000010006057601827906122011093301ส.อ.วรวุฒิ ศรีไพร                                 8809-8297           8131-1078                               11071071CCSH       0000000034300000                                                                             
D000011006057601827906122011094554ด.ต.พงศ์ธวัช รอดหิรัญ                             88595898            030111381                               01810438CCSH       0000000624200000                                                                             
D000012006057601827906122011100823นายธีระศักดิ์ สุประภากร                           88489882            60217342                                00911077CCSH       0000001700000000                                                                             
D000013006057601827906122011101416นายเพชร เกาะแก้ว                                  88523399            107037867                               00911077CCSH       0000001077600000                                                                             
D000014006057601827906122011101649นายทวีป คงชนะ                                     88969597            66213339                                06991739CCSH       0000000869300000                                                                             
D000015006057601827906122011101659นายเพชร เกาะแก้ว                                  88359797            45210349                                00911077CCSH       0000001890300000                                                                             
D000016006057601827906122011101858นายณรงค์กร ศิริยามัน                              88659896            46217367                                02610551CCSH       0000001501700000                                                                             
D000017006057601827906122011102154นายไพฑูรย์ อาระยะพงษ์ ทย 4490                     88718289            04214329                                04580699CCSH       0000000499500000                                                                             
D000018006057601827906122011102453นายไสว เทพแสง                                     8855-9598           1731-5068                               00282352CCSH       0000001286700000                                                                             
D000019006057601827906122011104048นางสาว ศิริกานดา  ทานุรัตน์ ทศ 1956               8856-9987           6921-1365                               02260835CCSH       0000001799200000                                                                             
D000020006057601827906122011104216นางสาวทองศรี ธิปไชย                               88369886            65211320                                00360013CCSH       0000001159200000                                                                             
D000021006057601827906122011104459คุณทองใบ ดีวัน                                    88379394            56218317                                04690188CCSH       0000001745000000                                                                             
D000022006057601827906122011104717นางสาว นุชนารถ แจ่มศุภพันธ์ ทล 6608               8836-7697           8621-6340                               04580699CCSH       0000001700000000                                                                             
D000023006057601827906122011105316นาย เวชสิทธิ์ สุขสุมิตร                           88369297            99317077                                04730538CCSH       0000001564300000                                                                             
D000024006057601827906122011105956นางศศิธร  ดวงแก้ว  ทศ 2405                        8846-9296           5421-2360                               04600072CCSH       0000001515300000                                                                             
D000025006057601827906122011112253มีสุข  ตะคุณนะ                                    8805-9596           0921-9333                               02717395CCSH       0000001124500000                                                                             
D000026006057601827906122011112706นายสนิท ขุนทอง                                    88079694            06314079                                07690239CCSH       0000001862000000                                                                             
D000027006057601827906122011112800นาย  มัน  พรมนิมิตร                               8848-8999           8131-3073           มฉ3138              00840852CCSH       0000000740000000                                                                             
D000028006057601827906122011113306นางสาวรุจิพัชญ์ วฤทธิ์ธีรภาคย์                    88768597            60210316                                02610862CCSH       0000001300000000                                                                             
D000029006057601827906122011114907นายถาวร  เหลาเพิ่ม                                88409884            65210331                                00521052CCSH       0000000315500000                                                                             
D000030006057601827906122011115144นายถาวร  เหลาเพิ่ม                                88519094            03219316                                00521052CCSH       0000000295500000                                                                             
D000031006057601827906122011115317นายไพทูลย์ คงเพ็ชรศักดิ์ มฉ 3139                  88500899            106127708                               04881100CCSH       0000001426700000                                                                             
D000032006057601827906122011115341นายไพศาล พรประภาศักดิ์ ทศ397                      8847-8098           7321-0369                               10631143CCSH       0000000315500000                                                                             
D000033006057601827906122011115854นางระเบียบ พิมทอง                                 88549299            104116175                               00821044CCSH       0000001549300000                                                                             
D000034006057601827906122011115949นายปรีชา สุขสมร                                   8857-9896           9231-4075                               00000762CCSH       0000001751300000                                                                             
D000035006057601827906122011120559น.ส.รัชนีวรรณ บุตรานนท์                           8846-9096           7521-2360                               07752678CCSH       0000001704800000                                                                             
D000036006057601827906122011121339นายเสน่ห์  ขาวสวัสดิ์  ทร7423                     8836-9698           3421-7332                               02590911CCSH       0000001368000000                                                                             
D000037006057601827906122011121432นายจำเนียร ศรีคำมุง                               88569894            09319061            มจ 9910             04712940CCSH       0000001371900000                                                                             
D000038006057601827906122011121623นายดอเลาะ มูเนาวาเราะห์                           88087497            00215340                                00120152CCSH       0000001494000000                                                                             
D000039006057601827906122011121748นางสาว ขวัญเมือง แก้วสระแสน ทย 6160               88859196            01216326                                00282766CCSH       0000000809000000                                                                             
D000040006057601827906122011121838นายประเสริฐ แออ่วม                                88669592            04217312                                01480363CCSH       0000001440000000                                                                             
D000041006057601827906122011122029นางสาว ชฎารัตน ช่อกลาง  ทว117                     8816-7497           7121-0351                               05710252CCSH       0000001640000000                                                                             
D000042006057601827906122011122037นาย อโณทัย สัตยานนท์ ทร2635                       8865-9886           5621-2333                               02590600CCSH       0000000863600000                                                                             
D000043006057601827906122011122147นายประเสริฐ แออ่วม                                88169791            59210321                                01480363CCSH       0000003019000000                                                                             
D000044006057601827906122011122535นายวรวิทย์  ทิพนัด                                88269993            52214326                                03970257CCSH       0000000552800000                                                                             
D000045006057601827906122011122622นายวรวิทย์  ทิพนัด                                88189090            67218344                                03970257CCSH       0000001622500000                                                                             
D000046006057601827906122011123639นายนิกรณ์ สิงห์เสนา  มง8587                       88596798            107055992                               05670558CCSH       0000001303700000                                                                             
D000047006057601827906122011125536ปราณี                                             88534399            104117514                               00101176CCSH       0000001575400000                                                                             
D000048006057601827906122011130929นายสุรชา  ทองสูงเนิน ทล 4256                      88531699            107160824                               08510045CCSH       0000001455800000                                                                             
D000049006057601827906122011132546นางเข็มทอง สงเคราะห์ ทศ1520                       88769897            05211362                                04600072CCSH       0000001531800000                                                                             
D000050006057601827906122011132636นางเข็มทอง สงเคราะห์  ทว 7880                     88579492            08217358                                04600072CCSH       0000001540300000                                                                             
D000051006057601827906122011132942ประไพวรรณ หวานเย็น                                8827-9397           7921-3358                               00210350CCSH       0000001700000000                                                                             
D000052006057601827906122011133104ประไพวรรณ หวานเย็น                                8857-9983           7321-7351                               00210350CCSH       0000001700000000                                                                             
D000053006057601827906122011133338น้ำฝน จันทร์หอม                                   88889893            56215345            ทล 5655             10320321CCSH       0000000235500000                                                                             
D000054006057601827906122011135719ธนกร                                              8876-8099           1621-4319                               00530428CCSH       0000000520000000                                                                             
D000055006057601827906122011135800นางสาวสุรทิพย อินทรสูต                            88513899            107103711                               05760270CCSH       0000001123200000                                                                             
D000056006057601827906122011140423นางสาว นวลจันทร์ แก้วทอง                          88369492            24210355            ทว452               04881144CCSH       0000002057300000                                                                             
D000057006057601827906122011141845นางสาวไพจิตต์ กีรติพินิจ ทม.7043                  8808-8399           3021-7314                               02564581CCSH       0000001580000000                                                                             
D000058006057601827906122011141913นายสำเนียง แก้วมณี                                88523499            104121142                               02610862CCSH       0000001867300000                                                                             
D000059006057601827906122011142024นางภัทรภร  บุณยพุกกณะ                             88579497            52214359                                01081088CCSH       0000004738000000                                                                             
D000060006057601827906122011142125นางรัชนี  จันทร์แก้ว                              88098399            71212347                                01897527CCSH       0000001171800000                                                                             
D000061006057601827906122011142225นาย ธานี แช่มวัฒนา มฉ 1852                        88589694            28311075                                01481887CCSH       0000001617900000                                                                             
D000062006057601827906122011142616นายชาตรี ขุนติเศษ                                 88769493            66213361                                07270038CCSH       0000001617900000                                                                             
D000063006057601827906122011142715ธเนศ นาโควงค์                                     88569190            50315069                                00920706CCSH       0000001105700000                                                                             
D000064006057601827906122011143234นายวันชัย ชวาลาภรณ์ ทล 7372                       88089591            23217347                                04580699CCSH       0000001744300000                                                                             
D000065006057601827906122011143528นายอนุสรณ์  วารีน้อย ทร3961                       8836-9797           1921-3336                               01897527CCSH       0000001649600000                                                                             
D000066006057601827906122011143757วรรณภา เจริญอินทร์                                88269690            12215361                                07990501CCSH       0000003241900000                                                                             
D000067006057601827906122011143900คงฤทธิ์  ผดาวัลย์  ทม 4085                        88479192            50214318                                02530516CCSH       0000001220000000                                                                             
D000068006057601827906122011144502นายวัลลพ กันหอม                                   88059986            12216337                                04710157CCSH       0000001121300000                                                                             
D000069006057601827906122011144513นายสุบรรณ  ยะประภา ทล 3452                        88538299            107160189                               02260835CCSH       0000001408650000                                                                             
D000070006057601827906122011144725นายวิทยา  พัดเย็นใจ                               8856-9095           2821-4339                               11470668CCSH       0000001032000000                                                                             
D000071006057601827906122011144929นายบัวลอย ประคุนมาน ทย2857                        8886-8399           7821-2325                               10320214CCSH       0000001321000000                                                                             
D000072006057601827906122011145630K.วิยะดา                                          88503499            107111438                               02610535CCSH       0000001416400000                                                                             
D000073006057601827906122011150029ศศิวิมล ดวงจันทร์                                 88779398            12213352                                10070236CCSH       0000000790000000                                                                             
D000074006057601827906122011154615นายเอกลักษณ์ วงษ์ศิลชัย ทย 7290                   88509599            107110549                               04780158CCSH       0000001134000000                                                                             
D000075006057601827906122011154818นายวิชาญ พรมย่อง มช927                            88547399            106197851                               05705512CCSH       0000001733100000                                                                             
D000076006057601827906122011160235ด.ต.เสิม หยุ่นแก้ว ทศ7818                         88859496            88217361            0898161913          01970387CCSH       0000000012300000                                                                             
D000077006057601827906122011163454ทศพล ผาช้างเผือก                                  88169296            45212362                                08450160CCSH       0000001000000000                                                                             
D000078006057601827906122011164409นายเถกิงเดช พุกพิบูลย์                            88188397            37313072                                09620049CCSH       0000001884200000                                                                             
D000079006057601827906122011180720นาง สมร  ราวินิช ทล7182                           8845-9996           2121-7348                               08550648CCSH       0000001210000000                                                                             
D000080006057601827906122011181359นายเจริญ จันทร์แสนตอ                              88079492            72315072            มฉ5227              10720144CCSH       0000001880000000                                                                             
T000081006057601827900000000000000000000000111393750000079                                                                                                                                                                                                      
