H0000010060576018279บริษัท ไทเอซ สิสซิ่ง จำกัด              13112011TALHO                                                                                                                                                                                       
D000002006057601827913112011111930นายสิทธิรัตน์ ศูนย์ผล ทว4273                      88379097            32214357                                04950486CCSH       0000001605200000                                                                             
D000003006057601827913112011131504นางสลิล  มะลิต้น                                  88589984            67211345                                08690542CCSH       0000001667000000                                                                             
D000004006057601827913112011142339คุณธีรพงษ์ สมนาม ทร 4469                          88523899            107136028                               08550650CCSH       0000000490500000                                                                             
D000005006057601827913112011145248นายยอดรัก  จันทุม  ทร 8710                        88369592            07218331                                06971081CCSH       0000001600000000                                                                             
D000006006057601827913112011150455นส.ไพจิตต์ กีรติพินิจ                             88379895            99218329            ทย.8999             07622098CCSH       0000001383600000                                                                             
D000007006057601827913112011150703นายนราศักดิ์ ป้องชื่น ทล4144                      88889098            41214344                                08691827CCSH       0000001756300000                                                                             
D000008006057601827913112011151752นส. มณีรัตน์    ชูมณี ทว 9810                     8807-8999           0821-9351                               04932825CCSH       0000001700000000                                                                             
D000009006057601827913112011151804นาย ธงชัย  ปลัดศรี    ทว7446                      8867-9683           6421-7354                               08780888CCSH       0000001884200000                                                                             
D000010006057601827913112011152908นางสาวลำไพ ปัญยาง ทล 1025                         88538799            107154380           0890607758          07620610CCSH       0000000829300000                                                                             
D000011006057601827913112011155902นาย ยอดชาย  ขำจำรูญ                               88498199            82212349                                08400047CCSH       0000001625000000                                                                             
D000012006057601827913112011164524นายชัยรัตน์ พัฒนจันทร์ มง3181                     8836-9190           1131-3058                               04950486CCSH       0000001271500000                                                                             
D000013006057601827913112011165547นายวิสุทธิ์ ปามา ทศ2292                           88269887            22212369                                07960037CCSH       0000001900000000                                                                             
T000014006057601827900000000000000000000000017712600000012                                                                                                                                                                                                      
