H0000010060576018279บริษัท ไทเอซ สิสซิ่ง จำกัด              07102011TALHO                                                                                                                                                                                       
D000002006057601827907102011084312สมบูรณ์  ดาทอง                                    88479495            79215353                                00911062CCSH       0000001978000000                                                                             
D000003006057601827907102011085323นางสมควร หงษ์ทอง ทร 3964                          88069790            49213336                                04580699CCSH       0000001616900000                                                                             
D000004006057601827907102011092544นายเกริกเกียรติ                                   88534399            104117514                               00101176CCSH       0000001575400000                                                                             
D000005006057601827907102011094506นาย อนุกูล แก้ววิเชียร ทว6565                     8887-9984           5521-6356                               01920548CCSH       0000001884200000                                                                             
D000006006057601827907102011094647นาย อนุกูล แก้ววิเชียร ทว5366                     8827-9786           6321-5356                               01920548CCSH       0000001884200000                                                                             
D000007006057601827907102011094817นาย อนุกูล แก้ววิเชียร                            8897-9098           4321-3354                               01920548CCSH       0000001799200000                                                                             
D000008006057601827907102011095154นายสุริเยศ โรจน์สุธี มฉ 8064                      8846-9392           4031-8076                               04580699CCSH       0000001300000000                                                                             
D000009006057601827907102011101227ศุภมงคล  สร้อยสายอุบล                             8779888             16213321                                00390709CCSH       0000000333300000                                                                             
D000010006057601827907102011101414นายสุชาติ อิ่มอร่าม                               8848-9398           8821-3346                               00820194CCSH       0000001665500000                                                                             
D000011006057601827907102011104619นายคงฤทธิ์ ผดาวัลย์                               8847-9192           5021-4318                               03970257CCSH       0000001220000000                                                                             
D000012006057601827907102011111646นายบุญมี จันทร์กอง ทล 8809                        88989190            98218340                                01970208CCSH       0000001700000000                                                                             
D000013006057601827907102011112608สมหวัง                                            88526499            10706561                                00530428CCSH       0000001181100000                                                                             
D000014006057601827907102011112618นายไสว  เทพแสง  มจ 5781                           88559598            17315068                                04700190CCSH       0000001286700000                                                                             
D000015006057601827907102011114320นายสุพน หาบัณฑิตย์                                88359694            24216310                                05970062CCSH       0000000935800000                                                                             
D000016006057601827907102011115528นายวีระศักดิ์ อินจันทึก  มฉ 5798                  8897-9980           8731-5079                               02590096CCSH       0000000110000000                                                                             
D000017006057601827907102011120020นางนฤมล  ลมสูงเนิน  ทม 9840                       88869398            08219314                                05701141CCSH       0000001131900000                                                                             
D000018006057601827907102011120114นาง จิรดี  เบ็ญจวรรณ ทว 9434                      8807-8399           4421-9353                               10250225CCSH       0000001702000000                                                                             
D000019006057601827907102011120459นายคำพูน  สะหุนันต์                               88568997            31319078                                02561499CCSH       0000001133400000                                                                             
D000020006057601827907102011120953นายสมชาย พงษ์เวช ทม5986                           88059894            69215318                                07930727CCSH       0000000995100000                                                                             
D000021006057601827907102011122144คุณ ธีรสิริ                                       8835-9995           3321-8367                               02610090CCSH       0000000030000000                                                                             
D000022006057601827907102011122355นางสาวมลิกา สายที                                 88679396            19214352            ทว4921              10325821CCSH       0000001679300000                                                                             
D000023006057601827907102011123347พลูพิณ เขียวแดง                                   88079981            55315079                                01890216CCSH       0000001679300000                                                                             
D000024006057601827907102011124327นาย อนุสรณ์  วารีน้อย                             8827-8399           3521-5318                               01780229CCSH       0000001391000000                                                                             
D000025006057601827907102011130102นายณรงค์ ภู่กรุต  ทศ 8418                         88359395            84218361                                07961036CCSH       0000002632000000                                                                             
D000026006057601827907102011130212นาย กมล แต้มสว่าง ทศ 3666                         88969293            66213366                                05700767CCSH       0000001799200000                                                                             
D000027006057601827907102011130232นายณรงค์ ภู่กรุต                                  88359395            84218361                                07961036CCSH       0000000167000000                                                                             
D000028006057601827907102011130416นายณรงค์ ภู่กรุต ทล9779                           8858-8499           9721-9347                               07961036CCSH       0000001426500000                                                                             
D000029006057601827907102011130657นายสัณหณัฐ  ภู่กรุต ทล9962                        8888-8099           2921-9346                               07961036CCSH       0000001335500000                                                                             
D000030006057601827907102011130746นายวรวิทย์ ทิพนัด                                 88189090            67218344            ทล8746              03970649CCSH       0000001622500000                                                                             
D000031006057601827907102011131517นางภัทรินิษฐ์ ฉัตรมงคลชัย                         88288997            65213338                                04664661CCSH       0000001583600000                                                                             
D000032006057601827907102011132227นายทองหล่อ โภคา                                   8859-9191           2121-1344                               03970257CCSH       0000000386900000                                                                             
D000033006057601827907102011132731นายประเสริฐ คุ้มชู 0818303298                     88169498            22211367            0818303298          11371371CCSH       0000003476600000                                                                             
D000034006057601827907102011132804นายสมนึก เจริญโชติตะวัน  มฉ 2203                  8848-9892           3231-2070                               04585612CCSH       0000001751800000                                                                             
D000035006057601827907102011132950นายวิเชียร ไมล์กลาง                               8868-9396           0921-4342           ทล 4920             04712940CCSH       0000001750000000                                                                             
D000036006057601827907102011133209นางกชกา  สุยะ                                     88512999            030126620                               00611358CCSH       0000000780300000                                                                             
D000037006057601827907102011133316น.ส.สุกัญญา มีชัย ทศ 6490                         88868597            04216369                                01266669CCSH       0000001839700000                                                                             
D000038006057601827907102011134602นายวิลาศ  สวัสดิ์วราห์กุล  ทย 2937                8807-9493           7921-2323                               10720208CCSH       0000000408700000                                                                             
D000039006057601827907102011134810นางสายเงิน  จริยสุวรรณ ทล 8689                    8888-9090           9621-8348                               02590911CCSH       0000001988200000                                                                             
D000040006057601827907102011135245น.ส.วาสนา จันทร์เพ็ชร                             88511199            104122851                               08560792CCSH       0000002029000000                                                                             
D000041006057601827907102011135646พ.ต.ท.จิตติณัติ รักชาติ ทศ 4443                   88169492            34214364                                04780201CCSH       0000002083900000                                                                             
D000042006057601827907102011135859พ.ต.ท.จิตติณัติ รักชาติ ทศ 5445                   88468299            54215364                                04780201CCSH       0000002200000000                                                                             
D000043006057601827907102011141038ภัทรานิษฐ์ รัตนวรธันยา                            8826-9787           6021-2366                               04810111CCSH       0000001629200000                                                                             
D000044006057601827907102011141420จ.ส.อ.ศักดิ์ สะราคำ                               88378897            81313064                                01980897CCSH       0000001059400000                                                                             
D000045006057601827907102011141838นาย สุวรรณ อุทสาร ทย9670                          8886-9693           0621-9327                               02190075CCSH       0000000888600000                                                                             
D000046006057601827907102011142433นายไกรทอง ลังกาพิน                                88511699            107152664                               01851837CCSH       0000000961700000                                                                             
D000047006057601827907102011143313นางอัสเราะมะห์  ปานมณี ทร9701                     8885-9894           1721-9330                               04600072CCSH       0000000773900000                                                                             
D000048006057601827907102011143725นายทวีศักดิ์ แหวนหล่อ                             88659598            26319079                                02602931CCSH       0000001874000000                                                                             
D000049006057601827907102011144645น.ส.เพชรมณี สิงห์วิชัย                            88789894            87217326                                00443099CCSH       0000001600000000                                                                             
D000050006057601827907102011150601นายอำนาจ กฤษณะเศรณี                               8856-9986           6521-2364                               10720571CCSH       0000001515300000                                                                             
D000051006057601827907102011150758นายอำนาจ กฤษณะเศรณี                               88514789            104122466                               10720571CCSH       0000001689400000                                                                             
D000052006057601827907102011150759นายปรีชา หงส์ทอง ทศ5836                           8856-8698           6821-5363                               04580699CCSH       0000001856500000                                                                             
D000053006057601827907102011153059นายรณชัย อินช่วย มช 476                           88459995            64310087                                10900089CCSH       0000000030000000                                                                             
D000054006057601827907102011155505นาย วานิช  สงเคราะห์ มฉ 1965                      88089294            59311076                                04880062CCSH       0000001295300000                                                                             
D000055006057601827907102011160150นายวิรัตน์ ติ่งทอง                                8867-8098           6221-0366                               10720567CCSH       0000001700000000                                                                             
D000056006057601827907102011160635นายภัทรศักดิ์ แก่นโกมล                            8806-8199           6821-0328           ทย886               03970649CCSH       0000001437200000                                                                             
D000057006057601827907102011162032นายสมเกียรติ สีธงชัยรุ่งโรจน์ ทย6955              88469694            59216325                                07930240CCSH       0000001159200000                                                                             
D000058006057601827907102011162201นายสรรเสริญ สีธงชัยรุ่งโรจน์ ทย 7860              88859998            08217326                                07930240CCSH       0000001010600000                                                                             
D000059006057601827907102011162337นายสมเกียรติ สีธงชัยรุ่งโรจน์  ทพ3098             88178597            80213289                                07930240CCSH       0000001226300000                                                                             
D000060006057601827907102011163740นาย ไพรสน คำอ่อน ทศ 7993                          8815-9496           3921-7369                               09741083CCSH       0000001846600000                                                                             
D000061006057601827907102011163847นาย ไพรสน คำอ่อน ทศ 7893                          8825-9496           3821-7369                               09741083CCSH       0000001846600000                                                                             
D000062006057601827907102011163944นาย ไพรสน คำอ่อน ทศ 6393                          4856-8997           3321-6369                               09741083CCSH       0000001874000000                                                                             
D000063006057601827907102011164042นาย ไพรสน คำอ่อน ทศ 6393                          4856-8997           3321-6369                               09741083CCSH       0000000300000000                                                                             
D000064006057601827907102011164717ธีระพงษ์  เจริญอินทร์                             8837-8499           9921-0369                               07990174CCSH       0000000960000000                                                                             
D000065006057601827907102011172117นายกมล แต้มสว่าง                                  8858-9590           6521-7333                               05700127CCSH       0000001819000000                                                                             
D000066006057601827907102011174349นายไพบูลย์ แก้วศรีเมือง ทว3515                    88569886            55213351                                04950529CCSH       0000001678900000                                                                             
D000067006057601827907102011180604สมชัย เอี่ยมศิริวัฒน์/0896788845                  88588098            10218313                                10050566CCSH       0000002021200000                                                                             
D000068006057601827907102011185312นางบุญมี สิงห์ป้อง                                8867-9094           5421-6357                               07620489CCSH       0000001884200000                                                                             
D000069006057601827907102011192948นางพรรณา วรรณโนรักษ์ ทว6918                       88279793            89216351                                08510017CCSH       0000001602800000                                                                             
T000070006057601827900000000000000000000000097013600000068                                                                                                                                                                                                      
