H0000010060576018279บริษัท ไทเอซ สิสซิ่ง จำกัด              21092011TALHO                                                                                                                                                                                       
D000002006057601827921092011083452นางวลียา อภิสิทธิวาสนา ทล5541                     8867-7497           1521-5344                               01590526CCSH       0000001936500000                                                                             
D000003006057601827921092011084853นาย กิตติศักดิ์ อารัณย์รักษ์                      88069198            39219329                                00251980CCSH       0000002759200000                                                                             
D000004006057601827921092011094437นายสถาพร เมฆแก้ว                                  88768498            27315057                                01521090CCSH       0000000710000000                                                                             
D000005006057601827921092011095532นางบุญโฮม เกษแสนศรี ทร 5420                       8856-9591           0421-5332                               04580699CCSH       0000001105700000                                                                             
D000006006057601827921092011100220นายธนภัทร จันทร์หอมกุล ทศ6816                     8865-9698           6821-6361                               05671599CCSH       0000001962000000                                                                             
D000007006057601827921092011100715นายอมฤต สนิทขำ ทศ2909                             8806-9195           9921-2360                               00771064CCSH       0000001918500000                                                                             
D000008006057601827921092011102044มณฑล                                              88959297            89215338                                02542373CCSH       0000001490000000                                                                             
D000009006057601827921092011102109นางสาววิวรรณ  ละม้ายโสม                           8877-8699           7321-9358                               02170215CCSH       0000001979500000                                                                             
D000010006057601827921092011103345นายสุนทร บุญเกิด                                  8806-9292           8521-7357                               03960229CCSH       0000001800000000                                                                             
D000011006057601827921092011103511นายสุนทร บุญเกิด                                  8831-9796           2721-7316                               03960229CCSH       0000000255500000                                                                             
D000012006057601827921092011103523นาย สุรพงษ์ ยารังษี                               8856-9590           2231-6065           มจ6252              03830182CCSH       0000001105700000                                                                             
D000013006057601827921092011110734นายปัญญา วงษ์สง่า                                 88989595            47217339                                03960229CCSH       0000001808900000                                                                             
D000014006057601827921092011111139นางสาว สุปราณี  ธนูศิลป์                          88589780            18218346                                01740029CCSH       0000000657700000                                                                             
D000015006057601827921092011111309นางสาว สุปรานี  ธนูศิลป์ ทล8861                   88589780            18218346                                01740029CCSH       0000000096000000                                                                             
D000016006057601827921092011112234นางสาวนกน้อย สุราลัย                              88459796            96217368            ทศ 7689             01520196CCSH       0000001812300000                                                                             
D000017006057601827921092011113423สนิท  ขุนทอง                                      8807-9694           0631-4079                               07690467CCSH       0000001863000000                                                                             
D000018006057601827921092011113949นางสัมฤทธิ์ เกิดชู ทย464                          8846-9498           4421-0326                               11520390CCSH       0000000995100000                                                                             
D000019006057601827921092011114912นายสมพร กาศักดิ์ ทว4760                           8847-9896           0721-4356                               00334177CCSH       0000001700000000                                                                             
D000020006057601827921092011121257นาย อุดม คงนอง ทว473                              8898-8589           3421-0357                               07620396CCSH       0000001432800000                                                                             
D000021006057601827921092011121600นายวัชรพล สิงห์ลี                                 8837-9496           9021-5357           ทว 5079             08510518CCSH       0000001924000000                                                                             
D000022006057601827921092011121824นายชัชวาล แสงอาวุธ ทศ8357                         88059895            7321835                                 08404479CCSH       0000001828800000                                                                             
D000023006057601827921092011121939นางภัสรา เรศสุข ทศ2334                            88769694            43212363                                08404479CCSH       0000001800000000                                                                             
D000024006057601827921092011122834พ.อ.เรวัต มากกุญชร                                8847-9393           7021-7353                               00340753CCSH       0000002084000000                                                                             
D000025006057601827921092011122903นางมณฑิรา ทวีกัลป์                                8878-9696           8721-4345           ทล4758              10325821CCSH       0000001743900000                                                                             
D000026006057601827921092011123022นายสมศักดิ์ ตั้งจิตเสถียรกุล                      88077397            69215313                                01630499CCSH       0000001517600000                                                                             
D000027006057601827921092011123428นายสมศักดิ์ วังสมอ                                8886-9391           9021-3334                               01890557CCSH       0000001495600000                                                                             
D000028006057601827921092011125029นางสุกัญญา  ศรีจันทร์ ทว4753                      8827-9696           3721-4355                               02590608CCSH       0000001918700000                                                                             
D000029006057601827921092011125346นาย เอกสิทธิ์  ศรีตองอ่อน                         8837-9696           3721-4359                               02590608CCLQ540190300000019187000150137                                                                         
D000030006057601827921092011125918นายวานิช ศรีบุญเรือง                              8837-9991           3621-2320                               02610551CCSH       0000001565200000                                                                             
D000031006057601827921092011130515นางกิ่งวิวรรณ์  กระแสโสม                          48859997            81217369                                08401304CCSH       0000000170000000                                                                             
D000032006057601827921092011130534นางนิตยา  วรสาร  ทศ 3330                          8836-9893           0321-3363                               07750920CCSH       0000001175500000                                                                             
D000033006057601827921092011130640นางกิ่งวิวรรณ์  กระแสโสม ทศ 7198                  88359997            81217369                                08401304CCSH       0000001705000000                                                                             
D000034006057601827921092011130704นาย สมประสงค์ ยูพานิช ทว6437                      88279794            74216353                                02190075CCSH       0000001780700000                                                                             
D000035006057601827921092011131655นายทวี นาคนิยม                                    8837-9197           53214351                                01880367CCSH       0000001671700000                                                                             
D000036006057601827921092011132038น.ส.ไพจิตต์  กีรติพินิจ                           8847-8199           3321-6327                               02561499CCSH       0000001087800000                                                                             
D000037006057601827921092011132555จิตธง เทียนหิรัญชัยกุล                            88289998            16213341                                00390143CCSH       0000001665500000                                                                             
D000038006057601827921092011134244นฤมล ชนกศรีทอง                                    88488897            88211355                                01520196CCSH       0000001700000000                                                                             
D000039006057601827921092011134721นาง ผกามาศ   พูลวิเชียร ทล1278                    8876-9390           8221-1347                               07580556CCSH       0000001552900000                                                                             
D000040006057601827921092011135002นาย ไกล  วงค์วาร  ทล1371                          88539299            107155071                               04650044CCSH       0000000862000000                                                                             
D000041006057601827921092011135819นายธีระ เสือทอง ทล 3806                           8888-9398           6821-3340                               02500607CCSH       0000001665500000                                                                             
D000042006057601827921092011135841นายเจริญ  แสงแดง ทล871                            88379390            18210347                                00540531CCSH       0000001714300000                                                                             
D000043006057601827921092011140054นายวิชัย วิเศษ ทล1277                             8849-9881           7221-1347                               02500607CCSH       0000001665500000                                                                             
D000044006057601827921092011140205นายบรรจง วิเศษ ทล2032                             8826-7397           2021-2343                               02500607CCSH       0000001485500000                                                                             
D000045006057601827921092011140621น.ส.จิตลดา พันธุ์ไพโรจน์ ทว4261                   8867-9097           1221-4356                               11520390CCSH       0000001524800000                                                                             
D000046006057601827921092011141645นางบุณยานิตย์ ศิริรักษ์                           88988297            68213339            ทร 3896             09740261CCSH       0000002018100000                                                                             
D000047006057601827921092011141821นายชาญชัย แซ่ปัง                                  8806-9095           7021-3368                               10100366CCSH       0000002000000000                                                                             
D000048006057601827921092011142005นางประทวน  เขียวแล                                88569592            25315061            มจ5512              10370321CCSH       0000000982600000                                                                             
D000049006057601827921092011142028นายชาญชัย แซ่ปัง                                  8875-9884           3321-9369                               10100366CCSH       0000001900000000                                                                             
D000050006057601827921092011145310นายสวัสดิ์ คูณพรม                                 8886-9390           4621-4337                               01450520CCSH       0000001478300000                                                                             
D000051006057601827921092011145645นาย ชญาณัตถพล เขมรพันธ์                           8887-9793           2931-4071                               00821044CCSH       0000003430000000                                                                             
D000052006057601827921092011145909นายเทพฤทธิ์ สองใหม่ มง 9935                       88879196            59319053                                11461039CCSH       0000001451700000                                                                             
D000053006057601827921092011150125นาย  เอกพล  สมจิตร                                8898-8899           1131-0069           มจ191               07990852CCSH       0000001212700000                                                                             
D000054006057601827921092011151806นางสาว ดิษยา ขาวอุบล  ทล8474                      8808-9990           4421-8347                               00000453CCSH       0000000361500000                                                                             
D000055006057601827921092011152135นายวิเชษฐ  เเดงสมุทร                              8819-9796           5521-7333                               02161072CCSH       0000000347000000                                                                             
D000056006057601827921092011152151นายธีระ สุวรรณเกิด                                88279986            51215359                                07321069CCSH       0000001935500000                                                                             
D000057006057601827921092011152914นายสมหมาย ปานเนาว์ มง8921                         88659894            19318052                                07601138CCSH       0000000701500000                                                                             
D000058006057601827921092011153146นาย อัครเดช ขันคำ มฉ 5285                         88479982            52315078                                10270592CCSH       0000001799200000                                                                             
D000059006057601827921092011155326นางสาว ชื่นใจ  ศิริคุณ  ทร3679                    8887-9294           9621-3337           081-6277045         08690033CCSH       0000001091400000                                                                             
D000060006057601827921092011160419นายสมชาย ตราลาภ  ทศ8840   0819677735              88159794            08218364                                10074338CCSH       0000001920000000                                                                             
D000061006057601827921092011161157นายธนกฤต อินนุช                                   88289491            63217340                                05710504CCSH       0000001888500000                                                                             
D000062006057601827921092011161228นาย ประโยชน์ บุญสมเชื้อ                           8805-9396           0431-5060                               09620029CCSH       0000001051000000                                                                             
D000063006057601827921092011165436นางสาว บุญนำ สมัคเขตรการ                          88520999            104119489                               07930727CCSH       0000001901600000                                                                             
D000064006057601827921092011165801น.ส.วชิราภรณ์ นุชสุข ทศ4420                       8896-9591           0421-4362                               09624492CCSH       0000000326000000                                                                             
D000065006057601827921092011173507นาย สุรชัย นุตตะโยธิน                             88959697            78213325            ทย3857              04881144CCSH       0000001293500000                                                                             
D000066006057601827921092011173840นางสาว ประทุม ตรีภักดิ์                           88278989            79219359                                10090237CCSH       0000001828900000                                                                             
D000067006057601827921092011182145นางสาว เฉลิมศรี ทองขาว                            8856-9390           8121-6339                               00860670CCSH       0000001105700000                                                                             
D000068006057601827921092011183341นายสุพจน์ ภาคฐิน ทศ1627                           8846-9897           7621-1362                               10330446CCSH       0000001864400000                                                                             
D000069006057601827921092011184315นายจักรชัย ลมัยกุล                                88069890            07214361            ทศ 4710             09620049CCSH       0000001963300000                                                                             
T000070006057601827900000000000000000000000102464000000068                                                                                                                                                                                                      
