H0000010060576018279บริษัท ไทเอซ สิสซิ่ง จำกัด              03012012TALHO                                                                                                                                                                                       
D000002006057601827903012012105715นายธนพัต คุ้มวงษ์                                 88678797            23316074                                07660676CCSH       0000001773000000                                                                             
D000003006057601827903012012110138นาย ชัยกาญจน์ น้อยพินิจ มจ 5033                   88259996            30315063                                07680647CCSH       0000002000000000                                                                             
D000004006057601827903012012114835นาย พิเชษฐ์ ศรีหาประทุม ทว 4013                   88779197            30214351                                08401304CCSH       0000000366200000                                                                             
D000005006057601827903012012123739จ.ส.ต.บุญเลิศ  ทองเตี้ย                           88778399            05219356                                04700012CCSH       0000001878600000                                                                             
D000006006057601827903012012130341นางอารมณ์ ทองสงค์  ทล 3105                        88198797            51213340                                08560792CCSH       0000001665500000                                                                             
D000007006057601827903012012134705นาย ณรงค์ ประทุมวัน ถน 2630                       8897-9686           0620-2233                               09660036CCSH       0000000700000000                                                                             
D000008006057601827903012012140104นางจรรยา อินทศร ทว7014                            8806-9892           4021-7351                               08691092CCSH       0000002070000000                                                                             
D000009006057601827903012012140142นายสุรศักดิ์ อินทศร ทว9592                        8867-8399           2521-9359                               08691092CCSH       0000002130000000                                                                             
D000010006057601827903012012143856นางพรเพ็ญ แซ่ก๊วย                                 88289190            04218344                                11140807CCSH       0000001700000000                                                                             
D000011006057601827903012012144038ธาริณี แก้วผลึก                                   8857-9096           5121-5355                               06903794CCSH       0000001884200000                                                                             
D000012006057601827903012012144338นายพิเชษฐ์ ศรีหาประทุม ทล3731                     88589598            17213343                                08401304CCSH       0000000301500000                                                                             
D000013006057601827903012012151230นายอรุณ พงษ์ภักดี                                 88889191            01219280                                09620092CCSH       0000001772400000                                                                             
D000014006057601827903012012153704นายวินัย แสงปาน                                   88768998            36318072                                09740387CCSH       0000001052200000                                                                             
D000015006057601827903012012161103นางจิราพร ทองร่มโพธิ์ ทว 9919                     88078698            99219351            0811512570          07621493CCSH       0000001680000000                                                                             
D000016006057601827903012012161430นางจิราพร ทองร่มโพธิ์ ทว 7299                     88979492            92217359            0811512570          07621493CCSH       0000001500000000                                                                             
D000017006057601827903012012161552นาย ศิริชัย จุลแดง ทล 362                         88559195            23210346            0898297717          07621493CCSH       0000001216300000                                                                             
D000018006057601827903012012164637นายอุดร สังกระธาตุ                                88188499            09219347                                04700190CCSH       0000001732100000                                                                             
D000019006057601827903012012171655สานิตย์ ศรีม่วง                                   88767997            04214312                                07951972CCSH       0000001451700000                                                                             
D000020006057601827903012012181524พงศ์ศักดิ์ วันอยู่                                8837-9096           8121-5350                               04930773CCSH       0000001884200000                                                                             
D000021006057601827903012012182955นส. วิยะดา ยิ่งยงค์                               88669693            35213360                                10990248CCSH       0000001839700000                                                                             
D000022006057601827903012012183359ว่าที่ ร.ต.ทรงพล เสตถาภิรมย์ ทศ 6691              88059798            16216369                                01730895CCSH       0000002636000000                                                                             
D000023006057601827903012012183548ว่าที่ ร.ต.ทรงพล เสตถาภิรมย์ ทศ6419               88168497            94216361                                01730895CCSH       0000002636000000                                                                             
D000024006057601827903012012183702ว่าที่ ร.ต.ทรงพล เสตถาภิรมย์ ทศ 8891              88547299            104116007                               01730895CCSH       0000002269900000                                                                             
D000025006057601827903012012183816ว่าที่ ร.ต.ทรงพล เสตถาภิรมย์ ทศ 8893              88546299            104116011                               01730895CCSH       0000002269900000                                                                             
D000026006057601827903012012185757นายทัตพล ฤกษ์อุโฆษ                                88879897            52217349            ทล7295              10630631CCSH       0000001187700000                                                                             
T000027006057601827900000000000000000000000041597100000025                                                                                                                                                                                                      
