H0000010060576018279บริษัท ไทเอซ สิสซิ่ง จำกัด              17122011TALHO                                                                                                                                                                                       
D000002006057601827917122011112516นายวันเฉลิม เกษตรสินธุ์                           88679487            26214355                                11520403CCSH       0000003837000000                                                                             
D000003006057601827917122011112547นายธวัชชัย กลิ่นหนู                               88379393            65215322                                07589677CCSH       0000002760000000                                                                             
D000004006057601827917122011131049นางสาว เฉลิมศรี ทองขาว ทร 6198                    8856-9390           8121-6339                               00860527CCSH       0000001105700000                                                                             
D000005006057601827917122011132709ม.ล. ปิยะ จักรพันธุ์ ทล133                        88899992            31210343                                10970213CCSH       0000000235500000                                                                             
D000006006057601827917122011135806นายสุริยา  บุรีรัตน์ ทร 3296                      88869590            62213339                                10630571CCSH       0000000420000000                                                                             
D000007006057601827917122011142835นางบัวแก้ว พรมทอง                                 88518199            106199312           ทษ703               04930415CCSH       0000001849200000                                                                             
D000008006057601827917122011144324สุภะชัย ตู้ที                                     88569198            64211360                                01521521CCSH       0000001000000000                                                                             
D000009006057601827917122011145844นาง ศิริ เกียรติเฉลิม                             88589697            96219324                                10800129CCSH       0000001451700000                                                                             
D000010006057601827917122011154621นางรำพึง  แดงเกาะโพธิ์ ทศ2509                     88169096            95212360                                04880528CCSH       0000001228700000                                                                             
D000011006057601827917122011155135คุณสมบูรณ์ คงดี                                   88530399            107089667           0870222318          10250251CCSH       0000000917100000                                                                             
D000012006057601827917122011155904นางสาว วณิชชา จำนงนิตย์ ทม5651                    88507399            107073444                               10070203CCSH       0000001040000000                                                                             
D000013006057601827917122011164427น.ส.ชิตนะภา ศรีเงินงาม                            8887-8998           8221-8315                               09740387CCSH       0000001850000000                                                                             
D000014006057601827917122011165327นายเฉลิมชัย  จันทร์งาม                            88989693            64215343                                07661135CCSH       0000001531700000                                                                             
D000015006057601827917122011170502วรกมล  บุญมา  ทศ 6058                             88468398            80216365                                08550664CCSH       0000002352600000                                                                             
D000016006057601827917122011175017นาย นพพร รักษาคุณ                                 88459994            17311074                                08450154CCSH       0000001395000000                                                                             
D000017006057601827917122011183003นพรัตน์  อดกลั้น ทร 5647                          8890-8297           7621-5334                               04670086CCSH       0000001108800000                                                                             
D000018006057601827917122011185126นางตุ้งหลิง ตราลาภ ทล 4145                        88789988            51214344                                10071091CCSH       0000004100000000                                                                             
T000019006057601827900000000000000000000000028183000000017                                                                                                                                                                                                      
