H0000010060576018279บริษัท ไทเอซ สิสซิ่ง จำกัด              24012012TALHO                                                                                                                                                                                       
D000002006057601827924012012084045รำพึง แดงเกาะโพธิ์                                88469493            93212354                                00240400CCLQ837788100000004000000250329                                                                         
D000003006057601827924012012090843นาย กุล โสมณวัฒน์                                 8886-8298           7131-0059/มง 197                        01270021CCSH       0000001380000000                                                                             
D000004006057601827924012012091026นาย  สายชล คงสมบูรณ์  ทย6203                      8849-9390           3221-6320                               11500758CCSH       0000000100000000                                                                             
D000005006057601827924012012095141อดิศร ดอนสว่าง ทร1066                             88889597            60211336                                02190075CCSH       0000001484700000                                                                             
D000006006057601827924012012095901นายแพน ชนะพาล มฉ 7314                             88769695            43317071                                02270678CCSH       0000001705000000                                                                             
D000007006057601827924012012100906นายอนันต์ เปสโล มฉ1360                            88089497            03311076                                04690578CCSH       0000001770500000                                                                             
D000008006057601827924012012101050นายอนันต์ เปสโล มฉ1360                            88089497            03311076                                04690578CCSH       0000000034300000                                                                             
D000009006057601827924012012102400นางศิรินภา  จิตตะยะโสภณ                           88479596            87214359                                06921923CCSH       0000002346000000                                                                             
D000010006057601827924012012103151นาย มลตรี ธัญญเจริญ                               88593798            106204005                               01370194CCSH       0000001868500000                                                                             
D000011006057601827924012012104410คุณปราโมทย์  อภิรมย์ดี                            88479092            67216315                                10200129CCSH       0000000867300000                                                                             
D000012006057601827924012012104606นายสานิตย์ ศรีม่วง                                88767997            04214312                                01451218CCSH       0000000201200000                                                                             
D000013006057601827924012012105204นายบรรเจิด หล่ำจรูญ                               88178997            23310060                                00970119CCSH       0000000800000000                                                                             
D000014006057601827924012012110548นายมานพ ฉิมพล                                     88779392            79372312                                01450520CCSH       0000000714200000                                                                             
D000015006057601827924012012111855นายชิ้น ทองไพรวรรณ ทว 7605                        88579692            56217350                                00820726CCSH       0000001892500000                                                                             
D000016006057601827924012012113043จ.ส.อ.เฉลิมชัย พูลเจริญ                           88779692            66217350            7606                01472126CCSH       0000001287000000                                                                             
D000017006057601827924012012113544วัสมล โชติสิงห์                                   8826-7497           3621-7352                               05700127CCSH       0000001799200000                                                                             
D000018006057601827924012012115500นายบุญมี หวังประเสริฐ ทร8147                      88759295            71218334                                00080533CCSH       0000000663400000                                                                             
D000019006057601827924012012115831นาย โยธิน มาดลย์  ทว 3506                         88379997            65213350                                04581882CCSH       0000001884200000                                                                             
D000020006057601827924012012120221นายประสูตร อินทรรักษ์ ทว5810                      88079695            08215351            0866135171          07620610CCSH       0000001880000000                                                                             
D000021006057601827924012012120327นายประสูตร อินทรรักษ์ มช1914                      88514399            106202231           0866135171          07620610CCSH       0000001913800000                                                                             
D000022006057601827924012012120707นายมงคล พลรักษา                                   88178699            04219354                                01520889CCSH       0000001830000000                                                                             
D000023006057601827924012012123338นายสมหมาย เจริญสุข ทว 8645                        88579890            56218354                                04580699CCSH       0000001223000000                                                                             
D000024006057601827924012012123448นายอำพล ชื่นแย้ม มฉ 9038                          8896-8898           8031-9073                               10660615CCSH       0000000647300000                                                                             
D000025006057601827924012012125109นายสมนึก สืบพิลัย ทศ8696                          88359994            66218369                                02260861CCSH       0000002069400000                                                                             
D000026006057601827924012012130655สุชาดา                                            88512099            106202782                               04710657CCSH       0000002046200000                                                                             
D000027006057601827924012012132340นายมานพ กรณ์งูเหลือม ทร 4086                      88059597            60214338                                01442495CCSH       0000000438600000                                                                             
D000028006057601827924012012132837นายวิทสุวัฒน์ โสวิบูรณ์                           8896-9792           8621-0369                               11141141CCSH       0000001921700000                                                                             
D000029006057601827924012012135346นายบุญส่ง ตระกูลจั่นจาค ทร8401                    88469692            14218330                                10360725CCSH       0000001509000000                                                                             
D000030006057601827924012012140138นางคูณ เทศแท้                                     8857-9993           3721-6358           ทว6783              03970649CCSH       0000001700000000                                                                             
D000031006057601827924012012140704สุวทณีย์ จิตต์สนธิ                                88757697            48317074                                00243844CCSH       0000001799200000                                                                             
D000032006057601827924012012141551นายสัญญา สาแก้ว ทร 3054                           88167897            40213335                                11460299CCSH       0000001212700000                                                                             
D000033006057601827924012012142210นาย อุดม  คงนอง                                   88988589            34210357                                10990991CCSH       0000001432800000                                                                             
D000034006057601827924012012143037พ.จ.อ.หญิง บุญทอง จันทร์สุวรรณ                    8806-9295           3821-2362                               00260819CCSH       0000001884200000                                                                             
D000035006057601827924012012143749ชลิดดา เจริญพวง                                   88510099            106131663                               09761108CCSH       0000001480000000                                                                             
D000036006057601827924012012144009นายจำลอง เที่ยงตรง ทว7502                         88779992            25217350            0822381894          01970387CCSH       0000001893200000                                                                             
D000037006057601827924012012145345นรชัย แพงศร                                       88969896            81212362                                09761108CCSH       0000001884200000                                                                             
D000038006057601827924012012145437นรชัย แพงศร                                       88779192            09217357                                09761108CCSH       0000001884200000                                                                             
D000039006057601827924012012150510นาย สุรศักดิ์  อินทศร   ทว 5936                   8867-9495           6921-5353                               04581882CCSH       0000002060000000                                                                             
D000040006057601827924012012150614นาย สุรศักดิ์  อินทศร  ทศ 4057                    88269292            70214365                                04581882CCSH       0000001755000000                                                                             
D000041006057601827924012012151406นาย บัวลา ทองขาว ทศ2832                           88517799            106168881                               01211627CCSH       0000000585000000                                                                             
D000042006057601827924012012152001ศรัณญู  คิดเจริญ                                  88457897            77215353                                11620912CCSH       0000001946000000                                                                             
D000043006057601827924012012152538นายสำเริง  กมุทชาติ                               88514499            107134447                               11470668CCSH       0000001080000000                                                                             
D000044006057601827924012012153153นายสมเกียรติ สีธงชัยรุ่งโรจน์ ทย1704              88269196            47211320                                07930727CCSH       0000001495600000                                                                             
D000045006057601827924012012153250นายสรรเสริญ สีธงชัยรุ่งโรจน์ ทพ 9140              88978888            01219284                                07930727CCSH       0000001298300000                                                                             
D000046006057601827924012012153251กิตตินัย ปึงประยูร                                8807-9198           7321-3351                               10900089CCSH       0000000510000000                                                                             
D000047006057601827924012012153728นาย ไพบูลย์ พิมไธสง                               88959595            15310082                                10990248CCSH       0000001698000000                                                                             
D000048006057601827924012012161135นายวชิระ อยู่โต รจ 9076                           88159894            60339067                                04881100CCSH       0000000289800000                                                                             
D000049006057601827924012012165007นาย พงษ์ศักดิ์  สุวรรณคาม                         8847-9097           7221-4350                               07661135CCSH       0000003018400000                                                                             
D000050006057601827924012012172012นายบัญชา พิษวงษ์                                  88479697            12214350                                09761108CCSH       0000001700000000                                                                             
D000051006057601827924012012175644นายบุญช่วย จิตตั้ง ทศ 702                         88978397            27210360                                04780120CCSH       0000001983500000                                                                             
D000052006057601827924012012184122ธนเดช  สงวนรัตน์                                  88579796            57214355                                11140161CCSH       0000001884200000                                                                             
D000053006057601827924012012190840นายมงคล  โตเอี่ยม  ทล 7184                        88489791            41217348                                08510045CCSH       0000001900000000                                                                             
T000054006057601827900000000000000000000000075051300000052                                                                                                                                                                                                      
