H0000010060576018279บริษัท ไทเอซ สิสซิ่ง จำกัด              07022012TALHO                                                                                                                                                                                       
D000002006057601827907022012083226นายวรวิทย์  ทิพนัด                                88269993            52214326                                03970257CCSH       0000000552800000                                                                             
D000003006057601827907022012083439นายวรวิทย์  ทิพนัด                                88189090            67218344                                03970257CCSH       0000001622500000                                                                             
D000004006057601827907022012091653นายสุรัตน์  จิตตนาค ทล9440                        88789190            04219344                                00820726CCSH       0000001768500000                                                                             
D000005006057601827907022012092811พรพรต พาทีทิน                                     88579395            51216357                                07621764CCLQ876011100000003500000250329                                                                         
D000006006057601827907022012093738อิงอร เอี่ยมวิไล                                  88188988            712122352                               02490239CCSH       0000001700000000                                                                             
D000007006057601827907022012093750นายสำฤทธิ์ แก่นจันทร์                             88189097            06214345                                06920243CCSH       0000001749800000                                                                             
D000008006057601827907022012093752นายชาตรี วงค์เพ็ญ                                 8886-9997           3821-5338                               01521090CCSH       0000001053900000                                                                             
D000009006057601827907022012095046นายประดิษฐ์ บัวงาม                                8846-9396           2521-8317                               11900273CCSH       0000001495700000                                                                             
D000010006057601827907022012100837นางสาวสายันต์ ศรีวงค์ษา                           88778397            76210368                                01880134CCSH       0000002000000000                                                                             
D000011006057601827907022012103319ปาริชาติ  อย่านอนใจ ทล895                         8866-7397           5821-0349           0852970129          04607752CCSH       0000000235500000                                                                             
D000012006057601827907022012104344นายอมรชัย จันทร์สมุทร                             88469794            03213362                                00600151CCSH       0000001467100000                                                                             
D000013006057601827907022012104723นางจันทร์สม โพธิ์แดง ทศ9491                       88532699            104118678           0865668506          01390557CCSH       0000001922300000                                                                             
D000014006057601827907022012110240นางสมพร  อินทะแสง  ทว3088                         8897-9398           8021-3358                               02590911CCSH       0000001700000000                                                                             
D000015006057601827907022012111852นาย ณรงค์กร ศิริยามัน                             88659896            46217367                                00813461CCSH       0000001501700000                                                                             
D000016006057601827907022012120235นายสุรชา ทองสูงเนิน                               88531699            107160824           ทล4256              08510518CCSH       0000001454300000                                                                             
D000017006057601827907022012120905นายสมพร หนูขวัญ                                   88289391            03217345                                02260861CCSH       0000001894000000                                                                             
D000018006057601827907022012123111นายสันต์ ลาภรุ่งเรือง ทล.6781                     8828-9392           1721-6348                               10520521CCSH       0000001068700000                                                                             
D000019006057601827907022012123258นายสันต์ ลาภรุ่งเรือง ทล,5698                     8878-9593           8621-5349                               10520521CCSH       0000001068700000                                                                             
D000020006057601827907022012130835อิทธิพงศ์  อินทรีย์  มฉ 2769                      8888-9781           9731-2076                               01550599CCSH       0000001800000000                                                                             
D000021006057601827907022012131606นายอนุ  สุริยะ ทล1200                             88069596            02211340                                02540012CCSH       0000001750000000                                                                             
D000022006057601827907022012131946นางสาวทองศรี  ธิปไชย                              88369886            65211320                                02161072CCSH       0000001159200000                                                                             
D000023006057601827907022012132432นายไสว เทพแสง                                     88559598            17315068                                08698691CCSH       0000001286700000                                                                             
D000024006057601827907022012133605สุชาติ อิ่มอร่าม ทล3868                           8848-9398           8821-3346                               00610198CCSH       0000001665500000                                                                             
D000025006057601827907022012140146นายภัทรศักดิ์ แก่นโกมล  ทย 886                    88068199            68210328                                02260509CCSH       0000001437200000                                                                             
D000026006057601827907022012142528นางสาวสมหวัง นับกลาง ทว 8493                      88479291            34218359                                01730895CCSH       0000001884200000                                                                             
D000027006057601827907022012142606นายอนุสรณ์ วารีน้อย ทว 5156                       88759793            61215355                                01890658CCSH       0000001658500000                                                                             
D000028006057601827907022012145106สมประสงค์ ยูพานิช ทว6437                          88279794            74216353                                04950176CCSH       0000001789700000                                                                             
D000029006057601827907022012145326นายกมล  แต้มสว่าง ทศ3666                          88969293            66213366                                05701141CCSH       0000001799200000                                                                             
D000030006057601827907022012145601นาย เดนชัย ศรีพรม                                 88188198            81211357                                00910199CCSH       0000001561200000                                                                             
D000031006057601827907022012150332พงษ์ศักดิ์  บริบูรณ์                              88189391            74217346            ทล7467              08690266CCSH       0000001787500000                                                                             
D000032006057601827907022012150431นุชนารถ  แจ่มศุภพันธ์                             88967297            88215353            ทว5838              08690266CCSH       0000001700000000                                                                             
D000033006057601827907022012151639วิทณา อ่อนคำหล้า ทศ6463                           8806-8697           3421-6366                               00610198CCSH       0000001874000000                                                                             
D000034006057601827907022012153418น.ส.เพชรมณี สิงห์วิชัย                            88789894            87217326                                00443099CCSH       0000001600000000                                                                             
D000035006057601827907022012160610นายเจริญ  ชัชวาลย์                                88078499            39315077                                00650498CCSH       0000001600000000                                                                             
D000036006057601827907022012162650นางชลิตตา เจริญพวง                                88979097            53214355                                09760107CCSH       0000002400000000                                                                             
D000037006057601827907022012170941น.ส.จิราพร สายสุวรรณ                              88879896            06214355                                08771836CCSH       0000001601900000                                                                             
D000038006057601827907022012172238นายก้องการุณ เฉื่อยกลาง                           88599598            104126398                               10996785CCSH       0000002255700000                                                                             
D000039006057601827907022012180857นางบุญมี  สิงห์ป้อง                               88679094            54216357                                10250225CCSH       0000001884200000                                                                             
D000040006057601827907022012182057ทศพล ผาช้างเผือก                                  88169296            45212362                                08450160CCSH       0000001000000000                                                                             
D000041006057601827907022012184726นายวิศว  คาดหมาย                                  88079984            75216353                                07961036CCSH       0000001884200000                                                                             
D000042006057601827907022012191426นาง กชกร สุยะ                                     88512999            030126620                               07620396CCSH       0000000780300000                                                                             
T000043006057601827900000000000000000000000062764700000041                                                                                                                                                                                                      
