H0000010060576018279บริษัท ไทเอซ สิสซิ่ง จำกัด              01102011TALHO                                                                                                                                                                                       
D000002006057601827901102011091117นายสาคร นามใจยา ทล1326                            8867-9397           6321-1342                               10130715CCSH       0000001580000000                                                                             
D000003006057601827901102011100346นาย สุนัย  พรมไพโรจน์  ทล 6462                    8878-9292           2421-6346                               09760540CCSH       0000001700000000                                                                             
D000004006057601827901102011102127นางสาว วรรณา ท้วมเหลือ ทว9960                     8887-8698           0921-9356                               07940765CCSH       0000001884200000                                                                             
D000005006057601827901102011110217นายมานะ ขำสุวรรณ ทศ6817                           88559698            78216361                                04670086CCSH       0000001874000000                                                                             
D000006006057601827901102011110247นายไพบูลย์ วิทิตกนกปรีดา ทพ 9736                  8876-8198           6721-9283                               10050089CCSH       0000001052200000                                                                             
D000007006057601827901102011111951นายยุทธชัย พลนันท์ ทว9032                         8877-9490           2021-9353                               10360725CCSH       0000001934000000                                                                             
D000008006057601827901102011114810วัลภา ไชยนิด ทศ4992                               88469490            29214369                                10270539CCSH       0000002004500000                                                                             
D000009006057601827901102011115539นายประสูตร อินทรรักษ์                             8807-9695           0821-5351                               07620489CCSH       0000001880000000                                                                             
D000010006057601827901102011115705นายประสูตร อินทรรักษ์                             8807-9695           0821-5351                               07620489CCSH       0000000030000000                                                                             
D000011006057601827901102011120705นายวีระศักดิ์ สีสันต์                             88688499            25219332                                07683054CCSH       0000001627900000                                                                             
D000012006057601827901102011124210นาง ศศิญา จันทร์สิน ทล 7296                       8858-9491           6221-7349                               04780158CCSH       0000001700000000                                                                             
D000013006057601827901102011125333นาย กิตติธร  นนพละ                                8859-9591           5921-0344                               01520569CCSH       0000001459200000                                                                             
D000014006057601827901102011130658จ.ส.อ.เฉลิมชัย พูลเจริญ ทว7606                    8877-9692           6621-7350                               07540596CCSH       0000001229000000                                                                             
D000015006057601827901102011131636พ.ต. ณัฐ กาญจนโรจน์                               88505899            106140169                               04770491CCSH       0000001723900000                                                                             
D000016006057601827901102011133654นายปริญญา คงคาสุริยฉาย                            8817-9090           9908-9403                               10660615CCSH       0000001130000000                                                                             
D000017006057601827901102011134034นายกิตติศักดิ์ ธรรมรัตน์ศิวะ มง7365               88068998            53317056                                10130715CCSH       0000001023000000                                                                             
D000018006057601827901102011134349นายพสิษฐ์ สกุลวา                                  88869893            91316072                                11044460CCSH       0000002062000000                                                                             
D000019006057601827901102011135537นางสาวสมทรัพย์ หนองหาร ทศ 625                     8827-8697           5621-0362                               00860740CCSH       0000002518200000                                                                             
D000020006057601827901102011143930สุพล                                              88789397            69214325                                07966650CCSH       0000001650000000                                                                             
D000021006057601827901102011144457นายพิภพ ใจยอด ทย4261                              8888-9797           1221-4326                               04880262CCSH       0000001484700000                                                                             
D000022006057601827901102011151313พร  จันทอง                                        8857-9490           0421-9329                               08690542CCSH       0000000928000000                                                                             
D000023006057601827901102011152516นายเฉลิมชัย  สายคำ                                88668697            82216368                                10140221CCSH       0000001934000000                                                                             
D000024006057601827901102011152644นายเฉลิมชัย  สายคำ                                48668997            82216368                                10140221CCSH       0000000362000000                                                                             
D000025006057601827901102011153252นางสาวเมตตา ตะคุณนะ ทว4450                        8837-9687           0421-4355                               10360725CCSH       0000001939000000                                                                             
D000026006057601827901102011154216นางสาวสมร สมสุภาพ ทร 537                          8858-9497           7521-0333                               10050089CCSH       0000001668900000                                                                             
D000027006057601827901102011155620นายนิธิพัฒน์  บังเกิดคงคาดิษฐ์ ทษ15               88522799            104120693                               04670595CCSH       0000002815100000                                                                             
D000028006057601827901102011155817นายนิธิพัฒน์  บังเกิดคงคาดิษฐ์ ทศ7194             8885-9897           4121-7369                               04670595CCSH       0000002546900000                                                                             
D000029006057601827901102011155902นายสามารถ พรมศักดิ์ ทย3770                        88188689            07213327                                08405593CCSH       0000000781900000                                                                             
D000030006057601827901102011161219นายสมาน พวงพิลา                                   88512199            104122836                               11370605CCSH       0000002483600000                                                                             
D000031006057601827901102011162120นายชัยกาญจน์ น้อยพินิจ  มจ 5033                   88259996            30315063                                07680057CCSH       0000002000000000                                                                             
D000032006057601827901102011162640รัฐพงศ์ สุวรรณสวัสดิ์                             88998699            20212346            ทล 2062             07955605CCSH       0000001665500000                                                                             
D000033006057601827901102011162758นาย ชัยภัทร ธนิตธนายศ                             88544889            107037094                               11331714CCSH       0000001000000000                                                                             
D000034006057601827901102011170432นาย ฉลอง กลัดกลาง                                 88479492            0421-6285                               06910170CCSH       0000000207000000                                                                             
D000035006057601827901102011171022นางสลิล มะลิต้น ทล24                              88189995            40210342                                08691092CCSH       0000001678800000                                                                             
D000036006057601827901102011171609นางรุ่งอรุณ ภมรจันทร์                             88514889            106202867                               07951758CCSH       0000001450000000                                                                             
D000037006057601827901102011172021นาย ภานุพงศ์ จรมณี                                8878-9394           29218316                                10990511CCSH       0000001740900000                                                                             
D000038006057601827901102011173038นางอนงค์ พงค์โสภี ทว 3801                         8827-9597           1821-3350                               05756320CCSH       0000001622400000                                                                             
D000039006057601827901102011175535นางสาว กนกวรรณ  ทรงวิรัตน์  ทม 4619               8897-8199           9621-4311                               09760540CCSH       0000001105700000                                                                             
D000040006057601827901102011180134นายปรีชา พราวศรี ทว949                            8828-8798           9921-0354                               08691092CCSH       0000001966200000                                                                             
D000041006057601827901102011181119ขัตติยา วิเชียรเขียว                              8876-9993           1521-5333                               07950091CCSH       0000000480000000                                                                             
D000042006057601827901102011185305นางสาววชิราภรณ์ นุชสุข                            8818-9796           7821-4341           ทล 4817             09620049CCSH       0000001476200000                                                                             
D000043006057601827901102011193147คุณธานี ชาญตะบะ ทล 3447                           88298797            7421-3344                               08550650CCSH       0000001665500000                                                                             
T000044006057601827900000000000000000000000065064400000042                                                                                                                                                                                                      
