H0000010060576018279บริษัท ไทเอซ สิสซิ่ง จำกัด              08112011TALHO                                                                                                                                                                                       
D000002006057601827908112011083348นางสาว เครือฟ้า ทาใจ ทว 3903                      88779797            39213350                                11630448CCSH       0000001800000000                                                                             
D000003006057601827908112011083704นาย อนุกูล แก้ววิเชียร ทว3344                     8897-9098           4321-3354                               01920913CCSH       0000001799200000                                                                             
D000004006057601827908112011084401นาย อนุกูล แก้ววิเชียร ทว5366                     8827-9786           6321-5356                               01920913CCSH       0000001884200000                                                                             
D000005006057601827908112011084542นาย อนุกูล แก้ววิเชียร ทว6565                     8887-9984           5521-6356                               01920913CCSH       0000001884200000                                                                             
D000006006057601827908112011090056นางสาว นุชนารถ แจ่มศุภพันธ์ ทว 5838               8896-7297           8821-5353                               04580699CCSH       0000001700000000                                                                             
D000007006057601827908112011091049โกวิทย์ 084-7187996                               88289494            69213346                                11092684CCSH       0000001600000000                                                                             
D000008006057601827908112011091100นางสาวสุภา  กุลวงษ์                               88769095            89210331                                02530516CCSH       0000001595300000                                                                             
D000009006057601827908112011091249โกวิทย์ 084-7187996                               88689191            39217346                                11092684CCSH       0000001700000000                                                                             
D000010006057601827908112011092954สมเด็จ บุญเพชร                                    88869197            46211367                                01080545CCSH       0000002200000000                                                                             
D000011006057601827908112011093526นางสุปราณี แก้วคำ ทร7648                          88511889            107147061                               07601138CCSH       0000000985300000                                                                             
D000012006057601827908112011094641นางสุปราณี แก้วคำ ทร3997                          88510889            107133972                               07601138CCSH       0000000985300000                                                                             
D000013006057601827908112011095659นายทัชพล  โคตรวงษ์                                88959894            07213322                                04350260CCSH       0000000710000000                                                                             
D000014006057601827908112011095816นายมนัด  ตั้งเรือนรัตน์                           88659997            42210348                                01470418CCSH       0000001140000000                                                                             
D000015006057601827908112011095816ไชยยา กลมเกลียว                                   88179683            95217350                                00170047CCSH       0000001400000000                                                                             
D000016006057601827908112011100001นายวานิช  ศรีบุญเรือง มค7111                      8847-9991           1131-7031                               02590911CCSH       0000001347600000                                                                             
D000017006057601827908112011100436นายอาด ไม้น้อย ทล7786                             8808-9091           67217348                                02870263CCSH       0000000300000000                                                                             
D000018006057601827908112011101420นายเสน่ห์ ขาวสวัสดิ์    ทร7423                    8836-9698           3421-7332                               02590096CCSH       0000001368900000                                                                             
D000019006057601827908112011101425นายไสว เทพแสง มจ.5781                             88559598            17315068                                00282766CCSH       0000001286700000                                                                             
D000020006057601827908112011105205นายบัณฑิต คำสงค์                                  88507099            107155079                               01800625CCSH       0000001756400000                                                                             
D000021006057601827908112011105622นายกนกพล เฉลิมศาสตร์                              88511789            107011141                               01880134CCSH       0000000946700000                                                                             
D000022006057601827908112011110417นางนุชนารถ พิมพ์ทอง ทว 1307                       88488988            73211350                                02530554CCSH       0000002356000000                                                                             
D000023006057601827908112011110518นางนุชนารถ พิมพ์ทอง ทว 1308                       88588988            83211350                                02530554CCSH       0000002356000000                                                                             
D000024006057601827908112011111341นาย เดนชัย  ศรีพรม                                88188198            81211357                                00910199CCSH       0000001561200000                                                                             
D000025006057601827908112011112312นายสายัณต์ เปลี่ยนหยวก                            8818-9881           0931-2072                               00340279CCSH       0000001878600000                                                                             
D000026006057601827908112011112444นางดาลานี วงษา ทศ 3601                            8876-9793           1621-3360                               10320214CCSH       0000002274450000                                                                             
D000027006057601827908112011113323นาย กมล แต้มสว่าง ทศ 3666                         88969293            66213366                                05700767CCSH       0000001799200000                                                                             
D000028006057601827908112011113938นางสาวคนึงนิจ  หอฉ่อย                             8805-9995           1221-8367           ทศ 8271             09670802CCSH       0000001820000000                                                                             
D000029006057601827908112011114118นายวิทยา ภิราษร                                   88789191            74217349                                03472142CCSH       0000001700000000                                                                             
D000030006057601827908112011115723นางสมควร หงษ์ทอง ทร 3964                          88069790            49213336                                04580699CCSH       0000001616900000                                                                             
D000031006057601827908112011115805นางสาวอิงอร เอี่ยมวิไล ทว2127                     8818-8988           7121-2352           0814471367          02490109CCSH       0000002660000000                                                                             
D000032006057601827908112011120030นายพงษ์ศักดิ์ หิรัญวรรณ                           88869194            51213367                                00470517CCSH       0000001500700000                                                                             
D000033006057601827908112011120153นายอนุสรณ์  วารีน้อย ทร3961                       88369797            19213336                                07990070CCSH       0000001649600000                                                                             
D000034006057601827908112011120528นายรังสันติ เวียงนนท์                             8888-9795           4121-5342           ทล5124              03970649CCSH       0000001689200000                                                                             
D000035006057601827908112011120654นายธวัชชัย เจริญบัณฑิตชัย มฉ4455                  88679796            54314075                                00980829CCSH       0000002484000000                                                                             
D000036006057601827908112011121649น.ส.มลิกา สายที                                   8867-9396           1921-4352                               02871029CCSH       0000001679300000                                                                             
D000037006057601827908112011121733นายกิตติพงศ์ กรศุภอานนท์                          8897-8799           7021-2320           ทย2007              03970649CCSH       0000001590000000                                                                             
D000038006057601827908112011121832นายกิตติพงศ์ กรศุภอานนท์                          8807-8899           2021-6310           ทม6002              03970649CCSH       0000001590000000                                                                             
D000039006057601827908112011122252นายปรีดา  พิลาแสน                                 88568697            93216285                                06920406CCSH       0000000098500000                                                                             
D000040006057601827908112011122434นางสาววาสนา  สุขเกษม                              88859895            84211314                                06920406CCSH       0000001040000000                                                                             
D000041006057601827908112011122622นางสาววาสนา  สุขเกษม                              88959895            93316051                                06920406CCSH       0000001040000000                                                                             
D000042006057601827908112011122643นายประเสริฐ คุ้มชู                                8816-9498           2221-1367           ทศ1272              03970649CCSH       0000001741600000                                                                             
D000043006057601827908112011123827นายสันติ คำคง มค9371                              8805-9796           1331-9037                               03030581CCSH       0000000364100000                                                                             
D000044006057601827908112011123858บจก.สิฎฐ์โชคดี3 ปอ7392                            8827-9593           2325-7419                               08691092CCSH       0000000613500000                                                                             
D000045006057601827908112011125125นายสมยศ กลิ่นเกษร                                 88688298            04211353                                04810552CCSH       0000001958000000                                                                             
D000046006057601827908112011125542นายวรวิทย์  ทิพนัด  ทย 4265                       88269993            52214326                                08510045CCSH       0000000552800000                                                                             
D000047006057601827908112011130833นายทวีศักดิ์ แหวนหล่อ                             8865-9598           2631-9079                               01880134CCSH       0000001874000000                                                                             
D000048006057601827908112011130851นางสุพรรณี ภูนุภา                                 88059797            62217367                                10720571CCSH       0000001756700000                                                                             
D000049006057601827908112011131027นางสุพรรณี ภูนุภา                                 48659997            62217367                                10720571CCSH       0000000300000000                                                                             
D000050006057601827908112011132401นาย  เกียงไกล  พุทธคุณ                            8805-9993           0721-0353                               04013782CCSH       0000001843500000                                                                             
D000051006057601827908112011135137นางสาวนฤมล ชนกศรีทอง ทว1858                       8848-8897           8821-1355                               01257285CCSH       0000001890200000                                                                             
D000052006057601827908112011140606นายอิทธิพงศ์ อินทรีย์                             88889781            97312076                                01551138CCSH       0000001800000000                                                                             
D000053006057601827908112011141202นายเผชิญ โพธิ์ศรี                                 88379395            70216350            ทว 6007             00570153CCSH       0000000245500000                                                                             
D000054006057601827908112011143352นางสาวสุปราณี ธนูศิลป์                            88589780            18218346                                00640403CCSH       0000001679200000                                                                             
D000055006057601827908112011145652นายชะอ้อน  แหยมประเสริฐ                           8879-9593           8421-9334                               02501795CCSH       0000000034300000                                                                             
D000056006057601827908112011150039นายโพธิ์ บุญกระพือ                                88535099            104119597                               07620496CCSH       0000001100000000                                                                             
D000057006057601827908112011154114นายสมเจตน์ จงพินิจ ทว1956                         88534989            106133589                               11460299CCSH       0000001444500000                                                                             
D000058006057601827908112011161707นายวันชัย แจ้งเปลี่ยน                             88514299            107119990                               06910768CCSH       0000001603300000                                                                             
D000059006057601827908112011163207นางสัญญา จันเวียง                                 88519699            106112638                               11377601CCSH       0000001850000000                                                                             
D000060006057601827908112011165009นางสาว วรกมล  บุญมา                               88468398            80216365                                08550648CCSH       0000003347200000                                                                             
D000061006057601827908112011183734นายสมชาย ทองแดง ทศ2598                            88369096            85212369                                10154881CCSH       0000002000000000                                                                             
T000062006057601827900000000000000000000000090771850000060                                                                                                                                                                                                      
