H0000010060576018279บริษัท ไทเอซ สิสซิ่ง จำกัด              09112011TALHO                                                                                                                                                                                       
D000002006057601827909112011091615นางสาวคำพร บุนลอด                                 88198397            74213346                                04710157CCSH       0000001665500000                                                                             
D000003006057601827909112011092434ณัฐธิชา ทาระเวท                                   8856-9597           4621-1366                               03830885CCSH       0000001861800000                                                                             
D000004006057601827909112011093821น.ส.นิภาพร มอมุงคุณ                               88519799            107152522                               04080370CCSH       0000000980900000                                                                             
D000005006057601827909112011094156นายเกรียงศักดิ์  วิสุทธิรัตนกุล                   88279487            65214356                                01900549CCSH       0000001419000000                                                                             
D000006006057601827909112011102142นางมณฑิรา ทวีกัลป์                                8878-9696           8721-4345                               05760270CCSH       0000000733300000                                                                             
D000007006057601827909112011102744นางสาว ลัดดา วงศ์เหลืองอ่อน                       8885-9794           7411-3010                               03830885CCSH       0000000405700000                                                                             
D000008006057601827909112011104703นายขอบตะวัน  ดีประเสริฐ                           88569393            76213362                                01931056CCSH       0000001799200000                                                                             
D000009006057601827909112011110513นายชาตรี อินทรศักดิ์ ทล4573                       8828-9297           3521-4347                               10320214CCSH       0000001665500000                                                                             
D000010006057601827909112011110846นายศราวุธ  แก้วแกมเกษ                             88789591            51217348                                01720073CCSH       0000001879000000                                                                             
D000011006057601827909112011111824วิทยา พัดเย็นใจ 0894543623                        88510799            107139189                               11474993CCSH       0000000496000000                                                                             
D000012006057601827909112011112719นางสาวอรวรรณ ศรีสุวรรณเกศ ทร 936                  88268599            69210333                                07750696CCSH       0000000829300000                                                                             
D000013006057601827909112011113203นายวิชิต เลียงเล้กจำนงค์ ทศ 9523                  88538099            104119018                               05700767CCSH       0000001922300000                                                                             
D000014006057601827909112011114336นายเมธา  วงษาแก้ว                                 88189981            87217340                                03429755CCSH       0000001700000000                                                                             
D000015006057601827909112011120249จ.ส.ท.อรรณนพ โคตรโสภา                             88079786            94215353                                00180718CCSH       0000001900000000                                                                             
D000016006057601827909112011120320นายกมล แต้มสว่าง                                  8818-9590           8521-8348                               00940557CCSH       0000001800000000                                                                             
D000017006057601827909112011121112นายอภิรัตน์ ภู่ศิริ ทย 2404                       88179295            44212320                                01761687CCSH       0000001016600000                                                                             
D000018006057601827909112011121936นายประทุม    ไทรแช่มจันทร์   ทว 4839              8846-7897           9821-4353                               01820228CCSH       0000001884200000                                                                             
D000019006057601827909112011124733นางสุบิน งามปานแก้ว ทล4676                        88689097            66214347                                08561493CCSH       0000001665500000                                                                             
D000020006057601827909112011132313นงนุช กาฬภักดี                                    88288099            80210357                                04650095CCSH       0000001700000000                                                                             
D000021006057601827909112011135408เอมอร  ศักดิ์เดชะมณี  ทม 8135                     88289593            51218313                                02530516CCSH       0000000755800000                                                                             
D000022006057601827909112011140535นางสาวนงนาถ  ปัญญา                                8838-9980           7621-8341                               04160493CCSH       0000001700000000                                                                             
D000023006057601827909112011140746วัฒนศักดิ์ ศรีบรบือ ทล9177                        8896-8699           7121-9347                               03351014CCSH       0000000103400000                                                                             
D000024006057601827909112011141550นางสาวนิลวรรณ  สมประสงค์                          88959883            82219360                                02170046CCSH       0000000567100000                                                                             
D000025006057601827909112011141805นาย อนุสรณ์  วารีน้อย ทม.3403                     88817-8399          3421-3310                               01781712CCSH       0000000695500000                                                                             
D000026006057601827909112011142145นายสุรินทร์  ชูวงศ์วาน                            88269592            39312058                                03539462CCSH       0000000529100000                                                                             
D000027006057601827909112011142823นาย ประกอบ ทองสะอาด                               8877-8799           3321-8311           ทม 8313             03850248CCSH       0000001166500000                                                                             
D000028006057601827909112011143117สมหวัง นับกลาง                                    88479291            34218359                                01730481CCSH       0000001884200000                                                                             
D000029006057601827909112011144629วชิราภรณ์ นุชสุข                                  88969591            04214362                                01411495CCSH       0000004534800000                                                                             
D000030006057601827909112011145205นางภัททิรา  วีระกูล                               88159396            79217364                                01081088CCSH       0000001812300000                                                                             
D000031006057601827909112011152150นาง เพ็ญศิริ วัฒนไตร                              88379298            42213359                                01471089CCSH       0000001750000000                                                                             
D000032006057601827909112011152642นาย ศุภณัฏฐ์  ใจกล้า                              88667197            02313076                                00339885CCSH       0000001884200000                                                                             
D000033006057601827909112011160643นายสมาน พวงพิลา                                   88368597            64319071            มฉ 9416             11377601CCSH       0000002417000000                                                                             
D000034006057601827909112011161451พงษ์เกียรติ บุญเส็ง ทม 7705                       88959696            57217310                                00920501CCSH       0000001498000000                                                                             
T000035006057601827900000000000000000000000048621700000033                                                                                                                                                                                                      
