H0000010060576018279บริษัท ไทเอซ สิสซิ่ง จำกัด              13092011TALHO                                                                                                                                                                                       
D000002006057601827913092011084456นายสมนึก จิตรมนตรี ทว 3297                        88479298            72213359                                02530654CCSH       0000001918500000                                                                             
D000003006057601827913092011090750นายไชยา  กลมเกลียว ทว7509                         8817-9683           9521-7350                               00171297CCSH       0000001100000000                                                                             
D000004006057601827913092011091453นายเฉลา ฉางทรัพย์ ทศ7004                          8805-9398           4021-7360                               00610198CCSH       0000001455300000                                                                             
D000005006057601827913092011091926นาย อนันต์ มีลาภา   มฉ 3101                       88757797            11313070                                02260509CCSH       0000001048800000                                                                             
D000006006057601827913092011095907นายวิโรจน์ เจริญทรัพย์ ทย5146                     8867-9981           6121-5324                               02260861CCSH       0000001010600000                                                                             
D000007006057601827913092011100332นายวีระ ศรีแก้ว                                   88659096            98217311                                01480560CCSH       0000001230500000                                                                             
D000008006057601827913092011100458นายวีระ ศรีแก้ว                                   88759096            90211310                                01480560CCSH       0000001230500000                                                                             
D000009006057601827913092011104630นาย ศักดิ์สิทธิ์  พิริยะไพโรจน์ ทว7576            8826-9886           6521-7357                               10810405CCSH       0000001884200000                                                                             
D000010006057601827913092011105339คุณ สุรินทร์                                      8855-9295           2521-8368                               02610090CCSH       0000001874100000                                                                             
D000011006057601827913092011110310เวชยันต์ พรธิอั้ว ทว454                           88157697            44210355                                10270539CCSH       0000001926200000                                                                             
D000012006057601827913092011111612นายวีระ ม้าเฒ่า                                   88279984            18314073            มฉ. 4831            00207452CCSH       0000002116700000                                                                             
D000013006057601827913092011112551นาย ไพบูลย์ วิทิตกนกปรีดา ทพ9736                  8876-8198           6721-9283                               04650665CCSH       0000000167000000                                                                             
D000014006057601827913092011112708นายมีอนันต์ ซ่อนกลิ่น มจ7548                      8805-9194           8531-7064                               04620534CCSH       0000002165900000                                                                             
D000015006057601827913092011114142นางสาวสำลี ก้านจักร                               8877-9587           4721-4355                               01520889CCSH       0000001912700000                                                                             
D000016006057601827913092011114714ส.อ.เสกสรรค์ กลิ่นรอด ทว6617                      8847-9984           7621-6351                               01991041COTH       0000001515300000                                                                             
D000017006057601827913092011115526นายสมศักดิ์ อะโน  ทล 2494                         8897-9792           4421-2349                               04700190CCSH       0000001572000000                                                                             
D000018006057601827913092011115628นายปฏิภาณ สมดี ทศ5045                             88669390            50215364                                04600072CCSH       0000001432800000                                                                             
D000019006057601827913092011121025จิรดี เบ็ญจวรรณ                                   8807-8399           4421-9353                               01520196CCSH       0000001734300000                                                                             
D000020006057601827913092011121935น.ส.ภัทรานิษฐ์ รัตนวรธันยา                        8887-9892           2621-7359           ทว 7692             04814811CCSH       0000001629200000                                                                             
D000021006057601827913092011122350คุณทัศนี  จันทจร                                  88069695            95216316                                00800156CCSH       0000001052200000                                                                             
D000022006057601827913092011122414นาย อนุสรณ์ วารีน้อย ทร3961                       8836-9797           1921-3336                               01780060CCLQ103739100000016496000040766                                                                         
D000023006057601827913092011122956นาย วานิช  พานะคุณ                                88178197            43314074            มฉ4344              00611358CCSH       0000001800000000                                                                             
D000024006057601827913092011123652ด.ต.เสิม หยุ่นแก้ว ทว.4197                        8847-9197           7121-4359                               01971063CCSH       0000001884200000                                                                             
D000025006057601827913092011123828ด.ต.เสิม หยุ่นแก้ว  ทล4228                        8878-9093           8221-4342                               01971063CCSH       0000001665500000                                                                             
D000026006057601827913092011125518นายนิติพัฒน์  บังเกิดคงคาดิษฐ์                    88069293            1621-3368                               04670086CCSH       0000002792700000                                                                             
D000027006057601827913092011125949นายสุโรจน์ เสรีกุล มฉ.1053                        88089298            30311075                                02610535CCSH       0000001004800000                                                                             
D000028006057601827913092011130941นายยอดชาย  ขำจำรูญ                                8849-8199           8221-2349                               08401296CCSH       0000001727600000                                                                             
D000029006057601827913092011132202วันเฉลิม  เกษตรสินธุ์ ทว 4652                     88679487            26214355                                11521628CCSH       0000001884200000                                                                             
D000030006057601827913092011132330วันเฉลิม  เกษตรสินธุ์ ทว 7041                     8857-9694           1021-7354                               11521628CCSH       0000001863500000                                                                             
D000031006057601827913092011132523นายเสกสรร นาสวน ทศ3713                            88069393            37213361                                05671599CCSH       0000001194400000                                                                             
D000032006057601827913092011133049นายวสันติชัย แบนจาด  ทล4933                       8828-9396           3921-4343                               01800267CCSH       0000001665500000                                                                             
D000033006057601827913092011133523นาย วชิระ  อยู่โต รจ 9076                         8815-9894           6033-9067                               04880062CCSH       0000000289800000                                                                             
D000034006057601827913092011135821นายกิมชัย แซ่อือ ทว4806                           88179896            68214350                                10130538CCSH       0000000235500000                                                                             
D000035006057601827913092011141055นายสำรวย  มูหะหมัดสะแระ                           8866-9193           7921-7328           ทย 7987             01750073CCSH       0000000271000000                                                                             
D000036006057601827913092011141541นายเสกสันต์ ไชยเสนา                               88679587            46214357                                10071091CCSH       0000001763300000                                                                             
D000037006057601827913092011142053นาย ดำรงค์ ต่อมพิทักษ์ไพร ทว 9086                 88179290            60219358                                01890436CCSH       0000001884200000                                                                             
D000038006057601827913092011142914นาง นุชนารถ พิมพ์ทอง ทว 1308                      8858-8988           8321-1350                               09741083CCSH       0000002356000000                                                                             
D000039006057601827913092011143019นาง นุชนารถ พิมพ์ทอง ทว 1307                      88488988            73211350                                09741083CCSH       0000002356000000                                                                             
D000040006057601827913092011145754นาย ศุภชัย รัตนไชย ทม 4628                        8802-8699           8621-4312                               11250166CCSH       0000001108800000                                                                             
D000041006057601827913092011150532นาย วรภพ  งะบัว  ทร 2133                          8826-9096           3121-2333                               04650044CCSH       0000001517700000                                                                             
D000042006057601827913092011151142ส.ต.ท.ชัยญา เชื้อหงษ์ ทว 8600                     88479891            06218350                                04730614CCSH       0000001391200000                                                                             
D000043006057601827913092011152106นาย นราศักดิ์ ป้องชื่น ทล 4144                    8888-9098           4121-4344                               04581882CCSH       0000001758300000                                                                             
D000044006057601827913092011152904ชัยสทธิ์                                          88169996            30310062                                07966650CCSH       0000001161000000                                                                             
D000045006057601827913092011153137ฉวีวรรณ  สุวรรณวงษ์                               8867-9882           4121-8356                               00397779CCSH       0000001980000000                                                                             
D000046006057601827913092011160804น.ส.มะรินทร์ พรมโลกา                              88579587            67214355                                00470242CCSH       0000001942900000                                                                             
D000047006057601827913092011173437คำผัน  วันทอง ทว 7603                             88079992            36217350                                08550664CCSH       0000000005000000                                                                             
D000048006057601827913092011174438นายอุเทน เพชร์ทอง                                 88668399            86215360                                10990536CCSH       0000001856500000                                                                             
D000049006057601827913092011181032นายระเริง หยูเอียด                                88878499            65219358                                09700656CCSH       0000001884200000                                                                             
D000050006057601827913092011181137นาง รำพึง แดงเกาะโพธิ์                            8846-9493           9321-2354                               07620489CCSH       0000004184300000                                                                             
T000051006057601827900000000000000000000000077054500000049                                                                                                                                                                                                      
