H0000010060576018279บริษัท ไทเอซ สิสซิ่ง จำกัด              21012012TALHO                                                                                                                                                                                       
D000002006057601827921012012102928นาย นิวัฒน์ บุบผาสุพรรณ์                          88189893            85215343            ทล5538              10250256CCSH       0000001794000000                                                                             
D000003006057601827921012012105118นายชวลิต จักษุดำ  มช2640                          88597798            104127149                               10320014CCSH       0000001811100000                                                                             
D000004006057601827921012012110017นายประสิทธิ์ หอมสนั่น มฉ 2840                     8888-9990           0831-2074                               04881100CCSH       0000001799200000                                                                             
D000005006057601827921012012113310ด.ต.สุวนัย เสาศิริ                                88669986            06212362                                11253283CCSH       0000002429900000                                                                             
D000006006057601827921012012121108สมชาย จูทะจันทร์                                  8818-9894           6221-5340                               08000990CCSH       0000003250000000                                                                             
D000007006057601827921012012122518นส.อรพิน ธนารักษ์เจริญกุล                         8818-8899           1321-9340                               07801196CCSH       0000001838900000                                                                             
D000008006057601827921012012124349ภิรมย์พร โสลา                                     8898-9897           0121-4344           ทล4140              05750020CCSH       0000001665500000                                                                             
D000009006057601827921012012130721นางสุมาลี  สังข์ทอง                               88279587            85214356                                07660676CCSH       0000001799200000                                                                             
D000010006057601827921012012131015นายถวิล  จำเริญ                                   88279197            80214357            ทว 4078             07990132CCSH       0000001476800000                                                                             
D000011006057601827921012012131144นายถวิล  จำเริญ                                   88178899            13219359            ทว 9391             07990132CCSH       0000001476800000                                                                             
D000012006057601827921012012131317นายถวิล  จำเริญ                                   88179698            47212357            ทว 2774             07990132CCSH       0000001476800000                                                                             
D000013006057601827921012012132137นาย อนุชา วงษ์รุ่งเรือง                           88581998            104122005                               08510017CCSH       0000001856100000                                                                             
D000014006057601827921012012133355นางสาว อรวรรณ  ศรีสุวรรณเกศ ทพ 4288               8856-9492           8221-4288                               09760540CCSH       0000000829300000                                                                             
D000015006057601827921012012135656นายบุญโฮม อนุชาด                                  88525699            107102099           มจ 3085             11330915CCSH       0000000200000000                                                                             
D000016006057601827921012012135838นาย โอวาท ศรีตระกูลพร มฉ 6628                     8836-9598           8631-6072                               08450531CCSH       0000001070000000                                                                             
D000017006057601827921012012135851นางผกาพร  พูลวิเชียร                              8859-9881           8221-1347                               06971081CCSH       0000001083900000                                                                             
D000018006057601827921012012142120นายสันติ ฤทธี                                     48759997            32217360                                10360361CCSH       0000000282000000                                                                             
D000019006057601827921012012142354นายสันติ ฤทธี                                     88559897            32217360                                10360361CCSH       0000001929300000                                                                             
D000020006057601827921012012150304นายสุรศักดิ์ ถนอมสุข                              88468898            38318055                                09761108CCSH       0000000703200000                                                                             
D000021006057601827921012012153147นายสมชาย   ทองศรี                                 88507889            104123310                               04670545CCSH       0000001889000000                                                                             
D000022006057601827921012012154535น.ส.สุวภัทร พรประภาศักดิ์ ทศ4918                  8846-9198           8921-4361                               10631143CCSH       0000001794600000                                                                             
D000023006057601827921012012155025นายบุญเลิศ ทรัพย์เจริญกุล ทศ 2932                 88569994            29212363                                00860740CCSH       0000001679300000                                                                             
D000024006057601827921012012164109นายสำราญ  ขาวผ่อง ทว 1931                         88988697            19211353                                10720208CCSH       0000001790300000                                                                             
D000025006057601827921012012174500นายสัญชัย ยุทธารักษ์ ทล5204                       88889894            42215340                                04950176CCSH       0000002000400000                                                                             
D000026006057601827921012012181019นาย วินัย ผลดี                                    8827-9784           3821-6355           ทว6853              10250012CCSH       0000000418500000                                                                             
D000027006057601827921012012185405ร.ท.จักรกฤษณ์ เพียรพิจิตร                         88779998            91219369                                11520403CCSH       0000001770000000                                                                             
D000028006057601827921012012191639ศุทธนุช                                           88469095            83213339                                07966650CCSH       0000001002900000                                                                             
T000029006057601827900000000000000000000000041117000000027                                                                                                                                                                                                      
