H0000010060576018279บริษัท ไทเอซ สิสซิ่ง จำกัด              09022012TALHO                                                                                                                                                                                       
D000002006057601827909022012085609นายวิชาญ   พรมย่อง                                88547399            106197851                               01970208CCSH       0000001733100000                                                                             
D000003006057601827909022012090909วิชิต  เลียงเล็กจำนงค์                            88538099            104119018                               00500664CCSH       0000001922300000                                                                             
D000004006057601827909022012093936นางสาวนงนาถ ปัญญา                                 88389980            76218341                                01480560CCSH       0000001700000000                                                                             
D000005006057601827909022012103053นางระเบียบ คัมภิรานนท์ ทร 5462                    8866-9790           2421-5336                               04650095CCSH       0000001159200000                                                                             
D000006006057601827909022012104300นาย เอกชัย  บุรินทะ                               88289494            69213346                                07580556CCSH       0000001600000000                                                                             
D000007006057601827909022012104328นายปริญญา  สุพร  ถส 3791                          8886-9593           1720-3389                               04990266CCSH       0000000311200000                                                                             
D000008006057601827909022012104417นาย เอกชัย   บุรินะ                               88689191            39217346                                07580556CCSH       0000001700000000                                                                             
D000009006057601827909022012110734นายทวีป                                           88969597            66213339                                06991739CCSH       0000000870800000                                                                             
D000010006057601827909022012110947นาง สิทธิฐนี สังข์วิเศษ                           88576498            106206149                               01340207CCSH       0000001712500000                                                                             
D000011006057601827909022012111050ด.ต.จักรภัทร สังข์วิเศษ                           88575498            106206192                               01340207CCSH       0000001712500000                                                                             
D000012006057601827909022012111542น.ส.ศิริกานดา  ทานุรัตน์                          8856-9987           6921-1365                               11470668CCSH       0000001799200000                                                                             
D000013006057601827909022012111716นายจักรพันธ์ ขำเกื้อ                              88289793            49215344                                01810438CCSH       0000001617900000                                                                             
D000014006057601827909022012114442นายอ๊อด บุจดีคำ                                   88759194            35317077            มฉ7573              03970649CCSH       0000000999400000                                                                             
D000015006057601827909022012124130นางระเบียบ พิมทอง                                 88583798            104123321           ทษ1720              08510518CCSH       0000001922300000                                                                             
D000016006057601827909022012125859นายสุพจน์ ภาคฐิน ทศ1627                           88469897            76211362                                10330064CCSH       0000001864400000                                                                             
D000017006057601827909022012130210นายไพรัช เข็มหนู                                  88679295            00216355                                01610661CCSH       0000001799200000                                                                             
D000018006057601827909022012130945นายจำนงค์ โพธิจักร                                88569795            10213324                                04290748CCSH       0000002211400000                                                                             
D000019006057601827909022012131502วราภรณ์ แก้วทอง                                   8828-9580           2321-9349           ทล 9392             04920051CCSH       0000001790000000                                                                             
D000020006057601827909022012134430นายศุภณัฎฐ์  ใจกล้า มฉ3260                        88667197            02313076                                01781712CCSH       0000001884200000                                                                             
D000021006057601827909022012140945นาย ธนกฤต อินทรสกุล ทร2613                        8870-9092           3621-2331                               08510017CCSH       0000000295500000                                                                             
D000022006057601827909022012143554นายวิทยา แซ่จึง  ทล 5945                          8807-7797           5921-5344                               00570890CCSH       0000002210000000                                                                             
D000023006057601827909022012143859นาย นิธิพัฒน์ บังเกิดคงคาดิษฐ์ ทศ 3681            88069293            16213368                                01200547CCSH       0000002900000000                                                                             
D000024006057601827909022012145934นางวัลลภา พรหมฤดี                                 88779194            35211329                                01080089CCSH       0000001706300000                                                                             
D000025006057601827909022012152412นางสาวธนิก มนูลักษณ์ มฉ1717                       88589495            77311071                                00470242CCSH       0000001617900000                                                                             
D000026006057601827909022012155136นายสุนันท์ วิเศษเนตร  ทร6128                      88559895            81216332                                01730895CCSH       0000000873800000                                                                             
D000027006057601827909022012155924ชำนาญ สินสำอางค์                                  88519199            107093077                               02179603CCSH       0000001368000000                                                                             
D000028006057601827909022012160508จ.ส.ท.อรรณนพ โครตโสภา                             8807-9786           9421-5353                               00500245CCSH       0000001884200000                                                                             
D000029006057601827909022012160948ส.อ.วรวุฒิ ศรีไพร                                 88098297            81311078                                11070822CCSH       0000000034300000                                                                             
D000030006057601827909022012164819นางสาว ขนิษฐา   ทิพยโส                            88869695            08217320                                04930093CCSH       0000000348500000                                                                             
D000031006057601827909022012171026น.ส. สุวรรณี แก้วแจ่มใส ทศ 7920                   8885-9396           0921-7362                               05700767CCSH       0000001386200000                                                                             
D000032006057601827909022012171934นายสันติ คำคง                                     88059796            13319037                                05758278CCSH       0000000364100000                                                                             
D000033006057601827909022012173617นายพงษ์เกียรติ บุญเส็ง                            88959696            57217310                                09680260CCSH       0000001498000000                                                                             
D000034006057601827909022012182903นายทองปาน  บุญแสนยศ                               8846-8897           0921-7334                               01730481CCSH       0000001063400000                                                                             
D000035006057601827909022012192636คุณสมชาย ทองแดง ทศ2598                            88369096            85212369                                10150069CCSH       0000002000000000                                                                             
T000036006057601827900000000000000000000000049859800000034                                                                                                                                                                                                      
