H0000010060576018279บริษัท ไทเอซ สิสซิ่ง จำกัด              06112011TALHO                                                                                                                                                                                       
D000002006057601827906112011101115ทศพล ผาช้างเผือก                                  88169296            45212362                                08450160CCSH       0000001884200000                                                                             
D000003006057601827906112011104014นายวิศว คาดหมาย                                   8807-9984           7521-6353                               04700568CCSH       0000001884200000                                                                             
D000004006057601827906112011112643นาย ประชุม หลังทอง ทว 5080                        8847-9196           0021-5358           0817770527          07620610CCSH       0000001883500000                                                                             
D000005006057601827906112011121048นายมานพ แข็งเขตการณ์ ทศ1523                       8876-9997           3521-1362                               02501075CCSH       0000001884200000                                                                             
D000006006057601827906112011123658นายธนดล สุขจิตต์ ทร1688                           8866-9598           8621-1338                               08691092CCSH       0000001555600000                                                                             
D000007006057601827906112011124731นายจำเนียร ศรีคำมุง  มจ9910                       88569894            09319061                                08510045CCSH       0000001370900000                                                                             
D000008006057601827906112011134047นาย ศราวุฒิ  สุขพัฒน์  ทศ5002                     8866-9490           2021-5360                               08690033CCSH       0000001856500000                                                                             
D000009006057601827906112011134711นายกมล  แต้มสว่าง                                 8828-9590           8421-8348           ทล 8488             07990132CCSH       0000001800000000                                                                             
D000010006057601827906112011141948นายสุรชัช ภู่อยู่                                 8877-9993           9931-4070                               10720567CCSH       0000001200000000                                                                             
D000011006057601827906112011152443นายสมหวัง เหล็งศิริ ทล1204                        88979886            42211340                                05700914CCSH       0000001332000000                                                                             
T000012006057601827900000000000000000000000016651100000010                                                                                                                                                                                                      
