H0000010060576018279บริษัท ไทเอซ สิสซิ่ง จำกัด              03082011TALHO                                                                                                                                                                                       
D000002006057601827903082011084444นายพงศ์รพี ปรีชาไพศาลจิต                          8826-8598           1821-5366                               09550887CCSH       0000001856500000                                                                             
D000003006057601827903082011091230นายสุพิศ มีลาภ                                    8857-8499           6931-5071           มฉ 5916             01441666CCSH       0000001918700000                                                                             
D000004006057601827903082011092009องอาจ หินอ่อน 0863214719                          88199592            53210347                                03993086CCSH       0000001589600000                                                                             
D000005006057601827903082011094111นาย ชนดล นาทาม                                    88318499            64213328                                01900191CCSH       0000001156800000                                                                             
D000006006057601827903082011100159นายอำพัน ศรีโพธิ์ ทล 4632                         8858-9297           2621-4343                               04603236CCSH       0000001561200000                                                                             
D000007006057601827903082011101224นางสาวรุจิพัชญ์ วฤทธิ์ธีรภาคย์                    8876-8597           6021-0316                               01951137CCSH       0000001110000000                                                                             
D000008006057601827903082011101837นายกวี  พันธ์นาม                                  8837-9688           2321-3316           ทม3362              11470668CCSH       0000000733300000                                                                             
D000009006057601827903082011103018นางสาว นงชนา วรปาณิ                               88389695            31215342                                05760932CCSH       0000001650000000                                                                             
D000010006057601827903082011103139ไพฑูรย์ วันเชียง                                  8878-9997           8121-4342                               08000990CCSH       0000000030000000                                                                             
D000011006057601827903082011103527นาย เพียร แดงโร่                                  8827-9296           0331-4075                               00821044CCSH       0000001880000000                                                                             
D000012006057601827903082011103719นายประจัญชัย อัฒจักร มง3798                       8816-9992           8731-3059                               01761687CCLQ670955 00000004055000140080                                                                         
D000013006057601827903082011103826JAMNIEN  P.                                       88759597            63217366                                08510239CCSH       0000001839700000                                                                             
D000014006057601827903082011104000นายประจัญชัย อัฒจักร มง3798                       8816-9992           8731-3059                               01761687CCSH       0000000313200000                                                                             
D000015006057601827903082011104416นายเล็ก  ระสอน                                    88589895            75214322                                06880519CCSH       0000005226400000                                                                             
D000016006057601827903082011104706นส.สมจินตนา มัจฉาชีพ                              8865-9196           07021-8360                              06875261CCSH       0000001800000000                                                                             
D000017006057601827903082011110708BUALOI P.                                         88868399            78212325                                08510239CCSH       0000001321000000                                                                             
D000018006057601827903082011111204นายอนุสรณ์ วารีน้อย โทร.0846646490                8817-8399           3421-3310                               01780275CCSH       0000001265600000                                                                             
D000019006057601827903082011111240นายจำนงค์ โพธิจักร                                88569795            10213324                                00650260CCSH       0000001105700000                                                                             
D000020006057601827903082011112829คุณ ศศิธร                                         4866-9996           5421-2360                               02610090CCSH       0000001515300000                                                                             
D000021006057601827903082011113643กิตติทศ อินทร์สา                                  88968399            50215319            ทม 5095             00240400CCSH       0000002930000000                                                                             
D000022006057601827903082011114416นางรุ่งรัตน์ ศรีษะ  ทล 728                        8859-9991           8721-0342                               01770894CCSH       0000001447900000                                                                             
D000023006057601827903082011114753นายเพชรพนมพร ดำเนินงาม                            8889-8499           7021-2346                               01480206CCSH       0000001665500000                                                                             
D000024006057601827903082011115242นางจันตรี ชาภู่พวง                                8809-9893           0221-9333           โทร 0830554156      00840766CCSH       0000000376500000                                                                             
D000025006057601827903082011115900ประไพวรรณ  หวานเย็น                               88259798            17216364                                00510019CCSH       0000001839700000                                                                             
D000026006057601827903082011120054นางประไพวรรณ หวานเย็น                             88579591            53218352                                00510019CCSH       0000001700000000                                                                             
D000027006057601827903082011120620นายสุภะชัย ตู้ที                                  88569198            64211360            ทศ1406              01528111CCSH       0000001935800000                                                                             
D000028006057601827903082011123030นายกฤษฎิ์ ฉัตรภูติ                                8875-9498           1921-6365                               04784781CCSH       0000005031000000                                                                             
D000029006057601827903082011123052ไพจิตต์                                           88578199            22219314                                02564997CCSH       0000001087800000                                                                             
D000030006057601827903082011123142นายทองอาน ประดิษฐ์ ทย7593                         8895-9796           3521-7329                               05750619CCSH       0000001382100000                                                                             
D000031006057601827903082011123230นางสาว อารีวรรณ  อิ่มสนธิ์  ทพ 9185               8827-9492           5121-9288                               03991081CCSH       0000000781800000                                                                             
D000032006057601827903082011123813นายมงคล หลักทอง                                   88279881            00315061            มจ.5010             00142691CCSH       0000001367000000                                                                             
D000033006057601827903082011124049จ.ส.อ.กลม แสงสว่าง ทร9592                         8896-9793           2521-9339                               04780591CCSH       0000000829300000                                                                             
D000034006057601827903082011132437นายซาเล็ม  ศรีหล้า ปษ 1610                        8866-9890           0625-1371                               00650326CCSH       0000000618200000                                                                             
D000035006057601827903082011133006นายเสริฐ   ทีฆาวงค์   ถส 2576                     8826-9893           6520-2387                               01200195CCSH       0000000898900000                                                                             
D000036006057601827903082011134523สุภาภรณ์ อำนาจเจริญยิ่ง                           8857-9394           5421-6353                               01301035CCSH       0000001884200000                                                                             
D000037006057601827903082011134811นส ศิริกานดา ทานุรัตน์ ทล8716                     88989790            67218341                                04690578CCSH       0000001794600000                                                                             
D000038006057601827903082011135139นาย สมชาย  ศรีพลัง                                88669787            10213313                                01880688CCSH       0000000695500000                                                                             
D000039006057601827903082011140526นายอุดร สังกระธาตุ                                8818-8499           0921-9347           ทล9970              00820884CCSH       0000001732100000                                                                             
D000040006057601827903082011140558นาย สัมฤทธิ์ พิลาดี ทม5996                        8877-9496           6921-5319                               01502516CCSH       0000000889300000                                                                             
D000041006057601827903082011143048oายบุญมี จันทร์กอง ทล 8809                        8898-9190           9821-8340                               01971063CCSH       0000001700000000                                                                             
D000042006057601827903082011144641นายประภักตร์ พรหมหอม มฉ3487                       8848-8198           7431-3078                               04600072CCSH       0000001725700000                                                                             
D000043006057601827903082011144737วิฑูร คงเจริญ                                     88288298            54313078                                02540261CCSH       0000001800000000                                                                             
D000044006057601827903082011144829นาย พรเทพ  สบาย  ทล 7160                          8816-7997           0121-7346                               04690052CCSH       0000001650900000                                                                             
D000045006057601827903082011150557นางอารมณ์ ทองสงค์                                 8819-8797           5121-3340                               01230882CCSH       0000001665500000                                                                             
D000046006057601827903082011150714นายสหฐิเกียรติ โปร่งนุช มจ9968                    8839-9291           8931-9066                               04781103COTH       0000001665500000                                                                             
D000047006057601827903082011151029วิทวัส  เงินมงคล                                  88579593            09314074                                11310957CCSH       0000002019500000                                                                             
D000048006057601827903082011151729ประภูศักดิ์ บุญอำนวย                              88789897            61311073                                00240400CCSH       0000001798000000                                                                             
D000049006057601827903082011153052นางสาวชื่นใจ ศิริคุณ ทร6581                       8855-9997           1521-6338                               08691092CCSH       0000001178000000                                                                             
D000050006057601827903082011153828คุณ อรุณ พงษ์ภักดี ทพ9100                         88889191            01219280                                11250101CCSH       0000001756900000                                                                             
D000051006057601827903082011154050นางสาว วาสนา สุขเกษม ทม1448                       8885-9895           8421-1314                               09740391CCSH       0000000098500000                                                                             
D000052006057601827903082011154559นายพรเทพ หนูสิลา                                  8828-8999           8531-9056                               01860180CCSH       0000001172200000                                                                             
D000053006057601827903082011155642นาย  อรัญ  ขาวเนตร  ทร  4033                      8887-8298           3021-4333                               09760820CCSH       0000001902300000                                                                             
D000054006057601827903082011155857นาย  อรัญ  ขาวเนตร  ทร  4032                      8897-8298           2021-4333                               09760820CCSH       0000001900300000                                                                             
D000055006057601827903082011160350ส.อ.วรวุฒิ  ศรีไพร                                8809-8297           8131-1078                               11070686CCSH       0000000034300000                                                                             
D000056006057601827903082011160653นายสมยศ คูนคร                                     88989391            44217341            ทล7414              01528111CCSH       0000001561200000                                                                             
D000057006057601827903082011170302อมรชัย จันทร์สมุทร                                88469794            03213362                                10365296CCSH       0000001467100000                                                                             
D000058006057601827903082011172921นาย วิษณุ  ไชยา ทศ2527                            8886-9396           7521-2362                               08550648CCSH       0000002195500000                                                                             
D000059006057601827903082011184131นางสาว ปัทมา  ทรัพย์กลิ่น  มฉ5434                 8897-9491           4431-5073           087-6781150         08690033CCSH       0000001731500000                                                                             
D000060006057601827903082011184843PHENNAMNUNG  T.                                   88699991            27210340                                08510239CCSH       0000001747300000                                                                             
D000061006057601827903082011185223นายพิเชษฐ์ ศรีหาประทุม ทศ 1499                    8826-9997           9421-1369                               08405593CCSH       0000000269700000                                                                             
D000062006057601827903082011191400นายนิพนธ์ การบรรจง ทร3197                         8816-8998           7121-3339                               10360725CCSH       0000001597900000                                                                             
D000063006057601827903082011192610SUPANEE  W.                                       88279491            53218354                                08510239CCSH       0000001884200000                                                                             
T000064006057601827900000000000000000000000093687700000062                                                                                                                                                                                                      
