H0000010060576018279บริษัท ไทเอซ สิสซิ่ง จำกัด              05082011TALHO                                                                                                                                                                                       
D000002006057601827905082011083426สมหวัง เหล็งศิริ                                  88979886            42211340                                02561757CCSH       0000001000000000                                                                             
D000003006057601827905082011085209กิตติศักดิ์ ธรรมรัตน์ศิวะ มง7365                  8806-8998           5331-7056                               01991041CCSH       0000001028600000                                                                             
D000004006057601827905082011091338นายสมเกียรติ สีธงชัยรุ่งโรจน์                     88469396            2521-8317                               01850496CCSH       0000001499700000                                                                             
D000005006057601827905082011091518นายทองม้วน จำนงนิตย์  ทว3221                      8877-9398           1221-3352                               01480206CCSH       0000001765000000                                                                             
D000006006057601827905082011092802นาย พรเทพ ชื่นจำรัส ทย 4532                       8826-9192           2521-4323                               00651478CCSH       0000001447000000                                                                             
D000007006057601827905082011093224นายพงษ์ศักดิ์  แหล่งสนาม ทว9904                   8877-8798           4921-9350                               04600072CCSH       0000001930500000                                                                             
D000008006057601827905082011094020นายอนันต์ เปสโล มฉ1360                            88089497            03311076                                04690578CCSH       0000000034300000                                                                             
D000009006057601827905082011094033ภาวัต ไชยสร 0814453421                            88369695            55314050                                03993086CCSH       0000001400000000                                                                             
D000010006057601827905082011094035เชาว์ พินยะเพียน ทว5005                           88579986            50215350                                10270539CCSH       0000001168700000                                                                             
D000011006057601827905082011094427นายอนันต์ เปสโล มฉ1360                            88089497            03311076                                04690578CCSH       0000001750000000                                                                             
D000012006057601827905082011095621นายกิติชัย รัตมาศาณประไพ                          8829-8697           1421-3344                               01951137CCSH       0000001738400000                                                                             
D000013006057601827905082011100010นางสาวนุชนารถ แจ่มศุภพันธ์ ทล6608                 8836-7697           8621-6340                               08691092CCSH       0000001700000000                                                                             
D000014006057601827905082011101503นายชาตรี วงค์เพ็ญ ทร5883                          88869997            38215338                                03959384CCSH       0000001086300000                                                                             
D000015006057601827905082011102939นายจงศักดิ์  ไชยธานี   มฉ9636                     88859698            66319073                                10370321CCSH       0000001474700000                                                                             
D000016006057601827905082011105239นายคงฤทธิ์ ผดาวัลย์                               8800-9884           9621-0330           ทร609               03970649CCSH       0000000755800000                                                                             
D000017006057601827905082011105308นายนิวัฒน์ ทองภู ทว7136                           8817-9293           6121-7353                               09740222CCSH       0000001884200000                                                                             
D000018006057601827905082011105904นาง ชลิตดา  เจริญพวง  ทว 4354                     8807-9197           4321-4355                               09760540CCSH       0000002400000000                                                                             
D000019006057601827905082011110417นางสาวสุกัญญา จันทร์แจ้ง ทย3085                   8835-9986           5021-3328                               03870286CCSH       0000000587200000                                                                             
D000020006057601827905082011110523ว่าที่ ร.ต.ทรงพล เสตถาภิรมย์  ทศ 6691             88059798            16216369                                01730895CCSH       0000002636000000                                                                             
D000021006057601827905082011110700ว่าที่ ร.ต.ทรงพล เสตถาภิรมย์  ทศ 8893             88659294            38218369                                01730895CCSH       0000002269900000                                                                             
D000022006057601827905082011110826ว่าที่ ร.ต.ทรงพล เสตถาภิรมย์  ทศ 8891             88759294            18218369                                01730895CCSH       0000002269900000                                                                             
D000023006057601827905082011110948ว่าที่ ร.ต.ทรงพล เสตถาภิรมย์  ทศ 6419             88168497            94216361                                01730895CCSH       0000002636000000                                                                             
D000024006057601827905082011111019นางพรทิพา วิเชียรโชติ ทล 1650                     88399390            06211345                                10660615CCSH       0000001665500000                                                                             
D000025006057601827905082011111111พ.อ.หญิง วิภาจรี ณ ตะกั่วทุ่ง ทล 1653             88299390            36211345                                10660615CCSH       0000001665500000                                                                             
D000026006057601827905082011111840ลัดดา วงศฺ์เหลืองอ่อน                             88859794            74113010                                03830197CCSH       0000000405700000                                                                             
D000027006057601827905082011111949คุณ พิทักษ์ วุฒิสุรัตน์ ทล 6573                   88789193            35216347                                11250101CCSH       0000001734300000                                                                             
D000028006057601827905082011112149นายอนุรักษ์ รักษาศิริ ทศ 6458                     88968597            84216365                                04603236CCSH       0000001874000000                                                                             
D000029006057601827905082011113233นาง สายเงิน จริยสุวรรณ ทล8689                     8888-9090           9621-8348                               02590600CCSH       0000001988200000                                                                             
D000030006057601827905082011114913นาง ประไพวรรณ หวานเย็น ทว 3987                    8827-9397           7921-3358                               00510528CCSH       0000001700000000                                                                             
D000031006057601827905082011115702นาย โกศล อุทัย ทว 5267                            8807-9886           7221-5356                               04581882CCSH       0000001990500000                                                                             
D000032006057601827905082011121927นายมานพ แข็งเขตการณ์ ทศ1523                       8876-9997           3521-1362                               02500607CCSH       0000000132800000                                                                             
D000033006057601827905082011123335พิไลวรรณ ทองดี ทศ2631                             8886-9196           1621-2363                               00491908CCSH       0000001515300000                                                                             
D000034006057601827905082011123425นายสงกรานต์ แก้วกงพาน                             8837-9291           1321-8359                               00281171CCSH       0000001900000000                                                                             
D000035006057601827905082011124020นายพงษ์ศํกดิ์ บุญมา                               88969197            48211367                                11311311CCSH       0000001988500000                                                                             
D000036006057601827905082011124107นาย ประสิทธิ์ คุณากร                              8888-9291           3631-2077                               10810244CCSH       0000002135000000                                                                             
D000037006057601827905082011124151เกษศิรินทร์ ด. ทย5400                             8837-9781           0421-5320                               10360281CCSH       0000000872300000                                                                             
D000038006057601827905082011124400นางตุ้งหลิง ตราลาภ ทล4145                         8878-9988           5121-4344                               10631143CCSH       0000002166200000                                                                             
D000039006057601827905082011124531นายสมชาย ตราลาภ ทม9802                            8825-9794           2821-9310                               10631143CCSH       0000001599300000                                                                             
D000040006057601827905082011124754นายสมชาย ตราลาภ ทย2948                            8845-9794           8921-2324                               10631143CCSH       0000001599300000                                                                             
D000041006057601827905082011124923นายสมชาย ตราลาภ ทร6892                            8835-9794           2821-6339                               10631143CCSH       0000001599300000                                                                             
D000042006057601827905082011131127สมบัติ วงษ์เดอรี ทย.5011                          8866-9691           1021-5321                               11041041CCSH       0000001160200000                                                                             
D000043006057601827905082011131832สุรศักดิ์  อินทศร ทย 8890                         8869-8498           0821-8329                               07940716CCSH       0000001880600000                                                                             
D000044006057601827905082011131844หยาดอรุณ ศรีทับทิม                                88479297            79212335                                04710657CCSH       0000001758900000                                                                             
D000045006057601827905082011132655ไพจิตต์ กีรติพินิจ                                8847-8199           3321-6327                               02561499CCSH       0000001087800000                                                                             
D000046006057601827905082011133626นาย ธงชัย เดชธุราทัศน์ ทร308                      8828-7597           8321-0330                               02190075CCSH       0000001395600000                                                                             
D000047006057601827905082011134803นายคำรณ ภู่ลา  มฉ5514                             8857-9491           4531-5071                               02501075CCSH       0000001799200000                                                                             
D000048006057601827905082011135256คุณสมยศ กลิ่นเกษร                                 8868-8298           0421-1353                               01270115CCSH       0000001949500000                                                                             
D000049006057601827905082011135750นายอัสเราะมะห์  ปานมณี ทร9701                     8885-9894           1721-9330                               04600072CCSH       0000000773400000                                                                             
D000050006057601827905082011140457นางสุวีรยา นาสวน ทศ 2716                          8846-9595           6721-2361                               05670406CCSH       0000001194400000                                                                             
D000051006057601827905082011140600นาย สานิตย์ ศรีม่วง ทม 4420                       8876-7997           0421-4312                               10292512CCSH       0000001291700000                                                                             
D000052006057601827905082011140615ทองศรี ธิปไชย                                     8836-9886           6521-1320                               00011133CCSH       0000001159200000                                                                             
D000053006057601827905082011140724นายแดนชัย   ศรีพรม                                8818-8198           8121-1357                               00911077CCSH       0000001561200000                                                                             
D000054006057601827905082011141233นาย ธนกฤต อินทรสกุล ทร2613                        8870-9092           3621-2331                               08510017CCSH       0000001325600000                                                                             
D000055006057601827905082011141323น.ส.เพชรมณี สิงห์วิชัย ทย.7768                    8879-9894           8721-7326                               00440033CCSH       0000001550000000                                                                             
D000056006057601827905082011141443นส.เพชรมณี สิงห์วิชัย ทย.9930                     8838-9780           0921-9323                               00440033CCSH       0000000755500000                                                                             
D000057006057601827905082011142311จ.ส.ต.ยุทธภูมิ รัตนบัติ ทร 517                    8836-9196           7521-0331                               10050089CCSH       0000000604100000                                                                             
D000058006057601827905082011142444นางไพทูล  รักาาพงษ์                               8888-8298           0121-1350                               05756198CCSH       0000001700000000                                                                             
D000059006057601827905082011142448นายสมชัย ไทยสง่า ทร 6345                          88468599            53216334                                10071091CCSH       0000001414800000                                                                             
D000060006057601827905082011143817นาย กังวาน  มุมทอง  ทว 9084                       8877-9790           4021-9358                               04690052CCSH       0000001800000000                                                                             
D000061006057601827905082011144721นายเจนณรงค์ อินทร์สอาด                            88479790            46216310                                00773116CCSH       0000000700000000                                                                             
D000062006057601827905082011145946นายชุมพล ด้านสิงห์ ทล273                          88769890            32210347                                02600066CCSH       0000001301400000                                                                             
D000063006057601827905082011145948นาย มนัด ตั้งเรือนรัตน์                           8865-9997           4221-0348                               08560330CCSH       0000001140000000                                                                             
D000064006057601827905082011150030นางสาวจิราพร สายสุวรรณ                            88879896            06214355                                02610862CCSH       0000001634800000                                                                             
D000065006057601827905082011151730นายสุวิทย์  บำรุงพืช  ทว  8166                    8816-8597           6121-8356                               04990266CCSH       0000002046500000                                                                             
D000066006057601827905082011152834นาย เถกิงเดช พุกพิบูลย์                           88188397            37313072                                09621011CCSH       0000001884200000                                                                             
D000067006057601827905082011152852นายรังสิต เวียงนนท์                               8888-9795           4121-5342           ทล5124              03970649CCSH       0000001689700000                                                                             
D000068006057601827905082011153559คุณทองใบ ดีวัน ทม8675                             88379394            56218317                                04690578CCSH       0000001710000000                                                                             
D000069006057601827905082011162601นาย ประชา กัลยา                                   88488697            03212353            ทว2330              10250256CCSH       0000001956500000                                                                             
D000070006057601827905082011170326นายสรายุทธ  บัวบัณฑิต  ทล 4909                    8818-9396           9921-4340                               09760540CCSH       0000002009200000                                                                             
D000071006057601827905082011171159นายกันภัย จิตราวัฒน์                              8876-9891           9231-9062                               11521521CCSH       0000001160000000                                                                             
D000072006057601827905082011171503นายกิตติศักดิ์ ร่ำรวย ทว8178                      8847-9691           8121-8357                               08691092CCSH       0000001048800000                                                                             
D000073006057601827905082011172233นาง ภัสรา  เรศสุข  ทศ  226                        8867-8298           6221-0362                               08400047CCSH       0000001827500000                                                                             
D000074006057601827905082011172650นางธิดา เนาวรัตน์                                 8897-9893           3221-4332           ทร 4223             05750020CCSH       0000001131900000                                                                             
D000075006057601827905082011173404นาย สมสุข ชูกิจรุ่งทรัพย์ ทศ7005                  8835-9498           5021-7360                               00300702CCSH       0000001948200000                                                                             
D000076006057601827905082011175458นาย อธิชา สุวรรณไตร                               113-07061           3521-7337                               08771836CCSH       0000001165000000                                                                             
D000077006057601827905082011175912นาย ปิติ เล็กชื่นสกุล                             88588098            10218313                                10050395CCSH       0000002021200000                                                                             
D000078006057601827905082011180016นายโสภี  คำดีเกิด                                 8807-9792           7631-9051                               07730560CCSH       0000000859800000                                                                             
D000079006057601827905082011182617นาย ไขแสง แสงโสฬส ทย6805                          8847-9797           5821-6320                               08450531CCSH       0000001067100000                                                                             
D000080006057601827905082011185453นาย สุวรรณดี หนูนิ่ม ทล 2066                      8859-8399           6021-2346                               05700914CCSH       0000001000000000                                                                             
D000081006057601827905082011193150นาง ดาลานี วงษา                                   8876-9793           1621-3360                               00860670CCSH       0000002274500000                                                                             
T000082006057601827900000000000000000000000120731900000080                                                                                                                                                                                                      
