H0000010060576018279บริษัท ไทเอซ สิสซิ่ง จำกัด              10022012TALHO                                                                                                                                                                                       
D000002006057601827910022012083810นายสิริศักดิ์ รังกลาง ทม 3404                     88459694            44213310                                01520684CCSH       0000000701500000                                                                             
D000003006057601827910022012085209นางเปรมฤดี  สวัสดี                                88544299            104115854                               01740029CCSH       0000002006700000                                                                             
D000004006057601827910022012090111นายประทุม ไทรแช่มจันทร์                           88467897            98214353                                02602601CCSH       0000001884200000                                                                             
D000005006057601827910022012091017นายสมเกียรติ บุญปาน                               88459698            33213366                                06230046CCSH       0000001338500000                                                                             
D000006006057601827910022012092045นาย ศิลา เกษมโชติพัฒน์ ทศ6047                     88668398            70216364                                01980212CCSH       0000002055800000                                                                             
D000007006057601827910022012093945นายถวิล สุขโข มฉ 2568                             88504899            106121361                               04580699CCSH       0000000201200000                                                                             
D000008006057601827910022012094225นางสาวลำไพ ปัญยาง ทล 1025                         88538799            107154380                               04580699CCSH       0000000829300000                                                                             
D000009006057601827910022012095853นายคำมี  ปะตังเวสา                                88879495            28215359                                07010476CCSH       0000001652200000                                                                             
D000010006057601827910022012103135นายสฤทธิ์  เสนสอน  ทล 5927                        88889093            79215342                                04690052CCSH       0000001734300000                                                                             
D000011006057601827910022012103417นายอรรณพ แจ่มใส                                   88513599            107094402                               00360013CCSH       0000001043300000                                                                             
D000012006057601827910022012104728นายพุฒิพัฒน์ พีรชัยทัศน์ ทว9161                   88979290            11219356                                00680238CCSH       0000001918500000                                                                             
D000013006057601827910022012105155นายเจริญ  ชัชวาลย์ มฉ 5973                        88078499            39315077                                00650326CCSH       0000000403500000                                                                             
D000014006057601827910022012105227นายสุโรจน์ เสรีกุล   มณ1053                       88089298            30311075                                00241807CCSH       0000001004800000                                                                             
D000015006057601827910022012110259นายวันชัย ชวาลาภรณ์ ทล7372                        88089591            23217347                                04581830CCSH       0000001749300000                                                                             
D000016006057601827910022012113324ด.ต.พงศ์ธวัช รอดหิรัฐ                             88595898            030111381                               01810851CCSH       0000000624200000                                                                             
D000017006057601827910022012114030คมวุฒิ  กอแก้ว                                    8831-9691           1221-1324                               04950191CCSH       0000000295500000                                                                             
D000018006057601827910022012115108นายสุพน หาบัณฑิตย์                                88359694            24216310                                11140702CCSH       0000000890600000                                                                             
D000019006057601827910022012115741ร.ท.จักรกฤษณ์ เพียรพิจิตร ทล6572                  88509982            79217317                                07930727CCSH       0000001020000000                                                                             
D000020006057601827910022012115851นางนฤมล ลมสูงเนิน                                 8886-9398           0821-9314                               05700127CCSH       0000001131900000                                                                             
D000021006057601827910022012121256สุรินทร์ เขียนทอง                                 88259295            93218335                                10900400CCSH       0000001580000000                                                                             
D000022006057601827910022012121933ภัสรา เรศสุข ทศ 5636                              88868299            66215363                                11819722CCSH       0000001833500000                                                                             
D000023006057601827910022012122012จ.ส.อ. ศักดิ์  สะราคำ                             8837-8897           8131-3064                               01270439CCSH       0000001041900000                                                                             
D000024006057601827910022012122220นายสมเด็จ บุญเพชร ทศ1674                          88869197            46211367                                01211627CCSH       0000001950000000                                                                             
D000025006057601827910022012122435ภัสรา เรศสุข                                      88768299            06215363                                11819722CCSH       0000001833500000                                                                             
D000026006057601827910022012123445นาย สมมาด แสงสุขขา ทศ1875                         88669497            58211367                                04950529CCSH       0000000809000000                                                                             
D000027006057601827910022012123558นาย สมมาด แสงสุขขา ทศ 1785                        88669497            58211367                                04950529CCSH       0000001884200000                                                                             
D000028006057601827910022012123636นาย สมมาด แสงสุขขา ทว7504                         88579992            45217350                                04950529CCSH       0000001515300000                                                                             
D000029006057601827910022012133603นางสมควร หงษ์ทอง ทร 3964                          88069790            49213336                                04580699CCSH       0000001616900000                                                                             
D000030006057601827910022012134204ด.ต.สุวนัย เสาศิริ ทศ 2620                        88669986            06212362                                04780201CCSH       0000002260000000                                                                             
D000031006057601827910022012135553นาย วชิระ  ตรงดี    ทล3955                        88589198            59213345                                01740029CCSH       0000001589600000                                                                             
D000032006057601827910022012135610นางสาว นงนุช กาฬภักดี                             88288099            80210357                                04650665CCSH       0000001700000000                                                                             
D000033006057601827910022012141226นายจรัล เผยสกุล                                   88678497            86210362                                11140807CCSH       0000001952500000                                                                             
D000034006057601827910022012141602นางศิริดา บุราณคุณ                                88379586            54215355                                11541541CCSH       0000001955000000                                                                             
D000035006057601827910022012142020นายศักรินทร์ พุฒิสกุล                             88538499            107136653                               00240918CCSH       0000000998700000                                                                             
D000036006057601827910022012145148นายสุวรรณ อุทสาร ทย9670                           88869693            06219327                                02190859CCSH       0000000892000000                                                                             
D000037006057601827910022012145819นางชูชื่น  เทพสุภรณ์กุล                           88479395            76314073                                00617106CCSH       0000001884200000                                                                             
D000038006057601827910022012145850ชะอ้อน แหยมประเสริฐ                               88799593            84219334                                04700261CCSH       0000000034300000                                                                             
D000039006057601827910022012145932นาย วารี สืบสายลา มช1293                          8805-9093           3231-1089                               08510017CCSH       0000001372800000                                                                             
D000040006057601827910022012150906นายวสันติชัย แบนจาด ทล4933                        88289396            39214343                                01800267CCSH       0000000600000000                                                                             
D000041006057601827910022012151131นายสุชาติ จันทร์เสวก                              88169893            59218314                                07110043CCSH       0000001159200000                                                                             
D000042006057601827910022012151903นายสุรศักดิ์ อินทศร ทว5449                        88879386            94215354                                04581830CCSH       0000002548000000                                                                             
D000043006057601827910022012152809อำนวย  รวยภิรมย์  มฉ5413                          88079691            34315071                                07620776CCSH       0000001935000000                                                                             
D000044006057601827910022012155409นาย กิตตินัย ปึงประยูร ทว 3317                    8807-9198           7321-3351                               10900089CCSH       0000001948200000                                                                             
D000045006057601827910022012155438นางสาวอรวรรณ  ศรีสุวรรณเกศ  ทร 936                88268599            69210333                                09760540CCSH       0000000829300000                                                                             
D000046006057601827910022012160146นางสาวสุมาลี ศรีอินทร์  ทว5402                    88579686            24215350                                02590096CCSH       0000001884200000                                                                             
D000047006057601827910022012160347นาง จุไรรัตน์  สุทธิเวช                           88089197            76214347                                11520169CCSH       0000000391700000                                                                             
D000048006057601827910022012160502จักรพงษ์  สียางนอก                                88668899            54211329                                04931325CCSH       0000001105700000                                                                             
D000049006057601827910022012160516นายบุญจันทร์ สีธาตุ                               88530799            107043199                               08510518CCSH       0000001033000000                                                                             
D000050006057601827910022012160628นายมงคล  ปราบภัย                                  88659597            46214352                                05755751CCSH       0000001617000000                                                                             
D000051006057601827910022012161319นายพงษ์เทพ  จึงตระกูล                             88537499            107161465                               05700127CCSH       0000001198200000                                                                             
D000052006057601827910022012161935นายไพศาล  พรประภาศักดิ์  ทว9155                   8857-9390           5121-9355                               10631094CCSH       0000001704800000                                                                             
D000053006057601827910022012162028ด.ต.เสิม    หยุ่นแก้ว  ทล4228                     8878-9093           8221-4342                               01970208CCSH       0000001665500000                                                                             
D000054006057601827910022012162105นายไพศาล  พรประภาศักดิ์  ทว9158                   8847-9390           8121-9355                               10631094CCSH       0000001704800000                                                                             
D000055006057601827910022012162640นาย เมธี เผือกพันธ์มุข ทย 3537                    8855-9797           7521-3323                               08450531CCSH       0000001085200000                                                                             
D000056006057601827910022012162650นายธนะจิตต์  พึ่งโพธิ์สภ  ทล9961                  88188199            19219346            082-4451704         08690033CCSH       0000001700000000                                                                             
D000057006057601827910022012174508นาย สุรศักดิ์   ถนอมสุข  มง  8853                 88468898            38318055                                09760540CCSH       0000000725300000                                                                             
D000058006057601827910022012184501นายวรวิทย์ และสง่า ทล1052                         88679992            20211345                                05690707CCSH       0000001602000000                                                                             
D000059006057601827910022012185355นายวิชัย บุญวัฒน์ ทย4696                          88969691            66214329                                11253283CCSH       0000001060000000                                                                             
T000060006057601827900000000000000000000000078685800000058                                                                                                                                                                                                      
