H0000010060576018279บริษัท ไทเอซ สิสซิ่ง จำกัด              09102011TALHO                                                                                                                                                                                       
D000002006057601827909102011080322นายธีรชัย  จิตมีธรรมเลิศ                          8899-8599           5221-8315                               02170046CCSH       0000001550000000                                                                             
D000003006057601827909102011084839นรชัย แพงศร                                       88698397            64213346                                09761108CCSH       0000001665500000                                                                             
D000004006057601827909102011105113ร.ท. วิไล  ลูกบัว  ทว 326                         88769592            63210352                                09760540CCSH       0000001629800000                                                                             
D000005006057601827909102011112856นายพงษ์เกียรติ บุญเส็ง ทม7705                     8895-9696           5721-7310                               07620899CCSH       0000001498000000                                                                             
D000006006057601827909102011123506นายอรรณพ แจ่มใส ทย1118                            88513599            107094402                               11140083CCSH       0000001043300000                                                                             
D000007006057601827909102011130827นายถวิล จำเริญ                                    88079090            73219357            ทว.9377             07990541CCSH       0000001476800000                                                                             
D000008006057601827909102011130928นายถวิล จำเริญ                                    88879891            51218350            ทว.8105             07990541CCSH       0000001476800000                                                                             
D000009006057601827909102011131359นางภัททิรา วีระกูล                                88159396            79217364                                07660676CCSH       0000001812300000                                                                             
D000010006057601827909102011132914นางสาววิไลวรรณ เครือบุตร                          88979786            11211343                                05970617CCSH       0000001550700000                                                                             
D000011006057601827909102011133511นาย วินัย  ผลดี  ทร 8076                          8897-9395           6021-8337                               10250225CCSH       0000001738000000                                                                             
D000012006057601827909102011133722นาย กมล แต้มสว่าง ทร 8264                         8868-9590           4221-8336                               05700767CCSH       0000001738200000                                                                             
D000013006057601827909102011133918นาย กมล แต้มสว่าง ทร 8458                         8836-9590           8421-8335                               05700767CCSH       0000001498000000                                                                             
D000014006057601827909102011134015นาย กมล แต้มสว่าง ทย 6364                         8878-8699           4321-6326                               05700767CCSH       0000001617000000                                                                             
D000015006057601827909102011134109นายกมล แต้มสว่าง ทล 8588                          8818-9590           8521-8348                               05700767CCSH       0000001800000000                                                                             
D000016006057601827909102011135234นางคำพันธ์ จันทร์ผลงาม ทศ7539                     88759297            95217363                                10071100CCSH       0000002200500000                                                                             
D000017006057601827909102011135752นางสาวนงนุช กาฬภักดี                              88288099            80210357                                10050466CCSH       0000001700000000                                                                             
D000018006057601827909102011140637นายสมมาด แสงสุขขา ทศ1875                          88669497            58211367                                04950529CCSH       0000001884200000                                                                             
D000019006057601827909102011140737นายสมมาด แสงสุขขา ทว7504                          88579992            45217350                                04950529CCSH       0000001515300000                                                                             
D000020006057601827909102011142042น.ส.บุญสิตา สุนทรสวัสดิ์                          88669197            52317077                                09740387CCSH       0000001842700000                                                                             
D000021006057601827909102011142950นายอาด ไม้น้อย                                    88089091            67217348                                10130851CCSH       0000001799200000                                                                             
D000022006057601827909102011144447อรวรรณ ศรีสุวรรณเกศ                               88569492            82214288                                09761108CCSH       0000000409000000                                                                             
D000023006057601827909102011145215นางสาว ปนันดา สาระวัน ทว 5166                     8887-9886           6121-5356                               02501180CCSH       0000001454900000                                                                             
D000024006057601827909102011150947นายจักรพงษ์ สียางนอก ทย1495                       88668899            54211329                                04671034CCSH       0000001105700000                                                                             
D000025006057601827909102011152435บุญเลิศ ทรัพย์เจริญกุล                            8806-9991           7621-1322                               10320746CCSH       0000001473100000                                                                             
D000026006057601827909102011153103นายประสิทธิ์ แสนจะบก                              88512699            107036744                               09761108CCSH       0000000869400000                                                                             
D000027006057601827909102011154501นางวาสนา  สันติสุขสถาพร                           8868-8297           7421-2355                               07683054CCSH       0000001860000000                                                                             
D000028006057601827909102011155006นายรวมชัย นาคะสถิตย์ ทศ 1146                      8816-9598           6121-1364                               04880262CCSH       0000001587900000                                                                             
D000029006057601827909102011161636จ.ส.ท.อรรณนพ โคตรโสภา ทว 5439                     88079786            94215353                                10270592CCSH       0000001900000000                                                                             
D000030006057601827909102011165106นายเสกสันต์ ไชยเสนา  ทว4674                       88679587            46214357                                10074338CCSH       0000001889300000                                                                             
D000031006057601827909102011172123นางสาวสุวรรณี แก้วแจ่มใส                          88859396            09217362                                05700127CCSH       0000001386200000                                                                             
D000032006057601827909102011173512นายทองปาน บุญแสนยศ ทร 7940                        8849-9096           0921-7334                               01734121CCSH       0000001092400000                                                                             
D000033006057601827909102011175149นายสมชาย ทองแดง ทศ2598                            8836-9096           8521-2369                               07752367CCSH       0000002000000000                                                                             
D000034006057601827909102011175732ศุภณัฎฐ์  ใจกล้า                                  8866-7197           0231-3076                               04770442CCSH       0000001884200000                                                                             
D000035006057601827909102011180651นายจักรพันธ์ ขำเกื้อ                              88289793            49215344                                05700127CCSH       0000001617900000                                                                             
D000036006057601827909102011190345นายวิทยา ภิราษร                                   88789191            74217349                                10661017CCSH       0000001700000000                                                                             
T000037006057601827900000000000000000000000055266300000035                                                                                                                                                                                                      
