H0000010060576018279บริษัท ไทเอซ สิสซิ่ง จำกัด              11122011TALHO                                                                                                                                                                                       
D000002006057601827911122011112020คมสัน  จันทร์หอม  ทศ 825                          8827-8397           5821-0362                               10720208CCSH       0000001587900000                                                                             
D000003006057601827911122011112217นาง สุนิจ สมบัติ ทร2854                           88969295            48212335                                10070203CCSH       0000001420000000                                                                             
D000004006057601827911122011113411นายสิทธิรัตน์ ศูนย์ผล ทว4273                      88379097            32214357                                04950176CCSH       0000001605200000                                                                             
D000005006057601827911122011115416นาย ประสาน  ไชยแสง                                88548399            106159803                               08000737CCSH       0000001953000000                                                                             
D000006006057601827911122011121345นายสมพร คำใจ                                      88268699            08211344                                11370660CCSH       0000001126600000                                                                             
D000007006057601827911122011124411นางธิดา เนาวรัตน์ ทร4223                          8897-9893           3221-4332                               05750619CCSH       0000001131900000                                                                             
D000008006057601827911122011125112สุพน  หาบัณฑิตย์  ทม 6402                         88359694            24216310                                10720208CCSH       0000000880000000                                                                             
D000009006057601827911122011130408นาง คำพันธ์ จันทร์พลงาม ทศ7539                    88759297            95217363                                10070203CCSH       0000002200500000                                                                             
D000010006057601827911122011131632นางสาววัสมล โชติสิงห์                             88540099            104115734                               04810743CCSH       0000001922300000                                                                             
D000011006057601827911122011132134นายจักรพงษ์ สียางนอก                              88668899            54211329                                04930494CCSH       0000001105700000                                                                             
D000012006057601827911122011135028นาย สุรเดช แก่นโนรา ศฉ1620                        88869797            06361072                                08691827CCSH       0000000588500000                                                                             
D000013006057601827911122011135110พงษ์ศักดิ์ หิรัญวรรณ ทศ 3175                      8886-9194           5121-3367                               10320746CCSH       0000001500700000                                                                             
D000014006057601827911122011140907นางสาวลัดดา วงศ์เหลืองอ่อน                        88859794            74113010            ญก3407              04930415CCSH       0000000405700000                                                                             
D000015006057601827911122011151056วชิราภรณ์ นุชสุข                                  88969591            04214362                                11250232CCSH       0000001772800000                                                                             
D000016006057601827911122011160540นางสาว  อรวรรณ  ศรีสุวรรณเกศ  ทร 936              8826-8599           6921-0333                               09760540CCSH       0000000829300000                                                                             
D000017006057601827911122011160614นางวาสนา สันติสุขสถาพร  ทว2457                    88688297            74212355                                07680524CCSH       0000001850000000                                                                             
D000018006057601827911122011164630จ.ส.ท.อรรณนพ โคตรโสภา                             88079786            94215353                                04670086CCSH       0000001900000000                                                                             
D000019006057601827911122011170432ณรงค์ พรหมอ่อน ทม.5133                            88868797            31215313                                07620899CCSH       0000000841800000                                                                             
D000020006057601827911122011175303นาย วันเฉลิม  เกษตรสินธุ์  ทว 1326                8838-8988           6321-1352                               09760540CCSH       0000005370000000                                                                             
D000021006057601827911122011182516นาย ประพันธ์ยุทธ์ ชัยศรี ทว 1798                  88388797            87211359                                08450154CCSH       0000000543300000                                                                             
T000022006057601827900000000000000000000000030535200000020                                                                                                                                                                                                      
