H0000010060576018279บริษัท ไทเอซ สิสซิ่ง จำกัด              27072011TALHO                                                                                                                                                                                       
D000002006057601827927072011083200นาง ศุทธนุช ภัทรศรีสุวัฒน์ ทร 3398                8846-9095           8321-3339                               00920555CCSH       0000000993700000                                                                             
D000003006057601827927072011085124นางสาว ศิริกานดา  ทานุรัตน์                       8886-9796           5121-2363           ทศ 2135             02260178CCSH       0000001799200000                                                                             
D000004006057601827927072011090911นายสุชาติ  จันทร์เสวก  ทม-8945                    8816-9893           5921-8314                               07110973CCSH       0000001159200000                                                                             
D000005006057601827927072011091437นายรุ่งโรจน์ จงกราน                               8837-9881           8521-0325                               01800625CCSH       0000000548300000                                                                             
D000006006057601827927072011092437นาง ภัททิยา จึงเจริญกิจไพศาล ทล 1042              8837-9690           2021-1344                               01980529CCSH       0000001890000000                                                                             
D000007006057601827927072011093820นาย ทิพย์มนต์ สวนไพรินทร์                         8835-9698           2421-8352           ทว 8422             01921348CCSH       0000001914800000                                                                             
D000008006057601827927072011095642นายบุญมี จันทร์กอง ทร4243                         8839-9892           3221-4334                               01971063CCSH       0000001580000000                                                                             
D000009006057601827927072011102200นายดำรงศักดิ์  ยศม้าว                             8877-9393           1021-7357                               00820465CCSH       0000001700000000                                                                             
D000010006057601827927072011102957นาย พงษ์ศักดิ์  บริบูรณ์  ทว6228                  8857-9794           8221-6352           089-1110798         08690033CCSH       0000001987300000                                                                             
D000011006057601827927072011103138นายปราโมทย์  อภิรมย์ดี ทม6756                     8847-9092           6721-6315                               11310028CCSH       0000000064300000                                                                             
D000012006057601827927072011105234ด.ต.วิรัตน์ ตะคุณนะ ทย7605                        8856-8397           5621-7320                               05671599CCSH       0000000631200000                                                                             
D000013006057601827927072011111059นาย วิทสุวัฒน์ โสวิบูรณ์ ทศ 698                   88969792            86210369                                08450154CCSH       0000001886800000                                                                             
D000014006057601827927072011113532ธานี ชาญตะบะ ทล3447                               88298797            74213344                                07960121CCSH       0000002035200000                                                                             
D000015006057601827927072011115111วุฒิชัย  มาตชะรา                                  8895-9494           4721-8365                               04993358CCSH       0000001901600000                                                                             
D000016006057601827927072011115917ร.อ.ณัฐ กาญจนโรจน์ ทว.5812                        8817-9695           2821-5351                               04772030CCSH       0000002715500000                                                                             
D000017006057601827927072011120053สตอ. สมบัติ  สิมหลวง ทล 3824                      8858-9798           4821-3342                               11340427CCSH       0000001665500000                                                                             
D000018006057601827927072011120214นายสุนัย พรมไพโรจน์                               88468698            65217329                                09760107CCSH       0000001374400000                                                                             
D000019006057601827927072011121406คุณวิชุดา พลายแก้ว                                8897-7297           8421-3344                               01270115CCSH       0000001665500000                                                                             
D000020006057601827927072011121914น.ส.ไพรจิตร  คำสงค์                               88559498            77216315                                01760442CCSH       0000001105700000                                                                             
D000021006057601827927072011122720นายอุเทน เพชร์ทอง                                 88268298            80216368                                11520403CCSH       0000001853700000                                                                             
D000022006057601827927072011123804ถิรณะ แสงทับทิม                                   8846-9295           1021-1326                               06990912CCSH       0000001918700000                                                                             
D000023006057601827927072011124935นางสาวอรวรรณ ศรีสุวรรณเกศ                         88569492            82214288                                09760107CCSH       0000000829300000                                                                             
D000024006057601827927072011125940นายอนุสรณ์  วารีน้อย  ทม5583                      8827-8399           3521-5318                               01781712CCSH       0000001391000000                                                                             
D000025006057601827927072011130223นายอนุสรณ์ ศรีมาลี                                8875-9398           8731-9070                               00130172CCSH       0000000030000000                                                                             
D000026006057601827927072011130417นาย ชัชรินทร์ ไทรย้อย                             8896-9495           8331-7072           มฉ7328              03830182CCSH       0000001515300000                                                                             
D000027006057601827927072011131802ธาริณี    แก้วผลึก 083-2349997                    8807-9597           5521-9334                               00336605CCSH       0000000904400000                                                                             
D000028006057601827927072011132105น.ส.ธาริณี  แก้วผลึก 083-2349997                  8807-9597           5521-9334                               00336605CCLQ597315300000003300000250329                                                                         
D000029006057601827927072011132355นายทวีศักดิ์ เมืองกลาง  ทร2479                    8816-8299           9421-2337                               01480206CCSH       0000001644500000                                                                             
D000030006057601827927072011132412น.ส.ธาริณี   แก้วผลึก   083-2349997               8807-9597           5521-9334                               00336605CCLQ805606300000003500000140021                                                                         
D000031006057601827927072011134058นาย กำพล บุญคลัง                                  8857-9294           9621-8317                               01420325CCSH       0000000890000000                                                                             
D000032006057601827927072011134116สมาน ปัญญาดี                                      8827-9595           0931-3052                               08000990CCSH       0000000808500000                                                                             
D000033006057601827927072011134515นส.ไพจิตต์ กีรติพินิจ                             88388888            60211355                                02561757CCSH       0000001590000000                                                                             
D000034006057601827927072011135039นายเสน่ห์ ขาวสวัสดิ์                              8836-9698           3421-7332                               02590096CCSH       0000001354800000                                                                             
D000035006057601827927072011135445นายภักดี  แสงจันทร์                               8829-9494           8031-9064                               05760270CCSH       0000001680500000                                                                             
D000036006057601827927072011135921tuanjai long                                      88399881            02211349                                00001219CCSH       0000001665500000                                                                             
D000037006057601827927072011140138สุชาติ แก้วดอนรี                                  8879-8499           3021-2346                               02540078CCSH       0000001665500000                                                                             
D000038006057601827927072011140310สุชาติ แก้วดอนรี                                  8879-8499           3021-2346                               02540078CCSH       0000000034300000                                                                             
D000039006057601827927072011144100นายสุรพล พูลสวัสดิ์ มฉ 4945                       88379693            59314074                                04603621CCSH       0000001824700000                                                                             
D000040006057601827927072011150049นาย  พิพัฒน์  จำปาทอง  มฉ  2121                   8858-9782           1131-2072                               09760820CCSH       0000001110500000                                                                             
D000041006057601827927072011150934นาย สุรศักดิ์ อินทศร ทศ 5534                      88768399            45215363                                07930727CCSH       0000002703000000                                                                             
D000042006057601827927072011151438นายเสน่ห์ ยิกุสังข์                               8808-9796           3821-4343                               10294192CCSH       0000001665500000                                                                             
D000043006057601827927072011151602นายเสน่ห์ ยิกุสังข์                               8808-9796           3821-4343                               10294192CCSH       0000000034240000                                                                             
D000044006057601827927072011153029นางสาวนิษฐิดา แปงแก้ว                             8895-9394           4821-2356                               02580367CCSH       0000000130000000                                                                             
D000045006057601827927072011154038นายพรประสิทธิ์ บัวเพชร ทล9591                     8878-8399           1521-9349                               04600072CCSH       0000001884200000                                                                             
D000046006057601827927072011154137นางอุบลรัตน์ บัวเพชร ทศ 4094                      8886-9192           4021-4369                               04600072CCSH       0000000814000000                                                                             
D000047006057601827927072011161504นาง  ชลิตดา  เจริญพวง  ทย  4697                   8846-8397           7621-4329                               09760820CCSH       0000000267000000                                                                             
D000048006057601827927072011164858นาย ธนกฤต อินนุช                                  88289491            63217340                                05710404CCSH       0000001902000000                                                                             
D000049006057601827927072011170414กึ๋ม พาดขุนทด ทล 9700                             88088499            07219340                                08550664CCSH       0000001700000000                                                                             
D000050006057601827927072011170847นางสาว วชิราภรณ์ นุชสุข                           88779794            12216358                                09621011CCSH       0000001787800000                                                                             
D000051006057601827927072011171551นาง วันพร  องค์ศิริพร                             8816-9994           1321-3323                               10990991CCSH       0000002937800000                                                                             
D000052006057601827927072011173231วีระ ยุบลพริ้ง ทว6589                             8836-9887           9521-6358                               10320214CCSH       0000001584300000                                                                             
D000053006057601827927072011173609นางสาววัชรี เพิ่มพูลสวัสดิ์ ทว4917                8867-9196           7921-4351                               05970062CCSH       0000002355500000                                                                             
D000054006057601827927072011175925นายปางทอง แซ่ตั้ง มฉ3803                          8886-9986           3831-3070                               10360725CCSH       0000000374100000                                                                             
D000055006057601827927072011182722สัญญา  จันเวียง                                   8847-9396           6921-4353                               04930687CCSH       0000002105300000                                                                             
D000056006057601827927072011184200นายรัศเธียร บัวคลี่ มจ 381                        88669095            13310068                                10071091CCSH       0000001360300000                                                                             
D000057006057601827927072011185954นายสมพงษ์  ดารักษ์  ทล593                         8896-9391           3521-0349                               10360901CCSH       0000000058800000                                                                             
D000058006057601827927072011190416ธีรศักดิ์ ตั้งวิรุฬห์รัตน์ ทว4752                 8827-9596           2721-4355                               10151005CCSH       0000001918500000                                                                             
T000059006057601827900000000000000000000000077591740000057                                                                                                                                                                                                      
