H0000010060576018279บริษัท ไทเอซ สิสซิ่ง จำกัด              31102011TALHO                                                                                                                                                                                       
D000002006057601827931102011083203นายสัญญา กังวานไกล                                88557997            30210364            ทศ43                00540034CCLQ411053 00000018842000140120                                                                         
D000003006057601827931102011090238เบญจมาศ มูลลาด                                    88519299            104122436                               01890216CCSH       0000002080000000                                                                             
D000004006057601827931102011090658ด.ต.เสิม หยุ่นแก้ว ทศ7818                         8885-9496           8821-7361                               01970387CCSH       0000001812300000                                                                             
D000005006057601827931102011091230ยุทธชนะ แดงอินทวัฒน์  มช850                       88359494            08310085                                02540469CCSH       0000001602440000                                                                             
D000006006057601827931102011091407นายชวลิต  ใจธรรม ทว5033                           88506599            106137897                               00820726CCSH       0000001678400000                                                                             
D000007006057601827931102011093718นายทองดี วงษ์จักษุ                                88513789            107153172                               04990497CCSH       0000001159200000                                                                             
D000008006057601827931102011093922น.ส.ดวงพร ภาระจ่า ทศ 7701                         88759696            17217360                                02501075CCSH       0000002042700000                                                                             
D000009006057601827931102011094406นายศราวุธ วิเก็ง ทศ9348                           88538699            104116124                               02501075CCSH       0000002750300000                                                                             
D000010006057601827931102011095447นาย นัทวัฒน์ วงสุโท ทม6686                        88779494            66216318                                01781712CCSH       0000001583600000                                                                             
D000011006057601827931102011100124นายโชคชัย สนธิ์ชัยสกุล ทล6671                     88189392            16216347                                00470517CCSH       0000001700000000                                                                             
D000012006057601827931102011102057นาย สุวรรณ  ฟูศรีกุล                              8839-9490           9231-0074           มฉ 249              02260178CCSH       0000001683900000                                                                             
D000013006057601827931102011104215อนุ สุริยะ  ทล 1200                               88069596            02211340                                02540469CCSH       0000001784600000                                                                             
D000014006057601827931102011105405นายจงเจริญ  ช่วยสงค์                              88779882            61218350                                01410494CCSH       0000002000000000                                                                             
D000015006057601827931102011110416นายเมธี  เผือกพันธ์มุข                            8855-9797           7521-3323                               05760270CCSH       0000001090700000                                                                             
D000016006057601827931102011110541นายยวด  ยินดี                                     88534299            106134477                               08404479CCSH       0000001233900000                                                                             
D000017006057601827931102011114235นายสมบัติ ชื่อสม ทม7386                           88569887            63217318                                04630432CCSH       0000001130000000                                                                             
D000018006057601827931102011115228จ.ส.อ.บุญส่ง หวังผล                               8885-9094           4431-0061                               01290065CCSH       0000001091500000                                                                             
D000019006057601827931102011121353นายประสิทธิ์ เเจ้งเหตุผล                          88525299            107152834                               04690188CCSH       0000001080200000                                                                             
D000020006057601827931102011121533พงษ์ศักดิ์  แหล่งสนาม                             8877-8798           4921-9350           080-1691960         04600142CCSH       0000001962700000                                                                             
D000021006057601827931102011122911นายนวพล  ก้านอืนทร์                               88501099            106139735                               02501795CCSH       0000001293000000                                                                             
D000022006057601827931102011123102นายอำนวย รวยภิรมย์ มฉ5413                         88079691            34315071                                01971063CCSH       0000001918500000                                                                             
D000023006057601827931102011123432ขวัญหทัย ดีใจ                                     8847-9795           1721-5350                               04810111CCSH       0000001884200000                                                                             
D000024006057601827931102011124024นายพุทธา ยอดลี                                    88498797            61213340                                03200079CCSH       0000001665500000                                                                             
D000025006057601827931102011124913นางสาวมณีรัตน์    จันทมล                          88669898            50214338                                08553235CCSH       0000000927400000                                                                             
D000026006057601827931102011125053นางลำเพย  ศรีดาวเดือน ทล 5807                     8858-9393           7821-5340                               11140161CCSH       0000001432800000                                                                             
D000027006057601827931102011131922นาย สุธน  พรมลี ทล7141                            8818-9891           1121-7344                               02590608CCSH       0000001700000000                                                                             
D000028006057601827931102011133339นายวิฑูร คงเจริญ มฉ 3485                          88288298            54313078                                02530554CCSH       0000001893000000                                                                             
D000029006057601827931102011134001นางณัฐกาญจน์ พุ่มพวง ทล 965                       8899-9491           5921-0346                               01300249CCSH       0000001200000000                                                                             
D000030006057601827931102011134348นายรักคิด จันทร์สุวรรณ มฉ3518                     88588198            85313071                                00190024CCSH       0000001884200000                                                                             
D000031006057601827931102011135650นางสาวกนิษฐา อินฉาย                               88378598            50217314                                01760698CCSH       0000000603200000                                                                             
D000032006057601827931102011143143พ.จ.อ.หญิงบุญทอง  จันทร์สุวรรณ                    88069295            38212362                                00980495CCSH       0000001884200000                                                                             
D000033006057601827931102011143407นางสาวรัชนีกร  วรปัญญา                            88569395            28212363                                11730878CCSH       0000000400000000                                                                             
D000034006057601827931102011144009นายผจญ  เฉลิมวัฒน์                                8847-9883           8521-7351                               01034542CCSH       0000001990000000                                                                             
D000035006057601827931102011144245นายองอาจ มหิทธิโรจน์ ทล6463                       8858-9692           3421-6346                               02150209CCSH       0000001014800000                                                                             
D000036006057601827931102011144419นายองอาจ มหิทธิโรจน์ ทล6441                       8868-9692           1421-6344                               02150209CCSH       0000001004800000                                                                             
D000037006057601827931102011144600นายสุรชา  ทองสูงเนิน ทล 4256                      88531699            107160824                               08510045CCSH       0000001464800000                                                                             
D000038006057601827931102011145300นายวรุตม์ สุขบัติ ทว 6753                         8867-9993           3721-6355                               04580699CCSH       0000001377800000                                                                             
D000039006057601827931102011145642พิกิจ  ภูมิภาค  ทศ2834                            88269895            48212363                                02530516CCSH       0000002082100000                                                                             
D000040006057601827931102011153812นางรุ่งอรุณ ภมรจันทร์ ป้ายแดง                     88514889            106202867                               02530654CCSH       0000001450000000                                                                             
D000041006057601827931102011154808ถิรณะ แสงทับทิม                                   8846-9295           1021-1326                               06990912CCSH       0000002087500000                                                                             
D000042006057601827931102011155324นายวีระศักดิ์ สีสันต์                             88688499            25219332                                07687681CCSH       0000001027900000                                                                             
D000043006057601827931102011160617น.ส.วรรณา ท้วมเหลือ                               88878698            09219356                                09624492CCSH       0000001884200000                                                                             
D000044006057601827931102011160825น.ส.วชิราภรณ์ นุชสุข                              8818-9796           7821-4341                               09624492CCSH       0000001476200000                                                                             
D000045006057601827931102011163418จ.อ.วรายุ  ทองฉิม มฉ6786                          88769497            67316078                                08510045CCSH       0000001506000000                                                                             
D000046006057601827931102011164350CHANADON  NATRAM                                  88579486            64213328                                04700196CCSH       0000001156800000                                                                             
D000047006057601827931102011171032นางพร  จันทอง                                     88515789            107117586                               08553235CCSH       0000000064300000                                                                             
D000048006057601827931102011181152น.ส.ฐิติวรรณ  สุธรรมมา                            8856-9787           5121-8338                               11140161CCSH       0000000400000000                                                                             
D000049006057601827931102011193324นวลจันทร์ อัฒจัก                                  88679983            50315071                                10230804CCSH       0000001745700000                                                                             
T000050006057601827900000000000000000000000071769540000048                                                                                                                                                                                                      
