H0000010060576018279บริษัท ไทเอซ สิสซิ่ง จำกัด              30122011TALHO                                                                                                                                                                                       
D000002006057601827930122011083119ด.ต.ชาญ ทับพุ่ม                                   88798198            66211310                                00580655CCSH       0000001465000000                                                                             
D000003006057601827930122011090329นายวุฒิชัย มาตชะรา ทศ 8754                        88549499            104115407                               04991118CCSH       0000001901600000                                                                             
D000004006057601827930122011091542นายมานะ ขำสุวรรณ                                  88559698            78216361                                01480206CCSH       0000002834000000                                                                             
D000005006057601827930122011093822นายเผด็จ  ยินดีขันธ์                              88898598            55212346                                01390263CCSH       0000001696000000                                                                             
D000006006057601827930122011095707วันทนา  อ่ำเอี่ยม                                 8850-9190           0021-4335                               00390613CCSH       0000001335000000                                                                             
D000007006057601827930122011095720นายภักดี  ถาวรวัฒนะ                               88669697            45310062                                06920406CCSH       0000001582500000                                                                             
D000008006057601827930122011095912นาย สมชาย ศิริรักษ์                               88569997            25215329                                01720543CCSH       0000000100000000                                                                             
D000009006057601827930122011100630นายสมรภูมิ กุลสุวรรณ์                             88769294            56317059                                08560792CCSH       0000000581000000                                                                             
D000010006057601827930122011101106นายเกรียงศักดิ์  วิสุทธิรัตนกุล                   88279487            65214356                                01900549CCSH       0000001419000000                                                                             
D000011006057601827930122011102437อำนาจ  เจียมเชื่อม  ทศ 6549                       88568497            95216364                                02530516CCSH       0000001856500000                                                                             
D000012006057601827930122011103742นายสมเกียรติ บุญปาน                               88459698            33213366                                06230870CCSH       0000001372800000                                                                             
D000013006057601827930122011103913นายประสิทธิ์ หอมสนั่น มฉ2840                      8888-9990           0831-2074                               01951137CCSH       0000001914000000                                                                             
D000014006057601827930122011104849นางสาว เครือฟ้า ทาใจ                              8877-9797           3921-3350                               00430763CCSH       0000001800000000                                                                             
D000015006057601827930122011111908นายจำลอง เที่ยงตรง ทว 7502                        88779992            25217350                                01520684CCSH       0000001934000000                                                                             
D000016006057601827930122011112422นาย สุริยา จินาวรณ์  ทม1945                       8856-8998           5921-1314                               00651470CCSH       0000000132800000                                                                             
D000017006057601827930122011113014สุปราณี แก้วคำ                                    88511889            107147061           ทร 7648             00841716CCSH       0000001100000000                                                                             
D000018006057601827930122011113155สุปราณี แก้วคำ                                    88510889            107133972                               00841716CCSH       0000001100000000                                                                             
D000019006057601827930122011114449นางมยุรี นนทรีย์ ทว6176                           88779994            61216357                                01951095CCSH       0000001563300000                                                                             
D000020006057601827930122011114603นายเมตตา นวนน้ำจิตต์                              8815-9795           8431-0089                               05780583CCSH       0000001812300000                                                                             
D000021006057601827930122011121133นาย สุริยัน ขำดำ                                  8897-9791           6521-8338                               01230882CCSH       0000001697800000                                                                             
D000022006057601827930122011121539นายเชาวลิต ฮั่นปุดโจ๊ว                            88679697            97213350                                10320864CCSH       0000001884200000                                                                             
D000023006057601827930122011121631ส.ต.อ. สมบัติ สิมหลวง                             88589798            48213342                                09621011CCSH       0000001665500000                                                                             
D000024006057601827930122011121958นางสาวนงชนา วรปาณิ ทล 5123                        88389695            31215342                                04603236CCSH       0000001650000000                                                                             
D000025006057601827930122011122527นายสุนทร จันทร                                    88679791            61218355                                01900549CCSH       0000001964200000                                                                             
D000026006057601827930122011122643นางชุติมา ธรรพสิทธิ์                              88279998            08212354                                07540908CCSH       0000001833500000                                                                             
D000027006057601827930122011123445เฉลิม สมบัติมี                                    88269193            06219314                                00110049CCSH       0000000829300000                                                                             
D000028006057601827930122011130400นายทรงชัย ลายลวดแก้ว ทศ1122                       88878097            21211362                                04730614CCSH       0000000733300000                                                                             
D000029006057601827930122011130611น.ส.ฐาปณภัท ธรรมวิหาร                             8889-8199           3321-2340                               01930534CCSH       0000001700000000                                                                             
D000030006057601827930122011130701น.ส.ฐาปณภัท ธรรมวิหาร                             8899-8199           4321-2340                               01930534CCSH       0000001700000000                                                                             
D000031006057601827930122011132127นายสุรศักดิ์  อินทศร   ทล 6058                    88488698            80216345                                04585612CCSH       0000000239700000                                                                             
D000032006057601827930122011133225พสิษฐ์ สกุลมา                                     88869893            91316072                                11040535CCSH       0000002062000000                                                                             
D000033006057601827930122011133334นางสาว มณีรัตน์ จันทมล                            88669898            50214338                                02250416CCSH       0000000927400000                                                                             
D000034006057601827930122011133518นายสมบัติ ชื่อสม ทม.7386                          88569887            63217318                                04637295CCSH       0000001165100000                                                                             
D000035006057601827930122011134146นายภาวัต ไชยสร มง9699                             88778989            96319059                                01211627CCSH       0000001686400000                                                                             
D000036006057601827930122011135305นายวิฑูร คงเจริญ มฉ 3485                          88288298            54313078                                02530654CCSH       0000001888500000                                                                             
D000037006057601827930122011140855นางสาวเสาวคนธ์ ภาภิรมย์ ทล 1928                   8899-9980           8921-1342                               04990497CCSH       0000002000000000                                                                             
D000038006057601827930122011141313นางหวานใจ โกศัลวิตร                               88669993            51215339                                10903618CCSH       0000000860000000                                                                             
D000039006057601827930122011142209นาง กาญจนา ด่านวิริยะกุล ทย 4593                  8898-9297           3521-4329                               02564581CCSH       0000001592000000                                                                             
D000040006057601827930122011142327นายวัลลภ กันหอม(0892325654)                       88059986            12216337                                02250416CCSH       0000001083000000                                                                             
D000041006057601827930122011142949นายสุนทร ทองไพรวรรณ                               88388597            47212353                                00860670CCSH       0000001900000000                                                                             
D000042006057601827930122011143139นายสุระ ประเสริฐกุล                               88597498            107108560                               01480705CCSH       0000000885600000                                                                             
D000043006057601827930122011144517นายวรุตม์ สุขบัติ ทว 6753                         8867-9993           3721-6355                               04580699CCSH       0000001377800000                                                                             
D000044006057601827930122011150352นายสมเกียรติ  จิระศรีรังสรรค์                     88505099            107065942                               11140161CCSH       0000002000000000                                                                             
D000045006057601827930122011150929นายเพียร แดงโร่                                   88279296            03314075                                02540469CCSH       0000001880000000                                                                             
D000046006057601827930122011151116นาง ลำเพย ศรีดาวเดือน ทล 5807                     88589393            78215340                                11140247CCSH       0000001432800000                                                                             
D000047006057601827930122011151435นาย ประยูร โพธิ์บริสุทธิ์                         8847-9587           0921-2311                               00600443CCSH       0000001716300000                                                                             
D000048006057601827930122011161847นายทศพล ดวงมาลี                                   88488998            63313075            มฉ.3356             07990541CCSH       0000001886500000                                                                             
D000049006057601827930122011163812นาย ยอด ศรีราชา                                   8836-7997           5821-7321                               10330446CCSH       0000000851900000                                                                             
D000050006057601827930122011165800นางสาว วชิราภรณ์ นุชสุข                           88189796            78214341                                09621011CCSH       0000001476200000                                                                             
D000051006057601827930122011165841นางสาว วรรณา ท้วมเหลือ                            88878698            09219356                                09621011CCSH       0000001884200000                                                                             
D000052006057601827930122011170026บุญสุข จงศิริโชค                                  88467987            18216358                                07951972CCSH       0000001799200000                                                                             
D000053006057601827930122011170631ผจญ เฉลิมวัฒน์                                    88479883            85217351                                10365296CCSH       0000001990000000                                                                             
D000054006057601827930122011173713นาง นิธิกานต์ วัฒนถนอม                            88359897            83217368                                10810244CCSH       0000002331600000                                                                             
D000055006057601827930122011174419นางสลิล มะลิต้น ทย6326                            88189791            63216322                                08691092CCSH       0000001261500000                                                                             
D000056006057601827930122011180810เรืองฤทธิ์ สุวรรณมาก                              88569697            26211366                                07620859CCSH       0000001884200000                                                                             
D000057006057601827930122011182639นายเขษม คุ้มประยูร ทล 5260                        8858-9594           0221-5346           ทล 5260             10431106CCSH       0000001705200000                                                                             
T000058006057601827900000000000000000000000084924700000056                                                                                                                                                                                                      
