H0000010060576018279บริษัท ไทเอซ สิสซิ่ง จำกัด              12092011TALHO                                                                                                                                                                                       
D000002006057601827912092011083139นายธวัชชัย กลิ่นหนู                               88379393            65215322            ทย 5526             03991662CCSH       0000000870800000                                                                             
D000003006057601827912092011083154นาย   ณรงค์  พรหมอ่อน                             88868797            31215313                                00611358CCSH       0000000841800000                                                                             
D000004006057601827912092011085218สำฤทธิ์ แก่นจันทร์                                88259595            45317062                                06926921CCSH       0000001262700000                                                                             
D000005006057601827912092011085257นายปัญญา มนตรีชน                                  88798297            78310078                                00334177CCSH       0000001665500000                                                                             
D000006006057601827912092011090520นายธนชัย วุฒิยา                                   8818-8889           8331-3075           มฉ 3358             07609426CCSH       0000001914200000                                                                             
D000007006057601827912092011091601นาย อนุสรณ์ วารีน้อย ทม5553                       8826-9394           3521-5315                               01780060CCLQ103739000000014957000040766                                                                         
D000008006057601827912092011092200นายนรชัย แพงศร                                    88698397            64213346                                09761108CCSH       0000001665500000                                                                             
D000009006057601827912092011092408นายไพศาล พรประภาศักดิ์ ทศ397                      88478098            73210369                                01200274CCSH       0000001704800000                                                                             
D000010006057601827912092011092542นายไพศาล พรประภาศักดิ์ ทว9155                     88579390            51219355                                01200274CCSH       0000002753600000                                                                             
D000011006057601827912092011092743นายไพศาล พรประภาศักดิ์ ทว9158                     88479390            81219355                                01200274CCSH       0000002753600000                                                                             
D000012006057601827912092011094518นางศิรินภา  จิตตะยะโสภณ                           8479596             87214359                                06921923CCSH       0000000030000000                                                                             
D000013006057601827912092011095453นายรัชตะ มาวงษ์นอก                                8866-8497           3021-4331           ทร4013              03970649CCSH       0000000841800000                                                                             
D000014006057601827912092011100115นายภิญโญ  กันเนียม ทศ 8537                        8815-9395           7521-8363                               04600072CCSH       0000001812300000                                                                             
D000015006057601827912092011101756นายอุดม เชาวรินทร์                                88668797            96066083                                11630448CCSH       0000000670000000                                                                             
D000016006057601827912092011102442นาย  ธนเดช  จารุฐติมาศ  ทย  7318                  8856-9493           8321-7321                               03970523CCSH       0000001148000000                                                                             
D000017006057601827912092011103208นายคำมี ปะตังเวสา                                 88879495            28215359                                07010626CCSH       0000001652200000                                                                             
D000018006057601827912092011103342นายพงษ์กฤษณ์ เกียรติเจริญพันธุ์  ทศ 7975          8825-9296           5921-7367                               04581882CCSH       0000002499200000                                                                             
D000019006057601827912092011104549นาย บรรเจิด หล่ำจรูญ                              88178997            23310060                                00970597CCSH       0000000800000000                                                                             
D000020006057601827912092011111809วิสุทธิ์ ทศ2292                                   88269887            22212369                                07960038CCSH       0000001900000000                                                                             
D000021006057601827912092011111853นายปรีชา บุญมั่น                                  88679790            37218358                                11461039CCSH       0000000621000000                                                                             
D000022006057601827912092011112702นายดำรงค์รักษ์ โชคพิมาย ทว 4436                   8857-9887           6421-4353                               00771132CCSH       0000001884200000                                                                             
D000023006057601827912092011113021นางจุฬารัตน์ สุทธิเวช                             8808-9197           7621-4347                               11521521CCLQ812130000000007500000110171                                                                         
D000024006057601827912092011113757นายอนุสรณ์  ศรีมาลี มฉ9708                        88759398            87319070                                04590095CCSH       0000001874000000                                                                             
D000025006057601827912092011114507นายคมสัน จันทร์หอม    ทศ825                       88278397            58210362                                10320156CCSH       0000001587900000                                                                             
D000026006057601827912092011115410ธนกฤษ มะสังหลง                                    8836-8598           9721-5363                               04607752CCSH       0000001958200000                                                                             
D000027006057601827912092011115911สิทธิพร แวดอุดม                                   8885-9796           2131-0086                               01371972CCSH       0000000030000000                                                                             
D000028006057601827912092011120409นายปริญญา ประจญยุทธ  มจ3723                       88536099            107107041                               10320014CCSH       0000001000000000                                                                             
D000029006057601827912092011120451นายศรชัย ไศลวงศ์สกุล                              88279291            64315076                                02600066CCSH       0000001918500000                                                                             
D000030006057601827912092011120610นาย วชิระ ตรงดี                                   88589198            59213345                                07937931CCSH       0000001623800000                                                                             
D000031006057601827912092011121051นางสาวจิรัฎฐ์ ศิริกิจจาขจร ทศ7373                 8805-9497           3321-7367                               10150884CCSH       0000001812300000                                                                             
D000032006057601827912092011121436นางทีตา พันลำจันทร์ /Tel.0898818822               88533599            107137960                               03960529CCSH       0000001052200000                                                                             
D000033006057601827912092011123538นาย วีระศักดิ์  อินจันทึก มฉ 5798                 8897-9980           8731-5079                               02590608CCSH       0000002060200000                                                                             
D000034006057601827912092011124310นายชัยกะมน  สุขกำเนิด                             8876-8997           3521-9343                               05760270CCSH       0000001847500000                                                                             
D000035006057601827912092011125717นายมงคล   ปราบภัย                                 88659597            46214352                                05756198CCSH       0000000064300000                                                                             
D000036006057601827912092011125925นายสุจินต์  ทรงขำ                                 8806-9392           1131-8078                               00350711CCSH       0000001016700000                                                                             
D000037006057601827912092011130330นางสาวธาริณี แก้วผลึก ทว5155                      88579096            51215355                                10520393CCSH       0000000132800000                                                                             
D000038006057601827912092011130425นาย สมบูรณ์ ผามั่ง                                88269892            08312065                                00201688CCSH       0000000733300000                                                                             
D000039006057601827912092011130830นายธณานันท์ คุปตะวาทิน ทร 4796                    88288097            67214339                                10270592CCSH       0000001405700000                                                                             
D000040006057601827912092011130926นาย  ถวิล  จำเริญ                                 8838-9490           1421-8344           ทล8441              07990852CCSH       0000001476800000                                                                             
D000041006057601827912092011130932นายทองหล่อ โภคา                                   88599191            21211344                                03970257CCSH       0000001185300000                                                                             
D000042006057601827912092011131037นาย  ถวิล  จำเริญ                                 8887-9891           5121-8350           ทว8105              07990852CCSH       0000001476800000                                                                             
D000043006057601827912092011131148นาย  ถวิล  จำเริญ                                 8807-9090           7321-9357           ทว9377              07990852CCSH       0000001476800000                                                                             
D000044006057601827912092011131258นายจักรพันธ์ ขำเกื้อ                              8828-9793           4921-5344                               01810688CCSH       0000001617900000                                                                             
D000045006057601827912092011131742นายวชิระ บุญศักดิ์ศรี มฉ2750                      88689981            07312075                                10360725CCSH       0000001799200000                                                                             
D000046006057601827912092011132704นายวารี  สืบสายลา                                 8805-9093           3231-1089           มช1293              11470668CCSH       0000001372800000                                                                             
D000047006057601827912092011133104นายภูริณัฐ อดุลนิรัตน์ ทว 566                     8858-8099           6521-0356                               10721605CCSH       0000001918500000                                                                             
D000048006057601827912092011133501นายเผชิญ   โพธิ์ศรี                               88379395            70216350            ทว6007              00611358CCSH       0000001884200000                                                                             
D000049006057601827912092011133509นาย เลิศพร แสนบรรดิษฐ์                            8847-8197           2521-5334                               01950405CCSH       0000001550700000                                                                             
D000050006057601827912092011133719นางมะลิ สุดสอาด                                   88279994            53216350                                08510258CCSH       0000001700000000                                                                             
D000051006057601827912092011133859นางประทวน เขียวแล ทศ 4012                         88869692            20214361                                10371561CCSH       0000001887000000                                                                             
D000052006057601827912092011134530นายรัศเธียร บัวคลี                                88179788            45213350                                01480363CCSH       0000002014400000                                                                             
D000053006057601827912092011134853นายรัศเธียร บัวคลี่                               88169095            39212363                                01480363CCSH       0000001799200000                                                                             
D000054006057601827912092011134917นาย สุวรรณ ปรางทอง                                88269791            66219288                                05760932CCSH       0000000552800000                                                                             
D000055006057601827912092011135036นายชนินทร์ อ่อนใจเอื้อ มฉ2713                     8888-9682           3731-2071                               00660159CCSH       0000001767800000                                                                             
D000056006057601827912092011140650นางฐานิศวร์  นิติธรรมพงศ์                         8828-9983           1521-6347                               00610756CCSH       0000003210000000                                                                             
D000057006057601827912092011141438นาย ธนโชติ พุ่มศิริ                               88468298            83312072                                01900191CCSH       0000001208000000                                                                             
D000058006057601827912092011142003นายดำรงค์ ภูทองขาว ทศ 6123                        8806-8698           3121-6362                               04700190CCSH       0000001839700000                                                                             
D000059006057601827912092011143039นางวารี  วรศิริ                                   88378399            05219359                                00663162CCSH       0000001918500000                                                                             
D000060006057601827912092011143724นายทนง ศรียางวุฒิ                                 88089580            70219344                                01230490CCSH       0000002230000000                                                                             
D000061006057601827912092011144520นายสาคร รีฮุง มฉ4195                              8827-9887           51314079                                09770483CCSH       0000001990000000                                                                             
D000062006057601827912092011144541นายสมาพร  คำใจ                                    8826-8699           0821-1344                               01470418CCSH       0000003627700000                                                                             
D000063006057601827912092011150419นายประยูร  วิเศษนอก                               8876-9190           7721-7355                               11520515CCSH       0000001969200000                                                                             
D000064006057601827912092011150719นายกฤษณะ จันโอ                                    8818-9797           5421-4336           ทร4465              03970649CCSH       0000001596000000                                                                             
D000065006057601827912092011151511นายแพง พงษ์สุกรี                                  88289192            53217340                                09761108CCSH       0000001432600000                                                                             
D000066006057601827912092011151914นาย สมพร  ไกรศรศรี                                88169897            46211364                                08550648CCSH       0000001650000000                                                                             
D000067006057601827912092011152219นายองอาจ มหิทธิโรจน์ ทว6614                       88879784            46216351                                02150700CCSH       0000001194400000                                                                             
D000068006057601827912092011152321นายองอาจ มหิทธิโรจน์ ทว6613                       88979784            36216351                                02150700CCSH       0000001194400000                                                                             
D000069006057601827912092011153233นายวิชัย บุญวัฒน์                                 88969691            66214329                                02540469CCSH       0000001063000000                                                                             
D000070006057601827912092011154726นายกิตติพงศ์  กรศุภอานนท์  ทย 2007                8897-8799           7021-2320                               08510045CCSH       0000001446700000                                                                             
D000071006057601827912092011154811นายกิตติพงศ์  กรศุภอานนท์  ทย 1041                8837-8599           1021-1324                               08510045CCSH       0000001382100000                                                                             
D000072006057601827912092011162859นางกฤษญา แจ้งเพชร ทศ 3343                         88269294            33213364                                10071091CCSH       0000001510600000                                                                             
D000073006057601827912092011163238นายธีรศักดิ์ ตั้งวิรุฬห์รัตน์ ทว4752              88279596            272114355                               10150884CCSH       0000000030000000                                                                             
D000074006057601827912092011164936นางสาวอรวรรณ ศรีสุวรรณเกศ                         88268599            69210333                                09760107CCSH       0000000829300000                                                                             
D000075006057601827912092011173015นางกมลชนก สิงห์เส                                 88533499            106127224                               09760107CCSH       0000002104400000                                                                             
D000076006057601827912092011173931นายสุรินทร์ ชูวงศ์วาน                             88269592            39312058                                07822714CCSH       0000000130000000                                                                             
D000077006057601827912092011183459อดิศร ซอและ                                       8886-9292           6621-7312                               05695691CCSH       0000001580000000                                                                             
D000078006057601827912092011184325นางสาวชิตนะภา ศรีเงินงาม                          8887-8998           8221-8315                               09740485CCSH       0000001550000000                                                                             
D000079006057601827912092011191119นายธีรพงษ์ สมนาม                                  88523899            107136028                               10151005CCSH       0000000490500000                                                                             
T000080006057601827900000000000000000000000114311600000078                                                                                                                                                                                                      
