H0000010060576018279บริษัท ไทเอซ สิสซิ่ง จำกัด              10012012TALHO                                                                                                                                                                                       
D000002006057601827910012012085946นาย  เฉลา   ฉางทรัพย์                             88059398            4217360                                 00611358CCSH       0000001455300000                                                                             
D000003006057601827910012012090439น.ส.อำพร  บุนลอด  ทล 3467                         8819-8397           7421-3346                               04690052CCSH       0000002207500000                                                                             
D000004006057601827910012012091940นายสุวรรณ  อุทสาร                                 88869693            06219327                                02170215CCSH       0000000895600000                                                                             
D000005006057601827910012012093925นายรวมชัย นาคะสถิตย์ ทศ 1146                      8816-9598           6121-1364                               04580699CCSH       0000001275500000                                                                             
D000006006057601827910012012094612นายอำนาจ เจียมเชื่อม ทว 3760                      8817-9797           0721-3356                               02530654CCSH       0000001756700000                                                                             
D000007006057601827910012012095724นายนรชัย แพงศร                                    88698397            64213346                                09760107CCSH       0000001665500000                                                                             
D000008006057601827910012012095805นายนรชัย แพงศร                                    88511299            104123041                               09760107CCSH       0000001994700000                                                                             
D000009006057601827910012012095826นายเพชร เกาะแก้ว                                  88523399            107037867                               00910663CCSH       0000001114600000                                                                             
D000010006057601827910012012101113นายปริญญา  สุพร  ถส  3791                         8886-9593           1720-3389                               04990266CCSH       0000000310500000                                                                             
D000011006057601827910012012101435ประจวบ                                            88769490            60215367                                00530428CCSH       0000001856500000                                                                             
D000012006057601827910012012103433สำรวย มูหะหมัดสะแระ                               88522899            107112791                               01230490CCSH       0000000463500000                                                                             
D000013006057601827910012012103729จสท.อรรณนพ โคตรโสภา ทว.5439                       88079786            94215353                                01784404CCSH       0000001900000000                                                                             
D000014006057601827910012012105140นายสันติ คำคง มค9371                              88059796            13319037                                05750619CCSH       0000000364100000                                                                             
D000015006057601827910012012105500นายวิวัฒน์ ขันติพงษ์ ทว7699                       88479692            96217359                                07930727CCSH       0000000064300000                                                                             
D000016006057601827910012012105658รต.วัยชัย  เกษตรภิบาล                             8818-9298           9921-3345                               00120138CCSH       0000001699800000                                                                             
D000017006057601827910012012111233ร.ท.จักรกฤษณ์  เพียรพิจิตร                        88509982            79217317                                11520515CCSH       0000001020000000                                                                             
D000018006057601827910012012111508อาคม  มังกรทอง                                    8806-9495           9831-3054                               00360791CCSH       0000000621300000                                                                             
D000019006057601827910012012112530นาง นงคราญ คำมอญ  ทว 5279                         88779887            92215357                                04581882CCSH       0000002528300000                                                                             
D000020006057601827910012012112738นายวิชิต เลียงเล็กจำนงค์                          88538099            104119018           ทศ9523              03970649CCSH       0000001922300000                                                                             
D000021006057601827910012012112844จ.ส.อ. ประดิษฐ์  ยุบลนวน                          88189898            06213341                                11250233CCSH       0000001110500000                                                                             
D000022006057601827910012012113022นายบัวลา ทองขาว                                   88059595            65216346                                01210586CCSH       0000001840000000                                                                             
D000023006057601827910012012113142ภนายบัวลา ทองขาว                                  88515799            106124969                               01210586CCSH       0000001716500000                                                                             
D000024006057601827910012012113150โกวิทย์ บุรินทะ                                   88289494            69213346                                07589677CCSH       0000002257700000                                                                             
D000025006057601827910012012113241ไพบูลย์ วิทิตกนกปรีดา                             88768198            67219283                                10520224CCSH       0000000400000000                                                                             
D000026006057601827910012012113438โกวิทย์ บุรินทะ                                   88689191            39217346                                07589677CCSH       0000001700000000                                                                             
D000027006057601827910012012113647นายณรงค์กร ศิริยามัน                              88659896            46217367                                00810345CCSH       0000001501700000                                                                             
D000028006057601827910012012114455นางนฤมล  ลมสูงเนิน ทม 9840                        88869398            08219314                                05701141CCSH       0000001131900000                                                                             
D000029006057601827910012012114529ณัฐพล ทรัพย์เอนก                                  88139598            86215281                                00980981CCSH       0000001108000000                                                                             
D000030006057601827910012012115212นายกังวาน  มุมทอง  ทว 9084                        88779790            40219358                                04690052CCSH       0000001799200000                                                                             
D000031006057601827910012012115322คุณสมนึก สืบพิลัย ทล 5877                         8818-9193           7821-5347                               02260835CCSH       0000000295500000                                                                             
D000032006057601827910012012115413นายสมนึก สืบพิลัย  ทว 7854                        8807-9392           4821-7355                               02260835CCSH       0000000235500000                                                                             
D000033006057601827910012012115542ธนะจิตต์ พึ่งโพธิ์สภ                              88188199            19219346                                08690542CCSH       0000001700000000                                                                             
D000034006057601827910012012122553น.ส. นงนาถ ปัญญา ทล 8617                          88389980            76218341                                01481887CCSH       0000001700000000                                                                             
D000035006057601827910012012123452นายรัชตะ เจาทวิภาต                                8850-8987           6921-5331                               09740387CCSH       0000000447200000                                                                             
D000036006057601827910012012124417นายวินัย จันลา                                    88989892            01216342                                07800434CCSH       0000001935500000                                                                             
D000037006057601827910012012130837นายวชิระ ตรงดี ทล3955                             88589198            59213345                                07930727CCSH       0000001619200000                                                                             
D000038006057601827910012012131019นางสาววิวรรณ  ละม้ายโสม                           88778699            73219358                                02170046CCSH       0000002000000000                                                                             
D000039006057601827910012012132459นายอนุสรณ์ วารีน้อย                               88278299            23210327                                01787080CCSH       0000000165000000                                                                             
D000040006057601827910012012132638นายอนุสรณ์ วารีน้อย                               88178399            34213310                                01787080CCSH       0000000695500000                                                                             
D000041006057601827910012012133111นายถวิล จำเริญ ทว9377                             88079090            73219357                                07990174CCLQ111517500000001400000140003                                                                         
D000042006057601827910012012133645นายถวิล จำเริญ ทว8105                             88879891            51218350                                07990174CCSH       0000001476800000                                                                             
D000043006057601827910012012133751นายถวิล จำเริญ ทว9377                             88079090            73219357                                07990174CCSH       0000001336800000                                                                             
D000044006057601827910012012134531ดนุเดช สายบัว                                     88179395            46314072                                00910902CCSH       0000001950000000                                                                             
D000045006057601827910012012140019นายเชาน์วัศ หล้าสุดตา ทว 5002                     88979196            20215350                                04670492CCSH       0000001776500000                                                                             
D000046006057601827910012012141126นายปริญญา คงคาสุริยฉาย                            88179090            99089403            ชฬ9939              10720144CCSH       0000000000500000                                                                             
D000047006057601827910012012141314น.ส.สุภาณี  ปิ่นรอด                               8816-9398           4908-6217                               01270439CCSH       0000001161000000                                                                             
D000048006057601827910012012142127นายพิเชษฐ เลิศสุรัง ทม5447                        88534699            107011889                               07601138CCSH       0000000567000000                                                                             
D000049006057601827910012012142629นายกิตตินัย ปึงประยูร                             88079198            73213351                                04880760CCSH       0000001983000000                                                                             
D000050006057601827910012012143724นายสมมาด แสงสุขขา ทศ1875                          88669497            58211367                                04950176CCSH       0000001884200000                                                                             
D000051006057601827910012012143825นายสมมาด แสงสุขขา ทว7504                          88579992            45217350                                04950176CCSH       0000001515300000                                                                             
D000052006057601827910012012144423นายสมชาย พินยะเพียน                               88759196            06217366                                01521090CCSH       0000001327900000                                                                             
D000053006057601827910012012144559นาย ธงชัย ปลัดศรี ทว 7446                         8867-9683           64217354                                00161192CCSH       0000000201200000                                                                             
D000054006057601827910012012145029นายชะอ้อน  แหยมประเสริฐ ทร 9448                   8879-9593           8421-9334                               04700012CCSH       0000000034300000                                                                             
D000055006057601827910012012150121นาย ศิลา เกษมโชติพัฒน์                            88668398            70216364                                01980212CCSH       0000001890750000                                                                             
D000056006057601827910012012151345อรวรรณ ศรีสุวรรณเกศ                               88268599            69210333                                09761108CCSH       0000000829300000                                                                             
D000057006057601827910012012153200นางพิราวรรณ์ โคกแก้ว ทศ 988                       775459193           104120797                               00650326CCSH       0000001563500000                                                                             
D000058006057601827910012012155143นายสุรศักดิ์ อินทศร ทล 6058                       8848-8698           8021-6345                               04580699CCSH       0000001833000000                                                                             
D000059006057601827910012012162417นายพงษ์เทพ  จึงตระกูล ทฉ1167                      88537499            107161465                               05701141CCSH       0000001235000000                                                                             
D000060006057601827910012012164002นายจักรพงษ์ สียางนอก                              88668899            54211329                                06900618CCSH       0000001105700000                                                                             
D000061006057601827910012012165015นายเสกสรร นาสวน/ทศ 3713                           8806-9393           3721-3361                               05670826CCSH       0000001194400000                                                                             
D000062006057601827910012012165210นายกิตติศักดิ์ นาสวน/ทษ 1305                      88509199            104121985                               05670826CCSH       0000001330700000                                                                             
D000063006057601827910012012165547นายสรรเสริญ สีธงชัยรุ่งโรจน์ ทย9321               88168499            13219322                                07930727CCSH       0000001051000000                                                                             
D000064006057601827910012012174112นางสาววัชรี เพิ่มพูลสวัสดิ์                       88583998            106138684                               05970554CCSH       0000001167500000                                                                             
D000065006057601827910012012181125นายจักรพันธ์  ขำเกื้อ ทล 5944                     88289793            49215344                                05701141CCSH       0000001617900000                                                                             
D000066006057601827910012012181149นายวันชัย  แจ้งเปลี่ยน ทย 9648                    88514299            107119990                               04670988CCSH       0000001603300000                                                                             
D000067006057601827910012012183614นาง สุภาพร  เดชวรรณ  ทว 7742                      8807-9692           2721-7354                               05690088CCSH       0000002223600000                                                                             
D000068006057601827910012012192156นายวชิระ   บุญศักดิ์ศรี  มฉ 2750                  8868-9981           0731-2075                               04670063CCSH       0000001895700000                                                                             
T000069006057601827900000000000000000000000086370750000067                                                                                                                                                                                                      
