H0000010060576018279บริษัท ไทเอซ สิสซิ่ง จำกัด              05012012TALHO                                                                                                                                                                                       
D000002006057601827905012012083509นายภานุพงค์ จรมณี                                 8878-9394           2921-8316           ทม 8962             00570712CCSH       0000001745400000                                                                             
D000003006057601827905012012083624นายวิชาญ พรมย่อง มช927                            88547399            106197851           0814499356          01970387CCSH       0000001733100000                                                                             
D000004006057601827905012012083844นายเพชร สูตรอุดม ทย 4908                          88659297            89214320                                04731091CCSH       0000001287300000                                                                             
D000005006057601827905012012092602ด.ต.พงษ์ธวัช รอดหิรัญ ญส4131                      88595898            030111381                               01810438CCSH       0000000624200000                                                                             
D000006006057601827905012012093428นาย จิตตกร โกษากุล ทศ4196                         88369392            61214369                                01770677CCSH       0000002000000000                                                                             
D000007006057601827905012012094852อนุ สุริยะ                                        88069596            02211340                                02540078CCSH       0000001780600000                                                                             
D000008006057601827905012012100001นาย สุนทร วันตาแสง ทร5784                         88279390            47215338                                07580556CCSH       0000000511400000                                                                             
D000009006057601827905012012100241นายวิน แซ่วี                                      88524699            104120696                               00240918CCSH       0000001867300000                                                                             
D000010006057601827905012012101253นายสมาน เดชะบุญ ทม 7422                           8875-9993           2421-7312                               04580699CCSH       0000001105700000                                                                             
D000011006057601827905012012101427ณัฐฐาภรณ์ มีชัย                                   88369896            31212366                                10130550CCSH       0000002090000000                                                                             
D000012006057601827905012012101707ทวีป คงชนะ                                        88969597            66213339                                06991739CCSH       0000000867800000                                                                             
D000013006057601827905012012102913พ.ต.ท.จิตติณัติ  รักชาติ  ทศ9993                  88525599            104119885           0868844411          11300791CCSH       0000002463100000                                                                             
D000014006057601827905012012104340นางสาววาสนา สันติสุขสถาพร                         88688297            74212355                                02602931CCSH       0000001481000000                                                                             
D000015006057601827905012012105105นายสมประสงค์  ยูพานิช                             8827-9794           7421-6353                               04950191CCSH       0000001787700000                                                                             
D000016006057601827905012012105643นายชาตรี อินทรศักดิ์                              88289297            35214347                                10320864CCSH       0000001665500000                                                                             
D000017006057601827905012012105840นายสมนึก ทองอ่ำ ทศ 3621                           8866-9393           1621-3362           0874786020          02173494CCSH       0000001799200000                                                                             
D000018006057601827905012012110218นายรวมชัย นาคะสถิตย์ ทศ1146                       88169598            61211364                                04881100CCSH       0000001587900000                                                                             
D000019006057601827905012012110537นางประไพวรรณ หวานเย็น                             8857-9983           7321-7351                               00210342CCSH       0000001700000000                                                                             
D000020006057601827905012012110628นางประไพวรรณ หวานเย็น                             8827-9397           7921-3358                               00210342CCSH       0000001700000000                                                                             
D000021006057601827905012012111237นายนิพนธ์ การบรรจง                                88506899            107130545                               10012795CCSH       0000001456400000                                                                             
D000022006057601827905012012111935ปรัญชัย สาชิต มฉ4442                              88779786            24314074                                00980134CCSH       0000001734300000                                                                             
D000023006057601827905012012112206นายสงกรานต์ แก้วกงพาน                             8837-9291           1321-8359                               04030634CCSH       0000001890000000                                                                             
D000024006057601827905012012112633นายพรชัย เมตุลา                                   88588297            04313064                                01840202CCSH       0000000200000000                                                                             
D000025006057601827905012012112741นางจำเนียร ปรีชา                                  8875-9597           6321-7366           ทศ 7366             08510518CCSH       0000001839700000                                                                             
D000026006057601827905012012113131CHANADOL NATAM                                    88579486            64213328                                08518511CCSH       0000001156800000                                                                             
D000027006057601827905012012113221นาย นพดล  โคตา                                    8859-8297           7421-1338                               00397779CCSH       0000001451700000                                                                             
D000028006057601827905012012113257นายประเสริฐ แออ่วม                                88669592            04217312                                01480363CCSH       0000001414000000                                                                             
D000029006057601827905012012113505นายประเสริฐ แออ่วม                                88169791            59210321                                01480363CCSH       0000001495000000                                                                             
D000030006057601827905012012113819นพพร รักษาคุณ                                     88459994            17311074                                02602931CCSH       0000000005000000                                                                             
D000031006057601827905012012113837นายพงษ์ศักดิ์ บุญมา                               88969197            48211367                                06118691CCSH       0000001982500000                                                                             
D000032006057601827905012012113901นายบัวลา  ทองขาว  ทศ2832                          88517799            106168881                               01215368CCSH       0000001925500000                                                                             
D000033006057601827905012012114345นายยงยุทธ เมฆยงค์ ทร3795                          88579786            57213339                                08691092CCSH       0000001583600000                                                                             
D000034006057601827905012012115245นายจงศักดิ์ ไชยธานี มฉ9636                        8885-9698           6631-9073                               10373543CCSH       0000001542700000                                                                             
D000035006057601827905012012115306นายสรายุทธ บัวบัณฑิต ทล 4909                      8818-9396           9921-4340                               05670406CCSH       0000002000000000                                                                             
D000036006057601827905012012121424เสริมศิลป์ โพนาคา มฉ 3240                         8858-8199           0231-3074                               11320523CCSH       0000001700000000                                                                             
D000037006057601827905012012121534นายดอเลาะ  มูเนาวาเราะห์                          88087497            0021-5340                               00120138CCSH       0000001494000000                                                                             
D000038006057601827905012012121640นายทองดี วงษ์จักษุ                                88513789            107153172                               04990497CCSH       0000001159200000                                                                             
D000039006057601827905012012122217นายอำนาจ  กฤษณะเศรณี ทศ 2546                      88569986            65212364                                10720208CCSH       0000001515300000                                                                             
D000040006057601827905012012122316นายอำนาจ  กฤษณะเศรณี ทษ 745                       88514789            104122466                               10720208CCSH       0000001689400000                                                                             
D000041006057601827905012012122842นายไขแสง แสงโสฬส                                  88479797            58216320                                08450038CCSH       0000001091800000                                                                             
D000042006057601827905012012123319นางสุดาทิพย์  เอี่ยมอิทธิฤทธิ์ ทษ35               88521599            104119718                               09760540COTH       0000002057300000                                                                             
D000043006057601827905012012123321นายกิตติศักดิ์ ธรรมรัตน์ศิวะ มง7365               8806-8998           5331-7056                               10130715CCSH       0000000995100000                                                                             
D000044006057601827905012012123753อัสเราะมะห์ ปานมณี                                88859894            17219330                                04607752CCSH       0000000773400000                                                                             
D000045006057601827905012012123858ศุภกร วิเศษธนาดุล                                 88508899            107104674                               10270271CCSH       0000000638500000                                                                             
D000046006057601827905012012124104นาย อนันท์ ทับทิม     ทร1004                      8845-9695           4021-1330                               02250021CCSH       0000001000000000                                                                             
D000047006057601827905012012124111นายสังทอง มูลเมืองแสน                             88979587            60215350            ทว5006              08510518CCSH       0000001501500000                                                                             
D000048006057601827905012012125429ว่าที่ ร.ต.บุญส่ง สุขทิพย์กิจ                     88533399            104119058                               00120152CCSH       0000000524500000                                                                             
D000049006057601827905012012134302นายทรงศักดิ์ เผือกแห้ว                            88968697            19213365                                00281171CCSH       0000001914300000                                                                             
D000050006057601827905012012134523นายสุรศักดิ์  อินทศร  ทว5936                      8867-9495           6921-5353                               04585612CCSH       0000002080300000                                                                             
D000051006057601827905012012134637นายสุรศักดิ์  อินทศร   ทล 6058                    8848-8698           8021-6345                               04585612CCSH       0000000030000000                                                                             
D000052006057601827905012012134735นายสุรศักดิ์  อินทศร  ทว 1327                     8836-9290           7321-1352                               04585612CCSH       0000002065500000                                                                             
D000053006057601827905012012134858สรณีย์                                            88523799            107059702                               00530428CCSH       0000001264800000                                                                             
D000054006057601827905012012135951ด.ต.ถนอม ไพจิตร                                   88259897            30316067                                00390143CCSH       0000003486800000                                                                             
D000055006057601827905012012140334ทองอาน ประดิษฐ์                                   8895-9796           3521-7329           ทย7593              11730509CCSH       0000001400000000                                                                             
D000056006057601827905012012140339นายถวิล  สุขโข มฉ 2568                            88504899            106121361                               00820726CCSH       0000001697800000                                                                             
D000057006057601827905012012141033นายชัยรัตน์ พัฒนจันทร์ มง3181                     88369190            11313058                                10150069CCSH       0000000544300000                                                                             
D000058006057601827905012012141831ยงยุทธ์ สึกชัย                                    88688299            12313072                                01880688CCSH       0000001908800000                                                                             
D000059006057601827905012012141852เกริกเกียรติ มะลิโพธิ์ทอง                         88534399            104117514                               00101356CCSH       0000001575400000                                                                             
D000060006057601827905012012143827นายอนุรักษ์  รักษาศิริ                            88968597            84216365            089-0027317         04600142CCSH       0000001874000000                                                                             
D000061006057601827905012012144136นายสมชาย  ณรงค์ศักดิ์                             8897-8399           2221-2348                               10720208CCSH       0000001553700000                                                                             
D000062006057601827905012012144416นายสุนันท์  วิเศษเนตร ทร 6128                     88559895            81216332                                01730895CCSH       0000000868900000                                                                             
D000063006057601827905012012144641นายมัน พรมนิมิตร                                  88488999            81313073                                00841716CCSH       0000000740000000                                                                             
D000064006057601827905012012145528นาย ธรรมโรจน์ ศรีบุญเลิศ                          88879786            84314071                                07690734CCSH       0000001356900000                                                                             
D000065006057601827905012012145554นาย พิทักษ์ วุฒิสุรัตน์ ทล6573                    88789193            35216347                                01980212CCSH       0000001734300000                                                                             
D000066006057601827905012012150912นายทรงชัย ลายลวดแก้ว ทศ1122                       88878097            21211362                                04731091CCSH       0000001918500000                                                                             
D000067006057601827905012012151114นส.สุภาภรณ์  อำนาจเจริญยิ่ง                       88579394            54216353                                01307047CCSH       0000001884200000                                                                             
D000068006057601827905012012151917นายก้องการุณ                                      88599598            104126398                               00740081CCSH       0000002133100000                                                                             
D000069006057601827905012012152321สมชาย ศรีพลัง                                     88669787            10213313                                00355794CCSH       0000000701500000                                                                             
D000070006057601827905012012153147เรืองเดช  ภิญโญยิ่ง                               88359396            79217368            0814827778          04600142CCSH       0000001920000000                                                                             
D000071006057601827905012012153332นาย วิทยา  แซ่จึง                                 8837-9886           2121-5356                               00650498CCSH       0000002186900000                                                                             
D000072006057601827905012012153621นาย ทองใบ  ดีวัน                                  88379394            56218317                                08550648CCSH       0000001710000000                                                                             
D000073006057601827905012012154658นางพิไลวรรณ ทองดี                                 88869196            16212363                                00490656CCSH       0000001515300000                                                                             
D000074006057601827905012012155007นายกิจจา  คลังเพ็ชร  มง8290                       88568398            02318059                                05701141CCSH       0000000631700000                                                                             
D000075006057601827905012012165156นางนัทธดา สุขประเสริฐ มฉ 2103                     88089193            31312070                                10071091CCSH       0000001418700000                                                                             
D000076006057601827905012012165431นางนัทธดา สุขประเสริฐ มฉ 2103                     88089193            31312070                                10071091CCSH       0000000167000000                                                                             
D000077006057601827905012012173043นายสมสุข  ชูกิจรุ่งทรัพย์                         88359498            50217360                                11810176CCSH       0000001948200000                                                                             
D000078006057601827905012012180137นายเถกิงเดช พุกพิบูลย์                            88188397            37313072                                09620092CCSH       0000001884200000                                                                             
D000079006057601827905012012185215นายศุภชัย  วงษ์หมั่น                              88580898            104126289                               04700190CCSH       0000002117800000                                                                             
T000080006057601827900000000000000000000000115847300000078                                                                                                                                                                                                      
