H0000010060576018279บริษัท ไทเอซ สิสซิ่ง จำกัด              03112011TALHO                                                                                                                                                                                       
D000002006057601827903112011083404นายชาติชาย เกษตร้อี่ยม ทล4880                     88389596            08214348                                07601301CCSH       0000001707600000                                                                             
D000003006057601827903112011084413สุวรรณา  ชาญศรี                                   8888-9991           7021-7345                               02840981CCSH       0000001760000000                                                                             
D000004006057601827903112011090057สำรวย  มูหะหมัดสะแระ                              88522899            107112791           ทย7987              01472126CCSH       0000000461500000                                                                             
D000005006057601827903112011090721นายทวี  เหล็กเพ็ชร                                88524499            107063302           ทม 3579             00740180CCSH       0000001495700000                                                                             
D000006006057601827903112011091117นายวิทสุวัฒน์ โสวิบูรณ์                           8896-9792           8621-0369           ทศ 698              00820884CCSH       0000001883200000                                                                             
D000007006057601827903112011091925นางจรรยา อินทศร ทว 7014                           88069892            40217351                                04580699CCSH       0000002096000000                                                                             
D000008006057601827903112011094901นายไพรัช เข็มหนู                                  88679295            00216355                                01610661CCSH       0000000235500000                                                                             
D000009006057601827903112011100546น.ส.ธนิก มนูลักษณ์                                88589495            77311071                                00590183CCSH       0000000235500000                                                                             
D000010006057601827903112011101653JUMNIEN  P.                                       88759597            63217366                                08510239CCSH       0000001839700000                                                                             
D000011006057601827903112011102601นางขวัญใจ กระจ่างโพธิ์ ทม3166                     8828-9796           6121-3316                               04650665CCSH       0000000030000000                                                                             
D000012006057601827903112011103418THAMRONGYOT M.                                    88859997            84311061                                08510239CCSH       0000000030000000                                                                             
D000013006057601827903112011104733นายปรีชา มุนนี                                    88517789            106009685                               01291172CCSH       0000000754600000                                                                             
D000014006057601827903112011105424นายประจัญชัย อัฒจักร                              88169992            87313059                                01761687CCSH       0000000718700000                                                                             
D000015006057601827903112011110551ธนพัต คุ้มวงษ์                                    88678797            23316074                                07660694CCSH       0000001773000000                                                                             
D000016006057601827903112011111822นายธีระชาย  แสงสุวรรณ                             8858-9292           4521-6342                               07620776CCSH       0000001734300000                                                                             
D000017006057601827903112011111900นายทศพล ดวงมาลี                                   88488998            63313075                                07990501CCSH       0000000610000000                                                                             
D000018006057601827903112011112449นายพิชยนต์  เปี่ยมทอง ทม1291                      8856-9991           1221-1319                               01770569CCSH       0000001349200000                                                                             
D000019006057601827903112011112739น.ส.ภัทรลภา โคตรสมบัติ  มจ1615                    8857-9397           5631-1061                               02250511CCSH       0000000989800000                                                                             
D000020006057601827903112011113550นายทัตพล                                          88879897            52217349                                10660506CCSH       0000001187700000                                                                             
D000021006057601827903112011113551นายวัฒนศักดิ์  ศรีบรบือ ทล9177                    8896-8699           7121-9347                               02890634CCSH       0000000400000000                                                                             
D000022006057601827903112011114232นาย วีระศักดิ์ อินจันทึก มฉ5798                   88979980            87315079                                02590600CCSH       0000001884200000                                                                             
D000023006057601827903112011114632นางกาญจนา ด่านวิริยะกุล                           88989297            35214329                                02564581CCSH       0000001602500000                                                                             
D000024006057601827903112011120531ร.อ.รัฐธีร์ น้อยนิตย์                             88389392            24216347                                07020466CCSH       0000001377800000                                                                             
D000025006057601827903112011121635นะรินทร์  แก้วงาม                                 77579990            46315073                                07990174CCSH       0000002000000000                                                                             
D000026006057601827903112011121716นายวิชัย ปุสารัมย์  ทศ7982                        88959196            29217368                                08000757CCSH       0000001519900000                                                                             
D000027006057601827903112011122224คุณสุชาดา ไทยแท้ ทษ 800                           88512099            106202782                               04710654CCSH       0000002046200000                                                                             
D000028006057601827903112011122806นายชัยวัฒน์ อ่อนอก                                88879096            59319035            มค 9955             04690188CCSH       0000000419000000                                                                             
D000029006057601827903112011123743น.ส.สุภาภรณ์ อำนาจเจริญยิ่ง ทว 6435               8857-9394           5421-6363                               01300249CCSH       0000001884200000                                                                             
D000030006057601827903112011124233นายสมนึก ทองอ่ำ ทศ3621                            88669393            16213362            0874786020          02173494CCSH       0000001799200000                                                                             
D000031006057601827903112011124807นายวิชัย บุญรัตน์                                 88969691            66214329                                05761504CCSH       0000001552000000                                                                             
D000032006057601827903112011125356นายอภิรัตน์ ภู่ศิริ ทย2404                        88179295            44212320                                01761687CCSH       0000000671300000                                                                             
D000033006057601827903112011125443นายศิริชัย จุลแดง  ทล362                          88559195            23210346                                04830677CCSH       0000001216300000                                                                             
D000034006057601827903112011125918นาย วัชรินทร์ จงดูกลาง                            88869295            66214312                                03830197CCSH       0000000853300000                                                                             
D000035006057601827903112011130213นายอัครเดช ขันคำ                                  88479982            52315078            089-2042067         08207413CCSH       0000001799200000                                                                             
D000036006057601827903112011131211นายธนพงษ์ เครือวณิชธรรม ทม4468                    88857897            84214316                                10150069CCSH       0000002183400000                                                                             
D000037006057601827903112011131550นาย วัชรินทร์ จงดูกลาง                            88869295            66214312                                03830197CCSH       0000000137000000                                                                             
D000038006057601827903112011131751นางสาวเกษศิรินทร์ ดวงอุปปา                        8837-9781           0421-5320                               06020716CCSH       0000000829300000                                                                             
D000039006057601827903112011132133นายประภักตร์  พรหมหอม มฉ3487                      8848-8198           7431-3078                               04600072CCSH       0000001725700000                                                                             
D000040006057601827903112011132830ปัทมา ทรัพย์กลิ่น                                 88979491            44315073                                05695691CCSH       0000001833900000                                                                             
D000041006057601827903112011133409นายพิทักษ์  วุฒิสุรัตน์  ทล6573                   88789193            35216347                                00330234CCSH       0000001734300000                                                                             
D000042006057601827903112011134852นางอัสเราะมะห์  ปานมณี ทร9701                     8885-9894           1721-9330                               04600072CCSH       0000000741300000                                                                             
D000043006057601827903112011141021นางเข็มทอง  สงเคราะห์                             88769897            05211362            085-1206125         04600142CCSH       0000001515300000                                                                             
D000044006057601827903112011141421คุณพิภพ ใจยอด                                     88889797            12214326            0869091001          11480752CCSH       0000001484700000                                                                             
D000045006057601827903112011142119วัลลพ กันหอม ทร 6271                              8805-9986           1221-6337                               02540469CCSH       0000001119800000                                                                             
D000046006057601827903112011142646นายกิจจา คลังเพ็ชร                                88568398            02318059                                02610551CCSH       0000000630200000                                                                             
D000047006057601827903112011144026นางอารมณ์ ทองสงค์                                 88198797            51213340                                01231109CCSH       0000001665500000                                                                             
D000048006057601827903112011145833น.ส.พนิดา แสงรัมย์ ทศ8069                         88259096            90218366                                03960529CCSH       0000001519900000                                                                             
D000049006057601827903112011145918นาย ทรงชัย ลายลวดแก้ว ทศ1122                      88878097            21211362                                04730614CCSH       0000001918500000                                                                             
D000050006057601827903112011154005นายสมบัติ วงษ์เดอรี ทย5011                        88669691            10215321                                01951095CCSH       0000001154600000                                                                             
D000051006057601827903112011154449นาย พิเชษฐ นาคพน                                  88503399            107161265                               01950405CCSH       0000001333000000                                                                             
D000052006057601827903112011154538อรุณ พงษ์ภักดี                                    88889191            01219280                                09620581CCSH       0000001705600000                                                                             
D000053006057601827903112011155044วรรณภา  เจริญอินทร์                               8826-9690           1221-5361                               07990174CCSH       0000003241900000                                                                             
D000054006057601827903112011160121พ.อ.อ.สมนาม อ่วมประสิทธิ์ ทศ3177                  88669894            71213367                                07930727CCSH       0000001885000000                                                                             
D000055006057601827903112011160348นายอุเทน เพชร์ทอง                                 88268298            80216368            ทศ 6088             04880760CCSH       0000001839700000                                                                             
D000056006057601827903112011160514น.ส.วิยะดา ยิ่งยงค์                               88669693            35213360            ทศ 3503             04880760CCSH       0000001799200000                                                                             
D000057006057601827903112011163456นายธวัชชัย ปัญญาอุทัย ทร 8405                     8809-9495           5421-8330                               10154549CCSH       0000000826200000                                                                             
D000058006057601827903112011171559อุดร สังกระธาตุ                                   88188499            09219347                                04700261CCSH       0000001732100000                                                                             
D000059006057601827903112011182312นายสมพงษ์ ติคำ                                    88503099            000025503                               10720571CCSH       0000001508500000                                                                             
T000060006057601827900000000000000000000000077981700000058                                                                                                                                                                                                      
