H0000010060576018279บริษัท ไทเอซ สิสซิ่ง จำกัด              05032012TALHO                                                                                                                                                                                       
D000002006057601827905032012083044นางสาวอุดมรักษ์ ขอนสี ทศ172                       88378198            21210367                                00820726CCSH       0000001918500000                                                                             
D000003006057601827905032012085229นายวสันติชัย แบนจาด                               8828-9396           3921-4343                               01800625CCSH       0000001665500000                                                                             
D000004006057601827905032012085830อนิวรรตน์ ไชกองชา                                 88178398            61316078                                00771064CCSH       0000001884200000                                                                             
D000005006057601827905032012090826นายธนชัย วุฒิยา มฉ3358                            88188889            83313075                                07601138CCSH       0000001914200000                                                                             
D000006006057601827905032012091057นายสมาน ปัญญาดี                                   88574998            107034255                               00771132CCSH       0000000579600000                                                                             
D000007006057601827905032012091909สมเดช แสงสิน                                      88189497            25214342                                10270539CCSH       0000001700000000                                                                             
D000008006057601827905032012092725นายวิชาญ พรมย่อง มช 927                           8875-9394           7931-0082                               01971063CCSH       0000001733100000                                                                             
D000009006057601827905032012094338นายสะเอื้อน คชวงศ์                                88506799            204012001                               01760698CCSH       0000000869400000                                                                             
D000010006057601827905032012095258นายพิทักษ์ วุฒิสุรัตน์                            88789193            35216347                                01981505CCSH       0000001734300000                                                                             
D000011006057601827905032012095759นายจงศักดิ์ ไชยธานี                               88859698            66319073                                12000765CCSH       0000001470500000                                                                             
D000012006057601827905032012100117นายเฉลา ศรีนาค มจ.2581                            88669594            15312068                                01835039CCSH       0000000966100000                                                                             
D000013006057601827905032012100657ธีระศักดิ์  สุประภากร                             88489882            60217342                                00981066CCSH       0000001700000000                                                                             
D000014006057601827905032012101525นางสาวกนิษฐา อินฉาย ทม 7045                       88571798            107080859                               01760698CCSH       0000000465000000                                                                             
D000015006057601827905032012102113นายสุวรรณ ตรีเหรา                                 88659898            31315061                                00190024CCSH       0000000300200000                                                                             
D000016006057601827905032012103623นางกาญจนา ด่านวิริยะกุล                           88989297            35214329                                02560706CCSH       0000001599000000                                                                             
D000017006057601827905032012103851นายอนุ สิริยะ                                     88069596            02211340                                02540078CCSH       0000001750000000                                                                             
D000018006057601827905032012104914นางสมพร อินทะแสง  ทว 3088                         88979398            80213358                                02590096CCSH       0000001700000000                                                                             
D000019006057601827905032012105056นายจุมพล  เหมือนจีน ทศ 686                        88268597            66210368                                09760114CCSH       0000001060000000                                                                             
D000020006057601827905032012105717นาย ทศพล ผาช้างเผือก                              88669296            80314078                                08450262CCSH       0000001649600000                                                                             
D000021006057601827905032012105857นาย ทศพล ผาช้างเผือก                              88669296            80314078                                08450262CCSH       0000001649600000                                                                             
D000022006057601827905032012110010นาย ทศพล ผาช้างเผือก                              88169296            45212362                                08450262CCSH       0000001884200000                                                                             
D000023006057601827905032012110116นาย ทศพล ผาช้างเผือก                              88169296            45212362                                08450262CCSH       0000001884200000                                                                             
D000024006057601827905032012110218นาย ทศพล ผาช้างเผือก                              88169296            45212362                                08450262CCSH       0000001884200000                                                                             
D000025006057601827905032012110929นาย ปรีชา หงส์ทอง  ทศ 5836                        88568698            68215363                                04581882CCSH       0000001890800000                                                                             
D000026006057601827905032012111026นางเสน่ห์ อินสุ                                   88779690            47218358            ทว 8784             01902940CCSH       0000000030000000                                                                             
D000027006057601827905032012111418นางสาว ศิริกานดา  ทานุรัตน์                       8856-9987           6921-1365           ทศ 1956             02260178CCSH       0000001799200000                                                                             
D000028006057601827905032012112220นายสมพร  หนูขวัญ                                  88289391            03217345                                03970257CCSH       0000001833500000                                                                             
D000029006057601827905032012112246อนันต์  สิงห์น้อย  ทว3038                         8817-9398           8021-3353                               04950191CCLQ987312500000034000000650013                                                                         
D000030006057601827905032012112715นายเสน่ห์ ขาวสวัสดิ์   ทร7423                     88369698            34217332                                10320156CCSH       0000000788000000                                                                             
D000031006057601827905032012113224นาย สุรศักดิ์ อินทศร ทล 2720                      88998498            07212342                                08450242CCSH       0000001193000000                                                                             
D000032006057601827905032012113615นายสาโรจน์ สอดศรี ทร-3400                         8860-9990           0421-3330                               08450038CCSH       0000000329700000                                                                             
D000033006057601827905032012114033นายนิคม อยู่สุข ทษ2085                            0198187994698       106120289                               06830558CCSH       0000001715600000                                                                             
D000034006057601827905032012114204นาย ภานุพงค์ จรมณี ทม8962                         88789394            29218316                                05700914CCSH       0000001743000000                                                                             
D000035006057601827905032012114355นางประไพวรรณ  หวานเย็น                            8857-9591           5321-8352                               00210676CCSH       0000001700000000                                                                             
D000036006057601827905032012114530นางประไพวรรณ หวานเย็น                             8825-9798           1721-6364                               00210676CCSH       0000001839700000                                                                             
D000037006057601827905032012114857น.ส.นุชนารถ แจ่มศุภพันธ์ ทล 9549                  88167097            95219344                                04581830CCSH       0000000989800000                                                                             
D000038006057601827905032012115119นายพงษ์ศักดิ์ บริบูรณ์ ทล7467                     88189391            74217346                                04581830CCSH       0000001787500000                                                                             
D000039006057601827905032012115532นางสุมาลี สังข์ทอง                                88279587            85214356                                07660755CCSH       0000000315500000                                                                             
D000040006057601827905032012115844นางสุดาทิพย์ เอี่ยมอิทธิฤทธิ์                     88521599            104119718                               09761108CCSH       0000002057300000                                                                             
D000041006057601827905032012115947เพียร                                             88279296            03314075                                02542373CCSH       0000001880000000                                                                             
D000042006057601827905032012120948นายชาญศักดิ์  สาระ                                88069994            30315050                                05756198CCSH       0000000701500000                                                                             
D000043006057601827905032012121346นาย ธีรพงษ์  นันทะทอง  ทล  4993                   88598398            107030406                               03970523CCSH       0000000870000000                                                                             
D000044006057601827905032012121441นายอนุสรณ์ วารีน้อย ทม 5553                       8826-9394           3521-5315                               00910663CCSH       0000001495700000                                                                             
D000045006057601827905032012122919ภัสรา เรศสุข                                      8867-8298           6221-0362           ทศ226               11811811CCSH       0000001867500000                                                                             
D000046006057601827905032012123109นายสานิตย์ ศรีม่วง                                8876-7997           0421-4312                               01450520CCSH       0000001451700000                                                                             
D000047006057601827905032012123134สงกรานต์ แก้วกงพาน                                88379291            13218359                                00243844CCSH       0000001924000000                                                                             
D000048006057601827905032012123140นายชาลี บุญไชย                                    88575698            106204024                               04660883CCSH       0000001883800000                                                                             
D000049006057601827905032012123239นายบุญมี จันทร์กอง ทล8809                         8898-9190           9821-8340                               01971063CCSH       0000001700000000                                                                             
D000050006057601827905032012123300นางสาวคำบู่ โคระนำ                                8827-9497           5021-4351                               05700127CCSH       0000001799200000                                                                             
D000051006057601827905032012123450อรวรรณ                                            88359995            33218367                                02610551CCSH       0000001881100000                                                                             
D000052006057601827905032012123548นางสาวปนันดา สาระวัน ทว5166                       88879886            61215356                                07601138CCSH       0000002579400000                                                                             
D000053006057601827905032012124238นางนพชนก  มิศกะเสวตร์                             88259397            97351019                                00600804CCSH       0000000850000000                                                                             
D000054006057601827905032012124424นาย บัวลา ทองขาว ทล 6566                          8805-9595           6521-6346                               01211627CCSH       0000001840000000                                                                             
D000055006057601827905032012124625พ.อ.อ.สมนาม อ่วมประสิทธิ์                         88669894            71213367                                07930727CCSH       0000001885000000                                                                             
D000056006057601827905032012125640ว่าที่รต. บุญส่ง สุขทิพย์กิจ                      88533399            104119058                               00120277CCSH       0000000524500000                                                                             
D000057006057601827905032012125659นายวรภพ งะบัว                                     88269096            31212333                                00146671CCSH       0000001517700000                                                                             
D000058006057601827905032012125937นายอนุชา สอนเสนา ทล 5630                          8898-9983           0621-5343                               07650577CCSH       0000001567200000                                                                             
D000059006057601827905032012130119นายอำนาจ เจียมเชื่อม ทว3760                       88179797            07213356                                02530554CCSH       0000001756700000                                                                             
D000060006057601827905032012130245นายอำนาจ เจียมเชื่อม ทศ6549                       88568497            95216364                                02530554CCSH       0000001856500000                                                                             
D000061006057601827905032012130357นายอำนาจ เจียมเชื่อม ทศ 2094                      88669596            40212369                                02530554CCSH       0000001884200000                                                                             
D000062006057601827905032012130517นายอำนาจ เจียมเชื่อม ทศ2094                       88669596            40212369                                02530554CCSH       0000001124500000                                                                             
D000063006057601827905032012131926บัวลอย                                            88868399            78212325                                02542373CCSH       0000001321000000                                                                             
D000064006057601827905032012132911นายเชาว์ พินยะเพียน ทว 5005                       8857-9986           5021-5350                               11240096CCSH       0000000132800000                                                                             
D000065006057601827905032012133100นายอธิคม เรืองฤทธิ์                               88570898            106204687                               00951079CCSH       0000002117100000                                                                             
D000066006057601827905032012134801นางสาว วรรณา  บุญประเสริฐ                         88589798            104126293                               09710928CCSH       0000001867300000                                                                             
D000067006057601827905032012135914นายสมรภูมิ กุลสุวรรณ์  มง7695                     88769294            56317059                                08560792CCSH       0000000358000000                                                                             
D000068006057601827905032012135925คุณประกอบ                                         88869895            86313050                                10120558CCSH       0000000833500000                                                                             
D000069006057601827905032012142033น.ส.รัชนีกร วรปัญญา ทศ2832                        88569395            28212363                                11734224CCSH       0000000400000000                                                                             
D000070006057601827905032012142849นายสุรศักดิ์ วิเศษปัดสา                           88528999            107094818                               02564581CCSH       0000001570000000                                                                             
D000071006057601827905032012143349นายพงษ์ศักดิ์ บุญมา                               88969197            48211367                                11311311CCSH       0000001976000000                                                                             
D000072006057601827905032012143835นางจิราพร ทองร่มโพธิ์ ทว 7299                     88979492            92217359                                01890658CCSH       0000001500000000                                                                             
D000073006057601827905032012143958นางจิราพร ทองร่มโพธิ์ ทว 9919                     88078698            99219351                                01890658CCSH       0000001680000000                                                                             
D000074006057601827905032012144410นายธีระชาย แสงสุวรรณ                              88589292            45216342                                04680722CCSH       0000001734300000                                                                             
D000075006057601827905032012145317นายสหรัถ ส่งเสียงหล้า                             88759995            81281399                                01521090CCSH       0000000824500000                                                                             
D000076006057601827905032012150604นายชาตรี  ขุนติเศษ                                88769493            66213361                                10710048CCSH       0000001617900000                                                                             
D000077006057601827905032012150752ปรัญชัย  สาชิต                                    88779786            24314074                                00981066CCSH       0000001734300000                                                                             
D000078006057601827905032012151659นายนภดล  เจตรุ่งพันธุ์  ทว 8394                   8867-9391           4321-8359                               08510045CCSH       0000001799200000                                                                             
D000079006057601827905032012151722มงคล หลักทอง                                      88279881            00315061                                00141060CCSH       0000000627000000                                                                             
D000080006057601827905032012152348นายภัทรศักดิ์ แก่นโกมล                            8806-8199           6821-0328                               02540078CCSH       0000001437200000                                                                             
D000081006057601827905032012153059นายวิระพันธ์  วงษสนธ์                             88576698            107120662                               08510045CCSH       0000001334000000                                                                             
D000082006057601827905032012153340นายสมบูรณ์   เพิ่มพูน                             88574698            104127259                               00610756CCSH       0000001942700000                                                                             
D000083006057601827905032012153618นายเชิดชัย  ลำใย  ทม 4239                         88969190            92214313                                04670086CCSH       0000000869600000                                                                             
D000084006057601827905032012153733นาย กิตติศักดิ์ ธรรมรัตน์ศิวะ                     88068998            53317056                                10130207CCSH       0000001014000000                                                                             
D000085006057601827905032012154424นางสาวพวงเพ็ญ ศิริพละ  ทว 3143                    88579398            21213354                                04581882CCSH       0000002116700000                                                                             
D000086006057601827905032012154524นางสาวพวงเพ็ญ ศิริพละ  ทว 31432                   88679398            21213354                                04581882CCSH       0000002116700000                                                                             
D000087006057601827905032012154620นางสาวพวงเพ็ญ ศิริพละ  ทว 3144                    88479398            41213354                                04581882CCSH       0000002116700000                                                                             
D000088006057601827905032012154855นรชัย แพงศร                                       88511299            104123041                               09761108CCSH       0000001994700000                                                                             
D000089006057601827905032012162956นาย ไขแสง แสงโสฬส ทย 6805                         88479797            58216320                                08450242CCSH       0000001021800000                                                                             
D000090006057601827905032012164344นายสรายุทธ บัวบัณฑิต ทล4909                       88189396            99214340                                09769761CCSH       0000002000000000                                                                             
D000091006057601827905032012164638นายบุญเลิศ ทรัพย์เจริญกุล   ทศ7974                88459296            49217367                                00860473CCSH       0000002008400000                                                                             
D000092006057601827905032012164933น.ส.นุชนารถ แจ่มศุภพันธ์ ทล6608                   88367697            86216340                                04581830CCSH       0000001700000000                                                                             
D000093006057601827905032012165155นายสมสุข  ชูกิจรุ่งทรัพย์                         88359498                                                    11810142CCSH       0000001948200000                                                                             
D000094006057601827905032012165556นางทิพย์ ธนทรัพย์สมบัติ                           88576597            106182015                               08640589CCSH       0000001834300000                                                                             
D000095006057601827905032012170957ร.ต.รัฐธีร์  น้อยนิตย์ ทล 6472                    88389392            24216347                                07540593CCSH       0000001377800000                                                                             
D000096006057601827905032012172742นางอุบลลักษณ์ โพธิ์แสงทอง ทศ4775                  8876-9291           5721-4367                               10330331CCSH       0000001930000000                                                                             
D000097006057601827905032012183031ทองใบ  ดีวัน  ทม 8675                             88379394            56218317                                08550664CCSH       0000001710000000                                                                             
D000098006057601827905032012183451นายเถกิงเดช พุกพิบูลย์                            88188397            37313072                                09624492CCSH       0000001884200000                                                                             
D000099006057601827905032012185405ยงยุทธ  เมฆยงค์                                   88579786            57213339                                08690542CCSH       0000001617900000                                                                             
D000100006057601827905032012192213นายสุนันท์  วิเศษเนตร                             88559895            81216332                                01730481CCSH       0000000866800000                                                                             
T000101006057601827900000000000000000000000149148800000099                                                                                                                                                                                                      
