H0000010060576018279บริษัท ไทเอซ สิสซิ่ง จำกัด              28072011TALHO                                                                                                                                                                                       
D000002006057601827928072011083121น.ส.ณัฐธิชา ทาระเวท                               8856-7697           4121-6357                               02330919CCSH       0000001918500000                                                                             
D000003006057601827928072011083708นาย สิทธิกิตติ์ วรมาลี มฉ 1733                    8878-9695           3731-1073                               00920555CCSH       0000001220000000                                                                             
D000004006057601827928072011091331นาง ชลิตดา  เจริญพวง  ทย 4697                     8846-8397           7621-4329                               09760540CCSH       0000000829300000                                                                             
D000005006057601827928072011091833นายเฉลิม สมบัติมี                                 8826-9193           0621-9314           ทม 9640             00820884CCSH       0000000829300000                                                                             
D000006006057601827928072011091919นายจรัล เผยสกุล ทศ 2717                           8866-9595           7721-2361                               02580367CCSH       0000001918500000                                                                             
D000007006057601827928072011094737ดาวรุ่ง  ดวงเอก                                   88479696            88214350                                00227815CCSH       0000001918500000                                                                             
D000008006057601827928072011095706นายเฉลิม จันทร์สอน                                88967097            54316066                                05760932CCSH       0000001010600000                                                                             
D000009006057601827928072011103951นายจิตตกร  โกษากุล  ทศ 4196                       88369392            61214369                                01770444CCSH       0000001600000000                                                                             
D000010006057601827928072011105128จ.ส.อ.บุญเลิศ ทองเย็น ทล 3687                     88689798            76213348                                08450242CCSH       0000001665500000                                                                             
D000011006057601827928072011105152คุณ ศิลมน                                         8865-9695           4321-8361                               02610090CCSH       0000001584300000                                                                             
D000012006057601827928072011105844นายจตุรพร  สมมิตร   ทล 8708                       8848-9880           8721-8340                               00130162CCLQ266610 00000003000000040042                                                                         
D000013006057601827928072011110557นางสาว วีณา วงศ์ศิริ                              8847-9591           0321-8352                               11140247CCSH       0000001884200000                                                                             
D000014006057601827928072011111022นายสาธิต ทองอร่ามเรือง  ทล3726                    8808-9798           6721-3342                               01480206CCSH       0000001665500000                                                                             
D000015006057601827928072011112700คุณเอกพล ลมจิตร                                   8898-8899           1131-0069                               08400242CCSH       0000001247000000                                                                             
D000016006057601827928072011114532นายพงษ์ศักดิ์  แหล่งสนาม ทว9904                   8877-8798           4921-9350                               04600072CCSH       0000001894200000                                                                             
D000017006057601827928072011114919พรชัย ศักดิ์เดชะมณี  ทล 6984                      8836-7397           4921-6348                               02530516CCLQ597291500000006700000250329                                                                         
D000018006057601827928072011115119พรชัย ศักดิ์เดชะมณี  ทล 6984                      8836-7397           4921-6348                               02530516CCLQ597285900000012000000250329                                                                         
D000019006057601827928072011115542นฤมล ฟ้าอรุณ                                      88679798            87212356                                05703118CCSH       0000001432800000                                                                             
D000020006057601827928072011121037ประทวน  เขียวแล  มจ5512                           88569592            25315061                                10370321CCSH       0000000985000000                                                                             
D000021006057601827928072011121345นายภักดี ถาวรวัฒนะ มจ524                          8866-9697           4531-0062                               10360725CCSH       0000001578000000                                                                             
D000022006057601827928072011122348นาย  สมหมาย เจริญสุข ทว 8645                      8857-9890           5621-8354                               04581882CCSH       0000001170000000                                                                             
D000023006057601827928072011122419นายไชยรส  ทับทิมไสย                               8866-9496           7321-2367                               02501795CCSH       0000001884200000                                                                             
D000024006057601827928072011122627นาย ประทุม สุขลาภ                                 8806-9390           3821-4324                               10010576CCSH       0000000995100000                                                                             
D000025006057601827928072011123021นางบุญสุข  จงศิริโชค                              8846-7987           1821-6358                               01213513CCSH       0000001799200000                                                                             
D000026006057601827928072011123217นายอภิรัตน์  ภู่ศิริ                              8817-9295           4421-2320                               07660755CCSH       0000001000000000                                                                             
D000027006057601827928072011124509นาย นิพนธ  ยั่งยืน                                8828-9595           2121-5341                               07580556CCSH       0000001617900000                                                                             
D000028006057601827928072011124800คุณ ประยุทธ อยู่ยงค์ ทล 9445                      88688799            54219344                                11250101CCSH       0000001700000000                                                                             
D000029006057601827928072011125951สุรินทร์ เขียนทอง                                 88259295            93218335                                00240400CCSH       0000001495700000                                                                             
D000030006057601827928072011132026นายทองหล่อ โภคา                                   8878-9492           0921-6340           ทล6900              03970649CCSH       0000001700000000                                                                             
D000031006057601827928072011132723นายสันต์  ลาภรุ่งเรือง  ทล 5698                   88789593            86215349                                05701141CCSH       0000001382600000                                                                             
D000032006057601827928072011132736นายนิกรณ์ สิงห์เสนา มง8587                        8856-9995           7531-8058                               10360725CCSH       0000001066200000                                                                             
D000033006057601827928072011133154นายเสนอ  สุดศรี  ทล6425                           888-9592            5421-6342                               01770569CCSH       0000001734300000                                                                             
D000034006057601827928072011134242นายอนันต์ สิงห์น้อย ทศ1463                        88769797            34211366                                07960037CCSH       0000000098480000                                                                             
D000035006057601827928072011135241นางกมลวัลย์ เสาะขุนทด                             8827-9795           6721-5354           ทว 5746             08512940CCSH       0000001886200000                                                                             
D000036006057601827928072011135517นายสิริศักดิ์ วสิษฐ์บุญญาธร                       88659797            52217367                                00390709CCSH       0000001681250000                                                                             
D000037006057601827928072011140041นางนงค์เครือ พุทธางกูรวงศ์                        8898-9396           7821-4349                               01213513CCSH       0000001398700000                                                                             
D000038006057601827928072011142640นาง จิราพร ทองร่มโพธิ์ ทว 3628                    88779697            86213352                                01890436CCSH       0000001666500000                                                                             
D000039006057601827928072011143149นาย  เทพอำพล  ประสงค์ทรัพย์  ทล 7687              8838-9990           7621-7348                               07270081CCSH       0000001512100000                                                                             
D000040006057601827928072011143222นายสมเกียรติ สีธงชัยรุ่งโรจน์ ทพ4790              88269797            07214289                                07930240CCSH       0000001159200000                                                                             
D000041006057601827928072011143410นายสมเกียรติ สีธงชัยรุ่งโรจน์ ทพ9097              88569794            70219289                                07930240CCSH       0000001159200000                                                                             
D000042006057601827928072011143602นายสมเกียรติ สีธงชัยรุ่งโรจน์ ทม4973              88469598            39214317                                07930240CCSH       0000001212700000                                                                             
D000043006057601827928072011143809นาย  นรชัย  แพงศร  ทร  5912                       8820-8397           2921-5331                               09760820CCSH       0000000590200000                                                                             
D000044006057601827928072011143840นายกุล โสมณวัฒน์ ทล356                            8889-9492           6321-0345                               10520393CCSH       0000002471300000                                                                             
D000045006057601827928072011150611พรทิพย์ จันทร์ทึก                                 8859-9592           8621-3317           0836032934          04607752CCSH       0000001615500000                                                                             
D000046006057601827928072011152938นายเกรียงไกร แทนค้ำ                               8859-9790           7421-1346                               10000259CCSH       0000001665500000                                                                             
D000047006057601827928072011154223นางสาว เพลินทิพย์ เหิมสารจอด                      88469195            02210321                                05760932CCSH       0000000889300000                                                                             
D000048006057601827928072011171257นางสาวนัยนา งามทอง ทย8878                         8858-9597           8821-8327                               10631143CCSH       0000002295600000                                                                             
D000049006057601827928072011172734นายวิทยา แซ่จึง                                   88859597            23217362                                09760107CCSH       0000000650000000                                                                             
D000050006057601827928072011173208นายคณิต   คล้องช้าง  ทศ7852                       8895-9897           2821-7365                               04670545CCSH       0000001839700000                                                                             
D000051006057601827928072011181033ยอดรัก จันทุม                                     88369592            07218331                                06976239CCSH       0000001593600000                                                                             
D000052006057601827928072011182827นางศศิธร เชาว์โน                                  88869298            70215333            ทร5037              04881144CCSH       0000001409300000                                                                             
D000053006057601827928072011183304นายสุพจน์  อ่อนแย้ม มฉ 2182                       88689983            21312078                                05701141CCSH       0000001703100000                                                                             
T000054006057601827900000000000000000000000073393830000052                                                                                                                                                                                                      
