H0000010060576018279บริษัท ไทเอซ สิสซิ่ง จำกัด              15122011TALHO                                                                                                                                                                                       
D000002006057601827915122011094002นายธนัฒฑ์ แก้วมณีชัย                              88509889            106203890                               00710221CCSH       0000001800000000                                                                             
D000003006057601827915122011095230นายอำนาจ เจียมเชื่อม ทศ2094                       88669596            40212369                                02530836CCSH       0000001884200000                                                                             
D000004006057601827915122011110032นางศิริดา บุราณคุณ ทล 5489                        88089094            94215348                                04930681CCSH       0000001757000000                                                                             
D000005006057601827915122011110100คุณมีสุข ตะคุณนะ                                  8805-9596           0921-9333                               02712619CCSH       0000001000000000                                                                             
D000006006057601827915122011110831นาย ภัทรพันธุ์ จำปาเนตร                           8810-9397           5321-7329                               04770491CCSH       0000000200000000                                                                             
D000007006057601827915122011110930นางสาว ชิตนะภา ศรีเงินงาม ทม 8258                 8887-8998           8221-8315                               04670492CCSH       0000001250000000                                                                             
D000008006057601827915122011111132นาง ประไพวรรณ หวานเย็น                            8856-7297           9521-8355                               00210676CCSH       0000001775000000                                                                             
D000009006057601827915122011112941ณัฐพร 02-9927541                                  88500599            107155077                               01480363CCSH       0000001293000000                                                                             
D000010006057601827915122011113547นายลือชา ศรีพาณิชพันธุ์                           88469494            33217318                                04671034CCSH       0000001403000000                                                                             
D000011006057601827915122011115001นาย สมชัย กระบวนศรี  ทศ 9194                      88543199            104115850                               04581882CCSH       0000000780000000                                                                             
D000012006057601827915122011115242นายธเนส ตราชูกุล                                  88506989            104123341                               05920453CCSH       0000001922300000                                                                             
D000013006057601827915122011115938กฤชณัท ใจดี                                       88560199            106148861                               02610551CCSH       0000001834200000                                                                             
D000014006057601827915122011120918นาย สนิท ขุนทอง                                   88079694            06314079                                07690734CCSH       0000001808200000                                                                             
D000015006057601827915122011121900นายบุญมี  งามขำ  ทว 210                           88188989            02210351                                08510045CCSH       0000001700000000                                                                             
D000016006057601827915122011123236สาคร รีฮุง                                        88279887            51314079                                01178672CCSH       0000001990000000                                                                             
D000017006057601827915122011124126นายณรงค์ศักดิ์ แหสมุทร ทร 6176                    88269798            61216337                                10270592CCSH       0000001801400000                                                                             
D000018006057601827915122011124241นาย บดินทร์ อินทร์แก้ว                            8809-9694           8721-8333                               04730538CCSH       0000000070000000                                                                             
D000019006057601827915122011124941ฐาปนัท บูชา                                       8898-9783           2221-6345                               05690237CCSH       0000001670900000                                                                             
D000020006057601827915122011125024ฐาปนัท บูชา                                       8898-9783           2221-6345                               05690237CCSH       0000000030000000                                                                             
D000021006057601827915122011131819นาง สุพรรษา  ไชยมาตย์                             88569194            02213318                                00190408CCSH       0000001657400000                                                                             
D000022006057601827915122011131923นาย จุล เทพขาม ทว4638                             88079587            86214353                                02190075CCSH       0000001975300000                                                                             
D000023006057601827915122011132112นายวินัย ลมสูงเนิน ทว 2512                        8878-8097           2521-2351                               05700767CCSH       0000001432800000                                                                             
D000024006057601827915122011133730สกาวเดือน โสตา                                    88592798            107116689           ทย8795              11305412CCSH       0000001538200000                                                                             
D000025006057601827915122011134249นายวินัย  จันลา                                   88989892            01216342                                00171297CCSH       0000001700000000                                                                             
D000026006057601827915122011134319นาย กมล แต้มสว่าง ทล 8488                         8828-9590           8421-8348                               05700767CCSH       0000001800000000                                                                             
D000027006057601827915122011134347นายกระต่าย เทพวงษ์                                88515999            106138674                               00810578CCSH       0000001814600000                                                                             
D000028006057601827915122011134555นาย กมล แต้มสว่าง ทล 8133                         8818-9690           3121-8343                               05700767CCSH       0000001800000000                                                                             
D000029006057601827915122011134646นายสมคิด อินตา ทย 1109                            8828-8197           9121-1320                               05670406CCSH       0000001551900000                                                                             
D000030006057601827915122011134648นาย กมล แต้มสว่าง ทล 8588                         8818-9590           8521-8348                               05700767CCSH       0000001800000000                                                                             
D000031006057601827915122011134902นางนงคราญ  เขมะวิริยะ  ฐบ 7157                    8807-9790           7114-7245                               09760540CCSH       0000000329800000                                                                             
D000032006057601827915122011135317นายประกอบ เขตบุญไสย มฉ9856                        88580998            107137247                               04581830CCSH       0000001025500000                                                                             
D000033006057601827915122011135553นายสมหมาย เจริญสุข ทว8645                         88579890            56218354                                04581830CCSH       0000001216100000                                                                             
D000034006057601827915122011140313นางสาวมะลิวัลย์ จุ่นทอง ทว8046                    8807-9982           6021-8354                               04671136CCSH       0000001734200000                                                                             
D000035006057601827915122011140712นางพรนัชชา เนตรจุ้ย ทร 7533                       88534899            107145883                               04780201CCSH       0000000681100000                                                                             
D000036006057601827915122011140853นางกรรณิการ์ สุบุญสันธิ์ ทย 615                   88533899            107093646                               04780201CCSH       0000000681100000                                                                             
D000037006057601827915122011141300นายสายัณต์  เปลี่ยนหยวก                           88189881            09312072            มฉ2920              00570153CCSH       0000000060000000                                                                             
D000038006057601827915122011144512พิษณุ ด้วยสาร                                     88679795            54214321                                01411495CCSH       0000001704900000                                                                             
D000039006057601827915122011144702นายสุรชัย โทศรี                                   88469986            37212367                                07095314CCSH       0000001954400000                                                                             
D000040006057601827915122011145254นาย วีระศักดิ์ อินจันทึก มฉ5798                   88979980            87315079                                02590600CCSH       0000001884200000                                                                             
D000041006057601827915122011150633นาย วุฒิสิทธิ์ ยินดีเวท                           88789682            80217340            ทล7008              04881144CCSH       0000001617900000                                                                             
D000042006057601827915122011150642นาย พงษ์ศักดิ์ บริบูรณ์  ทว 5942                  8857-9495           2921-5354                               04581882CCSH       0000001987300000                                                                             
D000043006057601827915122011150959จงเจริญ ช่วยสงค์                                  88779882            61218350                                01231109CCSH       0000001920000000                                                                             
D000044006057601827915122011162200นายนิสสัย กล่าวเกลี้ยง                            88889991            70217345                                11520403CCSH       0000001734500000                                                                             
D000045006057601827915122011162247นางสาว ฐาปณภัท ธรรมวิหาร                          8899-8199           4321-2340                               07951194CCSH       0000000517300000                                                                             
D000046006057601827915122011162442นางสาว ฐาปณภัท ธรรมวิหาร ทล2303                   8889-8199           3321-2340                               07951194CCSH       0000000744000000                                                                             
D000047006057601827915122011171317นาย วิทยา  แซ่จึง  ทล 5945                        8807-7797           5921-5344                               09760540CCSH       0000001850000000                                                                             
D000048006057601827915122011182151ศราวุฒิ  สุขพัฒน์                                 88289498            69213348            ทล3986              08690266CCSH       0000001665500000                                                                             
D000049006057601827915122011182238ศราวุฒิ  สุขพัฒน์                                 8818-9498           7921-3348           ทล3987              08690266CCSH       0000001665500000                                                                             
T000050006057601827900000000000000000000000068012700000048                                                                                                                                                                                                      
