H0000010060576018279บริษัท ไทเอซ สิสซิ่ง จำกัด              10122011TALHO                                                                                                                                                                                       
D000002006057601827910122011101925นายมงคล ปราบภัย                                   88659597            46214352                                05758278CCSH       0000001583500000                                                                             
D000003006057601827910122011110511วรรณภา โทร.0869748444                             88589780            18218346                                10070236CCSH       0000001679700000                                                                             
D000004006057601827910122011112226นายเอกชัย บุรินทะ                                 8868-9191           3921-7346                               06976239CCSH       0000001700000000                                                                             
D000005006057601827910122011112340นายเอกชัย บุรินทะ                                 8828-9494           6921-3346                               06976239CCSH       0000001600000000                                                                             
D000006006057601827910122011112419คุณภัทรลภา โคตรสมบัติ มจ 1615                     88579397            56311061                                08550650CCSH       0000000989800000                                                                             
D000007006057601827910122011113752นายสมบูรณ์  สนศรี                                 88079496            79214352                                11240673CCSH       0000001756700000                                                                             
D000008006057601827910122011114228นางธาชินี  อรชุน  ฌค 6368                         88469892            83106036                                04881090CCSH       0000000850000000                                                                             
D000009006057601827910122011123134นายถวิล  จำเริญ ทว8105                            88879891            51218350                                07990070CCSH       0000001476800000                                                                             
D000010006057601827910122011123706นายถวิล จำเริญ ทว 9377                            88079090            73219357                                07990070CCSH       0000000976800000                                                                             
D000011006057601827910122011123959นางสาวไพจิตต์  กีรติพินิจ  ทย 8999                88379895            99218329                                05701141CCSH       0000001383600000                                                                             
D000012006057601827910122011124055นางสาวไพจิตต์  กีรติพินิจ  ทย 7603                88479798            36217320                                05701141CCSH       0000001383600000                                                                             
D000013006057601827910122011125248นายธนะจิตต์  พึ่งโพธิ์สภ                          8818-8199           1921-9346           ทล9961              08690266CCSH       0000001700000000                                                                             
D000014006057601827910122011125549นายมงคล คุณประทุม                                 88979192            09217351                                07589677CCSH       0000001884200000                                                                             
D000015006057601827910122011125832นายสฤทธิ์ เสนสอน                                  88889093            79215342            ทล 5927             04954951CCSH       0000001734300000                                                                             
D000016006057601827910122011130359นายประวัติ  กองทน  ทว6982                         88527399            106147070           080-6007815         08690033CCSH       0000001782900000                                                                             
D000017006057601827910122011131153ดาลานี วงษา ทศ 3601                               8876-9793           1621-3360                               10320746CCSH       0000002274450000                                                                             
D000018006057601827910122011132417นายเชาน์วัศ   หล้าสุดตา   ทว 5002                 8897-9196           2021-5350                               04670545CCSH       0000001776500000                                                                             
D000019006057601827910122011134627นางชุติมา  ธรรพสิทธิ์  ทว 2840                    88279998            08212354                                09760540CCSH       0000001833500000                                                                             
D000020006057601827910122011134846นายจารึก ชัณษา ทล361                              88879783            13210346                                07930727CCSH       0000001660000000                                                                             
D000021006057601827910122011140826พ.ต.ท.จิตติณัติ รักชาติ ทศ 4443                   8816-9492           3421-4364                               04780158CCSH       0000002083900000                                                                             
D000022006057601827910122011140839สมพร  ไกรศรศรี  ทศ 1644                           88169897            46211364                                08550664CCSH       0000001858500000                                                                             
D000023006057601827910122011140955พ.ต.ท.จิตติณัติ รักชาติ ทศ 5445                   8846-8299           5421-5364                               04780158CCSH       0000002200000000                                                                             
D000024006057601827910122011151023วัชรี  เพิ่มพูลสวัสดิ์  ทว 4917                   88583998            106138684                               10720208CCSH       0000001236000000                                                                             
D000025006057601827910122011152808นายวิทยา แซ่จึง                                   48459997            33217362                                09761108CCSH       0000000321000000                                                                             
D000026006057601827910122011152914นายวิทยา แซ่จึง                                   88559597            33217362                                09761108CCSH       0000001467400000                                                                             
D000027006057601827910122011153645นายวานิช  ศรีบุญเรือง ทย2603                      8837-9991           3621-2320                               04881090CCSH       0000001659000000                                                                             
D000028006057601827910122011155020นาย อรรณพ แจ่มใส ทย 1118                          88513599            107094402                               11140247CCSH       0000001043300000                                                                             
D000029006057601827910122011155241นายณรงค์  บุญพิศาล ทม 6073                        88479190            30216317                                04670988CCSH       0000001370000000                                                                             
D000030006057601827910122011161110นายอรัญ ขาวเนตร                                   88678599            42219326                                09761108CCSH       0000001327500000                                                                             
D000031006057601827910122011162033นายพงษ์เทพ  จึงตระกูล  มฉ 1167                    88537499            107161465                               05701141CCSH       0000001230000000                                                                             
D000032006057601827910122011163456น.ส.ปนัดดา  สาระวัน                               88879886            61215356                                02501795CCSH       0000001454900000                                                                             
D000033006057601827910122011163847นางวรรณภา  เจริญอินทร์ ทศ 1945                    88869598            59211364                                07990070CCSH       0000003269600000                                                                             
D000034006057601827910122011164426นาย วิรัตน์ ติ่งทอง                               8867-8098           6221-0366                               05970398CCSH       0000001700000000                                                                             
D000035006057601827910122011171723จันทร์จิรา เข็มวรรณ์                              88513299            106199327                               08000757CCSH       0000002011700000                                                                             
D000036006057601827910122011171818นายสมาน พวงพิลา                                   88368597            64319071                                11370660CCSH       0000002417000000                                                                             
D000037006057601827910122011172709นายวิชัย  ปุสารัมย์  ทศ7982                       8895-9196           2921-7368                               07620776CCSH       0000001519900000                                                                             
D000038006057601827910122011180107นายสุรเชษฐ์ สินเวช                                88532499            106137366                               10150884CCSH       0000001622800000                                                                             
D000039006057601827910122011181506นางมะลิ สุดสอาด                                   88279994            53216350                                08510017CCSH       0000001700000000                                                                             
D000040006057601827910122011182845นางสัญญา จันเวียง                                 88519699            106112638                               11370660CCSH       0000001828400000                                                                             
T000041006057601827900000000000000000000000063347250000039                                                                                                                                                                                                      
