H0000010060576018279บริษัท ไทเอซ สิสซิ่ง จำกัด              24122011TALHO                                                                                                                                                                                       
D000002006057601827924122011100251นายวิทยา แซ่จึง  ทว 5505                          88879995            55215350                                09760540CCSH       0000002461000000                                                                             
D000003006057601827924122011105822นายสายัณห์ เอี่ยมลออ ทร5371                       8856-9290           1321-5337                               11240761CCSH       0000001121000000                                                                             
D000004006057601827924122011110114นายบุญเลียน สุขจิตต์ มจ6357                       88578998            73316065                                10071100CCSH       0000001150000000                                                                             
D000005006057601827924122011111556นายวิทสุวัฒน์ โสวิบูรณ์ ทศ 698                    88969792            86210369                                08450531CCSH       0000000178500000                                                                             
D000006006057601827924122011112332พ.ต.ท. ประเจต ภาพสมุทร                            8817-7697           6521-5343                               05700127CCSH       0000001700000000                                                                             
D000007006057601827924122011120836นายคงศักดิ์  กองทอง  ทศ9790                       88527799            104119626           080-0835189         08690033CCSH       0000000098600000                                                                             
D000008006057601827924122011122038วัสมล โชติสิงห์                                   88267497            36217352                                05700127CCSH       0000001799200000                                                                             
D000009006057601827924122011124501นางสาว บังอร บูระพิน                              48659996            22218367                                09621011CCSH       0000005071700000                                                                             
D000010006057601827924122011132329นากิตติศักดิ์ ร่ำรวย  ทว 8178                     88479691            81218357                                08690335CCSH       0000001918500000                                                                             
D000011006057601827924122011132941นาง บุณยานิตย์ ศิริรักษ์                          88778297            06217328                                09741083CCSH       0000000100000000                                                                             
D000012006057601827924122011133058นาย สมชาย ทองแดง                                  88369096            85212369                                10154881CCSH       0000004153000000                                                                             
D000013006057601827924122011134914นายอำพล  ชื่นแย้ม                                 8896-8898           8031-9073           มฉ 9038             10660479CCSH       0000000647300000                                                                             
D000014006057601827924122011140844คุณ เทพฤทธิ์ สองใหม่ มง9935                       88879196            59319053                                01731321CCSH       0000001451700000                                                                             
D000015006057601827924122011142245บัญชา พิษวงศ์ ทว 4201                             88479697            12214350                                07931067CCSH       0000001700000000                                                                             
D000016006057601827924122011144143นางธนวันต์ เปี่ยมวรนันท์                          88079596            09214359                                09749741CCSH       0000001468000000                                                                             
D000017006057601827924122011144313นายสัญญพงศ์ เจียรนัยกูร ทร 2955                   88502199            107130971                               09749741CCSH       0000000788800000                                                                             
D000018006057601827924122011145417นายธวัชชัย เจริญบัณฑิตชัย มฉ 4455                 88679796            54314075                                04780158CCSH       0000002447000000                                                                             
D000019006057601827924122011150504นายสุภะชัย  ตู้ที  ทศ1406                         88569198            64211360                                10631094CCSH       0000000700000000                                                                             
D000020006057601827924122011155856นายอั๋น  แป้งใส ทย 5825                           8877-9688           5821-5322                               04670988CCSH       0000001447100000                                                                             
D000021006057601827924122011162727นาง ชลิตดา  เจริญพวง  ทว 550                      88510099            106131663                               09760540CCSH       0000000050000000                                                                             
D000022006057601827924122011163644นางสัมฤทธิ์  เกิดชู                               8846-9498           4421-0326                               11520515CCSH       0000000995100000                                                                             
D000023006057601827924122011170224สมโชค จีบงาม ทล 6390                              88559696            03216349                                04670086CCSH       0000002000000000                                                                             
D000024006057601827924122011170352สมโชค จีบงาม ทล 7297                              88359094            72217349                                04670086CCSH       0000002500000000                                                                             
D000025006057601827924122011191956นางสาว วีณา วงศ์ศิริ                              8847-9591           0321-8352                               10721605CCSH       0000001884200000                                                                             
T000026006057601827900000000000000000000000037830700000024                                                                                                                                                                                                      
