H0000010060576018279บริษัท ไทเอซ สิสซิ่ง จำกัด              05022012TALHO                                                                                                                                                                                       
D000002006057601827905022012101502นายวิทยา พัดเย็นใจ                                88510799            107139189           ทร4892              08510518CCSH       0000001081900000                                                                             
D000003006057601827905022012114826นายมานะ ปานนพภา                                   88889196            79214345                                04831051CCSH       0000001595500000                                                                             
D000004006057601827905022012121722นางวัลภา ไชยนิด ทศ4992                            88469490            28214369                                10631331CCSH       0000001918500000                                                                             
D000005006057601827905022012122440นายพิทักษ์ วุฒิสุรัตน์                            88789193            35216347                                11255243CCSH       0000001734300000                                                                             
D000006006057601827905022012123151น.ส.ปนันดา สาระวัน ทว 5166                        88879886            61215356                                02500437CCSH       0000001454900000                                                                             
D000007006057601827905022012132144นายสรรเสริญ สีธงชัยรุ่งโรจน์ ทม 7700              88979090            07217310                                07930240CCSH       0000001159200000                                                                             
D000008006057601827905022012132302นายสรรเสริญ สีธงชัยรุ่งโรจน์ ทร 6888              88510499            107140582                               07930240CCSH       0000001111700000                                                                             
D000009006057601827905022012132426นายสมเกียรติ สีธงชัยรุ่งโรจน์ ทย3148              88469197            81213324                                07930240CCSH       0000001252000000                                                                             
D000010006057601827905022012140147นรชัย แพงศร                                       8851229             107138252                               09761108CCSH       0000001275100000                                                                             
D000011006057601827905022012140240นายนรชัย แพงศร                                    88511299            104123041                               09761108CCSH       0000001994900000                                                                             
D000012006057601827905022012151559นายไขแสง แสงโสฬส ทย6805                           88479797            58216320                                08450531CCSH       0000001057600000                                                                             
D000013006057601827905022012151650อนุสรณ์ วารีน้อย                                  88859795            84213317                                07990501CCSH       0000000995100000                                                                             
D000014006057601827905022012151909เสน่ห์ แย้มสุดใจ                                  88379994            70216355                                02500872CCSH       0000000517700000                                                                             
D000015006057601827905022012153459นางดาลานี วงษา ทศ3601                             88769793            16213360                                10320156CCSH       0000002274450000                                                                             
D000016006057601827905022012153902นาย สุจินต์  ทรงขำ มฉ8181                         8806-9392           1131-8078                               05690707CCSH       0000001721500000                                                                             
D000017006057601827905022012160756นางสุนิน งามปานแก้ว                               88689097            66214347                                11250200CCSH       0000001665500000                                                                             
D000018006057601827905022012160836นิพนธ์ ก. ทร3197                                  88506899            107130545                               10360281CCSH       0000001555000000                                                                             
D000019006057601827905022012165230นายสมาน พวงพิลา                                   88512199            104122836                               11370660CCSH       0000002483600000                                                                             
D000020006057601827905022012165606นางสาว วรกมล  บุญมา                               88507499            106199558                               08550648CCSH       0000002422300000                                                                             
D000021006057601827905022012184016นายยงยุทธ เมฆยงค์   ทร3795                        88579786            57213339                                08690335CCSH       0000001750000000                                                                             
D000022006057601827905022012184218นาย สมชาย ตราลาภ ทล3862                           88589398            28213346                                10070236CCSH       0000002000000000                                                                             
D000023006057601827905022012194850สมหวัง  เหล็งศิริ  ทล1204                         8897-9886           4221-1340                               07620776CCSH       0000001570000000                                                                             
T000024006057601827900000000000000000000000034590750000022                                                                                                                                                                                                      
