H0000010060576018279บริษัท ไทเอซ สิสซิ่ง จำกัด              14112011TALHO                                                                                                                                                                                       
D000002006057601827914112011083316นายวรวิทย์  ทิพนัด                                88269993            52214326                                03970257CCSH       0000000600000000                                                                             
D000003006057601827914112011083448นางสาวอุดมรักษ์ ขอนสี                             88378198            21210367                                10570666CCSH       0000001918500000                                                                             
D000004006057601827914112011091630นายจงรักษ์ ถนอมด่วน ทษ344                         88523299            104121634                               02152851CCSH       0000001390900000                                                                             
D000005006057601827914112011092409เฉลา ศรีนาค                                       88669594            15312068                                07125214CCSH       0000000730600000                                                                             
D000006006057601827914112011093217กำพล                                              88789891            48216347                                02542373CCSH       0000001798500000                                                                             
D000007006057601827914112011094040นเรศ  สุขประเสริฐ                                 88539399            107083971           บจ 1347             01743358CCSH       0000000940000000                                                                             
D000008006057601827914112011094231นเรศ  สุขประเสริฐ                                 88539399            107083971           บจ 1347             01743358CCSH       0000000133000000                                                                             
D000009006057601827914112011102148นาย ศุภวัฒน์ ดวงจันทร์  ทย  4603                  88718389            36214320                                02260861CCSH       0000000375500000                                                                             
D000010006057601827914112011102735นายอนุสรณ์ วารีน้อย 084-6616490                   88278598            14215324                                07990501CCLQ537004500000014847000040766                                                                         
D000011006057601827914112011103741นางสาว นุชนารถ แจ่มศุภพันธ์ ทศ 8294               88597898            104115480                               04581882CCSH       0000002440000000                                                                             
D000012006057601827914112011103931นาย พงษ์ศักดิ์ บริบูรณ์ ทว 5942                   8857-9495           2921-5354                               04581882CCSH       0000001987300000                                                                             
D000013006057601827914112011104019นางสาว นุชนารถ แจ่มศุภพันธ์ ทศ                    88269097            61212361                                04581882CCSH       0000001987300000                                                                             
D000014006057601827914112011104653นาย อมฤต สนิทขำ ทศ2909                            88069195            99212360                                00771064CCSH       0000001918500000                                                                             
D000015006057601827914112011110453นายสุวรรณ  ปรางทอง                                88269791            66219288                                05760270CCSH       0000000552800000                                                                             
D000016006057601827914112011111056นายศิริชัย จุลแดง  ทศ9189                         88659195            91219368                                04830677CCSH       0000001546700000                                                                             
D000017006057601827914112011111418นาย นคร ทองแก้ว                                   88669494            41213367                                01300510CCSH       0000001884200000                                                                             
D000018006057601827914112011111446นาย บรรเจิด หล่ำจรูญ มจ302                        88178997            23310060                                00970067CCSH       0000000800000000                                                                             
D000019006057601827914112011112144นางสุรินทร์ ฉาบไธสง                               88559295            25218368                                02610862CCSH       0000001874100000                                                                             
D000020006057601827914112011112553นายสมชาย พงษ์เวช                                  88059894            69215318                                10100366CCSH       0000000995100000                                                                             
D000021006057601827914112011112830นายจักรพันธ์ ขำเกื้อ                              88289793            49215344                                01810555CCSH       0000001617900000                                                                             
D000022006057601827914112011113152นายภิญโญ  กันเนียม                                88159395            75218363            087-9335683         04600142CCSH       0000001812300000                                                                             
D000023006057601827914112011113655น.ส. จันทร์วัชรินทร์ อินต๊ะแก้ว   ทษ 705          88510989            104123384                               01370181CCSH       0000001903900000                                                                             
D000024006057601827914112011113839นางสาวธณัญชนก ฤทธิ์จรูญ                           8806-9791           5721-5343                               07590497CCSH       0000001798000000                                                                             
D000025006057601827914112011114048นาง นงคราญ คำมอญ  ทว 5279                         88779887            92215357                                04581882CCSH       0000002528300000                                                                             
D000026006057601827914112011114139น.ส.ประสงค์  เที่ยงสันเทียะ ทม4630                88559898            06214313                                10810405CCSH       0000000941600000                                                                             
D000027006057601827914112011114450นาย เฉียบวุฒิ  อ่อนยิ่ง                           8896-9292           0131-8074                               03080685CCSH       0000001432800000                                                                             
D000028006057601827914112011115856นางสกาวเดือน   โสตา                               88592798            107116689           ทย 8975             04930093CCSH       0000001538200000                                                                             
D000029006057601827914112011121535นางภัสรา เรศสุข ทศ.5620                           8866-8299           0621-5362                               08404479CCSH       0000001799200000                                                                             
D000030006057601827914112011121636นางภัสรา เรศสุข ทศ5626                            8856-8299           6621-5362                               08404479CCSH       0000001799200000                                                                             
D000031006057601827914112011122128นายวสันต์ สุวรรณรังษี                             8868-9682           9021-7348                               06206528CCSH       0000001595500000                                                                             
D000032006057601827914112011122636นายสุรพงษ์ วงศ์กำภู                               88269290            50215367                                01231109CCSH       0000001856500000                                                                             
D000033006057601827914112011123752นายสัณหณัฐ ภู่กรุต ทศ8979                         88759195            99218367                                07960037CCSH       0000002771000000                                                                             
D000034006057601827914112011124134เอกสิทธิ์ ศรีตองอ่อน                              88588689            75210359                                00170047CCSH       0000001070000000                                                                             
D000035006057601827914112011124359นายอนันต์   มโนศรี                                88389895            86210319                                04480112CCSH       0000001677300000                                                                             
D000036006057601827914112011125247นาย สมหมาย เจริญสุข  ทว 8645                      8857-9890           5621-5354                               04581882CCSH       0000001182500000                                                                             
D000037006057601827914112011125446นายทองสูน เที่ยงแก๊ส ทศ 1974                      88069197            49211367                                04731091CCSH       0000001884200000                                                                             
D000038006057601827914112011130215นายทัชพล โคตรวงษ์                                 88959894            07213322                                04080687CCSH       0000001498000000                                                                             
D000039006057601827914112011130858นายสุรพล  วัฒนบุตร                                88526599            107046884                               01081088CCSH       0000001421500000                                                                             
D000040006057601827914112011131647นายพุฒิพัฒน์ พีรชัยทัศน์                          88979290            11219356                                00680109CCSH       0000001918500000                                                                             
D000041006057601827914112011132448นายกิตติพงศ์ กรศุภอานนท์                          8837-8599           1021-1324           ทย1041              03970649CCSH       0000002132100000                                                                             
D000042006057601827914112011132553นายกิตติพงศ์ กรศุภอานนท์                          8837-8599           1021-1324           ทย1041              03970649CCSH       0000001382100000                                                                             
D000043006057601827914112011132606พ.ท.เรวัต มากกุญชร ทว 7037                        8847-9393           7021-7353                               00340204CCSH       0000002084000000                                                                             
D000044006057601827914112011132737นายกิตติพงศ์ กรศุภอานนท์                          8877-8599           0921-2329           ทย2990              03970649CCSH       0000001650000000                                                                             
D000045006057601827914112011133425นายสมฐูรณ์ ผามั้ง มจ. 2850                        88269892            08312065            087-3624090         00207452CCSH       0000001052200000                                                                             
D000046006057601827914112011133502นางรัชนี อยู่บำรุง ทม6787                         88507989            107079819                               02580367CCSH       0000001449100000                                                                             
D000047006057601827914112011134143นางคำพันธ์ จันทร์ผลงาม                            88759297            95217363                                07616248CCSH       0000002200500000                                                                             
D000048006057601827914112011140811นายสมหวัง เเซ่อึ้ง ทม 6062                        88526499            107076561                               00771064CCSH       0000001108100000                                                                             
D000049006057601827914112011141132นายปฏิภาณ  สมดี ทศ5045                            8866-9390           5021-5364                               04600072CCSH       0000001432800000                                                                             
D000050006057601827914112011141423นายสุนทร  บุญเกิด                                 88069292            85217357                                03965684CCSH       0000001800000000                                                                             
D000051006057601827914112011141539นายสุนทร  บุญเกิด                                 88504599            107107351                               03965684CCSH       0000001838700000                                                                             
D000052006057601827914112011141704นายสุนทร  บุญเกิด                                 88503599            107075019                               03965684CCSH       0000001159200000                                                                             
D000053006057601827914112011141901พ.อ.อ.ชำนาญ  มณีวรรณ                              88533799            104116069                               07050777CCSH       0000001587700000                                                                             
D000054006057601827914112011142508นายบุญยัง ทองหลาง                                 88508499            107130003           ทร 2775             00570153CCSH       0000001345100000                                                                             
D000055006057601827914112011142512นายอนันต์ เปสโล                                   88089497            03311076                                04690188CCSH       0000001769800000                                                                             
D000056006057601827914112011142610นายอนันต์ เปสโล                                   88089497            03311076                                04690188CCSH       0000000034300000                                                                             
D000057006057601827914112011142950นายพรชัย ศักดิ์เดชะมณี ทพ 6377                    8819-9696           7321-6287                               02260835CCSH       0000000177000000                                                                             
D000058006057601827914112011143106นายพรชัย ศักดิ์เดชะมณี ทม 1017                    8850-8897           7021-1311                               02260835CCSH       0000000137000000                                                                             
D000059006057601827914112011143202นายพรชัย ศักดิ์เดชะมณี ทม 1015                    8850-8397           5021-1311                               02260835CCSH       0000000137000000                                                                             
D000060006057601827914112011143259นายพรชัย ศักดิ์เดชะมณี ทม 968                     8870-8398           8921-0316                               02260835CCSH       0000000137000000                                                                             
D000061006057601827914112011143354นายพรชัย ศักดิ์เดชะมณี ทม 966                     8830-8298           6921-0316                               02260835CCSH       0000000137000000                                                                             
D000062006057601827914112011143434นาย วิชาญ โพธิวรรณ                                88515989            104123253                               01784404CCSH       0000001901600000                                                                             
D000063006057601827914112011143649นายพิษณุ  ด้วยสาร                                 88679795            54214321                                03970257CCSH       0000001700000000                                                                             
D000064006057601827914112011144533นางสาวสำลี ก้านจักร                               88779587            47214355            ทว 4754             01528111CCSH       0000001913800000                                                                             
D000065006057601827914112011144837นายสมชาย พินยะเพียน                               88759196            06217366            ทศ.7660             01528111CCSH       0000001327900000                                                                             
D000066006057601827914112011151941ภัททิรา วีระกูล                                   88868598            40210363                                01080545CCSH       0000002377900000                                                                             
D000067006057601827914112011153326นายบุญส่ง ปัญสา                                   88169794            85213318                                01902177CCSH       0000001140000000                                                                             
D000068006057601827914112011160026ด.ต.เสิม  หยุ่นแก้ว ทว 4197                       88479197            71214359                                01970208CCSH       0000001884200000                                                                             
D000069006057601827914112011160656นายสุรเชษฐ์ สินเวช มฉ 4299                        88532499            106137366                               10154881CCSH       0000001622800000                                                                             
D000070006057601827914112011160740คุณมะรินทร์ พรมโลกา                               88579587            67214355                                00470242CCSH       0000001912900000                                                                             
D000071006057601827914112011173558นายสมเกียรติ จิระศรีรังสรรค์                      88505099            107065942                               10720554CCSH       0000002000000000                                                                             
D000072006057601827914112011183711นาง สมร ราวินิช ทศ2149                            88069797            91212364                                08550648CCSH       0000001435000000                                                                             
T000073006057601827900000000000000000000000103370900000071                                                                                                                                                                                                      
