H0000010060576018279บริษัท ไทเอซ สิสซิ่ง จำกัด              22072011TALHO                                                                                                                                                                                       
D000002006057601827922072011091459นางจรรยา  อินทศร ทล 8704                          8846-9793           4721-8340                               04580699CCSH       0000002070000000                                                                             
D000003006057601827922072011092149นางสาว ปริณตรา  ฮะยิ้ม                            8845-9696           7821-7366                               02160493CCSH       0000001802500000                                                                             
D000004006057601827922072011095208นาง ขวัญใจ  กระจ่างโพธิ์ ทม 3166                  8828-9796           6121-3316                               04650389CCSH       0000001449700000                                                                             
D000005006057601827922072011101246สัญญา สาแก้ว ทร.3054                              8816-7897           4021-3335                               02190470CCSH       0000001212700000                                                                             
D000006006057601827922072011101614นางสาว ศิริกานดา  ทานุรัตน์  ทศ 3342              8876-9893           2321-3364                               02260835CCSH       0000001799200000                                                                             
D000007006057601827922072011103740นายจำลอง  เที่ยงตรง ทว7502                        88779992            25217350                                06921923CCSH       0000001918500000                                                                             
D000008006057601827922072011104724นายสิทธิวิชญ์ เกษมพงศ์วณิช  มฉ5176                8836-8497           6131-5077                               10320014CCSH       0000001422700000                                                                             
D000009006057601827922072011104811นาย อุดร  ผาน้อยวงศ์  ทล3562                      8868-9998           2521-3346                               02590608CCSH       0000001665500000                                                                             
D000010006057601827922072011111152จิราพร ทองร่มโพธิ์  ทว6633                        8817-9884           3621-6353                               07620035CCSH       0000001700000000                                                                             
D000011006057601827922072011112052นายคอนศรี จิตอามาตย์                              88469196            35218321                                04120069CCSH       0000001382100000                                                                             
D000012006057601827922072011112840นางสาว  อรวรรณ  ศรีสุวรรณเกศ ทล 8232              8878-9490           2221-8343                               09760540CCSH       0000001700000000                                                                             
D000013006057601827922072011113424นายบุญมี  จันทร์กอง ทย 8684                       8886-9397           4621-8328                               01970208CCSH       0000001613300000                                                                             
D000014006057601827922072011113933นางสาว กุลวงษ์ ทร918                              88769095            89210331                                02530836CCSH       0000001562300000                                                                             
D000015006057601827922072011114140นางสาวเพชรมณี สิงห์วิชัย ทย9930                   88389780            09219323                                00440466CCSH       0000001654400000                                                                             
D000016006057601827922072011114140นางนงนุช สุทธาวาส ทศ1611                          8866-9298           1621-1361                               01951137CCSH       0000001885000000                                                                             
D000017006057601827922072011114252นาย ชัยณรงค์ เชียงศรี                             88889493            79215341                                10410945CCSH       0000001725700000                                                                             
D000018006057601827922072011114406นางสาว รัชนงค์ เชียงศรี                           88889391            44217343                                10410945CCSH       0000001622400000                                                                             
D000019006057601827922072011114944พิพรรธ แสนอินทร์                                  88678698            63214324                                05700906CCSH       0000001105700000                                                                             
D000020006057601827922072011114956นายคะนอง กองสุข มง7222                            8896-9392           2231-7052                               01200722CCSH       0000000891600000                                                                             
D000021006057601827922072011115738นาย วราวุฒิ  จันทร์ประโคน ทว3900                  8887-9697           0921-3350                               02590608CCSH       0000001700000000                                                                             
D000022006057601827922072011115749นายธนเดช  สงวนรัตน์ ทว4755                        88579796            57214355                                11140161CCSH       0000001884200000                                                                             
D000023006057601827922072011120053นางมณฑาทิพย์ เหลือสม ทว475                        88488689            54210357                                07930318CCSH       0000001884200000                                                                             
D000024006057601827922072011120936นายทน กองเกตุใหญ่ มฉ6034                          88878999            40316073                                02530836CCSH       0000001884200000                                                                             
D000025006057601827922072011121332นายณัฐพล สนิท ทร 9501                             8825-9294           1521-9330                               08560792CCSH       0000001284000000                                                                             
D000026006057601827922072011121501นายวินัย ลมสูงเนิน ทล 167                         8809-9892           7121-0346                               05700767CCSH       0000001232300000                                                                             
D000027006057601827922072011121603นายรุ่งโรจน์  เศรษฐ์ธนวัฒน์  ทย 9905              8850-9494           5921-9320                               01770208CCSH       0000000255800000                                                                             
D000028006057601827922072011122003นาง เยาวะรัชน์ โคมแก้ว  ทร 2850                   8895-9194           0821-2335                               04581882CCSH       0000000646800000                                                                             
D000029006057601827922072011122330ทม6904                                            88259986            49216310                                07930318CCSH       0000001380000000                                                                             
D000030006057601827922072011122522นายสรรเสริญ สีธงชัยรุ่งโรจน์ ทย.9600              88378999            06219320                                07930318CCSH       0000001216300000                                                                             
D000031006057601827922072011122638นายสมเกียรติ สีธงชัยรุ่งโรจน์ ทย2945              88278197            59212324                                07930318CCSH       0000001253100000                                                                             
D000032006057601827922072011122647นางสาว นงลักษณ์  จันต๊ะราชา ทว 5453               8847-9486           3421-5355                               00650326CCSH       0000001884200000                                                                             
D000033006057601827922072011122706ธีรสิริพ.                                         88359995            33218367                                02610551CCSH       0000001863100000                                                                             
D000034006057601827922072011123228อาภรณ์ ไชยวรรณ                                    88478399            33218329                                06976239CCSH       0000001333000000                                                                             
D000035006057601827922072011123346บรรจง สุวรรณโคต                                   8887-9587           7721-9329                               00243534CCSH       0000000178500000                                                                             
D000036006057601827922072011123605นายปรีชา  บุญมั่น  ทว8783                         8867-9790           3721-8358                               01730895CCSH       0000001900000000                                                                             
D000037006057601827922072011124627นายอนุ สุริยะ                                     8806-9596           02211340            ทล 1200             02540020CCSH       0000001780600000                                                                             
D000038006057601827922072011124715นายธนะจิตต์ พึ่งโพธิ์สภ  ทว512                    88388689            25210351                                08690335CCSH       0000001700000000                                                                             
D000039006057601827922072011125541นาย เพชร สูตรอุดม ทย4908                          88659297            89214320                                01480840CCSH       0000001287300000                                                                             
D000040006057601827922072011125550นางจินตรัตน์  อุทัยพยัคฆ์ ทว 5650                 88079995            06215355                                04670086CCSH       0000001884200000                                                                             
D000041006057601827922072011130014นายมานพ ฉิมพล ษม2927                              8877-9392           7937-2312           082-0862410         01086005CCSH       0000000717200000                                                                             
D000042006057601827922072011130228นางสุนิจ สมบัติ ทร 2854                           88969295            48212335                                10071091CCSH       0000000150000000                                                                             
D000043006057601827922072011130318ภูพนา ทองสมบูรณ์                                  88079990            66218353                                00240400CCSH       0000001799200000                                                                             
D000044006057601827922072011130619นายสุเทพ  แก้วฮ่องคำ                              88569895            32317073                                01900549CCSH       0000001515300000                                                                             
D000045006057601827922072011130830นางสาว นฤมล ชนกศรีทอง                             88488897            88211355            ทว1858              01528111CCSH       0000001700000000                                                                             
D000046006057601827922072011131056นันทวี สุนา                                       8847-9794           5731-4075                               01890216CCSH       0000001884200000                                                                             
D000047006057601827922072011133041อนันต์  สิงห์น้อย ทศ1141                          8856-9498           1121-1364                               04950191CCSH       0000001990000000                                                                             
D000048006057601827922072011133235อนันต์  สิงห์น้อย ทศ1463                          8876-9797           3421-1366                               04950191CCSH       0000001950100000                                                                             
D000049006057601827922072011133349นางสุภาพร บุบผา ทศ 1506                           8886-9697           6521-1360                               05690237CCSH       0000001884200000                                                                             
D000050006057601827922072011133420วิรัตน์ อมรนิรุตติ พท2756                         8887-8797           6728-2215                               01991041CCSH       0000001105700000                                                                             
D000051006057601827922072011134015นายวิภพ ฉิวกระโทก ทว9175                          8877-8099           5121-9357                               00830604CCSH       0000001447000000                                                                             
D000052006057601827922072011135426นายสำราญ ขาวผ่อง ทว1931                           8898-8697           1921-1353                               05970617CCSH       0000001811800000                                                                             
D000053006057601827922072011135537นาย โยธิน มาดลย์  ทว 3506                         8837-9997           6521-3350                               04581882CCSH       0000001884200000                                                                             
D000054006057601827922072011140351นายสายัณห์ เอี่ยมลออ                              88569290            13215337            ทร5371              11240761CCSH       0000001118000000                                                                             
D000055006057601827922072011140704พ.อ.อ.วัฒนธรรม  เอิบกมล                           88709096            80219323                                00801849CCSH       0000000529100000                                                                             
D000056006057601827922072011141130นายอุดม คงนอง ทว473                               8898-8589           3421-0357                               06900542CCSH       0000001432800000                                                                             
D000057006057601827922072011142653นาย สายชล คงสมบูรณ์ ทย 6203                       8849-9390           3221-6320                               01200547CCSH       0000001722400000                                                                             
D000058006057601827922072011143639กมล แต้มสว่าง                                     88189590            85218348                                00910759CCSH       0000001800000000                                                                             
D000059006057601827922072011143751นายสมนึก  สืบพิลัย                                8835-9994           6621-8369           ทศ 8696             02260178CCSH       0000002069400000                                                                             
D000060006057601827922072011144325นางสาว รวิตา ธิสาร                                88879983            67316065                                00201688CCSH       0000004000000000                                                                             
D000061006057601827922072011145235นาย คมกริช กรศุภกุล                               8827-9496           7121-5357                               01260200CCSH       0000002083000000                                                                             
D000062006057601827922072011145503กาญจนา ด่านวิริยะกุล                              88869896            96215323                                07621764CCSH       0000001155500000                                                                             
D000063006057601827922072011150402นางคูณ  เทศแท้  ทว 6783                           8857-9993           3721-6358                               03970523CCSH       0000001700000000                                                                             
D000064006057601827922072011150512นายประโยชน์ บุญสมเชื้อ มจ 5400                    8805-9396           0431-5060                               08560792CCSH       0000001051000000                                                                             
D000065006057601827922072011150614นางสาวดวงจันทร์  โมฆรัตน์                         8866-7697           0221-6358                               01440888CCSH       0000001884200000                                                                             
D000066006057601827922072011151350นายสุรัตน์ สังข์เงิน  ทล 1367                     8889-9781           7321-1346                               01200195CCSH       0000001560000000                                                                             
D000067006057601827922072011153444น.ส.วิชุดา  พลายแก้ว                              88789496            18217312                                01270439CCSH       0000001603600000                                                                             
D000068006057601827922072011153603นายบัญชา  พิษวงษ์ ทว 4201                         8847-9697           1221-4350                               07540593CCSH       0000001750000000                                                                             
D000069006057601827922072011154606สุนทร  จันทร                                      88679791            61218355                                01900549CCSH       0000001074100000                                                                             
D000070006057601827922072011160450นายสุพจน์ เพ็งอินทร์ ทว760                        8878-8698           0721-0356                               10130715CCSH       0000002187400000                                                                             
D000071006057601827922072011161443ด.ต.เสิม หยุ่นแก้ว ทว.9322                        8846-9994           2321-9352           0898165953          01970387CCSH       0000001800000000                                                                             
D000072006057601827922072011163856นางศิริพร  บัติดอน ทย 5596                        88169097            65215329                                04670086CCSH       0000002264400000                                                                             
D000073006057601827922072011165642นายกิตติศักดิ์ นาสวน ทล802                        8819-9791           2821-0340                               05671599CCSH       0000001267800000                                                                             
D000074006057601827922072011175237นายวิเชต  มารกลม                                  8878-9994           6121-5346                               08832055CCSH       0000002012500000                                                                             
D000075006057601827922072011175357นาย วรพงศ์ พูลพิพิธ  ทย6690                       8898-8597           0621-6329                               04883617CCSH       0000001230000000                                                                             
D000076006057601827922072011180221นาย วรวิทย์ และสง่า ทว3030                        8806-9697           0021-3353                               05690237CCSH       0000001988000000                                                                             
D000077006057601827922072011180912นางสมพร ตอสี                                      88699290            35218331            ทร 8513             04880760CCSH       0000001665500000                                                                             
D000078006057601827922072011181031นางสมพร ตอสี                                      88069298            31211363            ทศ 1133             04880760CCSH       0000001884200000                                                                             
D000079006057601827922072011182717นายรุ่งระชัย  พุฒิภูติ                            8867-9888           5321-3356                               06972020CCSH       0000003887400000                                                                             
D000080006057601827922072011190541นายบัญชา สีจุ้ย ทศ2313                            8816-9796           3321-2361                               10360725CCSH       0000001981000000                                                                             
T000081006057601827900000000000000000000000127155300000079                                                                                                                                                                                                      
