H0000010060576018279บริษัท ไทเอซ สิสซิ่ง จำกัด              29102011TALHO                                                                                                                                                                                       
D000002006057601827929102011100458นางศิลมน เจนธรรมกุล ทศ8314                        8865-9695           4321-8361                               08691092CCSH       0000001550000000                                                                             
D000003006057601827929102011115030นางสาว สมทรัพย์ หนองหาร                           8827-8697           5621-0362           ทศ625               00860861CCSH       0000002518200000                                                                             
D000004006057601827929102011120403นาย ปรีชา  ชูชนะ มจ8553                           8848-9094           3531-8065                               06980518CCSH       0000001673400000                                                                             
D000005006057601827929102011134453นาย สรรเสริญ สีธงชัยรุ่งโรจน์ ทร 7039             8855-9494           9021-7333                               08450531CCSH       0000001172300000                                                                             
D000006006057601827929102011140116นายยอด ศรีราชา                                    88367997            58217321                                10330446CCSH       0000000851900000                                                                             
D000007006057601827929102011140351นางสุพัตรา ภิรมย์ขวัญ                             88379790            19218355                                09621104CCSH       0000001884200000                                                                             
D000008006057601827929102011142816นาย ธนรัตน  พิทักเจริญ  ป้ายแดง                   88504799            106199546                               04880528CCSH       0000001918100000                                                                             
D000009006057601827929102011143708นายปรีชา ธารีไทย ทว4206                           88979197            62214350                                10150884CCSH       0000001756700000                                                                             
D000010006057601827929102011150331นาย ธนพัต  คุ้มวงษ์                               88078897            85210364                                07661135CCSH       0000001773000000                                                                             
D000011006057601827929102011151750นายสำเร็จ บุตรปราบ ทศ 9389                        88541099            104115288                               07961036CCSH       0000001656600000                                                                             
D000012006057601827929102011151912นายสำเร็จ บุตรปราบ                                88659897            22217368                                07961036CCSH       0000001560000000                                                                             
D000013006057601827929102011152058นายสำเร็จ  บุตรปราบ                               88169395            28212367                                07961036CCSH       0000001497100000                                                                             
D000014006057601827929102011152132นายอนุสรณ์ วารีน้อย                               8846-9797           4721-7314           ทม.7744             07990541CCSH       0000001517700000                                                                             
D000015006057601827929102011152243นายสำเร็จ  บุตรปราบ ทว 8498                       88179691            84218359                                07961036CCSH       0000002048700000                                                                             
D000016006057601827929102011152406นายสำเร็จ  บุตรปราบ ทล 5653                       88689493            36215345                                07961036CCSH       0000001467100000                                                                             
D000017006057601827929102011152802นายพงษ์ศักดิ์ สุวรรณคาม                           88479097            72214350                                07660755CCSH       0000001734300000                                                                             
D000018006057601827929102011152833เขษม  คุ้มประยูร  ทล5260                          8858-9594           0221-5346                               04950191CCSH       0000001702200000                                                                             
D000019006057601827929102011154655นิพนธ์  โง่นใจรัก                                 88479792            07217356                                04931325CCSH       0000001884200000                                                                             
D000020006057601827929102011160951นายชวลิต ฮั่นปุดโจ๊ว  ทว  3709                    8867-9697           9721-3350                               08510258CCSH       0000001884200000                                                                             
D000021006057601827929102011163724ดต.ภาณุพงศ์ จันทร์แก้ว                            88098399            71212347                                08003818CCSH       0000001090300000                                                                             
D000022006057601827929102011170028นายโกศล เกิดศรี                                   88459795            53218365                                10721605CCSH       0000001798500000                                                                             
T000023006057601827900000000000000000000000034938700000021                                                                                                                                                                                                      
