H0000010060576018279บริษัท ไทเอซ สิสซิ่ง จำกัด              04032012TALHO                                                                                                                                                                                       
D000002006057601827904032012102338นายพงษ์ศักดิ์  บริบูรณ์                           8845-9896           2621-7365           ทศ7652              08690266CCSH       0000002376400000                                                                             
D000003006057601827904032012102458น.ส.นุชนารถ  แจ่มศุภพันธ์                         88598898            104122348           ทษ1492              08690266CCSH       0000002235000000                                                                             
D000004006057601827904032012110844นางพรเพ็ญ แซ่ก๊วย ทล 8440                         88289190            04218344                                10720377CCSH       0000001700000000                                                                             
D000005006057601827904032012122331นาย สุพพัต ตองติดรัมย์                            88679886            33314078            มฉ4383              04881144CCSH       0000001978500000                                                                             
D000006006057601827904032012122418นายเสริฐ ทีฆาวงค์ โทร.0847566228                  88269893            65202387                                10070071CCSH       0000000898900000                                                                             
D000007006057601827904032012124730นายอนันต์ สิงห์น้อย ทศ1141                        88569498            11211364                                04950486CCSH       0000000309400000                                                                             
D000008006057601827904032012132806น.อ.ธวัชชัย วิไลลักษณ์                            88573598            106174819                               07540908CCSH       0000001550400000                                                                             
D000009006057601827904032012132923นางอัญชลี วิไลลักษณ์ ทล 6045                      88570798            106117440                               07540908CCSH       0000000606300000                                                                             
D000010006057601827904032012134634ศุภชัย วงษ์หมั่น                                  88580898            104126289                               04700261CCSH       0000002117800000                                                                             
D000011006057601827904032012135806นางระเบียบ พิมทอง  ทศ 8986                        88549299            104116175                               05970617CCSH       0000001549300000                                                                             
D000012006057601827904032012141326นคร ทองแก้ว                                       88669494            41213367                                09761108CCSH       0000001884200000                                                                             
D000013006057601827904032012151036นายวิศว คาดหมาย                                   88079984            75216353                                07960037CCSH       0000001884200000                                                                             
D000014006057601827904032012155654ชะอ้อน                                            88799593            84219334                                04700261CCSH       0000000034300000                                                                             
D000015006057601827904032012165056บุญเลิศ ทองเตี้ย                                  88778399            05219356                                04700261CCSH       0000001878600000                                                                             
D000016006057601827904032012165409นายสมพร ไกรศรศรี ทศ1644                           88169897            46211364                                10150069CCSH       0000001650000000                                                                             
D000017006057601827904032012182450นาย ประจบ โตพิทักษ์ ทว7333                        8807-8398           3321-7353                               10090237CCSH       0000001979600000                                                                             
D000018006057601827904032012183430นายประสาน ไชยแสง                                  88548399            106159803                               08003818CCSH       0000001953000000                                                                             
T000019006057601827900000000000000000000000026585900000017                                                                                                                                                                                                      
