H0000010060576018279บริษัท ไทเอซ สิสซิ่ง จำกัด              22122011TALHO                                                                                                                                                                                       
D000002006057601827922122011084101นางสาว สุวภัทร พรประภาศักดิ์ ทศ 4918              88469198            89214361                                01200200CCSH       0000001794600000                                                                             
D000003006057601827922122011091555นายพัฒนชัย  เกลี้ยงดา                             88528399            107125872                               02170046CCSH       0000000569600000                                                                             
D000004006057601827922122011092320ด.ต.พชร ดีพอ มฉ 5607                              8817-9890           7631-5070                               04991118CCSH       0000001515300000                                                                             
D000005006057601827922122011093104นางศิรินภา  จิตตะยะโสภณ                           88479596            87214359                                06921923CCSH       0000002346000000                                                                             
D000006006057601827922122011094801นาย ปิยะ ประทีปช่วง ทศ 3805                       88669792            58213360                                00720609CCSH       0000001799200000                                                                             
D000007006057601827922122011094902นายสุวัฒน์  ตั้งตระกูล                            88501899            104123798                               09760540CCSH       0000001867300000                                                                             
D000008006057601827922122011095511นส.สมพิตย์ อาสาเน                                 8849-8297           6421-3347                               01101667CCSH       0000000712400000                                                                             
D000009006057601827922122011095535นายสมชัย คณฑา                                     8816-9292           3621-6314           ทม.6643             00820884CCSH       0000000509800000                                                                             
D000010006057601827922122011100103นายสุรัตน์ จิตตนาค                                8878-9190           0421-9344           ทล 9440             00820884CCSH       0000001752000000                                                                             
D000011006057601827922122011100441นายพิเชษฐ แก้วมา ทว2775                           88179898            57212357                                02501874CCSH       0000001791300000                                                                             
D000012006057601827922122011101401นาย โยธิน มาดลย์  ทว 3506                         8837-9997           6521-3350                               04581882CCSH       0000001884200000                                                                             
D000013006057601827922122011101421มลตรี  ธัญญเจริญ                                  88593798            106204005                               00397779CCSH       0000001868500000                                                                             
D000014006057601827922122011103047นายศราวุฒิ  สุขพัฒน์                              8828-9997           5121-4343           ทล4135              08690266CCSH       0000001665500000                                                                             
D000015006057601827922122011103137นายศราวุฒิ  สุขพัฒน์                              8838-9892           8021-6346           ทล6068              08690266CCSH       0000001700000000                                                                             
D000016006057601827922122011104515นาง นงนุช สุทธาวาส                                88669298            16211361            ทศ1611              01950405CCSH       0000001884200000                                                                             
D000017006057601827922122011104630นายไพโรจน์   บุญขันธ์                             88510999            106151163                               00830886CCSH       0000001716900000                                                                             
D000018006057601827922122011104716ด.ต.สมศักดิ์ อรชุน                                88530499            107033723           มง7317              05750020CCSH       0000000517200000                                                                             
D000019006057601827922122011105038หนู มั่นแม่น ทล5624                               88089893            46215342                                00980134CCSH       0000003255800000                                                                             
D000020006057601827922122011105225น.ส.ปวีณา บัวเพชร                                 88599898            106203903                               08771836CCSH       0000002248400000                                                                             
D000021006057601827922122011105355ภูพนา ทองสมบูรณ์                                  88079990            66218353            0837181117          04607752CCSH       0000001799200000                                                                             
D000022006057601827922122011112238นาย สุวรรณ์ ศรีวิพัฒน์ ทษ1104                     88509899            106199334                               00720167CCSH       0000001918100000                                                                             
D000023006057601827922122011112335พล ชะนะมี                                         88779796            12314078                                01990942CCSH       0000001867800000                                                                             
D000024006057601827922122011113037นายศิริมงคล เจริญศิริ                             88379992            15217352            ทว7521              10151005CCSH       0000001700000000                                                                             
D000025006057601827922122011113228นายศิริมงคล เจริญศิริ                             88279992            05217352            ทว7520              10151005CCSH       0000001700000000                                                                             
D000026006057601827922122011114001สันต์ชัย                                          88502799            104122463                               05970092CCSH       0000001891800000                                                                             
D000027006057601827922122011114856นายประยุทธ อยู่ยงค์ ทล 9445                       88688799            54219344                                04780120CCSH       0000001700000000                                                                             
D000028006057601827922122011114911นายสำรวย ทองแย้ม                                  88869798            86310058                                08690335CCSH       0000000473700000                                                                             
D000029006057601827922122011115933พ.อ.อ.สมชาย ชมนาค                                 88089995            14214322                                11520403CCSH       0000001612000000                                                                             
D000030006057601827922122011120138นาง นิตยา วรสาร                                   88369893            03213363                                08771836CCSH       0000001175500000                                                                             
D000031006057601827922122011120932ธนะจิตต์  พึ่งโพธิ์สภ                             88388689            25210351            ทว512               08690266CCSH       0000001700000000                                                                             
D000032006057601827922122011121513นาย อภิศักดิ์ ลือเมือง ทร 5532                    88868897            25215333                                01481887CCSH       0000001205700000                                                                             
D000033006057601827922122011122730น.ส.นิลวรรณ สมประสงค์                             88539889            107022140                               04951583CCSH       0000000567100000                                                                             
D000034006057601827922122011124030นายธีระ เสือทอง ทล3806                            88889398            68213340                                02530836CCSH       0000001665500000                                                                             
D000035006057601827922122011124227นายพิเชษฐ นาคพน มฉ1140                            88503399            107161265                               01971063CCSH       0000001333000000                                                                             
D000036006057601827922122011124504ธันวา  ณะธรรม                                     88760099            107137557                               07540487CCSH       0000000400000000                                                                             
D000037006057601827922122011124617นางสาวพัชรินทร์  พงศ์สิริสาโรช ชป5924             88512499            700011980                               05690707CCSH       0000001284400000                                                                             
D000038006057601827922122011125751น.ส.นงลักษณ์ ศรีชมชื่น                            88527899            104119706                               00336716CCSH       0000001855400000                                                                             
D000039006057601827922122011130419น.ส.เพชรมณี สิงห์วิชัย                            88389780            09219323                                00559887CCSH       0000000750000000                                                                             
D000040006057601827922122011132344นางวิจิตรา ลาวัณย์วิจิตร ทว 1587                  88188997            75211358                                00610829CCSH       0000001884200000                                                                             
D000041006057601827922122011133311หนูนิจ เอกก้านตรง                                 88079783            21212328                                01561166CCSH       0000002135000000                                                                             
D000042006057601827922122011134804นาย วลิล มะลิต้น  ทย 6326                         88189791            63216322                                04581882CCSH       0000001500000000                                                                             
D000043006057601827922122011135115นายคงศักดิ์ กองทอง                                88527799            104119626                               00282352CCSH       0000001645300000                                                                             
D000044006057601827922122011135507ประสงค์ มาศิริ                                    88591698            107075791                               00951079CCSH       0000001080000000                                                                             
D000045006057601827922122011140021นายจำปี ราวิทย์                                   88588999            31219348                                03150686CCSH       0000001700000000                                                                             
D000046006057601827922122011140702นายเกียรติศักดิ์ บุญเอก                           8886-9996           5321-2322                               11330213CCSH       0000002449000000                                                                             
D000047006057601827922122011141012นายปรีชา บุญมั่น ทว 8783                          88679790            37218358                                11460299CCSH       0000001980000000                                                                             
D000048006057601827922122011141148นายพลอย  เถาว์พุดซา ทว 727                        88488898            77210352                                00610756CCSH       0000001700000000                                                                             
D000049006057601827922122011141806นายวิเชต มารกลม                                   88789994            61215346                                07531324CCSH       0000002012500000                                                                             
D000050006057601827922122011142904นายสมเกียรติ สีธงชัยรุ่งโรจน์ ทม8572              8846-9396           2521-8317                               00980495CCSH       0000001495700000                                                                             
D000051006057601827922122011144731นางบุณยานิตย์ ศิริรักษ์                           8898-8297           6821-3339                               09740387CCSH       0000000657300000                                                                             
D000052006057601827922122011145035นายเสน่ห์ ยิกุสังข์                               88798897            50213345                                10294192CCSH       0000001504500000                                                                             
D000053006057601827922122011145325นายแพน  ชนะพาล                                    88769695            43317071                                05760270CCSH       0000001705000000                                                                             
D000054006057601827922122011151632นางกาญจนา  ด่านวิริยะกุล                          88869896            96215323                                00950177CCSH       0000001123000000                                                                             
D000055006057601827922122011153909นาง จรรยา อินทศร  ทล 8704                         8846-9793           4721-8340                               04581882CCSH       0000002096000000                                                                             
D000056006057601827922122011155630นาย นรชัย  แพงศร  ทศ2128                          8896-9896           8121-2362                               09760540CCSH       0000001884200000                                                                             
D000057006057601827922122011162948น.ส.วชิราภรณ์  นุชสุข                             8877-9794           1221-6358                               09620418CCSH       0000001787800000                                                                             
D000058006057601827922122011163321นายณรงค์ชัย อารีรักษ์ ทศ1973                      88669887            39211367                                07960037CCSH       0000001833500000                                                                             
D000059006057601827922122011175135นายทัชพล โคตรวงษ์                                 88959894            07213322                                09760107CCSH       0000001565000000                                                                             
D000060006057601827922122011180454น.ส.สุวรรณี แก้วแจ่มใส ทศ 7920                    8885-9396           0921-7362                               05700767CCSH       0000000130000000                                                                             
D000061006057601827922122011181206นางสาวประทุม ตรีภักดิ์  ทว 9997                   88278989            79219359                                10090081CCSH       0000001879400000                                                                             
D000062006057601827922122011182707นายสมพร พงษ์เหล่างิ้ว                             88459897            17313053                                10810244CCSH       0000001382000000                                                                             
D000063006057601827922122011182923นายวรวิทย์  และสง่า ทว 3030                       8806-9697           0021-3353                               05690088CCSH       0000001600000000                                                                             
T000064006057601827900000000000000000000000096726800000062                                                                                                                                                                                                      
