H0000010060576018279บริษัท ไทเอซ สิสซิ่ง จำกัด              26072011TALHO                                                                                                                                                                                       
D000002006057601827926072011083202นายวินัย ผลดี ทว 6853                             8827-9784           3821-6355                               10200754CCSH       0000001884200000                                                                             
D000003006057601827926072011083844นายไพฑูรย์ วันเชียง                               88789997            81214342                                00480616CCLQ266689 00000012690000040042                                                                         
D000004006057601827926072011084302นางเสน่ห์  อินสุ                                  88779690            47218358                                01900549CCSH       0000001652200000                                                                             
D000005006057601827926072011091459กมล  แต้มสว่าง                                    8836-9590           8421-8335                               00911062CCSH       0000001498000000                                                                             
D000006006057601827926072011093131นางสัมฤทธิ์ เกิดชู                                8846-9498           4421-0326           ทย464               00741604CCSH       0000000995100000                                                                             
D000007006057601827926072011093919หจก.วินคาร์ ทล1134                                88699491            41211343                                00470517CCLQ302064400000015896000110131                                                                         
D000008006057601827926072011094257นางสาววรรณา ท้วมเหลือ ทว 9960                     8887-8698           0921-9356                               00960166CCSH       0000001884200000                                                                             
D000009006057601827926072011094427นางสุพัตรา ภิรมย์ขวัญ ทว 8951                     8837-9790           1921-8355                               00960166CCSH       0000001884200000                                                                             
D000010006057601827926072011094620นางรุ่งรวี ไชยสงค์ มช877                          8805-9794           7831-0087                               02680531CCSH       0000001846600000                                                                             
D000011006057601827926072011101016พลฯศุภมงคล สร้อยสายอุบล                           8877-9888           1621-3321                               00190830CCSH       0000000944000000                                                                             
D000012006057601827926072011101846นายสมชัย คณฑา                                     8858-8698           3621-6314                               00282352CCSH       0000000510600000                                                                             
D000013006057601827926072011102658นายเผชิย  โพธิ์ศรี                                8837-9395           7021-6350                               00610756CCSH       0000001884200000                                                                             
D000014006057601827926072011102833นายวีระศักดิ์ ธิโสภา มฉ 963                       8898-9698           3931-0076                               08560792CCSH       0000001665500000                                                                             
D000015006057601827926072011105428ณรงค์                                             88259998            88216361            ทศ6818              07966650CCSH       0000003216000000                                                                             
D000016006057601827926072011105618ณรงค์                                             88559798            78216367            ทศ6877              07966650CCSH       0000003216000000                                                                             
D000017006057601827926072011105811ณรงค์                                             88459798            88216365            ทศ6858              07966650CCSH       0000003216000000                                                                             
D000018006057601827926072011110104นาย สิทธิศักดิ์ สุริยะศรี ทศ2855                  88569295            58212365                                10070071CCSH       0000000210000000                                                                             
D000019006057601827926072011110438นาย สุรเดช ถนอมชื่น มง 5045                       8827-9092           5031-5054                               04780158CCSH       0000001584700000                                                                             
D000020006057601827926072011110553นาย สุรัตน์ จิตตนาค ทล9440                        8878-9190           0421-9344                               00000122CCSH       0000001755300000                                                                             
D000021006057601827926072011110756จ.ส.ต.เสกสรรค์ กลิ่นรอด ทว4998                    8847-9496           8921-4359                               01991041COTH       0000001799200000                                                                             
D000022006057601827926072011111206นาย บุญเทิด มาชุมแสง มฉ 5022                      8877-9593           2031-5072                               06910533CCSH       0000001734300000                                                                             
D000023006057601827926072011111657จ.ส.อ.ประดิษฐ์ ยุบลนวน                            88319291            98211327                                11250232CCSH       0000001447900000                                                                             
D000024006057601827926072011112021จ.ส.อ. สุรพล  ชุมพลพันธ์ มฉ 4059                  8877-9997           9031-4075                               00530118CCSH       0000001875000000                                                                             
D000025006057601827926072011112503นายวิวัฒน์ ปฐมฤกษ์สกุล                            8858-9296           0531-1075                               03950504CCSH       0000001757800000                                                                             
D000026006057601827926072011112811สุพล สืบดี ทย 4956                                88789397            69214325                                07960038CCSH       0000001650000000                                                                             
D000027006057601827926072011114812พันธวัช  ยันฝาก                                   8818-9982           4731-3053                               00390613CCSH       0000001010600000                                                                             
D000028006057601827926072011115346นายโอวาท ศรีตระกูลพร                              8836-9598           8631-6072                               02500849CCSH       0000001661000000                                                                             
D000029006057601827926072011120817นางสาว พรรณ์สกุล  พันธ์พรหม                       88288998            66210355                                00981066CCSH       0000001873200000                                                                             
D000030006057601827926072011121116นายประเสริฐ แพงจันทร์ศรี                          8846-9891           9921-3348                               10860861CCSH       0000001658500000                                                                             
D000031006057601827926072011121717น.ส.นริศรา  แปนสวย                                8885-9896           0621-7364           ทศ7640              11470668CCSH       0000001863100000                                                                             
D000032006057601827926072011122102นายคมสัน  รื่นเริง ทย 3552                        8851-8399           2521-3325                               00650326CCSH       0000000529100000                                                                             
D000033006057601827926072011122124นายทวีป                                           8896-9597           6621-3339                               06991739CCSH       0000000863800000                                                                             
D000034006057601827926072011122516นายอนุชา สอนเสนา                                  88989983            06215343            ทล 5630             01528111CCSH       0000001567200000                                                                             
D000035006057601827926072011122829สมรภูมิ กุลสุวรรณ์ มง7695                         88769294            56317059                                08566520CCSH       0000001177000000                                                                             
D000036006057601827926072011124106นายวันชัย เอี่ยมผ่องใส ทศ 2429                    8876-9796           9421-2362                               02530654CCSH       0000001884200000                                                                             
D000037006057601827926072011124908นายมงคล  พลรักษา ทว 9440                          4857-8999           0421-9354                               04670595CCSH       0000001799200000                                                                             
D000038006057601827926072011131814นาย สุริยัน  ขำดำ                                 8897-9791           6521-8338                               01230233CCSH       0000001697800000                                                                             
D000039006057601827926072011134505นายณรงค์ ประทุมวัน ถน 2630                        8897-9686           0620-2233                               01910149CCSH       0000000700000000                                                                             
D000040006057601827926072011140113นายสัญญา กังวานไกล                                885577997           30210364            ทศ43                00540034CCLQ384700 00000018842000140120                                                                         
D000041006057601827926072011140635นายจำนงค์  นันโท                                  8885-9194           7431-9053                               05760270CCSH       0000000982100000                                                                             
D000042006057601827926072011141625สุพจน์   ภาคฐิน                                   88469897            76211362                                10330395CCSH       0000001864400000                                                                             
D000043006057601827926072011141648นายอภิชิต สุวรรณคณารักษ์                          8837-9093           6021-0348                               01860389CCSH       0000000234500000                                                                             
D000044006057601827926072011142147หนู มั่นแม่น                                      88089893            46215342                                00980495CCSH       0000001617900000                                                                             
D000045006057601827926072011142906นายพรรษ  เสริมทอง                                 8835-9796           0831-2063                               06830515CCSH       0000001437400000                                                                             
D000046006057601827926072011143335ปริศนา  สงวนงาม ทศ 6697                           88659998            76216369                                01451218CCSH       0000001725700000                                                                             
D000047006057601827926072011144115ถนอม  ไพจิตร                                      8806-9894           3031-6067                               00390613CCSH       0000001000000000                                                                             
D000048006057601827926072011145231นาย ปุณยาวัจน์  บุญน้อม มฉ2551                    8838-9791           15312075                                11540466CCSH       0000001432800000                                                                             
D000049006057601827926072011145455พ.อ.หญิง วิภาจรี ณ ตะกั่วทุ่ง ทล803               88699791            38210340                                04731091CCSH       0000001665500000                                                                             
D000050006057601827926072011145610นาง พรทิพา วิเชียรโชติ ทล806                      88899791            68210340                                04731091CCSH       0000001665500000                                                                             
D000051006057601827926072011145645นายขวัญเมือง อยู่คง                               88098897            81213342                                01340917CCSH       0000001831600000                                                                             
D000052006057601827926072011150640นายพิบูล บุตรอำคา                                 88279783            51215327                                00740081CCSH       0000001031600000                                                                             
D000053006057601827926072011151947นายยงยุทธ  บรรจง  มฉ 708                          8889-8997           8731-0070                               03991081CCSH       0000001665500000                                                                             
D000054006057601827926072011152436นายอมร จันทร์ไว                                   8899-8398           0321-2349                               06232183CCSH       0000001713900000                                                                             
D000055006057601827926072011162337นิธิกานต์ วัฒนถนอม                                8835-9897           8321-7368                               10810606CCSH       0000002297300000                                                                             
D000056006057601827926072011164508คุณ วิชาญ หนูไชยแก้ว มฉ6818                       88669997            88316071                                11250101CCSH       0000000939900000                                                                             
D000057006057601827926072011164711นาย สุนทร ทองไพรวรรณ ทว2734                       8838-8597           4721-2353                               08450531CCSH       0000001890000000                                                                             
D000058006057601827926072011165416นาย พิเชษฐ์ ศรีหาประทุม ทล 3731                   88589598            17213343                                08401304CCSH       0000000500000000                                                                             
D000059006057601827926072011172106นาง ฉวีวรรณ ลาภบริสุทธิ์ ทล 805                   8839-9791           5821-0340           0843367232          07620610CCSH       0000001261500000                                                                             
D000060006057601827926072011175811ปริญญา คงคาสุริยฉาย                               8817-9090           9908-9403                               10330064CCSH       0000001130000000                                                                             
D000061006057601827926072011180826จ.ส.ต.ยุทธภูมิ รัตนบัติ ทร 517                    8836-9196           7521-0331                               10050826CCSH       0000001105900000                                                                             
D000062006057601827926072011185758นายยุทธพงศ์ เพิ่มพรพิทักษ์ ทร1695                 8867-9393           5621-1339                               10360725CCSH       0000001580000000                                                                             
D000063006057601827926072011192006นายสมพงษ์ ดารักษ์ ทล593                           8896-9391           3521-0349                               10360725CCSH       0000000900000000                                                                             
D000064006057601827926072011194929นายณรงค์  บุญพิศาล  ทม 6073                       8847-9190           3021-6317                               04670988CCSH       0000001319600000                                                                             
T000065006057601827900000000000000000000000095931100000063                                                                                                                                                                                                      
