H0000010060576018279บริษัท ไทเอซ สิสซิ่ง จำกัด              30102011TALHO                                                                                                                                                                                       
D000002006057601827930102011101548ร.ท.จักรกฤษณ์ เพียรพิจิตร ทศ 9799                 88379697            97219369                                07930240CCSH       0000001720000000                                                                             
D000003006057601827930102011101750ร.ท.จักรกฤษณ์ เพียรพิจิตร ทศ9499                  88779698            94213359                                07930240CCSH       0000001720000000                                                                             
D000004006057601827930102011101932ร.ท.จักรกฤษณ์ เพียรพิจิตร ทศ 9199                 88779998            91219369                                07930240CCSH       0000001770000000                                                                             
D000005006057601827930102011102116ร.ท.จักรกฤษณ์ เพียรพิจิตร ทว 9969                 88989891            99219356                                07930240CCSH       0000001800000000                                                                             
D000006006057601827930102011102256ร.ท.จักรกฤษณ์ เพียรพิจิตร ทศ9599                  88179988            95219369                                07930240CCSH       0000001720000000                                                                             
D000007006057601827930102011102425ร.ท.จักรกฤษณ์ เพียรพิจิตร ทล6572                  88069793            25216347                                07930240CCSH       0000001020000000                                                                             
D000008006057601827930102011102933นาย สุนทร ทองไพวรรณ ทว 2734                       88388597            47212353                                08450154CCSH       0000001890000000                                                                             
D000009006057601827930102011113124นายพิทักษ์ วรรณไทย มจ301                          88579090            1331-0060                               04810743CCSH       0000000868800000                                                                             
D000010006057601827930102011113539นายวิษณุ ไชยา  ทศ2527                             8886-9396           7521-2362                               10320014CCSH       0000002188000000                                                                             
D000011006057601827930102011120657ด.ต.ชาญ  ทับพุ่ม                                  88798198            66211310                                08644543CCSH       0000001464000000                                                                             
D000012006057601827930102011123220นางกันจนี คนหาญ                                   88537699            106198236                               04831051CCSH       0000001883800000                                                                             
D000013006057601827930102011124806นาย ปวเรศ  วงษ์อามาตย์  ทศ 1965                   8836-9990           5921-1366                               04880055CCSH       0000001519000000                                                                             
D000014006057601827930102011130230นายประสูตร อินทรรักษ์                             88079695            08215351                                05700914CCSH       0000001880000000                                                                             
D000015006057601827930102011130520นายประยูร  โพธิ์บริสุทธิ์                         8847-9587           0921-2311                               04931325CCSH       0000001683000000                                                                             
D000016006057601827930102011135320นาง เครือฟ้า  สุขกล้า  ทม 7229                    8818-9393           9221-7312           089-6826897         08690033CCSH       0000001618000000                                                                             
D000017006057601827930102011135610นายวินัย กองเงินนอก มฉ 5023                       8877-9884           3031-5072           0853228317          07620610CCSH       0000001700000000                                                                             
D000018006057601827930102011143259นางนิธิกานต์ วัฒนถนอม                             88359897            83217368                                10810277CCSH       0000002331600000                                                                             
D000019006057601827930102011150005นายยอดชาย ชำจำรูญ                                 88498199            82212349                                10721605CCSH       0000001450400000                                                                             
D000020006057601827930102011163248นางสาวปนันดา สาระวัน ทว 5166                      88879886            61215356                                02501180CCSH       0000001454900000                                                                             
D000021006057601827930102011171949นายธานี ชาญตะบะ                                   88298797            74213344            ทล3447              08510518CCSH       0000001665500000                                                                             
T000022006057601827900000000000000000000000033347000000020                                                                                                                                                                                                      
