H0000010060576018279บริษัท ไทเอซ สิสซิ่ง จำกัด              26102011TALHO                                                                                                                                                                                       
D000002006057601827926102011093436นางสาว  ทองไสย  สิงห์น้อย                         88068898            67215363                                00251980CCSH       0000001800000000                                                                             
D000003006057601827926102011093505นาง ธัญญารัตน์ ภักดี ทล7840                       8808-9781           0821-7344                               03180589CCSH       0000001644000000                                                                             
D000004006057601827926102011093828นายมงคล หลักทอง                                   88279881            00315061                                00443099CCSH       0000001388000000                                                                             
D000005006057601827926102011101909ศุภมงคล  สร้อยสายอุบล                             88779888            16213321                                00650498CCSH       0000001782400000                                                                             
D000006006057601827926102011102410นายชิ้น  ทองไพรวรรณ ทว7605                        88579692            56217350                                00820726CCSH       0000001894000000                                                                             
D000007006057601827926102011111202นาย วีระศักดิ์ ธิโสภา                             88989698            39310076                                09621104CCSH       0000001700000000                                                                             
D000008006057601827926102011111440พิสิฐพงศ์ พันจำปา                                 88959397            23212359                                04710657CCSH       0000001850000000                                                                             
D000009006057601827926102011111934สมพงษ์ ดารักษ์ ทล 593                             8896-9391           3521-0349                               10150151CCSH       0000000958000000                                                                             
D000010006057601827926102011112716นายบุญเทิด มาชุมแสง                               8877-9593           2031-5072                               06910768CCSH       0000001734300000                                                                             
D000011006057601827926102011113940นางสาววิยะดา ยิ่งยงค์  ทศ 750                     8897-8197           0721-0365                               05670558CCSH       0000001884200000                                                                             
D000012006057601827926102011115628นางสุวทณีย์ จิตต์สนธิ                             88757697            48317074                                00611046CCSH       0000001799200000                                                                             
D000013006057601827926102011115724นายบุญฤทธิ์ ศรีสุยิ่ง                             8887-9586           0431-3053                               11500535CCSH       0000000808500000                                                                             
D000014006057601827926102011120543นางชนาทิพย์  สาทสนิท ทศ 9480                      88524899            107034554                               01951095CCSH       0000001489500000                                                                             
D000015006057601827926102011120758นางสาว ชฎารัตน  ช่อกลาง  ทว117                    8816-7497           7121-0351                               05710586CCSH       0000001640000000                                                                             
D000016006057601827926102011120814นายเฉลิม  จันทร์สอน                               88967097            54316066                                05760270CCSH       0000001010600000                                                                             
D000017006057601827926102011121227นาย ชัชวาล  แสงอาวุธ                              88559595            63218365                                08401304CCSH       0000001828800000                                                                             
D000018006057601827926102011122928นายศุภณัฏฐ์ ใจกล้า                                88667197            02313076                                00336716CCSH       0000001124500000                                                                             
D000019006057601827926102011123717น.ส.นงลักษณ์ ใหม่คำ                               88502099            016000069                               00760677CCSH       0000000499400000                                                                             
D000020006057601827926102011123925นายสิทธิวิชญ์ เกษมพงศ์วณิช                        88368497            61315077                                01820662CCSH       0000001429200000                                                                             
D000021006057601827926102011124114นายตะวัน ประสพวงค์ มจ8810                         88669391            08318061                                07930727CCSH       0000000504900000                                                                             
D000022006057601827926102011125345นายประยุทธ อยู่ยงค์ ทล9445                        88688799            54219344                                04780120CCSH       0000001700000000                                                                             
D000023006057601827926102011130236น.ส.วิวรรณ  ละม้ายโสม                             88778699            73219358                                02170215CCSH       0000001988500000                                                                             
D000024006057601827926102011132401นายวิชาญ หนูไชยแก้ว                               8866-9997           8831-6071                               11250232CCSH       0000000939900000                                                                             
D000025006057601827926102011133055นาง พัชรี  ศรีหาประทุม  ทม  8664                  8876-9491           4621-8316                               08400047CCSH       0000000808500000                                                                             
D000026006057601827926102011133236นายอินผล อินมาตย์ ทล9586                          8888-8899           6521-9348                               00940109CCSH       0000002116700000                                                                             
D000027006057601827926102011135230นางเยาวะรัชน์   โคมแก้ว                           8895-9194           0821-2335                               04585612CCSH       0000000646800000                                                                             
D000028006057601827926102011135453นาย สุรพงษ์ วงศ์กำภู                              88534099            104119420                               04780201CCSH       0000001878800000                                                                             
D000029006057601827926102011135527นายทองหล่อ  โภคา  ทล  6900                        88789492            09216340                                03970523CCSH       0000001700000000                                                                             
D000030006057601827926102011141017นายทนงศักดิ์  คงแก้ว  ทล 1874                     88798899            48211347            081-0775863         08690033CCSH       0000001248600000                                                                             
D000031006057601827926102011141137นายทนงศักดิ์  คงแก้ว  ทล 1875                     88698899            58211347            081-0775863         08690033CCSH       0000001248600000                                                                             
D000032006057601827926102011143118วีระยุทธ เคลือบคนโท                               8857-9795           0721-5358                               06107381CCSH       0000001983500000                                                                             
D000033006057601827926102011144742นายมาโนช นภากาศ มฉ4628                            88079795            86314072                                11521521CCSH       0000002108800000                                                                             
D000034006057601827926102011151259นางสาวนริสรา  แปนสวย                              8885-9896           0621-7364                               03970257CCSH       0000001828800000                                                                             
D000035006057601827926102011152741นายวุฒิชัย รักษจิตร                               88769591            54315052                                07347293CCSH       0000000489300000                                                                             
D000036006057601827926102011154415ร.อ.ณัฐ กาญจนโรจน์ ทว8893                         8897-9590           3821-8359                               04770663CCSH       0000002082100000                                                                             
D000037006057601827926102011181750บุญเลิศ  ทองเย็น                                  8868-9798           7621-3348                               08458451CCSH       0000001699740000                                                                             
D000038006057601827926102011191144นาง บัวลี บุญใหญ่                                 8836-9196           7521-0331                               10050475CCSH       0000001105700000                                                                             
T000039006057601827900000000000000000000000054343840000037                                                                                                                                                                                                      
