H0000010060576018279บริษัท ไทเอซ สิสซิ่ง จำกัด              01022012TALHO                                                                                                                                                                                       
D000002006057601827901022012083420นายเพชร สูตรอุดม ทย 4908                          88659297            89214320                                04731091CCSH       0000001287300000                                                                             
D000003006057601827901022012085736สำรวย มูหะหมัดสะแระ                               88522899            107112791           7987                01472126CCSH       0000001450000000                                                                             
D000004006057601827901022012093349นายถวิล  นาโควงค์  ทว6477                         88179294            74216357                                00750201CCSH       0000001884200000                                                                             
D000005006057601827901022012093922ประพนธ์ ละม้ายแข                                  88879498            79212357                                00530428CCSH       0000001700000000                                                                             
D000006006057601827901022012094345นาย ประยูร วิเศษนอก 0892336293                    8876-9190           7721-7355                               00370077CCSH       0000000198500000                                                                             
D000007006057601827901022012095103นายจักรกฤษณ์ กุหลาบ                               8898-8199           1821-9343                               01270128CCSH       0000001795300000                                                                             
D000008006057601827901022012102544อัสเราะมะห์ ปานมณี                                88859894            17219330            0843211566          04607752CCSH       0000000772000000                                                                             
D000009006057601827901022012104048จันทา  ชัยราช  ทศ 1736                            88069597            67211363                                02530516CCSH       0000001918500000                                                                             
D000010006057601827901022012104800นาย แอน หวังผล ทศ 8419                            8865-9495           9421-8361                               00430085CCSH       0000001505200000                                                                             
D000011006057601827901022012104920นายมัน พรมนิมิต                                   8848-8999           8131-3073                               05761504CCSH       0000000740000000                                                                             
D000012006057601827901022012105417นางอนงค์ พงศ์โสภี                                 88279597            18213350                                05758278CCSH       0000001622400000                                                                             
D000013006057601827901022012105859นางดารา  ผลจันทร์                                 88268798            02211347                                03970523CCSH       0000001686300000                                                                             
D000014006057601827901022012110232นายจตุรพร สมมิตร ทว 7293                          8807-9093           3221-7359                               00130105CCLQ773654 00000023812000140080                                                                         
D000015006057601827901022012110410นายจตุรพร สมมิตร ทว 2513                          8828-8297           3521-2351                               00130105CCLQ773654 00000018188000140888                                                                         
D000016006057601827901022012110623นายพสิษฐ์ สกุลวา                                  88869893            91316072                                01871097CCSH       0000002062000000                                                                             
D000017006057601827901022012110817นายวิน แซ่วี                                      88524699            104120696                               00241780CCSH       0000001867300000                                                                             
D000018006057601827901022012111223นายอำนาจ กฤษณะเศรณี0885583281                     88569986            65212364                                04701737CCSH       0000001515300000                                                                             
D000019006057601827901022012111302นายพิพัฒน์  ธัญญพืช                               88678998            73316063                                05690707CCSH       0000001091600000                                                                             
D000020006057601827901022012111312นายอำนาจ กฤษณะเศรณี0885583281                     88514789            104122466                               04701737CCSH       0000001689400000                                                                             
D000021006057601827901022012111441นายทศพล ดวงมาลี                                   8848-8998           6331-3075                               07990501CCSH       0000001914200000                                                                             
D000022006057601827901022012112626นายบวรพลภ์  สุนทราธนาทิพย์                        88479995            06215359                                11470668CCSH       0000001556500000                                                                             
D000023006057601827901022012113039นายพิชิด พรหมมาวัน                                8805-9296           9331-0080                               11190731CCSH       0000001846600000                                                                             
D000024006057601827901022012120059นางสาวพิรุณรัตน์  ยงท้วม                          88079390            72219354                                01410494CCSH       0000001941000000                                                                             
D000025006057601827901022012122629นายวุฒิชัย  มาตชะรา  ทศ  8754                     88549499            104115407                               04990266CCSH       0000001901600000                                                                             
D000026006057601827901022012123504นางศศิญา จันทร์สิน ทล 7296                        88589491            62217349                                04780061CCSH       0000001700000000                                                                             
D000027006057601827901022012123558นายมานะ ขำสุวรรณ                                  88559698            78216361                                01480560CCSH       0000001839700000                                                                             
D000028006057601827901022012124512น.ส.เจนนภา ไทยเจริญ ทว 6432                       88747299            106144748                               01481887CCSH       0000000150000000                                                                             
D000029006057601827901022012125651น.ส.ณิชนันทน์ ใจอุ่น                              88591798            104125690                               07620489CCSH       0000002126300000                                                                             
D000030006057601827901022012125741พรศักดิ์ วีระพันธ์ ทว 6961                        88479593            19216356                                11300564CCLQ342667700000016000000020187                                                                         
D000031006057601827901022012125905พรศักดิ์ วีระพันธ์                                88479593            19216356                                11300564CCLQ342667800000016000000020187                                                                         
D000032006057601827901022012130128นางสาว ดวงกมล ห้องแซง                             88979881            65218352                                01200200CCSH       0000001744300000                                                                             
D000033006057601827901022012132006นายบุญเที่ยง   บุญผ่อง                            88289397            72311079                                01200195CCSH       0000001109800000                                                                             
D000034006057601827901022012132206นาย ไพบูลย์ วิทิตกนกปรีดา ทพ9736                  8876-8198           6721-9283                               04650665CCSH       0000001052200000                                                                             
D000035006057601827901022012133345นายเกียรติศักดิ์ ธานีรัตน์ ศษ4270                 88513889            204139410                               01800267CCSH       0000000600000000                                                                             
D000036006057601827901022012134640นางอุบลรัตน์ บัวเพชร                              88178098            13210363                                02611283CCSH       0000001884200000                                                                             
D000037006057601827901022012134748นางอุบลรัตน์ บัวเพชร                              88573698            104123353                               02611283CCSH       0000002289800000                                                                             
D000038006057601827901022012134836นายปวเรศ วงษ์อามาตย์ ทศ 1965                      88369990            59211366                                00650326CCSH       0000003003900000                                                                             
D000039006057601827901022012135914นายไพรสน คำอ่อน ทศ 6093                           8836-8398           3021-6369                               09740261CCSH       0000001913800000                                                                             
D000040006057601827901022012140334นายไพรสน คำอ่อน ทศ 6393                           8876-8697           3321-6369                               09740261CCSH       0000001906000000                                                                             
D000041006057601827901022012140629นายไพรสน คำอ่อน ทศ 6693                           8835-9898           3621-6369                               09740261CCSH       0000001901000000                                                                             
D000042006057601827901022012140737นายไพรสน คำอ่อน ทศ 7893                           88259496            38217369                                09740261CCSH       0000001879600000                                                                             
D000043006057601827901022012140836นายไพรสน คำอ่อน ทศ 7993                           88159496            39217369                                09740261CCSH       0000001879600000                                                                             
D000044006057601827901022012141628นางสาวเมตตา ตะคุณนะ ทว756                         88288498            67210355                                05671599CCSH       0000002181000000                                                                             
D000045006057601827901022012141814ด.ต.วิรัตน์ ตะคุณนะ ทว1428                        88388498            84211352                                05671599CCSH       0000002015900000                                                                             
D000046006057601827901022012142718นายอวิรุจ บุทธิจักร                               88779093            41217353                                08690335CCSH       0000001886000000                                                                             
D000047006057601827901022012144850คำพูน สะหุนันต์                                   88568997            31319078                                10990515CCSH       0000001153400000                                                                             
D000048006057601827901022012145351นายสุนัย พรมไพโรจน์                               88789292            24216346                                09760107CCSH       0000001700000000                                                                             
D000049006057601827901022012145637นงลักษณ์  ใหม่คำ                                  88502099            016000069                               04830668CCSH       0000000769000000                                                                             
D000050006057601827901022012151429นายกิจจา   คลังเพ็ชร                              88568398            02318059                                02503235CCSH       0000000627700000                                                                             
D000051006057601827901022012151437นางอำพร พันธุ์ไพโรจน์ ทษ612                       88516399            104122440                               05674254CCSH       0000001635200000                                                                             
D000052006057601827901022012152202นายอดิศร ดีปัญญา  ทล 9827                         8858-8299           7821-9342                               03780040CCSH       0000001838900000                                                                             
D000053006057601827901022012153009นายประสงค์ มาศิริ                                 88591698            107075791           ทม 5909             00950541CCSH       0000001052600000                                                                             
D000054006057601827901022012154741เมตตา นวนน้ำจิตต์                                 88159795            84310089                                05780382CCSH       0000001812300000                                                                             
D000055006057601827901022012162307นายธนภัทร จันทร์หอมกุล ทศ 6816                    88659698            68216361                                05670406CCSH       0000001963800000                                                                             
D000056006057601827901022012172012นายสายัณห์ เจริญสุข มจ7981                        88668298            19317068                                08691827CCSH       0000001419200000                                                                             
D000057006057601827901022012172157นายประจบ โตพิทักษ์                                88078398            33217353                                08780395CCSH       0000001979600000                                                                             
D000058006057601827901022012174259นางสุวีรยา นาสวน ทศ2716                           88469595            67212361                                05671599CCSH       0000001194400000                                                                             
D000059006057601827901022012175548หวานใจ                                            88669993            51215339            ทร5195              05750619CCSH       0000000860000000                                                                             
D000060006057601827901022012180026นายชัชวาลย์ แสงคาวุธ                              88159797            52217363                                10720567CCSH       0000001890800000                                                                             
D000061006057601827901022012180737ขัตติยา วิเชียรเขียว ทร5531                       88769993            15215333                                07950594CCSH       0000000683100000                                                                             
D000062006057601827901022012184403นางสาวเฉลิมศรี  ทองขาว                            88569390            81216339                                00860810CCSH       0000001105700000                                                                             
T000063006057601827900000000000000000000000096094000000061                                                                                                                                                                                                      
