H0000010060576018279บริษัท ไทเอซ สิสซิ่ง จำกัด              06022012TALHO                                                                                                                                                                                       
D000002006057601827906022012085330นายอำนาจ เจียมเชื่อม ทว3760                       88179797            07213356                                02530836CCSH       0000001756700000                                                                             
D000003006057601827906022012090146นายวรรณรบ  เนียมทอง                               88506399            106124165                               01900549CCSH       0000001773700000                                                                             
D000004006057601827906022012090350นาย บรรจง  สนิท  ทล 7688                          8878-9881           8621-7348                               04990266CCSH       0000001800000000                                                                             
D000005006057601827906022012091310สังข์วาลย์ เนตะเวณ                                8899-9791           5821-0343                               00030525CCSH       0000000415500000                                                                             
D000006006057601827906022012091739นายกิตติศักดิ์ ธรรมรัตน์ศิวะ                      88068998            53317056                                00960200CCSH       0000000995100000                                                                             
D000007006057601827906022012091945นาย ธเนศ นาโควงค์                                 88569190            50315069                                00771064CCSH       0000001105700000                                                                             
D000008006057601827906022012092317นายธีรพงษ์ นันทะทอง                               88598398            107030406                               04690578CCSH       0000000870000000                                                                             
D000009006057601827906022012092357นางสาวอุดมรักษ์ ขอบสี ทศ172                       8837-8198           2121-0367                               00820726CCSH       0000001918500000                                                                             
D000010006057601827906022012092642เข็มทอง สงเคราะห์                                 88579492            08217358            0851206125          04607752CCSH       0000001515300000                                                                             
D000011006057601827906022012092825เข็มทอง สงเคราะห์                                 88769897            05211362            0851206125          04607752CCSH       0000000315500000                                                                             
D000012006057601827906022012093039นายการุณ สาโรวาท                                  88299497            20217335                                04590914CCSH       0000001104200000                                                                             
D000013006057601827906022012094234นายสุภะชัย ตู้ที                                  88569198            64211360                                01520347CCSH       0000002011400000                                                                             
D000014006057601827906022012094429อนิวรรตน์ ไชกองชา                                 88178398            61316078                                00771064CCSH       0000001884200000                                                                             
D000015006057601827906022012094837นายวิรัตน์   เกิดผล                               88589797            22214347                                00830886CCSH       0000001558300000                                                                             
D000016006057601827906022012095631นายรวมชัย นาคะสถิตย์ ทศ 1146                      8816-9598           6121-1364                               04580699CCSH       0000001587900000                                                                             
D000017006057601827906022012100000นายสมศักดิ์  ประกอบมาศ                            88577697            82214351                                09760114CCSH       0000001857000000                                                                             
D000018006057601827906022012100227นายปรัญชัย  สาชิต                                 88779786            24314074                                00981066CCSH       0000001734300000                                                                             
D000019006057601827906022012103438นายจำรูน ไชยช่วย                                  8856-9890           1331-8076                               00910850CCSH       0000001052200000                                                                             
D000020006057601827906022012103631สำเนียง แก้วมณี                                   88523499            104121142                               10900400CCSH       0000001867300000                                                                             
D000021006057601827906022012104640นางดวงจันทร์ หันจางสิทธิ์                         88502899            107154831                               01900804CCSH       0000000732700000                                                                             
D000022006057601827906022012105224นางสาว รัชนีวรรณ บุตรานนท์                        8846-9096           7521-2360                               07752367CCSH       0000005701300000                                                                             
D000023006057601827906022012105343นายถวิล สุขโข                                     8838-9691           8531-2076                               00410849CCSH       0000001697800000                                                                             
D000024006057601827906022012110128นาย ประเสริฐ แออ่วม ทย 915                        88169791            59210321                                01481887CCSH       0000001495000000                                                                             
D000025006057601827906022012110254นาย ประเสริฐ แออ่วม ทม 7420                       88669592            04217312                                01481887CCSH       0000001414000000                                                                             
D000026006057601827906022012111111นายเสน่ห์ ขาวสวัสดิ์  ทร 7423                     8836-9698           3421-7332                               02590096CCSH       0000001367500000                                                                             
D000027006057601827906022012111459อำนวยพร  วารีน้อย                                 88359797            45210349                                00911062CCSH       0000000098500000                                                                             
D000028006057601827906022012111812นาย โกศล  เที่ยงสันเทียะ ทศ9547                   88537399            104118653                               10810405CCSH       0000001956600000                                                                             
D000029006057601827906022012112351นายฐิติวัสส์ นาคสุทธิ                             88501499            107157914                               00970556CCSH       0000001700000000                                                                             
D000030006057601827906022012112818นายสมชาย ณรงค์ศักดิ์                              88978399            22212348                                05970554CCSH       0000001553700000                                                                             
D000031006057601827906022012114056นายจิตตกร โกษากุล                                 88369392            61214369                                10720567CCSH       0000000618200000                                                                             
D000032006057601827906022012114221นายวิรัช อ่อนละออ                                 88502399            106155697           ทว9083              03970649CCSH       0000001530600000                                                                             
D000033006057601827906022012115801นางสาวสุนันท์  แก้วเผือก 9ฬ 7005                  88168999            50097400                                09760114CCSH       0000000312100000                                                                             
D000034006057601827906022012120837นายประสิทธิ์ สัจจสิงห์ ทว2184                     8888-8198           4121-2358                               07650138CCSH       0000001918500000                                                                             
D000035006057601827906022012121705จ.อ. วรายุ ทองนิม                                 8876-9497           6731-6078                               02150522CCSH       0000000843300000                                                                             
D000036006057601827906022012121943นางประไพวรรณ หวานเย็น                             88579983            73217351                                00210713CCSH       0000001700000000                                                                             
D000037006057601827906022012122107นางประไพวรรณ หวานเย็น                             88279397            79213358                                00210713CCSH       0000001700000000                                                                             
D000038006057601827906022012122706นายเผชิญ   โพธิ์ศรี                               88379395            70216350                                00611358CCSH       0000001884200000                                                                             
D000039006057601827906022012122800ร.ต.บุญส่ง สุขทิพย์กิจ                            88533399            104119058                               00120277CCSH       0000000524500000                                                                             
D000040006057601827906022012123444นายบุญเลิศ ทรัพย์เจริญกุล ทศ7974                  8845-9296           4921-7367                               10320014CCSH       0000002008400000                                                                             
D000041006057601827906022012123601นางธีรสิริ พิมพ์ใจชน ทศ 8373                      88359995            33218367                                02610535CCSH       0000001884100000                                                                             
D000042006057601827906022012124039นายสหชัชจ์ ทาไธสง                                 88573597            106160438                               01691216CCSH       0000001918500000                                                                             
D000043006057601827906022012124102นายชาตรี  ขุนติเศษ                                88769493            66213361                                10710048CCSH       0000001617900000                                                                             
D000044006057601827906022012124227นายสงกรานต์ แก้วกงพาน                             88379291            13218359                                00282352CCSH       0000001861700000                                                                             
D000045006057601827906022012125000ภัสรา เรศสุข                                      8867-8298           6221-0362                               11811811CCSH       0000001896300000                                                                             
D000046006057601827906022012125224พตท.สุเทพ   ภูดวงเดือน                            88359597            94217360                                02503235CCSH       0000001828800000                                                                             
D000047006057601827906022012125322นายวิระ  งามจิตร                                  88517989            104123379                               00336716CCSH       0000001716700000                                                                             
D000048006057601827906022012125624นาย นิรันทร์ วงษ์จันทร์เพ็ญ ทว 8176               8877-9891           6121-8357                               04780201CCSH       0000000030000000                                                                             
D000049006057601827906022012125807นางพิไลวรรณ ทองดี                                 88869196            16212363                                00490656CCSH       0000001515300000                                                                             
D000050006057601827906022012130102นายสมพร คำใจ                                      88268699            08211344                                01230490CCSH       0000001157700000                                                                             
D000051006057601827906022012131909ธนกร แสงศรี                                       88768099            16214319                                00530428CCSH       0000000520000000                                                                             
D000052006057601827906022012132030นายบุญยัง อิ้วอรุณ                                88697297                                                    02610862CCSH       0000000068500000                                                                             
D000053006057601827906022012132149นางสาว พวงเพ็ญ ศิริพละ ทว 3142                    88679398            21213354                                04581882CCSH       0000002116700000                                                                             
D000054006057601827906022012132242นางสาว พวงเพ็ญ ศิริพละ ทว 3143                    88579398            31213354                                04581882CCSH       0000002116700000                                                                             
D000055006057601827906022012132328นางสาว พวงเพ็ญ ศิริพละ ทว 3144                    88479398            41213354                                04581882CCSH       0000002116700000                                                                             
D000056006057601827906022012132427สมพิศ คุโบตะ                                      88534499            107124684                               11255243CCSH       0000001610800000                                                                             
D000057006057601827906022012132432นายสมาน ปัญญาดี                                   88574998            107034255                               00771064CCSH       0000000579600000                                                                             
D000058006057601827906022012132948นายสุนทร จันทร                                    8867-9791           6121-8355                               04710157CCSH       0000000030000000                                                                             
D000059006057601827906022012132951นาง ณัฐพร ผลเกลี้ยง ทม787                         88479894            77210318                                10860565CCSH       0000001057900000                                                                             
D000060006057601827906022012133454นายประเสริบ  ทีฆาวงค์   ถส 2576                   88269893            65202387                                01200195CCSH       0000000898900000                                                                             
D000061006057601827906022012133510นาย บุญฤทธิ์ ศรีสุยิ่ง                            88879586            04313053            มง3430              10250012CCSH       0000000808500000                                                                             
D000062006057601827906022012133943นางสาวสุปราณี ธนูศิลป์ ทล8861                     88589780            18218346                                10070236CCSH       0000001674700000                                                                             
D000063006057601827906022012134154นายบัวลา ทองขาว                                   ทล 8126             089-9945771                             01214335CCSH       0000001936000000                                                                             
D000064006057601827906022012134941นายอรัญ ขาวเนตร                                   88678599            42219326                                09761108CCSH       0000001285000000                                                                             
D000065006057601827906022012135255นายบัวลอย ประคุนมาน ทย 2857                       88868399            78212325                                01881706CCSH       0000001321000000                                                                             
D000066006057601827906022012135347นางสาว นวลจันทร์ แก้วทอง                          88369492            24210355            ทว452               04881144CCSH       0000002008800000                                                                             
D000067006057601827906022012135527ระเบียบ  พิมทอง                                   88549299            104116175                               01900549CCSH       0000001549300000                                                                             
D000068006057601827906022012140144ธวัชชัย วิไลลักษณ์                                88573598            106174819                               10365296CCSH       0000001550400000                                                                             
D000069006057601827906022012140640นายไพโรจน์   บุญขันธ์                             88510999            106151163                               00830886CCSH       0000001737300000                                                                             
D000070006057601827906022012142224นายจงศักดิ์ ไชยธานี มฉ9636                        8885-9698           6631-9073                               10810269CCSH       0000001542500000                                                                             
D000071006057601827906022012142544นางจำเนียน  ทองอ่ำ                                8866-9393           1621-3362                               02680010CCSH       0000001799200000                                                                             
D000072006057601827906022012143545นาย เล็ก ระสอน ทย 4527                            8858-9895           7521-4322                               00561145CCSH       0000003485700000                                                                             
D000073006057601827906022012144432นาย เวชสิทธิ์ สุขสุมิตร มฉ7979                    8836-9297           9931-7077                               00720167CCSH       0000001566500000                                                                             
D000074006057601827906022012144534นายเจริญ จันทร์แสนตก                              88079492            72315072                                10720377CCSH       0000001880000000                                                                             
D000075006057601827906022012144925กาญจนา ด.                                         88989297            35214329                                02560119CCSH       0000001645200000                                                                             
D000076006057601827906022012145148เกริกเกียรติ มะลิโพธิ์กลาง                        88534399            104117514                               00101356CCSH       0000001575400000                                                                             
D000077006057601827906022012145529นาย วรภพ  งะบัว ทร 2133                           8826-9096           3121-2333                               04650389CCSH       0000001517700000                                                                             
D000078006057601827906022012145705วัลลพ กันหอม                                      88059986            12216337                                01900719CCSH       0000001122300000                                                                             
D000079006057601827906022012150012น.ส.รัชนีกร วรปัญญา ทศ2832                        8856-9395           2821-2363                               11730509CCSH       0000000400000000                                                                             
D000080006057601827906022012150027นางชลิตดา  เจริญพวง ทว 4354                       88079197            43214355                                09760114CCSH       0000002400000000                                                                             
D000081006057601827906022012151943นางศิริดา   บุราณคุณ                              88859694            77218365                                04930093CCSH       0000001950600000                                                                             
D000082006057601827906022012153926นายบารมี ศรีสงคราม                                88532899            600022105                               00760677CCSH       0000001340000000                                                                             
D000083006057601827906022012155618นางสุพรรณี ภูนุภา                                 88059797            62217367            0817212118          10721605CCSH       0000001756700000                                                                             
D000084006057601827906022012155701นางสุพรรณี ภูนุภา                                 48659997            62217367            0817212118          10721605CCSH       0000000300000000                                                                             
D000085006057601827906022012164346นาย อานนท์ บุญน้อม                                88479394            56213322                                07620396CCSH       0000001535000000                                                                             
D000086006057601827906022012164518ร.อ.รัฐธีร์ น้อยนิตย์                             88389392            24216347                                07540596CCSH       0000001377800000                                                                             
D000087006057601827906022012164954นายสมสุข  ชูกิจรุ่งทรัพย์                         88359498            50217360                                11810176CCSH       0000001948200000                                                                             
D000088006057601827906022012171528นายเถกิงเดช พุกพิบูลย์                            88188397            37313072                                09620092CCSH       0000001884200000                                                                             
D000089006057601827906022012174320นาย พรพรต พาทีทิน                                 8857-9395           5121-6357                               07620396CCSH       0000000836600000                                                                             
D000090006057601827906022012174811ภัคจิรา เอี่ยมนอก                                 88959396            06216360                                10670257CCSH       0000001614300000                                                                             
D000091006057601827906022012180805วัชรี                                             88583998            106138684                               05970092CCSH       0000001167500000                                                                             
D000092006057601827906022012181331นายจักรชัย ลมัยกุล                                8816-9890           2831-1065                               09620092CCSH       0000001000000000                                                                             
D000093006057601827906022012181744นายณัฎฐพล พูลสวัสดิ์ ทร3237                       88502299            107131584                               04781103CCSH       0000001292100000                                                                             
D000094006057601827906022012181822นายณัฎฐพล พูลสวัสดิ์ ทร3240                       88503299            107131978                               04781103CCSH       0000001292100000                                                                             
D000095006057601827906022012185442นายทศพล ผาช้างเผือก ทศ2524                        88169296            45212362                                08450531CCSH       0000001000000000                                                                             
T000096006057601827900000000000000000000000137523100000094                                                                                                                                                                                                      
