H0000010060576018279บริษัท ไทเอซ สิสซิ่ง จำกัด              26092011TALHO                                                                                                                                                                                       
D000002006057601827926092011083317นายอมร จันทร์ไว                                   8899-8398           0321-2349                               06232183CCSH       0000001816600000                                                                             
D000003006057601827926092011083547นางสาวทองไสย สิงห์น้อย                            88068898            67215363                                00250613CCSH       0000001800000000                                                                             
D000004006057601827926092011085030นายวีระยุทธ เครือบคนไท                            88579795            07215358                                01528111CCSH       0000001982000000                                                                             
D000005006057601827926092011085136นายอานนท์  วันแจ                                  88199391            69355075                                02617277CCSH       0000000624200000                                                                             
D000006006057601827926092011085455นาย คงศักดิ์ รุ่งรัตน์                            8847-9784           1721-6351                               00640141CCSH       0000001990000000                                                                             
D000007006057601827926092011090402นางภัททิยา  จึงเจริญกิจไพศาล                      8837-9690           2021-1344                               11340427CCSH       0000001890000000                                                                             
D000008006057601827926092011091757คุณสมพร อินทรสอน                                  8848-9193           1621-5343                               00240918CCSH       0000001629800000                                                                             
D000009006057601827926092011092317นาย ธนากร  พูนเกษมสำราญ                           88598699            41218338                                01160236CCSH       0000001800000000                                                                             
D000010006057601827926092011093404นางจันหอม สาคะวัตร ทศ7797                         88259696            77217369                                01900719CCSH       0000001846600000                                                                             
D000011006057601827926092011094056นายณัฐพล  สนิท  ทร 9501                           88542299            107150402                               08560585CCSH       0000001284000000                                                                             
D000012006057601827926092011095320นายวิภพ   ฉิวกระโทก  ทว9175                       88778099            51219357                                00830886CCSH       0000000098500000                                                                             
D000013006057601827926092011095934นางธมน จันทะเหล็ก ทศ1476                          8866-9897           6421-1367                               02501075CCSH       0000001918500000                                                                             
D000014006057601827926092011100323คุณสาธิต ทองอร่ามเรือง                            88518989            107161814                               01480363CCSH       0000001449000000                                                                             
D000015006057601827926092011100818คุณคำภา สายจันดี                                  8896-9795           8721-7315                               05760692CCSH       0000000227000000                                                                             
D000016006057601827926092011100855นางเยาวะรัชน์ โคมแก้ว ทร 2850                     8895-9194           0821-2335                               04580699CCSH       0000000646800000                                                                             
D000017006057601827926092011101025นายขอบตะวัน ดีประเสริฐ ทศ3627                     8856-9393           7621-3362                               01930068CCSH       0000001799200000                                                                             
D000018006057601827926092011101048คุณสมบูรณ์  ผามั่ง                                88269892            08312065                                00200304CCSH       0000000315500000                                                                             
D000019006057601827926092011102632นายวันชัย เอี่ยมผ่องใส ทศ2429                     88769796            94212362                                02530836CCSH       0000001884200000                                                                             
D000020006057601827926092011102652นาง พัชรี  ศรีหาประทุม  ทม 8664                   8876-9491           4621-8316                               08400047CCLQ385116 00000006500000040089                                                                         
D000021006057601827926092011102700นาย พิทยา   ผิวผ่อง 084-1324719                   88388499            61313078                                00336605CCLQ704675900000005900000250329                                                                         
D000022006057601827926092011102848นายอุทัย การเกษ                                   8857-8197           8221-6324                               02540020CCSH       0000001067000000                                                                             
D000023006057601827926092011102921นางอุไรวรรณ  นุตตะโยธิน ทย3491                    8816-8898           1421-3329                               04600072CCSH       0000001391000000                                                                             
D000024006057601827926092011103243นาย พิทยา    ผิวผ่อง  084-1324719                 8838-8499           6131-3078                               00336605CCSH       0000001110000000                                                                             
D000025006057601827926092011104039นายบุญเทิด มาชุมแสง                               88779593            20315072                                00810467CCSH       0000001734300000                                                                             
D000026006057601827926092011104056นางสุวทณีย์  จิตต์สนธิ                            88757697            48317074                                00610756CCSH       0000001799200000                                                                             
D000027006057601827926092011105135นายสวนิช ชาติเผือก                                8875-9984           3821-2327                               01449226CCSH       0000001090300000                                                                             
D000028006057601827926092011105357นายพงษ์ศักดิ์  แหล่งสนาม  ทว9904                  8877-8798           4921-9350                               04600072CCSH       0000001884200000                                                                             
D000029006057601827926092011110827นางนงคราญ คำมอญ ทล 9527                           8848-8599           7521-9342                               04580699CCSH       0000002036500000                                                                             
D000030006057601827926092011110900นางนงคราญ คำมอญ ทล 7464                           8848-8599           7521-9342                               04580699CCSH       0000002036500000                                                                             
D000031006057601827926092011113206นาย นันทวี สุนา มฉ 4755                           88479794            57314075                                01890658CCSH       0000001884200000                                                                             
D000032006057601827926092011113600นายเสน่ห์ ขาวสวัสดิ์  ทร7423                      8836-9698           3421-7332                               10320014CCSH       0000001359500000                                                                             
D000033006057601827926092011113656พิสิฐพงศ์                                         88959397            23212359                                04710657CCSH       0000001831000000                                                                             
D000034006057601827926092011113844มัด มลมิตร                                        88769987            54314072                                05760932CCSH       0000001746600000                                                                             
D000035006057601827926092011114648นายจงรักษ์ ถนอมต่วน                               88523299            104121634                               02150522CCSH       0000001390900000                                                                             
D000036006057601827926092011114805นายณรงค์  ภู่กรุต                                 8855-9798           7821-6367                               07961036CCSH       0000003216000000                                                                             
D000037006057601827926092011114943นายณรงค์  ภู่กรุต                                 8825-9998           8821-6361                               07961036CCSH       0000003216000000                                                                             
D000038006057601827926092011115118นายณรงค์  ภู่กรุต                                 8845-9798           8821-6365                               07961036CCSH       0000003216000000                                                                             
D000039006057601827926092011115415นายยุทธพงศ์ เพิ่มพรพิทักษ์ ทร1695                 88679393            56211339                                10360570CCSH       0000001580000000                                                                             
D000040006057601827926092011121055นายวิชาญ  หนูไชยแก้ว                              88669997            88316071                                00390709CCSH       0000000939900000                                                                             
D000041006057601827926092011122044คุณอรวรรณ  แดงศิริ                                88359995            3321-8367                               02617277CCSH       0000001873600000                                                                             
D000042006057601827926092011122555นางนพชนก มิศกะเสวตร์ วก 1799                      8825-9397           9735-1019                               00959646CCSH       0000000850000000                                                                             
D000043006057601827926092011122812นาง ภัสรา เรศสุข ทศ 3492                          8876-9693           2421-3369                               08401303CCSH       0000001799200000                                                                             
D000044006057601827926092011122901นาย วีระศักดิ์   อินจันทึก  มฉ5798                8897-9980           8731-5079                               02590911CCSH       0000000704200000                                                                             
D000045006057601827926092011123948นายประดิษฐ์ ไลยการ                                88759898            07216361                                00281171CCSH       0000001200300000                                                                             
D000046006057601827926092011124753นายมงคล พลรักษา ทว 9440                           8817-8699           0421-9354                               07650577CCSH       0000001799200000                                                                             
D000047006057601827926092011125252นางนงนุตร แก้วสุวรรณ                              8838-9493           2321-3311                               01260388CCSH       0000001500000000                                                                             
D000048006057601827926092011125839บุญทอง จันทร์สุวรรณ                               8806-9295           3821-2362                               01590526CCSH       0000001884200000                                                                             
D000049006057601827926092011131531นายอินผล อินมาตย์                                 88888899            65219348                                00940109CCSH       0000002116700000                                                                             
D000050006057601827926092011132044นางบุณยานิตย์ ศิริรักษ์                           88778297            06217328                                11240096CCSH       0000000100000000                                                                             
D000051006057601827926092011132730นายวรวิทย์ ทิพนัด ทล8746                          88189090            67218344                                02500607CCSH       0000000277000000                                                                             
D000052006057601827926092011132932นายนิสิต หล่อดี  ทย 3722                          8887-9592           2721-3322                               08000757CCSH       0000001451700000                                                                             
D000053006057601827926092011133237นายพิกิจ ภูมิภาค ทศ 2834                          88269895            48212363                                02530654CCSH       0000002082100000                                                                             
D000054006057601827926092011133530นายอดิศักดิ์ เพ็ญคำ                               88768497            13215330                                01480560CCSH       0000001200000000                                                                             
D000055006057601827926092011134052ดาวใจ นิรัติศัยสกุล                               88069198            39219329                                00251980CCSH       0000000040000000                                                                             
D000056006057601827926092011134130นายหนู มั่นแม่น                                   ทล5624                                                      00980495CCSH       0000001617900000                                                                             
D000057006057601827926092011134205ปางทอง ซ. มฉ3803                                  8886-9986           3831-3070                               10360281CCSH       0000002038200000                                                                             
D000058006057601827926092011134317สมรภูมิ กุลสุวรรณ์ มง7695                         88769284            56317059                                08566520CCSH       0000001180000000                                                                             
D000059006057601827926092011134543ประจัญชัย อ.                                      8867-9190           2221-9350                               00130240CCSH       0000001070000000                                                                             
D000060006057601827926092011135041นายสันต์ ลาภรุ่งเรือง                             88789593            86215349            ทล 5698             10520521CCSH       0000001375600000                                                                             
D000061006057601827926092011140011นายอนุสรณ์  วารีน้อย                              8817-8598           0921-2328                               07990132CCSH       0000001649600000                                                                             
D000062006057601827926092011140352น.ส. นริสรา แปนสวย                                8885-9896           0621-7364                               01396715CCSH       0000001893100000                                                                             
D000063006057601827926092011140522วรพงศ์ พูลพิพิธ                                   8818-9591           7321-1311                               00243534CCSH       0000000310000000                                                                             
D000064006057601827926092011140737วิรัตน์ วาณิชพิเชียร                              8847-9094           6521-6353                               00190041CCSH       0000001972000000                                                                             
D000065006057601827926092011141130นาย วันดี  ใจกล้า                                 8888-8998           3521-6326                               07661135CCSH       0000001443200000                                                                             
D000066006057601827926092011142026กนิษฐา  อินฉาย                                    8837-8598           5021-7314                               01760442CCSH       0000000627800000                                                                             
D000067006057601827926092011142738นาย เสนอ สุดศรี                                   8888-9592           5421-6342                               01771050CCSH       0000001734300000                                                                             
D000068006057601827926092011145412นางสาว นัยนา งามทอง   ทย 8878                     8858-9597           8821-8327                               01200488CCSH       0000001779500000                                                                             
D000069006057601827926092011150413นายบวร  วันเพ็ญ ทว826                             88288698            68210352                                06921923CCSH       0000001884200000                                                                             
D000070006057601827926092011150500นายวัชรินทร์ จงดูกลาง                             88869295            66214312                                03833635CCSH       0000000896100000                                                                             
D000071006057601827926092011150751นางเครือฟ้า สุขกล้า                               8818-9393           9221-7312                               08698691CCSH       0000001611000000                                                                             
D000072006057601827926092011150838จ.ส.ต.เสกสรรค์ กลิ่นรอด ทว4998                    8847-9496           8921-4359                               01991041COTH       0000001799200000                                                                             
D000073006057601827926092011151602นางสาว สุมาลี ศรีอินทร์                           8857-9686           2421-5350                               05970398CCSH       0000000235500000                                                                             
D000074006057601827926092011163509นายสรรเสริญ สีธงชัยรุ่งโรจน์                      88545499            107142777                               07930318CCSH       0000001210000000                                                                             
D000075006057601827926092011163638นายสมเกียรติ สีธงชัยรุ่งโรจน์ ทว783               88069787            37210358                                07930318CCSH       0000001382100000                                                                             
D000076006057601827926092011163803นายสมเกียรติ สีธงชัยรุ่งโรจน์ ทม4973              88469598            39214317                                07930318CCSH       0000001212700000                                                                             
D000077006057601827926092011164703น.ส.วชิราภรณ์ นุขสุข                              8877-9794           1221-6358                               09624492CCSH       0000001787800000                                                                             
D000078006057601827926092011164732นายสมชาย ตราลาภ                                   88078599            15219352                                10071100CCSH       0000001950000000                                                                             
D000079006057601827926092011170746นายประยุทธ อยู่ยงค์ ทล 9445                       88688799            54219344                                04780158CCSH       0000001700000000                                                                             
D000080006057601827926092011171456นายบุญเลิศ สาระพร                                 88389298            20214344                                11250232CCSH       0000001504500000                                                                             
D000081006057601827926092011173711นายกระต่าย เทพวงษ์                                88515999            106138674                               10330446CCSH       0000001814600000                                                                             
D000082006057601827926092011175542นายสมพงษ์ ดารักษ์ ทล593                           88969391            35210349                                05758278CCSH       0000000958000000                                                                             
D000083006057601827926092011175852คุณธีรศักดิ์ ตั้งวิรุฬห์รัตน์                     88279596            27214355                                08550650CCSH       0000001918500000                                                                             
D000084006057601827926092011180428น.ส.วิไลรัตน์ บุญเผือก ทล7670                     48789891            06217347                                10071100CCSH       0000000850000000                                                                             
D000085006057601827926092011181023นายณรงค์   บุญพิศาล   ทม 6073                     8847-9190           3021-6317                               04670063CCSH       0000001349800000                                                                             
D000086006057601827926092011184446นางกมลวัลย์  เสาะขุนทด ทว 5746                    88279795            67215354                                08510045CCSH       0000001886200000                                                                             
D000087006057601827926092011193853น.ส.นิภา เปียสัมปทวน ทร9534                       88399493            45219333                                10150069CCSH       0000002618200000                                                                             
D000088006057601827926092011193952น.ส.นิภา เปียสัมปทวน ทร9533                       88499493            35219333                                10150069CCSH       0000002648200000                                                                             
T000089006057601827900000000000000000000000129557000000087                                                                                                                                                                                                      
