H0000010060576018279บริษัท ไทเอซ สิสซิ่ง จำกัด              21122011TALHO                                                                                                                                                                                       
D000002006057601827921122011085204นายวิรัช ยิ้มถาวร มจ1399                          88508299            107084136                               00540018CCSH       0000001212700000                                                                             
D000003006057601827921122011090741นายณัฐพล สนิท    ทร 9501                          88542299            107150402                               08560792CCSH       0000001284000000                                                                             
D000004006057601827921122011091059นายจำรัส ผายสุวรรณ                                48859994            06218365                                10900089CCSH       0000000442000000                                                                             
D000005006057601827921122011092153นายสุริเยศ โรจน์สุธี มฉ 8064                      8846-9392           4031-8076                               04580699CCSH       0000001792300000                                                                             
D000006006057601827921122011093531นางบุญโฮม เกษแสนศรี ทร 5420                       8856-9591           0421-5332                               04580699CCSH       0000001105700000                                                                             
D000007006057601827921122011101345นางสาวเกษศรินทร์                                  8837-9781           0421-5320                               06020716CCSH       0000000918600000                                                                             
D000008006057601827921122011105232นายทีระชาติ ภิญโญ                                 8806-8499           7321-4364                               00240918CCSH       0000001748600000                                                                             
D000009006057601827921122011105842นางวัลลภา พรหมฤดี                                 88779194            35211329                                01081088CCSH       0000001580000000                                                                             
D000010006057601827921122011111834นางดารา ผลจันทร์                                  88268798            02211347            ทล1270              03970649CCSH       0000001592200000                                                                             
D000011006057601827921122011111919นายสมศักดิ์ ตั้งจิตเสถียรกุล                      8807-7397           6921-5313                               11101141CCSH       0000001879100000                                                                             
D000012006057601827921122011112146นางสุมาลี สังข์ทอง                                88279587            85214356                                07660755CCSH       0000001799200000                                                                             
D000013006057601827921122011112434จิราภรณ์ เถื่อนอาราม                              8897-9096           4521-0325                               06990912CCSH       0000001319700000                                                                             
D000014006057601827921122011113542นายสมปอง สายยศ                                    88279896            28214353                                03291073CCSH       0000003271500000                                                                             
D000015006057601827921122011114933นางพลอยงาม ทุ่งไธสงค์                             8825-9896           5221-8322                               04950529CCSH       0000000960000000                                                                             
D000016006057601827921122011120530นาย อุดร ผาน้อยวงค์ ทล 3562                       88689998            25213346                                02590600CCSH       0000001665500000                                                                             
D000017006057601827921122011120557นายชวลิต จักษุดำ                                  88597798            104127149                               10320864CCSH       0000001811100000                                                                             
D000018006057601827921122011120936น.อ. แมน ศีตะจิตต์                                88545999            104117323                               10800801CCSH       0000001575400000                                                                             
D000019006057601827921122011121210คุณสมพร   ยศอ่อน                                  88779292            80313070                                00021996CCSH       0000001908300000                                                                             
D000020006057601827921122011121245พรรณ์สกุล  พันธ์พรหม                              88288998            66210355                                00981066CCSH       0000001873200000                                                                             
D000021006057601827921122011121618นางภัสรา เรศสุข ทศ5630                            88768299            0621-5363                               08401304CCSH       0000001799200000                                                                             
D000022006057601827921122011121656นายวิมล สุขจาด                                    88259298            58319071                                00330237CCSH       0000001923800000                                                                             
D000023006057601827921122011121816นางภัสรา เรศสุข ทศ5636                            88868299            66215363                                08401304CCSH       0000001799200000                                                                             
D000024006057601827921122011121827สุชาดา ไทยแท้                                     88512099            106202782                               04710657CCSH       0000002046200000                                                                             
D000025006057601827921122011122420นายรักคิด จันทร์สุวรรณ                            88588198            85313071                                03960229CCSH       0000001884200000                                                                             
D000026006057601827921122011123011นายสมชาย ทองศรี ป้ายแดง                           88507889            104123310                               01520684CCSH       0000001821000000                                                                             
D000027006057601827921122011123309ดำรงค์ เทพสมบูรณ์                                 88500099            104125523                               03990096CCSH       0000001912600000                                                                             
D000028006057601827921122011123311นายสุรพรรณ จันทะสิทธิ์                            88459596            89212332                                02190859CCSH       0000001020000000                                                                             
D000029006057601827921122011123446ดำรงค์ เทพสมบูรณ์                                 48507999            104125523                               03990096CCSH       0000000271000000                                                                             
D000030006057601827921122011131622นายบัญญัติ แก่นจันทร์ มฉ550                       8825-9594           0531-0075                               10360725CCSH       0000001406600000                                                                             
D000031006057601827921122011131939นายนิธิพัฒน์ บังเกิดคงคาดิษฐ์ ทศ8429              88959795            94218362                                04671136CCSH       0000002674000000                                                                             
D000032006057601827921122011133550นายเฉลิม  จันทร์สอน                               88967097            54316066                                05760270CCSH       0000001025300000                                                                             
D000033006057601827921122011134505นส.อรพิน ธนารักษ์เจริญกุล                         8818-8899           1321-9340                               04791193CCSH       0000001838900000                                                                             
D000034006057601827921122011134827นางสาวบุญนำ สมัครเขตรการ                          88520999            104119489                               09550507CCSH       0000001901600000                                                                             
D000035006057601827921122011135110นาย สุระ บรรจง มช 1499                            88520799            104120699                               07680647CCSH       0000002029000000                                                                             
D000036006057601827921122011135937นางกิ่งวิวรรณ์  กระแสโสม                          48859997            81217369                                02590911CCSH       0000000170000000                                                                             
D000037006057601827921122011140051นางกิ่งวิวรรณ์  กระแสโสม ทศ7198                   88359997            81217369                                02590911CCSH       0000001705000000                                                                             
D000038006057601827921122011140702นายวัชรพล สิงห์ลี                                 88379496            90215357                                08511738CCSH       0000001859500000                                                                             
D000039006057601827921122011142109นาย สมภพ วชิรประชานุกูล                           88189696            88217331                                07540596CCSH       0000001350000000                                                                             
D000040006057601827921122011142201นายกิมชัย แซ่อือ                                  88179896            68214350                                04940114CCSH       0000001637600000                                                                             
D000041006057601827921122011143158นายสิทธิศักดิ์ หมายมั่น  มฉ4985                   88579093            59314078                                04585612CCSH       0000001700000000                                                                             
D000042006057601827921122011143806นายสำเริง กมุทชาติ                                88514499            107134447                               11470668CCSH       0000001079000000                                                                             
D000043006057601827921122011144848นาย วรพงศ์ พูลพิพิธ ทย6690                        8898-8597           0621-6329                               07800356CCSH       0000001200000000                                                                             
D000044006057601827921122011145132นายสุรศักดิ์ วิเศษปัดสา มช 1445                   88528999            107094818                               02560706CCSH       0000001570000000                                                                             
D000045006057601827921122011145225น.ส. สมาภรณ์  พบพิมาย                             8855-9998           8621-6367                               02617277CCSH       0000001874000000                                                                             
D000046006057601827921122011145719นายวิชาญ อุดมธาดาพงศ์                             88514099            107136915           ทร 5893             00620910CCSH       0000001246000000                                                                             
D000047006057601827921122011150528นางสุกัญญา ศรีจันทร์  ทว4753                      8827-9696           3721-4355                               02590096CCSH       0000001918700000                                                                             
D000048006057601827921122011150648นายเอกสิทธิ์ ศรีตองอ่อน  ทว 4793                  8837-9696           3721-4359                               02590096CCSH       0000001918700000                                                                             
D000049006057601827921122011152314นางจิราพร ทองร่มโพธิ์ ทว 6633                     88179884            36216353                                01890658CCSH       0000001700000000                                                                             
D000050006057601827921122011153235นางกัญญารัตน์ ธรรมรัตน์                           88068998            53317056            0866622767          01100754CCSH       0000002086500000                                                                             
D000051006057601827921122011153923นาย สุริยา จินาวรณ์ ทม 1945                       8856-8998           5921-1314                               04780120CCSH       0000001326800000                                                                             
D000052006057601827921122011153938นายสมพงษ์ ใจดี                                    88379196            33314077            มฉ 4373             11898928CCSH       0000001935600000                                                                             
D000053006057601827921122011155910นาย สวัสดิ์ คูณพรม                                88869390            46214337                                07660497CCSH       0000001391000000                                                                             
D000054006057601827921122011163015นางสาวนฤมล ชนกศรีทอง                              88488897            88211355                                01520889CCSH       0000001700000000                                                                             
D000055006057601827921122011165601จ.ส.อ.สุรพล ชุมพลพันธ์ มฉ4059                     8877-9997           9031-4075                               08000242CCSH       0000001908000000                                                                             
D000056006057601827921122011170150สันติ ฤ. ทศ7203                                   88559897            32217360                                10360281CCSH       0000001985700000                                                                             
D000057006057601827921122011170349สันติ ฤ.                                          48759997            32217360                                10360281CCSH       0000000280000000                                                                             
D00005800605760182792112201117075510780.00                                          88599881            82211347                                06979106CCSH       0000001078000000                                                                             
D000059006057601827921122011185453นางจินตรัตน์ อุทัยพยัคฆ์                          8807-9995           0621-5355                               09740387CCSH       0000001884200000                                                                             
T000060006057601827900000000000000000000000091596000000058                                                                                                                                                                                                      
