H0000010060576018279บริษัท ไทเอซ สิสซิ่ง จำกัด              12102011TALHO                                                                                                                                                                                       
D000002006057601827912102011081257นางสาวชิตนะภา  ศรีเงินงาม                         8887-8998           8221-8315                               06920406CCLQ98441  00000015500000140307                                                                         
D000003006057601827912102011084334นายองอาจ  มหิทธิโรจน์ ทว6614                      8887-9784           4621-6351                               02150082CCLQ263134900000003850000170001                                                                         
D000004006057601827912102011084913นายปราโมทย์ อภิรมย์ดี                             8847-9092           6721-6315                               10200553CCSH       0000000856300000                                                                             
D000005006057601827912102011093348นายชัยกะมน สุขกำเนิด                              88768997            35219343                                05760270CCSH       0000001847500000                                                                             
D000006006057601827912102011094634จ.ส.ต. วิถี  ชัยงาม  ทล 3919                      8888-9298           9921-3341                               02260835CCSH       0000001561200000                                                                             
D000007006057601827912102011094647นาย สุรศักดิ์ อินทศร ทศ 5543                      8877-9493           3521-5364                               04581882CCSH       0000002118500000                                                                             
D000008006057601827912102011095636ด.ต. หญิง สุภรณ์ บัวงาม ทว 8628                   88879881            86218352                                01890658CCSH       0000001356900000                                                                             
D000009006057601827912102011102030นายสมพร  ไกรศรศรี                                 88169897            46211364                                08553235CCSH       0000001650000000                                                                             
D000010006057601827912102011102127นายไชยยา  กลมเกลียว ทว7509                        8817-9683           9521-7350                               00171297CCSH       0000001842000000                                                                             
D000011006057601827912102011102904นางสาว วรกลม  บุญมา ทษ1037                        88500799            106199193                               08550648CCSH       0000000763300000                                                                             
D000012006057601827912102011103144นางสาว วรกมล  บุญมา ทศ6058                        8846-8398           8021-6365                               08550648CCSH       0000002427800000                                                                             
D000013006057601827912102011105054นายคมสันต์ จันทร์หอม ทศ825                        88278397            58210362                                00410695CCSH       0000001587900000                                                                             
D000014006057601827912102011105257นายสุวรรณ ปรางทอง                                 88269791            66219288                                05760270CCSH       0000000552800000                                                                             
D000015006057601827912102011105812นายกิตติพงษ์ บัวทอง                               77669597            60212365                                02540020CCSH       0000001564200000                                                                             
D000016006057601827912102011110105นายสุรเดช ขันทอง                                  88269398            14211365                                11520403CCSH       0000001982500000                                                                             
D000017006057601827912102011111433นายวิสุทธิ์ ปามา                                  88269887            22212369                                07967961CCSH       0000001900000000                                                                             
D000018006057601827912102011113404นางสาวนฤมล ราชอาษา 0871034555                     88278599            66213334                                01720506CCSH       0000001150000000                                                                             
D000019006057601827912102011113746ธีระศักดิ์  สุประภากร                             8877-9791           3121-8356                               00980495CCSH       0000001897900000                                                                             
D000020006057601827912102011114128น.ส.เกษศิรินทร์ ดวงอุปปะ ทย5400                   88969296            04215320                                10360725CCSH       0000000947600000                                                                             
D000021006057601827912102011114452นายเกรียงศักดิ์ วิสุทธิรัตนกุล ทว4566             88279487            65214356                                01900719CCSH       0000001419000000                                                                             
D000022006057601827912102011114749นางดารา ผลจันทร์                                  8826-8798           0221-1347           ทล1270              03970649CCSH       0000001619000000                                                                             
D000023006057601827912102011120549นายวิชาญ โพธิวรรณ                                 88515989            104123253                               00820726CCSH       0000001901600000                                                                             
D000024006057601827912102011121309นายสุรเดช  แก่นโนรา                               88869797            06361072                                00741604CCSH       0000000588500000                                                                             
D000025006057601827912102011122424นายสำฤทธิ์ แก่นจันทร์ มจ7524                      88259595            45317062                                06925867CCSH       0000001262700000                                                                             
D000026006057601827912102011125819นางสาวไพจิตต์ กีรติพินิจ                          8857-8199           2221-9314                               05700127CCSH       0000001087800000                                                                             
D000027006057601827912102011131054นายอนุสรณ์ วารีน้อย ทร 3961                       88369797            19213336                                01890658CCSH       0000001649600000                                                                             
D000028006057601827912102011131745นายวสุ ธรรมรัตน์  ทม 4808                         8842-8199           8821-4310                               04990266CCSH       0000000360200000                                                                             
D000029006057601827912102011135949รัชนี แก้วหาญ                                     88279291            64315076                                02600520CCSH       0000001918500000                                                                             
D000030006057601827912102011140232KLURWAN DAMRONG                                   48868998            02210362                                08518511CCSH       0000001734300000                                                                             
D000031006057601827912102011144741นายวิโรจน์ แก่นจันทร์                             88869493            19316062                                00560501CCSH       0000000905000000                                                                             
D000032006057601827912102011150818นางสาว สมพิตย์ อาสาเน                             88498297            64213347                                01100550CCSH       0000001731000000                                                                             
D000033006057601827912102011151739นายภิญโญ กันเนียม                                 88159395            75218363                                00281171CCSH       0000001812300000                                                                             
D000034006057601827912102011151801นายวิชัย บุญวัฒน์                                 88969691            66214329                                05760270CCSH       0000001062000000                                                                             
D000035006057601827912102011160435ด.ต.เสิม หยุ่นแก้ว ทว 4197                        8847-9197           7121-4359                               01970208CCSH       0000001884200000                                                                             
D000036006057601827912102011160523นายสมชาย พินยะเพียน                               88759196            06217366            ทศ 7660             01520889CCSH       0000001327900000                                                                             
D000037006057601827912102011162320นาย วชิระ ตรงดี ทล3955                            88589198            59213345                                07930727CCSH       0000001623900000                                                                             
D000038006057601827912102011163011นางกฤษญา แจ้งเพชร ทศ3343                          88269294            33213364                                04781103CCSH       0000001514600000                                                                             
D000039006057601827912102011163520อุดม  คงนอง                                       88988589            34210357                                07620776CCSH       0000001432800000                                                                             
D000040006057601827912102011165940นายดำรงค์  ภูทองขาว  ทศ 6123                      4866-8998           3121-6362                               04700190CCSH       0000000300000000                                                                             
D000041006057601827912102011170023นายดำรงค์  ภูทองขาว  ทศ 6123                      8806-8698           3121-6362                               04700190CCSH       0000001839700000                                                                             
D000042006057601827912102011174238ร.ท.จักรกฤษณ์ เพียรพิจิตร ทล6572                  88069793            25216347                                05670390CCSH       0000001020000000                                                                             
D000043006057601827912102011175009นายฐาปนัท บูชา ทล6252                             88989783            22216345                                05690707CCSH       0000001664400000                                                                             
D000044006057601827912102011192119นายภูริณัฐ  อดุลนิรัตน์                           88588099            65210356                                10720144CCSH       0000001918500000                                                                             
D000045006057601827912102011195629นาย กฤษฏา  แก้วพารา                               8875-9986           5221-8360                               08550648CCSH       0000001798500000                                                                             
T000046006057601827900000000000000000000000063317400000044                                                                                                                                                                                                      
