H0000010060576018279บริษัท ไทเอซ สิสซิ่ง จำกัด              02122011TALHO                                                                                                                                                                                       
D000002006057601827902122011084721นาย สุรัตน์ จิตตนาค                               88789190            04219344                                00821044CCSH       0000001761500000                                                                             
D000003006057601827902122011092304นายสุนทร ทองไพรวรรณ                               88388597            47212353                                05760932CCSH       0000001250000000                                                                             
D000004006057601827902122011092358นางสาวนัตยา จันทาทอง                              88498797            61213340                                03201072CCSH       0000001665500000                                                                             
D000005006057601827902122011092937นายอนุชิต ปูพบุญ                                  88589090            51219282                                01900719CCSH       0000001517700000                                                                             
D000006006057601827902122011093623นางสาว นงชนา วรปาณิ ทล 5123                       88389695            31215342                                00282766CCSH       0000001650000000                                                                             
D000007006057601827902122011095427นาย สาคร นามใจยา                                  88679397            63211342                                01100550CCSH       0000001580000000                                                                             
D000008006057601827902122011105018นายอัครเดช จารุนัย  มฉ 2075                       8885-9294           5031-2077                               00130755CCSH       0000002000000000                                                                             
D000009006057601827902122011105944นายมานะ ขำสุวรรณ                                  8855-9698           7821-6361           ทศ 6817             06921700CCSH       0000001874000000                                                                             
D000010006057601827902122011110202นางศิลมน เจนธรรมกุล                               8865-9695           4321-8361           ทศ8314              08698691CCSH       0000001584300000                                                                             
D000011006057601827902122011110248นาย บุญมา ล้ำทวีภักดี ทย 2071                     88578899            10212327                                05700767CCSH       0000001000000000                                                                             
D000012006057601827902122011110549ทรงศักดิ์ เผือกแห้ว                               88968697            19213365            0870892673          04607752CCSH       0000001914300000                                                                             
D000013006057601827902122011111322นาย บวรพลภ์ สุนทราธนาทิพย์  ทว 5690               8847-9995           0621-5359                               04581882CCSH       0000001556500000                                                                             
D000014006057601827902122011111735นายพรชัย เมตุลา                                   8858-8297           0431-3064                               01841801CCSH       0000000200000000                                                                             
D000015006057601827902122011112241ธีระศักดิ์ สุประภากร                              88389880            67218340                                00980495CCSH       0000001700000000                                                                             
D000016006057601827902122011112326ด.ต.สุวนัย เสาศิริ                                88769195            78212366                                04780061CCSH       0000001907900000                                                                             
D000017006057601827902122011113149นายวรภพ งะบัว ทร2133                              8826-9096           3121-2333                               04650665CCSH       0000001517700000                                                                             
D000018006057601827902122011113529นาย สมนึก  สืบพิลัย                               8897-9393           1021-7356           ทว 7061             02260178CCSH       0000002116700000                                                                             
D000019006057601827902122011113644นาย สมนึก  สืบพิลัย                               8807-9392           4821-7355           ทว 7854             02260178CCSH       0000002116700000                                                                             
D000020006057601827902122011113720พท.สะเอื้อน  คชวงค์                               88506799            204012001                               01760442CCSH       0000000869400000                                                                             
D000021006057601827902122011114618นายเสน่ห์ เเย้มสุดใจ                              8837-9994           7021-6355                               04690188CCSH       0000001100000000                                                                             
D000022006057601827902122011114830นางสลิล มะลิต้น                                   88189995            40210342                                08770801CCSH       0000001645000000                                                                             
D000023006057601827902122011115745นายปรีชา พราวศรี                                  8828-8798           9921-0354                               08698691CCSH       0000001914200000                                                                             
D000024006057601827902122011115745นงค์เครือ พุทธางกูรวงศ์                           8898-9396           7821-4349                               07951972CCSH       0000001398700000                                                                             
D000025006057601827902122011122122บุญฤทธิ์ ศรีสุยิ่ง                                8887-9586           0431-3053                               00748904CCSH       0000000808500000                                                                             
D000026006057601827902122011123337นายพิชิต พรหมมาวัน                                88059296            93310080                                00970119CCSH       0000001846600000                                                                             
D000027006057601827902122011125521ภูริพัฒน์ มะโรงศรี                                8896-8598           00216362                                00810345CCSH       0000001514700000                                                                             
D000028006057601827902122011125627นางประไพวรรณ  หวานเย็น                            88579591            53218352                                00510019CCSH       0000001700000000                                                                             
D000029006057601827902122011125807นางประไพวรรณ  หวานเย็น                            88259798            17216364                                00510019CCSH       0000001839700000                                                                             
D000030006057601827902122011125855สุภาณั ปิ่นรอด ชท6974                             88169398            49086217                                05750619CCSH       0000001161000000                                                                             
D000031006057601827902122011132329ชายชาญ ง.                                         88879596            18214353                                06900759CCSH       0000001903800000                                                                             
D000032006057601827902122011132954นายชายชาญ งามชื่น                                 88079696            26319052                                06900758CCSH       0000000870600000                                                                             
D000033006057601827902122011135354นาย ธนพัต  คุ้มวงษ์                               88678797            23316074                                07661135CCSH       0000001773000000                                                                             
D000034006057601827902122011140625สุภาพรณ์ เทพทวี ทว4675                            8867-9996           5621-4357                               01990939CCSH       0000001880000000                                                                             
D000035006057601827902122011143216วิรัตน์ อมรนิรุตติ พท2756                         8887-8797           6728-2215                               01990939CCSH       0000001105700000                                                                             
D000036006057601827902122011143633นาย ประสิทธิ์ ผ่านจังหาร                          88998497            22213340                                04730538CCSH       0000001600000000                                                                             
D000037006057601827902122011143704นายชัยกาญจน์ น้อยพินิจ  มจ5033                    88259996            30315063                                00100665CCSH       0000002000000000                                                                             
D000038006057601827902122011144415นางสุวีรยา นาสวน ทศ2716                           88469595            67212361                                05670390CCSH       0000001194400000                                                                             
D000039006057601827902122011144917นายยุทธชัย พลนันท์                                88779490            20219353                                10071091CCSH       0000003945000000                                                                             
D000040006057601827902122011145820บุญเลิศ ทองเตี้ย                                  88778399            05219356                                10150151CCSH       0000001878600000                                                                             
D000041006057601827902122011150804นาย อนุสรณ์  วารีน้อย ทม5553                      8826-9394           3521-5315                               01781712CCSH       0000001495700000                                                                             
D000042006057601827902122011151153นายยุทธนา กาวินัน                                 88503999            107098708           ทย 2433             04880760CCSH       0000001404000000                                                                             
D000043006057601827902122011152432นส.สุภาภรณ์  อำนาจเจริญยิ่ง                       88579394            54216353            0813029689          01307047CCSH       0000001884200000                                                                             
D000044006057601827902122011153054นางอัสเราะมะห์ ปานมณี ทร 9701                     88859894            17219330                                04603236CCSH       0000000768900000                                                                             
D000045006057601827902122011153213นายภานุพงค์ จรมณี ทม8962                          88789394            29218316                                00570334CCSH       0000001741900000                                                                             
D000046006057601827902122011153528คุณ มีอนันต์ ซ่อนกลิ่น มจ.7548                    8805-9194           8531-7064                               04621099CCSH       0000002300000000                                                                             
D000047006057601827902122011154235ด.ต.เสิม หยุ่นแก้ว ทศ7818                         88859496            88217361                                01970387CCSH       0000001800000000                                                                             
D000048006057601827902122011154811นางสาว สมทรัพย์ หนองหาร                           88278697            56210362                                00860082CCSH       0000002518200000                                                                             
D000049006057601827902122011154857นางทองจันทร์  โพธิ์ศรี                            88520599            107117401                               00610756CCSH       0000001159200000                                                                             
D000050006057601827902122011161727นางอนงค์ พงค์โสภี                                 8827-9597           1821-3350           ทว3801              05750020CCSH       0000001622400000                                                                             
D000051006057601827902122011162456นางลำเพย สรีดาวเดือน  ทล5807                      88589393            78215340                                08450531CCSH       0000001638200000                                                                             
D000052006057601827902122011165241นาย ณัฎฐพล พูลสวัสดิ์ ทร1792                      8836-9291           2721-1339                               11620026CCSH       0000001070000000                                                                             
D000053006057601827902122011165525นาย แอน หวังผล                                    88659495            94218361            ทศ8419              09700907CCSH       0000001505200000                                                                             
D000054006057601827902122011173609นายสมพงษ์  ติคำ  ทล  5020                         88503099            000025503                               10720208CCSH       0000001508500000                                                                             
D000055006057601827902122011174645นายวิษณุ ไชยา                                     88869396            75212362                                10325821CCSH       0000002192000000                                                                             
D000056006057601827902122011181849วิริทธิ์พล  กานต์กมลภูษิต                         8817-9694           4221-6350           ทว6204              08690266CCSH       0000002076800000                                                                             
D000057006057601827902122011182811นายนภดล เจตรุ่งพันธุ์                             88679391            43218359            ทว8394              08510518CCSH       0000001799200000                                                                             
D000058006057601827902122011183250นายชัยภัทร ธนิตธนายศ                              88545889            107034327                               11330131CCSH       0000000500000000                                                                             
D000059006057601827902122011183406นายชัยภัทร ธนิตธนายศ                              88544889            107037094                               11330131CCSH       0000000500000000                                                                             
T000060006057601827900000000000000000000000092346100000058                                                                                                                                                                                                      
