H0000010060576018279บริษัท ไทเอซ สิสซิ่ง จำกัด              29092011TALHO                                                                                                                                                                                       
D000002006057601827929092011083126นายธีรวัฒน์  ไชยสงค์ มช 877                       88540799            104115843                               04690052CCSH       0000001846600000                                                                             
D000003006057601827929092011083739นางสาวเพียรทอง ศรีโคตร                            88509490            18213335                                03970257CCSH       0000000409700000                                                                             
D000004006057601827929092011085906นายสมบัติ ชื่อสม ทม7386                           88569887            63217318                                04630432CCSH       0000001130000000                                                                             
D000005006057601827929092011092155คุณศุภรัตน์ พัฒนศิลป์                             77879196            64215358                                04880760CCLQ989867900000010000000650041                                                                         
D000006006057601827929092011093549ชัยยา ประพงษ์ ทล8522                              88267797            25218342                                10270539CCSH       0000001873200000                                                                             
D000007006057601827929092011093829นายวิทยา  ดาวเรือง                                88526799            107067177                               01900549CCSH       0000000096000000                                                                             
D000008006057601827929092011094756สมเกียรติ สีธงชัยรุ่งโรจน์                        88069595                                                    10271600CCSH       0000001596700000                                                                             
D000009006057601827929092011095425นางสาวดวงพร ภาระจ่า ทศ 7701                       88759696            17217360                                02530554CCSH       0000000130000000                                                                             
D000010006057601827929092011102356นางสาว ภัคจิรา เอี่ยมนอก ทศ 6600                  8895-9396           0621-6360                               00750049CCSH       0000000300200000                                                                             
D000011006057601827929092011103100นางจันทร์สม  โพธิ์แดง                             8825-9693           1421-9369                               01396715CCSH       0000001922300000                                                                             
D000012006057601827929092011103510นายนภดล เจตรุ่งพันธุ์                             88679391            43218359            ทว 8394             08510518CCSH       0000001799200000                                                                             
D000013006057601827929092011104204นายชวลิต ฮั่นปุดโจ๊ว ทว3709                       88679697            97213350                                04950176CCSH       0000001884200000                                                                             
D000014006057601827929092011104739นาย นิพนธ์  สิทธิราช                              88511599            104121274                               09680060CCSH       0000001867300000                                                                             
D000015006057601827929092011105124นางบุญสุข จงศิริโชค                               88467987            18216358                                01211627CCSH       0000001799200000                                                                             
D000016006057601827929092011110938สำเร็จ ทศ9389                                     88541099            104115288                               07960038CCSH       0000001656600000                                                                             
D000017006057601827929092011111043สำเร็จ ทศ7282                                     88659897            22217368                                07960038CCSH       0000001560000000                                                                             
D000018006057601827929092011111140สำเร็จ ทศ2872                                     88169395            28212367                                07960038CCSH       0000001467100000                                                                             
D000019006057601827929092011111237สำเร็จ ทว8498                                     88179691            84218359                                07960038CCSH       0000002048700000                                                                             
D000020006057601827929092011111336สำเร็จ ทล5653                                     88689493            36215345                                07960038CCSH       0000001467100000                                                                             
D000021006057601827929092011113920นายสุรชัย โทศรี ทศ2773                            88469986            37212367                                04671136CCSH       0000001523200000                                                                             
D000022006057601827929092011114051นายสุรชัย โทศรี ทศ2773                            88469986            37212367                                04671136CCLQ905816800000004300000240001                                                                         
D000023006057601827929092011114612นายทองหล่อ โภคา                                   8878-9492           0921-6340           ทล6900              03970649CCSH       0000001700000000                                                                             
D000024006057601827929092011114934คุณสุรินทร์ เขียนทอง                              8825-9295           9321-8335                               00240918CCSH       0000001495700000                                                                             
D000025006057601827929092011114947นายไพฑูรย์ วันเชียง ทล 4128                       8878-9997           8121-4342                               08000757CCSH       0000001640000000                                                                             
D000026006057601827929092011120953นางกันจนี คนหาญ                                   8875-9693           0321-9360           ทศ 9300             00940396CCSH       0000001883800000                                                                             
D000027006057601827929092011121009นาย อนุสรณ์  วารีน้อย                             8836-9794           8521-6342                               01780229CCLQ103739700000014847000040766                                                                         
D000028006057601827929092011121045นางสมพงษ์  ติคำ                                   88498798            74212348                                00981066CCSH       0000001699800000                                                                             
D000029006057601827929092011121414นายภักดี  ถาวรวัฒนะ                               8866-9697           4531-0062                               06920406CCSH       0000001589500000                                                                             
D000030006057601827929092011122338นายยุทธชนะ แดงอินทวัฒน์                           8835-9494           0831-0085           มช 850              02540756CCSH       0000001602440000                                                                             
D000031006057601827929092011132159นาย เพทาย ขันทนาลัย                               88078598            47214331            ทร 4714             10250012CCSH       0000001372600000                                                                             
D000032006057601827929092011133714เสริมศิลป์ โพนาคา                                 8858-8199           0231-3074                               11320523CCSH       0000001700000000                                                                             
D000033006057601827929092011133915เครือฟ้า ท. ทว3903                                88779797            39213350                                10360281CCSH       0000001791000000                                                                             
D000034006057601827929092011135751จ.ส.อ.ประดิษฐ์ ยุบลนวน                            88189898            06213341                                11250232CCSH       0000001447900000                                                                             
D000035006057601827929092011140342นายชาติชาย เกษตรเอี่ยม ทล 4880                    88389596            08214348                                07601301CCSH       0000001665500000                                                                             
D000036006057601827929092011141429มีสุข ตะคุณนะ                                     88059596            09219333                                04840038CCSH       0000001000000000                                                                             
D000037006057601827929092011142223นาย สุพจน์ โกมินทร์ ทย 8828                       8887-9894           8821-8322                               01230059CCSH       0000000431100000                                                                             
D000038006057601827929092011143254นาง นงค์เครือ พุทธางกูรวงศ์ ทล 4897               88989396            78214349                                01211627CCSH       0000001398700000                                                                             
D000039006057601827929092011151703นายองอาจ มหิทธิโรจน์ ทล6441                       88689692            14216344                                02150700CCSH       0000001004800000                                                                             
D000040006057601827929092011151838นายองอาจ มหิทธิโรจน์ ทล6463                       88589692            34216346                                02150700CCSH       0000001004800000                                                                             
D000041006057601827929092011151933พ.อ.อ.ชำนาญ  มณีวรรณ                              88533799            104116069                               01980820CCSH       0000001568200000                                                                             
D000042006057601827929092011152948นางสาวเบญจมาศ มูลลาด ทษ 616                       88519299            104122436                               04580699CCSH       0000002071500000                                                                             
D000043006057601827929092011160730นายสุรินทร์ บุญมาเลิศ                             8878-9293           3421-5348                               00640403CCSH       0000001668000000                                                                             
D000044006057601827929092011162539ไพจิตต์ ก.                                        88379895            99218329                                02560119CCSH       0000001383600000                                                                             
D000045006057601827929092011172830นายบรรจง สนิท ทล7688                              8878-9881           8621-7348                               05671599CCSH       0000001800000000                                                                             
D000046006057601827929092011180514นางขวัญหทัย ดีใจ ทว5701                           8847-9795           1721-5350                               10360725CCSH       0000001884200000                                                                             
D000047006057601827929092011181445จ.อ.วรายุ ทองฉิม  มฉ 6786                         8876-9497           6731-6078                               08510258CCSH       0000001506000000                                                                             
D000048006057601827929092011181707นายพิทักษ์ วรรณไทย มจ 301                         88579090            13310060                                04810552CCSH       0000000870800000                                                                             
T000049006057601827900000000000000000000000066471940000047                                                                                                                                                                                                      
