H0000010060576018279บริษัท ไทเอซ สิสซิ่ง จำกัด              12032012TALHO                                                                                                                                                                                       
D000002006057601827912032012083358นายสมบูรณ์ ดาทอง                                  88479495            79215353                                00910663CCSH       0000001918400000                                                                             
D000003006057601827912032012083959นายไพศาล  พรประภาศักดิ์  ทว  9158                 88479390            81219355                                01200195CCSH       0000001704800000                                                                             
D000004006057601827912032012084121นายไพศาล  พรประภาศักดิ์  ทว  9155                 88579390            51219355                                01200195CCSH       0000001704800000                                                                             
D000005006057601827912032012085801นายบุญสูง  ปัญสา                                  88169794            85213318                                01900549CCSH       0000001140000000                                                                             
D000006006057601827912032012085913นายวินัย  ผลดี ทร 8076                            88979395            60218337                                10200201CCSH       0000001683900000                                                                             
D000007006057601827912032012091345นาง สุภาพรณ์ เทพทวี ทว4675                        8867-9996           5621-4357                               10410123CCSH       0000001853700000                                                                             
D000008006057601827912032012091955นายสมนึก จิตรมนตรี                                88479298            72213359                                02530836CCSH       0000001918500000                                                                             
D000009006057601827912032012095511นายสำฤทธิ์ แก่นจันทร์  มจ7524                     88259595            45317062                                06921923CCSH       0000001262700000                                                                             
D000010006057601827912032012100525ศิลา  เกษมโชติพัฒน์                               88668398            70216364                                11341341CCSH       0000001890800000                                                                             
D000011006057601827912032012101244นายมงคล   ปราบภัย                                 88659597            46214352                                05756198CCSH       0000001617000000                                                                             
D000012006057601827912032012102313นายวิสุทธิ์  ปามา                                 88269887            22212369                                07961036CCSH       0000001900000000                                                                             
D000013006057601827912032012105505นายสวนิช  ชาติเผือก                               88759984            38212327                                01100263COTH       0000001551200000                                                                             
D000014006057601827912032012105657นายพุฒิพัฒน์ พีรชัยทัศน์ ทว9161                   8897-9290           1121-9356                               07650138CCSH       0000001918500000                                                                             
D000015006057601827912032012110347ชำนาญ  สินสำอางค์ ทว 8504                         88279191            45218350                                04950191CCSH       0000001884200000                                                                             
D000016006057601827912032012110405นายวันเฉลิม เกษตรสินธุ์                           8867-9487           2621-4355                               11521521CCSH       0000001021800000                                                                             
D000017006057601827912032012112405นายอรุณ สมัครณรงค์ ทษ 1692                        88593498            104126046                               04580699CCSH       0000002392740000                                                                             
D000018006057601827912032012113717นายไพรัช เข็มหนู                                  88679295            00216355                                01619541CCSH       0000001799200000                                                                             
D000019006057601827912032012113932นายขอบตะวัน  ดีประเสริฐ                           88569393            76213362                                01930068CCSH       0000001799200000                                                                             
D000020006057601827912032012114906นายเทพอำพล ประสงค์ทรัพย์                          88389990            76217348                                07341146CCSH       0000000132800000                                                                             
D000021006057601827912032012115811นางคำพันธ์ จันทร์พลงาม                            88759297            95217363                                10361034CCSH       0000002200500000                                                                             
D000022006057601827912032012115958นายธีรพงษ์ สมนาม                                  88523899            107136028                               10150884CCSH       0000000490500000                                                                             
D000023006057601827912032012120623นายวรวิทย์ และสง่า ทว3030                         88069697            00213353                                01890436CCSH       0000000300000000                                                                             
D000024006057601827912032012121329นางสาวสมหวัง  นับกลาง ทว 8493                     88479291            34218359                                00540531CCSH       0000001884200000                                                                             
D000025006057601827912032012121938นายเมธา วงษาแก้ว ทล.7708                          8818-9981           8721-7340           0895149577          01890658CCSH       0000001700000000                                                                             
D000026006057601827912032012122233นาย นรชัย แพงศร ทย 7678                           8806-9996           8621-7327                               09769761CCSH       0000001271600000                                                                             
D000027006057601827912032012122501นายโพธิ์   บุญกระพือ  มช1282                      88535099            104119597                               04670545CCSH       0000001100000000                                                                             
D000028006057601827912032012123013นายอนุสรณ์  ศรีมาลี  มฉ9708                       8875-9398           8731-9070                               00130162CCSH       0000001905000000                                                                             
D000029006057601827912032012123812นางกฤษณา  แจ้งเพชร  ทศ3343                        88269294            33213364                                06921923CCSH       0000001513600000                                                                             
D000030006057601827912032012124003นาย ดำรงค์ ต่อมพิทักษ์ไพร ทว9086                  8817-9290           6021-9358                               00641040CCSH       0000001884200000                                                                             
D000031006057601827912032012125039สกาวเดือน โสตา                                    88592798            107116689                               00960992CCSH       0000001076200000                                                                             
D000032006057601827912032012125304นายสุรศักดิ์ เลิศไกร                              88575497            107119489                               09550507CCSH       0000001683500000                                                                             
D000033006057601827912032012125823จ.ส.อ.สมพิศ   โหมดเทศ ษฉ 4184                     88659596            41374078                                06921923CCSH       0000000718500000                                                                             
D000034006057601827912032012130629นางกมลชนก สิงห์เส                                 88533499            106127224                               09761108CCSH       0000002104400000                                                                             
D000035006057601827912032012131338นางสลิล มะลิต้น  ทล 1756                          88589984            67211345                                04581882CCSH       0000001665000000                                                                             
D000036006057601827912032012131853นางวันเพ็ญ กิจนิยม                                88279690            53218317                                00660159CCSH       0000000968800000                                                                             
D000037006057601827912032012132129น.ส. วัสมล โชติสิงห์ ทศ 9033                      88540099            104115734                               05700767CCSH       0000001922300000                                                                             
D000038006057601827912032012133922นายเสน่ห์   ยิกุสังข์                             88089796            38214343                                10290212CCSH       0000001031000000                                                                             
D000039006057601827912032012134159นายธวัชชัย เจริญบัณฑิตชัย                         88679796            54314075            มฉ 4455             01980826CCSH       0000001000000000                                                                             
D000040006057601827912032012135420นาย ณัฐนนท์ นมนาน ทล9748                          88788989            87219344                                03830885CCSH       0000000235500000                                                                             
D000041006057601827912032012140315นางภัทรินิษฐ์  ฉัตรมงคลชัย                        88288997            65213338                                09760114CCSH       0000001538600000                                                                             
D000042006057601827912032012141659นายภูริณัฐ อดุลนิรัตน์                            88588099            65210356                                10720930CCSH       0000001918500000                                                                             
D000043006057601827912032012142019นายวาริช  สงเคราะห์                               88089294            59311076            085-1206125         04600142CCSH       0000001295300000                                                                             
D000044006057601827912032012142754นาย วินัย ผลดี                                    88979395            60218337            ทร 8076             10250012CCSH       0000000061000000                                                                             
D000045006057601827912032012143313นางนงคราญ เขมะวิริยะ                              88079790            71147245                                00120152CCSH       0000000335400000                                                                             
D000046006057601827912032012143357นายเพชร เกาะแก้ว                                  88523399            107037867                               00910663CCSH       0000001109000000                                                                             
D000047006057601827912032012144008สุรินทร์ เขียนทอง                                 88259295            93218335                                00240918CCSH       0000001563000000                                                                             
D000048006057601827912032012144930นาย กฤตบุญ บุญทนิมิตร ทศ 4255                     88369293            52214365                                01200546CCSH       0000001988200000                                                                             
D000049006057601827912032012145046นายดำรงค์รักษ์ โชคพิมาย ทว 4436                   88579887            64214353                                00771132CCSH       0000001884200000                                                                             
D000050006057601827912032012145533นาย เมธี เผือกพันธ์มุข                            88559797            75213323                                05760932CCSH       0000001086700000                                                                             
D000051006057601827912032012151624นายสุรัตน์  สังข์เงิน  ทล1367                     88503199            107154503                               01200488CCSH       0000000098600000                                                                             
D000052006057601827912032012152023นายอรัญ  ขาวเนตร ทม 3639                          88869293            96213313                                09760114CCSH       0000001541300000                                                                             
D000053006057601827912032012152639นายบัวลา  ทองขาว  ทศ7406                          8865-9497           6421-7360                               01215368CCSH       0000001828800000                                                                             
D000054006057601827912032012153918นายสมพงษ์ ใจดี มฉ 4373                            8837-9196           3331-4077                               01734121CCSH       0000000877600000                                                                             
D000055006057601827912032012153935นางสาวจันทร์วัชรินทร์ อินต๊ะแก้ว ทษ 705           88510989            104123384                               01230059CCSH       0000001903900000                                                                             
D000056006057601827912032012154744นายธณานันท์ .                                     88288097            67214339                                01528111CCSH       0000001463000000                                                                             
D000057006057601827912032012162910น.ส.ชิตนะภา ศรีเงินงาม ทม8258                     88878998            82218315                                09740222CCSH       0000001550000000                                                                             
D000058006057601827912032012163737นายชาญชัย แซ่ปัง ทศ8080                           8895-9096           0021-8368                               05750619CCSH       0000003700000000                                                                             
D000059006057601827912032012172519นายรังสันติ เวียงนนท์ ทล5124                      88889795            41215342                                10150069CCSH       0000001692200000                                                                             
D000060006057601827912032012174020นางภัสรา เรศสุข ทศ5636                            88868299            66215363                                10720930CCSH       0000001929500000                                                                             
D000061006057601827912032012180612นายสุรเดช แก่นโนรา ศฉ 1620                        88869797            06361072                                04881100CCSH       0000000588500000                                                                             
D000062006057601827912032012183326นาย ทวีศักดิ์ ด้วงศรี ทศ3685                      8836-9193           5621-3368                               04880528CCSH       0000001890500000                                                                             
D000063006057601827912032012190519นายวิชัย  วงศ์อัศวเวศย์  ทว5368                   8867-9586           8321-5356                               04881090CCSH       0000001478300000                                                                             
D000064006057601827912032012190725นายคมสัน จันทร์หอม                                8827-8397           5821-0362                               05970554CCSH       0000001587900000                                                                             
T000065006057601827900000000000000000000000092659040000063                                                                                                                                                                                                      
