H0000010060576018279บริษัท ไทเอซ สิสซิ่ง จำกัด              14072011TALHO                                                                                                                                                                                       
D000002006057601827914072011083353นางสาว ณัฐธิชา ทาระเวท                            88469597            76211367                                02330063CCSH       0000001861800000                                                                             
D000003006057601827914072011083630นาย รัศเธียร บัวคลี่ ทว.3504                      88179788            45213350                                01481887CCSH       0000002015200000                                                                             
D000004006057601827914072011083719นาย รัศเธียร บัวคลี่ ทศ. 2933                     88169095            39212363                                01481887CCSH       0000001800000000                                                                             
D000005006057601827914072011085102นายบุญสูง ปัญสา                                   8816-9794           8521-3318                               04710157CCSH       0000001105700000                                                                             
D000006006057601827914072011085235นายบุญสูง ปัญสา                                   8816-9794           8521-3318                               04710157CCSH       0000000034300000                                                                             
D000007006057601827914072011085833นายเฉียบวุฒิ อ่อนยิ่ง                             8896-9292           0131-8074                               03082288CCSH       0000001432800000                                                                             
D000008006057601827914072011095116นายรุ่งโรจน์ จงกราน ทย558                         8837-9881           8521-0325                               01800598CCSH       0000000693000000                                                                             
D000009006057601827914072011100734นางอุบลรัตน์ บัวเพชร ทศ 331                       88178098            13210363                                04603621CCSH       0000001884200000                                                                             
D000010006057601827914072011103043นายพิพัฒน์ พรมบุตร ทร 5890                        8826-9696           0821-5339                               10903618CCSH       0000001658500000                                                                             
D000011006057601827914072011103909เสกสรรค์                                          8847-9984           7621-6351                               01990606CCSH       0000001515300000                                                                             
D000012006057601827914072011104725นาย สาธิต ทองอร่ามเหลือง ทล 3726                  88089798            67213342                                01481887CCSH       0000000235500000                                                                             
D000013006057601827914072011105244นายสมพงษ์ พลพุทธา  ทว 2583                        8808-8097           3521-2358                               10130063CCSH       0000001700000000                                                                             
D00001400605760182791407201110560918842.00                                          8827-9781           6521-8358           ทว 8586  0852534570 11300791CCSH       0000001884200000                                                                             
D000015006057601827914072011105641นายวัชรเทพ  เชื้อไทย                              8826-8797           0521-7326                               00895858CCSH       0000001588000000                                                                             
D000016006057601827914072011110114นายศักดิ์ชัย  นิยมนา  ฮข 7405                     8806-9792           5442-7020                               04690052CCSH       0000000402000000                                                                             
D000017006057601827914072011110400นางคนึงนิตย์ ตะคุณนะ ทว4443                       88479687            34214354                                05674254CCSH       0000002207000000                                                                             
D000018006057601827914072011111351K.สมพร พงษ์เหล่างิ้ว                              88459897            17313053                                10810271CCSH       0000000695500000                                                                             
D000019006057601827914072011111950พรศักดิ์ วีระพันธ์                                88479593            19216356                                11300564CCLQ342658300000015900000020187                                                                         
D000020006057601827914072011112015นายอมฤต สนิทขำ (ทศ 2909)                          8806-9195           9921-2360           พรทิพย์ หอมชะเอม 08900772884CCSH       0000001918500000                                                                             
D000021006057601827914072011112139นาย  วันเฉลิม  เกษตรสินธุ์ ทว  7041               8857-9694           1021-7354                               09760820CCSH       0000001833500000                                                                             
D000022006057601827914072011112605นายเอกสิทธิ์ ศรีตองอ่อน ทว597                     8858-8689           7521-0359                               02590911CCSH       0000001918700000                                                                             
D000023006057601827914072011120225นาย พรชัย เมตุลา มจ 3440                          8858-8297           0431-3064                               04581882CCSH       0000000200000000                                                                             
D000024006057601827914072011122033นางประไพวรรณ  หวานเย็น ทว8559                     88567297            95218355                                00510019CCSH       0000001775000000                                                                             
D000025006057601827914072011122111อดิศร ซอและ                                       8886-9292           6621-7312                               05690216CCSH       0000001453000000                                                                             
D000026006057601827914072011124830นายอนุสรณ์ วารีน้อย                               88968599            93219310            ทม.9309             07990541CCLQ103437100000024967000040766                                                                         
D000027006057601827914072011125219นาง รำพึง แดงเกาะโพธิ์ ทว2349                     8846-9493           9321-2354                               01951142CCSH       0000001864300000                                                                             
D000028006057601827914072011130108นายจักรกริช รอดทอง                                8848-9987           3721-4344                               01898928CCSH       0000001794800000                                                                             
D000029006057601827914072011132949นายดำรงค์ ต่อมพิทักษ์ไพร ทว9086                   88179290            60219358                                01891881CCSH       0000001384200000                                                                             
D000030006057601827914072011133355สุรพงษ์  วงศ์กำภู                                 8826-9290           5021-5367                               01410687CCSH       0000001856500000                                                                             
D000031006057601827914072011135900นายพงศ์พล มั่นศักดิ์                              8876-9791           6421-8316           ทม 8466             01610661CCSH       0000002297900000                                                                             
D000032006057601827914072011135928นายอดิศักดิ์ หันวิสัย มจ 5576                     8856-9693           6531-5067                               01730895CCSH       0000001010600000                                                                             
D000033006057601827914072011140121นายอรรณพ ศรีปัญญานนท์ ทศ8230                      8855-9986           0221-8363                               05671599CCSH       0000001828800000                                                                             
D000034006057601827914072011140615นายเอกชัย รัตนวิจิตร                              88257897            99214318                                00210830CCSH       0000001715600000                                                                             
D000035006057601827914072011143547นาย สมนึก สืบพิลัย  ทล 9579                       88867497            95219347                                02260509CCSH       0000001700000000                                                                             
D000036006057601827914072011143805นาย สมนึก สืบพิลัย   ทว 7854                      88079392            48217355                                02260509CCSH       0000001014500000                                                                             
D000037006057601827914072011144306นายนรินทร์  ร่มลำดวน  ทย4                         8806-9297           4021-0320                               07950592CCSH       0000002304400000                                                                             
D000038006057601827914072011144837มงคล ทองอยู่ ทว8154                               8867-9982           4121-8355                               10410720CCSH       0000001799200000                                                                             
D000039006057601827914072011145000นาย ฉลาด วันชนะ ทศ307                             88078988            73210360                                10070236CCSH       0000001918500000                                                                             
D000040006057601827914072011145328นาย มงคล  คุณประทุม ทว7910                        8897-9192           0921-7351                               07580556CCSH       0000001884200000                                                                             
D000041006057601827914072011145700นายกิตติพงศ์ กรศุภอานนท์ ทย2990                   8877-8599           0921-2329                               08510017CCSH       0000001650000000                                                                             
D000042006057601827914072011145819นาย กิตติพงศ์ กรศุภอานนท์ ทย1041                  8837-8599           1021-1324                               08510017CCSH       0000001382100000                                                                             
D000043006057601827914072011150325นายสมคิด อินตา ทย 1109                            88288197            91211320                                01481887CCSH       0000001551900000                                                                             
D000044006057601827914072011150607พิชิตร์ ภูฆัง                                     8856-8798           7421-5321           ทย 5417             09620049CCSH       0000000884600000                                                                             
D000045006057601827914072011151633นาง วัลภา ไชยนิด ทศ 4992                          88469490            29214369                                10270592CCSH       0000001895300000                                                                             
D000046006057601827914072011151741นายนราศักดิ์ ป้องชื่น ทล4144                      8888-9098           4121-4344                               04581830CCSH       0000001749800000                                                                             
D000047006057601827914072011152007ประกาศ หลุมทอง                                    88979394            96210315                                06926921CCSH       0000000831500000                                                                             
D000048006057601827914072011155039พ.ต.ณัฐ กาญจนโรจน์ ทล 8432                        8896-9290           2421-8343                               04770553CCSH       0000001382100000                                                                             
D000049006057601827914072011184441นาย วินัย ผลดี ทว 7638                            8867-9792           8621-7353                               04810106CCSH       0000001935700000                                                                             
T000050006057601827900000000000000000000000073534900000048                                                                                                                                                                                                      
