H0000010060576018279บริษัท ไทเอซ สิสซิ่ง จำกัด              23092011TALHO                                                                                                                                                                                       
D000002006057601827923092011085954นางเสน่ห์  อินสุ                                  88779690            47218358                                01900549CCSH       0000001652200000                                                                             
D000003006057601827923092011091417น.ส.ศิริกานดา ทานุรัตน์                           88869796            51212363                                04692643CCSH       0000001799200000                                                                             
D000004006057601827923092011093453นาย พลอย   เถาว์พุดชา                             8848-8898           7721-0352           ทว727               00611358CCSH       0000001700000000                                                                             
D000005006057601827923092011095527นางสาว พรนภา พันธ์ประดิษฐ์ ทว 4383                8857-9297           3321-4358                               02501180CCSH       0000001802800000                                                                             
D000006006057601827923092011095607นายชิ้น ทองไพรวรรณ                                8857-9692           5621-7350                               06930091CCSH       0000001927700000                                                                             
D000007006057601827923092011100742นายธนวัฒน์  พูลวงษ์ ทย 3046                       8801-8999           6021-3324                               07961036CCSH       0000000903300000                                                                             
D000008006057601827923092011100932อดิศร ดอนสว่าง  ทร 1066                           88889597            60211336                                07960121CCSH       0000001484700000                                                                             
D000009006057601827923092011103948นางผาณิต จันทร์เมฆา                               8846-7297           7621-0353           ทว 637              09660435CCSH       0000001799200000                                                                             
D000010006057601827923092011104547นาย วีระ ศรีแก้ว ทม 7819                          88659096            98217311                                01481887CCSH       0000000132800000                                                                             
D000011006057601827923092011104630นายธวัชชัย เจริญบัณฑิตชัย                         88679796            54314075                                01980897CCSH       0000002447800000                                                                             
D000012006057601827923092011105006มานพ ฉิมพล                                        88779392            79372312                                01451246CCSH       0000000717200000                                                                             
D000013006057601827923092011112437นาย สัญญา  สาแก้ว                                 88167897            4213335                                 01966618CCSH       0000001212700000                                                                             
D000014006057601827923092011112923นาย อิทธิพงศ์ อินทรีย์  มฉ2769                    8888-9781           9731-2076                               01551139CCSH       0000001800000000                                                                             
D000015006057601827923092011115109นางสมร สุภชีรักษ์ ทล 55                           8819-8698           5021-0345                               11520390CCSH       0000001755300000                                                                             
D000016006057601827923092011115433นายสำรวย จางนอก ทศ 6206                           88368897            62216360                                00570712CCSH       0000001006600000                                                                             
D000017006057601827923092011115513นาย นรชัย  แพงศร  ทศ2128                          8896-9896           8121-2362                               00651470CCSH       0000001884200000                                                                             
D000018006057601827923092011121038นายธนะสิทธิ์ สัจจสิงห์                            88489797            62214343                                01266669CCSH       0000001200000000                                                                             
D000019006057601827923092011121227นางณัฏฐินันท์ ทองน้อย                             48528999            104119553                               05670558CCSH       0000001605000000                                                                             
D000020006057601827923092011121349นางณัฏฐินันท์ ทองน้อย                             88525899            104119553                               05670558CCSH       0000001751000000                                                                             
D000021006057601827923092011122003น.ส.สุนิสา  ชัยชนะ  ทศ8295                        8815-9995           5221-8369                               11670205CCSH       0000001846600000                                                                             
D000022006057601827923092011122330นายสัมเดช เกลี้ยงดี ทร1348                        88169995            83211334                                04600072CCSH       0000001550000000                                                                             
D000023006057601827923092011124212นาย นิธิพัฒน์ บังเกิดคงคาดิษฐ์ ทศ8429             8895-9795           9421-8362                               04671034CCSH       0000002546900000                                                                             
D000024006057601827923092011124328นาย วราวุฒิ จันทร์ประโคน ทว3900                   8887-9697           0921-3350                               02590600CCSH       0000001700000000                                                                             
D000025006057601827923092011124613สมจิตต์ เดือนจิตต์ ทย8921                         88809296            19218322                                07960121CCSH       0000000295500000                                                                             
D000026006057601827923092011132538นางคูณ  เทศแท้  ทว  6783                          8857-9993           3721-6358                               03970523CCSH       0000001700000000                                                                             
D000027006057601827923092011132832นาย วิทยา ทิพย์บุญผล                              88759497            96217361                                07937931CCSH       0000001706900000                                                                             
D000028006057601827923092011132933นาย วิทยา ทิพย์บุญผล ทศ.7619                      48359997            96217361                                07937931CCSH       0000000321000000                                                                             
D000029006057601827923092011133224นายสมนึก สืบพิลัย ทล9062                          8888-9580           2021-9346                               02260861CCSH       0000001261500000                                                                             
D000030006057601827923092011134006น.ส.อรพิน ธนารักษ์เจริญกุล                        8818-8899           1321-9340                               00550079CCSH       0000001838900000                                                                             
D000031006057601827923092011134336นายปรีชา สุขสมร                                   8857-9896           9231-4075                               00000130CCSH       0000001700000000                                                                             
D000032006057601827923092011134542นายทศพล  ดวงมาลี                                  88488998            63313075                                07990132CCSH       0000001869000000                                                                             
D000033006057601827923092011135143สุรีรัตน์ เอี่ยมอำพร                              8837-9796           00215353                                05690237CCSH       0000001295300000                                                                             
D000034006057601827923092011140036ด.ต.สมทัย องอาจ ทศ 2163                           8836-9896           3121-2366                               10137595CCSH       0000002090000000                                                                             
D000035006057601827923092011141004นายแพน  ชนะพาล                                    8876-9695           4331-7071                               05760270CCSH       0000001705000000                                                                             
D000036006057601827923092011141014นายบัญญัติ แก่นจันทร์                             8825-9594           0531-0075           มฉ 550              09620049CCSH       0000001382100000                                                                             
D000037006057601827923092011141959นายทนงศักดิ์ คงแก้ว                               8879-8899           4821-1347           ทล1874              08698691CCSH       0000001248600000                                                                             
D000038006057601827923092011142141นายทนงศักดิ์ คงแก้ว                               8869-8899           5821-1347           ทล 1875             08698691CCSH       0000001248600000                                                                             
D000039006057601827923092011144216สมศักดิ์ ลีประโคน ทศ 5176                         8806-9190           6121-5367                               03990096CCSH       0000001929800000                                                                             
D000040006057601827923092011145131นายสงบ ระย้า มง 1372                              88069598            23311057                                01970208CCSH       0000000571500000                                                                             
D000041006057601827923092011150108น.ส.ดวงจันทร์ โมฆรัตน์                            8866-7697           0221-6358                               01449226CCSH       0000001884200000                                                                             
D000042006057601827923092011151615วรรณชัย ว.                                        88479793            68314078                                02560119CCSH       0000001700000000                                                                             
D000043006057601827923092011152951นายคมสัน ศรีวะรมย์                                88889492            93216345                                07620489CCSH       0000001790300000                                                                             
D000044006057601827923092011153429สายันห์ เอี่ยมลออ                                 8856-9290           1321-5337                               11240437CCSH       0000001122000000                                                                             
D000045006057601827923092011155235นายเชี่ยว ไหมดำ                                   8876-9498           3031-3064                               00951079CCSH       0000001382100000                                                                             
D000046006057601827923092011161314ด.ต.เสิม หยุ่นแก้ว ทว.9322                        8846-9994           2321-9352                               01971063CCSH       0000001800000000                                                                             
D000047006057601827923092011163156นาย วรพงศ์  พูลพิพิธ ทย 6690                      88988597            06216329                                04880062CCSH       0000000200000000                                                                             
D000048006057601827923092011164131จิระเดช ราหูรักษ์                                 8896-9790           7721-4360                               04670401CCSH       0000001890800000                                                                             
D000049006057601827923092011172821นายประสิทธิ์ จันทร์พิพัฒน์ผล                      8847-8599           4621-5326                               05700127CCSH       0000001225000000                                                                             
D000050006057601827923092011175235นายประสิทธิ์  หอมสนั่น    มฉ2840                  8888-9990           0831-2074                               08780888CCSH       0000001799200000                                                                             
D000051006057601827923092011181112นายอนันต์ สิงห์น้อย ทศ1463                        8876-9797           3421-1366                               04950529CCSH       0000001918440000                                                                             
D000052006057601827923092011182711นาง พัชรี  ศรีหาประทุม  ทม 8664                   8876-9491           4621-8316                               08400047CCSH       0000000158500000                                                                             
D000053006057601827923092011185104นายบัญชา สีจุ้ย ทศ2313                            8816-9796           3321-2361                               11520390CCSH       0000001948200000                                                                             
D000054006057601827923092011193045นายจิรเดช โพธิ์สว่าง                              88078797            68218356            0862187258          07620496CCSH       0000001385700000                                                                             
T000055006057601827900000000000000000000000078593340000053                                                                                                                                                                                                      
