H0000010060576018279บริษัท ไทเอซ สิสซิ่ง จำกัด              26112011TALHO                                                                                                                                                                                       
D000002006057601827926112011100052น้ำฝน จันทร์หอม                                   88889893            56215345                                10320746CCSH       0000001212800000                                                                             
D000003006057601827926112011105648น.ส.ชลธิชา  พญาแก้ว                               8836-8997           2221-6364                               10990536CCSH       0000002270100000                                                                             
D000004006057601827926112011111847นางธมน จันทะเหล็ก ทศ 1476                         88669897            64211367                                02500607CCSH       0000001918500000                                                                             
D000005006057601827926112011112657นายอนุรักษ์  แซ่คู                                8858-8898           7621-3352                               04930913CCSH       0000001700000000                                                                             
D000006006057601827926112011122439ด.ต.สุวนัย เสาศิริ ทศ2860                         88869195            08212366                                04780120CCSH       0000001723000000                                                                             
D000007006057601827926112011123119นางเยาวะรัชน์  โคมแก้ว ทร2850                     8895-9194           0821-2335                               07620776CCSH       0000000646800000                                                                             
D000008006057601827926112011131654นางรัชนี อยู่บำรุง ทม 6787                        88507989            107079819                               11140083CCSH       0000000529100000                                                                             
D000009006057601827926112011133831นายอนุสรณ์  วารีน้อย ทม 5583                      88278399            35215318            0846616490          07990070CCSH       0000001391000000                                                                             
D000010006057601827926112011135010นายสมบูรณ์ เนตรแสงศรี ทย8290                      88378297            02218329                                02500607CCSH       0000000604800000                                                                             
D000011006057601827926112011150758นางพรรณา วรรณโนรักษ์ ทว6918                       8827-9793           8921-6351                               08510017CCSH       0000001602800000                                                                             
D000012006057601827926112011161622นายชัชวาล  แสงอาวุธ ทศ 8732                       88540599            106197181                               08401303CCSH       0000001883800000                                                                             
D000013006057601827926112011161842นาย ชัชวาล แสงอาวุธ                               88559595            63218365                                08401303CCSH       0000001828800000                                                                             
D000014006057601827926112011162452นายสุชาติ แก้วดอนรี ทล2063                        88798499            30212346                                10150884CCSH       0000001665500000                                                                             
D000015006057601827926112011170231ส.ต.อ.สมบัติ สิมหลวง                              8858-9798           4821-3342           ทล 3824             09620049CCSH       0000003331000000                                                                             
D000016006057601827926112011173339นางวันพร องค์ศิริพร ทย 3331                       8816-9994           1321-3323                               10996785CCSH       0000001507800000                                                                             
D000017006057601827926112011173910นาย สุวรรณ ชัยชนะ ทษ472                           88513499            104121190                               10970213CCSH       0000002069400000                                                                             
D000018006057601827926112011174622นายนิยม  กล้าหาญ                                  88598498            107114878                               08690542CCSH       0000000453000000                                                                             
D000019006057601827926112011182115นางสาว นริสรา แปนสวย ทศ7640                       88859896            06217364                                08510017CCSH       0000001863300000                                                                             
D000020006057601827926112011194439นายปริญญา  คงคาสุริยฉาย                           88179090            99089403                                10720208CCSH       0000001130000000                                                                             
T000021006057601827900000000000000000000000029331500000019                                                                                                                                                                                                      
