H0000010060576018279บริษัท ไทเอซ สิสซิ่ง จำกัด              04012012TALHO                                                                                                                                                                                       
D000002006057601827904012012083320นายอนุชิต ปูพบุญ                                  88589090            51219282            ทพ 9125             01902177CCSH       0000001517700000                                                                             
D000003006057601827904012012083414น.ส.จินตนา มัจฉาชีพ                               88659196            70218360                                06872983CCSH       0000001798500000                                                                             
D000004006057601827904012012084825นายบุญมา ล้ำทวีภักดี                              88478899            06212322                                01851837CCSH       0000001000000000                                                                             
D000005006057601827904012012085623พ.ต.สะเอื้อน คชวงค์  ทย02552                      88506799            204012001                               01760698CCSH       0000000869400000                                                                             
D000006006057601827904012012085657นายอนิวรรตน์ ไชกองชา                              88178398            61316078                                00779362CCSH       0000001884200000                                                                             
D000007006057601827904012012092314นส.สุรทิพย์ อินทรสูต ทย.4347                      88513899            107103711                               00824310CCSH       0000001159200000                                                                             
D000008006057601827904012012092528นางสาวสุกัญญา จันทร์แจ้ง ทย 3085                  88418999            50213328                                03870286CCSH       0000000598200000                                                                             
D000009006057601827904012012093042นายธีระศักดิ์ สุประภากร ทล7026                    88489882            60217342                                00980829CCSH       0000001700000000                                                                             
D000010006057601827904012012093456คุณ สุจินต์ ทรงขำ                                 88069392            11318078                                02610077CCSH       0000001721500000                                                                             
D000011006057601827904012012095153วรรณา บุญประเสริฐ                                 88589798            104126293                               01761687CCSH       0000001867300000                                                                             
D000012006057601827904012012095947นายเผชิญ   โพธิ์ศรี                               88379395            70216350                                00611358CCSH       0000001884200000                                                                             
D000013006057601827904012012100405นางสาวดวงพร ภาะจ่า ทศ 7701                        88759696            17217360                                02530554CCSH       0000002042700000                                                                             
D000014006057601827904012012101307นายวิรัตน์ เกิดผล                                 8858-9797           2221-4347                               00830604CCSH       0000001558300000                                                                             
D000015006057601827904012012101406นายสมชาย เอนจินทะ                                 8817-9494           7831-4070                               05761504CCSH       0000001700000000                                                                             
D000016006057601827904012012101545นายธีรพงษ์ นันทะทอง                               88598398            107030406                               04690188CCSH       0000000870000000                                                                             
D000017006057601827904012012102030บุญนาค ทว2978                                     8895-9884           8921-2357                               01990606CCSH       0000001189100000                                                                             
D000018006057601827904012012102124สลิล  มะลิต้น                                     88189995            40210342            ทล24                08690266CCSH       0000001783000000                                                                             
D000019006057601827904012012102253นางสมพร อินทะแสง ทว 3088                          88979398            80213358                                02590600CCSH       0000001700000000                                                                             
D000020006057601827904012012102415น.ส.ลัดดา ผาพิน ทร 1254                           88769597            42211335                                10270592CCSH       0000000989800000                                                                             
D000021006057601827904012012103015นายบรรจง  สุวรรณโคต                               88879587            77219329            ทย9797              08690266CCSH       0000001666500000                                                                             
D000022006057601827904012012103404นายพิชิด พรหมมาวัน                                88059296            93310080                                00340279CCSH       0000001846600000                                                                             
D000023006057601827904012012104253นายประกอบ ประทุมศรี มง3608                        88869895            86313050                                10120044CCSH       0000000841500000                                                                             
D000024006057601827904012012104319นายซาเล็ม ศรีหล้า ปษ1610                          88669890            06251371                                05670390CCSH       0000000608200000                                                                             
D000025006057601827904012012104738นางชูชื่น เทพสุภรณ์กุล  มฉ 4637                   8847-9395           7631-4073                               08000757CCSH       0000001884200000                                                                             
D000026006057601827904012012105205พ.อ.อ.สมนาม อ่วมประสิทธิ์ ทศ 3177                 88669894            71213367                                07930240CCSH       0000001885000000                                                                             
D000027006057601827904012012105314นายบุญมี จันทร์กอง ทล8809                         8898-9190           9821-8340           0894448012          01970387CCSH       0000001700000000                                                                             
D000028006057601827904012012105911นาย ชนะชาติ ทับทิม                                88978899            80312065                                05760932CCSH       0000001079900000                                                                             
D000029006057601827904012012110003นายคงฤทธิ์  ผดาวัลย์                              88479192            50214318                                03970257CCSH       0000001220000000                                                                             
D000030006057601827904012012111824นายนภดล เจตรุ่งพันธุ์                             88679391            43218359                                08510017CCSH       0000001799200000                                                                             
D000031006057601827904012012112227นายจำลอง  เที่ยงตรง                               88779992            25217350                                06920406CCSH       0000000064300000                                                                             
D000032006057601827904012012112503นายบัวลา ทองขาว                                   8865-9497           6421-7360                               01210241CCSH       0000001828800000                                                                             
D000033006057601827904012012112520นางศิลมน เจนธรรมกุล   ทศ8314                      88659695            43218361                                08690335CCSH       0000001584300000                                                                             
D000034006057601827904012012112659นาย กรชาล จันทะเก ทว8622                          88857697            26218352                                10070203CCSH       0000001918500000                                                                             
D000035006057601827904012012113927นายธนสิทธิ์ สัจจสิงห์ ทว 2184                     88888198            41212358                                07650138CCSH       0000001918500000                                                                             
D000036006057601827904012012114812นายเสน่ห์ ขาวสวัสดิ์                              88369698            34217332                                02590096CCSH       0000001366000000                                                                             
D000037006057601827904012012120058นายสัญญพงศ์ เจียรนัยกูร ทศ 8941                   88540499            106195012                               10270592CCLQ685135300000018838000250545                                                                         
D000038006057601827904012012120338นายเสริฐ ทีฆาวงค์ ถส2576                          88269893            65202387                                01200722CCSH       0000000898900000                                                                             
D000039006057601827904012012120436นายสุนทร ผาครบุรี                                 88516199            106199157                               00740081CCSH       0000001785800000                                                                             
D000040006057601827904012012120606นายปัญญา ศรีคำ ทว 5697                            88979795            76215359                                02580367CCSH       0000002008700000                                                                             
D000041006057601827904012012121607นายบวรพลภ์ สุนทราธนาทิพย์                         8847-9995           0621-5359                               09680260CCSH       0000001556500000                                                                             
D000042006057601827904012012121842นายปวเรศ วงษ์อามาตย์/ทศ 1965                      8836-9990           5921-1366                               05670826CCSH       0000001640400000                                                                             
D000043006057601827904012012123004นายคมกริช กรศุภกุล                                88279496            71215357                                01890619CCSH       0000002081500000                                                                             
D000044006057601827904012012123225นาย  ประจักษ์  เวชปาน ทม 5376                     88369791            63215317                                01980820CCSH       0000000939800000                                                                             
D000045006057601827904012012123809นายสุชาติ จันทร์เสวก                              88169893            59218314                                07110877CCSH       0000001186000000                                                                             
D000046006057601827904012012123820นาง อารยา  สมจิตร                                 88968897            75319060                                08401303CCSH       0000001647500000                                                                             
D000047006057601827904012012124310วิชาญ                                             88514099            107136915                               00101176CCSH       0000000433300000                                                                             
D000048006057601827904012012124326ทองแหวน นิลไสล                                    88889394            53215345                                01480363CCSH       0000001617900000                                                                             
D000049006057601827904012012124501นายศราวุฒิ สุขพัฒน์ ทศ 5002                       8866-9490           2021-5360                               04580699CCSH       0000001856500000                                                                             
D000050006057601827904012012125209นายสมศักดิ์ ลีประโคน 0879193953                   88069190            61215367                                03993086CCSH       0000001942800000                                                                             
D000051006057601827904012012130127นายวรภพ งะบัว                                     8826-9096           3121-2333                               00141060CCSH       0000001517700000                                                                             
D000052006057601827904012012130458ระเบียบ พิมทอง                                    88549299            104116175                               04700261CCSH       0000001549300000                                                                             
D000053006057601827904012012130559นาย สมนึก  สืบพิลัย                               8807-9392           4821-7355           ทว 7854             02260178CCSH       0000002116700000                                                                             
D000054006057601827904012012130654นาย สมนึก  สืบพิลัย                               8897-9393           1021-7356           ทว 7061             02260178CCSH       0000002116700000                                                                             
D000055006057601827904012012131525นาย พิเชษฐ์  ศรีหาประทุม ทว4013                   88779197            30214351                                08401303CCLQ226862600000016800000150154                                                                         
D000056006057601827904012012131553วิษณุ ไชยา                                        88869396            75212362                                00170047CCSH       0000002201000000                                                                             
D000057006057601827904012012131556นายสุรัตน์ จิตตนาค                                8878-9190           0421-9344           ทล 9440             00820884CCSH       0000001700000000                                                                             
D000058006057601827904012012131735นาย ธนพงษ์ เครือวณิชธรรม ทม4468                   88857897            84214316                                10154881CCSH       0000002838800000                                                                             
D000059006057601827904012012131737นายจำลูน ไชยช่วย                                  88569890            13318076                                01787080CCSH       0000001052200000                                                                             
D000060006057601827904012012132233นายสุพพัต ตองติดรัมย์ มฉ 4383                     8867-9886           3331-4078                               04780201CCSH       0000001982500000                                                                             
D000061006057601827904012012133047นางสาวสมทรัพย์  หนองหาร                           8827-8697           5621-0362                               00860810CCSH       0000002518200000                                                                             
D000062006057601827904012012133822ธนกร                                              88768099            16214319                                00530863CCSH       0000000519000000                                                                             
D000063006057601827904012012140016นาย ธำรงค์ยศ มะยมหิน                              88859997            84311061                                08510017CCSH       0000000597700000                                                                             
D000064006057601827904012012140847นาย ภูริพัฒน์ มะโรงศรี ทศ 6020                    88968598            00216362                                00813461CCSH       0000001514700000                                                                             
D000065006057601827904012012141119นายวิทยา  พัดเย็นใจ                               88510799            107139189                               11470668CCSH       0000001013200000                                                                             
D000066006057601827904012012141145นายบุญเลิศ  ทรัพย์เจริญกุล ทศ7974                 8845-9296           4921-7367                               02590911CCSH       0000002008400000                                                                             
D000067006057601827904012012142204นายไพบูลย์ วิทิตกนกปรีดา ทพ9736                   88768198            67219283                                04650665CCSH       0000000144500000                                                                             
D000068006057601827904012012144545มาลาศรี ทองชา                                     88769293            79215338                                01230490CCSH       0000000664500000                                                                             
D000069006057601827904012012144900ธเนศ                                              88569190            50315069                                00920706CCSH       0000001105700000                                                                             
D000070006057601827904012012145227อนุสรณ์  วารีน้อย ทม 5553                         8826-9394           3521-5315                               07990174CCSH       0000001495700000                                                                             
D000071006057601827904012012145247นายถวิล  นาโควงค์  ทว 6477                        88179294            74216357                                00750766CCSH       0000001884200000                                                                             
D000072006057601827904012012150451สุเทพ ห. ทร5163                                   88507999            107136882                               10360281CCSH       0000001285500000                                                                             
D000073006057601827904012012150549ประคอง สามงามนิ่ม                                 88279193            75217355                                00180718CCSH       0000002238300000                                                                             
D000074006057601827904012012151604นายมงคล  คุณาประทุม                               88979192            09217351                                07580441CCSH       0000000235500000                                                                             
D000075006057601827904012012152537K.เสาวรส จำนงค์ไวย                                88502599            1071400203                              02610535CCSH       0000001302400000                                                                             
D000076006057601827904012012153337นางศศิธร  ดวงแก้ว                                 88469296            54212360            089-682-4566        04600142CCSH       0000001515300000                                                                             
D000077006057601827904012012154229จตุพร นาคไพรัชช์                                  88379498            82213359                                10520224CCSH       0000002006300000                                                                             
D000078006057601827904012012155431นางสาว เจนนภา ไทยเจริญ ทว6432                     88779294            24216353                                10070203CCSH       0000001900000000                                                                             
D000079006057601827904012012160631นายประยูร วิเศษนอก                                88769190            77217355                                11520403CCSH       0000001969200000                                                                             
D000080006057601827904012012161153นางทิพย์ ธนทรัพย์สมบัติ                           88576597            106182015                               08646017CCSH       0000001834300000                                                                             
D000081006057601827904012012162313นางจันทา ชัยราช                                   88069597            67211363                                10320864CCSH       0000001918500000                                                                             
D000082006057601827904012012165822นาย นพพร รักษาคุณ มฉ 1741                         88459994            17311074                                08450154CCSH       0000001370000000                                                                             
D000083006057601827904012012170321ร.อ.รัฐธีร์ น้อยนิตย์ ทล 6472                     8838-9392           2421-6347                               07540908CCSH       0000001377800000                                                                             
D000084006057601827904012012170510นายเสกสรร นาสวน ทศ3713                            88069393            37213361                                05670390CCSH       0000000235500000                                                                             
D000085006057601827904012012170621นางสุวีรยา นาสวน ทศ2716                           88469595            67212361                                05670390CCSH       0000001194400000                                                                             
D000086006057601827904012012174032นายพิชยนต์ เปี่ยมทอง                              8856-9991           1221-1319                               05970554CCSH       0000001351400000                                                                             
D000087006057601827904012012174456นายสมหวัง  เหล็งศิริ ทล1204                       88979886            42211340                                05701141CCSH       0000001589000000                                                                             
D000088006057601827904012012174721นายธานี   ชาญตะบะ                                 88298797            74213344                                08553235CCSH       0000001665500000                                                                             
D000089006057601827904012012175840สมบัติ วงษ์เดอรี ทย 5011                          88669691            10215321                                11045221CCSH       0000001164300000                                                                             
D000090006057601827904012012175959นางสาววิชุดา พลายแก้ว                             88977297            84213344                                07540908CCSH       0000001665500000                                                                             
D000091006057601827904012012180813นายอานนท์ วันแจ   วฉ5956                          88199391            69355075                                08690335CCSH       0000000624200000                                                                             
D000092006057601827904012012183617น.ส.ปัทมา  ทรัพย์กลิ่น                            88979491            44315073            มฉ5434              08690266CCSH       0000001804000000                                                                             
D000093006057601827904012012183950นายณัฎฐพล พูลสวัสดิ์ ทร3237                       88502299            107131584                               04781103CCSH       0000001105900000                                                                             
D000094006057601827904012012184117นางสาว เฉลิมศรี ทองขาว                            8856-9390           8121-6339                               00860670CCSH       0000001105700000                                                                             
T000095006057601827900000000000000000000000137203200000093                                                                                                                                                                                                      
