H0000010060576018279บริษัท ไทเอซ สิสซิ่ง จำกัด              08022012TALHO                                                                                                                                                                                       
D000002006057601827908022012094036นายบรรจง สุวรรณโคต ทย 9797                        88879587            77219329                                04581830CCSH       0000001642100000                                                                             
D000003006057601827908022012094338น.ส.ชื่นใจ ศิริคุณ                                88505999            107149438                               08771836CCSH       0000001134000000                                                                             
D000004006057601827908022012095605นายประจัญชัย อัฒจักร                              88169992            87313059                                11440143CCSH       0000000718700000                                                                             
D000005006057601827908022012101218นายชาตรี อินทรศักดิ์ ทล4573                       88289297            35214347                                10320864CCSH       0000001665500000                                                                             
D000006006057601827908022012102943นาย ชัยโรจน์ เพชรพันธศักดิ์                       88879092            50218353                                00640141CCSH       0000001799200000                                                                             
D000007006057601827908022012103155นาย ดอเลาะ มูเนาวาเราะห์                          88087497            00215340                                00820154CCSH       0000001494000000                                                                             
D000008006057601827908022012103321อาคม  มังกรทอง                                    8806-9495           9831-3054                               00360791CCSH       0000000620300000                                                                             
D000009006057601827908022012104639นางสาว  บัวเครือ   ริมเพชร                        88778398            59219358                                04824690CCSH       0000001735000000                                                                             
D000010006057601827908022012111007พ.อ.อ.ชำนาญ มณีวรรณ                               88533799            104116069                               01980916CCSH       0000001568200000                                                                             
D000011006057601827908022012112134นางสาว สุภาณี ปิ่นรอด                             8816-9398           4908-6217                               10990511CCSH       0000001161000000                                                                             
D000012006057601827908022012112747นายทองดี วงษ์จักษุ                                88513789            107153172                               04991118CCSH       0000000235500000                                                                             
D000013006057601827908022012113627นางสาว จิรัฐิติกาล เพลงสระเกษ                     8887-9097           3221-4356                               00370348CCSH       0000001836000000                                                                             
D000014006057601827908022012121425นางสุดาทิพย์  เอี่ยมอิทธิฤทธิ์                    88521599            104119718                               09760114CCSH       0000002057300000                                                                             
D000015006057601827908022012121840นายประสิทธิ์  แสนจะบก มง6247                      88512699            107036744                               09760114CCSH       0000000869400000                                                                             
D000016006057601827908022012130501นาย แพง  พงษ์สุกรี                                88979888            13213350                                11520169CCSH       0000001020000000                                                                             
D000017006057601827908022012130532นาย แพง  พงษ์สุกรี                                88879888            12213359                                11520169CCSH       0000001117000000                                                                             
D000018006057601827908022012134718นายวานิช  พานะคุณ                                 88178197            43314074                                00830886CCSH       0000001806000000                                                                             
D000019006057601827908022012135346ด.ต.สุวนัย เสาศิริ วศ4499                         88469890            94354369                                02150082CCSH       0000000995000000                                                                             
D000020006057601827908022012135809นางสาวสมพิตย์ อาสาเน                              8849-8297           6421-3347                               01100754CCSH       0000001724200000                                                                             
D000021006057601827908022012135931นาย สมาน คิมหันตา ทล 4233                         88531199            107161476                               09621104CCSH       0000001572400000                                                                             
D000022006057601827908022012141316นายมนทพย์  กองอ้น                                 88159695            08210323                                05760270CCSH       0000001124700000                                                                             
D000023006057601827908022012141354นางสาวจิราภา ยอดรัก                               8896-9291           1921-1366                               04670401CCSH       0000001557700000                                                                             
D000024006057601827908022012141613นายสมชาย ตราลาภ                                   88259794            28219310                                03833635CCSH       0000001550000000                                                                             
D000025006057601827908022012142047ประจวบ เพ็งธรรม                                   88769490            60215367                                00530863CCSH       0000001856500000                                                                             
D000026006057601827908022012143504นายกิตติพงศ์ กรศุภอานนท์                          8897-8799           7021-2320                               03970257CCSH       0000001590000000                                                                             
D000027006057601827908022012143549นางสาวจันทร์จิรา เข็มวรรณ์  ทษ505                 88513299            106199327                               01800267CCSH       0000002011700000                                                                             
D000028006057601827908022012143609นายกิตติพงศ์ กรศุภอานนท์                          8807-8899           2021-6310                               03970257CCSH       0000001590000000                                                                             
D000029006057601827908022012144037นายมนัด ตั้งเรือนรัตน์ ทล 284                     88659997            42210348                                08560792CCSH       0000001140000000                                                                             
D000030006057601827908022012145155นางสำรวย เดชเถร ทศ 9474                           88535199            104116249                               07930240CCSH       0000001901600000                                                                             
D000031006057601827908022012145354นาย อนุสรณ์ วารีน้อย ทม.7744                      8846-9797           4721-7314                               01781712CCSH       0000001517700000                                                                             
D000032006057601827908022012150856นางสาว ธาริณี แก้วผลึก                            8857-9096           5121-5355                               10520869CCSH       0000001884200000                                                                             
D000033006057601827908022012150908นาย สุรศักดิ์ อินทศร  ทว 5456                     8877-9586           6421-5355                               04581882CCSH       0000002232000000                                                                             
D000034006057601827908022012151650นายอดิศร  ซอและ  ท 7626                           88869292            66217312                                05690088CCSH       0000001488000000                                                                             
D000035006057601827908022012153237วันชัย  ทย.9648                                   88514299            107119990                               07581173CCSH       0000001603300000                                                                             
D000036006057601827908022012153559นางบุณยานิตย์ ศิริรักษ์ ทร7780                    88878397            07217338                                09740391CCSH       0000001525800000                                                                             
D000037006057601827908022012163358วิโจน์ ดาราสม ทม 9564                             8828-8098           4521-9316                               05970092CCSH       0000001187700000                                                                             
D000038006057601827908022012170934นายสมเจตน์  จงพินิจ                               88534989            106133589                               01730481CCSH       0000001445000000                                                                             
D000039006057601827908022012173006พ.ต.ณัฐ กาญจนโรจน์                                88969290            24218343                                04770515CCSH       0000001382100000                                                                             
D000040006057601827908022012174948นางกมลชนก สิงห์เส                                 88533499            106127224                               09760107CCSH       0000002104400000                                                                             
D000041006057601827908022012182814นส.สุรีย์รัตน์ วงษ์เดอรี (ทย5009)                 88669891            90215320                                11041298CCSH       0000001091400000                                                                             
D000042006057601827908022012191933นายโชคชัย สนธิ์ชัยสกุล                            88879688            35213350                                10320864CCSH       0000000315500000                                                                             
T000043006057601827900000000000000000000000058870100000041                                                                                                                                                                                                      
