H0000010060576018279บริษัท ไทเอซ สิสซิ่ง จำกัด              22112011TALHO                                                                                                                                                                                       
D000002006057601827922112011083357นายวิรัช  ยิ้มถาวร  มจ1399                        88508299            107084136                               00540531CCSH       0000001212700000                                                                             
D000003006057601827922112011083445นางสาว ศิรินทร์ทิพย์ สลุงอยู่ ทศ 7643             88959896            36217364                                04581882CCSH       0000001519900000                                                                             
D000004006057601827922112011084150นายปิยะ ประทีปช่วง                                88669792            58213360            ทศ3805              00721689CCSH       0000001799200000                                                                             
D000005006057601827922112011084235พิรภัทรา                                          8887-9792           0921-7358                               06991739CCSH       0000001884200000                                                                             
D000006006057601827922112011085657อุไรวรรณ  นุตตะโยธิน                              8816-8898           1421-3329           089-0507177         04600142CCSH       0000001391000000                                                                             
D000007006057601827922112011085843นางสาววิวรรณ  ละม้ายโสม                           88778699            73219358                                02170215CCSH       0000001975500000                                                                             
D000008006057601827922112011085936นางสาวบุญนำ  สมัครเขตรการ                         88520999            104119489           ทศ 9765             04990266CCSH       0000001901600000                                                                             
D000009006057601827922112011090601น.ส.ดวงจันทร์  โมฆรัตน์                           8866-7697           0221-6358                               02935626CCSH       0000001884200000                                                                             
D000010006057601827922112011091308นายทวี นากนิยม                                    8837-9197           5321-4351                               01880367CCSH       0000001677100000                                                                             
D000011006057601827922112011092225นายมงคล  มูลมณี มฉ2017                            88689793            70312071                                06921923CCSH       0000003406900000                                                                             
D000012006057601827922112011092231น.ส.สุวภัทร พรประภาศักดิ์                         8846-9198           8921-4361                               01254926CCSH       0000001794600000                                                                             
D000013006057601827922112011092257นายจักร  แท่งเหล็ก                                8888-9394           5321-5345                               01056639CCSH       0000001617900000                                                                             
D000014006057601827922112011092353นาย รัฐ ใจฉ่ำ                                     88178998            80312060                                01966618CCSH       0000001230500000                                                                             
D000015006057601827922112011092926นายสมจิตร  เกษมพงษ์                               88388598            78210352                                00471296CCSH       0000001700000000                                                                             
D000016006057601827922112011093231วิเชต มารกลม ทล5166                               8878-9994           6121-5346                               07190098CCLQ211786500000003600000020275                                                                         
D000017006057601827922112011093416วิเชต มารกลม ทล5166                               88789994            61215346                                07190098CCSH       0000001652500000                                                                             
D000018006057601827922112011093552วิเชต มารกลม ทล5166                               88789994            61215346                                07190098CCSH       0000000206000000                                                                             
D000019006057601827922112011093933สุกัญญา ศรีจันทร์                                 88279696            37214355                                00170047CCLQ550115200000019187000650498                                                                         
D000020006057601827922112011094346นายปรีชา  บุญมั่น                                 8867-9790           3721-8358                               03210273CCSH       0000001900000000                                                                             
D000021006057601827922112011095434นางนงนุช สุทธาวาส ทศ1611                          88669298            16211361                                00640141CCSH       0000001884200000                                                                             
D000022006057601827922112011095545น.ส.นฤมล ชนกศรีทอง                                8848-8897           8821-1355                               01521521CCSH       0000001700000000                                                                             
D000023006057601827922112011095609น.ส.อรพิน ธนารักษ์เจริญกุล ทล9301                 8818-8899           1321-9340                               00554094CCSH       0000001838900000                                                                             
D000024006057601827922112011100053เอกสิทธิ์ ศรีตองอ่อน                              88379696            37214359                                00170047CCSH       0000001918700000                                                                             
D000025006057601827922112011100205น.ส.เพชรมณี สิงห์วิชัย                            8838-9780           0921-9323                               00550079CCSH       0000001000000000                                                                             
D000026006057601827922112011100229นายอำนาจ รวยภิรมย์ มฉ.5275                        88679092            52315077            0816533880          01970387CCSH       0000001932000000                                                                             
D000027006057601827922112011101257นายคงศักดิ์ กองทอง                                88527799            104119626                               00281171CCSH       0000001643400000                                                                             
D000028006057601827922112011101350นายวรรณชัย  วิบูลคำ                               8847-9793           6831-4078                               02561499CCSH       0000001700000000                                                                             
D000029006057601827922112011101425สุระ  บรรจง                                       88520799            104120699                               00360791CCSH       0000002029000000                                                                             
D000030006057601827922112011102858พตท.สุเทพ ภูดวงเดือน ทม9460                       88459597            04219316                                01800598CCSH       0000001232200000                                                                             
D000031006057601827922112011103147นาง สุวทณีย์ จิตต์สนธิ                            88757697            48317074            มฉ.7844             01950405CCSH       0000001799200000                                                                             
D000032006057601827922112011103401สำเริง กมุทชาติ                                   88514499            107134447                               06991739CCSH       0000001080000000                                                                             
D000033006057601827922112011103644นางทองจันทร์  โพธิ์ศรี                            88520599            107117401                               00610756CCSH       0000001159200000                                                                             
D000034006057601827922112011104529นายพงษ์ศักดิ์ สุวรรณคาม                           8847-9097           7221-4350                               07660755CCLQ496184200000005000000040023                                                                         
D000035006057601827922112011104721นายพงษ์ศักดิ์ สุวรรณคาม                           8847-9097           7221-4350                               07660755CCSH       0000001234300000                                                                             
D000036006057601827922112011104946มงคล หลักทอง                                      88279881            00315061                                00141060CCSH       0000001379500000                                                                             
D000037006057601827922112011105518นางกิ่งวิวรรณ์  กระแสโสม ทศ7198                   88359997            81217369                                02590608CCSH       0000001705000000                                                                             
D000038006057601827922112011105621นายพีระเดช ศักดิ์เดชะมณี                          88787497            74213345                                02530654CCLQ375655 00000005000000140327                                                                         
D000039006057601827922112011105644นางกิ่งวิวรรณ์ กระแสโสม                           48859997            81217369                                02590608CCSH       0000000170000000                                                                             
D000040006057601827922112011105850นายสุรเชษฎ ตปนิยนันท์  ทล 3756                    88589898            67213345                                05670558CCSH       0000001699800000                                                                             
D000041006057601827922112011110849นายธนะจิตต์ พึ่งโพธิ์สภ  ทว512                    88388689            25210351                                08690335CCSH       0000001700000000                                                                             
D000042006057601827922112011111529นายทน กองเกตุใหญ่ มฉ 6034                         8887-8999           4031-6073                               02530654CCSH       0000001884200000                                                                             
D000043006057601827922112011111620นายสุรพงษ์ ยารังษี                                88569590            22316065                                03833635CCSH       0000001105700000                                                                             
D000044006057601827922112011112112สมพร กาศักดิ์                                     88479896            07214356                                00940557CCSH       0000001700000000                                                                             
D000045006057601827922112011112124นายวรเทพ ชมดวง ทว 5501                            88179995            15215350                                04603236CCSH       0000001901000000                                                                             
D000046006057601827922112011112409นายพงษฺ์กฤษณ์ เกียรติเจริญพันธุ์ ทศ 8803          8825-9694           3821-8360                               04580699CCSH       0000002479200000                                                                             
D000047006057601827922112011112421นายภูพนา  ทองสมบูรณ์                              8807-9990           6621-8353           083-7181117         04600142CCSH       0000001799200000                                                                             
D000048006057601827922112011112442นายพิทยา ผิวผ่อง                                  8838-8499           6131-3078                               00940557CCSH       0000001700000000                                                                             
D000049006057601827922112011112541นายพงษฺ์กฤษณ์ เกียรติเจริญพันธุ์ ทศ 7808          8895-9596           8821-7360                               04580699CCSH       0000002479200000                                                                             
D000050006057601827922112011112622นายพงษฺ์กฤษณ์ เกียรติเจริญพันธุ์ ทศ 8353          8835-9895           3321-8365                               04580699CCSH       0000002479200000                                                                             
D000051006057601827922112011112702อมรรัตน์ จันทรศร                                  88188399            88217321                                01480363CCSH       0000001453700000                                                                             
D000052006057601827922112011113004นาง นงคราญ คำมอญ ทว 7259                          88479993            92217355                                04581882CCSH       0000002528000000                                                                             
D000053006057601827922112011113103นาง นงคราญ คำมอญ ทล 9527                          88488599            75219342                                04581882CCSH       0000002036500000                                                                             
D000054006057601827922112011113115นาย เทพอำพล ประสงค์ทรัพย์                         88389990            76217348                                07340880CCSH       0000001501100000                                                                             
D000055006057601827922112011113429นายอดิศร ซอและ ทล1296                             88959695            62211349                                05690237CCSH       0000001490000000                                                                             
D000056006057601827922112011113549นายอนันต์  สิงห์น้อย                              8876-9797           3421-1366                               07961036CCSH       0000001884200000                                                                             
D000057006057601827922112011114211นายปราโมทย์ อภิรมย์ดี                             8847-9092           6721-6315                               10200553CCSH       0000000872800000                                                                             
D000058006057601827922112011114833นายธนภัทร จันทร์หอมกุล ทศ6816                     88659698            68216361                                05671599CCSH       0000001965800000                                                                             
D000059006057601827922112011120116สัณหณัฐ ภู่กรุต ทศ8979                            88759195            99218367                                07960038CCSH       0000000239700000                                                                             
D000060006057601827922112011120613น.ส.วรรณวิการ์ ศิริเจริญ ทล3728                   8888-9598           8721-3342                               01953140CCSH       0000001830000000                                                                             
D000061006057601827922112011120731นายอุดร  ผาน้อยวงค์  ทล3562                       8868-9998           2521-3346                               02590911CCSH       0000001665500000                                                                             
D000062006057601827922112011121333นางภัสรา เรศสุข ทศ 5630                           8876-8299           0621-5363                               08404479CCSH       0000001799200000                                                                             
D000063006057601827922112011121437นางภัสรา  เรศสุข ทศ5636                           8886-8299           6621-5363                               08404479CCSH       0000001799200000                                                                             
D000064006057601827922112011121906น.ส.หยกฟ้า เจตจำเนียรกุล  ทร 3655                 8877-7397           5621-3335                               10154881CCSH       0000001220700000                                                                             
D000065006057601827922112011122022นายเสริฐ ทีฆาวงค์ ถส 2576                         88269893            65202387                                10071091CCSH       0000000898900000                                                                             
D000066006057601827922112011122301นางสาวภัทรานิษฐ์ รัตนวรธันยา ทศ2066               88269787            60212366                                04810155CCSH       0000001595000000                                                                             
D000067006057601827922112011122509นางสาวภัทรานิษฐ์ รัตนวรธันยา ทว7692               88879892            26217359                                04810155CCSH       0000001595000000                                                                             
D000068006057601827922112011124145นางทีตา พันลำจันทร์                               88533599            107137960                               03960529CCSH       0000001275500000                                                                             
D000069006057601827922112011124441วัสมล โชติสิงห์                                   88518699            104122412                               04810111CCSH       0000002037200000                                                                             
D000070006057601827922112011124929นาย สมนึก  สืบพิลัย                               88359994            66218369            ทศ 8696             02260178CCSH       0000002069400000                                                                             
D000071006057601827922112011125226พลูพิณ เขียวแดง                                   8807-9981           5531-5079                               01890216CCSH       0000001679300000                                                                             
D000072006057601827922112011125350นายอรรถพล ศิริอรรถ                                77399392            36214328                                07660755CCSH       0000001067100000                                                                             
D000073006057601827922112011125528อิทธิโชติ ทัดเทียม                                8828-8897           8221-2351                               08000990CCSH       0000001974900000                                                                             
D000074006057601827922112011130400นางสาวนงลักษณ์  ศรีชมชื่น ทศ9832                  88527899            104119706                               00330234CCSH       0000001805540000                                                                             
D000075006057601827922112011130610นายสุทิน เจาะจง                                   8808-9690           2121-8342                               06214964CCSH       0000001595500000                                                                             
D000076006057601827922112011131101นายถวิล  จำเริญ                                   88279197            80214357            ทว 4078             07990132CCSH       0000001476800000                                                                             
D000077006057601827922112011131233นายสมชาย ศิริรักษ์ ทย 5592                        8856-9997           2521-5329                               00690674CCSH       0000000100000000                                                                             
D000078006057601827922112011131257นายถวิล  จำเริญ                                   88179698            47212357            ทว 2774             07990132CCSH       0000001476800000                                                                             
D000079006057601827922112011131452นายถวิล  จำเริญ                                   88178899            13219359            ทว 9391             07990132CCSH       0000001476800000                                                                             
D000080006057601827922112011133726นางสลิล มะลิต้น  ทย 6326                          88189791            63216322                                04581882CCSH       0000001502000000                                                                             
D000081006057601827922112011134251นส.นุชนารถ  แจ่มศุภพันธ์  ทว 3501                 88067097            15213350                                04585612CCSH       0000001884200000                                                                             
D000082006057601827922112011134405นายพงษ์ศักดิ์ บริบูรณ์  ทศ7652                    88459896            26217365                                04585612CCSH       0000002376400000                                                                             
D000083006057601827922112011134821นายเชาน์วัศ หล้าสุดตา                             88979196            20215350                                01260388CCSH       0000001776500000                                                                             
D000084006057601827922112011140114นายไพโรจน์ บุญขันธ์ ทว8495                        88510999            106151163                               00830255CCSH       0000001716900000                                                                             
D000085006057601827922112011140812นายสุรินทร์ ชูวงศ์วาน                             88269592            39312058                                07829604CCSH       0000001722000000                                                                             
D000086006057601827922112011140918นายศราวุฒิ สุขพัฒน์ ทล6068                        88389892            80216346                                08691092CCSH       0000001700000000                                                                             
D000087006057601827922112011140952นายศราวุฒิ สุขพัฒน์ ทล4135                        88289997            51214343                                08691092CCSH       0000001665500000                                                                             
D000088006057601827922112011141138นางศิริพร บัติดอน                                 8816-9097           6521-5329           0854465673          06290801CCSH       0000002200000000                                                                             
D000089006057601827922112011141805นายเจริญ แสงแดง                                   88379390            18210347                                00540018CCSH       0000001714300000                                                                             
D000090006057601827922112011142017พ.ต.ณัฐ กาญจนโรจน์                                88505899            106140169                               04770491CCSH       0000000087000000                                                                             
D000091006057601827922112011142039น.ส.นิลวรรณ สมประสงค์ ทศ 9208                     88539889            107022140           0813112827          02173494CCSH       0000000097000000                                                                             
D000092006057601827922112011142827นาย อำจาจ  จันทรวิวัฒน์  ทว 3664                  88979788            46213356                                08400047CCSH       0000001652150000                                                                             
D000093006057601827922112011142924นาง จิราพร ทองร่มโพธิ์ ทว6633                     88179884            36216353                                01890436CCSH       0000001700000000                                                                             
D000094006057601827922112011143436ประพจน์ พิลาดี                                    88504999            104123374                               04607752CCSH       0000001994700000                                                                             
D000095006057601827922112011143549นายสุนทร  บุญกิด                                  88504599            107107351                               03965684CCSH       0000000500000000                                                                             
D000096006057601827922112011144412นายสมพร หนูขวัญ ทล 7350                           88289391            03217345                                02501180CCSH       0000001889000000                                                                             
D000097006057601827922112011144716สุรีรัตน์ เอี่ยมอำพร                              88379796            00215353                                05690237CCSH       0000001329600000                                                                             
D000098006057601827922112011145514นายเวชยันต์ พรธิอั้ว ทว454                        88157697            44210355                                11240761CCSH       0000003175000000                                                                             
D000099006057601827922112011145728นายองอาจ มหิทธิโรจน์ ทว6614                       88879784            46216351            46216351            02152851CCSH       0000000205500000                                                                             
D000100006057601827922112011145957นายองอาจ มหิทธิโรจน์ ทว6613                       8897-9784           3621-6351                               02152851CCSH       0000000205500000                                                                             
D000101006057601827922112011150106นายวรพงศ์ พูลพิพิธ                                8818-9591           7321-1311           ทม1317              00741604CCSH       0000002700000000                                                                             
D000102006057601827922112011150251นายวรพงศ์ พูลพิพิธ                                8898-8597           0621-6329           ทย6690              00741604CCSH       0000003000000000                                                                             
D000103006057601827922112011150401นายสนิท ขุนทอง                                    88079694            06314079                                07690239CCSH       0000000098500000                                                                             
D000104006057601827922112011150416นายทศพล ดวงมาลี                                   88488998            63313075                                07990501CCSH       0000001868000000                                                                             
D000105006057601827922112011150738นางครรวี สิงหรา ณ อยุธยา                          88893598            107040115           ทพ 9198             00570153CCSH       0000001552000000                                                                             
D000106006057601827922112011150813นายรุ่งโรจน์  เนาว์กลาง  ทม244                    8856-9392           4221-0314                               02590911CCSH       0000001124500000                                                                             
D000107006057601827922112011151045นาย มานะ ปานนพภา (ทล4957)                         88889196            79214345                                00311061CCSH       0000001614000000                                                                             
D000108006057601827922112011152752นาย ทศพล ผาช้างเผือก มฉ 4088                      88669296            80314078                                08450154CCSH       0000001649600000                                                                             
D000109006057601827922112011152838นาย ทนงศักดิ์ คงแก้ว ทล 4326                      8838-9597           6321-4342                               01951095CCSH       0000001275700000                                                                             
D000110006057601827922112011153010นาย ทนงศักดิ์ คงแก้ว ทล 4327                      88489597            73214342                                01951095CCSH       0000001275700000                                                                             
D000111006057601827922112011153344นางสายเงิน  จริยสุวรรณ ทล8689                     8888-9090           9621-8348                               02590911CCSH       0000001988200000                                                                             
D000112006057601827922112011154043นายพิกิจ ภูมิภาค ทศ 2106                          8816-9887           6121-2360                               02530654CCSH       0000002346000000                                                                             
D000113006057601827922112011154404นายจักรชัย ลมัยกุล                                8816-8699           0421-5368                               09620049CCSH       0000000928600000                                                                             
D000114006057601827922112011160241กนิษฐา  อินฉาย                                    88378598            50217314                                01760442CCSH       0000000600000000                                                                             
D000115006057601827922112011161542นาง นิตยา วรสาร                                   8836-9893           0321-3363                               07752367CCSH       0000001175500000                                                                             
D000116006057601827922112011162117นาย สุรศักดิ์ อินทศร  ทว 5449                     8887-9386           9421-5354                               04581882CCSH       0000002518000000                                                                             
D000117006057601827922112011162221นาย สุรศักดิ์ อินทศร ทว 1327                      88369290            73211352                                04581882CCSH       0000001048800000                                                                             
D000118006057601827922112011162656นายศิริมงคล เจริญศิริ ทว7521                      88379992            15217352                                10154881CCSH       0000001700000000                                                                             
D000119006057601827922112011162743นายศิริมงคล เจริญศิริ ทว7520                      88279992            05217352                                10154881CCSH       0000001700000000                                                                             
D000120006057601827922112011171657พ.จ.อ.สิทธิพงศ์ น้อยแสง                           88537299            107075093                               07660497CCSH       0000000404200000                                                                             
D000121006057601827922112011174739นายธนเดช สงวนรัตน์                                88579796            57214355                                11140807CCSH       0000001884200000                                                                             
T000122006057601827900000000000000000000000186320490000120                                                                                                                                                                                                      
