H0000010060576018279บริษัท ไทเอซ สิสซิ่ง จำกัด              21102011TALHO                                                                                                                                                                                       
D000002006057601827921102011085849นายมัน พรมนิมิตร                                  8848-8999           8131-3073                               05760270CCSH       0000000748000000                                                                             
D000003006057601827921102011091032นายปรีชา มุนนี ณล418                              88517789            106009685                               02610535CCSH       0000000163100000                                                                             
D000004006057601827921102011091510นายวิรัช ยิ้มถาวร มจ 1399                         88508299            107084136                               00540039CCSH       0000001212700000                                                                             
D000005006057601827921102011095226นายพลอย เถาว์พุดซา ทว727                          8848-8898           7721-0352                               00610680CCSH       0000001700000000                                                                             
D000006006057601827921102011102635นาย เพชร สูตรอุดม                                 8865-9297           8921-4320                               04730538CCSH       0000001287300000                                                                             
D000007006057601827921102011102919นางนิตยา วรสาร                                    88369893            03213363                                00240400CCSH       0000001175500000                                                                             
D000008006057601827921102011103532นายวานิช พานะคุณ มฉ4344                           8817-8197           4331-4074                               00920219CCSH       0000001802000000                                                                             
D000009006057601827921102011110123นาย เอกสิทธิ์ ศรีตองอ่อน                          88379696            37214359                                00170444CCLQ550114 00000019187000650498                                                                         
D000010006057601827921102011110227นายคำพันธ์ พุ่มจันทร์  ทล 4745                    88879693            57214344                                02540469CCSH       0000001626100000                                                                             
D000011006057601827921102011110241นางสุกัญญา ศรีจันทร์                              88279696            37214355                                00170444CCLQ550114300000019187000650498                                                                         
D000012006057601827921102011110523นายวิทูร สุนทรีรัตน์ ทล3543                       8878-9998           3521-3344                               05670558CCSH       0000001502800000                                                                             
D000013006057601827921102011111157นางสาว ไพจิตต์ กีรติพินิจ ทม 7043                 8808-8399           3021-7314                               07601138CCSH       0000001580000000                                                                             
D000014006057601827921102011111431วิยะดา ยิ่งยงค์                                   88078397            27210364                                11521521CCSH       0000001884200000                                                                             
D000015006057601827921102011111516นายวัชรพล สิงห์ลี                                 88379496            90215357                                08511738CCSH       0000001892500000                                                                             
D000016006057601827921102011111551นายนิวัฒน์ บุบผาสุพรรณ์ ทล5538                    88189893            85215343                                10254482CCSH       0000001802300000                                                                             
D000017006057601827921102011111940มนัส  ใจกระสินธ์                                  88288898            58210356                                11310957CCSH       0000001432800000                                                                             
D000018006057601827921102011112345พ.ต.ท.สุเทพ ภูดวงเดือน                            88459597            04219316                                01800156CCSH       0000001232200000                                                                             
D000019006057601827921102011113431นางจุไรรัตน์ สุทธิเวช ทล4789                      88189996            97214348                                05670390CCSH       0000001691700000                                                                             
D000020006057601827921102011113612นางจุไรรัตน์ สุทธิเวช ทล4789                      88189996            97214348                                05670390CCLQ380053 00000007000000060056                                                                         
D000021006057601827921102011114112นายสำรวย จางนอก                                   8836-8897           6221-6360           ทศ6206              00571548CCSH       0000001006600000                                                                             
D000022006057601827921102011115922นายสมพร หนูขวัญ ทล 7350                           88289391            03217345                                02501180CCSH       0000001890500000                                                                             
D000023006057601827921102011120917นายไพโรจน์ บุญขันธ์                               88510999            106151163                               00830604CCSH       0000001116800000                                                                             
D000024006057601827921102011120933นาง สุมาลี สังข์ทอง                               8827-9587           8521-4356                               07660497CCSH       0000001799200000                                                                             
D000025006057601827921102011122227นางจิราภรณ์ เถื่อนอาราม                           88979096            45210325                                02540469CCSH       0000001319700000                                                                             
D000026006057601827921102011122350นายชัชวาล แสงอาวุธ ทศ8357                         88059895            73218365                                08405593CCSH       0000001828800000                                                                             
D000027006057601827921102011122534นางภัสรา เรศสุข ทศ2334                            88769694            43212363                                08405593CCSH       0000001800000000                                                                             
D000028006057601827921102011123256น.ส.ดวงจันทร์ โมฆรัตน์                            8866-7697           0221-6358                               09781066CCSH       0000001884200000                                                                             
D000029006057601827921102011125038นายสุชาติ จันทร์เสวก                              88169893            59218314                                07110043CCSH       0000001159200000                                                                             
D000030006057601827921102011125758นายสำราญ ขาวผ่อง  ทว1931                          8898-8697           1921-1353                               02590096CCSH       0000001788800000                                                                             
D000031006057601827921102011125932นาง กิ่งวิวรรณ์  กระแสโสม                         48859997            81217369                                08400047CCSH       0000000170000000                                                                             
D000032006057601827921102011130047นาง กิ่งวิวรรณ์  กระแสโสม   ทศ  7198              88359997            81217369                                08400047CCSH       0000001705000000                                                                             
D000033006057601827921102011130635อนุสรณ์ ศรีมาลี มฉ9708                            88759398            87319070                                04590914CCSH       0000001884000000                                                                             
D000034006057601827921102011131742นายถวิล จำเริญ                                    88279197            80214357            ทว.4078             07990541CCSH       0000001476800000                                                                             
D000035006057601827921102011131838นายถวิล จำเริญ                                    88178899            13219359            ทว.9391             07990541CCSH       0000001476800000                                                                             
D000036006057601827921102011131925นายถวิล จำเริญ                                    88179698            47212357            ทว.2774             07990541CCSH       0000001476800000                                                                             
D000037006057601827921102011132611นาย สนิท ขุนทอง                                   88079694            06314079                                07690734CCSH       0000001862000000                                                                             
D000038006057601827921102011133438นางสาวอรวรรณ ศรีสุวรรณเกศ                         88789490            22218343                                09760107CCSH       0000001700000000                                                                             
D000039006057601827921102011134248นางจิราพร ทองร่มโพธิ์ ทว 6633                     88179884            36216353                                01890420CCSH       0000001700000000                                                                             
D000040006057601827921102011140432สวรรค์ บุญชัย                                     88506999            107147939                               01231109CCSH       0000000064300000                                                                             
D000041006057601827921102011140527วรรณชัย วิมูลคำ                                   88479793            68314078                                02560119CCSH       0000001700000000                                                                             
D000042006057601827921102011141518นายเทพอำพล ประสงค์ทรัพย์ ทล7687                   88389990            76217348                                07341146CCSH       0000001501100000                                                                             
D000043006057601827921102011142833นายดำรงค์ ต่อมพิทักษ์ไพร ทว 9086                  88179290            60219358                                01890420CCSH       0000001884200000                                                                             
D000044006057601827921102011144346นายอดิศักดิ์ อุ้ยหะ                               88679980            05219355                                04980730CCSH       0000002082100000                                                                             
D000045006057601827921102011144512นายชูเกียรติ โควเนตร                              88588897            37211353                                09760107CCSH       0000001799200000                                                                             
D000046006057601827921102011144916นางสาวบุญนำ สมัครเขตรการ                          88520999            104119489                               04990497CCSH       0000001901600000                                                                             
D000047006057601827921102011145636นายสำเริง  กมุทชาติ                               88514499            107134447                               11470668CCSH       0000001080000000                                                                             
D000048006057601827921102011151508นายเจริญ แสงแดง ทล 871                            8837-9390           1821-0347                               00540018CCSH       0000001814300000                                                                             
D000049006057601827921102011152135นางขวัญเมือง แก้วสระแสน ทย 6160                   8885-9196           0121-6326                               04580699CCSH       0000001647700000                                                                             
D000050006057601827921102011153027เจริญ  ชัชวาลย์                                   88078499            39315077                                00650498CCSH       0000000500000000                                                                             
D000051006057601827921102011154038นางกาญจนา  ด่านวิริยะกุล  ทย 5639                 88869896            96215323                                05701141CCSH       0000001119300000                                                                             
D000052006057601827921102011154420นายสุรชัย นุตตะโยธิน ทย 3857                      88959697            78213325                                04881100CCSH       0000001293500000                                                                             
D000053006057601827921102011164555นายสุเทพ แก้วฮ่องคำ                               88569895            32317073                                10430503CCSH       0000001515300000                                                                             
D000054006057601827921102011183626นางสาวนงลักษณ์ ศรีชมชื่น                          88527899            104119706           ทศ.9832             07990541CCSH       0000001805600000                                                                             
T000055006057601827900000000000000000000000078024000000053                                                                                                                                                                                                      
