H0000010060576018279บริษัท ไทเอซ สิสซิ่ง จำกัด              30092011TALHO                                                                                                                                                                                       
D000002006057601827930092011083023นายแก้วมูล เกษมพัฒน์ มจ 2985                      88269395            59312068                                04603236CCSH       0000000830000000                                                                             
D000003006057601827930092011083749นายพรชัย สุจริตหัตถชัย                            88519989            107029121                               11240437CCSH       0000000695500000                                                                             
D000004006057601827930092011084141นายภาวัต ไชยสร                                    88778989            96319059                                01215368CCSH       0000001519500000                                                                             
D000005006057601827930092011085653นายรุ่งระชัย พุฒิภูติ  ทว 3365                    88679888            53213356                                00550896CCSH       0000001972000000                                                                             
D000006006057601827930092011090518น.อ. ชูชีพ  ฉายน้อย  ทม  3577                     88989393            75213317                                01980820CCSH       0000001400000000                                                                             
D000007006057601827930092011090601น.อ. ชูชีพ  ฉายน้อย  ทม 2009                      88089493            90212310                                01980820CCSH       0000001400000000                                                                             
D000008006057601827930092011091024เผด็จ  ยินดีขันธ์                                 8889-8598           5521-2346                               01390263CCSH       0000001730800000                                                                             
D000009006057601827930092011091243นางสาวภาวิณี  แซ่กอ                               88189480            92219344                                09760114CCSH       0000001445800000                                                                             
D000010006057601827930092011092054ศักดา ไพรวิจารณ์ ทร4150                           88809090            01214335                                10270539CCSH       0000001222000000                                                                             
D000011006057601827930092011092439นายอนันต์  งามเจริญ                               8895-9986           3021-0320                               00911077CCSH       0000001300000000                                                                             
D000012006057601827930092011094530นายไพบูลย์ พิมไธสง มช 521                         88959595            15310082                                11734224CCSH       0000001697900000                                                                             
D000013006057601827930092011095932นายอนันต์ พูลแสวง                                 8857-9695           8721-5356                               06870274CCSH       0000001613800000                                                                             
D000014006057601827930092011100219นายอิทธิกร ตันดิลก                                88179292            49217355                                00390709CCSH       0000000200000000                                                                             
D000015006057601827930092011101337นายจำลอง เที่ยงตรง  ทว7502                        88779992            25217350                                06920151CCSH       0000001934500000                                                                             
D000016006057601827930092011102150หจก.วิน คาร์ ทล 1134                              8869-9491           4121-1343                               00771132CCLQ708049 00000015896000110180                                                                         
D000017006057601827930092011104957นายสุเทพ เหลาเลิศ ทร5163                          88507999            107136882                               10360725CCSH       0000001260400000                                                                             
D000018006057601827930092011105837ส.ต.ท.ชัยญา เชื้อหงษ์ ทว 8600                     88479891            06218350                                04731091CCSH       0000001391200000                                                                             
D000019006057601827930092011110139นายเรืองเดช ภิญโญยิ่ง ทศ7987                      8835-9396           7921-7368                               04600072CCSH       0000001920000000                                                                             
D000020006057601827930092011111307นางชนาทิพย์ สาทสนิท ทศ9480                        88524899            107034554                               00540018CCSH       0000000500000000                                                                             
D000021006057601827930092011111717พออ.วัฒนธรรม เอิบกมล ทย9038                       88709096            80219323                                11541372CCSH       0000000295500000                                                                             
D000022006057601827930092011111943ส.อ.นิรัช โฉมแก้ว ทร8707                          8889-9295           7721-8330                               00200593CCSH       0000000399300000                                                                             
D000023006057601827930092011112113นายวุฒิชัย มาตชะรา ทศ 8754                        88549499            104115407                               04991118CCSH       0000001901600000                                                                             
D000024006057601827930092011113720นายอัจฉริยะ อุเทนะพันธุ์ ทว6283                   88579894            32216358                                04780120CCSH       0000001884200000                                                                             
D000025006057601827930092011121723นายสมชาย ทองแดง ทศ2598                            88369096            85212369                                10150069CCSH       0000000030000000                                                                             
D000026006057601827930092011122516นายวรุตม์    สุขบัติ ทว 6753                      8867-9993           3721-6355                               04580699CCSH       0000001377800000                                                                             
D000027006057601827930092011122749นัทวัฒน์ วงสุโท ทม6686                            88779494            66216318                                10270539CCSH       0000001583600000                                                                             
D000028006057601827930092011124835นายสมเกียรติ บุญปาน                               8845-9698           3321-3366                               06232183CCSH       0000001372800000                                                                             
D000029006057601827930092011130657อารยา  ลมจิตร                                     88968897            75319060                                07990174CCSH       0000001646500000                                                                             
D000030006057601827930092011132351รักคิด   จันทร์สุวรรณ                             88588198            85313071                                04770442CCSH       0000001884200000                                                                             
D000031006057601827930092011132457วิรัตน์ ตะคุณนะ ทว1428                            88388498            84211352                                05671599CCSH       0000001972400000                                                                             
D000032006057601827930092011135017ส.ต.อ.สมบัติ  สิมหลวง                             8858-9798           4821-3342                               11340169CCSH       0000001665500000                                                                             
D000033006057601827930092011140159นายยอด ศรีราชา ทย7815                             88367997            58217321                                10330833CCSH       0000000851900000                                                                             
D000034006057601827930092011140839นาย กิมชัย แซ่อือ                                 88179896            68214350                                01471089CCSH       0000001520300000                                                                             
D000035006057601827930092011141244นาย พงษ์ศักดิ์ สุวรรณคาม                          8847-9097           7221-4350                               07660497CCSH       0000001734300000                                                                             
D000036006057601827930092011142051ขวัญหทัย ดีใจ                                     88169393            62210327                                10365296CCSH       0000000673500000                                                                             
D000037006057601827930092011142601นางสาวเอมอร ศักดิ์เดชะมณี ทม8135                  8828-9593           5121-8313                               02530554CCSH       0000000158500000                                                                             
D000038006057601827930092011142716นายสมพงษ์ ศักดิ์เดชะมณี ทว 7042                   8887-9293           2021-7354                               02530554CCSH       0000000273000000                                                                             
D000039006057601827930092011143828คุณนพพร  รักษาคุณ                                 8845-9994           1731-1074           0855903281          11780493CCSH       0000001440000000                                                                             
D000040006057601827930092011144041นายธนกฤษ มะสังหลง                                 88368598            97215363                                04603236CCSH       0000001926200000                                                                             
D000041006057601827930092011145143นางเฉลา อำนวยพานิช                                8897-8497           3721-0364                               01340913CCSH       0000001549600000                                                                             
D000042006057601827930092011150248นายเขษม คุ้มประยูร                                88589594            02215346                                04692643CCSH       0000001707200000                                                                             
D000043006057601827930092011150556นางสาวมณีรัตน์ จันทมล ทร4085                      88669898            50214338                                10150884CCSH       0000000927400000                                                                             
D000044006057601827930092011150834นายสุกิจ ดาวเรือง ทร8113                          88459194            31218331                                01900719CCSH       0000000999000000                                                                             
D000045006057601827930092011151208นายสมพร  โยธาจันทร์                               88059898            95312061                                00981066CCSH       0000001206500000                                                                             
D000046006057601827930092011151852นาย ชัชวาลย์ แสงอาวุธ                             8835-9296           0121-8364                               08401303CCSH       0000001828800000                                                                             
D000047006057601827930092011152020นาย ชัชวาล แสงอาวุธ                               8815-9797           5221-7363                               08401303CCSH       0000001856500000                                                                             
D000048006057601827930092011152334นายอำนวย  รวยภิรมย์                               8807-9691           3431-5071                               07990132CCSH       0000001918500000                                                                             
D000049006057601827930092011152813นางลำเพย ศรีดาวเดือน                              88589393            78215340                                11140083CCSH       0000001432800000                                                                             
D000050006057601827930092011153634จ.ส.ต. ยุทธภูมิ รัตนบัติ ทร 517                   8836-9196           7521-0331                               10050089CCSH       0000001105700000                                                                             
D000051006057601827930092011154214นายดำรงค์  ด่านกำจัด  ทม 4812                     88979490            28214311                                09760114CCSH       0000000350000000                                                                             
D000052006057601827930092011165337วรกมล  บุญมา ทศ 7231                              88259797            12217363                                08550664CCSH       0000002357600000                                                                             
D000053006057601827930092011165352นายประยูร  โพธิ์บริสุทธิ์ ทม2910                  88479587            0921-2311                               04670086CCSH       0000001682000000                                                                             
D000054006057601827930092011171924ธนันทร                                            88579496            39214359                                07966650CCSH       0000001958000000                                                                             
D000055006057601827930092011172110นางสาว  อรวรรณ  ศรีสุวรรณเกศ ทพ 4288              8856-9492           8221-4288                               09760540CCSH       0000000829300000                                                                             
D000056006057601827930092011174446ภัคพงศ์ พลมีศักดิ์                                8836-9496           9421-2361                               07950091CCSH       0000001650000000                                                                             
D000057006057601827930092011174529นาย พิชิตชัย ดวงจรัส ทล 885                       88968398            58210348                                08450242CCSH       0000001010600000                                                                             
D000058006057601827930092011174954นายเมตตา นวนน้ำจิตต์ มช 498                       8815-9795           8431-0089                               08450531CCSH       0000001812300000                                                                             
D000059006057601827930092011181018นายอนุชา นนทภา ทว 8386                            8887-9391           6321-8358                               07682416CCSH       0000003400000000                                                                             
D000060006057601827930092011183621จิรศักดิ์ ศรีบุญจิตต์                             88369298            82210341                                08000990CCSH       0000001529300000                                                                             
D000061006057601827930092011184024นายโกศล เกิดศรี                                   88459795            53218365            ทศ8355              08698691CCSH       0000001798500000                                                                             
D000062006057601827930092011184411ปัทมา  ทรัพย์กลิ่น                                8897-9491           4431-5073           มฉ5434              08690266CCSH       0000001731000000                                                                             
D000063006057601827930092011184452นาย วิฑูร คงเจริญ                                 8828-8298           5431-3078                               00860670CCSH       0000002017000000                                                                             
D000064006057601827930092011184646นาย ภิชาติ  ศรีหาประทุม  ทล 8536                  8868-9090           6521-8343                               08400047CCSH       0000002116700000                                                                             
D000065006057601827930092011184748นาย พิเชษฐ์  ศรีหาประทุม  ทว 4013                 8877-9197           3021-4351                               08400047CCSH       0000002046200000                                                                             
T000066006057601827900000000000000000000000091034600000064                                                                                                                                                                                                      
