H0000010060576018279บริษัท ไทเอซ สิสซิ่ง จำกัด              19072011TALHO                                                                                                                                                                                       
D000002006057601827919072011083621นาย เจริญ น้อยชื่น มฉ 3074                        8819-9380           4031-3077                               01211627CCSH       0000001432800000                                                                             
D000003006057601827919072011083635นาย วสันต์ สุวรรณรังษี ทล7089                     8868-9682           9021-7348                               01200274CCSH       0000001595500000                                                                             
D000004006057601827919072011084911อำนาจ  เจียมเชื่อม ทศ 2094                        8866-9596           4021-2369                               02530516CCSH       0000001884200000                                                                             
D000005006057601827919072011085130อำนาจ  เจียมเชื่อม  ทว 3760                       8817-9797           0721-3356                               02530516CCSH       0000001756700000                                                                             
D000006006057601827919072011085923นาย บุญสม สุขเล่ห์                                8837-9998           3831-3076           มฉ3863              03830182CCSH       0000001734300000                                                                             
D000007006057601827919072011090843นาย สัญชัย ยุทธารักษ์ ทล5204                      8888-9894           4221-5340                               02190075CCSH       0000001987800000                                                                             
D000008006057601827919072011092806นายวิทยา แซ่จึง ทว 5505                           8887-9995           5521-5350                               00650326CCSH       0000002149100000                                                                             
D000009006057601827919072011093049นายจิตตกร  โกษากุล ทศ 4196                        88369392            61214369                                01770444CCSH       0000001988200000                                                                             
D000010006057601827919072011094102นาย สุรพล อันทวงษ์                                8867-9486           3221-1342                               00821044CCSH       0000001484700000                                                                             
D000011006057601827919072011094417นาย วิเชียร ชื่นยินดี                             8855-9695           7321-8369                               08560330CCSH       0000001812300000                                                                             
D000012006057601827919072011101741นาย พงษ์ศักดิ์ บริบูรณ์ ทว 351                    8888-8789           1321-0355                               04581882CCSH       0000002116000000                                                                             
D000013006057601827919072011102112นายสุชาติ   วิเศษชิต                              88859596            81212329                                06965203CCSH       0000001054200000                                                                             
D000014006057601827919072011102132นายสิทธิศักดิ์ หมายมั่น มฉ 4985                   8857-9093           5931-4078                               04580699CCSH       0000001700000000                                                                             
D000015006057601827919072011103610นายชาติชาย ชาติขยัน ทว 3510                       88979688            05213351                                04603621CCSH       0000001884200000                                                                             
D000016006057601827919072011103935นายนาวี มีสมวงษ์ มฉ.6013                          8897-8889           3031-6071                               00282766CCSH       0000001617900000                                                                             
D000017006057601827919072011104133นาย ภูเมศ   ภู่เกลี้ยง   ทย1843                   8875-9896           3821-1324                               08560865CCSH       0000001392800000                                                                             
D000018006057601827919072011105628นายปริญญา ผลพานิช มจ9448                          8846-8399           8431-9064                               00220927CCSH       0000000927400000                                                                             
D000019006057601827919072011111612นางหนูกร คงศิริ ทศ 2130                           88769896            01212363                                10071091CCSH       0000001884200000                                                                             
D000020006057601827919072011111836นายธนภัทร จันทร์หอมกุล ทศ6816                     8865-9698           6821-6361                               05670390CCSH       0000002023000000                                                                             
D000021006057601827919072011112837นายรณชัย อินช่วย มช 476                           8845-9995           6431-0087                               10903618CCSH       0000001697900000                                                                             
D000022006057601827919072011113532นายปฐมพัฒน์ ผาทอง                                 88289681            08312070                                04880760CCSH       0000001799200000                                                                             
D000023006057601827919072011114719นาย สมพงษ์ เครือพัฒน์ ทว 9290                     8807-9190           0221-9359                               10900089CCSH       0000001799200000                                                                             
D000024006057601827919072011114824นาย สมพงษ์ เครือพัฒน์ ทว 9286                     8817-9190           6221-9358                               10900089CCSH       0000001799200000                                                                             
D000025006057601827919072011114853นายสิทธิพร  แวดอุดม มช 162                        88859796            21310086                                01570810CCSH       0000001663600000                                                                             
D000026006057601827919072011115147นายนรชัย แพงศร                                    88779192            09217357                                09760107CCSH       0000001884200000                                                                             
D000027006057601827919072011115406นาย สมพร กาศักดิ์                                 8847-9896           0721-4356                               00339885CCSH       0000001700000000                                                                             
D000028006057601827919072011115711จ.ส.อ.สมพิศ โหมดเทศ                               8836-9294           7121-5341           ทล 5117             06920151CCSH       0000001502000000                                                                             
D000029006057601827919072011115852จ.ส.อ.สมพิศ โหมดเทศ                               8865-9596           4137-4078           ษฉ4184              06920151CCSH       0000000708100000                                                                             
D000030006057601827919072011120352นางสาว นวลอนงค์ อินไกร ทว.1583                    8858-8688           3521-1358                               00282766CCSH       0000001884200000                                                                             
D000031006057601827919072011121506นาย ศิริชัย จุลแดง ทศ9189                         88659195            91219368                                01890436CCSH       0000001546700000                                                                             
D000032006057601827919072011121723นายสาคร นามใจยา ทล 1326                           8867-9397           6321-1342                               01441666CCSH       0000001580000000                                                                             
D000033006057601827919072011122011นาย สุมิตร แพไธสง ทย2040                          88269591            00212324                                01480840CCSH       0000000533200000                                                                             
D000034006057601827919072011122921นายวินัย ลมสูงเนิน ทว 2512                        8878-8097           2521-2351                               05700767CCSH       0000001432800000                                                                             
D000035006057601827919072011123220นาย โชคชัย สนธิ์ชัยสกุล                           8818-9392           1621-6347                               00640141CCSH       0000000301500000                                                                             
D000036006057601827919072011123418นาย โชคชัย สนธิ์ชัยสกุล                           8887-9688           3521-3350                               00640141CCSH       0000001756700000                                                                             
D000037006057601827919072011124534นางสุกัญญา  วิไลลักษณ์ ทศ2376                     8866-9796           6321-2367                               11300791CCSH       0000001356900000                                                                             
D000038006057601827919072011130210นายสนิท ขุนทอง มฉ4690                             88079694            06314079                                07690124CCSH       0000001895700000                                                                             
D000039006057601827919072011131248นาย นิตยา เทพนรินทร์                              88268497            66217335                                00640201CCSH       0000001500000000                                                                             
D000040006057601827919072011132435นายบุญเหลือ พงษ์ธนู มฉ 5025                       8838-8097           5031-5072                               00650326CCSH       0000001700000000                                                                             
D000041006057601827919072011134930วีระพงษ์ สาลีรัมย์                                88279890            73210323                                00190041CCSH       0000000303600000                                                                             
D000042006057601827919072011135935นายธนาเศรษฐ์ ทวีชัยธนธรณ์                         8866-9893           4221-5339                               10661017CCSH       0000001610000000                                                                             
D000043006057601827919072011140113นายสุชาติ ทิพศักดิ์                               8899-9891           8621-0317                               01520889CCSH       0000000755800000                                                                             
D000044006057601827919072011140356นางสมฤทัย  บุญถนอมจิต ทร 994                      8866-9493           4921-0339                               04585612CCSH       0000001482100000                                                                             
D000045006057601827919072011140450คุณสำราญ ไทรกลมเกลียว ทร 3051                     88369693            1021-3335                               08550650CCSH       0000000989800000                                                                             
D000046006057601827919072011140451นายบุญมี พันศิริพัฒน์ ทย6957                      88459986            79216325                                01440144CCSH       0000000098600000                                                                             
D000047006057601827919072011140552นายประเทือง สุขสมพืช มฉ 5801                      8887-9090           1831-5070                               01230059CCSH       0000002000000000                                                                             
D000048006057601827919072011141636นาย พุธชัย โพธิ์ทอง                               88869987            70318053            มง8037              04881144CCSH       0000003061800000                                                                             
D000049006057601827919072011142017นางสาวมะลิวัลย์ จุ่นทอง ทว 8046                   8807-9982           6021-8354                               04671136CCSH       0000001734200000                                                                             
D000050006057601827919072011142344นายองอาจ มหิทธิโรจน์ ทล 6463                      8858-9692           3421-6346                               02150082CCSH       0000001261500000                                                                             
D000051006057601827919072011142506นายองอาจ มหิทธิโรจน์ ทล6441                       8868-9692           1421-6344                               02150082CCSH       0000001261500000                                                                             
D000052006057601827919072011143149นายเจริญ แสงแดง ทล 871                            8837-9390           1821-0347                               00540018CCSH       0000001848600000                                                                             
D000053006057601827919072011145032นาย วีระ ศรีแก้ว ทม 1009                          88759096            90211310                                01481887CCSH       0000000064300000                                                                             
D000054006057601827919072011145306นายแด่น โพธิ์ศรี ทล1237                           8817-7997           7221-1343                               00130105CCSH       0000001589600000                                                                             
D000055006057601827919072011145325นายสมภพ  วชิรประชานุกูล ทร7818                    8818-9696           8821-7331                               04670595CCSH       0000001336200000                                                                             
D000056006057601827919072011145559ด.ต.สมทัย องอาจ                                   8836-9896           3121-2366                               01520347CCSH       0000002082100000                                                                             
D000057006057601827919072011150308จักรพันธ์ เลี่ยมรัตน์ ทว6307                      88679794            73216350                                10270539CCSH       0000001674200000                                                                             
D000058006057601827919072011150605นางณัฏฐสิณี อยู่พันธุ์ ทว 6710                    8877-9784           0721-6351                               05756320CCSH       0000001884200000                                                                             
D000059006057601827919072011150630นายประยุร วงศ์สุบรรณ                              8826-9986           1521-2369                               01980529CCSH       0000001884200000                                                                             
D000060006057601827919072011151104นางสาว ศิรินทร์ทิพย์ สลุงอยู่ ทศ 7643             8895-9896           3621-7364                               04580699CCSH       0000001519900000                                                                             
D000061006057601827919072011152400น.อ.แมน  ศีตะจิตต์                                8855-9994           6721-8365                               11310028COTH       0000001541100000                                                                             
D000062006057601827919072011153519นายกมล   แต้มสว่าง                                88289590            84218348                                00911077CCSH       0000001800000000                                                                             
D000063006057601827919072011153551นายสมหมาย ปานเนาว์ มง.8921                        88659894            19318052                                07601301CCSH       0000000701500000                                                                             
D000064006057601827919072011154130นาย อรุณ  พงษ์ภักดี มง 4180                       8898-9491           0131-4058                               09621104CCSH       0000000138000000                                                                             
D000065006057601827919072011160310นายเสกสรร นาสวน ทศ2861                            8856-9195           1821-2366                               05670390CCSH       0000001194400000                                                                             
D000066006057601827919072011161014ด.ต.เสิม หยุ่นแก้ว ทล7009                         8848-7497           9021-7340           0898168953          01970387CCSH       0000001700000000                                                                             
D000067006057601827919072011162235นายปรีชา เชื้อหมอ ทว 9753                         88578099            37219355                                10071091CCSH       0000001515300000                                                                             
D000068006057601827919072011164044เครือวัลย์ มุสิกะนันท์                            88479688            23214358                                11250232CCSH       0000001713200000                                                                             
D000069006057601827919072011170634น.ส.จิตลดา  พันธุ์ไพโรจน์  ทว 4261                8867-9097           1221-4356                               04880055CCSH       0000001515300000                                                                             
D000070006057601827919072011171225ชาตรี  เวษาสิทธิ์                                 8805-9495           7221-2321                               08690542CCSH       0000000699100000                                                                             
D000071006057601827919072011173627นายโอวาท ศรีตระกูลพร มฉ6628                       8836-9598           8631-6072                               08450531CCSH       0000000030000000                                                                             
D000072006057601827919072011180422นางสาว วรกมล  บุญมา ทศ 7231                       8825-9797           1221-7363                               08550648CCSH       0000000064300000                                                                             
D000073006057601827919072011180741นายกิตติชัย ใจกว้าง ทล9135                        8868-9580           5121-9343                               07650103CCSH       0000001838900000                                                                             
D000074006057601827919072011182941นายเสกสันต์ ไชยเสนา  ทว4674                       8867-9587           4621-4357                               10074338CCSH       0000001772300000                                                                             
T000075006057601827900000000000000000000000107132000000073                                                                                                                                                                                                      
