H0000010060576018279บริษัท ไทเอซ สิสซิ่ง จำกัด              25092011TALHO                                                                                                                                                                                       
D000002006057601827925092011111849นายแพง พงษ์สุกรี ทล5345                           8886-8599           5321-5344                               11520390CCSH       0000000695500000                                                                             
D000003006057601827925092011113815นาย สุนัย  พรมไพโรจน์  ทล 3752                    88547899            107159104                               09760540CCSH       0000001374400000                                                                             
D000004006057601827925092011132254นายมนัส  ใจกระสินธ์  ทว 865                       88288898            58210356                                09760540CCSH       0000001432800000                                                                             
D000005006057601827925092011133935นาย สมชาติ จันทร์ฤดี ทศ 1480                      88569797            04211368                                00860527CCSH       0000001884200000                                                                             
D000006006057601827925092011155009นายทองเสาว์  นนท์ยะโส ทล3001                      88098997            10213340                                10660073CCSH       0000001665500000                                                                             
D000007006057601827925092011160213นาย อรัญ  ขาวเนตร  ทว 9524                        8857-8599           4521-9352                               09760540CCSH       0000001982500000                                                                             
D000008006057601827925092011160358จักรกฤษณ์ เพียรพิจิตร ทศ9799                      8837-9697           9721-9369                               10360281CCSH       0000001710000000                                                                             
D000009006057601827925092011160526จักรกฤษณ์ เพียรพิจิตร ทศ9499                      8877-9698           9421-3359                               10360281CCSH       0000001710000000                                                                             
D000010006057601827925092011160908นายสมจิตร เกษมพงษ์ ทว 827                         88388598            78210352                                11140083CCSH       0000001700000000                                                                             
D000011006057601827925092011161118นาย นิรันทร์ วงษ์จันทร์เพ็ญ ทว 8176               8877-9891           6121-8357                               04780158CCSH       0000001918500000                                                                             
D000012006057601827925092011162740นางสาว ชลธิชา พญาเเก้ว                            4886-8997           2221-6364                               10990511CCSH       0000000300000000                                                                             
D000013006057601827925092011162854นางสาว ชลธิชา พญาเเก้ว                            8836-8997           2221-6364                               10990511CCSH       0000001592300000                                                                             
D000014006057601827925092011172641นายนิพนธ์ โง่นใจรัก ทว 7760                       88479792            07217356                                06970239CCSH       0000001884200000                                                                             
D000015006057601827925092011172825นายมาโนช นภากาศ                                   88079795            86314072                                09761108CCSH       0000001990000000                                                                             
D000016006057601827925092011174848นางสุพัตรา ภิรมย์ขวัญ                             88379790            19218355                                09621011CCSH       0000001884200000                                                                             
D000017006057601827925092011175950น.อ.ธวัชชัย วิไลลักษณ์ ฌษ 7111                    88369296            11107371                                07540908CCSH       0000001150000000                                                                             
D000018006057601827925092011180022ขวัญเมือง  อยู่คง                                 88098897            81213342            ทล3128              08690266CCSH       0000001834600000                                                                             
D000019006057601827925092011182038นายวรพงศ์  พูลพิพิธ  ทม1317                       8818-9591           7321-1311                               04881090CCSH       0000001000000000                                                                             
D000020006057601827925092011182836นายจำรัส ผายสุวรรณ                                88759994            06218365                                04880760CCSH       0000001663600000                                                                             
D000021006057601827925092011182937นายจำรัส ผายสุวรรณ                                48859994            06218365                                04880760CCSH       0000000221000000                                                                             
D000022006057601827925092011184042นางจินตรัตน์ อุทัยพยัคฆ์                          8807-9995           0621-5355                               09740485CCSH       0000001884200000                                                                             
D000023006057601827925092011184551จ.ส.อ.สุรพล  ชุมพลพันธ์                           88779997            90314075                                08690542CCSH       0000001875000000                                                                             
T000024006057601827900000000000000000000000033352500000022                                                                                                                                                                                                      
