H0000010060576018279บริษัท ไทเอซ สิสซิ่ง จำกัด              04082011TALHO                                                                                                                                                                                       
D000002006057601827904082011083405นายวิชาญ พรมย่อง มช927                            8875-9394           7931-0082                               01971063CCSH       0000001733100000                                                                             
D000003006057601827904082011083541นาย รัศเธียร บัวคลี่ ทศ2933                       88169095            39212363                                01480840CCSH       0000001799200000                                                                             
D000004006057601827904082011085700นาย รุ่งระชัย พุฒิภูติ                            8867-9888           5321-3356                               00550095CCSH       0000000205500000                                                                             
D000005006057601827904082011090318นายอานนท์ วันแจ                                   88199391            69355075                                02610862CCSH       0000000624200000                                                                             
D000006006057601827904082011090327นางเปรมฤดี สวัสดี                                 88459294            50219361                                01840039COTH       0000002006700000                                                                             
D000007006057601827904082011092446นางสาว ศิริพร ปดิฐพร ทล2291                       88298399            12212349                                01980212CCSH       0000001665500000                                                                             
D000008006057601827904082011092502นายสมใจ ปักการะนัง มง1078                         88969787            80311057                                02580146CCSH       0000001070000000                                                                             
D000009006057601827904082011092612นาย ปรีชา หงษ์ทอง ทศ 5836                         8856-8698           6821-5363                               04581882CCSH       0000001856500000                                                                             
D000010006057601827904082011093112นายเสถียร คุณปรึกษา                               8828-9290           2621-2339                               00760201CCSH       0000000905000000                                                                             
D000011006057601827904082011094907นางสาว ณัฐธิชา ทาระเวท                            8856-9597           4621-1366                               03830885CCSH       0000002000000000                                                                             
D000012006057601827904082011095616นายดอเลาะ มูเนาวาเราะห์                           8808-7497           0021-5340                               00120152CCSH       0000001494000000                                                                             
D000013006057601827904082011100215สมศักดิ์  อะโน                                    8897-9792           4421-2349                               04700012CCSH       0000001637000000                                                                             
D000014006057601827904082011101127พ.ต.ท.สุเทพ ภูดวงเดือน  ทศ7409                    8835-9597           9421-7360                               01800267CCSH       0000001828800000                                                                             
D000015006057601827904082011102512รุ่งทิวา                                          8876-7197           5821-3346                               06991739CCSH       0000003558600000                                                                             
D000016006057601827904082011104658นายสนิท ดอดกระโทก                                 88369195            22218334                                05760932CCSH       0000000972900000                                                                             
D000017006057601827904082011110017วีระ ศรีแก้ว                                      88659096            98217311                                10365296CCSH       0000001230500000                                                                             
D000018006057601827904082011110145วีระ ศรีแก้ว                                      88759096            90211310                                10365296CCSH       0000001230500000                                                                             
D000019006057601827904082011110727ธเนศ นาโควงศ์ มจ5095                              88569190            50315069                                00920501CCSH       0000001105700000                                                                             
D000020006057601827904082011110935พรชนก ไชยะปะ                                      88969891            08219332                                04710657CCSH       0000001997300000                                                                             
D000021006057601827904082011111406นายพรชัย เมตุลา                                   88588297            04313064                                01840202CCSH       0000000200000000                                                                             
D000022006057601827904082011111626นายชัยสิทธิ์ ปรีชาผล มจ23                         88169996            30310062                                07960037CCSH       0000001161000000                                                                             
D000023006057601827904082011114206จ.ส.ต. บุญเลิศ  ทองเตี้ย                          8877-8399           0521-9356                               04700012CCSH       0000001878600000                                                                             
D000024006057601827904082011114505นายยุทธชัย พลนันท์ ทว9032                         8877-9490           2021-9353                               10360725CCSH       0000002000000000                                                                             
D000025006057601827904082011114729นายวิทยา แซ่จึง                                   88077797            59215344                                09760107CCSH       0000000100000000                                                                             
D000026006057601827904082011114832วิทยา แซ่จึง                                      88379886            21215356                                09760107CCSH       0000002204400000                                                                             
D000027006057601827904082011114949นาย รวมชัย นาคะสถิตย์ ทศ1146                      8816-9598           6121-1364                               04880528CCSH       0000001587900000                                                                             
D000028006057601827904082011120300นายรัชตะ มาวงษ์นอก                                8866-8497           3021-4331           ทร4013              03970649CCSH       0000000841800000                                                                             
D000029006057601827904082011120921คุณจำเนียร ศรีคำมุง                               8856-9894           0931-9061                               04710654CCSH       0000001375900000                                                                             
D000030006057601827904082011121310นาย สวนิช ชาติเผือก                               8875-9984           3821-2327           ทย 2873             01441666CCSH       0000001444200000                                                                             
D000031006057601827904082011121351นายวิทูร สุนทรีรัตน์ ทล3543                       8878-9998           3521-3344                               05670390CCSH       0000001528500000                                                                             
D000032006057601827904082011122934จ.ส.อ.เฉลิมชัย  พูลเจริญ ทว 7606                  8877-9692           6621-7350                               00650326CCSH       0000001205400000                                                                             
D000033006057601827904082011123334บุญมี พันศิริพัฒน์                                88459986            79216325                                01441668CCSH       0000000958600000                                                                             
D000034006057601827904082011124809นาย ธนัช กันติ๊บ                                  8816-9692           1421-2333                               00600443CCSH       0000001570600000                                                                             
D000035006057601827904082011130105นาง  ชลิตดา  เจริญพวง  ทย  931                    8898-9980           1921-0323                               09760820CCSH       0000000957800000                                                                             
D000036006057601827904082011130357นายสมเกียรติ สีธงชัยรุ่งโรจน์ ทย 7214             88869995            42217321                                07930240CCSH       0000001483300000                                                                             
D000037006057601827904082011132148นาย ทนงศักดิ์  คงแก้ว                             88489597            73214342                                10800227CCSH       0000001275700000                                                                             
D000038006057601827904082011132332นาย ทนงศักดิ์ คงแก้ว                              88389597            63214342                                10800227CCSH       0000001275700000                                                                             
D000039006057601827904082011132457นายทอง ไสยวิจิตร ทล 4143                          8858-9997           3121-4344                               00130481CCSH       0000001737300000                                                                             
D000040006057601827904082011132543นางสาวรัชนงค์ เชียงศรี                            88889391            44217343                                00390143CCSH       0000001622400000                                                                             
D000041006057601827904082011133406นายอนิวรรตน์ ไชกองชา มฉ 6186                      8817-8398           6131-8398                               00771132CCSH       0000001884200000                                                                             
D000042006057601827904082011134205นาย อัครเดช ขันคำ มฉ 5285                         88479982            52315078                                10270592CCSH       0000001275500000                                                                             
D000043006057601827904082011134243อิทธิพงศ์ อินทรีย์                                8888-9781           9731-2076                               01550599CCSH       0000001800000000                                                                             
D000044006057601827904082011141834นายปัญญา ศรีคำ                                    88979795            76215359                                02580601CCSH       0000001935900000                                                                             
D000045006057601827904082011141854นางเกสฬา พันจุย                                   88569495            68212366            ทศ2866              10253620CCSH       0000001500700000                                                                             
D000046006057601827904082011143223นาย วรวิทย์ ทิพนัด ทร 3598                        8816-9190           8521-3339                               02501180CCSH       0000000663400000                                                                             
D000047006057601827904082011143830นายบุญเลียน สุขจิตต์ มจ 6357                      88578998            73316065                                10071091CCSH       0000001152000000                                                                             
D000048006057601827904082011144009นายแพง  พงษ์สุกรี ทว 3301                         8897-9888           1321-3350                               11521628CCSH       0000000235500000                                                                             
D000049006057601827904082011144037นาย อนุสรณ์  วารีน้อย                             8836-9797           1921-3336                               01780229CCSH       0000001649600000                                                                             
D000050006057601827904082011144150นายแพง  พงษ์สุกรี ทว3291                          8887-9888           1221-3359                               11521628CCSH       0000000235500000                                                                             
D000051006057601827904082011144457นางสาว พวงเพ็ญ ศิริพละ ทว 3144                    8847-9398           4121-3354                               04580699CCSH       0000002116700000                                                                             
D000052006057601827904082011144609นางสาว พวงเพ็ญ ศิริพละ ทว 3142                    8867-9398           2121-3354                               04580699CCSH       0000002116700000                                                                             
D000053006057601827904082011144641นางสาว พวงเพ็ญ ศิริพละ ทว 3143                    8857-9398           3121-3354                               04580699CCSH       0000002116700000                                                                             
D000054006057601827904082011144711นาย ศราวุฒิ  สุขพัฒน์ ทศ 5002                     8866-9490           2021-5360                               01951095CCSH       0000001856500000                                                                             
D000055006057601827904082011144923นางสาวรัชนีวรรณ บุตรานนท์ ทศ 2507                 8846-9096           7521-2360                               07750696CCSH       0000001704800000                                                                             
D000056006057601827904082011144954นาย วรรณลก  กิจทา  ทย6970                         8876-9995           0921-6327                               02590608CCSH       0000001105700000                                                                             
D000057006057601827904082011145329นายภัทรศักดิ์ แก่นโกมล                            8806-8199           6821-0328           ทย886               03970649CCSH       0000001437200000                                                                             
D000058006057601827904082011145421นายธนะสิทธิ์ สัจจสิงห์ ทว 2184                    8888-8198           4121-2358                               01502516CCSH       0000001918500000                                                                             
D000059006057601827904082011151223ส.อ.ประคอง สามงามนิ่ม                             8827-9193           75217355                                00181822CCSH       0000002238240000                                                                             
D000060006057601827904082011151559นายบรรจง สุวรรณโคต ทย9797                         88879587            77219329                                11044460CCSH       0000001701400000                                                                             
D000061006057601827904082011155911นายธรรมโรจน์ ศรีบุญเลิศ      มฉ4418               8887-9786           8431-4071                               07690239CCSH       0000001356900000                                                                             
D000062006057601827904082011155948นางภัทรภร บุณยพุกกณะ                              88579497            52214359            ทว4295              01430564CCSH       0000002400000000                                                                             
D000063006057601827904082011161353นายสัญญา บุญประเทือง                              8847-9093           2321-7350           ทว7302              10325821CCSH       0000001987000000                                                                             
D000064006057601827904082011162756นายชาญศักดิ์ สาระ มง5003                          8806-9994           3031-5050                               04880262CCSH       0000000700000000                                                                             
D000065006057601827904082011163043สมหวัง เหล็งศิริ                                  88979886            42211340                                05700906CCSH       0000002400000000                                                                             
D000066006057601827904082011164138กันยา  ทับพระ                                     8876-9292           8321-2322           0818908657          08770142CCSH       0000000636000000                                                                             
D000067006057601827904082011164720กมลาสน์ ละไมกิจ ทม 7864                           88269994            48217316                                11250232CCSH       0000001230000000                                                                             
D000068006057601827904082011170139น.ส.สุภาณี  ปิ่นรอด                               8816-9398           4908-6217                               10990536CCSH       0000001161000000                                                                             
D000069006057601827904082011172105นาย สาคร นามใจยา ทร5061                           8877-9397           1021-5336                               10137595CCSH       0000001580000000                                                                             
D000070006057601827904082011172936ยงยุทธ  เมฆยงค์                                   8857-9786           5721-3339           ทร3795              08690266CCSH       0000001650000000                                                                             
D000071006057601827904082011175151นางสาวเมตตา ตะคุณนะ ทว756                         8828-8498           6721-0355                               10360725CCSH       0000002176000000                                                                             
D000072006057601827904082011175317นายชายชาญ งามชื่น                                 8887-9596           1821-4353                               04770553CCSH       0000001912300000                                                                             
D000073006057601827904082011184314นาย สุพพัต ตองติดรัมย์ มฉ 4383                    8867-9886           3331-4078                               04780120CCSH       0000001989500000                                                                             
T000074006057601827900000000000000000000000107153540000072                                                                                                                                                                                                      
