H0000010060576018279บริษัท ไทเอซ สิสซิ่ง จำกัด              23082011TALHO                                                                                                                                                                                       
D000002006057601827923082011083914นาย ธนดล สุขจิตต์  ทร 1688                        8866-9598           8621-1338                               04581882CCSH       0000003111200000                                                                             
D000003006057601827923082011090526นายธนพัต คุ้มวงษ์ ทว 4262                         88079887            22214356                                01760698CCSH       0000000295500000                                                                             
D000004006057601827923082011091202นางสาว ขวัญเมือง แก้วสระแสน ทย 6160               8885-9196           0121-6326                               04581882CCSH       0000001647700000                                                                             
D000005006057601827923082011091257นายทศพล  ผาช้างเผือก                              8866-9296           8031-4078                               05760270CCSH       0000001800000000                                                                             
D000006006057601827923082011093513บุณยานิตย์  ศิริรักษ์                             88778297            06217328                                11241241CCSH       0000000100000000                                                                             
D000007006057601827923082011094325นายธวัชชัย เกตุเหล็ก ทย 2005                      8821-9890           5021-2320                               04580699CCSH       0000001108800000                                                                             
D000008006057601827923082011094922นายรุ่งระชัย  พุฒิภูติ   ทว 3365                  8867-9888           5321-3356                               00550896CCSH       0000001917200000                                                                             
D000009006057601827923082011095608นายสมศักดิ์ ลีประโคน                              48669990            61215367                                03733516CCSH       0000001391700000                                                                             
D000010006057601827923082011100120นายสมชาย ศิริรักษ์                                8856-9997           2521-5329                               00710241CCSH       0000000100000000                                                                             
D000011006057601827923082011105319นาย ธารา กล้าหาญ                                  88789990            9831-2072                               06160404CCSH       0000001799200000                                                                             
D000012006057601827923082011105536นางขวัญใจ  กระจ่างโพธิ์  ทม3166                   8828-9796           6121-3316                               04650044CCSH       0000001449700000                                                                             
D000013006057601827923082011105729น.ส.ชูศรี งามประเสริฐ  ทย4974                     88118688            49214327                                01440144CCSH       0000000863800000                                                                             
D000014006057601827923082011105809นาย สุรพล การสร้าง ทย2432                         8837-9194           2421-2323                               02190075CCSH       0000001764000000                                                                             
D000015006057601827923082011111844มานพ ฉิมพล                                        88779392            79372312                                01451246CCSH       0000000717200000                                                                             
D000016006057601827923082011113008นายทองหล่อ โตวัตร                                 8819-8998           6421-2340                               10136228CCSH       0000001665500000                                                                             
D000017006057601827923082011113348นายวันดี  ใจกล้า ทย6563                           8888-8998           3521-6326                               07661056CCSH       0000001435200000                                                                             
D000018006057601827923082011113611สุเทพ แก้วฮ่องคำ                                  88569895            32317073                                02020360CCSH       0000001515300000                                                                             
D000019006057601827923082011114237ทน  กองเกตุใหญ่  มฉ 6034                          8887-8999           4031-6073                               02530516CCSH       0000001884200000                                                                             
D000020006057601827923082011114944นายจำลอง  เที่ยงตรง ทว7502                        88779922            25217350                                06921923CCSH       0000001927000000                                                                             
D000021006057601827923082011121225นาย วราวุฒิ  จันทร์ประโคม ทว3900                  8887-9697           0921-3350                               02590608CCSH       0000001700000000                                                                             
D000022006057601827923082011121427นายสมปอง สายยศ                                    88279896            28214353                                03290777CCSH       0000003274300000                                                                             
D000023006057601827923082011121701นายทศพล  ดวงมาลี มฉ3356                           88488998            63313075                                07990070CCSH       0000001818200000                                                                             
D000024006057601827923082011122210คุณ ธีรสิริ                                       8835-9995           3321-5367                               02610090CCSH       0000001863100000                                                                             
D000025006057601827923082011122505ณัชธิชา คำภาเมือง                                 8886-8898           2321-8343                               00771064CCSH       0000001769900000                                                                             
D000026006057601827923082011125353นาง ศศิญา จันทร์สิน ทล7296                        8858-9491           6221-7349                               04780158CCSH       0000000856500000                                                                             
D000027006057601827923082011130418วรพงศ์ พูลพิพิธ                                   88988597            06216329                                00240400CCSH       0000000200000000                                                                             
D000028006057601827923082011130442นายสาโรจน์  สอดศรี  ทร3400                        8860-9990           0421-3330                               00000370CCSH       0000001253000000                                                                             
D000029006057601827923082011130855นางสาว  ศิริกานดา  ทานุรัตน์  ทศ 2135             8886-9796           5121-2363                               03970523CCSH       0000001799200000                                                                             
D000030006057601827923082011131536นางสาว นุชนารถ แจ่มศุภพันธ์ ทว 3501               8806-7097           1521-3350                               04581882CCSH       0000001884200000                                                                             
D000031006057601827923082011131550นางสุวทณีย์ จิตต์สนธิ มฉ7844                      8875-7697           4831-7074                               00130241CCSH       0000001799200000                                                                             
D000032006057601827923082011133339นายทองสูน เที่ยงแก๊ส ทศ 1974                      88069197            49211367                                04731091CCSH       0000000235500000                                                                             
D000033006057601827923082011135051นายสมภพ วชิรประชานุกูล                            88189696            88217331                                04990552CCSH       0000001336200000                                                                             
D000034006057601827923082011135136นางสาวอรวรรณ ศรีสุวรรณเกศ                         88569492            82214288                                09760107CCSH       0000000829300000                                                                             
D000035006057601827923082011144719นายสุรพรรณ  จันทะสิทธิ์                           8845-9596           8921-2332                               02170215CCSH       0000000281200000                                                                             
D000036006057601827923082011145119นายสมรภูมิ กุลสุวรรณ มง7695                       8876-9294           5631-7059                               08560792CCSH       0000001170000000                                                                             
D000037006057601827923082011145336นิพนธ์ ยั่งยืน ทล5118                             88289595            81215341                                07580348CCSH       0000001617900000                                                                             
D000038006057601827923082011150334นายอนุ  สุริยะ                                    8806-9596           0221-1340                               04700012CCSH       0000001800000000                                                                             
D000039006057601827923082011151323สมเกียรติ ส. 0832323548                           88669987            45211328                                02560119CCSH       0000001374500000                                                                             
D000040006057601827923082011151643วรรณชัย ว. 0875999324                             88479793            68314078                                02560119CCSH       0000001700000000                                                                             
D000041006057601827923082011152004นายพิเชษฐ์ ศรีหาประทุม ทศ1499                     8826-9997           9421-1369                               08404479COTH       0000002169600000                                                                             
D000042006057601827923082011152213นายภิชาติ ศรีหาปรุทุม ทล8536                      8868-9090           6521-8343                               08404479COTH       0000001830400000                                                                             
D000043006057601827923082011152602นางสาวดวงจันทร์  โมฆรัตน์                         8866-7697           0221-6358                               01440888CCSH       0000001884200000                                                                             
D000044006057601827923082011153212เพิ่มทรัพย์  มิศกะเสวตร์                          88259397            97351019                                00950177CCSH       0000000827500000                                                                             
D000045006057601827923082011153706คุณ สงบ                                           8806-9598           2331-1057                               02610090CCSH       0000000971500000                                                                             
D000046006057601827923082011154357ด.ต.เสิม หยุ่นแก้ว ทว9322                         8846-9994           2321-9352                               01970208CCSH       0000001800000000                                                                             
D000047006057601827923082011154714wanlapa  promrudee                                88779194            35211329                                01086070CCSH       0000000130300000                                                                             
D000048006057601827923082011161148น.ส.นกน้อย สุราลัย ทศ7689                         88459796            96217368                                10360570CCSH       0000001812300000                                                                             
D000049006057601827923082011161604THEERAPHONG C.                                    8837-8499           9921-0369                               07990174CCSH       0000001870000000                                                                             
D000050006057601827923082011162154นาย คะนอง  กองสุข  มง7222                         8896-9392           2231-7052                               11340169CCSH       0000000388000000                                                                             
D000051006057601827923082011171421นายเกรียงไกร แทนค้ำ                               8859-9790           7421-1346           ทล 1467             08512940CCSH       0000001665500000                                                                             
D000052006057601827923082011174538นางสาว สอาด บัวขนก ทศ 1050                        8896-9798           0021-1365                               04881100CCSH       0000001515300000                                                                             
D000053006057601827923082011175518นางสาว วิไลรัตน์ บุญเผือก                         88789981            06217347                                10071091CCSH       0000001100000000                                                                             
D000054006057601827923082011175728นางสาววิไลรัตน์ บุญเผือก ทล 7670                  88789981            06217347                                10071091CCSH       0000001056000000                                                                             
D000055006057601827923082011184143บุญส่ง ตระกูลจั่นนาค ทร 8401                      8846-9692           1421-8330                               10361274CCSH       0000001490300000                                                                             
D000056006057601827923082011185538นายบัญชา สีจุ้ย ทศ2313                            8816-9796           3321-2361                               11522040CCSH       0000001976000000                                                                             
D000057006057601827923082011194834จิรเดช โพธิ์สว่าง  ทว 8866                        8807-8797           6821-8356                               07620035CCSH       0000001385700000                                                                             
T000058006057601827900000000000000000000000078928000000056                                                                                                                                                                                                      
