H0000010060576018279บริษัท ไทเอซ สิสซิ่ง จำกัด              25122011TALHO                                                                                                                                                                                       
D000002006057601827925122011102837นายสุเทพ แก้วฮ่องคำ  มฉ7233                       88569895            32317073                                10431106CCSH       0000001515300000                                                                             
D000003006057601827925122011112040คุณวรกมล บุญมา ทษ 1037                            88500799            106199193                               08550650CCSH       0000002422300000                                                                             
D000004006057601827925122011120055นายสงวน มุลตะกร                                   88789493            76215349                                10721605CCSH       0000001700000000                                                                             
D000005006057601827925122011122707นายระเริง หยูเอียด ทว 9586                        88878499            65219358                                04881100CCSH       0000001884200000                                                                             
D000006006057601827925122011124235นายสันติ คำคง มค9371                              88059796            13319037                                05750619CCSH       0000000030000000                                                                             
D000007006057601827925122011125852นาย สมพร พงษ์เหล่างิ้ว                            88459897            17313053            มง3731,             04881144CCSH       0000000100000000                                                                             
D000008006057601827925122011132028นายพงษ์ศักดิ์ สุวรรณคาม                           88479097            72214350                                07660676CCSH       0000001734300000                                                                             
D000009006057601827925122011134844ชฎารัตน ช่อกลาง ทว117                             88167497            71210351                                07950594CCSH       0000001640000000                                                                             
D000010006057601827925122011140920นายทองเสาว์ นนท์ยะโส                              88098997            10213340                                10660506CCSH       0000001665500000                                                                             
D000011006057601827925122011151832นายเชี่ยว ไหมดำ                                   8876-9498           3031-3064                               05700127CCSH       0000001500000000                                                                             
D000012006057601827925122011160730นาย วรพงศ์ พูลพิพิธ                               88189591            73211311            ทม1317              10250256CCSH       0000001210000000                                                                             
D000013006057601827925122011163107นายนิรันดร์ วงษ์จันทร์เพ็ญ ทว8176                 88779891            61218357                                04781103CCSH       0000001918500000                                                                             
D000014006057601827925122011165219นาย มาโนช  นภากาศ  มฉ 4628                        88079795            86314072                                09760540CCSH       0000001990000000                                                                             
D000015006057601827925122011165342จักรกฤษณ์ เพียรพิจิตร                             88379697            97219369                                10365296CCSH       0000001720000000                                                                             
D000016006057601827925122011165536จักรกฤษณ์ เพียรพิจิตร                             88779698            94213359                                10365296CCSH       0000001720000000                                                                             
D000017006057601827925122011182947นางผานิต จันทร์เมฆา                               88467297            76210353                                09660813CCSH       0000001799200000                                                                             
D000018006057601827925122011183057นายสมบัติ พลเยี่ยม                                88593598            107158997                               04931325CCSH       0000000862000000                                                                             
D000019006057601827925122011183146นางสุพัตรา ภิรมย์ขวัญ ทว 8951                     88379790            19218355                                04881100CCSH       0000001884200000                                                                             
D000020006057601827925122011185501นายมงคล  โตเอี่ยม  ทล 7184                        8848-9791           4121-7348                               08510045CCSH       0000001900000000                                                                             
D000021006057601827925122011185859นางสาว สอาด บัวขนก                                88969798            00211365            ทศ1050              04881144CCSH       0000001515300000                                                                             
T000022006057601827900000000000000000000000030710800000020                                                                                                                                                                                                      
