H0000010060576018279บริษัท ไทเอซ สิสซิ่ง จำกัด              16102011TALHO                                                                                                                                                                                       
D000002006057601827916102011112230นายสุรเชษฏ ตปนิยนันท์ ทล 3756                     88589898            67213345                                10071091CCSH       0000001699800000                                                                             
D000003006057601827916102011113615นาง อุบลรัตน์ บัวเพชร ทศ331                       88178098            13210363                                04880528CCSH       0000001884200000                                                                             
D000004006057601827916102011121404นางสาว เฉลิมศรี ทองขาว                            8856-9390           8121-6339                               00860670CCSH       0000001105700000                                                                             
D000005006057601827916102011121502นางสาว เฉลิมศรี ทองขาว                            8856-9390           8121-6339                               00860670CCSH       0000001105700000                                                                             
D000006006057601827916102011125447นายบุญฐิน ถนอมเมฆ                                 88278099            11316072                                11370491CCSH       0000001799200000                                                                             
D000007006057601827916102011133415นางสายบัว ยิ้มใย                                  88377197            47217348                                08830061CCSH       0000002032000000                                                                             
D000008006057601827916102011150215นายเสาร์คำ  แก้ววิมล มฉ 4686                      8807-9994           6631-4078                               04881090CCSH       0000001884200000                                                                             
D000009006057601827916102011161024ธวัชชัย บุญอยู่                                   8897-9882           2621-1329           ทย1692              07955605CCSH       0000001485700000                                                                             
D000010006057601827916102011172544นางบังอร บูระพิน                                  88279788            75213350                                09621104CCSH       0000001983500000                                                                             
D000011006057601827916102011172655บังอร บูระพิน                                     88559886            22218367                                09621104CCSH       0000001796200000                                                                             
D000012006057601827916102011174045นายสมเกียรติ สีธงชัยรุ่งโรจน์ ทย932               8887-8297           2921-0323                               07933341CCSH       0000001293600000                                                                             
D000013006057601827916102011174238นายสมเกียรติ สีธงชัยรุ่งโรจน์ ทม5672              8806-9594           2621-5317                               07933341CCSH       0000001251900000                                                                             
D000014006057601827916102011174412นายสมเกียรติ สีธงชัยรุ่งโรจน์ ทพ3823              8856-9596           3821-3282                               07933341CCSH       0000001326900000                                                                             
D000015006057601827916102011174711นายสมเกียรติ สีธงชัยรุ่งโรจน์ ทม2565              8817-8397           5521-2316                               07933341CCSH       0000001382100000                                                                             
T000016006057601827900000000000000000000000022030700000014                                                                                                                                                                                                      
