H0000010060576018279บริษัท ไทเอซ สิสซิ่ง จำกัด              15022012TALHO                                                                                                                                                                                       
D000002006057601827915022012084649นายไชยา  กลมเกลียว ทว 7509                        88017-9683          9521-7350                               00171297CCSH       0000000500000000                                                                             
D000003006057601827915022012085350นาย คงศักดิ์ รุ่งรัตน์ ทล3972                     88389198            29213347                                00641096CCSH       0000001665500000                                                                             
D000004006057601827915022012090132นางสาวปาริชาติ  สุกกลิ่น                          88518399            106198723                               06920406CCSH       0000000269700000                                                                             
D000005006057601827915022012094404เจริญ  น้อยชื่น                                   88189380            40313077            3074                01472126CCSH       0000001432800000                                                                             
D000006006057601827915022012101335นายลือชา   ศรีพาณิชพันธุ์ ทม7383                  8846-9494           3321-7318                               11310028CCLQ328653000000007000000020165                                                                         
D000007006057601827915022012101455นายลือชา   ศรีพาณิชพันธุ์ ทม7383                  8846-9494           3321-7318                               11310028CCSH       0000000663000000                                                                             
D000008006057601827915022012103614สุพรรษา ไชยมาตย์                                  8856-9194           0221-3318                               00190041CCSH       0000001657400000                                                                             
D000009006057601827915022012105404นายพิชิตร์  ภูฆัง ทย5417                          8856-8798           7421-5321                               02590911CCSH       0000000884600000                                                                             
D000010006057601827915022012110015เพชรมณี สิงห์วิชัย ทย7768                         88789894            8721-7326                               00441768CCSH       0000001070000000                                                                             
D000011006057601827915022012111345นายสุรเดช  ขันทอง                                 88269398            14211365                                11520515CCSH       0000001979000000                                                                             
D000012006057601827915022012113014มะลิวัลย์ จุ่นทอง                                 88079982            60218354                                07540563CCSH       0000001734200000                                                                             
D000013006057601827915022012114003ภัทรพันธุ์ จำปาเนตร                               8810-9397           5321-7329                               04772030CCSH       0000000579700000                                                                             
D000014006057601827915022012115414นายบุญมี งามขำ                                    88188989            02210351            ทว 210              08510518CCSH       0000001700000000                                                                             
D000015006057601827915022012115517นาย ณรงค์ศักดิ์ แหสมุทร ทร 6176                   88269798            61216337                                10270592CCSH       0000001767200000                                                                             
D000016006057601827915022012115829นายวิชัย ตุลา  ทย201                              88168697            12210320                                02590096CCSH       0000001543200000                                                                             
D000017006057601827915022012115932นายทองหล่อ  โภคา  ทล  1142                        8859-9191           2121-1344                               03970523CCSH       0000000415500000                                                                             
D000018006057601827915022012120838นายสุวรรณ ปรางทอง                                 88269791            66219288                                05760270CCSH       0000000552800000                                                                             
D000019006057601827915022012122546นายสุขสันต์ ศงสนันทน์                             88573898            107131999                               00410764CCSH       0000001230600000                                                                             
D000020006057601827915022012125353นางสกาวเดือน โสตา                                 88592798            107116689                               04780516CCSH       0000001538200000                                                                             
D000021006057601827915022012130133นายประจัญชัย อัฒจักร ทว9202                       8867-9190           2221-9350                               01760698CCSH       0000001918500000                                                                             
D000022006057601827915022012133043นายณรงค์ศักดิ์ ไชยพล                              88468798            61311059                                00740081CCSH       0000000726500000                                                                             
D000023006057601827915022012133137นายธนัฒฑ์ แก้วมณัชัย                              88509889            106203890                               00710553CCSH       0000001770000000                                                                             
D000024006057601827915022012134116นางพงศ์พล มั่นศักดิ์                              88504499            107086218                               05760932CCSH       0000001515600000                                                                             
D000025006057601827915022012134257จ.ส.อ.กฤตพัฒน์ อำโพธิ์ศรี                         88989793            08215346                                00670504CCSH       0000000599700000                                                                             
D000026006057601827915022012134527ประไพวรรณ หวานเย็น                                8856-7297           9521-8355                               00210342CCSH       0000001775000000                                                                             
D000027006057601827915022012134733นายทัชพล  โคตรวงษ์ ทย 3720                        88959894            07213322                                09760114CCSH       0000001820000000                                                                             
D000028006057601827915022012135303นาย สมพร  พงษ์เหล่างิ้ว                           88459897            17313053                                10810405CCSH       0000000695500000                                                                             
D000029006057601827915022012135741นางสาวจิราพร สายสุวรรณ                            88879896            06214355                                02190805CCSH       0000003083500000                                                                             
D000030006057601827915022012140027นางประทวน เขียวแล                                 88569592            25315061                                10370854CCSH       0000000994100000                                                                             
D000031006057601827915022012142651นางจรรยา  อินทศร  ทล 8704                         8846-9793           4721-8340                               04585612CCSH       0000002109000000                                                                             
D000032006057601827915022012144124นายประกาศ หลุมทอง ทม 659                          8897-9394           9621-0315                               06925867CCSH       0000000899800000                                                                             
D000033006057601827915022012144833นายชัยรัตน์ พัฒนจันทร์                            88369190            11313058                                10150884CCSH       0000001270900000                                                                             
D000034006057601827915022012144924นายภูเมศ ภู่เกลี้ยง                               8875-9896           3821-1324                               08560324CCSH       0000001392800000                                                                             
D000035006057601827915022012145030นายภูเมศ ภู่เกลี้ยง                               8805-9397           1121-5340                               08560324CCSH       0000001814600000                                                                             
D000036006057601827915022012145856นายนเรศ  สุขประเสริฐ  มจ 1347                     88539399            107083971                               01740029CCSH       0000000940000000                                                                             
D000037006057601827915022012150742นางสาวนภารัตน์ ปิมปา                              88868899            45210354                                10800405CCSH       0000001839000000                                                                             
D000038006057601827915022012151017นายบัวลา ทองขาว                                   88669290            45210364            ทศ 544              01210586CCSH       0000001670000000                                                                             
D000039006057601827915022012152124นายทองเสาว์  นนท์ยะโส                             88573298            106205852                               02161072CCSH       0000001935300000                                                                             
D000040006057601827915022012154308นายประพันธ์  มุขเงิน ทศ 9051                      88546889            106197807                               11521628CCSH       0000002045600000                                                                             
D000041006057601827915022012162456นายสุรชา ทองสูงเนิน                               88531699            107160824                               08511084CCSH       0000000500000000                                                                             
D000042006057601827915022012171721จุลพงษ์                                           88788999            30313077                                05970092CCSH       0000001700000000                                                                             
D000043006057601827915022012172823นายอดิศักดิ์  หันวิสัย                            8856-9693           6531-5067                               01730481CCSH       0000001010600000                                                                             
D000044006057601827915022012173044นายเสกสรร นาสวน ทศ2861                            88569195            18212366                                05670390CCSH       0000001194400000                                                                             
D000045006057601827915022012174034นายวันเฉลิม เกษตรสินธุ์                           88579694            10217354                                09760107CCSH       0000001833500000                                                                             
D000046006057601827915022012174051นายสุระ ประเสริฐกุล                               88597498            107108560                               09740387CCSH       0000000973000000                                                                             
D000047006057601827915022012174131นายวันเฉลิม เกษตรสินธุ์                           88679487            26214355                                09760107CCSH       0000001918500000                                                                             
D000048006057601827915022012174647นายณัฐพร ธนะเนตร ทล 943                           88500599            107155077                               04670086CCSH       0000001293000000                                                                             
D000049006057601827915022012182738นางสาว วรกมล  บุญมา                               8846-8398           8021-6365                               08550648CCSH       0000002352600000                                                                             
D000050006057601827915022012183540นายศราวุฒิ สุขพัฒน์ ทล3986                        88289498            69213348                                08691092CCSH       0000001665500000                                                                             
D000051006057601827915022012183634นายศราวุฒิ สุขพัฒน์ ทล3987                        88189498            79213348                                08691092CCSH       0000001665500000                                                                             
D000052006057601827915022012183636นายณัฏฐพล พูลสวัสดิ์                              8826-9291           7621-4366                               04780516CCSH       0000002000000000                                                                             
D000053006057601827915022012190013นายบัญชา  พิษวงษ์                                 88479697            12214350                                07540984CCSH       0000000733300000                                                                             
T000054006057601827900000000000000000000000071538700000052                                                                                                                                                                                                      
