H0000010060576018279บริษัท ไทเอซ สิสซิ่ง จำกัด              15092011TALHO                                                                                                                                                                                       
D000002006057601827915092011084552อดิศักดิ์ หันวิสัย มจ5576                         8856-9693           6531-5067                               00638410CCSH       0000001010600000                                                                             
D000003006057601827915092011085650คุณเสาร์คำ  แก้ววิมล  มฉ 4686                     8807-9994           6631-4078                               05948265CCSH       0000001884200000                                                                             
D000004006057601827915092011095618นาย อิสระ สัจจะสรรเสริญ                           8805-9096           1431-0083                               01781712CCSH       0000001846600000                                                                             
D000005006057601827915092011100648นายโชคชัย สาคะวัตร                                88259696            77217369                                04710657CCSH       0000000030000000                                                                             
D000006006057601827915092011102902นาย สิทธิศักดิ์ หมายมั่น มฉ 4985                  8857-9093           5931-4078                               04581882CCSH       0000001700000000                                                                             
D000007006057601827915092011104318นางมณฑาทิพย์ เหลือสม ทว475                        88488689            54210357                                07930727CCSH       0000001884200000                                                                             
D000008006057601827915092011104405นาย บัวลา ทองขาว ทศ7406                           88659497            64217360                                01211627CCSH       0000001828800000                                                                             
D000009006057601827915092011104649นายทอง ไสยวิจิตร                                  88589997            31214344                                04660099CCSH       0000001710300000                                                                             
D000010006057601827915092011104718คุณยุทธชัย พ.                                     88779490            20219353                                10360570CCSH       0000000843300000                                                                             
D000011006057601827915092011105447นาย บุญเที่ยง บุญผ่อง มฉ1297                      8828-9397           7231-1079                               01200274CCSH       0000001100300000                                                                             
D000012006057601827915092011105806นาย อนันต์  สิงห์น้อย  ทศ 1141                    8856-9498           1121-1364                               04690052CCSH       0000004062900000                                                                             
D000013006057601827915092011105932นาย อนันต์  สิงห์น้อย  ทว 3038                    8817-9398           8021-3353                               04690052CCSH       0000003673400000                                                                             
D000014006057601827915092011110100นาย อนันต์  สิงห์น้อย  ทศ 1463                    8876-9797           3421-1366                               04690052CCSH       0000001935200000                                                                             
D000015006057601827915092011111509นาย มงคล  คุณประทุม  ทว7910                       8897-9192           0921-7351                               07580556CCSH       0000001884200000                                                                             
D000016006057601827915092011113429จุล เทพขาม                                        8807-9587           8621-4353                               10090237CCSH       0000001944000000                                                                             
D000017006057601827915092011114058อุไร ชูศักดิ์                                     88499094            22219333                                04700261CCSH       0000000034300000                                                                             
D000018006057601827915092011114231วินัย ลมสูงเนิน                                   88788097            25212351                                05700906CCSH       0000001432800000                                                                             
D000019006057601827915092011123758นางฐิตาภา  เป้าประจำเมือง                         88568898            05217316                                10630901CCSH       0000001498000000                                                                             
D000020006057601827915092011123918นางประไพวรรณ หวานเย็น                             8856-7297           9521-8355                               00210830CCSH       0000001775000000                                                                             
D000021006057601827915092011124120นายวิชาญ อินไชย                                   8885-9195           3921-8365                               11730509CCSH       0000000500000000                                                                             
D000022006057601827915092011124645นางสาว อารีวรรณ  อิ่มสนธิ์ ทพ9185                 8827-9492           5121-9288                               06971081CCSH       0000000752800000                                                                             
D000023006057601827915092011125834นางสาว สุวภัทร พรประภาศักดิ์ ทศ4918               8846-9198           8921-4361                               01200274COTH       0000003415200000                                                                             
D000024006057601827915092011131709นายพิชิตร์  ภูฆัง ทย 5417                         88568798            74215321                                01100063CCSH       0000000884600000                                                                             
D000025006057601827915092011133522เจริญชัย                                          8852-9794           5021-2313                               07540596CCSH       0000000227000000                                                                             
D000026006057601827915092011133944ไพศักดิ์ เทพแสง                                   88579982            89212337                                02540078CCSH       0000001088800000                                                                             
D000027006057601827915092011134238นายไพบูลย์  แก้วศรีเมือง  ทว  3515                8856-9886           55213351                                03970523CCSH       0000000030000000                                                                             
D000028006057601827915092011134651นายสมนึก  สืบพิลัย                                8886-7497           9521-9347           ทล 9579             02260178CCSH       0000001794000000                                                                             
D000029006057601827915092011134923นายสุชาติ  วิเศษชิต                               88859596            81212329                                06965203CCSH       0000002259200000                                                                             
D000030006057601827915092011140141นายสมเกียรติ สีธงชัยรุ่งโรจน์ ทย932               88878297            29210323                                07930727CCSH       0000001293600000                                                                             
D000031006057601827915092011140230นายสมเกียรติ สีธงชัยรุ่งโรจน์ ทม5672              88069594            26215317                                07930727CCSH       0000001251900000                                                                             
D000032006057601827915092011140313นายสมเกียรติ สีธงชัยรุ่งโรจน์ ทม2565              88178397            55212316                                07930727CCSH       0000001382100000                                                                             
D000033006057601827915092011140358นายสมเกียรติ สีธงชัยรุ่งโรจน์ ทพ 3823             88569596            38213282                                07930727CCSH       0000001326900000                                                                             
D000034006057601827915092011145648นายอรุณ พงษ์ภักดี มง4180                          8898-9491           0131-4058                               09624492CCSH       0000001205200000                                                                             
D000035006057601827915092011145936ด.ต.สุวนัย เสาศิริ                                88669986            06212362                                04780201CCSH       0000002113200000                                                                             
D000036006057601827915092011150842นายอมร แสงสุวรรณ ทร 3831                          8890-9590           1821-3333                               10630571CCSH       0000000960000000                                                                             
D000037006057601827915092011152348นางจุไรรัตน์  สุทธิเวช ทล 4577                    8848-9097           7521-4347                               11521628CCSH       0000001341700000                                                                             
D000038006057601827915092011152748นางสาวดวงกมล ห้องแซง ทว8526                       8897-9881           6521-8352                               10360725CCSH       0000001960000000                                                                             
D000039006057601827915092011152859นาง  สุพรรษา  ไชยมาตย์                            8856-9194           0221-3318                               00190408CCSH       0000001781800000                                                                             
D000040006057601827915092011155815นางสายเงิน จริยสุวรรณ  ทล8689                     88889090            96218348                                02590096CCSH       0000000767700000                                                                             
D000041006057601827915092011162757นายอำนาจ  รวยภิรมย์                               8867-9092           5231-5077                               07990132CCSH       0000001918500000                                                                             
D000042006057601827915092011164508นาย จักรชัย ลมัยกุล ทล 7025                       8858-9682           5021-7342                               09620029CCSH       0000001826300000                                                                             
D000043006057601827915092011164604นางสุบิน งามปานแก้ว ทล4676                        88689097            66214347                                04780158CCSH       0000001665500000                                                                             
D000044006057601827915092011165723นางสาวสุรีมาศ โชติวัฒนสกุล ทล 2030                88531799            107155487                               10270592CCSH       0000000869000000                                                                             
D000045006057601827915092011165933นางสาว กนกวรรณ  ทรงวิรัตน์  ทว 9732               8887-8199           2721-9353                               09760540CCSH       0000001884200000                                                                             
D000046006057601827915092011170330นาย วุฒิสิทธิ์ ยินดีเวท                           88789682            80217340            ทล7008              04881144CCSH       0000001617900000                                                                             
D000047006057601827915092011171319จุลพงษ์ สายบัว มฉ3073                             8878-8999           3031-3077                               05970092CCSH       0000001700000000                                                                             
D000048006057601827915092011175359นาย อนันต์ มโนศรี                                 88389895            86210319                                10990248CCSH       0000001680000000                                                                             
D000049006057601827915092011181238นายสอาด แจ่มสกุล มฉ2146                           88689193            61312074                                10130715CCSH       0000001617900000                                                                             
D000050006057601827915092011182225นายบุญมี งามขำ ทว210                              8818-8989           0221-0351                               08510017CCSH       0000001700000000                                                                             
D000051006057601827915092011183257นาย วิรุช สุทธิจันทร์ ทม 1777                     8848-9593           7721-1317                               04780201CCSH       0000001447100000                                                                             
D000052006057601827915092011184113นายณรงค์ชัย อารีรักษ์                             88669887            3921-1367           ทศ 1973             07969064CCSH       0000001799200000                                                                             
D000053006057601827915092011184159พ.อ.อ.สุรัศ ศรีหาเลิศ ทว1643                      8855-7697           3621-1354                               11520390CCSH       0000001799200000                                                                             
D000054006057601827915092011184644นายดำรงค์  ภูทองขาว                               4866-8998           3121-6362                               04700012CCSH       0000000300000000                                                                             
T000055006057601827900000000000000000000000080238600000053                                                                                                                                                                                                      
