H0000010060576018279บริษัท ไทเอซ สิสซิ่ง จำกัด              15112011TALHO                                                                                                                                                                                       
D000002006057601827915112011082932นส.นวลอนงค์ อินไกร                                88588688            35211358                                00282352CCSH       0000001918500000                                                                             
D000003006057601827915112011085729นายชาญชัย งามวิไลสมศักดิ์                         8870-8098           6121-5338                               00620910CCSH       0000000960000000                                                                             
D000004006057601827915112011090618นายงเจริญ ช่วยสงค์                                88779882            61218350                                01231109CCSH       0000002270100000                                                                             
D000005006057601827915112011091622นายสมพงษ์  พลพุทธา                                8808-8097           3521-2358                               02930288CCSH       0000001700000000                                                                             
D000006006057601827915112011092308นายไชยยา กลมเกลียว                                88179683            95217350                                00170047CCSH       0000000432000000                                                                             
D000007006057601827915112011094411หจก.วิน คาร์ ทล1134                               88699491            41211343                                00470517CCLQ888236300000010896000110180                                                                         
D000008006057601827915112011095513นางทีตา พันลำจันทร์                               88533599            107137960                               03960229CCSH       0000001052200000                                                                             
D000009006057601827915112011095726นายธนโชติ หอกลาง                                  8887-9097           3221-4356                               03442417CCSH       0000005375000000                                                                             
D000010006057601827915112011100704นางพรนัชชา เนตรจุ้ย                               88534899            107145883                               05680549CCSH       0000000681100000                                                                             
D000011006057601827915112011100828นางกรรณิการ์ สุบุญสันธิ์                          88533899            107093646                               05680549CCSH       0000000681100000                                                                             
D000012006057601827915112011100944นายสาคร  รีฮุง                                    8827-9887           5131-4079           มฉ 4195             01160137CCSH       0000001990000000                                                                             
D000013006057601827915112011101220นายศุภกร วิเศษธนาดุล                              88508899            107104674                               04690188CCSH       0000001200000000                                                                             
D000014006057601827915112011102644จิตลดา พันธุ์ไพโรจน์                              8867-9097           1221-4356                               07840866CCSH       0000001599300000                                                                             
D000015006057601827915112011103704นาง วารี วรศิริ                                   88378399            05219359                                00660527CCSH       0000001918500000                                                                             
D000016006057601827915112011104801นายธรรมนูญ ม่วงมั่งคั่ง มง 236                    88869193            6231-0053                               00410822CCSH       0000001282500000                                                                             
D000017006057601827915112011113111นายฉลาด วันชนะ ทศ 307                             88078988            73210360                                07627621CCSH       0000001918500000                                                                             
D000018006057601827915112011114101ไพจิตต์ ก.                                        88479798            36217320                                02560119CCSH       0000001383600000                                                                             
D000019006057601827915112011114542วุฒิสิทธิ์ ยินดีเวท ทล7008                        88789682            80217340                                01850906CCSH       0000001617900000                                                                             
D000020006057601827915112011115429นาง อาภาภรณ์ ไชยวรรณ ทย 8393                      88478399            33218329                                07950194CCSH       0000002432600000                                                                             
D000021006057601827915112011120353นายสมนึก  สืบพิลัย                                8886-7497           9521-9347                               02260835CCSH       0000001700000000                                                                             
D000022006057601827915112011120956สัญชัย ยุทธารักษ์                                 8888-9894           4221-5340                               02464901CCSH       0000001986000000                                                                             
D000023006057601827915112011122725นายทอง ไสยวิจิตร                                  88589997            31214344                                01880018CCSH       0000001712600000                                                                             
D000024006057601827915112011124425นาง รำพึง แดงเกาะโพธิ์                            88469493            93212354                                01950405CCSH       0000001864300000                                                                             
D000025006057601827915112011125156นายพงศ์เพียร เพียรสวัสดิ์  มจ3391                 88889681            13313069                                08690335CCSH       0000000635000000                                                                             
D000026006057601827915112011130603นาย สุรศักดิ์ อินทศร  ทว 5936                     88679495            69215353                                04581882CCSH       0000002029300000                                                                             
D000027006057601827915112011130625จิราพร  สายสุวรรณ                                 8887-9896           0621-4355           084-070-1713        04600142CCSH       0000001607500000                                                                             
D000028006057601827915112011130643นายจุล เทพขาม ทว4638                              88079587            86214353                                00554094CCSH       0000001978800000                                                                             
D000029006057601827915112011130705นาย สุรศักดิ์ อินทศร  ทว 5456                     8877-9586           6421-5355                               04581882CCSH       0000002167900000                                                                             
D000030006057601827915112011131819นายประกาศ  หลุมทอง         ทม659                  8897-9394           9621-0315                               06920406CCSH       0000000860000000                                                                             
D000031006057601827915112011131905นายกระต่าย เทพวงษ์                                88515999            106138674                               01610661CCSH       0000001814600000                                                                             
D000032006057601827915112011132624นายธนัฒฑ์  แก้วมณีชัย                             88509889            106203890                               04350260CCSH       0000001800000000                                                                             
D000033006057601827915112011133215นรินทร์ ร่มลำดวน ทย4                              88069297            40210320                                07950348CCSH       0000002152500000                                                                             
D000034006057601827915112011134511นาย ประชา กัลยา                                   88488697            03212353                                10990511CCSH       0000001934200000                                                                             
D000035006057601827915112011140007นายพิพัฒน์ ธัญญพืช                                88678998            73316063                                08003818CCSH       0000001091600000                                                                             
D000036006057601827915112011140834นางราตรี ศรีคันธะรักษ์                            8828-9594           0521-6310                               09350170CCSH       0000002115300000                                                                             
D000037006057601827915112011141914สมบูรณ์ คาทอง                                     88479495            79215353                                00911062CCSH       0000004173400000                                                                             
D000038006057601827915112011143532นายเทพฤทธิ์ สองใหม่ มง 9935                       8887-9196           5931-9053                               11460299CCSH       0000001275500000                                                                             
D000039006057601827915112011151610นายวิชัย ตุลา ทย201                               88168697            12210320                                02590600CCSH       0000001543200000                                                                             
D000040006057601827915112011155617นายเอกสิทธิ์ ศรีตองอ่อน ทว 597                    8858-8689           7521-0359                               02580367CCSH       0000000054500000                                                                             
D000041006057601827915112011163840นายบุญมี งามขำ ทว210                              88188989            02210351                                08510017CCSH       0000001700000000                                                                             
D000042006057601827915112011171951นายจุลพงษ์ สายบัว                                 88788999            30313077                                05970617CCSH       0000001700000000                                                                             
D000043006057601827915112011183330นางสาวเมตตา ตะคุณนะ ทว4450                        8837-9687           0421-4355                               04840289CCSH       0000002024000000                                                                             
T000044006057601827900000000000000000000000071422700000042                                                                                                                                                                                                      
