H0000010060576018279บริษัท ไทเอซ สิสซิ่ง จำกัด              26022012TALHO                                                                                                                                                                                       
D000002006057601827926022012102136จ.อ.วรายุ  ทองฉิม  มฉ 6786                        8876-9497           6731-6078                               08510045CCSH       0000001506000000                                                                             
D000003006057601827926022012104740นายสมเกียรติ สีธงชัยรุ่งโรจน์ ทย 1704             88269196            47211320                                07930240CCSH       0000001495600000                                                                             
D000004006057601827926022012110534นางสาวนันท์ญา  จันท์มารถ  ทม 5715                 88378099            57215311                                04881090CCSH       0000001328000000                                                                             
D000005006057601827926022012111308นางพรเพ็ญ  แซ่ก๊วย ทล 8440                        8828-9190           0421-8344                               10720208CCSH       0000000205450000                                                                             
D000006006057601827926022012113555นางสาววัสมล โชติสิงห์                             0198187999177       106123031                               07990541CCSH       0000001800000000                                                                             
D000007006057601827926022012113654นางสาววัสมล โชติสิงห์                             0198187998977       106127041                               07990541CCSH       0000001800000000                                                                             
D000008006057601827926022012131624นางสุภาพรณ์ เทพทวี                                88679996            56214357                                09760107CCSH       0000000953300000                                                                             
D000009006057601827926022012132210นายสมพงษ์ ดารักษ์ ทล593                           88969391            35210349                                10361034CCSH       0000000958000000                                                                             
D000010006057601827926022012134314นาง ขวัญหทัย ดีใจ ทย276                           88169393            62210327                                10070236CCSH       0000000663500000                                                                             
D000011006057601827926022012155702นางกมลวัลย์ เสาะขุนทด  ทว 5746                    88279795            67215354                                08510258CCSH       0000001886200000                                                                             
D000012006057601827926022012173029นางชลิตตา เจริญพวง                                88510099            106131663                               09760107CCSH       0000001480000000                                                                             
T000013006057601827900000000000000000000000014076050000011                                                                                                                                                                                                      
