H0000010060576018279บริษัท ไทเอซ สิสซิ่ง จำกัด              29012012TALHO                                                                                                                                                                                       
D000002006057601827929012012085126นางชลิตดา เจริญพวง                                88468397            76214329                                09761108CCSH       0000000830000000                                                                             
D000003006057601827929012012105618โชคชัย สนธิ์ชัยสกุล                               88189392            16216347                                07620859CCSH       0000001935500000                                                                             
D000004006057601827929012012110518นายธนพัต คุ้มวงษ์                                 88078897            85210364                                07660497CCSH       0000001773000000                                                                             
D000005006057601827929012012115613จ.ส.อ. ประดิษฐ์  ยุบลนวน                          8818-9898           0621-3341                               11250233CCSH       0000001447900000                                                                             
D000006006057601827929012012122547นาย นวพล  ก้านอินทร์ ทว7506                       88501099            106139735                               08550648CCSH       0000001293000000                                                                             
D000007006057601827929012012152838นายอุทัย การเกษม ทย6248                           88578197            82216324                                08450531CCSH       0000001067000000                                                                             
D000008006057601827929012012161452นายปริญญา คงคาสุริยฉาย ชฬ9939                     8817-9090           9908-9403                               10720930CCSH       0000001130000000                                                                             
D000009006057601827929012012171957นายอนุสรณ์ วารีน้อย                               88278399            35215318            ทม.5583             07990541CCSH       0000001391000000                                                                             
D000010006057601827929012012174212นางลำเพย  ศรีดาวเดือน  ทล 5807                    8858-9393           7821-5340                               10720208CCSH       0000001432800000                                                                             
D000011006057601827929012012182131นายชวลิต ฮั่นปุดโจ๊ว ทว3709                       88679697            97213350                                07960037CCSH       0000001884200000                                                                             
T000012006057601827900000000000000000000000014184400000010                                                                                                                                                                                                      
