H0000010060576018279บริษัท ไทเอซ สิสซิ่ง จำกัด              06032012TALHO                                                                                                                                                                                       
D000002006057601827906032012085743นายจิตตกร โกษากุล ทศ4196                          88369392            61214369                                01771050CCSH       0000002000000000                                                                             
D000003006057601827906032012094845นายสุรศักดิ์ อินทศร ทว 1327                       88369290            73211352                                04580699CCSH       0000002060500000                                                                             
D000004006057601827906032012095900สนิท ดอดกระโทก                                    8836-9195           2221-8334                               02540469CCSH       0000000657700000                                                                             
D000005006057601827906032012100232นางสาวนงลักษณ์ จันต๊ะราชา                         88479486            34215355                                07420110CCSH       0000001940000000                                                                             
D000006006057601827906032012100436นายถวิล สุขโข                                     88504899            106121361                               08770801CCSH       0000001697800000                                                                             
D000007006057601827906032012102925นางสาวทองศรี  ธิปไชย                              88369886            65211320                                02160493CCSH       0000001159200000                                                                             
D000008006057601827906032012103131จรัล เผยสกุล                                      88678497            86210362                                02580601CCSH       0000001946400000                                                                             
D000009006057601827906032012105024นายวรรณรบ เนียมทอง                                88506399            106124165                               01900804CCSH       0000001773700000                                                                             
D000010006057601827906032012110048นายทรงชัย ลายลวดแก้ว                              88878097            21211362                                04731091CCSH       0000001918500000                                                                             
D000011006057601827906032012110702นายณรงค์กร ศิริยามัน ทศ 7674                      88659896            46217367                                00810345CCSH       0000001501700000                                                                             
D000012006057601827906032012111356นางสาวนุชนารถ แจ่มศุภพันธ์ ทว5838                 88967297            88215353                                01951137CCLQ792824400000015980000110090                                                                         
D000013006057601827906032012111616นางสาวนุชนารถ แจ่มศุภพันธ์ ทว5838                 88967297            88215353                                01951137CCSH       0000000102000000                                                                             
D000014006057601827906032012113653กิตตินันท์ วุฒิวงศ์                               88591498            106118683                               10000276CCSH       0000000800000000                                                                             
D000015006057601827906032012115853นางสาวสายันต์ ศรีวงค์ษา                           88778397            76210368                                01880688CCSH       0000001989000000                                                                             
D000016006057601827906032012120009นางประไพวรรณ หวานเย็น                             8827-9397           7921-3358                               00210830CCSH       0000001700000000                                                                             
D000017006057601827906032012120228นางศุทธนุช ภัทรศรีสุวัฒน์                         88469095            83213339                                00920814CCSH       0000000064300000                                                                             
D000018006057601827906032012120416นายอุเทน เพชร์ทอง ทศ5608                          88668399            86215360                                11522040CCSH       0000002107800000                                                                             
D000019006057601827906032012121721จำเนียร ศรีคำมุง                                  88569894            09319061                                04710657CCSH       0000001370900000                                                                             
D000020006057601827906032012125042นายสหชัชจ์ ทาไธสง                                 88573597            106160438                               01691216CCSH       0000001918500000                                                                             
D000021006057601827906032012125409นายอนุสรณ์ วารีน้อย                               88859795            84213317                                00940647CCSH       0000000995100000                                                                             
D000022006057601827906032012125820นาย ทนงศักดิ์ คงแก้ว                              8848-9597           7321-4342           ทล4327              01950405CCSH       0000001275700000                                                                             
D000023006057601827906032012130005นาย ทนงศักดิ์ คงแก้ว                              88389597            63214342            ทล4326              01950405CCSH       0000001275700000                                                                             
D000024006057601827906032012130144นายประเสริฐ แออ่วม                                88169791            59210321                                01480560CCSH       0000001495000000                                                                             
D000025006057601827906032012130410นายประเสริฐ แออ่วม                                88669592            04217312                                01480560CCSH       0000001414000000                                                                             
D000026006057601827906032012130557นางสาว สุรทิพย์ อินทรสูต                          88513899            107103711                               05760932CCSH       0000001159200000                                                                             
D000027006057601827906032012131305ธนกร แสงศรี  ทม.4691                              8876-8099           1621-4319                               00530863CCSH       0000000520000000                                                                             
D000028006057601827906032012132201นางอัสเราะมะห์ ปานมณี ทร 9701                     88859894            17219330                                04603236CCSH       0000000772600000                                                                             
D000029006057601827906032012132307นางสาว บุญสิตา  สุนทรสวัสดิ์ มฉ 7275              8866-9197           5231-7077                               07540593CCSH       0000001842700000                                                                             
D000030006057601827906032012133221นาย สายัณห์  เจริญสุข  มจ7981                     8866-8298           1931-7068           086-5883906         08690033CCSH       0000001170000000                                                                             
D000031006057601827906032012134529นายชัยณรงค์ สวัสดี                                88534499            107124684                               11250856CCSH       0000001610800000                                                                             
D000032006057601827906032012135620นายโกศล  เที่ยงสันเทียะ ทศ9547                    88537399            104118653                               10810269CCSH       0000001956600000                                                                             
D000033006057601827906032012135729นายสุพจน์ ภาคฐิน                                  88469897            76211362                                10330446CCSH       0000001864400000                                                                             
D000034006057601827906032012135943นาย บัวลา ทองขาว ทล8126                           88515799            106124969                               01211627CCSH       0000001716500000                                                                             
D000035006057601827906032012140558ด.ต.ถนอม ไพจิตร 0802696325                        88520399            107121179                               10660230CCSH       0000001104000000                                                                             
D000036006057601827906032012141427นาย สำเนียง แก้วมณี                               88523499            104121142                               08771836CCSH       0000001867300000                                                                             
D000037006057601827906032012141858ปราณี                                             88534399            104117514                               00101176CCSH       0000001575400000                                                                             
D000038006057601827906032012143307นาย บุญมา ล้ำทวีภักดี                             88478899            06212322                                07620396CCSH       0000001000000000                                                                             
D000039006057601827906032012145535นาย เพชร  เกาะแก้ว                                88359797            45210349                                00910199CCSH       0000001880000000                                                                             
D000040006057601827906032012145956อนัน สมบูรณ์พันธ์                                 88659394            81210310                                09761108CCSH       0000000887000000                                                                             
D000041006057601827906032012150752นายเวชสิทธิ์ สุขสุมิตร                            88369297            99317077            มฉ7979              00721689CCSH       0000001564500000                                                                             
D000042006057601827906032012152228นางสาวสุปราณี ธนูศิลป์ ทล8861                     88589780            18218346                                10070236CCSH       0000001672700000                                                                             
D000043006057601827906032012162430นางสุวีรยา นาสวน ทศ2716                           88469595            67212361                                05670390CCSH       0000001194400000                                                                             
D000044006057601827906032012163456นายสมาน คนหลวง ทว 7908                            88379192            89217350                                11040535CCSH       0000001884200000                                                                             
D000045006057601827906032012164307นาย สมชาย ตราลาภ ทล3862                           88589398            28213346                                10070236CCSH       0000002000000000                                                                             
D000046006057601827906032012164839นางสาว นวลจันทร์ แก้วทอง                          88369492            24210355            ทล452               04881144CCSH       0000002005300000                                                                             
D000047006057601827906032012165002นายสมเกียรติ สีธงชัยรุ่งโรจน์ ทย932               88878297            29210323                                07930240CCSH       0000001293600000                                                                             
D000048006057601827906032012165120นายสมเกียรติ สีธงชัยรุ่งโรจน์ ทพ3823              88569596            38213282                                07930240CCSH       0000001326900000                                                                             
D000049006057601827906032012165222นายสมเกียรติ สีธงชัยรุ่งโรจน์ ทม5672              88069594            26215317                                07930240CCSH       0000001251900000                                                                             
D000050006057601827906032012165607นายอรัญ  ขาวเนตร  ทย 9264                         8867-8599           4221-9326                               09760540CCSH       0000001285000000                                                                             
D000051006057601827906032012172254จักรชัย  ลมัยกุล มจ1852                           8816-9890           2831-1065                               06834782CCSH       0000000655600000                                                                             
D000052006057601827906032012175224นาง ชลิตดา  เจริญพวง  ทว 4355                     88979097            53214355                                09760540CCSH       0000002400000000                                                                             
D000053006057601827906032012175308นางชลิตดา  เจริญพวง  ทว 4354                      88079197            43214355                                09760540CCSH       0000002400000000                                                                             
D000054006057601827906032012180047นายกรชาล จันทะเก ทว8622                           88857697            26218352                                10070236CCSH       0000002006500000                                                                             
D000055006057601827906032012192048นายธนพงษ์ เครือวณิชธรรม ทม4468                    88857897            84214316                                10154881CCSH       0000002748800000                                                                             
T000056006057601827900000000000000000000000081377400000054                                                                                                                                                                                                      
