H0000010060576018279บริษัท ไทเอซ สิสซิ่ง จำกัด              04122011TALHO                                                                                                                                                                                       
D000002006057601827904122011103548นาย ยอดรัก จันทุม                                 88369592            07218331            ทร 8710             06971662CCSH       0000001600000000                                                                             
D000003006057601827904122011114213นายรวมชัย นาคะสถิตย์ ทศ 1146                      8816-9598           6121-1364                               04881100CCSH       0000001587900000                                                                             
D000004006057601827904122011130053นายธรรมโรจน์ ศรีบุญเลิศ มฉ4418                    887-9786            8431-4071                               07690537CCSH       0000001356900000                                                                             
D000005006057601827904122011134012นิพนธ์  การบรรจง                                  88506899            107130545           ทร3197              07990132CCSH       0000001524700000                                                                             
D000006006057601827904122011140638นาย สุพพัต ตองติดรัมย์                            8867-9886           3331-4078                               04780120CCSH       0000001980500000                                                                             
D000007006057601827904122011141657นางมาลาศรี ทองชา ทร 5987                          88769293            79215338                                04930681CCSH       0000001604900000                                                                             
D000008006057601827904122011141804อนุสรณ์  วารีน้อย                                 88537799            106138007           ทว 5156             07990132CCSH       0000001658500000                                                                             
D000009006057601827904122011141939อนุสรณ์  วารีน้อย                                 88859795            8421-3317           ทม 3478             07990132CCSH       0000000995100000                                                                             
D000010006057601827904122011144120นางสาว เจนนภา ไทยเจริญ                            88747299            106144748                               10070203CCSH       0000001890000000                                                                             
D000011006057601827904122011145955นางอารมณ์  ทองสงค์  ทล 3105                       88198797            51213340                                08560585CCSH       0000002927000000                                                                             
D000012006057601827904122011162417นายสมชาย ศรีพลัง                                  88669787            10213313                                05970398CCSH       0000000695500000                                                                             
D000013006057601827904122011162649นายประจบ โตพิทักษ์                                88078398            33217353            ทว 7333             08780348CCSH       0000001979600000                                                                             
D000014006057601827904122011171542นาย ชาญณรงค์  ธารีพฤกษ์                           8808-8099           7021-0358                               08670376CCSH       0000001700000000                                                                             
D000015006057601827904122011172534นายศักดิ์ชัย นิยมนา ฮข7405                        88069792            54427020                                04950486CCSH       0000000350000000                                                                             
D000016006057601827904122011172621นางสาว สุทธิลักษณ์ สาวะโท ทว5574                  8897-9895           4521-5357                               08691092CCSH       0000002080000000                                                                             
D000017006057601827904122011172703นายพงษ์ศักดิ์ บริบูรณ์ ทว6228                     8857-9794           8221-6352                               08691092CCSH       0000001987300000                                                                             
D000018006057601827904122011172745นางสาวนุชนารถ แจ่มศุภพันธ์ ทล9549                 8816-7097           9521-9344                               08691092CCSH       0000000989800000                                                                             
D000019006057601827904122011181321นายอภิรัตน์ ภู่ศิริ ทย 2404                       8817-9295           4421-2320                               10996785CCSH       0000001000000000                                                                             
D000020006057601827904122011183946นายบุญเลิศ ทรัพย์เจริญกุล  ทย 5311                88178988            13215321                                10320156CCSH       0000001465000000                                                                             
D000021006057601827904122011184042นายบุญเลิศ ทรัพย์เจริญกุล    ทศ 7974              88459296            49217367                                10320156CCSH       0000002008400000                                                                             
T000022006057601827900000000000000000000000031381100000020                                                                                                                                                                                                      
