H0000010060576018279บริษัท ไทเอซ สิสซิ่ง จำกัด              25102011TALHO                                                                                                                                                                                       
D000002006057601827925102011083455นาย หวัน กาฬภักดี                                 88504199            107039670                               07412910CCSH       0000001025500000                                                                             
D000003006057601827925102011084651นายสมบูรณ์ ดาทอง                                  88479495            79215353                                00911077CCSH       0000000098500000                                                                             
D000004006057601827925102011085210นางเสน่ห์  อินสุ                                  88779690            47218358                                01900549CCSH       0000001652200000                                                                             
D000005006057601827925102011085745นางนงนุช  แก้วสุวรรณ                              8838-9493           2321-3311                               04193585CCSH       0000001500000000                                                                             
D000006006057601827925102011090131นายทวี  สาระแสน ทล1965                            8819-8699           5921-1346                               05948265CCSH       0000001589600000                                                                             
D000007006057601827925102011090907นายแก้วมูล เกษมพัฒน์ มจ 2985                      88269395            59312068                                04603236CCSH       0000000855000000                                                                             
D000008006057601827925102011091423นายทวี นากนิยม                                    8837-9197           5321-4351                               01880367CCSH       0000001671700000                                                                             
D000009006057601827925102011092447นายอดิศร ดอนสว่าง                                 88889597            60211336                                02190805CCSH       0000001484700000                                                                             
D000010006057601827925102011092613นายสันต์ชัย ฤทธิ์เทพ                              88502799            104122463                               02590096CCSH       0000001891800000                                                                             
D000011006057601827925102011092753นายสัมเดช เกลี้ยงดี ทร 1348                       88169995            83211334                                04603236CCSH       0000001550000000                                                                             
D000012006057601827925102011093357นายวิเชียร  ชื่นยินดี  ทศ 8397                    88559695            73218369                                08560585CCSH       0000001812300000                                                                             
D000013006057601827925102011095452อำนาจ เจียมเชื่อม ทศ2094                          88669596            40212369                                02530836CCSH       0000001884200000                                                                             
D000014006057601827925102011095615นายอำนาจ เจียมเชื่อม ทว3760                       88179797            07213356                                02530836CCSH       0000001756700000                                                                             
D000015006057601827925102011101022คุณสุวรรณ ชัยชนะ                                  88513499            104121190                               04710654CCSH       0000002069400000                                                                             
D000016006057601827925102011101441นายสุรพล การสร้าง ทศ 8874                         88379194            24212323                                02190833CCSH       0000001772400000                                                                             
D000017006057601827925102011102714นายบุญช่วย  พิศาลภูรินาถ                          88668498            40214339            084-0932234         04600142CCSH       0000001663000000                                                                             
D000018006057601827925102011103935นายขวัญชัย บุญนาค                                 88503799            106203179                               09680061CCSH       0000001733100000                                                                             
D000019006057601827925102011104436มานพ ฉิมพล                                        88779392            79372312                                01451246CCSH       0000000717200000                                                                             
D000020006057601827925102011104653นางสาวนันท์ญา จันท์มารถ ทม5715                    8837-8099           5721-5311                               10520393CCSH       0000001287500000                                                                             
D000021006057601827925102011104918นาย ธนชัย มานะลีลานุรัตน์                         88379398            70213356            ทว3067              00600443CCSH       0000002070000000                                                                             
D000022006057601827925102011105251นางสาวอรพิน  ธนารักษ์เจริญกุล                     8818-8899           1321-9340                               07800652CCSH       0000001838900000                                                                             
D000023006057601827925102011105801นายประสิทธิ์ บุตรศรี                              88769990            50311051                                03150930CCSH       0000000742300000                                                                             
D000024006057601827925102011105903นาย สัมพันธ์  ปรารมย์ ทว 5554                     8897-9296           4521-5355                               01781712CCSH       0000005384500000                                                                             
D000025006057601827925102011111510เสกสรรค์ กลิ่นรอด ทว 4998                         8847-9496           8921-4359                               01990942CCSH       0000001799200000                                                                             
D000026006057601827925102011111601เสกสรรค์ กลิ่นรอด ทม 8374                         8891-9595           4321-8317                               01990942CCSH       0000000235500000                                                                             
D000027006057601827925102011112344นายวันชัย เอี่ยมผ่องใส ทศ2429                     88769796            94212362                                02530836CCSH       0000001884200000                                                                             
D000028006057601827925102011112358นางสาว ชูศรี งามประเสริฐ                          8811-8688           4921-4327                               07480555CCSH       0000000870300000                                                                             
D000029006057601827925102011112523นาย พืทยา  ผิวผ่อง                                88388499            61313078                                00339885CCSH       0000001700000000                                                                             
D000030006057601827925102011113235นางณัฏฐินันท์ ทองน้อย                             48528999            104119553                               05670558CCSH       0000001751000000                                                                             
D000031006057601827925102011113917นายพงษ์กฤษณ์ เกียรติเจริญพันธุ์ ทศ 7808           8895-9596           8821-7360                               04580699CCSH       0000002479200000                                                                             
D000032006057601827925102011114006นายพงษ์กฤษณ์ เกียรติเจริญพันธุ์ ทศ 8803           8825-9694           3821-8360                               04580699CCSH       0000002479200000                                                                             
D000033006057601827925102011115152ด.ต.สายชล กฤษวงษ์                                 88678598            30210365                                07660676CCSH       0000001884200000                                                                             
D000034006057601827925102011121736คุณอรวรรณ  เเดงศิริ                               8835-9995           3321-8367                               02617277CCSH       0000001872100000                                                                             
D000035006057601827925102011121738นายนันท์มนัส พอใจ                                 88179692            48217353                                08698691CCSH       0000001884200000                                                                             
D000036006057601827925102011121921นายนันทวี สุนา                                    88479794            57314075                                01890658CCSH       0000001884200000                                                                             
D000037006057601827925102011122259นางภัสรา  เรศสุข                                  88769693            24213369                                08401304CCSH       0000001799200000                                                                             
D000038006057601827925102011122529นายชัชวาล  แสงอาวุธ ทศ8732                        88540599            106197181                               08401304CCSH       0000001883800000                                                                             
D000039006057601827925102011123501สมชาติ จันทร์ฤดี                                  88569797            04211368                                00170047CCSH       0000001884200000                                                                             
D000040006057601827925102011123608นางผาณิต จันทร์เมฆา                               88467297            76210353                                07320250CCSH       0000001799200000                                                                             
D000041006057601827925102011124104นายประสิทธิ์  จันทร์พิพัฒน์ผล                     88478599            46215326                                05701141CCSH       0000001250000000                                                                             
D000042006057601827925102011124252นายสมพร  ยศอ่อน                                   88779292            80313070                                00020572CCSH       0000001669000000                                                                             
D000043006057601827925102011130121นายสุนัย พรหมไพโรจน์                              88547899            107159104           ทล 3752             09768664CCSH       0000001374400000                                                                             
D000044006057601827925102011130734สุรพงษ์ วงศ์กำภู                                  8875-9795           1421-8364                               02039997CCSH       0000001812300000                                                                             
D000045006057601827925102011130821นางคูณ  เทศแท้  ทว  6783                          8857-9993           3721-6358                               03970523CCSH       0000001700000000                                                                             
D000046006057601827925102011131340น.ส.วัสมล โชติสิงห์ ทว 7623                       88267497            36217352                                05705512CCSH       0000001799200000                                                                             
D000047006057601827925102011132134นายณัฐพล  สนิท  ทร 950                            88542299            107150402                               08560585CCSH       0000001284000000                                                                             
D000048006057601827925102011132223นายนิสิต หล่อดี ทย3722                            88879592            27213322                                08001096CCSH       0000001451700000                                                                             
D000049006057601827925102011132325นายชาติชาย เกษตรเอี่ยม ทล4880                     88389596            08214348                                07601301CCSH       0000001746800000                                                                             
D000050006057601827925102011133616อนุรักษ์ แซ่คู                                    88588898            76213352                                01370678CCSH       0000001700000000                                                                             
D000051006057601827925102011135012นายเผชิญ โพธิ์ศรี ทว6007                          88379395            70216350                                00610680CCSH       0000001884200000                                                                             
D000052006057601827925102011135636นายสมพร โยธาจันทร์                                88059898            95312061                                00980981CCSH       0000001198500000                                                                             
D000053006057601827925102011135734นายพลานุภาพ  อุ่นฤกษ์  ทล5005                     88517399            107161333                               04880055CCSH       0000001220000000                                                                             
D000054006057601827925102011140356นายวราวุฒิ  จันทร์ประโคน ทว3900                   8887-9697           0921-3350                               02590911CCSH       0000001700000000                                                                             
D000055006057601827925102011140649ปรีชา เชื้อหมอ                                    8857-8099           3721-9355                               02039997CCSH       0000001048800000                                                                             
D000056006057601827925102011140756นาย บัญญัติ  แก่นจันทร์                           88259594            05310075                                01230233CCSH       0000001382100000                                                                             
D000057006057601827925102011141154นายสมภาร รากแก่น                                  88499981            77219338                                01880018CCSH       0000001665500000                                                                             
D000058006057601827925102011141729นส.พวงเพ็ญ  ศิริพละ  ทว4158                       8827-9297           8121-5355                               04585612CCSH       0000002116700000                                                                             
D000059006057601827925102011141833นส.พวงเพ็ญ  ศิริพละ  ทว 4189                      8817-9297           9121-4358                               04585612CCSH       0000002116700000                                                                             
D000060006057601827925102011142205นายคมสัน ศรีวะรมย์                                8888-9492           9321-6345                               07621493CCSH       0000001790300000                                                                             
D000061006057601827925102011143128หนู มั่นแม่น ทล5624                               88089893            46215342                                00980134CCSH       0000001617900000                                                                             
D000062006057601827925102011143317นายสัญญา สาแก้ว ทร3054                            8816-7897           4021-3335                               04650665CCSH       0000001212700000                                                                             
D000063006057601827925102011144218นายกมล แต้มสว่าง ทล 8133                          8818-9690           3121-8343                               00940647CCSH       0000001800000000                                                                             
D000064006057601827925102011144309นาย พรประสิทธิ์  บัวเพชร                          8878-8399           1521-9349                               02617277CCSH       0000002067200000                                                                             
D000065006057601827925102011144841นายประยูร โพธิ์บริสุทธิ์ ทม2910                   8847-9587           0921-2311                               00180828CCSH       0000000167000000                                                                             
D000066006057601827925102011145202นายสมศักดิ์ วังสมอ ทร 3049                        88869391            90213334                                01890420CCSH       0000001495600000                                                                             
D000067006057601827925102011145554ธีระศักดิ์  สุประภากร                             8838-9880           6721-8340                               00980495CCSH       0000001700000000                                                                             
D000068006057601827925102011145910นายเจริญ ชัชวาลย์  มฉ5973                         88078499            39315077                                00651470CCSH       0000000110000000                                                                             
D000069006057601827925102011150929นายณรงค์  ภู่กรุต ทศ6877                          8855-9798           7821-6367                               07961036CCSH       0000003216000000                                                                             
D000070006057601827925102011151056นายณรงค์  ภู่กรุต  ทศ 6818                        8825-9998           8821-6361                               07961036CCSH       0000003216000000                                                                             
D000071006057601827925102011151130นายวรพงศ์ พูลพิพิธ                                8818-9591           7321-1311                               00748904CCSH       0000000100000000                                                                             
D000072006057601827925102011151216นายณรงค์  ภู่กรุต ทศ 6858                         8845-9798           8821-6365                               07961036CCSH       0000003216000000                                                                             
D000073006057601827925102011152040นายธีรพงษ์ สมนาม  ทร 4469                         88523899            107136028                               02260509CCSH       0000000247000000                                                                             
D000074006057601827925102011152444นายประดิษฐ์ ไลยการ ทศ 6710                        88759898            07216361                                04603236CCSH       0000001200300000                                                                             
D000075006057601827925102011153812นายอริย์ธัช วิสาติ ทว 8465 โทร.085064906          8867-9990           5421-8356                               05943281CCSH       0000001391200000                                                                             
D000076006057601827925102011154002นส.ฉัตรรัตน์   วุฒิโยธินวงศ์                      8867-7997           0721-8332                               04930913CCSH       0000000295500000                                                                             
D000077006057601827925102011154815ด.ต.เสิม หยุ่นแก้ว ทว9322                         88469994            23219352                                01971063CCSH       0000001800000000                                                                             
D000078006057601827925102011155434นางศิริ  เกียรติเฉลิม                             88489790            75218327                                00330234CCSH       0000001000000000                                                                             
D000079006057601827925102011160401นายสมศักดิ์ อาบสุวรรณ์                            8867-9786           3238-6192                               01231109CCSH       0000001000000000                                                                             
D000080006057601827925102011160829นาย เชี่ยว ไหมดำ                                  8876-9498           3031-3064           มจ 3043             00950541CCSH       0000001382100000                                                                             
D000081006057601827925102011171754นางสาวสุรีรัตน์  เอี่ยมอำพร                       88379796            00215353                                05690707CCSH       0000001329600000                                                                             
D000082006057601827925102011171841นางสาวหยกฟ้า เจตจำเนียรกุล ทร3655                 88777397            56213335                                10150884CCSH       0000001220700000                                                                             
D000083006057601827925102011180344นายชาญชัย  แซ่ปัง                                 88069095            70213368                                05756198CCSH       0000002000000000                                                                             
D000084006057601827925102011180505นายชาญชัย   แซ่ปัง                                88759884            33219369                                05756198CCSH       0000001900000000                                                                             
D000085006057601827925102011180632นายชาญชัย  แซ่ปัง                                 88959096            00218368                                05756198CCSH       0000001900000000                                                                             
D000086006057601827925102011180928นายรัชชานนท์ ขาวแสง                               8865-9494           4521-7364                               10050566CCSH       0000001000000000                                                                             
D000087006057601827925102011181853นายนิทัศน์ สิริพุทธวณิชย์ มง7512                  88869591            25317051                                08691092CCSH       0000001400000000                                                                             
D000088006057601827925102011182451นาง สมร  ราวินิช  ทล3453                          8827-9993           3421-3345                               08550648CCSH       0000000960000000                                                                             
D000089006057601827925102011194703นายทองเสาว์  นนท์ยะโส                             88098997            10213340                                10660073CCSH       0000001665500000                                                                             
T000090006057601827900000000000000000000000139660700000088                                                                                                                                                                                                      
