H0000010060576018279บริษัท ไทเอซ สิสซิ่ง จำกัด              16092011TALHO                                                                                                                                                                                       
D000002006057601827916092011083032นายสุวรรณ  ฟูศรีกุล                               88399490            92310074                                02190485CCSH       0000000829300000                                                                             
D000003006057601827916092011090052บุญสูง  ปัญสา                                     88169794            85213318                                01900549CCSH       0000001140000000                                                                             
D000004006057601827916092011092141นายมานัส มุงบัง 5ฒ-6170                           88521699            099246185                               01800267CCSH       0000000485000000                                                                             
D000005006057601827916092011093900นางสาวศิริกานดา ทานุรัตน์ ทศ3342                  8876-9893           2321-3364                               02260861CCSH       0000001799200000                                                                             
D000006006057601827916092011094347นาง ธีลาวัลย์ ศรีบุศยดี ทม 9405                   8887-9895           5421-9310                               09550887CCSH       0000001517700000                                                                             
D000007006057601827916092011095046สมควร ทิพศักดิ์                                   88689898            14216310                                10279615CCSH       0000001399000000                                                                             
D000008006057601827916092011102259นายจิรวัฒน์  ชื่นชม  ทม 4486                      88068599            64214318                                09760114CCSH       0000001113600000                                                                             
D000009006057601827916092011103325นางจุไรรัตน์ สุทธิเวช ทล4577                      8848-9097           7521-4347                               11520390CCLQ630362 00000010500000140065                                                                         
D000010006057601827916092011110529วาสนา  สันติสุขสถาพร                              88459396            47219313                                02600520CCSH       0000001250000000                                                                             
D000011006057601827916092011110754นายสุนทร  จันทร                                   88679791            61218355                                01900549CCSH       0000001729100000                                                                             
D000012006057601827916092011111230นางศศิธร เชาว์โน                                  88598598            84212346                                07930727CCSH       0000001504000000                                                                             
D000013006057601827916092011111728ชาติชาย  ชาติขยัน                                 88979688            05213351                                00280900CCSH       0000001884200000                                                                             
D000014006057601827916092011114343นางนงคราญ คำมอญ ทว 5279                           8877-9887           9221-5357                               04580699CCSH       0000002528300000                                                                             
D000015006057601827916092011114420นางนงคราญ คำมอญ ทว 7259                           8847-9993           9221-7355                               04580699CCSH       0000002528000000                                                                             
D000016006057601827916092011114454นางนงคราญ คำมอญ ทล 7975                           8848-9990           5921-7347                               04580699CCSH       0000002036500000                                                                             
D000017006057601827916092011120328นายวีระ ไพรณรงค์ มง 3264                          8838-9291           4231-3056                               05670406CCSH       0000001107800000                                                                             
D000018006057601827916092011121734นายมนตรี แก้วใจจง มฉ 4715                         8897-9894           5731-4071                               06982410CCSH       0000001884200000                                                                             
D000019006057601827916092011121858wanlapa  promrude                                 88779194            35211329                                01086070CCSH       0000001580000000                                                                             
D000020006057601827916092011122558นาย วินัย จันลา ทล6120                            88989892            01216342                                00540039CCSH       0000001700000000                                                                             
D000021006057601827916092011122714นาย  อนุสรณ์  วารีน้อย                            8885-9795           8421-3317           ทม3478              07990852CCSH       0000000995100000                                                                             
D000022006057601827916092011122826นาย  อนุสรณ์  วารีน้อย                            8836-9797           1921-3336           ทร3961              07990852CCSH       0000000838500000                                                                             
D000023006057601827916092011123231พิเชษฐ ล.                                         88534699            107011889                               02560119CCSH       0000000561200000                                                                             
D000024006057601827916092011124218นายถวิล  จำเริญ                                   8828-8499           2621-9349                               07990132CCSH       0000001476800000                                                                             
D000025006057601827916092011130743นายปรีชา  ชูชนะ มจ 8553                           8848-9094           3531-8065                               06980188CCSH       0000001723100000                                                                             
D000026006057601827916092011132131นายเฉลิมชัย  จันทร์งาม                            88989693            64215343                                01931056CCSH       0000001568000000                                                                             
D000027006057601827916092011132259นาง ตุ้งหลิง ตราลาภ ทล 4145                       8878-9988           5121-4344                               08001040CCSH       0000002010000000                                                                             
D000028006057601827916092011133437นายปริญญา ผลพานิช                                 88468399            84319064                                00221053CCSH       0000000927400000                                                                             
D000029006057601827916092011133555คุณ อุบลรัตน์                                     88178098            13210363                                02610090CCSH       0000001884200000                                                                             
D000030006057601827916092011135055นายบุญฐิน ถนอมเมฆ มฉ6121                          88278099            11316072                                11370605CCSH       0000001799200000                                                                             
D000031006057601827916092011141150นายพงศ์เพียร เพียรสวัสดิ์ มจ 3391                 8888-9681           1331-3069                               04580699CCSH       0000001347000000                                                                             
D000032006057601827916092011141153นาย นเรศ สุขประเสริฐ                              88539399            107083971           มจ1347              00600443CCSH       0000000940000000                                                                             
D000033006057601827916092011142154นางสาวบังอร บูระพิน                               8827-9788           7521-3350                               09550507CCSH       0000001182300000                                                                             
D000034006057601827916092011142258นายสุรพงษ์ วงศ์กำภู                               88859398            70217365                                01231109CCSH       0000001839700000                                                                             
D000035006057601827916092011142433นายสุรพงษ์ วงศ์กำภู                               8826-9290           5021-5367                               01231109CCSH       0000001856500000                                                                             
D000036006057601827916092011144357นางสาวจิราพร สายสุวรรณ ทว 4650                    8887-9896           0621-4355                               02610535CCSH       0000001608900000                                                                             
D000037006057601827916092011144523นายภูเมศ ภู่เกลี้ยง                               8805-9397           1121-5340           ทล5101              08561493CCSH       0000001814600000                                                                             
D000038006057601827916092011144659นายภูเมศ ภู่เกลี้ง                                8875-9896           3821-1324           ทย1843              08561493CCSH       0000001392800000                                                                             
D000039006057601827916092011151137นายนาวี มีสมวงษ์                                  8897-8889           3031-6071                               00281171CCSH       0000001617900000                                                                             
D000040006057601827916092011153527นายฐาปนัท บูชา ทล6252                             88989783            22216345                                05694077CCSH       0000001672900000                                                                             
D000041006057601827916092011154132นาย เอกสิทธิ์  ศรีตองอ่อน ทว597                   8858-8689           7521-0359                               02590911CCSH       0000000918700000                                                                             
D000042006057601827916092011154710นาง ฉวีวรรณ ลาภบริสุทธิ์                          8839-9791           5821-0340                               07620396CCSH       0000001665500000                                                                             
D000043006057601827916092011155423นาย ประจัญชัย อัฒจักร                             8867-9190           2221-9350                               07660497CCSH       0000001918500000                                                                             
D000044006057601827916092011161312นางนงนุช ซอวลี ทว607                              8858-8797           7621-0350                               08691092CCSH       0000001709600000                                                                             
D000045006057601827916092011170151นายสุวิทย์ กองทน ทร5878                           88578898            88215337                                08691092CCSH       0000001405700000                                                                             
D000046006057601827916092011173852นายสุรเชษฎ ตปนิยนันท์ ทล3756                      8858-9898           6721-3345                               11520390CCSH       0000001699800000                                                                             
D000047006057601827916092011174814นายชูชัย จันทร์สมุทร มช101                        88559996            11310080                                10360570CCSH       0000001798500000                                                                             
D000048006057601827916092011175721นางสาวนันทา  สมทรัพย์                             88679884            15216358                                11520515CCSH       0000001889200000                                                                             
D000049006057601827916092011175953นายลือชา  ศรีพาณิชพันธุ์  ทม7383                  8846-9494           3321-7318                               10631094CCSH       0000001400000000                                                                             
D000050006057601827916092011181354นายพิเชษฐ กลั่นประโคน ทว4504                      88079687            45214350                                10720554CCSH       0000001700000000                                                                             
D000051006057601827916092011191347นางศุทธนุช  ภัทรศรีสุวัฒน์                        88469095            83213339                                08553235CCSH       0000003090000000                                                                             
T000052006057601827900000000000000000000000077317500000050                                                                                                                                                                                                      
