H0000010060576018279บริษัท ไทเอซ สิสซิ่ง จำกัด              16112011TALHO                                                                                                                                                                                       
D000002006057601827916112011083429นายชัยกะมน  สุขกำเนิด                             8876-8997           3521-9343                               05760270CCSH       0000001847500000                                                                             
D000003006057601827916112011084920นาย วินัย จันลา ทล6120                            88989892            01216342                                01780060CCSH       0000001700000000                                                                             
D000004006057601827916112011090943นายสุรชัย โทศรี ทศ2773                            8846-9986           3721-2367           084-9304773         07090213CCSH       0000001915700000                                                                             
D000005006057601827916112011092254นายกิตติชัย ใจกว้าง                               8868-9580           5121-9343                               01140103CCSH       0000001838900000                                                                             
D000006006057601827916112011093339นายชาติชาย  ชาติขยัน                              88979688            05213351            084-912-9181        04600142CCSH       0000001884200000                                                                             
D000007006057601827916112011094140นายประจัญชัย อัฒจักร ทว 9202                      8867-9190           2221-9350                               00130241CCSH       0000001918500000                                                                             
D000008006057601827916112011100357นาย สุรพงษ์ วงศ์กำภู                              88859398            70217365                                01230882CCSH       0000001839700000                                                                             
D000009006057601827916112011102854นายเหมราช เนื่องพิมพ์ ทล2922                      8838-9983           2921-2342                               11245499CCSH       0000002050100000                                                                             
D000010006057601827916112011104404SUKIJ  DAOROEUNG                                  88459194            31218331                                04700196CCSH       0000000999000000                                                                             
D000011006057601827916112011105849นายอนุสรณ์ วารีน้อย                               88178598            09212328                                07990541CCLQ537004600000016496000040766                                                                         
D000012006057601827916112011110239ส.อ.เสกสรรค์ กลิ่นรอด ทว6617                      8847-9984           7621-6351                               01991041CCSH       0000001515300000                                                                             
D000013006057601827916112011113924นายณัฐพร ธนะเนตร                                  88500599            107155077                               01150016CCSH       0000001293000000                                                                             
D000014006057601827916112011114720สายันต์ ศรีวงค์ษา                                 88778397            76210368                                01880134CCSH       0000001000000000                                                                             
D000015006057601827916112011114839วัลลภา พรหมฤดี                                    88779194            35211329                                01080545CCSH       0000001580000000                                                                             
D000016006057601827916112011115555นายอดิศร ซอและ                                    8886-9292           6621-7312                               05695691CCSH       0000003280000000                                                                             
D000017006057601827916112011115821ส.อ. วรวุฒิ ศรีไพร                                88098297            81311078                                00350821CCSH       0000000034300000                                                                             
D000018006057601827916112011120324เอกสิทธิ์ ศรีตองอ่อน                              88588689            75210359                                00170047CCLQ550115000000019187000650498                                                                         
D000019006057601827916112011120435นายพรชัย เมตุลา  มจ 3440                          8858-8297           0431-3064                               04581882CCSH       0000000200000000                                                                             
D000020006057601827916112011122633นายประพนธ์ แสนบูรณพันธ์                           8857-9784           7521-6354                               00940557CCSH       0000001790300000                                                                             
D000021006057601827916112011122640นายธวัชชัย บุญอยู่                                88979882            26211329                                08560792CCSH       0000001485700000                                                                             
D000022006057601827916112011123458ประภักตร์ พรหมหอม                                 88488198            74313078            0843884019          04607752CCSH       0000000877600000                                                                             
D000023006057601827916112011123549นายสุริเยศ โรจน์สุธี มฉ8064                       8846-9392           4031-8076                               04580699CCSH       0000001200000000                                                                             
D000024006057601827916112011123550วิชัย ปุสารัมย์                                   88959196            29217368                                08000990CCSH       0000000030000000                                                                             
D000025006057601827916112011125104นางสมควร ทิพศักดิ์ ทม6401                         88689898            14216310                                11240437CCSH       0000001399000000                                                                             
D000026006057601827916112011130321นายธงชัย มั่งมีศรี                                88079983            25217354                                05970398CCSH       0000001626900000                                                                             
D000027006057601827916112011131954นางสาวอุไร ชูศักดิ์ ทร9232                        8849-9094           2221-9333                               10150884CCSH       0000000094300000                                                                             
D000028006057601827916112011132208นายวรวิทย์  ทิพนัด                                88269993            52214326                                03970257CCSH       0000000627200000                                                                             
D000029006057601827916112011132951บัวแก้ว พรมทอง                                    88518199            106199312                               00800173CCSH       0000001847300000                                                                             
D000030006057601827916112011133737นายสุรัตน์ สังข์เงิน                              88899781            73211346                                00070170CCSH       0000000903700000                                                                             
D000031006057601827916112011133822ปุณยวีร์  พงษ์วิรัตน์ มช2044                      88518889            104122560                               01741645CCSH       0000001874100000                                                                             
D000032006057601827916112011135213นาง ณัฐพร  ผลเกลี้ยง ทม787                        8847-9894           7721-0318                               10860716CCSH       0000001067400000                                                                             
D000033006057601827916112011142554นาย สมบูรณ์  ดงดี  มจ 2328                        88530399            107089667                               10250225CCSH       0000000934300000                                                                             
D000034006057601827916112011143601นางสาววิไลวรรณ เครือบุตร                          8897-9786           1121-1343                               10720567CCSH       0000001550700000                                                                             
D000035006057601827916112011145439นายพงษ์ศักดิ์ บริบูรณ์ ทล 7838                    8886-9291           8821-7343                               04580699CCSH       0000001970000000                                                                             
D000036006057601827916112011145533นายพงษ์ศักดิ์ บริบูรณ์ ทล 6178                    88679492            81216347                                04580699CCSH       0000002070000000                                                                             
D000037006057601827916112011151304นายนาวี มีสมวงษ์                                  8897-8889           3031-6071                               00282352CCSH       0000001617900000                                                                             
D000038006057601827916112011152901นาย พิชิตร์ ภูฆัง                                 88568798            74215321                                01471089CCSH       0000000884600000                                                                             
D000039006057601827916112011161842นางสาวรัชนีวรรณ  บุตรานนท์                        88517099            106166498                               07750920CCSH       0000001186000000                                                                             
D000040006057601827916112011162351เสาร์คำ  แก้ววิมล                                 88079994            66314078            มฉ4686              08690266CCSH       0000001884200000                                                                             
D000041006057601827916112011165459นายสุทธิรักษ์ พวงพิลา                             88479887            02314076                                11371409CCSH       0000002240200000                                                                             
D000042006057601827916112011175342นายมณฑล วรรณขาม ทร5988                            8895-9297           8921-5338                               10320214CCSH       0000000300000000                                                                             
T000043006057601827900000000000000000000000057925900000041                                                                                                                                                                                                      
