H0000010060576018279บริษัท ไทเอซ สิสซิ่ง จำกัด              02032012TALHO                                                                                                                                                                                       
D000002006057601827902032012083139นาย เพชร สูตรอุดม ทย4908                          88659297            89214320                                04730614CCSH       0000001287300000                                                                             
D000003006057601827902032012083229นายอนุชิต ปูพบุญ                                  88589090            51219282            ทพ 9125             01902940CCSH       0000001517700000                                                                             
D000004006057601827902032012084704นพรัตน์                                           88543889            107104167                               06991739CCSH       0000001000000000                                                                             
D000005006057601827902032012090137นายอำนาจ เจียมเชื่อม ทศ6549                       88568497            95216364                                02530836CCSH       0000001856500000                                                                             
D000006006057601827902032012091332นายสาคร  นามใจยา ทร 5061                          88779397            10215336                                01100063CCSH       0000001580000000                                                                             
D000007006057601827902032012093049นายสุกิจ  ดาวเรือง  ทร 8113                       88459194            31218331                                08560585CCSH       0000000105000000                                                                             
D000008006057601827902032012093551หวานใจ                                            88669993            51215339            ทร5195              10903618CCSH       0000000860000000                                                                             
D000009006057601827902032012100529น.ส.นฤมล ราชอาษา                                  8827-8599           6621-3334                               01720680CCSH       0000001100000000                                                                             
D000010006057601827902032012103447นางภัทรภร บุณยพกกณะ                               88579497            52214359            ทว 4295             01300018CCSH       0000002456000000                                                                             
D000011006057601827902032012104233จันทา  ชัยราช                                     88069597            67211363                                02500872CCSH       0000001918500000                                                                             
D000012006057601827902032012104402นายทรงศักดิ์ เผือกแห้ว ทศ 3951                    88968697            19213365                                04603236CCSH       0000001914300000                                                                             
D000013006057601827902032012104814นางสาวชื่นใจ ศิริคุณ ทร6581                       8855-9997           1521-6338                               08691092CCSH       0000001193500000                                                                             
D000014006057601827902032012105705วิโรจน์ อ่อนดี  ทม 6077                           8818-7397           7021-6317                               10130207CCSH       0000000292800000                                                                             
D000015006057601827902032012105939นาย ธวัชชัย กลิ่นหนู                              8837-9393           6521-5322           ทย 5526             03990096CCSH       0000000310000000                                                                             
D000016006057601827902032012111337นายธวัชชัย เจริญบัณฑิตชัย                         88679796            54314075                                01980916CCSH       0000002507100000                                                                             
D000017006057601827902032012111433นายโกศล อุทัย  ทว 5267                            88588898            106137888                               04581882CCSH       0000001440000000                                                                             
D000018006057601827902032012111514นายคงศักดิ์ รุ่งรัตน์                             88501699            104124915                               10810277CCSH       0000001867300000                                                                             
D000019006057601827902032012112930ถนอมวงศ์  บุญลา                                   88575798            107155994                               04920231CCSH       0000001530000000                                                                             
D000020006057601827902032012115030ไชยยา กลมเกลียว                                   8817-9683           9521-7350                               00170047CCSH       0000001384200000                                                                             
D000021006057601827902032012115611นายปรีชา พราวศรี                                  88288798            99210354                                08691092CCSH       0000001930000000                                                                             
D000022006057601827902032012115853นาย ธานี แช่มวัฒนา มฉ 1852                        88589694            28311075                                01481887CCSH       0000001617900000                                                                             
D000023006057601827902032012115936นางทีตา พันลำจันทร์                               88533599            107137960                               03960529CCSH       0000001310800000                                                                             
D000024006057601827902032012115955นายชนะชาติ ทับทิม                                 88978899            80312065                                05761504CCSH       0000001076900000                                                                             
D000025006057601827902032012120951ชายชาญ งามชื่น                                    88879596            18214353                                10206580CCSH       0000001900800000                                                                             
D000026006057601827902032012121106ชายชาญ งามชื่น                                    88079696            26319052                                10206580CCSH       0000000869600000                                                                             
D000027006057601827902032012121146นายอภิรัตน์ ภู่ศิริ ทย2404                        88179295            44212320                                01761687CCSH       0000001698900000                                                                             
D000028006057601827902032012121612นายเหรียญ ศรีกระหวัน ทร3780                       0198187995798       107132295                               02250511CCSH       0000001622900000                                                                             
D000029006057601827902032012121824นายชนดล  นาทาม  ทย3486                            8857-9486           6421-3328                               04700012CCSH       0000001156800000                                                                             
D000030006057601827902032012122444นายปริญญา คงคาสุริยฉาย                            8817-9090           9908-9403                               07690409CCSH       0000001130000000                                                                             
D000031006057601827902032012122829นายวิชัย  ปุสารัมย์                               88959196            29217368                                04830966CCSH       0000000925100000                                                                             
D000032006057601827902032012123117ประสาน พินิจ                                      88572498            106205453                               01890216CCSH       0000001665800000                                                                             
D000033006057601827902032012123256นายสมนึก  สืบพิลัย                                88079392            48217355            ทว 7854             02260178CCSH       0000002116700000                                                                             
D000034006057601827902032012123410นายสมนึก  สืบพิลัย                                88979393            10217356            ทว 7061             02260178CCSH       0000002116700000                                                                             
D000035006057601827902032012123548พลฯศุภมงคล  สร้อยสายอุล                           88779888            16213321                                01930068CCSH       0000000034300000                                                                             
D000036006057601827902032012123804นาย กฤษณะ ชลภาพ ทย 4478                           88659595            84214327                                00600151CCSH       0000000939800000                                                                             
D000037006057601827902032012124013นงชนา  วรปาณิ                                     8838-9695           3121-5342           0805513867          04600142CCSH       0000001650000000                                                                             
D000038006057601827902032012125710นาย ชนินทร์ อ่อนใจเอื้อ                           88889682            37312071                                00660527CCSH       0000001750800000                                                                             
D000039006057601827902032012130044ส.อ.ทิมากร  จันทร์หง่อม ทว4808                    8847-9696           8821-4350                               11670205CCSH       0000000767700000                                                                             
D000040006057601827902032012130126นายพิชิด พรหมมาวัน                                88059296            93310080                                00340279CCSH       0000001846600000                                                                             
D000041006057601827902032012130306นาง พรเพ็ญ แซ่ก๊วย                                88289190            04218344                                00486814CCSH       0000000030000000                                                                             
D000042006057601827902032012130324บุญมา  ล้ำทวีภักดี                                88578899            10212327                                05700127CCSH       0000001050000000                                                                             
D000043006057601827902032012130557นายสุพงศ์ เพชรศักดา                               8890-9796           6521-8321                               01880134CCSH       0000000408500000                                                                             
D000044006057601827902032012130926นางสาว ณิชนันทน์ ใจอ่น ทษ 1546                    88591798            104125690                               04881100CCSH       0000002126300000                                                                             
D000045006057601827902032012133400นายมัน  พรมนิมิตร  มฉ3138                         8848-8999           8131-3073                               04585612CCSH       0000000740000000                                                                             
D000046006057601827902032012133453นางประทวน เขียวแล                                 88869692            20214361                                10370854CCSH       0000001930700000                                                                             
D000047006057601827902032012133810นายปรีชา สุขสมร มฉ4259                            88579896            92314075                                00000122CCSH       0000002665300000                                                                             
D000048006057601827902032012134533อำพร พันธุ์ไพโรจน์ ทษ612                          88516399            104122440                               05750619CCSH       0000001655500000                                                                             
D000049006057601827902032012134708นางสลิล มะลิต้น  ทล 24                            88189995            40210342                                04581882CCSH       0000001676300000                                                                             
D000050006057601827902032012134947นาย  ธนกฤต    เกริกชัยฤทธิ์                       88543299            104115863           ทศ9394              00611358CCSH       0000001957900000                                                                             
D000051006057601827902032012141750สมภพ วชิราประชานุกูล                              88189696            88217331                                11521521CCSH       0000001350000000                                                                             
D000052006057601827902032012142037นายบุญเลิศ   ทรัพย์เจริยกุล  ทษ2210               0198187997198       106203250                               02590911CCSH       0000002101900000                                                                             
D000053006057601827902032012142153นายธนะสิทธิ์ สัจจสิงห์                            88888198            41212358                                01260388CCSH       0000001918500000                                                                             
D000054006057601827902032012142348นายณรงค์ ประทุมวัน                                88979686            06202233                                07341146CCSH       0000000700000000                                                                             
D000055006057601827902032012142357นายสมเกียรติ  สีธงชัยรุ่งโรจน์ ทย 1584            88669987            45211328                                04585612CCSH       0000001374500000                                                                             
D000056006057601827902032012142907สัญญพงศ์ เจียรนัยกูร                              88540499            106195012                               10271600CCSH       0000002070300000                                                                             
D000057006057601827902032012143629นายพงศ์รพี ปรีชาไพศาลจิต                          8826-8598           1821-5366                               09550205CCSH       0000001856500000                                                                             
D000058006057601827902032012143714นายองอาจ มหิทธิโรจน์ ทล6463                       8858-9692           3421-6346                               02150082CCSH       0000001004800000                                                                             
D000059006057601827902032012143903นายองอาจ มหิทธิโรจน์ ทล 6441                      8868-9692           1421-6344                               02150082CCSH       0000001004800000                                                                             
D000060006057601827902032012144909นายยุทธชัย พลานันท์                               88779490            20219353                                07540593CCSH       0000002043800000                                                                             
D000061006057601827902032012150726นายพิกิจ ภูมิภาค ทศ 2834                          88269895            48212363                                02530654CCSH       0000002082100000                                                                             
D000062006057601827902032012153240สวรรค์ บุญชัย                                     88506999            107147939                               01230232CCSH       0000000615300000                                                                             
D000063006057601827902032012153827นายชาญณรงค์ ธารีพฤกษ์                             88088099            70210358                                08670062CCSH       0000001700000000                                                                             
D000064006057601827902032012154155นาย สรรเสริญ  สีธงชัยรุ่งโรจน์                    88535299            107108516                               07930498CCSH       0000001132000000                                                                             
D000065006057601827902032012154253นาย สรรเสริญ  สีธงชัยรุ่งโรจน์                    88268698            28218327                                07930498CCSH       0000001091500000                                                                             
D000066006057601827902032012154619นายพิพัฒน์ ธัญญพืช                                88678998            73316063                                05695691CCSH       0000001091600000                                                                             
D000067006057601827902032012154619สมพร  กาศักดิ์ 084-1324719                        88479896            07214356                                00336605CCSH       0000000935000000                                                                             
D000068006057601827902032012154850นางรุ่งอรุณ ภมรจันทร์ ญว 7306                     88514889            106202867                               02530654CCSH       0000001450000000                                                                             
D000069006057601827902032012160954นายวชิระ บุญศักดิ์ศรี มฉ2750                      4888-9891           0731-2075                               10360725CCSH       0000001852200000                                                                             
D000070006057601827902032012161249นายสมชาย  หนองเส                                  8846-9991           5321-6353                               04830966CCSH       0000000949200000                                                                             
D000071006057601827902032012162212นางดารา   ผลจันทร์  ทล  1270                      88268798            02211347                                03970523CCSH       0000001670000000                                                                             
D000072006057601827902032012165221น.ส.ฐิติยา มีนันทร                                88788397            04212351                                07620489CCSH       0000001884200000                                                                             
D000073006057601827902032012170006นายไพรสน คำอ่อน ทศ                                88159496            39217369                                09740261CCSH       0000001878600000                                                                             
D000074006057601827902032012170110นายไพรสน คำอ่อน ทศ 7893                           88259496            38217369                                09740261CCSH       0000001878600000                                                                             
D000075006057601827902032012170215นายไพรสน คำอ่อน ทศ 6693                           88359898            36216369                                09740261CCSH       0000001910000000                                                                             
D000076006057601827902032012170309นายไพรสน คำอ่อน ทศ 6393                           88768697            33216369                                09740261CCSH       0000001904000000                                                                             
D000077006057601827902032012170409นายไพรสน คำอ่อน ทศ 6093                           88368398            30216369                                09740261CCSH       0000001911800000                                                                             
D000078006057601827902032012175429นายปางทอง แซ่ตั้ง มฉ 3803                         8886-9986           3831-3070                               10361034CCSH       0000001010600000                                                                             
D000079006057601827902032012175554นายปางทอง แซ่ตั้ง ทศ 2657                         88169986            76212365                                10361034CCSH       0000001884200000                                                                             
T000080006057601827900000000000000000000000112744800000078                                                                                                                                                                                                      
