H0000010060576018279บริษัท ไทเอซ สิสซิ่ง จำกัด              01112011TALHO                                                                                                                                                                                       
D000002006057601827901112011090438ประเสริฐ                                          8835-9894           6821-5338                               00530428CCSH       0000001573700000                                                                             
D000003006057601827901112011091301นางสาว ทองไสย สิงห์น้อย ทศ 5736                   88068898            67215363                                00251980CCSH       0000001129000000                                                                             
D000004006057601827901112011092027นายยงยุทธ์ สึกชัย มฉ 3221                         8868-8299           1231-3072                               00770525CCSH       0000001886700000                                                                             
D000005006057601827901112011092937นาย เฉลิม สมบัติมี                                8826-9193           0621-9314                               00821044CCSH       0000000829300000                                                                             
D000006006057601827901112011095659นาย  สุวรรณดี  หนูนิ่ม                            88598399            60212346            ทล2066              00611358CCSH       0000000529100000                                                                             
D000007006057601827901112011095705ธีระศักดิ สุประภากร ทล7026                        88489882            60217342                                00980134CCSH       0000001700000000                                                                             
D000008006057601827901112011100930นายเมตตา นวนน้ำจิตต์                              8815-9795           8431-0089                               05780583CCSH       0000001820400000                                                                             
D000009006057601827901112011101402น.ส.ณัฐธิชา ทาระเวท  ทว6174                       88567697            41216357                                00330398CCSH       0000000098500000                                                                             
D000010006057601827901112011101452ด.ต.ภัคพงศ์ พลมีศักดิ์ ทศ 2419                    88369496            94212361                                01300510CCSH       0000001650000000                                                                             
D000011006057601827901112011101617น.ส. ณัฐธิชา ทาระเวท ทศ1677                       8846-9597           7621-1367                               00330398CCSH       0000001861800000                                                                             
D000012006057601827901112011101837นางสาว ศิริพร ปดิฐพร ทล2291                       8829-8399           1221-2349                               00790053CCSH       0000001665500000                                                                             
D000013006057601827901112011102647พิชิด พรหมมาวัน                                   8805-9296           9331-0080                               00500245CCSH       0000001846600000                                                                             
D000014006057601827901112011104052นัยนา งามทอง                                      8858-9597           8821-8327           ทย 8878             07830119CCSH       0000002165600000                                                                             
D000015006057601827901112011110108นายธำรงค์ยศ  มะยมหิน  มจ 1418                     8885-9997           8431-1061                               08510045CCSH       0000000597200000                                                                             
D000016006057601827901112011110706นางสาววรกมล บุญมา                                 88507499            106199558                               02150209CCSH       0000002441500000                                                                             
D000017006057601827901112011110916นางสาววรกมล บุญมา                                 88259797            12217363                                02150209CCSH       0000002371700000                                                                             
D000018006057601827901112011111822กิตติพงษ์  ปานกรด                                 88533199            107148828                               05732124CCSH       0000001047000000                                                                             
D000019006057601827901112011112121วิมล พูลแสวง                                      8857-9695           8721-5356                               06870259CCSH       0000001549600000                                                                             
D000020006057601827901112011112433นายปริญญา ประจญยุทธ                               88536099            107107041                               10320156CCSH       0000001000000000                                                                             
D000021006057601827901112011114011นาย เพชร  เกาะแก้ว                                88523399            107037867                               00910199CCSH       0000001043300000                                                                             
D000022006057601827901112011114334นาย เพชร  เกาะแก้ว                                88359797            45210349                                00910199CCSH       0000001916300000                                                                             
D000023006057601827901112011115947นายนปดล สุขกำเนิด                                 8886-8799           3021-3325           ทย. 3053            00820884CCSH       0000001481300000                                                                             
D000024006057601827901112011120157สุพล ทย4956                                       88789397            69214325                                07960038CCSH       0000001650000000                                                                             
D000025006057601827901112011121044เกียรติศักดิ์ บุญเอก                              8886-9996           5321-2322                               11330131CCSH       0000001253200000                                                                             
D000026006057601827901112011122723นาย ชายชาญ งามชื่น ทว 4831                        8887-9596           1821-4353                               00350503CCSH       0000001866500000                                                                             
D000027006057601827901112011122931นาย ชายชาญ งามชื่น มง 9622                        8807-9696           2631-9052                               00350503CCSH       0000000836800000                                                                             
D000028006057601827901112011125026นายเอกพล ลมจิตร                                   88988899            11310069                                02602931CCSH       0000001212700000                                                                             
D000029006057601827901112011125116นาย ไพบูลย์  วิทิตกนกปรีดา  ทพ 9736               8876-8198           6721-9283                               04650044CCSH       0000001052200000                                                                             
D000030006057601827901112011125213นางอารยา ลมจิตร                                   88968897            75319060                                02602931CCSH       0000001646500000                                                                             
D000031006057601827901112011125351นาย สมชาย ณรงค์ศักดิ์                             88978399            22212348                                00170444CCSH       0000000809000000                                                                             
D000032006057601827901112011130009นายสมศักดิ์ อาบสุวรรณ์                            8831-8587           3238-6192                               01231109CCSH       0000000782000000                                                                             
D000033006057601827901112011130518นางสาวรุจี นุชภู่                                 88768699            99219337                                02610551CCSH       0000001555600000                                                                             
D000034006057601827901112011131833นางสลิม มะลิต้น                                   88189995            40210342                                02610077CCSH       0000001645000000                                                                             
D000035006057601827901112011132541นายอัศวิน อิ่มพันธ์                               88516799            106199481                               02610862CCSH       0000002011700000                                                                             
D000036006057601827901112011132837นาย สุรศักดิ์ อินทศร  ทล 2720                     8899-8498           0721-2342                               04581882CCSH       0000001900600000                                                                             
D000037006057601827901112011132917นายสมนึก สืบพิลัย    ทว 7854                      8807-9392           4821-7355                               02260509CCSH       0000002116700000                                                                             
D000038006057601827901112011132937นาย สุรศักดิ์ อินทศร  ทล 2720                     8899-8498           0721-2342                               04581882CCSH       0000000201200000                                                                             
D000039006057601827901112011133003นายสมนึก สืบพิลัย   ทว 7061                       8897-9393           1021-7356                               02260509CCSH       0000002116700000                                                                             
D000040006057601827901112011134251นายสุริยัน ขำคำ                                   8897-9791           6521-8338                               01237516CCSH       0000000235500000                                                                             
D000041006057601827901112011135100นางสาวประนอม ศรีสาผา                              8819-9595           13218335                                09620049CCSH       0000000415500000                                                                             
D000042006057601827901112011141240นายทน กองเกตุใหญ่ มฉ 6034                         88878999            40316073                                02530554CCSH       0000000315500000                                                                             
D000043006057601827901112011141402นาย รัฐพงศ์ สุวรรณสวัสดิ์                         8899-8699           2021-2346                               01230882CCSH       0000001665500000                                                                             
D000044006057601827901112011142849นายธีรวัฒน์  ไชยสงค์  มช 877                      88540799            104115843                               04690052CCSH       0000001846600000                                                                             
D000045006057601827901112011145612นายพีระเดช ศักดิ์เดชะมณี ทล 3457                  88787497            74213345                                02530554CCSH       0000001665500000                                                                             
D000046006057601827901112011150409นายพิสิษฐ์ สกุลวา                                 88869893            91316072                                01870904CCSH       0000002062000000                                                                             
D000047006057601827901112011152005ด.ต.เสิม หยุ่นแก้ว ทล 2096                        8809-8599           6021-2349                               01970208CCSH       0000001665500000                                                                             
D000048006057601827901112011153625นายรังสันติ เวียงนนท์  ทล 5124                    88889795            41215342                                00860473CCSH       0000000030000000                                                                             
D000049006057601827901112011173100นายจิรศักดิ์ ศรีบุญจิตต์                          88369298            82210341                                08003818CCSH       0000001498100000                                                                             
D000050006057601827901112011181657นายภานุพงค์ จรมณี                                 8878-9394           2921-8316                               10330446CCSH       0000001740400000                                                                             
D000051006057601827901112011183631ประจบ โตพิทักษ์                                   88078398            33217353                                08789450CCSH       0000001979600000                                                                             
T000052006057601827900000000000000000000000069980200000050                                                                                                                                                                                                      
