H0000010060576018279บริษัท ไทเอซ สิสซิ่ง จำกัด              24082011TALHO                                                                                                                                                                                       
D000002006057601827924082011084033นางสาว ทองไสย สิงห์น้อย                           88068898            67215363                                00251980CCSH       0000001800000000                                                                             
D000003006057601827924082011091348น.ส.วาสนา สุขเกษม  ทม1448                         8885-9895           8421-1314                               06920151CCSH       0000000805800000                                                                             
D000004006057601827924082011092322นายกมล  แต้มสว่าง                                 8818-9590           8521-8348                               00911077CCSH       0000001800000000                                                                             
D000005006057601827924082011094347นางสาววิชุดา พลายแก้ว                             8897-7297           8421-3344                               01270128CCSH       0000001665500000                                                                             
D000006006057601827924082011094520นางสาววิชุดา พลายแก้ว                             8878-9496           1821-7312                               01270128CCSH       0000001583600000                                                                             
D000007006057601827924082011094816นายสัญญา  สาแก้ว                                  88167897            40213335                                03970257CCSH       0000001212700000                                                                             
D000008006057601827924082011095328นาย ทวี สาระเเสน                                  8819-8699           5921-1346                               05940511CCSH       0000001589600000                                                                             
D000009006057601827924082011100912นางปริชาติ เถาว์พุดซา                             88488898            7721-0352                               00610562CCSH       0000001700000000                                                                             
D000010006057601827924082011101653สายันห์ เอี่ยมลออ ทร5371                          8856-9290           1321-5337                               11240437CCSH       0000001119500000                                                                             
D000011006057601827924082011102514นายธนะสิทธิ์  สัจจสิงห์                           8848-9797           6221-4343                               01500642CCSH       0000001623900000                                                                             
D000012006057601827924082011105154นายทัตพล  ฤกษ์อุโฆษ  ทล 7295                      8887-9897           5221-7349                               11310028CCSH       0000000980300000                                                                             
D000013006057601827924082011105348นางสาวนันท์ญา จันทร์มารถ                          88378099            57215311            ทม.5715             10525505CCSH       0000001280000000                                                                             
D000014006057601827924082011110209นายอรุณ เกษสกุล ทล1260                            88999091            02211346                                04950176CCSH       0000000733300000                                                                             
D000015006057601827924082011110555นางหนูกร คงศิริ ทศ 2130                           88769896            01212363                                10071091CCSH       0000001884200000                                                                             
D000016006057601827924082011111724นายชิ้น  ทองไพรวรรณ ทว7605                        8857-9692           5621-7350                               00820726CCSH       0000001848200000                                                                             
D000017006057601827924082011112914นายไพฑูรย์ วันเชียง                               8878-9997           8121-4342                               08000990CCSH       0000001630000000                                                                             
D000018006057601827924082011115420นายโชติ ค้าขาย ทล 223                             8879-9792           3221-0342                               05670406CCSH       0000001453900000                                                                             
D000019006057601827924082011120335พจอ.หญิง บุญทอง จันทร์สุวรรณ ทศ2823               8806-9295           3821-2362                               01590526CCSH       0000001884200000                                                                             
D000020006057601827924082011120346นายมานพ กรณ์งูเหลือม                              88059597            60214338                                01449820CCSH       0000000404300000                                                                             
D000021006057601827924082011120958พรรณ์สกุล พันธ์พรหม                               8828-8998           6621-0355                               00980224CCSH       0000001873200000                                                                             
D000022006057601827924082011121824นายเชาวฤทธิ์  หอมพันนา ทว 6767                    8857-9893           7721-6356                               11521628CCSH       0000003820000000                                                                             
D000023006057601827924082011123109อดิศร ดอนสว่าง                                    8888-9597           6021-1336                               02191456CCSH       0000001484700000                                                                             
D000024006057601827924082011123634จิตธง  เทียนหิรัญชัยกุล                           8828-9998           1621-3341                               00397779CCSH       0000001665500000                                                                             
D000025006057601827924082011130005นายวิระ สวนมนัส ทย3246                            88678897            62213324                                02530836CCSH       0000001212200000                                                                             
D000026006057601827924082011130517นางสาว นัฐพร ประวงษ์ ทม3599                       8896-9193           9521-3319                               01800267CCSH       0000000030000000                                                                             
D000027006057601827924082011131134นายสุนัย  พรมไพโรจน์  ทล3752                      88759894            27213345                                09760114CCSH       0000001374400000                                                                             
D000028006057601827924082011131644นายประสิทธิ์ จันทร์พิพัฒน์ผล                      88478599            46215326                                00957160CCSH       0000001000000000                                                                             
D000029006057601827924082011133956เศกสรรค์  วิเศษสิงห์ ทพ 3087                      88329197            70213288                                01570810CCSH       0000000571200000                                                                             
D000030006057601827924082011134827นายสัญญา กังวานไกล ทศ43                           8855-7997           3021-0364                               00540018CCLQ411041 00000018842000140120                                                                         
D000031006057601827924082011134852นายแพน  ชนะพาล                                    8876-9695           4331-7071                               05760270CCSH       0000001705000000                                                                             
D000032006057601827924082011135110นายอรัญ  ขาวเนตร ทล 2486                          88398798            64212348                                09760114CCSH       0000001739800000                                                                             
D000033006057601827924082011135729นางยุพดี เที่ยงสาย ทย1776                         88179598            67211327                                10640051CCSH       0000000946100000                                                                             
D000034006057601827924082011135850นายสาคร นามใจยา                                   8867-9397           6321-1342                               10136228CCSH       0000000642000000                                                                             
D000035006057601827924082011140753นาง ยุวดี โกศลสมพลกิจ ทม6557                      88089391            75216315                                00410695CCSH       0000000287000000                                                                             
D000036006057601827924082011141854นิสิต หล่อดี ทย 3722                              8887-9592           2721-3322                               08008001CCSH       0000001451700000                                                                             
D000037006057601827924082011142521นายประดิษฐ์ ไลยการ                                8875-9898           07216361                                00281171CCSH       0000001200300000                                                                             
D000038006057601827924082011144009นาย สงบ  ระย้า  มง 1372                           8806-9598           2331-1057                               01951095CCSH       0000000096000000                                                                             
D000039006057601827924082011144516นาย อริย์ธัช วิสาติ                               8867-9990           5421-8356                               01884323CCSH       0000001391200000                                                                             
D000040006057601827924082011144831นาย สัมพันธ์  ปรารมย์                             8897-9296           4521-5355                               01780229CCSH       0000002606000000                                                                             
D000041006057601827924082011144924นายสุรศักดิ์ ถนอมสุข                              88468898            38318055                                09760107CCSH       0000000692700000                                                                             
D000042006057601827924082011145251นางศิริ  เกียรติเฉลิม                             88589697            96219324                                10800227CCSH       0000001000000000                                                                             
D000043006057601827924082011150212นาง พลอยงาม ทุ่งไธสงค์                            88259896            52218322                                00860082CCSH       0000000411000000                                                                             
D000044006057601827924082011152123นายอมร จันทร์ไว ทล2390                            8899-8398           0321-2349                               06230872CCSH       0000000304800000                                                                             
D000045006057601827924082011153236น.ส.สุรีรัตน์  เอี่ยมอำพร                         8837-9796           0021-5353                               02561499CCSH       0000001329600000                                                                             
D000046006057601827924082011155636นายพืทยา  ผิวผ่อง  มฉ3186                         8838-8499           6131-3078                               00330234CCSH       0000001700000000                                                                             
D000047006057601827924082011155738นายคมเดช จันทร์ไสว                                8806-8897           0221-6363                               07650724CCSH       0000001626600000                                                                             
D000048006057601827924082011160114นางสาว นวลจันทร์  แก้วทอง ทว452                   8836-9492           2421-0355                               04880062CCSH       0000002050300000                                                                             
D000049006057601827924082011161627นายกิตติศักดิ์ นาสวน ทล802                        8819-9791           2821-0340                               05671599CCSH       0000001267800000                                                                             
D000050006057601827924082011165644นาง จินตรัตน์ อุทัยพยัคฆ์ ทว5650                  8807-9995           0621-5355                               09740391CCSH       0000001884200000                                                                             
D000051006057601827924082011171030นายอั๋น  แป้งใส ทย 5825                           8877-9688           5821-5322                               04670595CCSH       0000001447100000                                                                             
D000052006057601827924082011174050นางสาว น้ำฝน จันทร์หอม ทล 5655                    8888-9893           5621-5345                               00860083CCSH       0000001212800000                                                                             
D000053006057601827924082011174145นางสมร  ราวินิช  ทล705                            8848-8899           5721-0340                               08550648CCSH       0000000780000000                                                                             
D000054006057601827924082011174253นาง สมร  ราวินิช ทล3453                           8827-9993           3421-3345                               08550648CCSH       0000000960000000                                                                             
D000055006057601827924082011174330นางสาววัสมล โชติสิงห์ ทว.7623                     88267497            36217352                                04810155CCSH       0000001799200000                                                                             
D000056006057601827924082011180852นายบัญญัติ แก่นจันทร์                             8825-9594           0531-0075           มฉ 550              09620049CCSH       0000001382100000                                                                             
D000057006057601827924082011181014นายบัญชา พิษวงษ์ ทว4201                           8847-9697           1221-4350                               07540911CCSH       0000001750000000                                                                             
D000058006057601827924082011184441นายสมจิตร เกษมพงษ์                                8838-8598           7821-0352                               11141141CCSH       0000001700000000                                                                             
D000059006057601827924082011185640นาง พัชรี  ศรีหาประทุม ทม8664                     8876-9491           4621-8316                               08401303CCSH       0000000808500000                                                                             
T000060006057601827900000000000000000000000078086200000058                                                                                                                                                                                                      
