H0000010060576018279บริษัท ไทเอซ สิสซิ่ง จำกัด              20112011TALHO                                                                                                                                                                                       
D000002006057601827920112011105810นาย พิเชษฐ  แก้วมา  ทว  2775                      8817-9898           5721-2357                               08400047CCSH       0000001788300000                                                                             
D000003006057601827920112011110226นายธนาเศรษฐ์ ทวีชัยธนธรณ์ ทร5294                  88669893            42215339                                11370605CCSH       0000001610000000                                                                             
D000004006057601827920112011111516นางสมร มะหะหมัด                                   88279294            83211312                                10720554CCSH       0000001160000000                                                                             
D000005006057601827920112011113614พลานุภาพ  อุ่นฤกษ์ ทล5005                         88517399            107161333                               04830668CCSH       0000001245000000                                                                             
D000006006057601827920112011115339นายนิทัศน์ สิริพุทธวณิชย์                         8886-9591           2531-7051                               07758583CCSH       0000001780000000                                                                             
D000007006057601827920112011123911นายสมบัติ พลเยี่ยม                                88593598            107158997           ทล3885              04930415CCSH       0000000862000000                                                                             
D000008006057601827920112011141307นางนงนุช  ซอวลี  ทว 607                           88588797            76210350            084-6466119         08690033CCSH       0000001749000000                                                                             
D000009006057601827920112011142655นายคมสัน ศรีวะรมย์                                88889492            93216345                                07620496CCSH       0000001780500000                                                                             
D000010006057601827920112011143020ธีระเนตร ศุภศฤงคาร                                8818-9298           9921-3345                               05713677CCSH       0000001699800000                                                                             
D000011006057601827920112011151451นาง อุบลรัตน์ บัวเพชร                             8896-9192           7421-1325                               07620396CCSH       0000001769000000                                                                             
D000012006057601827920112011151627นาง อุบลรัตน์ บัวเพชร ทศ4094                      8886-9192           4021-4369                               07620396CCSH       0000002346000000                                                                             
D000013006057601827920112011170927นายปริญญา คงคาสุริยฉาย ชฬ9939                     88179090            99089403                                10720930CCSH       0000001531000000                                                                             
D000014006057601827920112011174430นาย พิเชษฐ์  ศรีหาประทุม  ทศ 1499                 8826-9997           9421-1369                               08400047CCSH       0000002169600000                                                                             
T000015006057601827900000000000000000000000021490200000013                                                                                                                                                                                                      
