H0000010060576018279บริษัท ไทเอซ สิสซิ่ง จำกัด              03102011TALHO                                                                                                                                                                                       
D000002006057601827903102011085433นายธีระศักดิ์ สุประภากร                           8838-9880           6721-8340                               00910463CCSH       0000001700000000                                                                             
D000003006057601827903102011085533นายธีระศักดิ์ สุประภากร                           8848-9882           6021-7342                               00910463CCSH       0000001700000000                                                                             
D000004006057601827903102011090146นายกิตติศักดิ์  อารัณย์รักษ์ ทย9993               88069198            39219329                                00250474CCSH       0000001382100000                                                                             
D000005006057601827903102011090457นาย เฉลิม สมบัติมี                                8826-9193           0621-9314                               00821044CCSH       0000000829300000                                                                             
D000006006057601827903102011092709นายวรฉัตร ทศศะ มฉ193                              8859-9590           3131-0079                               00190024CCSH       0000001447900000                                                                             
D000007006057601827903102011092724นายประสิทธิ์ ผ่านจังหาร                           88998497            22213340                                04731174CCSH       0000001600000000                                                                             
D000008006057601827903102011093411นาง มาลาศรี ทองชา                                 8876-9293           7921-5338                               01230882CCSH       0000001681100000                                                                             
D000009006057601827903102011093958อำนาจ  เจียมเชื่อม  ทศ 6549                       8856-8497           9521-6364                               02530516CCSH       0000001856500000                                                                             
D000010006057601827903102011095207นายวัฒนะ นะจะคูณ มฉ 3915                          8827-9498           5931-3071                               11240096CCSH       0000001756700000                                                                             
D000011006057601827903102011095650จุมพล                                             88268597            66210368                                09761108CCSH       0000000998700000                                                                             
D000012006057601827903102011101028นายศิริชัย จุลแดง ทล 362                          88559195            23210346                                01890658CCSH       0000001216300000                                                                             
D000013006057601827903102011101412นาง จิราพร ทองร่มโพธิ์ ทว9919                     88078698            99219351                                01890658CCSH       0000001680000000                                                                             
D000014006057601827903102011101453นายไชยยา  กลมเกลียว ทว7509                        8817-9683           9521-7350                               02590911CCSH       0000000834700000                                                                             
D000015006057601827903102011101557นาง จิราพร ทองร่มโพธิ์ ทว 7299                    88979492            92217359                                01890658CCSH       0000001500000000                                                                             
D000016006057601827903102011101923ณัฐวุฒิ                                           88068999            81215360                                01982729CCSH       0000001141800000                                                                             
D000017006057601827903102011102354นายกวี  พันธ์นาม                                  88516889            107061658                               11470668CCSH       0000000810000000                                                                             
D000018006057601827903102011103204นางสาวสมจินตนา มัจฉาชีพ                           88659196            70218360                                06876871CCSH       0000001798500000                                                                             
D000019006057601827903102011103254ว่าที่ร.ต.บุญส่ง สุขทิพย์กิจ มช994                88359393            49310089                                00120152CCSH       0000000524500000                                                                             
D000020006057601827903102011103330นายสมชาย ศรีละพรม                                 88468998            00211336            ทร 1060             10900901CCSH       0000001372600000                                                                             
D000021006057601827903102011103350นางเข็มทอง สงเคราะห์ ทว 7880                      88579492            08217358                                04603236CCSH       0000001515300000                                                                             
D000022006057601827903102011104512คุณ เกียรติศักดิ์                                 88513889            204139410                               02610090CCSH       0000000737200000                                                                             
D000023006057601827903102011105017นางสลิล มะลิต้น ทล 1756                           88589984            67211345                                04580699CCSH       0000001134800000                                                                             
D000024006057601827903102011105345อภิวัฒน์ เครือวงค์ ทว 8586                        88279781            65218358                                11300564CCSH       0000001884200000                                                                             
D000025006057601827903102011112448นายวสันต์  หวังเกษม มฉ.2315                       88510199            106116522                               10996785CCSH       0000001170000000                                                                             
D000026006057601827903102011114031นางนัทธดา สุขประเสริฐ มฉ 2103                     88089193            31312070                                07540593CCSH       0000001500000000                                                                             
D000027006057601827903102011114132น.ส.จินดา บุญญานนท์  ทศ-6851                      88759698            18216365                                02540469CCSH       0000001839700000                                                                             
D000028006057601827903102011114137นาย ทรงชัย ลายลวดแก้ว                             88878097            21211362                                04730538CCSH       0000001918500000                                                                             
D000029006057601827903102011114527ชนดล นาทาม                                        88579486            64213328                                04700261CCSH       0000002116800000                                                                             
D000030006057601827903102011120102นายประเสริฐ แออ่วม                                88669592            04217312                                01480560CCSH       0000001414000000                                                                             
D000031006057601827903102011120239นายประสริฐ แออ่วม                                 88169791            59210321                                01480560CCSH       0000001495000000                                                                             
D000032006057601827903102011120452คุณ ลัดดา วงศ์เหลืองอ่อน                          88859794            74113010                                03830446CCSH       0000000405700000                                                                             
D000033006057601827903102011121011ณรงค์ ประทุมวัน                                   88979686            06202233                                07416279CCSH       0000000700000000                                                                             
D000034006057601827903102011121848นางสาวมณีรัตน์ จันทมล                             8866-9898           5021-4338                               02251074CCSH       0000000843300000                                                                             
D000035006057601827903102011122330ด.ต.พิพรรธ แสนอินทร์ ทว 9907                      8887-8498           7921-9350           0891223166          07620610CCSH       0000001884200000                                                                             
D000036006057601827903102011123409นายธนัช กันติ๊บ                                   88169692            14212333                                00600096CCSH       0000001555600000                                                                             
D000037006057601827903102011123638นายอภิรัตน์ ภู่ศิริ ทย.2404                       8817-9295           4421-2320                               01761687CCSH       0000001670400000                                                                             
D000038006057601827903102011123932นางสาวนงชนา วรปาณิ                                88389695            3121-5342                               00281171CCSH       0000001650000000                                                                             
D000039006057601827903102011124321นางสาว พวงเพ็ญ ศิริพละ ทว 3143                    8857-9398           3121-3354                               04581882CCSH       0000002116700000                                                                             
D000040006057601827903102011124453นางสาว พวงเพ็ญ ศิริพละ ทว 3144                    8847-9398           4121-3354                               04581882CCSH       0000002116700000                                                                             
D000041006057601827903102011124542นางสาว พวงเพ็ญ ศิริพละ ทว 3142                    8867-9398           2121-3354                               04581882CCSH       0000000266700000                                                                             
D000042006057601827903102011124615นายสมนึก  สืบพิลัย  ทว 7854                       88079392            48217355                                02260835CCSH       0000002116700000                                                                             
D000043006057601827903102011124702นายสมนึก  สืบพิลัย  ทว 7061                       88979393            10217356                                02260835CCSH       0000002116700000                                                                             
D000044006057601827903102011124724นางสาว พวงเพ็ญ ศิริพละ ทว 3142                    8867-9398           2121-3354                               04581882CCLQ428694600000004500000020142                                                                         
D000045006057601827903102011124744นาง ภัสรา  เรศสุข ทศ226                           88678298            62210362                                08401304CCSH       0000001827500000                                                                             
D000046006057601827903102011124745นายยงยุทธ์ สึกชัย มฉ3221                          8868-8299           1231-3072                               00771064CCSH       0000001873200000                                                                             
D000047006057601827903102011124808นายสมนึก  สืบพิลัย  ทล 9062                       88889580            20219346                                02260835CCSH       0000002116700000                                                                             
D000048006057601827903102011124811นาง ทองลา มุ่งดี ทย 4844                          8837-9891           4821-4324                               02501180CCSH       0000001211800000                                                                             
D000049006057601827903102011124903นางสาว พวงเพ็ญ ศิริพละ ทว 3142                    8867-9398           2121-3354                               04581882CCLQ264650 00000008000000040042                                                                         
D000050006057601827903102011124924นายสมนึก  สืบพิลัย  ทล 9579                       88867497            95219347                                02260835CCSH       0000000953300000                                                                             
D000051006057601827903102011125024นางสาว พวงเพ็ญ ศิริพละ ทว 3142                    8867-9398           2121-3354                               04581882CCLQ991409500000006000000140065                                                                         
D000052006057601827903102011125225นายสวรรค์ บุญชัย                                  88506999            107147939                               01231109CCSH       0000000615300000                                                                             
D000053006057601827903102011125424นายพงศ์รพี ปรีชาไพศาลจิต                          88268598            18215366                                09550176CCSH       0000001856500000                                                                             
D000054006057601827903102011125531นาง เกสฬา  พันจุย ทศ 2866                         8856-9495           6821-2366                               10250225CCSH       0000001500700000                                                                             
D000055006057601827903102011131004นายบุญเลียน สุขจิตต์ มจ 6357                      88578998            73316065                                10071091CCSH       0000001142000000                                                                             
D000056006057601827903102011131200นายธนพัต คุ้มวงษ์ มฉ 6342                         88678797            23316074                                01760698CCSH       0000001773000000                                                                             
D000057006057601827903102011131336นายอรุณ พงษ์ภักดี ทพ9100                          88889191            01219280                                08566520CCSH       0000001738000000                                                                             
D000058006057601827903102011131636นายวรพงศ์  พูลพิพิธ                               88459597            88214319                                00740081CCSH       0000000520000000                                                                             
D000059006057601827903102011132151อุบลรัตน์  บัวเพชร  ทย1457                        8896-9192           7421-1325                               00280900CCSH       0000001769000000                                                                             
D000060006057601827903102011132251พิชิด พรหมมาวัน                                   88059296            93310080                                00340753CCSH       0000001846600000                                                                             
D000061006057601827903102011132828นายชาญศักดิ์  สาระ                                88069994            30315050            มง 5003             03130261CCSH       0000000700000000                                                                             
D000062006057601827903102011133204นาง วราภรณ์ แก้วทอง                               8828-9580           2321-9349                               04921048CCSH       0000000400000000                                                                             
D000063006057601827903102011133329นางสาวนัตยา จันทาทอง ทล3106                       8849-8797           6121-3340                               01860762CCSH       0000001665500000                                                                             
D000064006057601827903102011133443นางประไพวรรณ หวานเย็น                             88259798            17216364                                00210713CCSH       0000001839700000                                                                             
D000065006057601827903102011133601นางประไพวรรณ หวานเย็น                             88579591            53218352                                00210713CCSH       0000001700000000                                                                             
D000066006057601827903102011133820นางกาญจนา  ด่านวิริยะกุล                          88989297            35214329                                02561499CCSH       0000001638200000                                                                             
D000067006057601827903102011135005นาย บุญมี หวังประเสริฐ                            8875-9295           7121-8334           ทร8147              00600443CCSH       0000000677400000                                                                             
D000068006057601827903102011135310นายชนะชาติ  ทับทิม                                88978899            80312065                                05760270CCSH       0000001110100000                                                                             
D000069006057601827903102011135638นายสมชาย ศรีพลัง                                  88669787            10213313                                00760201CCSH       0000000695500000                                                                             
D000070006057601827903102011142023นาย ชาญณรงค์  ธารีพฤกษ์                           8808-8099           7021-0358                               08670376CCSH       0000001700000000                                                                             
D000071006057601827903102011142250ทองอาน ประดิษฐ์ ทย7593                            8895-9796           3521-7329                               05750619CCSH       0000001400000000                                                                             
D000072006057601827903102011144014นายวีระ โพธิ์สองชั้น มง7869                       88969890            98317056                                00190024CCSH       0000000998700000                                                                             
D000073006057601827903102011144835นายธันยา บุญเพิ่ม ทศ1347                          8806-9998           7321-1364                               11522040CCSH       0000001884200000                                                                             
D000074006057601827903102011145541นางสาว  ศิริพร  ปดิฐพร  ทล  2291                  8829-8399           1221-2349                               01980820CCSH       0000001665500000                                                                             
D000075006057601827903102011145744นางชุติมา  ธรรมสิทธิ์ ทว 2840                     88279998            08212354                                09760114CCSH       0000001833500000                                                                             
D000076006057601827903102011150006ประภักตร์ พรหมหอม                                 8848-8198           7431-3078           0843884019          04607752CCSH       0000001725700000                                                                             
D000077006057601827903102011150031อนุชิต ปูพบุญ                                     8858-9090           5121-9282                               01901901CCSH       0000001517700000                                                                             
D000078006057601827903102011150033นายวินัย แสงปาน  มฉ8623                           88768998            36318072                                01480206CCSH       0000001067200000                                                                             
D000079006057601827903102011150219ส.อ.ประคอง สามงามนิ่ม                             8827-9193           7521-7355                               00180459CCSH       0000002238240000                                                                             
D000080006057601827903102011150457นายชัยวัฒน์ ลีเลิศยานนท์                          88389593            89215342                                11312191CCSH       0000001617900000                                                                             
D000081006057601827903102011150651เครือวัลย์  มุสิกะนันทน์                          8858-9498           5821-3348                               11540032CCSH       0000001755300000                                                                             
D000082006057601827903102011152354นายวัลลพ กันหอม                                   8805-9986           1221-6337                               04710157CCSH       0000001154000000                                                                             
D000083006057601827903102011152834นายสมบัติ วงษ์เดอรี  ทย 5011                      8866-9691           1021-5321                               11041367CCSH       0000001155700000                                                                             
D000084006057601827903102011153135นางสาววิชุดา พลายแก้ว                             8897-7297           8421-3344                               01270563CCSH       0000001705500000                                                                             
D000085006057601827903102011153624นางจำเนียร ปรีชา                                  88759597            63217366                                08553235CCSH       0000001839700000                                                                             
D000086006057601827903102011154840นาย สุรศักดิ์ อินทศร  ทว 1327                     8836-9290           7321-1352                               04581882CCSH       0000002041500000                                                                             
D000087006057601827903102011161016พ.ต.ท.จิตติณัติ รักชาติ ทศ9993                    88525599            104119885                               04781103CCSH       0000002463100000                                                                             
D000088006057601827903102011161305นายธำรงค์ยศ มะยมหิน                               88859997            84311061            มจ 1418             08510518CCSH       0000000596400000                                                                             
D000089006057601827903102011161927อุดร สังกระธาตุ                                   88188499            09219347                                06990912CCSH       0000001732100000                                                                             
D000090006057601827903102011162536นางอำพร  พันธุ์ไพโรจน์                            88516399            104122440                               11521628CCSH       0000001568200000                                                                             
D000091006057601827903102011162746นส.นวลอนงค์ อินไกร                                8858-8688           3521-1358                               00282352CCSH       0000001918500000                                                                             
D000092006057601827903102011164312นางสาววาสนา สุขเกษม                               8895-9895           9331-6051                               09740485CCSH       0000001062700000                                                                             
D000093006057601827903102011165618นางแสงเดือน เพ็ชรนิล ทล 5539                      88689893            95215343                                10431119CCSH       0000001630900000                                                                             
D000094006057601827903102011170915ร.อ.รัฐธีร์  น้อยนิตย์                            88389392            24216347                                07540487CCSH       0000001377800000                                                                             
D000095006057601827903102011171640พิชยนต์ เปี่ยมทอง ทม1291                          8856-9991           1221-1319                               05970092CCSH       0000001349000000                                                                             
D000096006057601827903102011171832prasert                                           88378398            81214332                                11511512CCSH       0000001550700000                                                                             
D000097006057601827903102011173537นายวิษณุ ไชยา  ทศ2527                             8886-9396           7521-2362                               10320014CCSH       0000002152200000                                                                             
D000098006057601827903102011173834นางสาว ทองศรี ธิปไชย  ทย 1506                     88369886            65211320.                               07680057CCSH       0000001159200000                                                                             
D000099006057601827903102011174148บรรจง สุวรรณโคต                                   88879587            77219329                                11045221CCSH       0000001664400000                                                                             
D000100006057601827903102011183046นายสังเวียน ศรีคำ มฉ8770                          8856-8899           0731-8077                               10810269CCSH       0000001142700000                                                                             
D000101006057601827903102011185032นายจตุพร นาคไพรัชช์ ทว 3298                       88379498            82213359                                10061102CCSH       0000002007300000                                                                             
D000102006057601827903102011190519นางสาวสุนันท์ แก้วเผือก                           8816-8999           5009-7400                               06900618CCSH       0000000312100000                                                                             
D000103006057601827903102011193649นาย ชุมพล ด้านสิงห์  ทล 273                       8876-9890           3221-0347                               07680057CCSH       0000001262600000                                                                             
D000104006057601827903102011194758นายทัตพล ฤกษ์อุโฆษ ทล 7295                        88879897            52217349                                04671034CCSH       0000001187700000                                                                             
T000105006057601827900000000000000000000000146456840000103                                                                                                                                                                                                      
