H0000010060576018279บริษัท ไทเอซ สิสซิ่ง จำกัด              13012012TALHO                                                                                                                                                                                       
D000002006057601827913012012091205นางพิกุล ม่วงวงคล  ชธ 3603                        88539989            107011097                               02610535CCSH       0000001088500000                                                                             
D000003006057601827913012012092433นาย สมบูรณ์  ดาทอง  ทว5937                        88479495            79215353                                00910199CCSH       0000001918400000                                                                             
D000004006057601827913012012093648นายเฉลา ศรีนาค                                    88669594            15312068                                01831582CCSH       0000000730600000                                                                             
D000005006057601827913012012095206คมสัน จันทร์หอม ทศ825                             88278397            58210362                                02190075CCSH       0000001587900000                                                                             
D000006006057601827913012012100659นายสาคร รีฮุง                                     88279887            51314079                                09770823CCSH       0000001990000000                                                                             
D000007006057601827913012012101734นางสาวสำลี ก้านจักร ทว 4754                       88779587            47214355                                01520684CCSH       0000001947000000                                                                             
D000008006057601827913012012102545ปุณยวีร์                                          88518889            104122560                               00650498CCSH       0000001874100000                                                                             
D000009006057601827913012012103148ทองดี สุดหล้า                                     88968397            92314055                                01411495CCSH       0000000557000000                                                                             
D000010006057601827913012012111243นายสมเด็จ  บุญเพชร                                88869197            46211367                                01215368CCSH       0000002000000000                                                                             
D000011006057601827913012012111450นายเสกสันต์ ไชยเสนา                               88679587            46214357                                10071091CCSH       0000001802300000                                                                             
D000012006057601827913012012112029นางสลิล มะลิต้น ทล 1756                           88589984            67211345                                04580699CCSH       0000001650000000                                                                             
D000013006057601827913012012113110นายวินัย  ผลดี  ทว  7638                          8867-9792           8621-7353                               10250225CCSH       0000000064300000                                                                             
D000014006057601827913012012114034เสกสรรค์ กลิ่นรอด ทว6617                          88479984            76216351                                01990939COTH       0000001515300000                                                                             
D000015006057601827913012012114453นายสุวรรณ  ปรางทอง                                88269791            66219288                                05760270CCSH       0000000552800000                                                                             
D000016006057601827913012012114511นายคำมี  ปะตังเวสา                                88879495            28215359                                07010476CCSH       0000001652200000                                                                             
D000017006057601827913012012114937ธนพร แสงมณีจร                                     88959397            23212359                                04710657CCSH       0000001850000000                                                                             
D000018006057601827913012012115241นายยอดชาย ขำจำรูญ  ทล2298                         8849-8199           8221-2349                               02590096CCSH       0000001625000000                                                                             
D000019006057601827913012012115546ร.ท.จักรกฤษณ์ เพียรพิจิตร ทศ9599                  8817-9988           9521-9369                               10360725CCSH       0000001720000000                                                                             
D000020006057601827913012012115757นายปนินทร์ อ่อนใจเอื้ย                            88889682            37312071                                00660159CCSH       0000001748300000                                                                             
D000021006057601827913012012115936นายพลานุภาพ อุ่นฤกษ์ ทล 5005                      88517399            107161333                               04881100CCSH       0000001220000000                                                                             
D000022006057601827913012012120727ประไพวรรณ หวานเย็น                                8856-7297           9521-8355                               00210350CCSH       0000001775000000                                                                             
D000023006057601827913012012120802นายภิญโญ กันเนียม ทศ 8537                         8815-9395           7521-8363                               04603236CCSH       0000001812300000                                                                             
D000024006057601827913012012123527นางสาวพิมพ์ชนก แซ่ตั้ง ทร.496                     88479493            64210339                                01771050CCSH       0000000907000000                                                                             
D000025006057601827913012012124232นายพงษ์ศักดิ์  วันอยู่  ทว5108                    883-9096            8121-5350                               01215368CCSH       0000001935000000                                                                             
D000026006057601827913012012125323นายเสถียร คุณปรึกษา                               8828-9290           2621-2339                               00760201CCSH       0000001670000000                                                                             
D000027006057601827913012012125546นายจงรักษ์ ถนอมต่วน                               88523299            104121634                               02152851CCSH       0000001390900000                                                                             
D000028006057601827913012012130719นาย ทองสูน เที่ยงแก๊ส                             88069197            49211367                                04730614CCSH       0000001884200000                                                                             
D000029006057601827913012012132425นายบุญสูง  ปัญสา                                  88169794            85213318                                01900549CCSH       0000001140000000                                                                             
D000030006057601827913012012132811นายสอาด แจ่มสกุล มฉ2146                           88689193            61312074                                11830402CCSH       0000001617900000                                                                             
D000031006057601827913012012134509มีสุข ตะคุณนะ                                     8805-9596           0921-9333                               02710514CCSH       0000001044000000                                                                             
D000032006057601827913012012134810นางสาว ดวงกมล ห้องแซง ทว 8526                     8897-9881           6521-8352                               07540908CCSH       0000002350000000                                                                             
D000033006057601827913012012140037นาย สมชัย ไทยสง่า 086-5712187                     8846-8599           5321-6334                               00370077CCSH       0000000863500000                                                                             
D000034006057601827913012012140546จงศักดิ์ ไชยธานี มฉ9636                           88859698            66319073                                10373543CCSH       0000001420000000                                                                             
D000035006057601827913012012142048นายมานิตย์ จูจวง                                  88667997            02211360                                11071071CCSH       0000001649900000                                                                             
D000036006057601827913012012144103นายกระต่าย เทพวงษ์                                88515999            106138674                               01610661CCSH       0000001814600000                                                                             
D000037006057601827913012012144344นายอรรณพ ศรีปัญญานนท์ ทศ8230                      8855-9986           0221-8363                               05671599CCSH       0000001920000000                                                                             
D000038006057601827913012012144937นางสาวฉวีวรรณ สุวรรณวงษ์                          88679882            41218356                                10560685CCSH       0000001980500000                                                                             
D000039006057601827913012012145105นายดำรงค์ เทพสมบูรณ์                              48507999            104125523                               02590600CCSH       0000000271000000                                                                             
D000040006057601827913012012145110นาง พลูพิณ เขียวแดง                               88079981            55315079                                01890216CCSH       0000001679300000                                                                             
D000041006057601827913012012145157นางสุรินทร์ ฉาบไธสง  ทศ8582                       88559295            25218368                                02610535CCSH       0000001874100000                                                                             
D000042006057601827913012012145238นางสาว อารีวรรณ อิ่มสนธิ์ ทพ9185                  88279492            51219288                                02590600CCSH       0000000746500000                                                                             
D000043006057601827913012012145407พลูพิณ เขียวแดง                                   88079981            55315079                                01890216CCSH       0000001679300000                                                                             
D000044006057601827913012012150132นาย วิชัย บุญวัฒน์  ทย 4696                       8896-9691           6621-4329                               00823394CCSH       0000001032200000                                                                             
D000045006057601827913012012150518นายอนันต์ ทับทิม                                  8845-9695           4021-1330                               02251074CCSH       0000000500000000                                                                             
D000046006057601827913012012152340นายสวิด วงษ์จำปา                                  8877-9498           7021-3352                               00611046CCSH       0000000877600000                                                                             
D000047006057601827913012012154336กมลลาสน์ ละไมกิจ                                  88507599            107083985                               11251251CCSH       0000000960000000                                                                             
D000048006057601827913012012160506นายธงชัย ปลัดศรี                                  8867-9683                                                   00161192CCSH       0000001706800000                                                                             
D000049006057601827913012012162815นางสาว นุชนารถ  แจ่มศุภพันธ์  ทล9549              8816-7097           9521-9344           089-1110798         08690033CCSH       0000000989800000                                                                             
D000050006057601827913012012162938นางสาว นุชนารถ  แจ่มศุภพันธ์  ทศ8294              88597898            104115480           089-1110798         08690033CCSH       0000002440000000                                                                             
D000051006057601827913012012163050นางสาว นุชนารถ  แจ่มศุภพันธ์  ทล6608              8836-7697           8621-6340           089-1110798         08690033CCSH       0000001700000000                                                                             
D000052006057601827913012012170150นายสมาน พวงพิลา                                   88368597            64319071                                11370605CCSH       0000002417000000                                                                             
D000053006057601827913012012192225นายสุรเชษฐ์ สินเวช มฉ4299                         88532499            106137366                               10150069CCSH       0000001622800000                                                                             
T000054006057601827900000000000000000000000076764900000052                                                                                                                                                                                                      
