H0000010060576018279บริษัท ไทเอซ สิสซิ่ง จำกัด              14022012TALHO                                                                                                                                                                                       
D000002006057601827914022012083521นาย เฉียบวุฒิ อ่อนยิ่ง                            88969292            01318074                                03080298CCSH       0000001432800000                                                                             
D000003006057601827914022012085956นายเจริญ สุวรรณคีรี  ทศ 9726                      88526899            104119622                               08560792CCSH       0000003327000000                                                                             
D000004006057601827914022012091135นายสามารถ พรมศักดิ์                               88586898            107103330                               00170047CCSH       0000000643800000                                                                             
D000005006057601827914022012091834อรนุช ขุนทอง/ 0860491377                          88079694            06314079                                11819722CCSH       0000001855800000                                                                             
D000006006057601827914022012093039นาย  เฉลา  ฉางทรัพย์                              88059398            40217360                                00611358CCSH       0000001455300000                                                                             
D000007006057601827914022012095437นาย อนุกูล แก้ววิเชียร  ทว 7783                   8866-9695           3721-7358                               01921386CCSH       0000001884200000                                                                             
D000008006057601827914022012095641นายจิรศักดิ์ ศรีบุญจิตต์                          8836-9298           8221-0341                               00940557CCSH       0000002011200000                                                                             
D000009006057601827914022012103107สำลี ก้านจักร                                     88779587            47214355                                01520196CCSH       0000001948000000                                                                             
D000010006057601827914022012103827นายสมเกียรติ สีธงชัยรุ่งโรจน์ ทว 783              88069798            37210358                                07930240CCSH       0000001382100000                                                                             
D000011006057601827914022012103958นายสมเกียรติ สีธงชัยรุ่งโรจน์ ทม8561              88169886            15218316                                07930240CCSH       0000001495600000                                                                             
D000012006057601827914022012104136นายสมเกียรติ สีธงชัยรุ่งโรจน์ ทร3321              88369994            13213332                                07930240CCSH       0000001334000000                                                                             
D000013006057601827914022012104335นายสรรเสริญ สีธงชัยรุ่งโรจน์ ทย6371               88522599            107108695                               07930240CCSH       0000001091500000                                                                             
D000014006057601827914022012105037นายรุ่งโรจน์ เนาว์กลาง ทม244                      88569392            42210314                                02590600CCSH       0000000610000000                                                                             
D000015006057601827914022012110614นางจุไรรัตน์  สุทธิเวช ทล 4577                    8848-9097           7521-4347                               11521628CCLQ402892 00000008000000040089                                                                         
D000016006057601827914022012111546เหมราช เนื่องพิมพ์ ทล2922                         88389983            29212342                                10270539CCSH       0000001748600000                                                                             
D000017006057601827914022012111600สมพร ไกรศรศรี                                     88169897            46211364                                10150151CCSH       0000001650000000                                                                             
D000018006057601827914022012111606นายวีระศักดิ์ อินจันทึก มฉ5798                    88979980            87315079                                02590600CCSH       0000001884200000                                                                             
D000019006057601827914022012111715นายชัยสิทธิ์ ปรีชาผล มจ.23                        8816-9996           3031-0062                               07961583CCSH       0000001161000000                                                                             
D000020006057601827914022012111746สมพร ไกรศรศรี                                     88169897            46211364                                10150151CCSH       0000001305500000                                                                             
D000021006057601827914022012111800นายธันยา  บุญเพิ่ม                                88069998            73211364                                11520169CCSH       0000001884200000                                                                             
D000022006057601827914022012113639นายสุนทร บุญเกิด                                  88069292            85217357                                03960529CCSH       0000001159200000                                                                             
D000023006057601827914022012113749นายสุนทร บุญเกิด                                  88504599            107107351                               03960529CCSH       0000001159200000                                                                             
D000024006057601827914022012113844นายสุนทร บุญเกิด                                  88503599            107075019                               03960529CCSH       0000001159200000                                                                             
D000025006057601827914022012121337จันทิมา  ศาลางาม                                  88069492            20214364                                03300381CCSH       0000001000000000                                                                             
D000026006057601827914022012123839ด.ต.เสิม หยุ่นแก้ว ทว4197                         88479197            71214359                                01971063CCSH       0000001884200000                                                                             
D000027006057601827914022012124542นายสาคร นามใจยา                                   88779397            10215336                                01101667CCSH       0000001934500000                                                                             
D000028006057601827914022012130324นางสาวจิรัฎฐ์ ศิริกิจจาขจร                        88059497            33217367                                02190805CCSH       0000001846600000                                                                             
D000029006057601827914022012131204อนุน คำทา ทร7853                                  88513099            107145685           085-2379854         00441768CCSH       0000000579600000                                                                             
D000030006057601827914022012131419นาย ไพศาล พรประภาศักดิ์ ทศ397                     88478098            73210369                                01200546CCSH       0000001704800000                                                                             
D000031006057601827914022012131643นางสาวสมหวัง  นับกลาง                             8847-9291           3421-8359                               01731622CCSH       0000000269700000                                                                             
D000032006057601827914022012132410วีระ อ่ำมณี                                       88468497            39215331                                00580655CCSH       0000001650000000                                                                             
D000033006057601827914022012133840นายอุดม เชาวรินทร์                                88668797            96066083                                11630404CCSH       0000000670000000                                                                             
D000034006057601827914022012134523นางวชิราภรณ์ แสงใจหนัก                            88688997            35211359            ทว 1593             01528111CCSH       0000001800000000                                                                             
D000035006057601827914022012135923นาย อนุสรณ์  วารีน้อย ทม3403                      8817-8399           3421-3310                               01781712CCSH       0000000695500000                                                                             
D000036006057601827914022012142114นายภัชชภณ  แก้วกาเหรียญ มช 2044                   88518889            104122560                               00650326CCSH       0000001874100000                                                                             
D000037006057601827914022012144540กิตติพงษ์ ผดุงกิจ                                 88510989            104123384                               01370906CCSH       0000001903900000                                                                             
D000038006057601827914022012144748นางมีสุข ตะคุณนะ ทร-9930                          88279096            09219333                                05674254CCSH       0000001028700000                                                                             
D000039006057601827914022012145203นาย ประชา กัลยา                                   88488697            03212353            ทว2330              10250012CCSH       0000001966500000                                                                             
D000040006057601827914022012150650นางดวงจันทร์  หันจางสิทธิ์                        88502899            107154831                               01900549CCSH       0000001465400000                                                                             
D000041006057601827914022012150716นาย สมบัติ โคกลือชา                               88479683            26217352                                01980212CCSH       0000001731500000                                                                             
D000042006057601827914022012150744นายสมนึก สืบพิลัย   ทล 9579                       88867497            95219347                                02260509CCSH       0000001700000000                                                                             
D000043006057601827914022012152034นายชนินทร์  อ่อนใจเอื้อฃ                          88889682            37312071                                00663162CCSH       0000001730000000                                                                             
D000044006057601827914022012152930นางสาวมะรินทร์ พรมโลกา ทว4756                     88579587            67214355                                00470242CCSH       0000001912900000                                                                             
D000045006057601827914022012161619วิทยา แก่นทองเจริญ                                88859697            36212337                                08518511CCSH       0000000917500000                                                                             
D000046006057601827914022012164149ด.ต.วิรัตน์ ตะคุณนะ ทย 7605                       88568397            56217320                                05674254CCSH       0000000644500000                                                                             
D000047006057601827914022012182405นายฉลาด วันชนะ                                    88078988            73210360                                10074338CCSH       0000001918500000                                                                             
D000048006057601827914022012190158นาย พิษณุ  ด้วยสาร ทย4415                         88679795            54214321                                08550648CCSH       0000001670000000                                                                             
D000049006057601827914022012192929JAKKRIT    T                                      8848-9987           3721-4344                               04704701CCSH       0000001665500000                                                                             
D000050006057601827914022012194024นายสุรเชษฐ์ สินเวช                                88532499            106137366                               10150884CCSH       0000001622800000                                                                             
T000051006057601827900000000000000000000000072169100000049                                                                                                                                                                                                      
