H0000010060576018279บริษัท ไทเอซ สิสซิ่ง จำกัด              16012012TALHO                                                                                                                                                                                       
D000002006057601827916012012085403นายไพศาล พรประภาศักดิ์  ทศ397                     88478098            73210369                                01200488CCSH       0000001704800000                                                                             
D000003006057601827916012012090144นาย ปิยะ ประทีปช่วง ทศ 3805                       88669792            58213360                                00720609CCSH       0000001799200000                                                                             
D000004006057601827916012012090246นรชัย แพงศร                                       88504989            104125388                               09761108CCSH       0000001867300000                                                                             
D000005006057601827916012012091507นาย วุฒิสิทธิ์ ยินดีเวท ทล 7008                   8878-9682           8021-7340                               10900089CCSH       0000001617900000                                                                             
D000006006057601827916012012093905อภิวัฒน์ เครื่อวงศ์                               88279781            65218358                                11305412CCSH       0000001884200000                                                                             
D000007006057601827916012012101227นาย อุดม เชาวรินทร์ (6ช-6639)                     88668797            96066083                                11630448CCSH       0000000670000000                                                                             
D000008006057601827916012012102103นายธนัฒฑ์ แก้วมณีชัย                              88509889            106203890                               00710753CCSH       0000001770000000                                                                             
D000009006057601827916012012102604รัชนี  แก้วหาญ                                    88279291            64315076                                02600520CCSH       0000001918500000                                                                             
D000010006057601827916012012103539นายลือชา  ศรีพาณิชพันธุ์                          88469494            33217318                                11311671CCSH       0000001400000000                                                                             
D000011006057601827916012012104114นาย วสันต์ สุวรรณรังษี ทล 7089                    8868-9682           9021-7348                               01200547CCSH       0000001595500000                                                                             
D000012006057601827916012012105114นายสุรชัย โทศรี                                   88469986            37212367                                07090213CCSH       0000001920100000                                                                             
D000013006057601827916012012105346นายสุภะชัย ตู้ที                                  8856-9198           6421-1360                               01520889CCSH       0000002736300000                                                                             
D000014006057601827916012012110200ภาวินี อุตศานตร์                                  88509399            107122647                               10320321CCSH       0000000718100000                                                                             
D000015006057601827916012012111703นายชาติชาย ชาติขยัน                               88979688            05213351                                00282352CCSH       0000001884200000                                                                             
D000016006057601827916012012111947นายศราวุธ แก้วแกมเกษ                              88789591            51217348                                01720820CCSH       0000003695000000                                                                             
D000017006057601827916012012112212นายสายัณห์ เอี่ยมลออ ทร5371                       88569290            13215337                                11240761CCSH       0000001112000000                                                                             
D000018006057601827916012012112555นาย ภูเมศ   ภู่เกลี้ยง   ทล5101                   8805-9397           1121-5340                               08560865CCSH       0000001814600000                                                                             
D000019006057601827916012012112903นาย ภูเมศ   ภู่เกลี้ยง  ทย1843                    88759896            38211324                                08560865CCSH       0000001392800000                                                                             
D000020006057601827916012012113002นายศิริชัย  จุลแดง                                88659195            91219368                                04830966CCSH       0000001546700000                                                                             
D000021006057601827916012012113435นางจุไรรัตน์  สุทธิเวช                            8848-9097           7521-4347                               11521628CCSH       0000000751700000                                                                             
D000022006057601827916012012113629นางจุไรรัตน์  สุทธิเวช ทล 4577                    8848-9097           7521-4347                               11521628CCLQ271604700000016400000020177                                                                         
D000023006057601827916012012114304นายสุขสันต์ ศงสนันทน์ มจ 7038                     88573898            107131999                               04580699CCSH       0000001230600000                                                                             
D000024006057601827916012012114618นาย วีระศักดิ์ อินจันทึก มฉ5798                   88979980            87315079                                02590600CCSH       0000001884200000                                                                             
D000025006057601827916012012115236นางเครือวรรณ์ สมนาค                               88978198            02210362            ทศ 220              08510518CCSH       0000001745300000                                                                             
D000026006057601827916012012122155คุณณัชชารีย์ วงษ์กิตติสิงห์ ทษ1411                88506199            106203185                               11253283CCSH       0000001770700000                                                                             
D000027006057601827916012012125104นายธวัชชัย  บุญอยู่                               88979882            26211329                                10290212CCSH       0000001485700000                                                                             
D000028006057601827916012012125128นายวีระพงษ์ สาลีรัมย์ ทย 337                      88279890            73210323                                10071091CCSH       0000001734900000                                                                             
D000029006057601827916012012125419สันต์ ลาภรุ่งเรือง                                8828-9392           1721-6348                               05700127CCSH       0000000030000000                                                                             
D000030006057601827916012012125424นายวสันติชัย แบนจาด                               8828-9396           39214343                                01800625CCSH       0000001665500000                                                                             
D000031006057601827916012012125519นางสกาวเดือน โสตา                                 88592798            107116689                               04780201CCSH       0000001538200000                                                                             
D000032006057601827916012012130036นายจักรกริช  รอดทอง ทล.4743                       88489987            37214344                                01890097CCSH       0000001665500000                                                                             
D000033006057601827916012012131257นายสมนึก สืบพิลัย  ทล 9579                        88867497            95219347                                02260509CCSH       0000001700000000                                                                             
D000034006057601827916012012131806นายปางทอง แซ่ตั้ง มฉ3803                          88869986            38313070                                10360570CCSH       0000001045000000                                                                             
D000035006057601827916012012132450นายมนตรี แก้วใจจง                                 88979894            57314071                                04991118CCSH       0000001884200000                                                                             
D000036006057601827916012012133130นางมาลาศรี ทองชา                                  88669194            10211322            ทย1021              04930415CCSH       0000001800700000                                                                             
D000037006057601827916012012134018นายบุญฐิน  ถนอมเมฆ                                88278099            11316072                                11370660CCSH       0000001799200000                                                                             
D000038006057601827916012012134038นายบุญมี  พันศิริพัฒน์                            8845-9986           7921-6325           ทย  6957            01446513CCSH       0000000680500000                                                                             
D000039006057601827916012012134908นาย ไชยยา กลมเกลียว                               88179683            95217350                                00170444CCSH       0000000580000000                                                                             
D000040006057601827916012012135654ธันวา ณะธรรม                                      88760099            107137557                               07540563CCSH       0000001348800000                                                                             
D000041006057601827916012012140012นายสิทธิวิชญ์ เกษมพงศ์วณิช                        88368497            61315077                                01820662CCSH       0000000030000000                                                                             
D000042006057601827916012012140059นายโพธิ์ บุญกระพือ                                88535099            104119597                               00810345CCSH       0000001100000000                                                                             
D000043006057601827916012012140522นายสมพร ไกรศรศรี ทศ 1644                          88169897            46211364                                10150884CCSH       0000001700000000                                                                             
D000044006057601827916012012141108นายวิชาญ โพธิวรรณ                                 88515989            104123253                               00740562CCSH       0000001671900000                                                                             
D000045006057601827916012012142022นายอิสระ สัจจะสรรเสริญ                            88059096            14310083                                00330237CCSH       0000001850000000                                                                             
D000046006057601827916012012142537นายสุรพงษ์ วงศ์กำภู ทศ 5075                       88269290            50215367                                01230232CCSH       0000001856500000                                                                             
D000047006057601827916012012142651นายวิชัย  ตุลา  ทย 201                            88168697            12210320                                02590911CCSH       0000001543200000                                                                             
D000048006057601827916012012144044นางชลิตดา เจริญพวง                                88179587            16214355                                09761108CCSH       0000002400000000                                                                             
D000049006057601827916012012144837นายประภูศักดิ์ บุญอำนวย มฉ.1136                   88789897            61311073                                00282766CCSH       0000001665500000                                                                             
D000050006057601827916012012145152นายจงเจริญ ช่วยสงค์                               88779882            61218350                                00334177CCSH       0000002000000000                                                                             
D000051006057601827916012012145154นายสมบัติ  โคกลือชา ทว 7622                       88479683            26217352                                04670988CCSH       0000001731500000                                                                             
D000052006057601827916012012150338นายจุล เทพขาม                                     88079587            86214353                                07125214CCSH       0000001978300000                                                                             
D000053006057601827916012012152253นางสาวชื่นใจ ศิริคุณ                              88592698            107131840                               08770801CCSH       0000000980800000                                                                             
D000054006057601827916012012155010นายวิทยา แซ่จึง                                   88077797            59215344                                09761108CCSH       0000001800000000                                                                             
D000055006057601827916012012161323นายฐาปนัท  บูชา  ทล 6252                          8898-9783           2221-6345                               05690088CCSH       0000001672900000                                                                             
D000056006057601827916012012161509บุญเลิศ ทรัพย์เจริญกุล                            88069991            76211322            ทย 1627             10320321CCSH       0000001473100000                                                                             
D000057006057601827916012012161908นายเสาร์คำ แก้ววิมล มฉ4686                        88079994            66314078                                10150884CCSH       0000001884200000                                                                             
D000058006057601827916012012162945นาย กันภัย  จิตราวัฒน์ มจ9229                     88519399            107146492                               11520515CCSH       0000000600000000                                                                             
D000059006057601827916012012164455สุริยา บุรีรัตน์ ทร3296                           88869590            62213339                                10270539CCSH       0000000829300000                                                                             
D000060006057601827916012012165423นาย เอกสิทธิ์  ศรีตองอ่อน ทว 597                  8858-8689           7521-0359                               11860608CCSH       0000001918700000                                                                             
D000061006057601827916012012165447อนุสรณ์  วารีน้อย                                 8817-8598           0921-2328           ทย2980              07990132CCSH       0000001649600000                                                                             
D000062006057601827916012012172055นายจุลพงษ์  สายบัว                                88788999            30313077                                05970398CCSH       0000001700000000                                                                             
D000063006057601827916012012173342นายสุวิทย์ กองทน ทร5878                           8857-8898           8821-5337                               08691092CCSH       0000001440000000                                                                             
D000064006057601827916012012174138นายชัชวาลย์  แสงอาวุธ                             88159797            52217363            ทศ7235              10720144CCSH       0000001856500000                                                                             
D000065006057601827916012012174906นส.วิยะดา  ยิ่งยงค์                               8897-8197           0721-0365                               10990536CCSH       0000001884200000                                                                             
D000066006057601827916012012175345น.ส.รัชฎาภรณ์ สีลา ทร 1782                        8837-7897           2721-1338                               10154549CCSH       0000000295500000                                                                             
D000067006057601827916012012182747นายฉลาด วันชนะ ทศ 307                             88078988            73210360                                10071091CCSH       0000001918500000                                                                             
D000068006057601827916012012193858มณฑล วรรณขาม                                      88959297            89215338            ทร 5988             10320321CCSH       0000000300000000                                                                             
T000069006057601827900000000000000000000000102758100000067                                                                                                                                                                                                      
