H0000010060576018279บริษัท ไทเอซ สิสซิ่ง จำกัด              10032012TALHO                                                                                                                                                                                       
D000002006057601827910032012114411นาย บุญมี งามขำ ทว210                             88188989            02210351                                08510017CCSH       0000001700000000                                                                             
D000003006057601827910032012114603สฤทธิ์  เสนสอน                                    88889093            79215342                                04950191CCSH       0000001734300000                                                                             
D000004006057601827910032012114638นาย บุญมี งามขำ ทษ2217                            0198187994798       104128370                               08510017CCSH       0000002179700000                                                                             
D000005006057601827910032012120749นายเชิดไทย คงพิสิฐธรรม มจ1029                     88919296            90311062                                11281823CCSH       0000000657700000                                                                             
D000006006057601827910032012121429นายธนะจิตต์ พึ่งโพธิ์สภ ทล9961                    88188199            19219346                                08691092CCSH       0000001700000000                                                                             
D000007006057601827910032012130435นางเปรมฤดี   สวัสดี                               88544299            104115854                               05756198CCSH       0000002006700000                                                                             
D000008006057601827910032012131426นาย วรวิทย์ และสง่า ทล 1052                       88679992            20211345                                05699910CCSH       0000001600000000                                                                             
D000009006057601827910032012140213นายมงคล คุณประทุม                                 88979192            09217351                                06977084CCSH       0000001918000000                                                                             
D000010006057601827910032012142304นายวันเฉลิม เกษตรสินธุ์                           88388988            63211352                                11521521CCSH       0000001734300000                                                                             
D000011006057601827910032012144400ชูชื่น เทพสุภรณ์กุล                               8847-9395           7631-4073                               05700127CCSH       0000001884200000                                                                             
D000012006057601827910032012145528สิริศักดิ รังกลาง                                 88459694            44213310                                10279615CCSH       0000000701500000                                                                             
D000013006057601827910032012145822นายอรรณพ  แจ่มใส                                  88513599            107094402                               11140161CCSH       0000001077600000                                                                             
D000014006057601827910032012150337นางวรรณภา เจริญอินทร์                             0198187995597       106160904           ทศ.1945             07990541CCSH       0000001697200000                                                                             
D000015006057601827910032012150443นางวรรณภา เจริญอินทร์                             88269690            12215361            ทศ.5211             07990541CCSH       0000000235500000                                                                             
D000016006057601827910032012153153นายอนุสรณ์ วารีน้อย                               8846-9797           4721-7314           ทม.7744             10060803CCSH       0000001517700000                                                                             
D000017006057601827910032012161703น.ส.วชิราภรณ์ นุชสุข                              88969591            04214362                                11250856CCSH       0000001772800000                                                                             
D000018006057601827910032012162002นายประวัติ กองทน ทว6982                           88527399            106147070                               08691092CCSH       0000001782900000                                                                             
D000019006057601827910032012162141ด.ต. วิรัตน์  ตะคุณนะ                             88689990            20218646                                11520169CCSH       0000000295500000                                                                             
D000020006057601827910032012163038นายกิตตินัย ปึงประยูร                             8807-9198           7321-3351                               04880436CCSH       0000001942000000                                                                             
D000021006057601827910032012163328นายพงษ์เทพ จึงตระกูล                              88537499            107161465                               07620489CCSH       0000001226500000                                                                             
D000022006057601827910032012164540ร.ท.จักรกฤษณ์ เพียรพิจิตร ทล6572                  88509982            79217317                                07930727CCSH       0000001020000000                                                                             
D000023006057601827910032012164656ร.ท.จักรกฤษณ์ เพียรพิจิตร ทศ9599                  88179988            95219369                                07930727CCSH       0000001720000000                                                                             
D000024006057601827910032012184049นายพรเทพ ชื่นจำรัส ทย4532                         188269192           2521-4323                               11253283CCSH       0000001447000000                                                                             
D000025006057601827910032012192747นายชาตรี อินทรศักดิ์ ทล 4573                      88289297            35214347                                10320746CCSH       0000001665500000                                                                             
T000026006057601827900000000000000000000000035216600000024                                                                                                                                                                                                      
