H0000010060576018279บริษัท ไทเอซ สิสซิ่ง จำกัด              15012012TALHO                                                                                                                                                                                       
D000002006057601827915012012111421นางกันจนี คนหาญ                                   88537699            106198236                               04831051CCSH       0000001883800000                                                                             
D000003006057601827915012012112903นาย ประชา กัลยา                                   88488697            03212353            ทว2330              10250012CCSH       0000001923200000                                                                             
D000004006057601827915012012113237นงลักษณ์ ชิโมมูร่า                                88500989            104122553                               05700127CCSH       0000001031200000                                                                             
D000005006057601827915012012115048นายพิเชษฐ  กลั่นประโคน                            88079687            45214350            ทว4504              10720144CCSH       0000001700000000                                                                             
D000006006057601827915012012115701นาย ชัยณรงค์ แพงทิพย์                             88359594            98312060                                08450154CCSH       0000001040000000                                                                             
D000007006057601827915012012115920นายณรงค์ศักดิ์  แหสมุทร  ทร6176                   88269798            61216337                                04881090CCSH       0000001622900000                                                                             
D000008006057601827915012012120412เฉียบวุฒิ   อ่อนยิ่ง 0890911487                   8899-9292           0131-8074                               07912284CCSH       0000001432800000                                                                             
D000009006057601827915012012122346นายไพบูลย์ วิทิตกนกปรีดา                          88768198            67219283                                10970050CCSH       0000000580300000                                                                             
D000010006057601827915012012122904นายวิทยา  แก่นทองเจริญ  ทร 2673                   88859697            36212337                                08510045CCSH       0000000917500000                                                                             
D000011006057601827915012012124350นายณัฐพร ธนะเนตร                                  88500599            107155077                               04671034CCSH       0000001293000000                                                                             
D000012006057601827915012012124402พ.ต.ท.จิตติณัติ รักชาติ                           88568298            55216366                                04780536CCSH       0000002248300000                                                                             
D000013006057601827915012012125047นายวันเฉลิม เกษตรสินธุ์ ทว7041                    88579694            10217354                                11522040CCSH       0000000633500000                                                                             
D000014006057601827915012012135912นายอุเทน เพชร์ทอง                                 88878197            47210365                                11520403CCSH       0000001884200000                                                                             
D000015006057601827915012012141139ฐานิศวร์ นิติธรรมพงศ์                             88289983            15216347                                07621764CCSH       0000001547600000                                                                             
D000016006057601827915012012143337นายนิสสัย กล่าวเกลี้ยง ทล7057                     8888-9991           7021-7345                               11522040CCSH       0000001780000000                                                                             
D000017006057601827915012012144719นางสุพรรษา ไชยมาตย์                               88569194            02213318                                04770491CCSH       0000001700000000                                                                             
D000018006057601827915012012151011นายนเรศ  สุขประเสริฐ  มจ1347                      88539399            107083971                               04880528CCSH       0000000940000000                                                                             
D000019006057601827915012012162200นาง ภัททิรา วีระกูล                               88868598            40210363                                07660497CCSH       0000001808000000                                                                             
D000020006057601827915012012165754นายชัยรัตน์ พัฒนจันทร์                            88369190            11313058                                10151588CCSH       0000001570300000                                                                             
D000021006057601827915012012170004นายประพันธ์  มุขเงิน  ทศ 9051                     8865-9884           1021-9365                               09760540CCSH       0000002420000000                                                                             
D000022006057601827915012012173441นายจำรัส  ผายสุวรรณ                               88759994            06218365                                04880055CCSH       0000001664000000                                                                             
D000023006057601827915012012173616นายปฏิภาณ สมดี ทศ5045                             88669390            50215364                                08691092CCSH       0000001432800000                                                                             
D000024006057601827915012012175101บุญเลิศ  เทศขำ                                    88888497            49252416                                08690542CCSH       0000000530000000                                                                             
D000025006057601827915012012175855นางมะลิ สุดสอาด                                   88279994            53216350            ทว6305              08510518CCSH       0000001700000000                                                                             
D000026006057601827915012012180224นาย ศราวุฒิ  สุขพัฒน์ ทล3986                      88289498            69213348                                08691827CCSH       0000001665500000                                                                             
D000027006057601827915012012180446นายศราวุฒิ  สุขพัฒน์ ทล3987                       88189498            79213348                                08691827CCSH       0000001665500000                                                                             
D000028006057601827915012012184010ไพจิตต์ กีรติพินิจ                                8847-9798           3621-7320                               05700127CCSH       0000001383600000                                                                             
T000029006057601827900000000000000000000000039998000000027                                                                                                                                                                                                      
