H0000010060576018279บริษัท ไทเอซ สิสซิ่ง จำกัด              18072011TALHO                                                                                                                                                                                       
D000002006057601827918072011084716พิรภัทรา                                          8887-9792           0921-7358                               06991739CCSH       0000001884200000                                                                             
D000003006057601827918072011085850นายสุวรรณ  ปรางทอง                                8826-9791           6621-9288                               05760270CCSH       0000000552800000                                                                             
D000004006057601827918072011090647นายเฉลา ฉางทรัพย์                                 8805-9398           4021-7360           ทศ 7004             00611046CCSH       0000001455300000                                                                             
D000005006057601827918072011091109นายพงษ์ศักดิ์  แหล่งสนาม ทว9904                   8877-8798           4921-9350                               04600072CCSH       0000002078700000                                                                             
D000006006057601827918072011094037นาย อนุกูล แก้ววิเชียร                            8866-9695           3721-7358           ทว 7783             01920913CCSH       0000001884200000                                                                             
D000007006057601827918072011100910นายทรง อ่อนใจ ทว 8576                             8857-9781           6521-8357                               04580699CCSH       0000001884200000                                                                             
D000008006057601827918072011100912นาง ดวงจันทร์ หันจางสิทธิ์                        8849-9890           5421-1342                               01900191CCSH       0000001590000000                                                                             
D000009006057601827918072011102612จุล เทพขาม                                        88079587            86214353                                10280503CCSH       0000002040300000                                                                             
D000010006057601827918072011104116นาย อรัญ ขาวเนตร ทร 5834                          88879794            48215333                                00651478CCSH       0000001642100000                                                                             
D000011006057601827918072011104348นาย อรัญ ขาวเนตร ทร 2398                          88269898            83212339                                00651478CCSH       0000001571500000                                                                             
D000012006057601827918072011105306นายไขแสง แสงโสฬส  ทย 6805                         8847-9797           5821-6320                               08450703CCSH       0000000030000000                                                                             
D000013006057601827918072011105747นายสมเกียรติ สีธงชัยรุ่งโรจน์ ทย 1584             8866-9987           4521-1328                               00820100CCSH       0000001448000000                                                                             
D000014006057601827918072011111949นายณัฐชัย  พลอยสมบูรณ์                            8835-9996           9621-7362           ทศ 7629             00651473CCSH       0000001889900000                                                                             
D000015006057601827918072011112801น.ส.สุวภัทร พรประภาศักดิ์ ทศ4918                  8846-9198           8921-4361                               01200722CCSH       0000001794600000                                                                             
D000016006057601827918072011113332ทวีศักดิ์  หารบุรุษ  ทล 2488                      8899-8798           8421-2348                               02530516CCSH       0000001665500000                                                                             
D000017006057601827918072011113949นายชนะชาติ ทับทิม                                 88978899            80312065                                05760932CCSH       0000000897000000                                                                             
D000018006057601827918072011115255วรเทพ ชมดวง                                       88179995            15215350                                02560119CCSH       0000001850000000                                                                             
D000019006057601827918072011121427นาย อิทธิโชติ  ทัดเทียม                           8828-8897           8221-2351                               07540984CCSH       0000001989000000                                                                             
D000020006057601827918072011121459นาย ชัยวัฒน์ โพธิ์เมืองเพีย มฉ85                  8819-9990           5031-0078                               00650326CCSH       0000001589600000                                                                             
D000021006057601827918072011121502นายพิเชษฐ แก้วมา                                  8817-9898           5721-2357                               05970617CCSH       0000001753000000                                                                             
D000022006057601827918072011122557นายกำพล นวปฎลชัยเขต ทล6874                        8878-9891           4821-6347                               04700511CCSH       0000001804400000                                                                             
D000023006057601827918072011123139นายวิโรจน์ แก่นจันทร์ มจ.6921                     8886-9493           1931-6062                               00560394CCSH       0000001059400000                                                                             
D000024006057601827918072011123531นายสมบัติ โคกลือชา                                8847-9683           2621-7352                               01980916CCSH       0000001700000000                                                                             
D000025006057601827918072011123706นายวิรุฬห์ภพ ศรีงาม ทย 7238                       8880-9198           8221-7323                               10154549CCSH       0000000295500000                                                                             
D000026006057601827918072011123830นายวิรุฬห์ภพ ศรีงาม ทย 7263                       8830-9298           3221-7326                               10154549CCSH       0000000295500000                                                                             
D000027006057601827918072011124308นาง วาสนา เชื้อศรี                                8898-9390           3021-0336                               05960038CCSH       0000000201200000                                                                             
D000028006057601827918072011125811ส.ต.อ.ชัยญา เชื้อหงษ์                             88479891            06218350                                00521049CCSH       0000001391200000                                                                             
D000029006057601827918072011131601นายสุพน หาบัณฑิต์                                 8835-9694           2421-6310           0865005446          10721605CCSH       0000000098500000                                                                             
D000030006057601827918072011132328นางสาว มะรินทร์ พรมโลกา                           8857-9587           6721-4355                               00470207CCSH       0000001912900000                                                                             
D000031006057601827918072011135042นางสุภาพรณ์ เทพทวี                                88679996            56214357                                09760107CCSH       0000001866500000                                                                             
D000032006057601827918072011135222นายอมร แสงสุวรรณ ทศ3455                           8836-9993           5421-3365           0802097077          10630233CCSH       0000001833500000                                                                             
D000033006057601827918072011135350นางพวงเพ็ญ ศิรพละ  ทว 3549                        8887-9997           9521-3354                               04585612CCSH       0000002116700000                                                                             
D000034006057601827918072011140324นายเฉลิมชัย จันทร์งาม ทร7332                      8847-9998           2321-7333                               00190024CCSH       0000001889800000                                                                             
D000035006057601827918072011140941พ.ต.ท.จิตติณัติ  รักชาติ ทศ6565                   8856-8298           5521-6366           0868844411          11300791CCSH       0000002248300000                                                                             
D000036006057601827918072011141525นส.นริสา จำนงนิตย์  ทม5651                        8887-9398           1621-5315                               10074338CCSH       0000000870000000                                                                             
D000037006057601827918072011142145นายไพศักดิ์ เทพแสง  ทร 2978                       8857-9982           8921-2337                               02540190CCSH       0000001088800000                                                                             
D000038006057601827918072011143348นายอนุสรณ์ วารีน้อย ทม 3403                       88178399            34213310                                01890658CCSH       0000000695500000                                                                             
D000039006057601827918072011144410นายพิกิจ ภูมิภาค ทศ2160                           8806-9887           0121-2366                               02501075CCSH       0000002346000000                                                                             
D000040006057601827918072011144538นายพิกิจ ภูมิภาค ทศ2106                           8816-9887           6121-2360                               02501075CCSH       0000002346000000                                                                             
D000041006057601827918072011144557นาย ดำรงค์  ด่านจำกัด  ทม  4812                   8897-9490           2821-4311                               09760820CCSH       0000000808500000                                                                             
D000042006057601827918072011151459นาย อภิศักดิ์ ลือเมือง ทร 5532                    88868897            25215333                                01481887CCSH       0000001198400000                                                                             
D000043006057601827918072011151515นางชลพรรณ แก้วสามสี ทว7583                        8817-9792           3521-7358                               10631143CCSH       0000001884200000                                                                             
D000044006057601827918072011151700สุนทร  จันทร                                      88679791            61218355                                01900549CCSH       0000001884200000                                                                             
D000045006057601827918072011152033นายทองสุข  ศรศิริ  มง 9654                        8867-8398           4631-9055                               08450703CCSH       0000000721700000                                                                             
D000046006057601827918072011153132สุรศักดิ์  อินทศร                                 8887-9386           9421-5354           ทว5449              08690266CCSH       0000002450000000                                                                             
D000047006057601827918072011153401นาง วินาพร ทองคลองไทร ทว 6336                     4857-9994           6321-6353                               10840692CCSH       0000001820300000                                                                             
D000048006057601827918072011154804นายนิยม  คนขยัน  มข9919                           8806-9397           9931-9021                               10360901CCSH       0000000833000000                                                                             
D000049006057601827918072011155451นายสมชัย ไทยสง่า โทร.0865712187                   88468599            53216334                                10070071CCSH       0000001414800000                                                                             
D000050006057601827918072011162436นาย อนุชา นนทภา ทว 8386                           88879391            63218358                                07680647CCSH       0000003356000000                                                                             
D000051006057601827918072011162643อรวรรณ ศรีสุวรรณเกศ                               88268599            69210333                                09761108CCSH       0000000250000000                                                                             
D000052006057601827918072011163137นายสุรชัย แก้วใจจง ทว9791                         88578989            17219359                                07930727CCSH       0000001884200000                                                                             
D000053006057601827918072011163608นายสรรเสริญ สีธงชัยรุ่งโรจน์ ทศ 5448              88068797            84215364                                07934224CCSH       0000001010600000                                                                             
D000054006057601827918072011164421มารีนา  ประกอบผล                                  8876-8798           3021-7359           ทว7093              08690266CCSH       0000000528000000                                                                             
D000055006057601827918072011165533นายวีระ ไพรณรงค์ มง3264                           8838-9291           4231-3056                               10360725CCSH       0000001074800000                                                                             
D000056006057601827918072011170107นายณัฐนนท์ นมนาน                                  8878-8989           8721-9344                               11060745CCSH       0000001700000000                                                                             
D000057006057601827918072011171608นายอดิศักดิ์  หันวิสัย                            8856-9693           6531-5067           มจ 5576             01730192CCSH       0000000500000000                                                                             
D000058006057601827918072011171623นายจุลพงษ์ สายบัว                                 88788999            30313077                                05971299CCSH       0000001700000000                                                                             
D000059006057601827918072011172434นางอุบลรัตน์  บัวเพ็ชร ทย1457                     8896-9192           7421-1325                               04880528CCSH       0000001769000000                                                                             
D000060006057601827918072011173102นางอุบลรัตน์  บัวเพ็ชร ทศ4094                     8886-9192           4021-4369                               04880528CCSH       0000002346000000                                                                             
D000061006057601827918072011173459นายบุญเลิศ เทศขำ ปอ2964                           8888-8497           4925-2416                               08691092CCSH       0000000680000000                                                                             
D000062006057601827918072011175108นางสาวเมตตา ตะคุณนะ ทว 4450                       8837-9687           0421-4355                               11521521CCSH       0000001938900000                                                                             
D000063006057601827918072011175135นายอภิรักษ์ ห้อยหวล ทม8269                        88979391            92218316                                10071100CCSH       0000000808500000                                                                             
D000064006057601827918072011175932นางมุกดา ประสงค์สุข  ทศ311                        8897-8988           1321-0361                               10074338CCSH       0000001884200000                                                                             
D000065006057601827918072011190916นาย อดิศักดิ์ เพ็ญคำ ทร 5301                      8876-8497           1321-5330                               09741083CCSH       0000001600000000                                                                             
T000066006057601827900000000000000000000000093594900000064                                                                                                                                                                                                      
