H0000010060576018279บริษัท ไทเอซ สิสซิ่ง จำกัด              23112011TALHO                                                                                                                                                                                       
D000002006057601827923112011085301นายชาตรี เวษาสิทธิ์                               8805-9495           7221-2321                               00282352CCSH       0000000699000000                                                                             
D000003006057601827923112011090529นายวิเชียร  ชื่นยินดี  ทศ 8397                    88559696            73218369                                08560585CCSH       0000001812300000                                                                             
D000004006057601827923112011090823นาย ชูเกียรติ โควเนตร ทว 1733                     88588897            37211353                                00600151CCSH       0000001799200000                                                                             
D000005006057601827923112011092110นางสาวเกตุนลิน ริ้วกระโทก ทศ6208                  8826-8897           8221-6360                               01771050CCSH       0000002060000000                                                                             
D000006006057601827923112011092602นายปรีดา พิลาแสน                                  88568697            93216285                                06921700CCSH       0000001069500000                                                                             
D000007006057601827923112011092606นางขวัญใจ กระจ่างโพธิ์                            8828-9796           6121-3316                               04650095CCSH       0000001449700000                                                                             
D000008006057601827923112011092711นายปรีดา พิลาแสน                                  8846-8697           5021-6282           ทพ 6025             06921700CCSH       0000001105700000                                                                             
D000009006057601827923112011094102นายจรัล เผยสกุล                                   88669595            77212361                                02580601CCSH       0000001918500000                                                                             
D000010006057601827923112011101757นางปราณี  บุญปก                                   8860-9897           0421-7320                               00390351CCSH       0000000906800000                                                                             
D000011006057601827923112011101947นายอธิชา สุวรรณไตร                                88869392            35217337                                00748904CCSH       0000001130700000                                                                             
D000012006057601827923112011102018นายสัญญา สาแก้ว                                   8816-7897           4021-3335           ทร3054              03970649CCSH       0000001212700000                                                                             
D000013006057601827923112011103257นายพิสิฐ  บุญมา  ทล 8113                          8848-9690           3121-8341                               06113856CCSH       0000001939200000                                                                             
D000014006057601827923112011104429สุภาภรณ์ อำนาจเจริญบิ่ง                           88579394            54216353                                01301035CCSH       0000000235500000                                                                             
D000015006057601827923112011104546นายประเสริฐ บุญเพ็ง                               8835-9894           6821-5338                               00530232CCSH       0000001435000000                                                                             
D000016006057601827923112011105820นายสมเดช แสงสิน ทล4522                            88189497            25214342                                04670086CCSH       0000001765800000                                                                             
D000017006057601827923112011110846นาง ภัทรินิษฐ์  ฉัตรมงคลชัย  ทร 3586              8828-8997           6521-3338                               02260835CCSH       0000001538600000                                                                             
D000018006057601827923112011112610นางขวัญหทัย ดีใจ                                  8847-9795           1721-5350                               04810743CCSH       0000001884200000                                                                             
D000019006057601827923112011113024นางนงนุช ซอวลี ทว607                              88588797            76210350            0846466119          01970387CCSH       0000000355800000                                                                             
D000020006057601827923112011113618นางกาญจนา ด่านวิริยะกุล                           88869896            96215323            ทย 5639             00950541CCSH       0000001121300000                                                                             
D000021006057601827923112011114359นาย ประเสริฐ แก้วจั่นเพ็ชร ทร 4128                8837-8398           8121-4332                               00510528CCSH       0000001550700000                                                                             
D000022006057601827923112011115504วุฒิชัย รักษจิตร                                  88769591            54315052                                02190805CCSH       0000000483800000                                                                             
D000023006057601827923112011115819นายวราวุฒิ จันทร์ประโคน ทว3900                    88879697            09213350                                02590600CCSH       0000001700000000                                                                             
D000024006057601827923112011120341คุณสุพจน์ ภาคฐิน                                  88469897            76211362                                10330484CCSH       0000001864400000                                                                             
D000025006057601827923112011120742นางสาวธาริณี แก้วผลึก                             88579096            51215355                                00330237CCSH       0000001884200000                                                                             
D000026006057601827923112011120939นางสาวพรรณ์สกุล  พันธ์พรหม                        88288998            66210355                                00981066CCSH       0000001838900000                                                                             
D000027006057601827923112011121713ฉัตรชัน งานไว                                     88574497            107028810                               07951972CCSH       0000001391000000                                                                             
D000028006057601827923112011123152มานพ ฉิมพล ษม2927                                 8877-9392           7937-2312                               01451492CCSH       0000000717200000                                                                             
D000029006057601827923112011130808นาย จักรกริช รอดทอง ทล 4743                       88489987            37214344                                01890658CCSH       0000001665500000                                                                             
D000030006057601827923112011131056นายจิตธง เทียนหิรัญชัยกุล                         88289998            16213341                                00390709CCSH       0000000942800000                                                                             
D000031006057601827923112011132545นายอนุสรณ์  วารีน้อย                              8836-9794           8521-6342                               01787080CCSH       0000001484700000                                                                             
D000032006057601827923112011133419พ.ต.ท.ประเจต  ภาพสมุทร                            88177697            65215343            ทล 5536             10250251CCSH       0000001700000000                                                                             
D000033006057601827923112011134125นางคูณ  เทศแท้                                    8857-9993           3721-6358                               03970257CCSH       0000001700000000                                                                             
D000034006057601827923112011135124นายประสิทธิ์ คำรักษ์                              88869991            51219332                                07601301CCSH       0000000732000000                                                                             
D000035006057601827923112011135226นาย สงบ  ระย้า มง 1372                            88069598            23311057                                04880062CCSH       0000000571000000                                                                             
D000036006057601827923112011135459นางสาวสมาภรณ์ พบพิมาย                             8855-9998           8621-6367           ทศ 6678             00820884CCSH       0000001874000000                                                                             
D000037006057601827923112011140223นายเจริญ น้อยชื่น                                 8818-9380           4031-3077                               02330063CCSH       0000001432800000                                                                             
D000038006057601827923112011140555นายสุเทพ แก้วฮ่องคำ  มฉ 7233                      8856-9895           3231-7073                               02540469CCSH       0000001515300000                                                                             
D000039006057601827923112011141153นายสมปอง โข่สูงเนิน                               88501799            107023859           มง6513              00950541CCSH       0000001023200000                                                                             
D000040006057601827923112011141842นายสุรศักดิ์ วิเศษปัดสา                           88528999            107094818                               02561757CCSH       0000001570000000                                                                             
D000041006057601827923112011144848นายพล ชะนะมี                                      88779796            12314078                                00390709CCSH       0000001799200000                                                                             
D000042006057601827923112011144935นายณัฐพล สนิท ทร9501                              8889-9093           1521-9330                               08560792CCSH       0000001284000000                                                                             
D000043006057601827923112011151513สุภาพร บุบผา ทศ1506                               8886-9697           65211360                                05690237CCSH       0000001884200000                                                                             
D000044006057601827923112011151958นายปรีชา พราวศรี                                  88288798            99210354                                05760932CCSH       0000000960000000                                                                             
D000045006057601827923112011152242นาย บัญชา สีจุ้ย                                  88169796            33212361                                10800129CCSH       0000001982000000                                                                             
D000046006057601827923112011153252นาย ประสูตร อินทรรักษ์ มช 1914                    88514399            106202231                               07627621CCSH       0000001883800000                                                                             
D000047006057601827923112011153339ด.ต.เสิม หยุ่นแก้ว ทว9322                         8846-9994           2321-9352           0898165953          01970387CCSH       0000001800000000                                                                             
D000048006057601827923112011153410นาย ประสูตร อินทรรักษ์ ทว 5810                    8807-9695           0821-5351                               07627621CCSH       0000001880000000                                                                             
D000049006057601827923112011153747นาย สุรศักดิ์ อินทศร  ทศ 8843                     8815-9994           3821-8364                               04581882CCSH       0000000235000000                                                                             
D000050006057601827923112011153853นาง จรรยา อินทศร ทว 825                           8816-7697           5821-0352                               04581882CCSH       0000001090800000                                                                             
D000051006057601827923112011170550นางพลอยงาม ทุ่งไธสงค์                             8825-9896           5221-8322                               00860473CCSH       0000000965000000                                                                             
D000052006057601827923112011173656นายระเริง หยูเอียด ทว9586                         8887-8499           6521-9358                               09700236CCSH       0000001884200000                                                                             
D000053006057601827923112011174659นายคำกอง ผดาศรี                                   8877-9495           2431-7054           มง7442              10151005CCSH       0000001100000000                                                                             
D000054006057601827923112011182513นายมงคล โตเอี่ยม ทล7184                           8848-9791           4121-7348                               08510017CCSH       0000001900000000                                                                             
T000055006057601827900000000000000000000000073729200000053                                                                                                                                                                                                      
