H0000010060576018279บริษัท ไทเอซ สิสซิ่ง จำกัด              20092011TALHO                                                                                                                                                                                       
D000002006057601827920092011090624นายอำนาจ เจียมเชื่อม  ทศ 2094                     8866-9596           4021-2369                               02530654CCSH       0000001884200000                                                                             
D000003006057601827920092011090709นายอำนาจ เจียมเชื่อม ทว 3760                      8817-9797           0721-3356                               02530654CCSH       0000001756700000                                                                             
D000004006057601827920092011090950ด.ต.  พชร  ดีพอ  มฉ 5607                          8817-9890           7631-5070                               04990266CCSH       0000001515300000                                                                             
D000005006057601827920092011092303นายบุญช่วย พิศาลภูรินาถ ทร 4094                   8866-8498           4021-4339                               04603236CCSH       0000001194700000                                                                             
D000006006057601827920092011094026นายนรชัย  แพงศร  ทว 7970                          88779192            09217357                                09760114CCSH       0000001884200000                                                                             
D000007006057601827920092011095019นางศิรินภา  จิตตะยะโสภณ  ทว4798                   88479596            87214359                                06921923CCSH       0000002384500000                                                                             
D000008006057601827920092011095536นายประกอบ ประทุมศรี  ทศ2817                       88769895            78212361                                10121673CCSH       0000001916700000                                                                             
D000009006057601827920092011095843นาย ประสิทธิ์ ฟังสันเทียะ มจ 5293                 8816-9396           3231-5069                               01200547CCSH       0000001753700000                                                                             
D000010006057601827920092011101139คุณ ปฐมพัฒน์                                      8828-9681           0831-2070                               02610090CCSH       0000001799200000                                                                             
D000011006057601827920092011101510พ.จ.อ.สิทธิพงศ์ น้อยแสง ทบ5767                    88537299            107075093                               00720058CCSH       0000000950000000                                                                             
D000012006057601827920092011102951นายกิตติพงศ์  กรศุภอานนท์                         88078899            20216310                                04690052CCSH       0000000005000000                                                                             
D000013006057601827920092011103607นายวสันต์ สุวรรณรังษี  ทล 7089                    8868-9682           9021-7348                               01200488CCSH       0000001595500000                                                                             
D000014006057601827920092011110216นาย อนันต์ ขำนิล  ทล 2176                         8809-8499           6121-2347                               11440224CCSH       0000001750000000                                                                             
D000015006057601827920092011110420นาย รณชัย อินช่วย มช 476                          8845-9995           6431-0087                               10900089CCSH       0000001697900000                                                                             
D000016006057601827920092011111353นางหนูกร คงศิริ ทศ2130                            88769896            01212363                                10070236CCSH       0000001884200000                                                                             
D000017006057601827920092011112101นาย อุดร ผาน้อยวงค์ ทล3562                        8868-9998           2521-3346                               02590600CCSH       0000001665500000                                                                             
D000018006057601827920092011112206นายสำเริง  กมุทชาติ                               8851-4499           107134447                               11470668CCSH       0000001079000000                                                                             
D000019006057601827920092011112446พ.ต.ท.สุเทพ ภูดวงเดือน ทม9460                     88459597            04219316                                02500607CCSH       0000001232200000                                                                             
D000020006057601827920092011113316นางสาว วัสมล โชติสิงห์                            88518699            104122412                               08001040CCSH       0000002037200000                                                                             
D000021006057601827920092011115007นายพงษ์เกียรติ บุญเส็ง                            88959696            57217310                                01630499CCSH       0000000167000000                                                                             
D000022006057601827920092011115406นส.วิยะดา   ยิ่งยงค์ ทศ 750                       8897-8197           0721-0365                               11521628CCSH       0000001884200000                                                                             
D000023006057601827920092011115455นายสมชาย ศิริรักษ์                                8856-9997           2521-5329                               00691107CCSH       0000000100000000                                                                             
D000024006057601827920092011115523นายอุเทน  เพชร์ทอง ทศ 754                         8887-8197           4721-0365                               11521628CCSH       0000001884200000                                                                             
D000025006057601827920092011122218นายสามารถ สุขเรือง                                88579886            53105318            ณม 5385             01520889CCSH       0000001100000000                                                                             
D000026006057601827920092011122256นางจิราภรณ์ เถื่อนอาราม                           8897-9096           4521-0325           ทย 554              02540756CCSH       0000001319700000                                                                             
D000027006057601827920092011122534นางเรณุกา  ขันทอง  ทศ  9728                       88528799            106198465                               04990266CCSH       0000001618700000                                                                             
D000028006057601827920092011125545นายพิสิฐ   บุญมา  ทล8113                          8848-9690           3121-8341                               11310028CCSH       0000001916700000                                                                             
D000029006057601827920092011125717นางประไพวรรณ หวานเย็น                             8815-9798           6521-3334                               00210676CCSH       0000001326800000                                                                             
D000030006057601827920092011125832นายไพวัลย์ พันธ์หนองหว้า ทว652                    88788898            26210355                                10520393CCSH       0000002240200000                                                                             
D000031006057601827920092011125848นรินทร์ ร่มลำดวน                                  88069297            40210320                                01371972CCSH       0000000096000000                                                                             
D000032006057601827920092011131513นายมงคล หลักทอง 0894564492                        8827-9881           0031-5061                               00140667CCSH       0000001352700000                                                                             
D000033006057601827920092011133946นายถวิล  จำเริญ                                   88178899            13219359            ทว9391              07990132CCSH       0000001476800000                                                                             
D000034006057601827920092011134146นายถวิล  จำเริญ                                   8827-9197           8021-4357           ทว4078              07990132CCSH       0000001476800000                                                                             
D000035006057601827920092011134322นายถวิล  จำเริญ                                   88179698            47212357            ทว2774              07990132CCSH       0000001476800000                                                                             
D000036006057601827920092011134744นางณัฏฐสิณี  อยู่พันธุ์                           88779784            07216351                                11730878CCSH       0000001784200000                                                                             
D000037006057601827920092011135702นางสาว หยาดอรุณ ศรีทับทิม                         88479297            79212335                                04710654CCSH       0000001763400000                                                                             
D000038006057601827920092011141311นายทองหล่อ โตวัตร ทล2406                          8819-8998           6421-2340                               10130538CCSH       0000001665500000                                                                             
D000039006057601827920092011141839นางสาว นภารัตน์  ปิมปา ทว 544                     8886-8899           4521-0354                               00339885CCSH       0000001782000000                                                                             
D000040006057601827920092011142346นายวิวัฒน์ ขันติพงษ์ ทว7699                       88479692            96217359                                07930727CCSH       0000001833500000                                                                             
D000041006057601827920092011142557นางสาว ศิรินทิพย์ สลุงอยู่ ทศ7643                 8895-9896           3621-7364                               04580699CCSH       0000001519900000                                                                             
D000042006057601827920092011143058นอ.แมน  ศึตะจิตต์                                 88559994            67218365                                11310957COTH       0000001541100000                                                                             
D000043006057601827920092011143245สฤษดิ์ศักดิ์ พินิจกุลดี                           88769787            40212363                                09761108CCSH       0000001918400000                                                                             
D000044006057601827920092011143850นายสมคิด อินตา ทย 1109                            8828-8197           9121-1320                               05670406CCSH       0000001551900000                                                                             
D000045006057601827920092011144042นางสลิล มะละต้น ทย 6326                           8818-9791           6321-6322                               04580699CCSH       0000001503000000                                                                             
D000046006057601827920092011144115นางธิดา  เนาวรัตน์                                88079993            28216359                                05756198CCSH       0000001897900000                                                                             
D000047006057601827920092011144249นางมุกดา ประสงค์สุข ทศ311                         88978988            13210361                                10071100CCSH       0000001884200000                                                                             
D000048006057601827920092011144433นายโยธิน มาดลย์ ทว 3506                           8837-9997           6521-3350                               04580699CCSH       0000001884200000                                                                             
D000049006057601827920092011145751นายชูเกียรติ โควเนตร                              88588897            37211353                                09760107CCSH       0000001799200000                                                                             
D000050006057601827920092011150720นายพิพัฒน์  ธัญญพืช มจ6337                        8867-8998           7331-6063                               05690088CCSH       0000001091600000                                                                             
D000051006057601827920092011152230นาง กองสี เหล่าตรี                                8830-9698           6821-6320           ทย6806              01950405CCSH       0000002100800000                                                                             
D000052006057601827920092011153805นายจักรพันธ์ เลี่ยมรัตน์                          88679794            73216350                                01480560CCSH       0000001677200000                                                                             
D000053006057601827920092011160120นายวินัย ผลดี                                     88979395            60218337            ทร8076              10250256CCSH       0000000030000000                                                                             
D000054006057601827920092011160820ด.ต.เสิม หยุ่นแก้ว ทล 7009                        8848-7497           9021-7340                               01971063CCSH       0000001700000000                                                                             
D000055006057601827920092011164822นางสาว กิตติพร ตรีศุภกานต์  ทศ 4090               8866-9192           0021-4369                               04780201CCSH       0000001918500000                                                                             
D000056006057601827920092011164957นางสาว กิตติพร ตรีศุภกานต์ ทศ 4088                8876-9192           8021-4368                               04780201CCSH       0000001918500000                                                                             
D000057006057601827920092011170712พ.ต.ท.ประเจต ภาพสมุทร ทล 5536                     8817-7697           6521-5343                               04881100CCSH       0000001700000000                                                                             
D000058006057601827920092011173842นางอาภาภรณ์ ไชยวรรณ ทย8393                        88478399            33218329                                07952158CCSH       0000001290000000                                                                             
D000059006057601827920092011174347นายนิทัศน์  สิริพุทธวณิชย์  มง 7512               88869591            25317051                                08690033CCSH       0000001294800000                                                                             
D000060006057601827920092011182412นาย ทศพล ผาช้างเผือก มฉ 4088                      88669296            80314078                                08450154CCSH       0000001700000000                                                                             
D000061006057601827920092011183518นาย อภิรักษ์ ห้อยหวล ทม8269                       88979391            92218316                                10070236CCSH       0000000810000000                                                                             
D000062006057601827920092011184820สุรศักดิ์  อินทศร                                 8815-9994           3821-8364                               08690542CCSH       0000002521200000                                                                             
D000063006057601827920092011184959นายนิวัฒน์ บุบผาสุพรรณ์                           88189893            85215343            ทล5538              10250256CCSH       0000001779800000                                                                             
D000064006057601827920092011185753นาย สมชาย หนองเส ทว 6335                          8846-9991           5321-6353                               08001040CCSH       0000001880500000                                                                             
D000065006057601827920092011192456นายสุรินทร์ ชูวงศ์วาน                             88269592            39312058                                07820430CCSH       0000000880300000                                                                             
T000066006057601827900000000000000000000000098043900000064                                                                                                                                                                                                      
