H0000010060576018279บริษัท ไทเอซ สิสซิ่ง จำกัด              08082011TALHO                                                                                                                                                                                       
D000002006057601827908082011083410นางสมควร หงษ์ทอง ทร 3964                          8806-9790           4921-3336                               04580699CCSH       0000001616900000                                                                             
D000003006057601827908082011084533นางสาวภัทรลภา โคตรสมบัติ มจ1615                   8857-9397           5631-1061                               02250511CCSH       0000000989800000                                                                             
D000004006057601827908082011090712นางลำยอง แพงจันทร์ศรี มจ6323                      8837-9191           3331-6062                               10860704CCSH       0000001658500000                                                                             
D000005006057601827908082011090949นางลำยอง แพงจันทร์ศรี ทว8569                      8887-9981           9521-8356                               10860704CCSH       0000002346000000                                                                             
D000006006057601827908082011091426นายณัฐพร ธนะเนตร ทล943                            8879-9491           3921-0344                               10130715CCSH       0000001110500000                                                                             
D000007006057601827908082011092559นาย ณัฐพล เผือกหอม ทว 7945                        88779492            59217354                                03780040CCSH       0000001432800000                                                                             
D000008006057601827908082011092752ศิรันภา  จิตตะยะโสภณ                              8847-9596           8721-4359                               06920406CCSH       0000002420000000                                                                             
D000009006057601827908082011093206น.ต.ธฤษณัช ปาลกะวงศ์ ณ อยุธยา                     88978599            45219354                                09621011CCLQ250625300000004500000170001                                                                         
D000010006057601827908082011093316นายสมบูรณ์  ดาทอง                                 88479495            79215353                                00911077CCSH       0000001992000000                                                                             
D000011006057601827908082011093901นายการุณ สาโรวาท ทร 7052                          88299497            20217335                                07330339CCSH       0000000295500000                                                                             
D000012006057601827908082011094909นาย อนุกูล แก้ววิเชียร ทว 3344                    8897-9098           4321-3354                               01921386CCSH       0000001799200000                                                                             
D000013006057601827908082011095018นาย อนุกูล แก้ววิเชียร ทว 5366                    8827-9786           6321-5356                               01921386CCSH       0000001884200000                                                                             
D000014006057601827908082011095131นาย อนุกูล แก้ววิเชียร ทว 6565                    8887-9984           5521-6356                               01921386CCSH       0000001884200000                                                                             
D000015006057601827908082011095310น.ส.อิงอร เอี่ยมวิไล                              8818-8988           7121-2352                               02490052CCSH       0000001700000000                                                                             
D000016006057601827908082011101402นางสาวสมพิตย์  อาสาเน                             8849-8297           6421-3347                               01440888CCSH       0000001694000000                                                                             
D000017006057601827908082011101423นางทองลา มุ่งดี ทย4844                            88379891            48214324                                02500607CCSH       0000001243300000                                                                             
D000018006057601827908082011102529มานิตย์ พลพฤกษ์ ทว746                             88088898            67210354                                01980212CCSH       0000001704200000                                                                             
D000019006057601827908082011102629นายชาตรี อินทรศักดิ์                              8828-9297           3521-4347                               10320156CCSH       0000001665500000                                                                             
D000020006057601827908082011102903นางภัทรินิษฐ์ ฉัตรมงคลชัย                         8828-8997           6521-3338           ทร 3586             10903618CCSH       0000003167200000                                                                             
D000021006057601827908082011105257นายสิทธิรัตน์ ศูนย์ผล ทว4273                      8837-9097           3221-4357                               04951583CCSH       0000001605200000                                                                             
D000022006057601827908082011105614นายวรวิทย์ ทิพนัด                                 8826-9993           5221-4326           ทย4265              03970649CCSH       0000000552800000                                                                             
D000023006057601827908082011105907อาคม มังกรทอง                                     88069495            98313054                                00360083CCSH       0000000620800000                                                                             
D000024006057601827908082011105943หจก.วินคาร์ ทล3594                                8809-8397           4521-3349                               00470473CCLQ302064500000016655000110131                                                                         
D000025006057601827908082011105959นางสาว สมหวัง นับกลาง(ทว 8493)                    8847-9291           3421-8359                               00540475CCSH       0000001884200000                                                                             
D000026006057601827908082011110209วิรัช อ่อนละออ                                    8867-9290           3021-9358                               06990912CCSH       0000002082100000                                                                             
D000027006057601827908082011111407นายสวัสดิ์ จันทร์งาม มจ9936                       88699291            69319063                                05710084CCSH       0000001665500000                                                                             
D000028006057601827908082011112420นายวสันติชัย แบนจาด                               8828-9396           3921-4343                               01800625CCSH       0000001665500000                                                                             
D000029006057601827908082011113559น.ส.อำพร  บุนลอด                                  8819-8397           7421-3346                               11470668CCSH       0000001665500000                                                                             
D000030006057601827908082011114012นางสาวสุวรรณี แก้วแจ่มใส                          8885-9396           0921-7362                               00951079CCSH       0000001386200000                                                                             
D000031006057601827908082011114044นาย วิชัย ตุลา ทย201                              8816-8697           1221-0320                               02590600CCSH       0000001543200000                                                                             
D000032006057601827908082011114341นายสมาน คนหลวง  ทว7908                            8837-9192           8921-7350                               11041367CCSH       0000001884200000                                                                             
D000033006057601827908082011115005นางมีสุข ตะคุณนะ                                  8805-9596           0921-9333           ทร 9930             02717487CCSH       0000000132800000                                                                             
D000034006057601827908082011115719ด.ต.พิพรรธ  แสนอินทร์ ทล3602                      8828-9193           2621-3340                               07620899CCSH       0000001450000000                                                                             
D000035006057601827908082011120519บัวเครือ  ริมเพชร                                 8877/8398           5921-9358           ทว 9985             04820528CCSH       0000001700000000                                                                             
D000036006057601827908082011121102นายไชยยา  กลมเกลี้ยง  ทว 7509                     88179683            95217350                                08401304CCSH       0000001896100000                                                                             
D000037006057601827908082011121511นางสุพรรณี ภูนุภา                                 48659997            62217367            ทศ7276              10720144CCSH       0000000300000000                                                                             
D000038006057601827908082011121615นางสุพรรณี ภูนุภา                                 88059797            62217367            ทศ7276              10720144CCSH       0000001756700000                                                                             
D000039006057601827908082011122621นาย พงษ์ศักดิ์  บริบูรณ์  ทล 7467                 8818-9391           7421-7346                               01951095CCSH       0000001787500000                                                                             
D000040006057601827908082011122638นางสาว พนิดา แสงรัมย์ ทศ8069                      8825-9096           9021-8366                               04650665CCSH       0000001519900000                                                                             
D000041006057601827908082011123133นางราตรี ศรีคันธะรักษ์                            8828-9594           0521-6310                               10620473CCSH       0000003850000000                                                                             
D000042006057601827908082011123537นายพุฒิพัฒน์   พีรชัยทัศน์  ทว 9161               8897-9290           1121-9356                               04670063CCSH       0000001918500000                                                                             
D000043006057601827908082011124108เนาวรัตน์ บุญเงิน                                 8865-9597           4621-4352                               05755751CCSH       0000001617900000                                                                             
D000044006057601827908082011131317นายประกอบ ประทุมศรี มง3608                        88869895            86313050                                10120044CCSH       0000000030000000                                                                             
D000045006057601827908082011132403น.ส.วิไลวรรณ เครือบุตร ทล1131                     8897-9786           1121-1343                               10720930CCSH       0000001550700000                                                                             
D000046006057601827908082011132733นายบัณฑิต เลาะวิเศษ                               8819-9291           3221-1340                               01880134CCSH       0000001769800000                                                                             
D000047006057601827908082011133415นายสุริเยศ   โรจน์สุธี  มฉ8064                    8846-9392           4031-8076                               04585612CCSH       0000001439000000                                                                             
D000048006057601827908082011133525คุณวินัย แสงปาน                                   88768998            36318072                                01271033CCSH       0000001052200000                                                                             
D000049006057601827908082011134312นายศรีทน กองงาม มฉ 5335                           8817-9093           5331-5073                               04603236CCSH       0000002204000000                                                                             
D000050006057601827908082011134611นาย สมชาย พงษ์เวช                                 8805-9894           6921-5318           ทม 5986             00600443CCSH       0000000995100000                                                                             
D000051006057601827908082011134631นาย ชาตรี ขุนติเศษ ทศ3616                         8876-9493           6621-3361                               10710012CCSH       0000001617900000                                                                             
D000052006057601827908082011140458นาย  กมล  แต้มสว่าง                               88689590            42218336                                00910199CCSH       0000001738200000                                                                             
D000053006057601827908082011140620นาย  กมล  แต้มสว่าง                               88788699            43216326                                00910199CCSH       0000001617000000                                                                             
D000054006057601827908082011141203นายวิทณา อ่อนคำหล้า ทศ 6463                       8806-8697           3421-6366                               02530654CCSH       0000001874000000                                                                             
D000055006057601827908082011141204นายทวีศักดิ์ แหวนหล่อ มฉ 9692                     8865-9598           2631-9079                               01871097CCSH       0000001874000000                                                                             
D000056006057601827908082011141721นาย ธันวา ณะ ธรรม ทร 5231                         8807-9096           1221-5333                               07540593CCSH       0000001350800000                                                                             
D000057006057601827908082011143316นาย พรชัย ศักดิ์เดชะมณี  ทล 6984                  88367397            49216348                                02260509CCSH       0000000110000000                                                                             
D000058006057601827908082011143421นาย พรชัย ศักดิ์เดชะมณี  ทพ 6377                  88199696            73216287                                02260509CCSH       0000000207000000                                                                             
D000059006057601827908082011143500นาย พรชัย ศักดิ์เดชะมณี  ทล 6984                  88367397            49216348                                02260509CCSH       0000000301500000                                                                             
D000060006057601827908082011143834นางสำรวย เดชเถร ทศ 9474                           88559193            44219367                                07930727CCSH       0000001867300000                                                                             
D000061006057601827908082011144803นางประทวน เขียวแล ทศ4012                          8886-9692           2021-4361                               10370371CCSH       0000001883500000                                                                             
D000062006057601827908082011145012นายจักรพันธ์ ขำเกื้อ                              8828-9793           4921-5344                               01810675CCSH       0000001617900000                                                                             
D000063006057601827908082011145528นายจิตตกร โกษากุล                                 88369392            61214369            ทศ 4196             10720144CCSH       0000001998200000                                                                             
D000064006057601827908082011145841นางสาว พรนภา  พันธ์ประดิษฐ์                       8857-9297           3321-4358           ทว4383              00970410CCSH       0000001804000000                                                                             
D000065006057601827908082011150819ปรัญชัย สาธิต                                     8877-9786           2431-4074                               00980224CCSH       0000001734300000                                                                             
D000066006057601827908082011151010นายสถาพร เมฆแก้ว                                  8876-8498           2731-5057                               01521090CCSH       0000000500000000                                                                             
D000067006057601827908082011152036นายมานะ  ปานนพภา                                  8888-9196           7921-4345                               00640493CCSH       0000001595500000                                                                             
D000068006057601827908082011152052ธีระศักดิ์ สุประภากร ทว8163                       88779791            31218356                                00980134CCSH       0000001897900000                                                                             
D000069006057601827908082011153715นายแพง  พงษ์สุกรี ทว 3301                         8897-9888           1321-3350                               11521628CCSH       0000001700000000                                                                             
D000070006057601827908082011153829นายแพง  พงษ์สุกรี ทว 3291                         8887-9888           1221-3359                               11521628CCSH       0000001700000000                                                                             
D000071006057601827908082011153948นายสำราญ  พงษ์สุกรี ทว 161                        8898-8789           1121-0356                               11521628CCSH       0000005317700000                                                                             
D000072006057601827908082011154135นายแพง  พงษ์สุกรี ทล 7305                         8828-9192           5321-7340                               11521628CCSH       0000001432600000                                                                             
D000073006057601827908082011163358นาย  วิทยา  แซ่จึง  ทล 5945                       8807-7797           5921-5344                               09760820CCSH       0000001805000000                                                                             
D000074006057601827908082011170531นายลำดวน  วงสา ทล 2832                            8896-8799           2821-2343                               11521628CCSH       0000001374400000                                                                             
D000075006057601827908082011170839นายกิตติศักดิ์ นาสวน ทล802                        8819-9791           2821-0340                               05671599CCSH       0000001034800000                                                                             
D000076006057601827908082011173747นางเพ็ชรไพลิน รัศมี ทย885                         8861-9192           5821-0328                               10150884CCSH       0000001056000000                                                                             
D000077006057601827908082011174835K.มณีรัตน์ ชูมณี                                  88078999            08219351                                10810271CCSH       0000001650000000                                                                             
D000078006057601827908082011175256นายสมชาย ณรงค์ศักดิ์ ทล2282                       8897-8399           2221-2348                               10720930CCSH       0000001561700000                                                                             
D000079006057601827908082011181226สมนึก  ทัพน้อย ทศ2375                             8826-9496           5321-2367                               07990174CCSH       0000001884200000                                                                             
D000080006057601827908082011190153ยุทธชัย พ. ทว9032                                 8877-9490           2021-9353                               10360281CCSH       0000000292500000                                                                             
T000081006057601827900000000000000000000000122642600000079                                                                                                                                                                                                      
