H0000010060576018279บริษัท ไทเอซ สิสซิ่ง จำกัด              08122011TALHO                                                                                                                                                                                       
D000002006057601827908122011084253นางเปรมฤดี  สวัสดี                                88544299            104115854                               01740029CCSH       0000002006700000                                                                             
D000003006057601827908122011085134คงศักดิ์ รุ่งรัตน์ ทษ1242                         88501699            104124915                               11300564CCSH       0000001867300000                                                                             
D000004006057601827908122011091929นายอำนาจ เจียมเชื่อม ทว 3760                      8817-9797           0721-3356                               02530654CCSH       0000001756700000                                                                             
D000005006057601827908122011094415นายไพรัช เข็มหนู                                  88679295            00216355                                01610661CCSH       0000001799200000                                                                             
D000006006057601827908122011094636นายณรงค์ ภู่กรุต ทศ8418                           88359395            84218361                                02150700CCSH       0000002632000000                                                                             
D000007006057601827908122011094909นางสาว วาสนา   จันทร์เพ็ชร                        88511199            104122851                               08560865CCSH       0000002067000000                                                                             
D000008006057601827908122011095026นางพิชชาภา โพธิ์ศรี                               8890-8897           7521-5333                               01340917CCSH       0000001184500000                                                                             
D000009006057601827908122011095748นายกังวาน  มุมทอง ทว 9084                         88779790            40219358                                04690052CCSH       0000001799200000                                                                             
D000010006057601827908122011100509คุณสงกรานต์ แก้งกงพาน                             8837-9291           1321-8359                               00240918CCSH       0000001903500000                                                                             
D000011006057601827908122011101757นาย มงคล  คุณประทุม                               88979192            09217351                                07580556CCSH       0000000120500000                                                                             
D000012006057601827908122011102441นายอำนวย  รวยภิรมย์                               88079691            34315071                                05760270CCSH       0000001931500000                                                                             
D000013006057601827908122011104327นายอนุสรณ์ วารีน้อย                               88968599            93219310                                07990501CCLQ537005100000024967000040766                                                                         
D000014006057601827908122011104456นายสมชาย ศรีละพรม                                 88468998            00211336                                10900901CCSH       0000002950000000                                                                             
D000015006057601827908122011110532นาย พงษ์ศักดิ์ บริบูรณ์  ทล 7467                  8818-9391           7421-7346                               04581882CCSH       0000001787500000                                                                             
D000016006057601827908122011110630นายทวีศักดิ์ แหวนหล่อ                             8865-9598           2631-9079                               01880134CCSH       0000001874000000                                                                             
D000017006057601827908122011111227นายปฏิภาณ  สมดี                                   88669390            50215364            0892327289          04600142CCSH       0000001432800000                                                                             
D000018006057601827908122011111305จ.ส.อ.  ศักดิ์  สะราคำ  มจ  3148                  88378897            81313064                                01980820CCSH       0000001170600000                                                                             
D000019006057601827908122011111330นางสาวสุวรรณี  แก้วแจ่มใส                         88859396            09217362                                00950177CCSH       0000001386200000                                                                             
D000020006057601827908122011111722นางสมพร อินทะแสง  ทว3088                          88979398            80213358                                02590096CCSH       0000001700000000                                                                             
D000021006057601827908122011112936นายสมศักดิ์ ลีประโคน                              88069190            61215367                                02610862CCSH       0000001946800000                                                                             
D000022006057601827908122011113521นายธันยา บุญเพิ่ม                                 88069998            73211364            ทศ 1347             04712940CCSH       0000001884200000                                                                             
D000023006057601827908122011114406นายอำพัน ศรีโพธิ์                                 88589297            26214343                                05760270CCSH       0000001561200000                                                                             
D000024006057601827908122011114643คุณ วิชิต เลียงเล็กจำนงค์                         88538099            104119018                               08800757CCSH       0000001922300000                                                                             
D000025006057601827908122011115504นายเสริฐ ทีฆาวงค์ ถส2576                          88269893            65202387                                01481481CCSH       0000000898900000                                                                             
D000026006057601827908122011115524นายอาคม มังกรทอง มง3849                           88069495            98313054                                00367352CCSH       0000000620300000                                                                             
D000027006057601827908122011120901นายโกศล เที่ยงสันเทียะ                            88537399            104118653                               00840766CCSH       0000001955900000                                                                             
D000028006057601827908122011121450นางสาวสุรันท์ แก้วเผือก                           88168999            50097400                                09760107CCSH       0000000312100000                                                                             
D000029006057601827908122011122525นายอนุรักษ์ รักษาศิริ ทศ 6458                     88968597            84216365                                04603236CCSH       0000001874000000                                                                             
D000030006057601827908122011122527นายสิทธิพร ถาระโท ทร 3644                         88520499            107131544                               01746989CCSH       0000001500000000                                                                             
D000031006057601827908122011123131นางสาว นงนุช  กาฬภักดี ทว78                       88288099            80210357                                04650044CCSH       0000001700000000                                                                             
D000032006057601827908122011124149นายอภิรัตน์  ภู่ศิริ ทย2404                       88179295            44212320                                01760442CCSH       0000000300000000                                                                             
D000033006057601827908122011124159สรณีย์ สมอทอง                                     88523799            107059702                               00530572CCSH       0000001264800000                                                                             
D000034006057601827908122011124226นายณรงค์ ประทุมวัน ถน 2630                        8897-9686           0620-2233                               09660036CCSH       0000000700000000                                                                             
D000035006057601827908122011130108อรวรรณ ศรีสุวรรณเกศ                               88569492            82214288                                09760107CCSH       0000001380000000                                                                             
D000036006057601827908122011131810พิไลวรรณ ทองดี                                    88869196            16212363                                00490410CCSH       0000001515300000                                                                             
D000037006057601827908122011132350วิทยา  แซ่จึง                                     8837-9886           2121-5356                               00650498CCSH       0000002190500000                                                                             
D000038006057601827908122011132958นายธันวา ณะธรรม                                   8807-9096           1221-5333           ทร 5231             10900901CCSH       0000000560000000                                                                             
D000039006057601827908122011140604สมเด็จ บุญเพชร                                    88869197            46211367                                01080545CCSH       0000001925000000                                                                             
D000040006057601827908122011141121น.ส.บัวเครือ  ริมเพชร  ทว9985                     88778398            59219358                                00750201CCSH       0000001734000000                                                                             
D000041006057601827908122011145240นางสาวสุรทิพย์ อินทรสูต                           88513899            107103711                               05760270CCSH       0000000068500000                                                                             
D000042006057601827908122011145948นายกิตติพงศ์ กรศุภอานนท์                          88978799            70212320                                01880018CCSH       0000001590000000                                                                             
D000043006057601827908122011150033นายกิตติพงศ์ กรศุภอานนท์                          88078899            20216310                                01880018CCSH       0000001590000000                                                                             
D000044006057601827908122011151423นายสมาน คนหลวง                                    88379192            89217350                                11041298CCSH       0000001884200000                                                                             
D000045006057601827908122011151559นางสายพิณ พรมประดิษ                               88546989            104116364                               04660099CCSH       0000002105500000                                                                             
D000046006057601827908122011153659หจก.วิน คาร์                                      88098397            45213349                                00470242CCSH       0000001665500000                                                                             
D000047006057601827908122011155030นายวานิช พานะคุณ มฉ4344                           88178197            43314074                                01951095CCSH       0000001800000000                                                                             
D000048006057601827908122011155814นายนรชัย  แพงศร  ทย 7678                          88069996            86217327                                09760540CCSH       0000001271600000                                                                             
D000049006057601827908122011174810SANGTHONG  M.                                     88979587            60215350                                08510239CCSH       0000001501500000                                                                             
D000050006057601827908122011183654นาย สมชาย แซ่ตั้ง                                 88998297            74213349                                08450262CCSH       0000001346800000                                                                             
D000051006057601827908122011183931สัญญา  บุญประเทือง  ทว 7302                       8847-9093           2321-7350                               10720208CCSH       0000007927800000                                                                             
D000052006057601827908122011191844นายสมเจตน์ จงพินิจ ทว 1956                        88534989            106133589                               01730895CCSH       0000001444500000                                                                             
T000053006057601827900000000000000000000000085807100000051                                                                                                                                                                                                      
