H0000010060576018279บริษัท ไทเอซ สิสซิ่ง จำกัด              23012012TALHO                                                                                                                                                                                       
D000002006057601827923012012083939นาย สมเกียรติ  สีธงชัยรุ่งโรจน์                   8836-9095           7621-2312                               00650498CCSH       0000001414800000                                                                             
D000003006057601827923012012084131นาย สมศักดิ์  สีธงชัยรุ่งโรจน์                    8837-9884           0421-0315                               00650498CCSH       0000001414800000                                                                             
D000004006057601827923012012084721น.ส.ดวงจันทร์  โมฆรัตน์                           88667697            02216358            ทว.6280             01446513CCSH       0000001884200000                                                                             
D000005006057601827923012012085244คุณกนิษฐา  อินฉาย                                 88571798            107080859                               01760442CCSH       0000000487200000                                                                             
D000006006057601827923012012085910นายวิเชียร   ชื่นยินดี   ทศ8397                   88559695            73218369                                08560865CCSH       0000001812300000                                                                             
D000007006057601827923012012090232นายวิรัช ยิ้มถาวร                                 88508299            107084136           มจ 1399             00540034CCSH       0000001212700000                                                                             
D000008006057601827923012012091141นายประเสริฐศรี  สุวรรณภูมิ                        88577498            005002558                               04600072CCSH       0000000324600000                                                                             
D000009006057601827923012012091525ภูพนา  ทองสมบูรณ์                                 88079990            66218353            0837181117          04600142CCSH       0000001799200000                                                                             
D000010006057601827923012012091750พล ชะนะมี มฉ4281                                  88779796            12314078                                01990939CCSH       0000001833500000                                                                             
D000011006057601827923012012094538นาย  พิสุทธิ์  ลุนพรม                             88501299            107096962                               00910199CCSH       0000000535600000                                                                             
D000012006057601827923012012103112นายสุวัฒน์ ตั้งตระกูล ทพ914                       88501899            104123798                               07930240CCSH       0000001867300000                                                                             
D000013006057601827923012012103250สมร  ราวินิช                                      88488899            57210340                                02500872CCSH       0000000780000000                                                                             
D000014006057601827923012012103732น.ส.วิวรรณ ละม้ายโสม ทว 9387                      88778699            73219358            0853579553          02173494CCSH       0000002000000000                                                                             
D000015006057601827923012012104129นางสาวนิรัชดา  สว่างจิตร                          88228098            14215314                                01081088CCSH       0000000050000000                                                                             
D000016006057601827923012012104339นายสุนทร บุญเกิด                                  88503599            107075019                               03960529CCSH       0000001159200000                                                                             
D000017006057601827923012012104439นายสุนทร บุญเกิด / ทว7578                         88069292            85217357                                03960529CCSH       0000001800000000                                                                             
D000018006057601827923012012104455นายสุนัย พรมไพโรจน์                               88547899            107159104                               09761108CCSH       0000001374400000                                                                             
D000019006057601827923012012104539นายสุนทร บุญเกิด                                  88504599            107107351                               03960529CCSH       0000001159200000                                                                             
D000020006057601827923012012110136สุกัญญา มีชัย                                     88868597            04216369                                07542228CCSH       0000001839700000                                                                             
D000021006057601827923012012110727น.อ.ธวัชชัย  วิไลลักษณ์                           88505799            000104558                               00060533CCSH       0000002150000000                                                                             
D000022006057601827923012012111127นางทองจันทร์  โพธิ์ศรี                            88520599            107117401                               00610680CCSH       0000001239000000                                                                             
D000023006057601827923012012112118นายวิรุฬห์ภพ  ศรีงาม                              8830-9298           3221-7326                               02680010CCSH       0000000715250000                                                                             
D000024006057601827923012012112211นายวิรุฬห์ภพ  ศรีงาม                              8880-9198           8221-7323                               02680010CCSH       0000000715250000                                                                             
D000025006057601827923012012113300นางพลอยงาม ทุ่งไธสงค์ ทย 8225                     8825-9896           5221-8322                               00860740CCSH       0000000965000000                                                                             
D000026006057601827923012012113503นางลำยอง แพงจันทร์ศรี                             88879981            95218356                                04040492CCSH       0000002346000000                                                                             
D000027006057601827923012012114406นายอั๋น   แป้งใส   ทย5825                         8877-9688           5821-5322                               04670545CCSH       0000001447100000                                                                             
D000028006057601827923012012115757อำนาจ  เจียมเชื่อม ทศ 6549                        88568497            95216364                                02530516CCSH       0000001856500000                                                                             
D000029006057601827923012012115922นางบุณยานิตย์  ศิริรักษ์ ทร 3896                  8898-8297           6821-3339                               01930068CCSH       0000001058600000                                                                             
D000030006057601827923012012120817นายสุเทพ แก้วฮ่องคำ                               88569895            32317073                                01900804CCSH       0000001515300000                                                                             
D000031006057601827923012012121414นายกมล แต้มสว่าง ทล 8488                          88289590            84218348                                05700496CCSH       0000001800000000                                                                             
D000032006057601827923012012121550นายกมล แต้มสว่าง ทล 8133                          88189690            31218343                                05700496CCSH       0000001800000000                                                                             
D000033006057601827923012012121607นายทน กองเกตุใหญ่ มฉ 6034                         88878999            40316073                                02530554CCSH       0000001884200000                                                                             
D000034006057601827923012012123739นฤมล ลมสูงเนิน                                    88517699            106199002                               05700906CCSH       0000001575000000                                                                             
D000035006057601827923012012124216นายวราวุฒิ จันทร์ประโคน                           88879697            09213350                                02590096CCSH       0000001700000000                                                                             
D000036006057601827923012012125946นายสมศักดิ์   อะโน  ทล 2494                       8897-9792           4421-2349                               08510045CCSH       0000001767500000                                                                             
D000037006057601827923012012130414นายวานิช ศรีบุญเรือง                              88379991            36212320                                02610077CCSH       0000001592000000                                                                             
D000038006057601827923012012130805นายสมพงษ์ ใจดี                                    88379196            33314077                                11898928CCSH       0000002672300000                                                                             
D000039006057601827923012012131022ชูเกียรติ โควเนตร                                 88588897            37211353                                09761108CCSH       0000001799200000                                                                             
D000040006057601827923012012131136นายมานัส มุงบัง                                   88521699            099246185                               00640867CCSH       0000000485000000                                                                             
D000041006057601827923012012132229สุรีรัตน์ เอี่ยมอำพร                              8837-9796           0021-5353                               00410849CCSH       0000001329600000                                                                             
D000042006057601827923012012133307ธนวันต์  เปี่ยมวรนันท์                            88079596            09214359                                11241241CCSH       0000001500300000                                                                             
D000043006057601827923012012134720นางจินตรัตน์ คุทัยพยัคฆ์ ทว 5650                  88079995            06215355                                04670492CCSH       0000001884200000                                                                             
D000044006057601827923012012141405นาง กิ่งวิวรรณ์ กระแสโสม ทศ7198                   88359997            81217369                                02590600CCSH       0000001705000000                                                                             
D000045006057601827923012012141642นางณัฎฐินันท์ ทองน้อย/ทศ 9896                     88525899            104119553                               05670826CCSH       0000001716700000                                                                             
D000046006057601827923012012141832อุไรวรรณ  นุตตะโยธิน                              88168898            14213329            089-050-7177        04600142CCSH       0000001391000000                                                                             
D000047006057601827923012012142350นาย ธีระ เสือทอง                                  88889398            68213340                                02501874CCSH       0000000973500000                                                                             
D000048006057601827923012012142506นายธีระ เสือทอง                                   88889398            68213340                                02501874CCSH       0000001665500000                                                                             
D000049006057601827923012012142944นาย วรรณชัย วิมูลคำ                               8847-9793           6831-4078                               02561499CCSH       0000001700000000                                                                             
D000050006057601827923012012143248อัศวิน อิ่มพันธ์ ทษ544                            88516799            106199481                               02610535CCSH       0000000100000000                                                                             
D000051006057601827923012012143429นันท์นภัส พิพิธพัทธอาภา  ทษ 659                   88512599            104121266                               01980820CCSH       0000002069400000                                                                             
D000052006057601827923012012144529นายเจริญ แสงแดง                                   88379390            18210347                                00540018CCSH       0000001764300000                                                                             
D000053006057601827923012012144623นางสาวอรวรรณ  ศรีสุวรรณเกศ  ทล 8232               88789490            22218343                                09760114CCSH       0000001700000000                                                                             
D000054006057601827923012012144847กาญจนา ด่านวิริยะกุล                              88869896            96215323                                07620859CCSH       0000000030000000                                                                             
D000055006057601827923012012150357นางสาวเกตุนลิน ริ้วกระโทก                         88268897            82216360            ทศ 6208             01770861CCSH       0000002060000000                                                                             
D000056006057601827923012012151102บุญช่วย พิศาลภูรินาถ                              88668498            40214339                                04607752CCSH       0000000080000000                                                                             
D000057006057601827923012012151151นายสุรพล  อันทวงษ์ ทล 1223                        8867-9486           3221-1342                               00820726CCSH       0000001484700000                                                                             
D000058006057601827923012012151428สมบูรณ์ สนศรี ทว4927                              88079496            79214352                                10270539CCSH       0000001756700000                                                                             
D000059006057601827923012012151600นาย อดิศร  ซอและ ทล 1296                          88959695            6221-1349                               05699910CCSH       0000001494000000                                                                             
D000060006057601827923012012151929นายสุชาติ อิ่มอร่าม                               8848-9398           8821-3346                               01880134CCSH       0000001261500000                                                                             
D000061006057601827923012012152933นายกิมชัย แซ่อือ ทว 4806                          88179896            68214350                                10130538CCSH       0000001673100000                                                                             
D000062006057601827923012012153357นายพรเทพ ชื่นจำรัส                                88269192            25214323                                00650260CCSH       0000001447000000                                                                             
D000063006057601827923012012153505นายพรเทพ ชื่นจำรัส                                88269192            25214323                                00650260CCSH       0000001447000000                                                                             
D000064006057601827923012012153748นายบุญเลิศ  เทศขำ  ปอ2964                         88888497            49252416                                08690033CCSH       0000000670000000                                                                             
D000065006057601827923012012154224ด.ต.เสิม หยุ่นแก้ว                                88469994            23219352                                01971063CCSH       0000001800000000                                                                             
D000066006057601827923012012154225นายสรรเสริญ สีธงชัยรุ่งโรจน์ ทล2637               8835-9596           7621-2343                               07931067CCSH       0000001302400000                                                                             
D000067006057601827923012012154355นายสรรเสริญ สีธงชัยรุ่งโรจน์ ทร 7039              88545499            107142777                               07931067CCSH       0000001172300000                                                                             
D000068006057601827923012012154508นายบุญเลียน สุขจิตต์                              88578998            73316065                                10071091CCSH       0000001430000000                                                                             
D000069006057601827923012012155826นายชำนาญ  สินสำอางค์                              88573998            107122095                               02170215CCSH       0000001576500000                                                                             
D000070006057601827923012012160258นายอมฤต  สนิทขำ                                   88069195            99212360                                11140161CCSH       0000001888500000                                                                             
D000071006057601827923012012170643นางธิดา  เนาวรัตน์                                8807-9993           2821-6359                               05756198CCSH       0000001897900000                                                                             
D000072006057601827923012012174902นายชาญชัย  แซ่ปัง                                 88069095            70213368                                05756198CCSH       0000001998200000                                                                             
D000073006057601827923012012175005นายสงบ  ระย้า                                     88069598            23311057            มง1372              04881604CCSH       0000000572000000                                                                             
D000074006057601827923012012175047นายชาญชัย   แซ่ปัง                                88547889            104116003                               05756198CCSH       0000001867300000                                                                             
D000075006057601827923012012180900นายอนุสรณ์ วารีน้อย                               8836-9794           8521-6342                               10061102CCSH       0000001484700000                                                                             
D000076006057601827923012012181807บัญชา สีจุ้ย                                      88169796            33212361                                11521521CCSH       0000001982000000                                                                             
D000077006057601827923012012182725นาย พิชิตชัย ดวงจรัส ทล885                        88968398            58210348                                10070203CCSH       0000001070600000                                                                             
D000078006057601827923012012183438นาย บัญญัติ แก่นจันทร์                            88259594            05310075                                09621104CCSH       0000001408400000                                                                             
D000079006057601827923012012191345นายจิรเดช โพธิ์สว่าง                              88078797            68218356                                07627621CCSH       0000001385700000                                                                             
T000080006057601827900000000000000000000000111571900000078                                                                                                                                                                                                      
