H0000010060576018279บริษัท ไทเอซ สิสซิ่ง จำกัด              14012012TALHO                                                                                                                                                                                       
D000002006057601827914012012110111นางสาว วรกมล  บุญมา                               8846-8398           8021-6365                               08550648CCSH       0000002352600000                                                                             
D000003006057601827914012012110358นางสัญญา จันเวียง                                 88519699            106112638                               11370605CCSH       0000001775100000                                                                             
D000004006057601827914012012111815ประกาศ หลุมทอง                                    88979394            96210315                                10070071CCSH       0000000860000000                                                                             
D000005006057601827914012012112943คุณ พรนัชชา เนตรจุ้ย ทร7533                       88534899            107145883                               11250101CCSH       0000000681100000                                                                             
D000006006057601827914012012114546เหมราช เนื่องพิมพ์ ทล2922                         88389983            29212342                                10270539CCSH       0000001748600000                                                                             
D000007006057601827914012012121031นาง รำพึง  แดงเกาะโพธิ์  ทว2349                   8846-9493           9321-2354                               04880528CCSH       0000001800000000                                                                             
D000008006057601827914012012122417นายพิษณุ ด้วยสาร ทย4415                           88679795            54214321                                10150884CCSH       0000001670000000                                                                             
D000009006057601827914012012130308นางรัชนี อยู่บำรุง ทม6787                         88507989            107079819                               11140702CCSH       0000001449100000                                                                             
D000010006057601827914012012130607นายพลานุภาพ อุ่นฤกษ์                              88517399            107161333                               04831051CCSH       0000000041600000                                                                             
D000011006057601827914012012141215นายกิตติพงศ์ กรศุภอานนท์ ทย 2990                  8877-8599           0921-2329                               00860606CCSH       0000001650000000                                                                             
D000012006057601827914012012150429นายสุนันท์ วิเศษเนตร                              88559895            81216332                                01730481CCSH       0000000500000000                                                                             
D000013006057601827914012012154256นางณัฐพร  ผลเกลี้ยง                               88479894            77210318                                07661135CCSH       0000001067400000                                                                             
D000014006057601827914012012154456นาย พิเชษฐ์ ศรีหาประทุม ทล 3731                   8858-9598           1721-3343                               00470881CCSH       0000001170000000                                                                             
D000015006057601827914012012174411นางจิราภรณ์  เถื่อนอาราม  ถย 554                  88979096            45210325                                04700190CCSH       0000000235500000                                                                             
D000016006057601827914012012181430นาย ธงชัย ปลัดศรี                                 8867-9683           6421-7354                               08780348CCSH       0000000177400000                                                                             
D000017006057601827914012012185626นาย จิรเดช  โพธิ์สว่าง  ทว8866                    88078797            68218356                                04880528CCSH       0000000529100000                                                                             
T000018006057601827900000000000000000000000017707500000016                                                                                                                                                                                                      
