H0000010060576018279บริษัท ไทเอซ สิสซิ่ง จำกัด              26012012TALHO                                                                                                                                                                                       
D000002006057601827926012012083021นางสาว ทองไสย สิงห์น้อย ทศ5736                    88068898            67215363                                00251980CCLQ351506300000002500000020109                                                                         
D000003006057601827926012012083324นางสาว ทองไสย สิงห์น้อย ทศ5736                    88068898            67215363                                00251980CCSH       0000001550000000                                                                             
D000004006057601827926012012084612นายขวัญชัย บุญนาค                                 88503799            106203179                               01820662CCSH       0000001733300000                                                                             
D000005006057601827926012012090133นายหวัน กาฬภักดี                                  88504199            107039670           ทพ 8919             07410893CCSH       0000001025500000                                                                             
D000006006057601827926012012091543นายมงคล  มูลมณี                                   8868-9793           7031-2071                               06920406CCSH       0000001688700000                                                                             
D000007006057601827926012012092019นาย คณินทร์ นึ่งพุดซา                             88572298            107029741                               02250416CCSH       0000000579600000                                                                             
D000008006057601827926012012095720คุณสุวรรณ ชัยชนะ                                  88513499            104121190                               04710654CCSH       0000002069400000                                                                             
D000009006057601827926012012102136นายสมพงษ์ ดารักษ์                                 88969391            35210349                                04950529CCSH       0000000958000000                                                                             
D000010006057601827926012012102459ทัศนี จันทจร                                      88069695            95216316                                00800173CCSH       0000001069000000                                                                             
D000011006057601827926012012102828นายประภูศํกดิ์ บุญอำนวย                           8878-9897           6131-1073                               00281171CCSH       0000000932100000                                                                             
D000012006057601827926012012103351นายเทพดุสิต  แก้วกลางเมือง                        88518499            106115604                               01440888CCSH       0000001328000000                                                                             
D000013006057601827926012012103526นายชาตรี เวษาสิทธิ์                               8805-9495           7221-2321                               00281171CCSH       0000000699200000                                                                             
D000014006057601827926012012104323นายสมเด็จ บุญเพชร                                 88869197            46211367            ทศ1674              04930415CCSH       0000000900000000                                                                             
D000015006057601827926012012104347นายอนุรักษ์ แซ่คู                                 88588898            76213352                                01410125CCSH       0000001700000000                                                                             
D000016006057601827926012012105316นายบุญเทิด มาชุมแสง                               8877-9593           2031-5072                               01700742CCSH       0000001734300000                                                                             
D000017006057601827926012012110156นางเสน่ห์ อินสุ                                   88779690            47218358                                01900804CCSH       0000001652200000                                                                             
D000018006057601827926012012110724นางนงนุตร  แก้วสุวรรณ                             88389493            23213311                                01270439CCSH       0000001500000000                                                                             
D000019006057601827926012012111228นายาสำรสย จางนอก                                  88368897            62216360                                00571548CCSH       0000001006600000                                                                             
D000020006057601827926012012111715นาย สิทธิศักดิ์ หมายมั่น  มฉ 4985                 8857-9093           5931-4078                               04581882CCSH       0000001700000000                                                                             
D000021006057601827926012012111951นายณัฐพล สนิท ทร 9501                             88542299            107150402                               08560792CCSH       0000001284000000                                                                             
D000022006057601827926012012112629เสกสรรค์ กลิ่นรอด ทว4998                          88479496            89214359                                01990939COTH       0000001799200000                                                                             
D000023006057601827926012012112730นาย สุรชัย  แก้วจงใจ                              88578989            17219359                                00640201CCSH       0000001884200000                                                                             
D000024006057601827926012012115247นายพลอย  เถาว์พุดซา                               88488898            77210352                                00610756CCSH       0000001700000000                                                                             
D000025006057601827926012012120556คุณเกรียงศักดิ์                                   88279487            65214356                                01900804CCSH       0000001419000000                                                                             
D000026006057601827926012012121057สนิท ดอดกระโทก                                    8836-9195           2221-8334                               02540078CCSH       0000001019100000                                                                             
D000027006057601827926012012121302นายสมชาติ จันทร์ฤดี                               88569797            04211368                                00170444CCSH       0000001884200000                                                                             
D000028006057601827926012012122147นาย วรพงศ์ พูลพิพิธ                               8818-9591           7321-1311           ทม1317              10250012CCSH       0000000173000000                                                                             
D000029006057601827926012012122337นายประเสริฐ คุ้มชู ทศ 1272                        88169498            22211367                                00560394CCSH       0000000911800000                                                                             
D000030006057601827926012012122935นายวัฒนา เทพแสง                                   88516899            107065424                               01900719CCSH       0000001303500000                                                                             
D000031006057601827926012012124000นายพรรษ เสริมทอง มจ2830                           8835-9796           0831-2063                               01746989CCSH       0000001437400000                                                                             
D000032006057601827926012012125459นายมงคล  หลักทอง                                  88279881            00315061                                05760270CCSH       0000001385000000                                                                             
D000033006057601827926012012135632นายวิรุฬห์ภพ ศรีงาม ทย7238                        8880-9198           8221-7323                               02680531CCSH       0000000361500000                                                                             
D000034006057601827926012012135712นายวิรุฬห์ภพ ศรีงาม ทย7263                        8830-9298           3221-7326                               02680531CCSH       0000000361500000                                                                             
D000035006057601827926012012140111นางสาวหยาดอรุณ ศรีทับทิม                          8847-9297           7921-2335                               04710157CCSH       0000001750000000                                                                             
D000036006057601827926012012140545คนัน สมบูรณ์พันธ์                                 88279493            80217351                                09760107CCSH       0000001983500000                                                                             
D000037006057601827926012012142724นายนิพนธ์ โง่นใจรัก ทว7760                        88479792            07217356                                01211627CCSH       0000001884200000                                                                             
D000038006057601827926012012143135นายสันต์ชัย  ฤทธิ์เทพ ทษ965                       88502799            104122463                               01781712CCSH       0000001891700000                                                                             
D000039006057601827926012012144632นายเลิศพร แสนบรรดิษฐ์                             88478197            25215334                                00740562CCSH       0000001629500000                                                                             
D000040006057601827926012012145054นาย ศราวุธ แก้วแกมเกษ                             88789591            51217348                                01720563CCSH       0000001829200000                                                                             
D000041006057601827926012012145228นายอัศวิน อิ่มพันธ์ ทษ 544                        88516799            106199481                               02610535CCSH       0000000100000000                                                                             
D000042006057601827926012012150013นายสุริยา  จินาวรณ์                               8856-8998           5921-1314                               00650498CCSH       0000001370100000                                                                             
D000043006057601827926012012151458สาคร นามใจยา                                      88779397            10215336                                01100754CCSH       0000001580000000                                                                             
D000044006057601827926012012153255นายเจริญ จันทร์แสนตอ                              88079492            72315072                                10720567CCSH       0000000235500000                                                                             
D000045006057601827926012012153322นางสาวสภาภรณ์ พบพิมาย                             8855-9998           8621-6367                               02610077CCSH       0000001839700000                                                                             
D000046006057601827926012012153611ธาริณี                                            8807-9597           5521-9334                               10520869CCSH       0000001583600000                                                                             
D000047006057601827926012012154313นายพิเชษฐ นาคพน มฉ1140                            88503399            107161265                               05690237CCSH       0000001333000000                                                                             
D000048006057601827926012012154838นายจรัล เผยสกุล ทศ 2717                           88669595            77212361                                02580367CCSH       0000001918500000                                                                             
D000049006057601827926012012160252นายอดิศักดิ์ บำรุงเรือง                           8896-8497           8721-7348                               04580699CCSH       0000001491100000                                                                             
D000050006057601827926012012162908นางสุดาทิพย์  เอี่ยมอิทธิฤทธิ์  ทษ 35             88521599            104119718                               09760540CCSH       0000000030000000                                                                             
D000051006057601827926012012171948วีระ ยุบลพริ้ง ทว 6589                            88369887            95216358                                10320746CCSH       0000001550000000                                                                             
D000052006057601827926012012174046นายธีรศักดิ์   ตั้งวิรุฬห์รัตน์                   88279596            27214355                                08553235CCSH       0000001918500000                                                                             
D000053006057601827926012012181204นางสุพัตรา ภิรมย์ขวัญ ทว8951                      88379790            19218355                                08691092CCSH       0000001884200000                                                                             
D000054006057601827926012012185217ร.ท.จักรกฤษณ์ เพียรพิจิตร                         88379697            97219369                                11520403CCSH       0000001720000000                                                                             
T000055006057601827900000000000000000000000070521600000053                                                                                                                                                                                                      
