H0000010060576018279บริษัท ไทเอซ สิสซิ่ง จำกัด              27112011TALHO                                                                                                                                                                                       
D000002006057601827927112011112521จ.ส.อ. ประดิษฐ์   ยุบลนวน                         88189898            06213341                                08560865CCSH       0000001447900000                                                                             
D000003006057601827927112011113353สมรภูมิ กุลสุวรรณ์ มง7695                         88769294            56317059                                08561493CCSH       0000001181500000                                                                             
D000004006057601827927112011115247นายสรรเสริญ สีธงชัยรุ่งโรจน์ ทร7039               88559494            90217333                                07930727CCSH       0000001172300000                                                                             
D000005006057601827927112011133010คุณผิว ศรีเนตร                                    88789696            87214345                                10320156CCSH       0000001713000000                                                                             
D000006006057601827927112011133312นายอำพล ชื่นแย้ม                                  88968898            80319073                                10660506CCSH       0000000647300000                                                                             
D000007006057601827927112011150850ภัทรพันธุ์ จำปาเนตร                               8810-9397           5321-7329                               04770442CCSH       0000000329100000                                                                             
D000008006057601827927112011152331นายประยุทธ ศรีอำนาจ                               88507699            100104553                               10330064CCSH       0000001908400000                                                                             
D000009006057601827927112011152407นายวุฒิชัย มูลกลาง ทว4828                         8897-9696           8821-4352                               04670086CCSH       0000001884200000                                                                             
D000010006057601827927112011160912นายณรงค์ ภู่กรุต ทศ6858                           88459798            88216365                                07960037CCSH       0000003216000000                                                                             
D000011006057601827927112011161015นายณรงค์ ภู่กรุต ทศ6818                           88259998            88216361                                07960037CCSH       0000003216000000                                                                             
D000012006057601827927112011161146นายณรงค์ ภู่กรุต ทศ6877                           88559798            78216367                                07960037CCSH       0000003216000000                                                                             
D000013006057601827927112011161707วีระ ยุบลพริ้ง ทว6589                             8836-9887           9521-6358                               10050566CCSH       0000001550000000                                                                             
D000014006057601827927112011192952วิรัช อ่อนละออ                                    88502399            106155697                               04700261CCSH       0000001530600000                                                                             
T000015006057601827900000000000000000000000023012300000013                                                                                                                                                                                                      
