H0000010060576018279บริษัท ไทเอซ สิสซิ่ง จำกัด              06102011TALHO                                                                                                                                                                                       
D000002006057601827906102011083742หจก.วินคาร์                                       88098397            45213349                                00470242CCLQ708050 00000016655000110180                                                                         
D000003006057601827906102011084116นายสะเอื้อน คชวงศ์ ทย2552                         88506799            204012001                               01761687CCSH       0000000869400000                                                                             
D000004006057601827906102011085220นางสาวนฤชล มณีรัตน์   ทร 5728                     8827-8597           8721-5332                               00000516CCSH       0000001772500000                                                                             
D000005006057601827906102011091835นายไพทูลย์ คงเพ็ชรศักดิ์                          88500899            106127708                               10900089CCSH       0000001426700000                                                                             
D000006006057601827906102011092807นางสาวศิริกานดา  ทานุรัตน์                        8856-9987           6921-1365                               03970257CCSH       0000001799200000                                                                             
D000007006057601827906102011092946นาย เจนณรงค์ อินทร์สอาด ทม 6604                   8847-9790           4621-6310                               00771064CCSH       0000000700000000                                                                             
D000008006057601827906102011100843นายแอน หวังผล                                     88659495            94218361                                11600073CCSH       0000000258100000                                                                             
D000009006057601827906102011102456นาย ดอเลาะ มูเนาวาเราะห์                          88087497            00215340                                00821044CCSH       0000001494000000                                                                             
D000010006057601827906102011103159คุณ สมหวัง นับกลาง ทว 8493                        88479291            34218359                                01731321CCSH       0000001884200000                                                                             
D000011006057601827906102011110120นาย เชาว์วัศ หล้าสุดตา ทว 5002                    8897-9196           2021-5350                               01200547CCSH       0000001776500000                                                                             
D000012006057601827906102011110204นาง  กรรณิการ์  สุบัญสุทธิ์  ทย 615               88533899            107093646                               07580556CCSH       0000000681100000                                                                             
D000013006057601827906102011110542นาง  พรนัชชา   เนตรจุ้ย  ทร7533                   88534899            107145883                               07580556CCSH       0000000681100000                                                                             
D000014006057601827906102011110931นายสุรพล วัฒนบุตร                                 88526599            107046884                               01081088CCSH       0000001409000000                                                                             
D000015006057601827906102011112100วิวรรณ ละม้ายโสม                                  88778699            73219358            วิวรรณ ละม้ายโสม/08502173494CCSH       0000001221000000                                                                             
D000016006057601827906102011113102นาย อรัญ  ขาวเนตร  ทย 9264                        8867-8599           4221-9326                               09760540CCSH       0000001289000000                                                                             
D000017006057601827906102011113239นายบัวลา ทองขาว                                   88515799            106124969                               01210478CCSH       0000001716500000                                                                             
D000018006057601827906102011113413ร.ท.วิไล ลูกบัว                                   88769592            63210352                                00650260CCSH       0000002690500000                                                                             
D000019006057601827906102011114041นางสุดาทิพย์ เอี่ยมอิทธิฤทธิ์                     88521599            104119718                               09760107CCSH       0000002057300000                                                                             
D000020006057601827906102011115104นายอิทธิพงศ์  อินทรีย์                            8888-9781           9731-2076                               01550091CCSH       0000001800000000                                                                             
D000021006057601827906102011120923คุณจำเนียร ศรีคำมุง                               8856-9894           0931-9061                               04710654CCSH       0000001444100000                                                                             
D000022006057601827906102011121221นายวรวิทย์ ทิพนัด                                 88169190            85213339            ทร3598              03970649CCSH       0000000663400000                                                                             
D000023006057601827906102011121544น.ส.สายันต์ ศรีวงศ์ษา                             88778397            76210368                                01880018CCSH       0000001995000000                                                                             
D000024006057601827906102011125106นางสาว สุปราณี ธนูศิลป์                           88589780            18218346                                10070203CCSH       0000001640400000                                                                             
D000025006057601827906102011125211นาง ประไพวรรณ  หวานเย็น ทว 3987                   88279397            79213358                                00510019CCSH       0000001700000000                                                                             
D000026006057601827906102011125501นายเจริญ จันทร์แสนตอ                              8807-9492           7231-5072                               10720567CCSH       0000001880000000                                                                             
D000027006057601827906102011131140นายเวชสิทธิ์ สุขสุมิตร มฉ7979                     8836-9297           9931-7077                               04731281CCSH       0000001565300000                                                                             
D000028006057601827906102011131255นายมานะ เกตุชาญ                                   88542199            107102705                               01900719CCSH       0000001447000000                                                                             
D000029006057601827906102011131830นาย ชนินทร์ อ่อนใจเอื้อ                           88889682            37312071                                00660527CCSH       0000001778300000                                                                             
D000030006057601827906102011132022นาย กรชาล จันทะเอ                                 88857697            26218352                                10070203CCSH       0000001979500000                                                                             
D000031006057601827906102011132913นายพงษ์ศักดิ์ บริบูรณ์ ทล7467                     8818-9391           7421-7346                               06930091CCSH       0000001787500000                                                                             
D000032006057601827906102011133029นางสาวนุชนารถ แจ่มศุภพันธ์                        8896-7297           8821-5353                               06930091CCSH       0000001700000000                                                                             
D000033006057601827906102011134216นายอนันต์ สิงห์น้อย                               88179398            80213353                                04951583CCSH       0000001790940000                                                                             
D000034006057601827906102011134250นายสมชาย    ณรงค์ศักดิ์  ทล2282                   8897-8399           2221-2348                               02590911CCSH       0000001553700000                                                                             
D000035006057601827906102011134619นายสมเกียรติ สีธงชัยรุ่งโรจน์ ทย 7214             88869995            42217321                                07930240CCSH       0000001483300000                                                                             
D000036006057601827906102011142109น.ส.พนิดา แสงรัมย์ ทศ 8069                        88259096            90218366                                03960529CCSH       0000001519900000                                                                             
D000037006057601827906102011143140น ส อุไร ชูศักดิ์ ทร 9232                         8849-9094           2221-9333                               10151588CCSH       0000000034300000                                                                             
D000038006057601827906102011150228นาย สมศักดิ์ อะโน  ทล 2494                        8897-9792           4421-2349                               04700190CCSH       0000001567000000                                                                             
D000039006057601827906102011151452นายวันเฉลิม เกษตรสินธุ์                           88388988            63211352                                11520403CCSH       0000001764300000                                                                             
D000040006057601827906102011151513นายสำเนียง แก้วมณี                                88523499            104121142                               02610862CCSH       0000001867300000                                                                             
D000041006057601827906102011151756ด.ต.สุวนัย เสาศิริ ทศ2867                         8876-9195           7821-2366                               04781103CCSH       0000001863200000                                                                             
D000042006057601827906102011151849ด.ต.สุวนัย เสาศิริ ทศ2620                         8866-9986           0621-2362                               04781103CCSH       0000000167000000                                                                             
D000043006057601827906102011152118นายเจริญ ชัชวาลย์  มฉ5973                         88078499            39315077                                00651470CCSH       0000001977000000                                                                             
D000044006057601827906102011152321นางสาวภัคจิรา เอี่ยมนอก ทศ 6600                   8895-9396           0621-6360                               01730571CCSH       0000001617800000                                                                             
D000045006057601827906102011152945วีระศักดิ์ ศรีสมุทร                               88989091            77217342                                10365296CCSH       0000001789800000                                                                             
D000046006057601827906102011153154นาง มาลาศรี ทองชา                                 88521499            107130390                               01230882CCSH       0000001330000000                                                                             
D000047006057601827906102011155915นายสมยศ คูนคร                                     88989391            44217341            ทล7414              01528111CCSH       0000001561200000                                                                             
D000048006057601827906102011162017นายเมธา  วงษาแก้ว  ทล 7708                        88189981            87217340                                05701141CCSH       0000001700000000                                                                             
D000049006057601827906102011173753นางวรรณภา เจริญอินทร์                             88269690            12215361                                07997991CCSH       0000003241900000                                                                             
D000050006057601827906102011174817นายบารมี ศรีสงคราม                                88259893            99212346            ทล.2969             07990541CCSH       0000001300000000                                                                             
D000051006057601827906102011180539นาย จักรชัย ลมัยกุล                               8816-9890           2831-1065                               09620092CCSH       0000001627000000                                                                             
D000052006057601827906102011181740วิชัย ตุลา                                        88168697            12210320                                10320746CCSH       0000001543200000                                                                             
T000053006057601827900000000000000000000000078070940000051                                                                                                                                                                                                      
