H0000010060576018279บริษัท ไทเอซ สิสซิ่ง จำกัด              25072011TALHO                                                                                                                                                                                       
D000002006057601827925072011083311นางสาวทองไสย สิงห์น้อย ทศ5736                     8806-8898           6721-5363                               00250088CCLQ688788 00000002000000140022                                                                         
D000003006057601827925072011083430นางสาวทองไสย สิงห์น้อย ทศ5736                     8806-8898           6721-5363                               00250088CCSH       0000001600000000                                                                             
D000004006057601827925072011084333นางสาวดวงพร ภาระจ่า ทศ 7701                       8875-9696           1721-7360                               02530554CCSH       0000002042700000                                                                             
D000005006057601827925072011085051นายทวี  สาระแสน ทล1965                            8819-8699           5921-1346                               05943955CCSH       0000001589600000                                                                             
D000006006057601827925072011085438นาย อุทัย การเกษ                                  8857-8197           8221-6324                               00821044CCSH       0000001067000000                                                                             
D000007006057601827925072011085949นายเสน่ห์ ยิกุสังข์ ทล 3055                       8879-8897           5021-3345                               10292512CCSH       0000001504500000                                                                             
D000008006057601827925072011090113นายเสน่ห์ ยิกุสังข์ ทล 3055                       8879-8897           5021-3345                               10292512CCSH       0000000034240000                                                                             
D000009006057601827925072011091812นายวีระยุทธ เคลือบคนโท                            8857-9795           0721-5358           ทว 5780             01521824CCSH       0000002012500000                                                                             
D000010006057601827925072011092055นายคำพันธ์  พุ่มจันทร์                            8887-9693           5721-4344                               00820465CCSH       0000001626100000                                                                             
D000011006057601827925072011094029นาย อนุกูล แก้ววิเชียร                            8846-9591           3921-1366           ทศ 1963             01920913CCSH       0000001884200000                                                                             
D000012006057601827925072011094204นาย อนุกูล แก้ววิเชียร                            8876-9590           2821-4360           ทศ 4802             01920913CCSH       0000001884200000                                                                             
D000013006057601827925072011094306นาย อนุกูล แก้ววิเชียร                            8868-9190           4421-8345           ทล 8454             01920913CCSH       0000001700000000                                                                             
D000014006057601827925072011094814นายสุทิน เจาะจง ทล8122                            8808-9690           2121-8342                               01200548CCSH       0000001596200000                                                                             
D000015006057601827925072011094839นางนพชนก มิศกะเสวตร์ วก 1799                      8825-9397           9735-1019                               00601118CCSH       0000000850000000                                                                             
D000016006057601827925072011095331นาย สมนึก เจริญโชติตะวัน  มฉ 2203                 8848-9892           3231-2070                               04581882CCSH       0000001700000000                                                                             
D000017006057601827925072011095807นางสาวจิราพร กองประมูล                            8859-8897           7121-3340                               04710157CCSH       0000001476200000                                                                             
D000018006057601827925072011100845นายสมเกียรติ  สีธงชัยรุ่งโรจน์ ทย 2867            8806-9595           7821-2326                               10630571CCSH       0000001596700000                                                                             
D000019006057601827925072011102130นางสาว พวงเพ็ญ ศิริพละ ทว 4189                    8817-9297           9121-4358                               04580699CCSH       0000002116700000                                                                             
D000020006057601827925072011102219างสาว พวงเพ็ญ ศิริพละ ทว 4158                     8827-9297           8121-4355                               04580699CCSH       0000002116700000                                                                             
D000021006057601827925072011102229นายมานพ กณ์งูเหลือม ทร4086                        88059597            60214338                                01440144CCSH       0000000404300000                                                                             
D000022006057601827925072011102300นายพลอย เถาว์พุดซา ทว727                          8848-8898           7721-0352                               00610756CCSH       0000001700000000                                                                             
D000023006057601827925072011103938สมศักดิ์ วังสมอ                                   8886-9391           9021-3334                               01890216CCSH       0000001495600000                                                                             
D000024006057601827925072011105243มงคล โตเอี่ยม                                     88489791            41217348                                07966650CCSH       0000001886500000                                                                             
D000025006057601827925072011105539นางเข็มทอง สงเคราะห์ ทศ1520                       8876-9897           0521-1362                               04600072CCSH       0000001515300000                                                                             
D000026006057601827925072011105636นางเข็มทอง สงเคราะห์ ทว7880                       8857-9492           0821-7358                               04600072CCSH       0000000315500000                                                                             
D000027006057601827925072011105723นางกาญจนา ด่านวิริยะกุล                           8898-9297           3521-4329                               02561757CCSH       0000001598700000                                                                             
D000028006057601827925072011110113นายวัชรินทร์ จงดูกลาง                             88869295            66214312                                03833635CCSH       0000000886600000                                                                             
D000029006057601827925072011110125นางสาว นวลจันทร์  แก้วทอง ทว452                   8836-9492           2421-0355                               04880528CCSH       0000001910000000                                                                             
D000030006057601827925072011110231นายคงฤทธิ์  ผดาวัลย์  ทล  1683                    8889-9290           3621-1348                               03970523CCSH       0000001665500000                                                                             
D000031006057601827925072011111252นางวชิราภรณ์ แสงใจหนัก                            88168397            15216364            ทศ6541              01528111CCSH       0000001658600000                                                                             
D000032006057601827925072011111313นาง มุยรี นนทรีย์                                 8877-9994           6121-6357                               01950405CCSH       0000001523800000                                                                             
D000033006057601827925072011111509นางวชิราภรณ์ แสงใจหนัก                            88688997            35211359            ทว1593              01528111CCSH       0000001789800000                                                                             
D000034006057601827925072011112132นาย  จุมพล  เหมือนจีน  ทศ  686                    8826-8597           6621-0368                               09760820CCSH       0000000998700000                                                                             
D000035006057601827925072011112248พิสิฐพงศ์ พันจำปา                                 88959397            23212359                                04710657CCSH       0000001877300000                                                                             
D000036006057601827925072011113728นาย ปวเรศ วงษ์อามาตย์ ทศ 1965                     8836-9990           5921-1366                               04881100CCSH       0000001519000000                                                                             
D000037006057601827925072011114025นาย ประสงค์  แก้วใส                               8868-7697           2221-0337                               00360243CCSH       0000000529100000                                                                             
D000038006057601827925072011114833นายโชคชัย สาคะวัตร                                88259696            77217369                                04710657CCSH       0000001846600000                                                                             
D000039006057601827925072011115221นางนงนุตร แก้วสุวรรณ ทม3312                       88389493            23213311                                01266669CCSH       0000001480000000                                                                             
D000040006057601827925072011115453นายพิทยา ผิวผ่อง                                  8838-8499           6131-7078                               00338952CCSH       0000001700000000                                                                             
D000041006057601827925072011115553ชัยณรงค์  เชียงศรี                                8888-9694           6221-7348                               00397779CCSH       0000001943900000                                                                             
D000042006057601827925072011115823นาย อนันต์ ขำนิล                                  8809-8499           6121-2347                               00920555CCSH       0000001766300000                                                                             
D000043006057601827925072011120118นางสลิล มะลิต้น ทล 24                             8818-9995           4021-0342                               01734121CCSH       0000001667000000                                                                             
D000044006057601827925072011120246นายทวี นากนิยม                                    88379197            53214351                                01880018CCSH       0000001671700000                                                                             
D000045006057601827925072011121101นาย สมชาติ จันทร์ฤดี                              88569797            04211368                                00170047CCSH       0000001884200000                                                                             
D000046006057601827925072011121209สุชาติ อิ่มอร่าม                                  8848-9398           8821-3346                               02540078CCSH       0000000201200000                                                                             
D000047006057601827925072011121503นาง ภัสรา  เรศสุข  ทศ  2334                       8876-9694           4321-2363                               08400047CCSH       0000001800000000                                                                             
D000048006057601827925072011121558นาง ภัสรา  เรศสุข  ทศ  3492                       8876-9693           2421-3369                               08400047CCSH       0000001799200000                                                                             
D000049006057601827925072011121607นายธารา กล้าหาญ                                   88789990            98312072                                02600066CCSH       0000001799200000                                                                             
D000050006057601827925072011123811นาง แสงเดือน เพ็ชรนิล ทล55339                     8868-9893           9521-5343                               07830119CCSH       0000001617900000                                                                             
D000051006057601827925072011124045นายบวร วันเพ็ญ ทว826                              8828-8698           6821-0352                               06925867CCSH       0000001884200000                                                                             
D000052006057601827925072011124157นางสาวอรวรรณ ศรีสุวรรณเกศ                         88268599            69210333                                09760107CCSH       0000000279000000                                                                             
D000053006057601827925072011124514ด.ต.เสิม หยุ่นแก้ว ทศ 1962                        8806-9391           2921-1366                               01971063CCSH       0000001739400000                                                                             
D000054006057601827925072011124907ด.ต.เสิม หยุ่นแก้ว ทศ 7818                        8885-9496           8821-7361                               01971063CCSH       0000001812300000                                                                             
D000055006057601827925072011125327นายศราวุธ  แก้วแกมเกษ                             8878-9591           5121-7348                               00070106CCSH       0000001873500000                                                                             
D000056006057601827925072011125520นางธมน จันทะเหล็ก ทศ 1476                         8866-9897           6421-1367                               02501075CCSH       0000001918500000                                                                             
D000057006057601827925072011125654นิธิพัฒน์    บังเกิดคงคาดิษฐ์   ทศ 8429           88959795            94218362                                04670063CCSH       0000002546900000                                                                             
D000058006057601827925072011125821นายอริย์ธัช วิสาติ                                8867-9990           5421-8356           ทว 8465             00820884CCSH       0000001385700000                                                                             
D000059006057601827925072011125852นายวชิระ บุญศักดิ์ศรี มฉ2750                      8868-9981           0731-2075                               10360725CCSH       0000001853500000                                                                             
D000060006057601827925072011130934นาย นิสิต หล่อดี ทย 3722                          8887-9592           2721-3322                               08000757CCSH       0000001451700000                                                                             
D000061006057601827925072011131001นาย  นรชัย  แพงศร  ทศ  2128                       8896-9896           8121-2362                               09760820CCSH       0000001884200000                                                                             
D000062006057601827925072011131504นาง นงคราญ คำมอญ ทล 9527                          8848-8599           7521-9342                               04581882CCSH       0000002036500000                                                                             
D000063006057601827925072011131530นางสาคร  คำภูเงิน                                 8867-7197           2621-5329                               04220973CCSH       0000001193500000                                                                             
D000064006057601827925072011131614นาง นงคราญ คำมอญ ทล  7464                         8828-9591           4421-7346                               04581882CCSH       0000002036500000                                                                             
D000065006057601827925072011133031นายแพน ชนะพาล                                     8876-9695           4331-7071                               05760270CCSH       0000001705000000                                                                             
D000066006057601827925072011133512นายสมภาร รากแก่น                                  8849-9981           7721-9338                               01880134CCSH       0000001665500000                                                                             
D000067006057601827925072011134115นางเครือฟ้า สุขกล้า ทม7229                        8818-9393           9221-7312                               08691092CCSH       0000001620500000                                                                             
D000068006057601827925072011134131นาง กองสี  เหล่าตรี ทย 6806                       8846-9398           6821-6320                               01951095CCSH       0000001050400000                                                                             
D000069006057601827925072011134610นาย อดิศร ดอนสว่าง ทร1066                         8888-9597           6021-1336                               02190075CCSH       0000001484700000                                                                             
D000070006057601827925072011135951นาย เรืองชัย  ดอนบำรุง  มง 503                    8866-9591           3531-0050                               04690052CCSH       0000001000000000                                                                             
D000071006057601827925072011140225นายนิพนธ์  โง่นใจรัก ทว 7760                      8847-9792           0721-7356                               00630194CCSH       0000001920500000                                                                             
D000072006057601827925072011140402นายสมเกียรติ สีธงชัยรุ่งโรจน์ ทร3321              88369994            13213332                                07930727CCSH       0000001334000000                                                                             
D000073006057601827925072011140451นาย สรรเสริญ สีธงชัยรุ่งโรจน์ ทร 5034             88368498            40215333                                07930727CCSH       0000001091500000                                                                             
D000074006057601827925072011140543นายสมเกียรติ สีธงชัยรุ่งโรจน์ ทว783               88069787            37210358                                07930727CCSH       0000001382100000                                                                             
D000075006057601827925072011140605นายมงคล มูลมณี                                    8868-9793           7031-2071           มฉ 2017             06920151CCSH       0000001688700000                                                                             
D000076006057601827925072011141712นายนิรันทร์ ทว 8176                               8877-9891           6121-8357                               04780061CCSH       0000001918500000                                                                             
D000077006057601827925072011141744นายไพบูลย์   พิมไธสง  มช521                       8895-9595           1531-0082                               00611358CCSH       0000001697900000                                                                             
D000078006057601827925072011141926นาย ปรีชา สุขสมร มฉ4259                           8857-9896           9231-4075                               00000372CCSH       0000001700000000                                                                             
D000079006057601827925072011142749ร.ต.อ. ศุภกร ธัญญกรรม ทล 5353                     8898-9984           3321-5345                               10150884CCSH       0000001617900000                                                                             
D000080006057601827925072011142824นายธนะสิทธิ์ สัจจสิงห์                            8848-9797           6221-4343                               01500843CCSH       0000001653900000                                                                             
D000081006057601827925072011142922ร.ต.อ.ศุภกร ธัญญกรรม ทล4169                       8808-9797           9121-4346                               10150884CCSH       0000001476200000                                                                             
D000082006057601827925072011143016ร.ต.อ.ศุภกร ธัญญกรรม ทล9302                       8858-8899           2321-9340                               10150884CCSH       0000001432800000                                                                             
D000083006057601827925072011143415นายวิรัตน์  วาณิชพิเชียร                          8847-9094           65216353                                01930068CCSH       0000001979500000                                                                             
D000084006057601827925072011143614นาย เชาวฤทธิ์ ปานนวม                              88589591            40218340                                00251980CCSH       0000001734300000                                                                             
D000085006057601827925072011143659นายจิระเดช    ราหูรักษ์  ทศ 4707                  88969790            77214360                                04670063CCSH       0000001890800000                                                                             
D000086006057601827925072011143816นาย ไพฑูรย์ วันเชียง ทล 4128                      8878-9997           8121-4342                               08001040CCSH       0000000400000000                                                                             
D000087006057601827925072011144203สงกรานต์ ดีนาง                                    88989196            18214344                                10365296CCSH       0000001575000000                                                                             
D000088006057601827925072011144604สมพร โยธาจันทร์ มจ2519                            88059898            95312061                                00980134CCSH       0000001198500000                                                                             
D000089006057601827925072011145020นางกาญจนา คำภา ทล 1181                            8869-9891           1121-1348                               01951137CCSH       0000001699800000                                                                             
D000090006057601827925072011145352ร.ท.  จักรกฤษณ์  เพียรพิจิตร  ทว  3499            8877-9698           9421-3359                               04990266CCSH       0000001700000000                                                                             
D000091006057601827925072011145528ร.ท.  จักรกฤษณ์  เพียรพิจิตร ทว3799               8837-9697           9721-3359                               04990266CCSH       0000001700000000                                                                             
D000092006057601827925072011145539นายทองเสาว์ นนท์ยะโส ทล3001                       8809-8997           1021-3340                               00000122CCSH       0000001665500000                                                                             
D000093006057601827925072011145725นาย ธำรงค์ยศ มะยมหิน มจ1418                       8885-9997           8431-1061                               02590600CCSH       0000000400000000                                                                             
D000094006057601827925072011152856นาย สมนึก  รัตนประเสริฐ                           8821-9294           0321-9311                               02161072CCSH       0000000304800000                                                                             
D000095006057601827925072011153158นายธวัชชัย   บุญอยู่                              8897-9882           2621-1329                               10290212CCSH       0000000960000000                                                                             
D000096006057601827925072011153424นายกิมชัย แซ่อือ ทว4806                           88179896            68214350                                01440144CCSH       0000001515300000                                                                             
D000097006057601827925072011153927นายอนุสรณ์ วารีน้อย                               88369794            85216342            ทล.6528             07990541CCSH       0000001484700000                                                                             
D000098006057601827925072011155631นาย ธงชัย ปลัดศรี                                 8867-9683           6421-7354           ทว.7446             00160728CCSH       0000001884200000                                                                             
D000099006057601827925072011162027นายเชี่ยว  ไหมดำ                                  88769498            30313064                                00950177CCSH       0000001382100000                                                                             
D000100006057601827925072011164113นายสมบูรณ์  เนตรแสงศรี ทย 8290                    8837-8297           0221-8329                               08510045CCSH       0000001851000000                                                                             
D000101006057601827925072011164450อรัญ ขาวเนตร                                      88578599            45219352                                09761108CCSH       0000001983000000                                                                             
D000102006057601827925072011170241นาย อุเทน เพชร์ทอง                                8887-8197           4721-0365                               10990248CCSH       0000001898200000                                                                             
D000103006057601827925072011173248นายเศรษฐพงศ์ กมลสินธุ์                            8868-9892           0621-8318                               04930125CCSH       0000000529100000                                                                             
D000104006057601827925072011173950นางสาว สอาด บัวขนก ทศ 1050                        8896-9798           0021-1365                               04881100CCSH       0000001515300000                                                                             
D000105006057601827925072011174320บุญส่ง ตระกูลจั่นนาค  ทร8401                      8846-9692           1421-8330                               10360901CCSH       0000001573000000                                                                             
D000106006057601827925072011175521นางสาว น้ำฝน จันทร์หอม  ทล5655                    8888-9893           5621-5345                               10320014CCSH       0000001212800000                                                                             
D000107006057601827925072011181240นายวรพงศ์ พูลพิพิธ                                88189591            73211311                                04880760CCSH       0000001310000000                                                                             
D000108006057601827925072011181946นางสาวธนัญชนก ผาเบาะ                              8826-9692           1421-6319           ทม6491              08510518CCSH       0000000831800000                                                                             
T000109006057601827900000000000000000000000160563240000107                                                                                                                                                                                                      
