H0000010060576018279บริษัท ไทเอซ สิสซิ่ง จำกัด              18112011TALHO                                                                                                                                                                                       
D000002006057601827918112011085401นายฉกาจ  ไพมณี ทล1871                             88768598            18211347                                02460148CCSH       0000000571400000                                                                             
D000003006057601827918112011090727นายสิทธิศักดิ์ หมายมั่น มฉ 4985                   88579093            59314078                                04580699CCSH       0000001700000000                                                                             
D000004006057601827918112011090805อมรวงษ์ เปียไพบูลย์                               88519599            104122431                               00771064CCSH       0000001568200000                                                                             
D000005006057601827918112011090928อมรพงษ์ เปียไพบูลย์                               88589781            88217342                                00771064CCSH       0000001587900000                                                                             
D000006006057601827918112011090940นางสาววรกมล บุญมา                                 88500799            106199193                               02150209CCSH       0000002422300000                                                                             
D000007006057601827918112011093020สุรพล  ไกรพ้น                                     88878198            91316075            080-9780063         04600142CCSH       0000001080000000                                                                             
D000008006057601827918112011093125นายสมชาติ กวดนอก ทศ 9169                          88548889            104116063                               04580699CCSH       0000001602500000                                                                             
D000009006057601827918112011093310นายวิเชียร แซ่ลิ้ม                                88459394            37213345                                00281171CCSH       0000001096000000                                                                             
D000010006057601827918112011094824นายอนิวรรตน์ ไชกองชา มฉ 6186                      88178398            61316078                                00771132CCSH       0000001184500000                                                                             
D000011006057601827918112011094852นางมาลาศรี ทองชา                                  8866-9194           1021-1322                               01230490CCSH       0000001841000000                                                                             
D000012006057601827918112011095523นาย อภิวัตน์ เครืองวงค์                           8827-9781           6521-8358                               00340204CCSH       0000001884200000                                                                             
D000013006057601827918112011095811นายบุญสม สุขเลห์                                  88379998            38313076                                03833635CCSH       0000001734300000                                                                             
D000014006057601827918112011101951นายหวัน  กาฬภักดี                                 88504199            107039670                               07412055CCSH       0000000932100000                                                                             
D000015006057601827918112011102514นายอำนาจ  บินตอเล็บ ทว7523                        88979783            35217352                                00820726CCSH       0000001884200000                                                                             
D000016006057601827918112011103502ประเทือง สุขสมพืช                                 8887-9090           1831-5070                               01230490CCSH       0000002000000000                                                                             
D000017006057601827918112011104038นางสาว ศิริกานดา  ทานุรัตน์ ทศ 3342               8876-9893           2321-3364                               02260835CCSH       0000001799200000                                                                             
D000018006057601827918112011104618ไพศักดิ์ เทพแสง                                   88579982            89212337                                02540078CCSH       0000001088800000                                                                             
D000019006057601827918112011104749นาย ทรง อ่อนใจ  ทว 8576                           88579781            65218357                                04581882CCSH       0000001884200000                                                                             
D000020006057601827918112011105347นายวิภพ   ฉิวกระโทก                               88778099            51219357                                00830886CCSH       0000001640000000                                                                             
D000021006057601827918112011105505นาย วีระพงษ์ สาลีรัมย์                            8827-9890           7321-0323                               00640141CCSH       0000001750000000                                                                             
D000022006057601827918112011110425นาย ไกล  วงค์วาร  ทล 1371                         88539299            107155071                               04650389CCSH       0000000862000000                                                                             
D000023006057601827918112011111658นายสุชาติ  วิเศษชิต                               88859596            81212329                                06965203CCSH       0000001052200000                                                                             
D000024006057601827918112011112637พ.อ.อ.สุรัศ ศรีหาเลิศ                             88557697            36211354                                07700789CCSH       0000001799200000                                                                             
D000025006057601827918112011113016น.ส. สันทนีย์ ชินธกูล ทล 3203                     88898597            32213340                                01890658CCSH       0000001665500000                                                                             
D000026006057601827918112011114045นายประทวน เขียวแล มจ 5512                         8856-9592           2531-5061                               00110057CCSH       0000001046300000                                                                             
D000027006057601827918112011114704นายพงษ์ศักดิ์ บริบูรณ์ ทว5397                     8817-9686           7321-5359                               08691092CCSH       0000001897900000                                                                             
D000028006057601827918112011114743นายพงษ์ศักดิ์ บริบูรณ์ ทศ1318                     8836-9398           8321-1361                               08691092CCSH       0000001990000000                                                                             
D000029006057601827918112011114819นายพงษ์ศักดิ์ บริบูรณ์ ทล9577                     8836-9790           7521-9347                               08691092CCSH       0000001970000000                                                                             
D000030006057601827918112011114826นายธนวัฒน์  รักษาคุณ ทร 9037                      8899-9094           7021-9333                               08510045CCSH       0000000312800000                                                                             
D000031006057601827918112011115436นายอนันต์ ขำนิล ทล2176                            8809-8499           6121-2347                               00923024CCSH       0000001745500000                                                                             
D000032006057601827918112011120643นายสมชัย คณฑา                                     8816-9292           3621-6314                               00282352CCSH       0000000509800000                                                                             
D000033006057601827918112011121407นายสุริยัน พุทธสิงห์                              8849-8898           1421-2340                               03310429CCSH       0000001673900000                                                                             
D000034006057601827918112011121445นายสมบูรณ์ ผามั่ง มจ2850                          8826-9892           0831-2065                               00200593CCSH       0000001052200000                                                                             
D000035006057601827918112011121509ณัฐธิชา ทาระเวท                                   88567697            41216357                                02560119CCSH       0000001918500000                                                                             
D000036006057601827918112011122752นาย สุรพล  อยู่หาญ                                88878299            85319060                                00339885CCSH       0000001290000000                                                                             
D000037006057601827918112011123238นายสมหมาย ปานเนาว์ มง8921                         88659894            19318052                                07601138CCSH       0000000701500000                                                                             
D000038006057601827918112011125937นายโยธิน มาดลย์ ทว 3506                           8837-9997           6521-3350                               04580699CCSH       0000001884200000                                                                             
D000039006057601827918112011130606สุนิสา  ชัยชนะ                                    8815-9995           5221-8369                               09680060CCSH       0000001846600000                                                                             
D000040006057601827918112011131931นายสมพงษ์ เครือพัฒน์ ทว9290                       88079190            02219359                                00749193CCSH       0000001799200000                                                                             
D000041006057601827918112011132118นายสมพงษ์ เครือพัฒน์ ทว9286                       88179190            62219358                                00749193CCSH       0000001799200000                                                                             
D000042006057601827918112011132623นายสามารถ สุขเรือง                                88579886            53105318                                01520889CCSH       0000001100000000                                                                             
D000043006057601827918112011132743นายสามารถ สุขเรือง                                88579886            53105318                                01520889CCSH       0000001100000000                                                                             
D000044006057601827918112011133728นายวิโรจน์ แก่นจันทร์ มจ6921                      88869493            19316062                                00560394CCSH       0000001062400000                                                                             
D000045006057601827918112011141110นาย วรโชติ  คำเรืองฤทธิ์                          88379892            31315073                                01780229CCSH       0000002231200000                                                                             
D000046006057601827918112011141542นางสาวพวงเพ็ญ ศิริพละ ทว 3549                     88879997            95213354                                04580699CCSH       0000002116700000                                                                             
D000047006057601827918112011142548นาย นิตยา เทพนรินทร์                              8826-8497           6621-7335                               00640141CCSH       0000001558400000                                                                             
D000048006057601827918112011142829ทิฆัมพร แช่มเกษม                                  88379494            86364366                                01590526CCSH       0000000823900000                                                                             
D000049006057601827918112011145034วีระ ฉ่ำมณี                                       88468497            39215331                                00580483CCSH       0000001000000000                                                                             
D000050006057601827918112011150133ณัฐนนท์ นมนาน                                     88788989            87219344                                03830885CCSH       0000001700000000                                                                             
D000051006057601827918112011160018ด.ต.เสิม หยุ่นแก้ว ทล 7009                        8848-7497           9021-7340                               01971063CCSH       0000001700000000                                                                             
D000052006057601827918112011160132นางศศิญา จันทร์สิน ทล 7296                        88589491            62217349                                04780120CCSH       0000001720500000                                                                             
D000053006057601827918112011160228ด.ต.สุวนัย เสาศิริ ทศ 2620                        8866-9986           0621-2362                               04780120CCSH       0000002159000000                                                                             
D000054006057601827918112011173145พงษ์ศักดิ์ หิรัญวรรณ                              88869194            51213367                                10320746CCSH       0000000205500000                                                                             
D000055006057601827918112011173419นาย สวัสดิ์  คูณพรม                               88869390            46214337                                07661135CCSH       0000001978300000                                                                             
D000056006057601827918112011174318นายนพพร รักษาคุณ                                  88459994            17311074                                04700568CCSH       0000001397500000                                                                             
D000057006057601827918112011174919นายสุรพรรณ  จันทะสิทธิ์ ทร 2928                   88459596            89212332                                04950529CCSH       0000001020000000                                                                             
D000058006057601827918112011184608นายสมมาด แสงสุขขา ทว 7504                         88579992            45217350                                04950529CCSH       0000001515300000                                                                             
D000059006057601827918112011184654นายสมมาด แสงสุขขา ทศ 1875                         8866-9497           5821-1367                               04950529CCSH       0000001884200000                                                                             
D000060006057601827918112011194823คุณธนเดช จารุฐิติมาศ ทย 7318                      88569493            83217321                                08550650CCSH       0000001177500000                                                                             
T000061006057601827900000000000000000000000087517700000059                                                                                                                                                                                                      
