H0000010060576018279บริษัท ไทเอซ สิสซิ่ง จำกัด              09122011TALHO                                                                                                                                                                                       
D000002006057601827909122011083856น.ส.ณัฐธิชา ทาระเวท                               88569597            46211366                                01787080CCSH       0000001861800000                                                                             
D000003006057601827909122011090342เฉลา ศรีนาค มจ2581                                88669594            15312068                                01834789CCSH       0000000730600000                                                                             
D000004006057601827909122011090358นายวรรณลภ กิจทา ทย6970                            88769995            09216327                                02590600CCSH       0000001105700000                                                                             
D000005006057601827909122011090659นายปราโมทย์  อภิรมย์ดี ทม 6756                    8847-9092           6721-6315                               10200754CCSH       0000000604800000                                                                             
D000006006057601827909122011094836นาง วารี วรศิริ                                   88378399            05219359                                00660527CCSH       0000001918500000                                                                             
D000007006057601827909122011095312นายชาตรี  ศาลางาม                                 88069492            20214364                                03300381CCSH       0000000500000000                                                                             
D000008006057601827909122011100539นายเสรี  ผายพิมพ์                                 88468797            43217331                                02501795CCSH       0000001105700000                                                                             
D000009006057601827909122011101847นางภัทรินิษฐ์ ฉัตรมงคลชัย  ทร.3586                88288997            65213338                                01787080CCSH       0000001538600000                                                                             
D000010006057601827909122011102033นาย เดนชัย  ศรีพรม                                88188198            81211357                                00910199CCSH       0000001561200000                                                                             
D000011006057601827909122011103050พตท.สุเทพ  ภูดวงเดือน ทศ7409                      88359597            94217360                                01800598CCSH       0000001828800000                                                                             
D000012006057601827909122011103502นายภิญโญ  กันเนียม                                88159395            75218363            0879335683          04600142CCSH       0000001812300000                                                                             
D000013006057601827909122011103634นางสาวอุไร ชูศักดิ์ ทร9232                        8849-9094           2221-9333                               10150884CCSH       0000000034300000                                                                             
D000014006057601827909122011103811นายสำฤทธิ์  แก่นจันทรื บจ7524                     88259595            45317062                                06921923CCSH       0000004091000000                                                                             
D000015006057601827909122011105536นายประจัญชัย อัฒจักร  มง 3798                     8816-9992           8731-3059                               00130755CCSH       0000000718700000                                                                             
D000016006057601827909122011105551นายสำฤทธิ์  แก่นจันทร์                            88189097            06214345                                06920406CCSH       0000001785800000                                                                             
D000017006057601827909122011111203น.ส.นุชนารถ แจ่มศุภพันธ์ ทว 5838                  88967297            88215353                                04581830CCSH       0000001700000000                                                                             
D000018006057601827909122011112012นายประทุม  ไทรแช่มจันทร์                          88467897            98214353            ทว 4839             01820815CCSH       0000001884200000                                                                             
D000019006057601827909122011113221นาง นพชนก มิศกะเสวตร์                             88259397            97351019            วก1799              00600443CCSH       0000000850000000                                                                             
D000020006057601827909122011113353นางสาวเกตุนบิน  ริ้วกระโทก ทศ 6208                8826-8897           8221-6360                               01770569CCSH       0000001130100000                                                                             
D000021006057601827909122011113740นฤมล ลมสูงเนิน ทม9840                             88869398            08219314                                05700906CCSH       0000001131900000                                                                             
D000022006057601827909122011113943นายอนุสรณ์ ศรีมาลี  มฉ 9708                       88759398            87319070                                00130755CCSH       0000001936700000                                                                             
D000023006057601827909122011113956นายสุวรรณ อุทสาร ทย9670                           8886-9693           0621-9327                               02190075CCSH       0000000920600000                                                                             
D000024006057601827909122011115200นาย อนันต์  สิงห์น้อย  ทว 3038                    8817-9398           8021-3353                               04690052CCSH       0000001790940000                                                                             
D000025006057601827909122011115408น.ส.สุรัตน์ นาคคล้าย                              88510599            107161060                               01810555CCSH       0000001538200000                                                                             
D000026006057601827909122011120223อรุณ  เกษสกุล ทล1260                              88999091            02211346                                04950191CCSH       0000001665500000                                                                             
D000027006057601827909122011121126นายบุญมี จันทร์กอง ทล8809                         8898-9190           9821-8340           08521340819         01970387CCSH       0000001700000000                                                                             
D000028006057601827909122011121414นาย วิชัย  ตุลา                                   88168697            12210320                                02590608CCSH       0000001543200000                                                                             
D000029006057601827909122011121610นาง ภัสรา  เรศสุข  ทศ 3492                        88769693            24213369                                08400047CCSH       0000001799200000                                                                             
D000030006057601827909122011121759สมมาด  แสงสุขขา  ทศ1875                           88669497            58211367                                04950191CCSH       0000001884200000                                                                             
D000031006057601827909122011121914สมมาด  แสงสุขขา ทว7504                            88579992            45217350                                04950191CCSH       0000001515300000                                                                             
D000032006057601827909122011122953นายชนินทร์ อ่อนใจเอื้อ                            88889682            37312071                                00660514CCSH       0000001791300000                                                                             
D000033006057601827909122011122959พจอ.หญิง บุญทอง จันทร์สุวรรณ ทศ2823               8806-9295           3821-2362                               01590526CCSH       0000001884200000                                                                             
D000034006057601827909122011123642นายเมธา  วงษาแก้ว  ทล 7708                        88189981            87217340                                05701141CCSH       0000001700000000                                                                             
D000035006057601827909122011124315นายสวนิช ชาติเผือก                                88759984            38212327                                01100550CCSH       0000001494200000                                                                             
D000036006057601827909122011124951นายสันติ  คำคง                                    88059796            13319037                                01740029CCSH       0000000364100000                                                                             
D000037006057601827909122011125807นายบัณทิต คำสงค์ ทล1081                           88507099            107155079                               01800267CCSH       0000001714300000                                                                             
D000038006057601827909122011130406อิงอร เอี่ยมวิไล                                  8818-8988           7121-2352                               02490052CCSH       0000001700000000                                                                             
D000039006057601827909122011134143พ.อ.อ.ชำนาญ มณีวรรณ                               88533799            104116069                               01980897CCSH       0000001568200000                                                                             
D000040006057601827909122011141720นางสาวนิภา เปียสัมปทวน ทร9534                     88399493            45219333                                02501874CCSH       0000000098500000                                                                             
D000041006057601827909122011141829นางสาวนิภา เปียสัมปทวน ทร9533                     88499493            35219333                                02501874CCSH       0000000098500000                                                                             
D000042006057601827909122011141939นายชำนาญ สินสำอางค์ ทย1358                        88519199            107093077           0813112827          02173494CCSH       0000001368000000                                                                             
D000043006057601827909122011142305นายชาตรี อินทรศักดิ์ ทล 4573                      8828-9297           3521-4347                               10320746CCSH       0000001665500000                                                                             
D000044006057601827909122011142512นางสาวเครือฟ้า ทาใจ ทว3903                        8877-9797           3921-3350                               04671136CCSH       0000001800000000                                                                             
D000045006057601827909122011143603อิทธิพงศ์ อินทรีย์                                8888-9781           9731-2076                               01550599CCSH       0000001800000000                                                                             
D000046006057601827909122011144158นางปรียานุช ใจธรรม                                88592898            106134745                               08770801CCSH       0000001812700000                                                                             
D000047006057601827909122011144832นันธดา ส. มฉ2103                                  88089193            31312070                                10074338CCSH       0000001418700000                                                                             
D000048006057601827909122011144901นายสายัณต์ เปลี่ยนหยวก                            88189881            09312072                                00570712CCSH       0000001100000000                                                                             
D000049006057601827909122011145029นายสมบูรณ์  ผามั่ง                                88269892            08312065                                00200304CCSH       0000001052200000                                                                             
D000050006057601827909122011145602นายอดิศักดิ์ หันวิสัย                             88569693            65315067                                01730481CCSH       0000001010600000                                                                             
D000051006057601827909122011150010วราภรณ์                                           88289580            23219349                                04929939CCSH       0000001786300000                                                                             
D000052006057601827909122011150657นายกิตตินัย ปึงประยูร ทว 3317                     88079198            73213351                                10900089CCSH       0000001974000000                                                                             
D000053006057601827909122011151841นาย ศุภณัฎฐ์  ใจกล้า มฉ3260                       8866-7197           0231-3076                               01781712CCSH       0000001884200000                                                                             
D000054006057601827909122011151911นางสาวเพียนจิตร์ สิทธินาม                         88515499            107066329                               01771050CCSH       0000000980900000                                                                             
D000055006057601827909122011152555นายวิทยา  พัดเย็นใจ                               8856-9095           2821-4339                               11470668CCSH       0000000340000000                                                                             
D000056006057601827909122011152702นางสาวพิมพ์ชนก แซ่ตั้ง                            88479493            64210339                                01777666CCSH       0000000835200000                                                                             
D000057006057601827909122011152756นายมนัด ตั้งเรือนรัตน์                            88659997            42210348                                08566520CCSH       0000001140000000                                                                             
D000058006057601827909122011154518นางภัททิรา วีระกูล                                88159396            79217364                                01081088CCSH       0000001812300000                                                                             
D000059006057601827909122011155736นายสรรเสริญ สีธงชัยรุ่งโรจน์ ทร5034               88368498            40215333                                07930727CCSH       0000002142500000                                                                             
D000060006057601827909122011155927นายทองปาน บุญแสนยศ                                8849-9096           0921-7334                               00631326CCSH       0000001062900000                                                                             
D000061006057601827909122011161007นางสาวสุมาลี ศรีอินทร์                            8857-9686           2421-5350                               05970554CCSH       0000001884200000                                                                             
D000062006057601827909122011170514นายทศพล ช้างเผือก ทศ2524                          8816-9296           4521-2362                               08450038CCSH       0000000884200000                                                                             
D000063006057601827909122011172852นายอภิรัตน์ ภู่ศิริ                               88179295            44212320                                07660676CCSH       0000000369400000                                                                             
D000064006057601827909122011173147ฐิติยา  มีนันทร                                   88788397            04212351                                07620776CCSH       0000001884200000                                                                             
D000065006057601827909122011181934พงษ์เกียรติ บุญเส็ง ทม 7705                       88959696            57217310                                07620859CCSH       0000001498000000                                                                             
T000066006057601827900000000000000000000000090107140000064                                                                                                                                                                                                      
