H0000010060576018279บริษัท ไทเอซ สิสซิ่ง จำกัด              20082011TALHO                                                                                                                                                                                       
D000002006057601827920082011083306นายสฤษดิ์ศักดิ์  พินิจกุลดี  ทศ 2034              8876-9787           4021-2363                               09760540CCSH       0000001918400000                                                                             
D000003006057601827920082011095841นาย บุญเหลือ  พงษ์ธนู  มฉ 5025                    8838-8097           5031-5072                               09760540CCSH       0000001700000000                                                                             
D000004006057601827920082011102852นางจันทา  ชัยราช                                  8806-9597           6721-1363                               02501795CCSH       0000000167000000                                                                             
D000005006057601827920082011105843นายอมร  แสงสุวรรณ  ทศ3455                         8836-9993           5421-3365                               10631094CCSH       0000001833500000                                                                             
D000006006057601827920082011110109นาย อรรณพ ศรีปัญญานนท์ ทศ8230                     88559986            02218363                                10070203CCSH       0000001828800000                                                                             
D000007006057601827920082011112311นายบุญช่วย พิศาลภูรินาถ                           8866-8498           4021-4339                               08698691CCSH       0000001193200000                                                                             
D000008006057601827920082011112407นาย สุริยา บุรีรัตน์ ทร 3296                      88869590            92213339                                10270592CCSH       0000000829300000                                                                             
D000009006057601827920082011113225นายวิวัฒน์ ขันติพงษ์                              88479692            96217359                                07930318CCSH       0000001833500000                                                                             
D000010006057601827920082011114907นายสุนันท์  วิเศษเนตร  ทร 6128                    88559895            81216332                                01730895CCSH       0000000868800000                                                                             
D000011006057601827920082011122043นาย วิสูตร ศรีพงษ์สุทธิ์                          88399790            04211340                                04670086CCSH       0000001425700000                                                                             
D000012006057601827920082011122517นาย นิวัฒน์ บุบผาสุพรรณ์                          8818-9893           8521-5343           ทล5538              10250012CCSH       0000001779800000                                                                             
D000013006057601827920082011124850นาง สุวิน หวะสุวรรณ ทว 8260                       8857-9791           0221-8356                               09741083CCSH       0000002172200000                                                                             
D000014006057601827920082011125711น.ส.เกตุนลิน ริ้วกระโทก                           8826-8897           8221-6360                               10720571CCSH       0000002059200000                                                                             
D000015006057601827920082011130702สุริยัน พ. ทล2401                                 8849-8898           1421-2340                               10360281CCSH       0000001669900000                                                                             
D000016006057601827920082011131606นางสาว พิมพ์ชนก แซ่ตั้ง                           8877-9391           3421-3336                               10720567CCSH       0000001138500000                                                                             
D000017006057601827920082011131655นาย อนุสรณ์  วารีน้อย                             8896-8599           9321-9310                               07990132CCSH       0000002496700000                                                                             
D000018006057601827920082011131827นาย อนุสรณ์  วารีน้อย                             8817-8399           3421-3310                               07990132CCSH       0000000542500000                                                                             
D000019006057601827920082011131936นางบุณยานิตย์ ศิริรักษ์ ทร3896                    8898-8297           6821-3339                               11240437CCSH       0000001054600000                                                                             
D000020006057601827920082011143405นายบุญช่วย จิตตั้ง                                8897-8397           2721-0360                               04780158CCSH       0000001899200000                                                                             
D000021006057601827920082011152528นางณัฎฐสิณี  อยู่พันธุ์  ทว6710                   8877-9784           0721-6351                               04881090CCSH       0000001884200000                                                                             
D000022006057601827920082011153410ด.ต. สุวนัย เสาศิริ ทศ 2860                       8886-9195           0821-2366                               04780158CCSH       0000001659900000                                                                             
D000023006057601827920082011153617ด.ต. สุวนัย เสาศิริ วศ 4499                       8846-9890           9435-4369                               04780158CCSH       0000000991500000                                                                             
D000024006057601827920082011155105กาญจนา ด่านวิริยะกุล                              88869896            96215323                                05700906CCSH       0000001112800000                                                                             
D000025006057601827920082011155836นางสาวนันทา สมทรัพย์                              88679884            15216358                                11520403CCSH       0000001900000000                                                                             
D000026006057601827920082011163252นายสุรศักดิ์ อินทศร ทศ4057                        8826-9292           7021-4365                               08691092CCSH       0000001719800000                                                                             
D000027006057601827920082011165236นายสุรินทร์ ชูวงศ์วาน                             88269592            39312058                                07821609CCSH       0000000940000000                                                                             
D000028006057601827920082011172101นาย สมชาย หนองเส ทว6335                           8846-9991           5321-6353                               08001096CCSH       0000001880500000                                                                             
D000029006057601827920082011173521หยกฟ้า เจตจำเนียรกุล ทร3655                       8877-7397           5621-3335                               10154881CCSH       0000001220700000                                                                             
D000030006057601827920082011191905นายสุรศักดิ์   วิเชียรเกื้อ  ทศ 7385              8885-9497           5321-7368                               04670063CCSH       0000001309900000                                                                             
D000031006057601827920082011192302ร.ท.จักรกฤษณ์ เพียรพิจิตร ทว9969                  8898-9891           9921-9356                               10360725CCSH       0000001800000000                                                                             
D000032006057601827920082011193638คุณมงคล โตเอี่ยม ทล 7184                          88489791            41217348                                08550650CCSH       0000002265700000                                                                             
T000033006057601827900000000000000000000000047095800000031                                                                                                                                                                                                      
