H0000010060576018279บริษัท ไทเอซ สิสซิ่ง จำกัด              02082011TALHO                                                                                                                                                                                       
D000002006057601827902082011090124นายอำนาจ เจียมเชื่อม ทศ6549                       88568497            95216364                                02530836CCSH       0000001856500000                                                                             
D000003006057601827902082011092424นายวิรัตน์ เกิดผล ทล4272                          8858-9797           2221-4347                               00830255CCSH       0000001558300000                                                                             
D000004006057601827902082011092754นายวนัส วงค์ภา                                    8899-9790           8031-0079                               00840766CCSH       0000001703800000                                                                             
D000005006057601827902082011094622นายทองดี ถึงปัดชา                                 88598199            72212349            ทล 2297             01210586CCSH       0000001600000000                                                                             
D000006006057601827902082011094900นางสาว ชื่นจิตร ริมพนัสสัก ทย 4666                88679498            66214326                                10270592CCSH       0000004995700000                                                                             
D000007006057601827902082011095819นายกมล  แต้มสว่าง                                 8858-9590           6521-7333                               00911077CCSH       0000001819000000                                                                             
D000008006057601827902082011100502นายอำนาจ กฤษณะเศรณี ทศ2546                        8856-9986           6521-2364                               08404479CCSH       0000001515300000                                                                             
D000009006057601827902082011102301ลัดดา ผาพิน ทร1254                                88769597            42211335                                10270539CCSH       0000000989800000                                                                             
D000010006057601827902082011102520นายสุทที อัฒจักร                                  88679983            50315071            มฉ 5015             01210586CCSH       0000001745700000                                                                             
D000011006057601827902082011103346นายสมนึก สืบพิลัย ทว7854                          8807-9392           4821-7355                               02260861CCSH       0000002116700000                                                                             
D000012006057601827902082011103501นายสมนึก สืบพิลัย ทล9062                          8888-9580           2021-9346                               02260861CCSH       0000002116700000                                                                             
D000013006057601827902082011103642นายสมนึก สืบพิลัย ทว7061                          8897-9393           1021-7356                               02260861CCSH       0000002116700000                                                                             
D000014006057601827902082011103955นายประเสริฐ  แก้วจั่นเพ็ชร                        88378398            81214332                                00510019CCSH       0000001550700000                                                                             
D000015006057601827902082011104455นายสมนึก  ทองอ่ำ                                  8866-9393           1621-3362                               02170046CCSH       0000001799200000                                                                             
D000016006057601827902082011104520นาง จันทา ชัยราช ทศ 1736                          8806-9597           6721-1363                               02501180CCSH       0000001884200000                                                                             
D000017006057601827902082011104521นายอมร จันทร์ไว                                   8899-8398           0321-2349                               06230872CCSH       0000000098500000                                                                             
D000018006057601827902082011104916บุญยืน แออ่วม                                     88169791            59210321                                01480363CCSH       0000001495000000                                                                             
D000019006057601827902082011104942นายทัตพล  ฤกษ์อุโฆษ  ทล 7295                      8887-9897           5221-7349                               01200195CCSH       0000001187700000                                                                             
D000020006057601827902082011105006นายวิทยา ทิพย์บุญผล ทศ 7619                       88759497            96217361                                07930727CCSH       0000001706900000                                                                             
D000021006057601827902082011105049บุญยืน แออ่วม                                     88669592            04217312                                01480363CCSH       0000001414000000                                                                             
D000022006057601827902082011105052นายวิทยา ทิพย์บุญผล ทศ 7619                       48359997            96217361                                07930727CCSH       0000000321000000                                                                             
D000023006057601827902082011110333ด.ต.พิพรรธ  แสนอินทร์ ทว9907                      88878498            79219350                                05701141CCSH       0000001884200000                                                                             
D000024006057601827902082011110608นางสาว นัตยา จันทาทอง                             8849-8797           6121-3340           ทล 3106             01860389CCSH       0000001665500000                                                                             
D000025006057601827902082011112557นายประสิทธิ์ ผ่านจังหาร ทล 3202                   88998497            22213340                                04731091CCSH       0000001600000000                                                                             
D000026006057601827902082011113423คมวุฒิ  กอแก้ว ทอ 1241                            8831-9691           1221-1324                               04950191CCSH       0000001170500000                                                                             
D000027006057601827902082011113641บุญเลิศ  ทรัพย์เจริญกุล ทย 5311                   8817-8988           1321-5321                               02530516CCSH       0000001465000000                                                                             
D000028006057601827902082011113823นางศศิญา จันทร์สิน ทล7296                         8858-9491           6221-7349                               04781103CCSH       0000001700000000                                                                             
D000029006057601827902082011113827บุญเลิศ  ทรัพย์เจริญกุล ทศ 7974                   8845-9296           4921-7367                               02530516CCSH       0000002008400000                                                                             
D000030006057601827902082011113938นางสาว วีณา  วงศ์ศิริ                             8847-9591           0321-8352                               11140247CCSH       0000000843300000                                                                             
D000031006057601827902082011113945บุญเลิศ  ทรัพย์เจริญกุล ทว 6051                   8807-9295           1021-6355                               02530516CCSH       0000001864400000                                                                             
D000032006057601827902082011115258นาย สัญญพงศ์ เจียรนัยกูร ทศ 8941                  88059494            19218364                                10270592COTH       0000001918100000                                                                             
D000033006057601827902082011115609กมล แต้มสว่าง ทร9202                              8816-9793           2221-9330                               07620035CCSH       0000002100000000                                                                             
D000034006057601827902082011115830นาย บุญมี หวังประเสริฐ ทร 8147                    88759295            71218334                                00600151CCSH       0000000663400000                                                                             
D000035006057601827902082011121117นายธนวัฒน์  รักษาคุณ ทร 9037                      8899-9094           7021-9333                               08510045CCSH       0000000030000000                                                                             
D000036006057601827902082011121839นางเข็มทอง สงเคราะห์ ทศ1520                       8876-9897           0521-1362                               04600072CCSH       0000000235500000                                                                             
D000037006057601827902082011121927นายชัชวาล แสงอาวุธ ทศ8140                         88359296            01218364                                08401304CCSH       0000001828800000                                                                             
D000038006057601827902082011121946นางเข็มทอง สงเคราะห์ ทว7880                       8857-9492           0821-7358                               04600072CCSH       0000001515300000                                                                             
D000039006057601827902082011122234นายอรรถพันธ์ สีปูน                                88169294            40215319                                02580601CCSH       0000000800000000                                                                             
D000040006057601827902082011123008นายจตุพร นาคไพรัชช์                               88379498            82213359                                00330237CCSH       0000002054400000                                                                             
D000041006057601827902082011123134นายบุญมา ล้ำทวีภักดี ทย 2071                      8857-8899           1021-2327                               05700767CCSH       0000001000000000                                                                             
D000042006057601827902082011123824นาย แอน หวังผล ทศ8419                             8865-9495           9421-8361                               08000242CCSH       0000001505200000                                                                             
D000043006057601827902082011124145อภิรัตน์  ภู่ศิริ                                 8817-9295           44212320                                01760442CCSH       0000000675000000                                                                             
D000044006057601827902082011124628วรฉัตร ทศศะ                                       88599590            31310079                                00190041CCSH       0000001447900000                                                                             
D000045006057601827902082011124925ฐิติยา มีนันทร ทว2410                             8878-8397           0421-2351                               07627621CCSH       0000001884200000                                                                             
D000046006057601827902082011125244นาย ชาญณรงค์  ธารีพฤกษ์                           8808-8099           7021-0358                               08670376CCSH       0000001700000000                                                                             
D000047006057601827902082011125341จ.ส.อ.กฤตพัฒน์ อำโพธิ์ศรี                         88989793            08215346                                00670741CCSH       0000001010900000                                                                             
D000048006057601827902082011130244นายพลูพิณ เขียวแดง                                8807-9981           5531-5079                               01897527CCSH       0000001679300000                                                                             
D000049006057601827902082011131127นายสุเทพ ไทรหอมหวล ทว2210                         8828-8597           0221-2351                               05750619CCSH       0000001799200000                                                                             
D000050006057601827902082011131713นาง สลิล  มะลิต้น                                 8818-9995           4021-0342                               01730192CCSH       0000001645000000                                                                             
D000051006057601827902082011132650นายสุนัย พรมไพโรจน์                               88789292            24216346                                09760107CCSH       0000001700000000                                                                             
D000052006057601827902082011133630นายธนกร  แสงศรี  ทม 4691                          8876-8099           1621-4319                               00530118CCSH       0000000517700000                                                                             
D000053006057601827902082011133902นายสมเด็จ  บุญเพชร ทศ1674                         8886-9197           4621-1367                               01213513CCSH       0000001982300000                                                                             
D000054006057601827902082011134517นายพิชิด พรหมมาวัน                                8805-9296           9331-0080                               00340668CCSH       0000001812300000                                                                             
D000055006057601827902082011134853ภูริพัฒน์ มะโรงศรี ทศ 6020                        8896-8598           0021-6362                               00810345CCSH       0000001514700000                                                                             
D000056006057601827902082011134946ไพจิตร์                                           88479798            36217320                                02564997CCSH       0000001383600000                                                                             
D000057006057601827902082011135234นายชัยวัฒน์ ลีเลิศยานนท์                          8838-9593           8921-5342                               07609708CCSH       0000001617900000                                                                             
D000058006057601827902082011135359นายตะวัน ประสพวงค์ มจ8810                         88599883            08318061                                07930240CCSH       0000000505000000                                                                             
D000059006057601827902082011140022นายพิชยนต์ เปี่ยมทอง                              8856-9991           1221-1319                               11440143CCSH       0000001350000000                                                                             
D000060006057601827902082011140704นาย  นรชัย  แพงศร  ทย  7678                       8806-9996           8621-7327                               09760820CCSH       0000001271600000                                                                             
D000061006057601827902082011140739นาย ทรงชัย ลายลวดแก้ว                             8887-8097           2121-1362                               04730538CCSH       0000001918500000                                                                             
D000062006057601827902082011140957นายธานี แช่มวัฒนา                                 8858-9694           2831-1075           มฉ 1852             01481588CCSH       0000001617900000                                                                             
D000063006057601827902082011141005อินผล อินมาตย์                                    8888-8899           6521-9348                               00940109CCSH       0000002116700000                                                                             
D000064006057601827902082011141748นางทองลา มุ่งดี ทย4844                            8837-9891           4821-4324                               02501075CCSH       0000000755800000                                                                             
D000065006057601827902082011145155นายชัยกาญจน์ น้อยพินิจ มจ 5033                    8825-9996           3031-5063                               01734121CCSH       0000002000000000                                                                             
D000066006057601827902082011150112นาย มานิตย์ ดวงศรี ทล3783                         8828-9598           3721-3348                               04650665CCSH       0000001665500000                                                                             
D000067006057601827902082011150237นางชุติมา ธรรมสิทธิ์                              88279998            08212354                                09760107CCSH       0000001833500000                                                                             
D000068006057601827902082011151807นาย สนธยา  มีลาดคำ มฉ 3357                        8868-8998           7331-3075                               02161072CCSH       0000001855900000                                                                             
D000069006057601827902082011152431นายธีระเนตร ศุภศฤงคาร ทล3959                      88189298            99213345                                05710084CCSH       0000001905100000                                                                             
D000070006057601827902082011152442นายพงษ์ศักดิ์   สุวรรณคาม                         8847-9097           7221-4350                               07661056CCSH       0000001734300000                                                                             
D000071006057601827902082011152514มลิกา สายที                                       8867-9396           1921-4352                               10320156CCSH       0000001679300000                                                                             
D000072006057601827902082011152712นางสาวรุจิพัชญ์ วฤทธิ์ธีรภาคย์                    8876-8597           6021-0316                               00611046CCSH       0000002000000000                                                                             
D000073006057601827902082011152926นางจันตรี ชาภู่พวง ทร9230                         88099893            02219333                                07930727CCSH       0000001680500000                                                                             
D000074006057601827902082011153721นายชะอ้อน แหยมประเสริฐ  ทร 9448                   8879-9593           8721-9334                               04700190CCSH       0000000034300000                                                                             
D000075006057601827902082011154534นายอนุชา แหยมพรรนัย ทร6356                        8806-9290           6321-6335                               05750619CCSH       0000001697800000                                                                             
D000076006057601827902082011155600บุญส่ง ตระกูลจั่นนาค                              88369692            07210341                                10365296CCSH       0000000604000000                                                                             
D000077006057601827902082011160353น.ส.เครือฟ้า ทาใจ ทว3903                          88779797            39213350                                10360570CCSH       0000001810000000                                                                             
D000078006057601827902082011161822จิราพร ทองร่มโพธิ์ ทว 7299                        88979492            92217359                                07621764CCSH       0000001500000000                                                                             
D000079006057601827902082011161945จิราพร ทองร่มโพธิ์ ทว 9919                        88078698            99219351                                07621764CCSH       0000001680000000                                                                             
D000080006057601827902082011162111ศิริชัย จุลแดง ทล 362                             88559195            23210346                                07621764CCSH       0000001216300000                                                                             
D000081006057601827902082011163038นาย อดิศักดิ์ อุ้ยหะ ทว 9550                      88679980            05219355                                10071091CCSH       0000002082100000                                                                             
D000082006057601827902082011164534นาย นิติพล ดีเฉลา ทล 4934                         8835-9295           4921-4343                               10970213CCSH       0000001212700000                                                                             
D000083006057601827902082011171039ร.อ.รัฐธีร์ น้อยนิตย์                             8838-9392           2421-6347                               07540596CCSH       0000001377800000                                                                             
D000084006057601827902082011171438นายธนพัต   คุ้มวงษ์                               8867-8797           2331-6074                               07661056CCSH       0000001773000000                                                                             
D000085006057601827902082011172351เศรษฐพงศ์                                         8868-9892           06218318                                04930773CCSH       0000000525500000                                                                             
D000086006057601827902082011175514นางสาว วิไลรัตน์ บุญเผือก  ทล7670                 88789981            06217347                                10073833CCSH       0000001500000000                                                                             
D000087006057601827902082011182651นายจักรชัย  ลมัยกุล  ทศ5480                       88168699            04215368                                06830515CCSH       0000001918500000                                                                             
D000088006057601827902082011183306จ.อ.วรายุ ทองฉิม                                  8876-9497           6731-6078                               08510017CCSH       0000001506000000                                                                             
T000089006057601827900000000000000000000000132141000000087                                                                                                                                                                                                      
