H0000010060576018279บริษัท ไทเอซ สิสซิ่ง จำกัด              17072011TALHO                                                                                                                                                                                       
D000002006057601827917072011105839นาย สุวิทย์  กองทน ทร 5878                        88578898            88215337                                08691827CCSH       0000001405700000                                                                             
D000003006057601827917072011110057ประจัญชัย อัฒจักร ทว9202                          8867-9190           2221-9350                               07660694CCSH       0000001918500000                                                                             
D000004006057601827917072011113200นาย พงษ์ศักดิ์  บริบูรณ์ ทล9178                   88589280            81219347                                08691827CCSH       0000002116700000                                                                             
D000005006057601827917072011114444นาย ประยูร สุระภา ทล9132                          8878-9480           2121-9343                               10151005CCSH       0000001136600000                                                                             
D000006006057601827917072011120951นางสุนิจ สมบัติ                                   8896-9295           4821-2335           ทร 2854             09740261CCSH       0000000400000000                                                                             
D000007006057601827917072011121326นางสายบัว ยิ้มใย ทล 7784                          8837-7197           4721-7348                               08830061CCSH       0000002032000000                                                                             
D000008006057601827917072011121404นางสาว เฉลิมศรี ทองขาว ทร 6198                    8856-9390           8121-6339                               00860740CCSH       0000001105700000                                                                             
D000009006057601827917072011121453นางสาว เฉลิมศรี ทองขาว ทร6198                     8856-9390           8121-6339                               00860740CCSH       0000000137000000                                                                             
D000010006057601827917072011121707สุภาพร พันธุ์ไทย                                  88578799            38219342                                10365296CCSH       0000002080000000                                                                             
D000011006057601827917072011122012นายบุญเลิศ ทรัพย์เจริญกุล                         88569994            29212363                                10320156CCSH       0000001679300000                                                                             
D000012006057601827917072011133455นายสุรเชษฎ ตปนิยนันท์                             88589898            67213345                                11520403CCSH       0000001699800000                                                                             
D000013006057601827917072011143602นายระเริง  หยูเอียด ทว 9586                       8887-8499           6521-9358                               04881090CCSH       0000001884200000                                                                             
D000014006057601827917072011143702นาย สุรชัย   โทศรี ทศ 2773                        88469986            37212367                                04670086CCSH       0000002062000000                                                                             
D000015006057601827917072011144125นายสรรเสริญ สีธงชัยรุ่งโรจน์ ทย 7858              88068298            88217325                                07930727CCSH       0000001091500000                                                                             
D000016006057601827917072011144213นายสมเกียรติ สีธงชัยรุ่งโรจน์ ทย 3148             88469197            81213324                                07930727CCSH       0000001252000000                                                                             
D000017006057601827917072011151442นางสาวเมตตา  ตะคุณนะ  ทว756                       8828-8498           6721-0355                               10360901CCSH       0000002215000000                                                                             
D000018006057601827917072011163220นางธีลาวัลย์ ศรีบุศยดี                            8887-9895           5421-9310                               07840868CCSH       0000001517700000                                                                             
D000019006057601827917072011163519ไพรสน คำอ่อน                                      88368398            30216369                                10271600CCSH       0000001890300000                                                                             
D000020006057601827917072011163758นายสุขสันต์ นวลดี                                 8869-8998           2321-2348           ทล2382              04930415CCSH       0000001590000000                                                                             
T000021006057601827900000000000000000000000029214000000019                                                                                                                                                                                                      
