H0000010060576018279บริษัท ไทเอซ สิสซิ่ง จำกัด              24022012TALHO                                                                                                                                                                                       
D000002006057601827924022012085140นายสมศักดิ์ สีธงชัยรุ่งโรจน์ ทม450                88379884            04210315                                00650099CCSH       0000001414800000                                                                             
D000003006057601827924022012085247นายสมเกียรติ สีธงชัยรุ่งโรจน์                     88369095            76212312                                00650099CCSH       0000001414800000                                                                             
D000004006057601827924022012091447นางสาวพัชรินทร์  พงศ์สิริสาโรช                    88512499            700011980                               00981066CCSH       0000001283900000                                                                             
D000005006057601827924022012092415อมฤต สนิทขำ ทศ2909                                88069195            99212360                                00771064CCSH       0000001884200000                                                                             
D000006006057601827924022012092559นายปราโมทย์  อภิรมย์ดี ทม6756                     88479092            67216315                                10200754CCSH       0000000834500000                                                                             
D000007006057601827924022012094543นายณัฐพล  สนิท  ทร 9501                           88899093            15219330                                08560585CCSH       0000001284000000                                                                             
D000008006057601827924022012095341นาย พลอย เถาว์พุดซา                               88488898            77210352            ทว727               00611358CCSH       0000001700000000                                                                             
D000009006057601827924022012103915นาง มาลาศรี ทองชา                                 88521499            107130390                               01230882CCSH       0000001302000000                                                                             
D000010006057601827924022012105904นางธัญญารัตน์  ภักดี                              88089781            08217344                                03180577CCSH       0000004730400000                                                                             
D000011006057601827924022012110810เสกสรรค์ กลิ่นรอด ทว4998                          88479496            89214359                                01991041CCSH       0000001799200000                                                                             
D000012006057601827924022012111148ผาณิต  จันทร์เมฆา                                 88467297            76210353                                07416355CCSH       0000001799200000                                                                             
D000013006057601827924022012112827นายวิรุฬห์ภพ  ศรีงาม                              8840-9191           0221-3330                               02680010CCSH       0000000295500000                                                                             
D000014006057601827924022012112955นายชิ้น ทองไพรวรรณ                                88579692            56217350                                06930091CCSH       0000001894500000                                                                             
D000015006057601827924022012114053นางคูณ  เทศแท้                                    88579993            37216358                                02503235CCSH       0000001700000000                                                                             
D000016006057601827924022012114321นายอำนาจ เจียมเชื่อม ทศ 2094                      88669596            40212369                                02530554CCSH       0000001744200000                                                                             
D000017006057601827924022012114426นายสำรวย จางนอก  ทศ6206                           8836-8897           6221-6360                               00570890CCSH       0000001006600000                                                                             
D000018006057601827924022012120857นาง จุไรรัตน์  สุทธิเวช                           88489097            75214347                                11520169CCLQ776599 00000003800000140080                                                                         
D000019006057601827924022012121211นางณัฏฐินันท์ ทองน้อย                             88525899            104119553                               05670403CCSH       0000001751000000                                                                             
D000020006057601827924022012122004ประยุทธ   ศรีอำนาจ                                88507699            100104553                               10330395CCSH       0000001908400000                                                                             
D000021006057601827924022012131205นางสาว สุนิสา ชัยชนะ ทศ.8295                      8815-9995           5221-8369                               11941277CCSH       0000001846600000                                                                             
D000022006057601827924022012131717สัมเดช เกลี้ยง                                    88169995            8311334             0899633314          04607752CCSH       0000001550000000                                                                             
D000023006057601827924022012133644นายนิสิต หล่อดี ทย 3722                           88879592            27213322                                08003818CCSH       0000001451700000                                                                             
D000024006057601827924022012133823นาง  นันท์นภัส  พิพิธพัทธอาภา  ทษ 6549            88512599            104121266                               01980820CCSH       0000002069400000                                                                             
D000025006057601827924022012134607นายมงคล  มูลมณี                                   88689793            70312071                                06920406CCSH       0000001688700000                                                                             
D000026006057601827924022012134929นางสาวชูศรี  งามประเสริฐ                          88979981            49214327                                01440888CCSH       0000000856300000                                                                             
D000027006057601827924022012135443บุญมี  หวังประเสริฐ                               88759295            71218334                                11511252CCSH       0000000663400000                                                                             
D000028006057601827924022012135613สมโชค  จีบงาม                                     88543099            106120053                               11241241CCSH       0000002000000000                                                                             
D000029006057601827924022012135709นายสุรพล อันทวงษ์                                 8867-9486           3221-1342                               00820884CCSH       0000001484700000                                                                             
D000030006057601827924022012135856นายอนันต์ สิงห์น้อย ทศ1463                        88769797            34211366                                10150069CCSH       0000001918440000                                                                             
D000031006057601827924022012140010นายสันติ ฤทธี                                     88559897            32217360            ทศ 7203             04670151CCSH       0000001936000000                                                                             
D000032006057601827924022012140112นายสันติ ฤทธี                                     48759997            32217360                                04670151CCSH       0000000280000000                                                                             
D000033006057601827924022012141105นายวรวิทย์ และสง่า ทว 3030                        88069697            00213353                                01890658CCSH       0000000500000000                                                                             
D000034006057601827924022012141458นายณรงค์ชัย อารีรักษ์ ทศ1973                      88669887            39211367                                04950176CCSH       0000002786900000                                                                             
D000035006057601827924022012143707อุทัย การเกษ  ทย6248                              8857-8197           8221-6324                               00651470CCSH       0000001067000000                                                                             
D000036006057601827924022012144850นายสุเทพ แก้วฮ่องคำ                               88569895            32317073            มฉ 7233             01902940CCSH       0000001515300000                                                                             
D000037006057601827924022012145029นางอารยา  สมจิตร  มจ 9507                         88968897            75319060            0810100155          07990070CCSH       0000001647500000                                                                             
D000038006057601827924022012145951คุณ จันหอม สาคะวัตร                               88259696            77217369                                01900804CCSH       0000001846600000                                                                             
D000039006057601827924022012150341ศราวุธ  วิเก็ง  ทศ 9348                           88859693            83219364                                02530516CCSH       0000002852300000                                                                             
D000040006057601827924022012150619ดวงพร  ภาระจ่า  ทศ 7701                           88759696            17217360                                02530516CCSH       0000002042700000                                                                             
D000041006057601827924022012151651นายสายัณห์ เอี่ยมลออ ทร 5371                      88569290            13215337                                01520684CCSH       0000001126500000                                                                             
D000042006057601827924022012151804นายสมยศ กลิ่นเกษร ทว1430                          88688298            04211353                                11260706CCSH       0000001990000000                                                                             
D000043006057601827924022012152729วิชาญ อุดมธาดาพงศ์                                88514099            107136915                               02540261CCSH       0000001000000000                                                                             
D000044006057601827924022012153453มะรินทร์ พรมโลกา ทว4756                           88579587            67214355                                00470517CCSH       0000001515200000                                                                             
D000045006057601827924022012154037นายสุกิจ ดาวเรือง                                 88459194            31218331                                01900719CCSH       0000003235600000                                                                             
D000046006057601827924022012162546นายปุณยาวัจน์ บุญน้อม                             88389791            15312075                                10720567CCSH       0000001432800000                                                                             
D000047006057601827924022012164801นางสาว อรพิน  ธนารักษ์เจริญกุล                    8818-8899           1321-9340                               07800652CCSH       0000001838900000                                                                             
D000048006057601827924022012171218นายนิทัศน์ สิริพุทธวณิชย์ มง7512                  88869591            25317051                                08691092CCSH       0000001237800000                                                                             
D000049006057601827924022012171535นาย สรรเสริญ  สีธงชัยรุ่งโรจน์                    8835-9596           7621-2343                               07930498CCSH       0000001302400000                                                                             
D000050006057601827924022012171640นาย สรรเสริญ  สีธงชัยรุ่งโรจน์                    88978888            01219284                                07930498CCSH       0000001298300000                                                                             
D000051006057601827924022012171723นายอั๋น แป้งใส ทย5825                             8877-9688           5821-5322                               10631331CCSH       0000001447100000                                                                             
D000052006057601827924022012172744นายพรรษ เสริมทอง                                  8835-9796           0831-2063                               06831082CCSH       0000001437400000                                                                             
D000053006057601827924022012173505นายรัชตะ มาวงษ์นอก ทร4013                         88668497            30214331                                04950529CCSH       0000000841800000                                                                             
D000054006057601827924022012174433นางสาว นัฐพร ประวงษ์ ทม3599                       88969193            95213319                                00860082CCSH       0000000500000000                                                                             
D000055006057601827924022012175442นายสุรชัย แก้วใจจง ทว9791                         88578989            17219359                                07930727CCSH       0000001884200000                                                                             
D000056006057601827924022012180523คุณสมร ราวินิช ทล 705                             88488899            57210340                                08550650CCSH       0000000780000000                                                                             
D000057006057601827924022012180657คุณสมร ราวินิช ทล 3453                            88279993            34213345                                08550650CCSH       0000000960000000                                                                             
D000058006057601827924022012181658นายอินทรัตน์ อินทปุระ                             88511099            107106318                               09760107CCSH       0000001100000000                                                                             
T000059006057601827900000000000000000000000087058740000057                                                                                                                                                                                                      
