H0000010060576018279บริษัท ไทเอซ สิสซิ่ง จำกัด              11102011TALHO                                                                                                                                                                                       
D000002006057601827911102011083213นายสำฤทธิ์  แก่นจันทร์ ทล4650                     88189097            06214345                                06921923CCSH       0000001756300000                                                                             
D000003006057601827911102011083658น.ส.นิภาภัทร มอมุงคุณ                             88519799            107152522                               04407817CCSH       0000000980900000                                                                             
D000004006057601827911102011090650นาย สำรวย มูหะหมัดสะแระ                           88522899            107112791                               01471089CCSH       0000000350000000                                                                             
D000005006057601827911102011091103นายสามารถ แถมเงิน                                 88889192            55312071                                01980897CCSH       0000001734200000                                                                             
D000006006057601827911102011091329นายไพรัช เข็มหนู ทว 6050                          88679295            00216355                                01610255CCSH       0000001799200000                                                                             
D000007006057601827911102011092525จักร แท่งเหล็ก ทล5355                             88889394            53215345                                10270539CCSH       0000001617900000                                                                             
D000008006057601827911102011093719สมศักดิ์ วงษ์กฤษ                                  88218489            34214328                                01110091CCSH       0000001560700000                                                                             
D000009006057601827911102011095548นายจงรักษ์ ถนอมต่วน ทษ344                         88523299            104121634                               02150700CCSH       0000001390900000                                                                             
D000010006057601827911102011101042นาย พงษ์ศักดิ์  บริบูรณ์  ทว5152                  8827-9886           2121-5355           089-1110798         08690033CCSH       0000001995000000                                                                             
D000011006057601827911102011101417ประจวบ เพ็งธรรม                                   88769490            60215367                                00530572CCSH       0000001856500000                                                                             
D000012006057601827911102011101514นายประสิทธิ์ คำรักษ์                              88869991            51219332                                00240918CCSH       0000001577500000                                                                             
D000013006057601827911102011102456นายวรรณลภ  กิจทา                                  88769995            09216327                                11470668CCSH       0000001111200000                                                                             
D000014006057601827911102011110338นางสาว สุภาพร นาคำ ทศ8326                         88559795            63218362                                10070203CCSH       0000000258100000                                                                             
D000015006057601827911102011111543สุชาติ เรืองเผ่าพันธ์ ษง3638                      8865-9593           8637-3053                               00610198CCSH       0000000815700000                                                                             
D000016006057601827911102011111607นายสุโรจน์ เสรีกุล                                88089298            30311075                                02610862CCSH       0000001004800000                                                                             
D000017006057601827911102011113537นาย บุญจันทร์ สีธาตุ                              88530799            107043199                               08510017CCSH       0000001033000000                                                                             
D000018006057601827911102011115632นายดนุเดช สายบัว มฉ4624                           8817-9395           4631-4072                               00620586CCSH       0000001800000000                                                                             
D000019006057601827911102011120417นายปฏิภาณ  สมดี  ทศ5045                           88669390            50215364            089-2327289         08690033CCSH       0000001432800000                                                                             
D000020006057601827911102011120432นายบุญเลิศ เทศขำ ปอ 2964                          88888497            49252416                                04580699CCSH       0000000300000000                                                                             
D000021006057601827911102011120434นส.ฐาปณภัท  ธรรมวิหาร                             8899-8199           4321-2340                               07580441CCSH       0000001720000000                                                                             
D000022006057601827911102011120535นส.ฐาปณภัท  ธรรมวิหาร                             8889-8199           3321-2340                               07580441CCSH       0000001720000000                                                                             
D000023006057601827911102011121040บรรเจิด หล่ำจรูญ                                  88178997            23310060                                00970065CCSH       0000000800000000                                                                             
D000024006057601827911102011121131นางสุนิจ สมบัติ ทร2854                            88969295            48212335                                10070236CCSH       0000001450000000                                                                             
D000025006057601827911102011122610นายอนุสรณ์ วารีน้อย ทม 5553                       8826-9394           3521-5315                               00110057CCLQ103739900000014957000040766                                                                         
D000026006057601827911102011123804นายพรประสิทธิ์ บัวเพชร                            8878-8399           1521-9349                               00281171CCSH       0000002969000000                                                                             
D000027006057601827911102011124213นางสาววัสมล  โชติสิงห์  ทศ 9033                   88059094            30219363                                05701141CCSH       0000001922300000                                                                             
D000028006057601827911102011130408นางสาว ณัฐธิชา ทาระเวท ทศ 1664                    8856-9597           4621-1366                               03830885CCSH       0000001861800000                                                                             
D000029006057601827911102011131155นางจรรยา อืนทศร ทว 7014                           88069892            40217351                                04580699CCSH       0000002117000000                                                                             
D000030006057601827911102011134105น.ส. ไพจิตต์ กีรติพินิจ ทย 6373                   8847-8199           3321-6327                               05700767CCSH       0000001087800000                                                                             
D000031006057601827911102011135004นายธีรพงษ์ สมนาม ทร 4469                          88523899            107136028                               10151588CCSH       0000000490500000                                                                             
D000032006057601827911102011135623นายจักรกฤษณ์ กุหลาบ                               8898-8199           1821-9343                               01270115CCSH       0000000843300000                                                                             
D000033006057601827911102011135731นายโกศล  เที่ยงสันเทียะ                           88537399            104118653                               00840185CCSH       0000001922500000                                                                             
D000034006057601827911102011141138นางสาวนิษฐิดา  แปงแก้ว                            88959394            48212356                                02580601CCSH       0000003000000000                                                                             
D000035006057601827911102011143149นางศิรินภา  จิตตะยะโสภณ                           8847-9596           8721-4359                               06920406CCSH       0000002372000000                                                                             
D000036006057601827911102011143216นายวชิระ อยู่โต                                   88159894            60339067                                04880760CCSH       0000000289800000                                                                             
D000037006057601827911102011145021นาย ธวัชชัย กลิ่นหนู                              88379393            65215322            ทย 5526             03991662CCSH       0000000868300000                                                                             
D000038006057601827911102011150926ณรงค์ พรหมอ่อน ทม 5133                            8840-8397           3121-5313                               00610198CCSH       0000000491800000                                                                             
D000039006057601827911102011151029นางสลิล มะลิต้น                                   88589984            67211345                                02610551CCSH       0000001665000000                                                                             
D000040006057601827911102011151642ดำรงค์รักษ์ โชคพิมาย ทว 4436                      8857-9887           6421-4353                               00771064CCSH       0000001884200000                                                                             
D000041006057601827911102011152502วราภรณ์ แก้วทอง                                   8828-9580           2321-9349           ทล 9392             04920051CCSH       0000001792300000                                                                             
D000042006057601827911102011153533นายเสรี ผายพิมพ์ ทร 7314                          88468797            43217331                                02501180CCSH       0000001105700000                                                                             
D000043006057601827911102011154050นายวิชิต เลียงเล็กจำนงค์                          88538099            104119018                               00390143CCSH       0000001922300000                                                                             
D000044006057601827911102011155638คุณสมพงษ์ ใจดี                                    8837-9196           3331-4077                               01730571CCSH       0000001918400000                                                                             
D000045006057601827911102011155840นาย ประพันธ์ยุทธ์ ชัยศรี                          8838-8797           8721-1359                               07620396CCSH       0000001972000000                                                                             
D000046006057601827911102011160633นายองอาจ มหิทธิโรจน์                              8897-9784           36216351                                02150082CCSH       0000001194400000                                                                             
D000047006057601827911102011160752นายองอาจ มหิทธิโรจน์ ทว6614                       8887-9784           4621-6351                               02150082CCSH       0000000809400000                                                                             
D000048006057601827911102011162149ด.ต.พิพรรธ แสนอินทร์                              88289193            26213340                                07620496CCSH       0000001450000000                                                                             
D000049006057601827911102011164019สุริยา บุรีรัตน์ ทร3296                           88869590            62213339                                10270539CCSH       0000000829300000                                                                             
D000050006057601827911102011165823นางสาว วชิราภรณ์ นุชสุข                           8896-9591           0421-4362                               09621011CCSH       0000001772800000                                                                             
D000051006057601827911102011170621วรรณภา  เจริญอินทร์ ทศ 1945                       88869598            59211364                                07990174CCSH       0000003269600000                                                                             
D000052006057601827911102011172046นายสมาน พวงพิลา                                   88368597            64319071                                11370660CCSH       0000002417000000                                                                             
T000053006057601827900000000000000000000000075798900000051                                                                                                                                                                                                      
