H0000010060576018279บริษัท ไทเอซ สิสซิ่ง จำกัด              11032012TALHO                                                                                                                                                                                       
D000002006057601827911032012110602นางมะลิ สุดสอาด                                   88279994            53216350            ทว 6305             08510518CCSH       0000001700000000                                                                             
D000003006057601827911032012121855นายจักรชัย ลมัยกุล                                8806-9890           0721-4361           ทศ 4710             09620049CCSH       0000000064300000                                                                             
D000004006057601827911032012122940นายสมเจตน์ จงพินิจ ทว1956                         88534989            106133589                               01734121CCSH       0000001444500000                                                                             
D000005006057601827911032012124648นายทัชพล โคตรวงษ์                                 88959894            07213322                                09760107CCSH       0000001500000000                                                                             
D000006006057601827911032012130121นายสาคร  นามใจยา  ทร 7754                         8807-9796           4721-7335                               04670988CCSH       0000000796000000                                                                             
D000007006057601827911032012144354น.ส.ชฏารัตน ช่อกลาง                               88167497            71210351                                07951758CCSH       0000001640000000                                                                             
D000008006057601827911032012145945นายสรรเสริญ สสีธงชัยรุ่งโรจน์ ทร530               88520299            107121895                               07930727CCSH       0000001091500000                                                                             
D000009006057601827911032012150104นายสรรเสริญ สีธงชัยรุ่งโรจน์ ทย7858               88068298            88217325                                07930727CCSH       0000001091500000                                                                             
D000010006057601827911032012150147นายสรรเสริญ สีธงชัยรุ่งโรจน์ ทร5168               88368797            81215346                                07930727CCSH       0000001010600000                                                                             
D000011006057601827911032012150257นายสุรศักดิ์ วิเชียรเกื้อ ทศ 7385                 88859497            53217368                                04670492CCSH       0000001344200000                                                                             
D000012006057601827911032012160612องอาจ  มหิทธิโรจน์ ทว6613                         8897-9784           3621-6351                               04950191CCSH       0000001194400000                                                                             
D000013006057601827911032012160714องอาจ  มหิทธิโรจน์ ทว6614                         8887-9784           4621-6351                               04950191CCSH       0000001194400000                                                                             
D000014006057601827911032012160734จ.ส.ท.อรรณนพ โคตรโสภา ทว 5439                     88079786            94215353                                10270592CCSH       0000001884200000                                                                             
D000015006057601827911032012163139นายอนุสรณ์  วารีน้อย  ทม 3403                     8817-8399           3421-3310                               07990174CCSH       0000000695500000                                                                             
D000016006057601827911032012165958พ.ต.ณัฐ กาญจนโรจน์                                88969290            24218343                                04770515CCSH       0000001382100000                                                                             
D000017006057601827911032012170042นายณรงค์ พรหมอ่อน ทม 5133                         88868797            31215313            0812976259          07620610CCSH       0000000841800000                                                                             
D000018006057601827911032012175507นาย กันภัย จิตราวัฒน์                             88519399            107146492                               07801196CCSH       0000000600000000                                                                             
D000019006057601827911032012180210นางสาว วิไลรัตน์ บุญเผือก ทล7670                  88789981            06217347                                10070203CCSH       0000001300000000                                                                             
D000020006057601827911032012180842บจก.ขนอม ทรานสปอร์ท                               88079893            14217354                                10990536CCSH       0000001750000000                                                                             
D000021006057601827911032012182945นายดนุเดช สายบัว  มฉ4624                          88179395            46314072                                11140161CCSH       0000001800000000                                                                             
D000022006057601827911032012185947นายสมพร คำใจ                                      88268699            08211344                                11370605CCSH       0000001191200000                                                                             
T000023006057601827900000000000000000000000025516200000021                                                                                                                                                                                                      
