H0000010060576018279บริษัท ไทเอซ สิสซิ่ง จำกัด              24072011TALHO                                                                                                                                                                                       
D000002006057601827924072011110940นายอรัญ ขาวเนตร                                   88398798            64212348                                09761108CCSH       0000001767300000                                                                             
D000003006057601827924072011113010นาย สุนัย  พรมไพโรจน์  ทล 3752                    8875-9894           2721-3345                               09760540CCSH       0000001374400000                                                                             
D000004006057601827924072011114833นางเยาวภา ดีปะวี ทล2493                           8809-8898           3421-2349                               04880528CCSH       0000001665500000                                                                             
D000005006057601827924072011131347คมสัน ศรีวะรมย์ ทล6359                            8888-9492           9321-6345                               07620899CCSH       0000001803300000                                                                             
D000006006057601827924072011131712สุมิตร แพไธสง                                     88269591            00212324                                01520230CCSH       0000000561200000                                                                             
D000007006057601827924072011135923นาง พัชรี ศรีหาประทุม ทม 8664                     88769491            4218316                                 08401304CCSH       0000000808500000                                                                             
D000008006057601827924072011141647น.ส. วัสมล โชติสิงห์ ทว 7623                      8826-7497           3621-7352                               05700767CCSH       0000001799200000                                                                             
D000009006057601827924072011143628นายทนงศักดิ์ คงแก้ว ทล1874                        88798899            48211347                                08691827CCSH       0000001248600000                                                                             
D000010006057601827924072011143758นาย ทนงศักดิ์  คงแก้ว ทล1875                      88698899            58211347                                08691827CCSH       0000001248600000                                                                             
D000011006057601827924072011151230นายคมเดช จันทร์ไสว ทศ6230                         8806-8897           0221-6363                               07650103CCSH       0000001592300000                                                                             
D000012006057601827924072011151520สุรีรัตน์ เอี่ยมอำพร                              88379796            00215353                                05699910CCSH       0000001329600000                                                                             
D000013006057601827924072011161028พรพรต พาทีทิน ทว6175                              8885-9886           5121-6357                               07620899CCSH       0000002230000000                                                                             
D000014006057601827924072011162334นายอั๋น  แป้งใส ทย 5825                           8877-9688           5821-5322                               04670988CCSH       0000001447100000                                                                             
D000015006057601827924072011163753ศุภานัน อ่องรัตนา                                 8856-7797           9021-2344           ทล2049              05750020CCSH       0000001699800000                                                                             
D000016006057601827924072011164111ศุภานัน อ่องรัตนา                                 8846-7797           9021-2345           ทล2059              05750020CCSH       0000001699800000                                                                             
D000017006057601827924072011171616น.ส.ชฎารัตน ช่องกลาง ทว117                        8816-7497           7121-0351                               07958112CCSH       0000001640000000                                                                             
D000018006057601827924072011180255คุณสมร ราวินิช ทล 3453                            88279993            3421-3345                               08550650CCSH       0000000960000000                                                                             
D000019006057601827924072011180502คุณสมร ราวินิช ทล 705                             88488899            5721-0340                               08550650CCSH       0000000780000000                                                                             
D000020006057601827924072011183658นาย มานพ  แข็งแขตการณ์                            8876-9997           3521-1362                               08550648CCSH       0000001884200000                                                                             
D000021006057601827924072011185947นายสังขชัย  สังขรุจน์ มฉ3190                      8876-9297           0131-3079                               07958112CCSH       0000001140000000                                                                             
T000022006057601827900000000000000000000000028679400000020                                                                                                                                                                                                      
