H0000010060576018279บริษัท ไทเอซ สิสซิ่ง จำกัด              20012012TALHO                                                                                                                                                                                       
D000002006057601827920012012085620นายจิตธง เทียนหิรัญชัยกุล                         88597598            107161138                               00390709CCSH       0000000948200000                                                                             
D000003006057601827920012012091130นายมงคล ทองอยู่ ทว 8154                           8867-9982           4121-8355                               01990942CCSH       0000001799200000                                                                             
D000004006057601827920012012093936นาย บุญสม สุขเล่ห์                                88379998            38313076                                03830197CCSH       0000001734300000                                                                             
D000005006057601827920012012094127นายสนธยา มีลาดคำ                                  8868-89998          7331-3075                               03740699CCSH       0000001906700000                                                                             
D000006006057601827920012012095516นางสาวภาวิณี แซ่กอ                                88189480            92219344                                09760107CCSH       0000002949600000                                                                             
D000007006057601827920012012095806น.ส.อำนวยพร วารีน้อย                              88569992            67210323                                00910663CCSH       0000001907200000                                                                             
D000008006057601827920012012100902นายอำนาจ เจียมเชื่อม ทศ 2094                      8866-9596           4021-2369                               02530654CCSH       0000001884200000                                                                             
D000009006057601827920012012101413พตท.สุเทพ  ภูวงเดือน                              8845-9597           0421-9316                               02501795CCSH       0000001232200000                                                                             
D000010006057601827920012012101414นางสาววณิชชา จำนงนิตย์  ทม5651                    88507399            107073444                               01480206CCSH       0000001550000000                                                                             
D000011006057601827920012012101946วัลลพ กันหอม ทร 6271                              88059986            12216337                                10320746CCSH       0000001090300000                                                                             
D000012006057601827920012012102509นายภักดี  ถาวรวัฒนะ มจ 524                        88669697            45310062                                06921923CCSH       0000001565700000                                                                             
D000013006057601827920012012102826นางนงนุช สุทธาวาส                                 88669298            16211361                                01970387CCSH       0000001884200000                                                                             
D000014006057601827920012012102902นางสลิล มะลิต้น ทย 6326                           88189791            63216322                                04580699CCSH       0000001503500000                                                                             
D000015006057601827920012012104010เกษร ส่งศรีสุข                                    88099398            84216336                                01080545CCSH       0000001455500000                                                                             
D000016006057601827920012012104112นางจิราภรณ์                                       88979096            45210325                                06991739CCSH       0000001319700000                                                                             
D000017006057601827920012012104829ดวงพร ภาระจ่า ทศ7701                              8875-9696           1721-7360                               02501075CCSH       0000002042700000                                                                             
D000018006057601827920012012105643น.ส.ศิริกานดา  ทานุรัตน์  ทศ 3342                 8876-9893           2321-3364                               04690052CCSH       0000001799200000                                                                             
D000019006057601827920012012105847นางนิตยา วรสาร                                    88369893            03213363                                08770801CCSH       0000001175500000                                                                             
D000020006057601827920012012110003นางจิราพร ทองร่มโพธิ์ ทว 6633                     88179884            36216353                                01890658CCSH       0000001700000000                                                                             
D000021006057601827920012012110122นาย อนุสรณ์  ศรีมาลี มฉ9708                       88759398            87319070                                00130105CCSH       0000000924600000                                                                             
D000022006057601827920012012110315นางสาวอุไร ชูศักดิ์ ทร9232                        8849-9094           2221-9333                               10150884CCSH       0000000034300000                                                                             
D000023006057601827920012012111040สมศักดิ์ ตั้งจิตเสถียรกุล 083-9791805             8807-7397           6921-5313                               00370077CCSH       0000001518100000                                                                             
D000024006057601827920012012111552นายสมชาติ กวดนอก                                  88548889            104116063                               00570221CCSH       0000001602500000                                                                             
D000025006057601827920012012112901ด.ต.สุวนัย เสาศิริ ทศ2860                         88869195            08212366                                04780201CCSH       0000001723200000                                                                             
D000026006057601827920012012113142สมพร  กาศักดิ์  084-1324719                       88479896            07214356                                00336605CCSH       0000001700000000                                                                             
D000027006057601827920012012120921นายวิน แซ่วี ทษ1274                               88524699            104120696                               00241807CCSH       0000001867300000                                                                             
D000028006057601827920012012121000มะลิวัลย์ จุ่นทอง                                 8807-9982           60218354                                07540563CCSH       0000001734200000                                                                             
D000029006057601827920012012121157ภัสรา เรศสุข                                      88769694            43212363            ทศ2334              11811811CCSH       0000001800000000                                                                             
D000030006057601827920012012121406ภัสรา เรศสุข                                      88769693            24213369            ทศ3492              11811811CCSH       0000001799200000                                                                             
D000031006057601827920012012122314นายสามารถ  สุขเรือง                               88579886            53105318                                01528111CCSH       0000001100000000                                                                             
D000032006057601827920012012122752นางณัฎฐสิณี อยู่พันธุ์                            88779784            07216351                                06881117CCSH       0000001884200000                                                                             
D000033006057601827920012012123936นาย ประกอบ เขตบุญไสย  มฉ 9856                     88580998            107137247                               04581882CCSH       0000001025500000                                                                             
D000034006057601827920012012124130พันธวัช  ยันฝาก                                   88572898            107025860                               00390613CCSH       0000000695500000                                                                             
D000035006057601827920012012124326ธนัช กันติ๊บ ทร2431                               88169692            14212333                                01990939CCSH       0000001555600000                                                                             
D000036006057601827920012012124956พ.จ.อ.สิทธิพงศ์  น้อยแสง                          88537299            107075093                               10220841CCSH       0000002000000000                                                                             
D000037006057601827920012012131423นายรัฐ ใจฉ่ำ มจ2008                               88506499            107092179                               00640030CCSH       0000001230500000                                                                             
D000038006057601827920012012132031นางนาตยา  ยืนบุญยิ่ง                              88609298            02217320                                01900549CCSH       0000001334800000                                                                             
D000039006057601827920012012133546พชร ดีพอ มฉ5607                                   8817-9890           7631-5070                               04990497CCSH       0000001515300000                                                                             
D000040006057601827920012012134052นาย มานิตย์ พลพฤกษ์ ทว746                         8808-8898           6721-0354                               01980212CCSH       0000001000000000                                                                             
D000041006057601827920012012135836นาย อนุสรณ์ วารีน้อย ทศ9301                       8865-9793           1321-9360                               01780060CCSH       0000002087700000                                                                             
D000042006057601827920012012141712นส.ศิรินทร์ทิพย์  สลุงอยู่ ทศ 7643                88959896            36217364                                04585612CCSH       0000001519900000                                                                             
D000043006057601827920012012142814นายบุญเหลือ  พงษ์ธนู                              8838-8097           5031-5072           มฉ 5025             00800156COTH       0000001700000000                                                                             
D000044006057601827920012012143609อัครเดช ขันคำ มฉ5285                              88479982            52315078                                10270539CCSH       0000001799200000                                                                             
D000045006057601827920012012144708นางวลียา อภิสิทธิวาสนา                            88677497            15215344                                00370348CCSH       0000001936500000                                                                             
D000046006057601827920012012145147นายนิธิพัฒน์ บังเกิดคงคาดิษฐ์ ทศ 8429             88959795            94218362                                04671034CCSH       0000002550000000                                                                             
D000047006057601827920012012145250นายสมภพ วชิรประชานุกูล                            88189696            88217331            081-8131196         10560053CCSH       0000001336200000                                                                             
D000048006057601827920012012145542นางสาวนฤมล ชนกศรีทอง ทว1858                       88488897            88211355                                01200200CCSH       0000001700000000                                                                             
D000049006057601827920012012145701นางสาวปริศนา สงวนงาม                              8865-9998           7621-6369                               01081088CCSH       0000001839700000                                                                             
D000050006057601827920012012145840นายสุรศักดิ์  อินทศร                              8836-9290           7321-1352                               04585612CCSH       0000002011000000                                                                             
D000051006057601827920012012150952นายอัศวิน อิ่มพันธ์                               88516799            106199481                               02610862CCSH       0000000100000000                                                                             
D000052006057601827920012012154305แมน  ศีตะจิตต์                                    88545999            104117323                               11310957CCSH       0000001575400000                                                                             
D000053006057601827920012012155001นายปริญญา ผลพานิช                                 88468399            84319064                                00224551CCSH       0000000943400000                                                                             
D000054006057601827920012012155108นายจักรพันธ์ เลี่ยมรัตน์  ทว 6307                 8867-9794           7321-6350                               01480206CCSH       0000001670000000                                                                             
D000055006057601827920012012160817นายจตุพร นาคไพรัชช์                               88379498            82213359                                10520869CCSH       0000000409000000                                                                             
D000056006057601827920012012161946นายสมหวัง แซ่อึ้ง ทม 6062                         8836-9697           2021-6316                               00771132CCSH       0000001116600000                                                                             
D000057006057601827920012012163300นางสาว บุญนำ สมัครเขตรการ ทศ9765                  88520999            104119489                               07930240CCSH       0000001867300000                                                                             
D000058006057601827920012012163428เกษศิรินทร์ ดวงอุปปะ                              88969296            04215320                                10365296CCSH       0000000893600000                                                                             
D000059006057601827920012012165123นาย อุเทน  เพชร์ทอง                               88268298            80216368                                10990991CCSH       0000001839700000                                                                             
D000060006057601827920012012165550นาย เอกสิทธิ์  ศรีตองอ่อน ทว4793                  8837-9696           3721-4359                               11860608CCSH       0000001918700000                                                                             
D000061006057601827920012012165800นาง สุกัญญา  ศรีจันทร์ ทว 4753                    8827-9696           3721-4355                               11860608CCSH       0000001918700000                                                                             
D000062006057601827920012012170241นาย ทศพล ผาช้างเผือก มฉ 4088                      88669296            80314078                                08450154CCSH       0000001700000000                                                                             
D000063006057601827920012012171414นางอัญชลี วิไลลักษณ์                              88570798            106117440                               04780120CCSH       0000000606300000                                                                             
D000064006057601827920012012171506นางสุกัญญา วิไลลักษณ์                             88669796            63212367                                04780120CCSH       0000001356900000                                                                             
D000065006057601827920012012172559ชัยสิทธิ์                                         88169996            30310062                                07966650CCSH       0000001161000000                                                                             
D000066006057601827920012012174417นาย จักรชัย ลมัยกุล                               8806-9890           0721-4361                               09620049CCSH       0000002018000000                                                                             
D000067006057601827920012012180138นางสาวประทุม ตรีภักดิ์ ทว 9997                    88278989            79219359                                10090081CCSH       0000001828900000                                                                             
D000068006057601827920012012180619นางอรณิชา เทพเทียน ทศ9867                         88529899            106197834                               04950176CCSH       0000001584400000                                                                             
D000069006057601827920012012180727นางกรณิชา เทพเทียน ทศ6284                         88768797            42216368                                04950176CCSH       0000001856500000                                                                             
D000070006057601827920012012181002นาย วินัย  ผลดี  ทว 6853                          8827-9784           3821-6355                               10250225CCSH       0000001500000000                                                                             
D000071006057601827920012012182809นายบุญโฮม อนุชาด                                  88525699            107102099                               11330131CCSH       0000000740000000                                                                             
D000072006057601827920012012193944นางสาว นิตยา ศิริพลัด มจ8980                      88159595            09318068                                11140247CCSH       0000001471700000                                                                             
T000073006057601827900000000000000000000000108049000000071                                                                                                                                                                                                      
