H0000010060576018279บริษัท ไทเอซ สิสซิ่ง จำกัด              09082011TALHO                                                                                                                                                                                       
D000002006057601827909082011085043นาย สุพจน์ คุ้มภัยเพื่อน                          88159096            84310082                                05940511CCSH       0000001812300000                                                                             
D000003006057601827909082011090059นาย สมนึก  รัตนประเสริฐ ทม9310                    8821-9294           0321-9311                               02161072CCSH       0000000300000000                                                                             
D000004006057601827909082011090413นายศุภณัฎฐ์ ใจกล้า มฉ 3260                        88667197            02313076                                00330398CCSH       0000001884200000                                                                             
D000005006057601827909082011090613นางนงนุช  สุทธาวาส  ทศ 1611                       8866-9298           1621-1361                               04990266CCSH       0000000235500000                                                                             
D000006006057601827909082011093527นางสุณีย์ ดีอดุลย์                                8868-9391           5421-7342                               01520889CCSH       0000002274500000                                                                             
D000007006057601827909082011094522กมล  แต้มสว่าง                                    8888-9790           8421-8327                               00911062CCSH       0000001617000000                                                                             
D000008006057601827909082011101835นายประสาร ศรีตะวัน                                8887-8898           1521-6325                               00282352CCSH       0000001105700000                                                                             
D000009006057601827909082011102533นายวรภพ งะบัว                                     88269096            31212333            ทร2133              00540034CCSH       0000001517700000                                                                             
D000010006057601827909082011110819นาย สันต์ ลาภรุ่งเรือง ทล 6781                    8828-9392           1721-6348                               05700767CCSH       0000001285600000                                                                             
D000011006057601827909082011112022ร.ท.วิไล ลูกบัว  ทว 326                           88769592            63210352                                00651478CCSH       0000001300000000                                                                             
D000012006057601827909082011112430นาย บรรเจิด หล่ำจรูญ                              88178997            23310060                                00970119CCSH       0000000800000000                                                                             
D000013006057601827909082011112627สังข์วาลย์  เนตะเวณ ทล 835                        88999791            58210343                                00030091CCSH       0000001014300000                                                                             
D000014006057601827909082011113021นางสาวศิริกานดา ทานุรัตน์ ทศ1956                  88569987            69211365                                04690578CCSH       0000001799200000                                                                             
D000015006057601827909082011113812นายคงฤทธิ์ ผดาวัลย์                               8889-9290           3621-1348           ทล1683              03970649CCSH       0000001665500000                                                                             
D000016006057601827909082011114924ภัททิรา วีระกูล                                   88159396            79217364                                01080545CCSH       0000001812300000                                                                             
D000017006057601827909082011115555วชิระ บ. มฉ2750                                   8868-9981           0731-2075                               10360281CCSH       0000001799200000                                                                             
D000018006057601827909082011115955นางสาว นงนุช  กาฬภักดี ทว 78                      8828-8099           8021-0357                               04650389CCSH       0000001700000000                                                                             
D000019006057601827909082011120821ประจวบ เพ็งธรรม                                   8876-9490           6021-5367                               00530428CCSH       0000001856500000                                                                             
D000020006057601827909082011121229นางสาวภัทรานิษฐ์ รัตนวรธันยา                      88269787            60212366                                04810552CCSH       0000001629200000                                                                             
D000021006057601827909082011121513นายคมวุฒิ กอแก้ว ทย1241                           8831-9691           1221-1324                               04950529CCSH       0000000106000000                                                                             
D000022006057601827909082011121751นาย พันธ์ศักดิ์ เอี่ยมศรีอุไร                     8846-8899           3519-3408                               08640149CCSH       0000003400000000                                                                             
D000023006057601827909082011122318นาย โชคชัย สนธิ์ชัยสกุล ทว 3503                   8887-9688           3521-3350                               07620396CCSH       0000000201200000                                                                             
D000024006057601827909082011123211นายธนะจิตต์  พึ่งโพธิ์สภ                          8818-8199           1921-9346           ทล9961              08690266CCSH       0000001700000000                                                                             
D000025006057601827909082011124700วิศว คาดหมาย                                      88079984            75216353                                04610367CCSH       0000001884200000                                                                             
D000026006057601827909082011125053นายถวิล  นาโควงค์                                 88179294            74216357                                00360013CCSH       0000001884200000                                                                             
D000027006057601827909082011125415นายอนันท์  ทับทิม ทร 1004                         88459695            40211330                                02251174CCSH       0000001170000000                                                                             
D000028006057601827909082011130051อาทิตย์ ทองปิ่น                                   8868-9494           1121-4318                               00911062CCSH       0000001628000000                                                                             
D000029006057601827909082011130416นายอนุสรณ์  วารีน้อย                              8827-8299           2321-0327                               07990132CCSH       0000001455200000                                                                             
D000030006057601827909082011131438คุณเกียรศักดิ์ วิสุทธิรัตนกุล                     8827-9487           6521-4356                               04710654CCSH       0000001419000000                                                                             
D000031006057601827909082011133144นางสาว บังอร บูระพิน                              8827-9788           7521-3350                               09550684CCSH       0000000098500000                                                                             
D000032006057601827909082011134255นางวารี วรศิริ ทว 9590                            8837-8399           0521-9359                               00660159CCSH       0000001918500000                                                                             
D000033006057601827909082011134922บจก.สิฎฐ์โชคดี 3                                  8827-9593           2325-7419           ปอ7392              08690266CCSH       0000000609300000                                                                             
D000034006057601827909082011134932ทีระชาติ ภิญโญ                                    88068499            73214364                                00240400CCSH       0000001748600000                                                                             
D000035006057601827909082011135320นางสาว สุรีมาศ โชติวัฒนสกุล                       8815-9793           0021-2343                               00430085CCSH       0000000868800000                                                                             
D000036006057601827909082011135355นายทองปาน บุญแสนยศ ทร 7940                        8849-9096           0921-7334                               11461039CCSH       0000001063400000                                                                             
D000037006057601827909082011135815ธนเดช จารุฐิติมาศ  ทย 7318                        88569493            83217321                                08550664CCSH       0000000130000000                                                                             
D000038006057601827909082011140907นาง ประไพวรรณ หวานเย็น  ทว 7317                   8857-9983           7321-7351                               04994991CCSH       0000001700000000                                                                             
D000039006057601827909082011142057น.ส. อุดมรักษ์ ขอนสี                              8837-8198           2121-0367                               00821044CCSH       0000001918500000                                                                             
D000040006057601827909082011142129ประทุม ไทรแช่มจันทร์                              8846-7897           9821-4353                               01820154CCSH       0000001884200000                                                                             
D000041006057601827909082011143731นาย พงษ์เกียรติ บุญเส็ง  ทม 7705                  8895-9696           5721-7310                               05700767CCSH       0000001498000000                                                                             
D000042006057601827909082011143901นายยอดชาย จำจำรูญ  ทล.2298                        8849-8199           8221-2349                               08404479CCSH       0000001625000000                                                                             
D000043006057601827909082011144227ณรงค์ ภู่กรุต ทศ8418                              88359395            84218361                                07960038CCSH       0000002632000000                                                                             
D000044006057601827909082011150145นายเอกชัย บุรินทะ ทล7963                          88689191            39217346                                07581771CCSH       0000001700000000                                                                             
D000045006057601827909082011150159นาย ประเสริฐ คุ้มชู  ทศ 1272                      8816-9498           2221-1367                               00561145CCSH       0000001774000000                                                                             
D000046006057601827909082011150309เอกชัย บุรินทะ ทล 3966                            8828-9494           6921-3346                               07581771CCSH       0000001935500000                                                                             
D000047006057601827909082011151234นางสาว โชติรส รอดนารี                             8838-8789           9321-0359                               07540596CCSH       0000002240200000                                                                             
D000048006057601827909082011152346นายภิญโญ  กันเนียม ทศ8537                         8815-9395           7521-8363                               04600072CCSH       0000001880800000                                                                             
D000049006057601827909082011160439ด.ต.เสิม หยุ่นแก้ว ทล1879                         8848-7597           9821-1347                               01970387CCSH       0000001665500000                                                                             
D000050006057601827909082011160540ด.ต.เสิม หยุ่นแก้ว ทล4228                         8878-9093           8221-4342           0898165953          01970387CCSH       0000001665500000                                                                             
D000051006057601827909082011160609นาง ลดาวัลย์ ภักดีสุวรรณ                          88159996            44216327                                10070236CCSH       0000000995100000                                                                             
D000052006057601827909082011160648ด.ต.เสิม หยุ่นแก้ว ทว4197                         8847-9197           7121-4359           0898165953          01970387CCSH       0000001884200000                                                                             
D000053006057601827909082011163624นางสาว อรวรรณ ศรีสุวรรณเกศ ทร936                  88268599            69210333                                07930727CCSH       0000000829300000                                                                             
D000054006057601827909082011170527นางสาว นุชนารถ แจ่มศุภพันธ์  ทว5838               88967297            88215353                                08690335CCSH       0000001700000000                                                                             
D000055006057601827909082011172620นาย รอง หงฝาแก้ว มฉ 2105                          8858-9293           5131-2070                               11140881CCSH       0000001467000000                                                                             
D000056006057601827909082011174302นายสมชาย ทองแดง ทศ 2598                           8836-9096           8521-2369                               00860083CCSH       0000002010000000                                                                             
D000057006057601827909082011181251นายกิตติพงษ์  กรศุภอานนท์  ทย 2007                8897-8799           7021-2320                               08510045CCSH       0000001590000000                                                                             
D000058006057601827909082011181331นายกิตติพงษ์  กรศุภอานนท์  ทม6002                 8807-8899           2021-6310                               08510045CCSH       0000001590000000                                                                             
D000059006057601827909082011181517นายทัชพล โคตรวงษ์                                 88959894            07213322                                09760107CCSH       0000001498000000                                                                             
D000060006057601827909082011181724นางชลิตดา เจริญพวง                                88288989            05210355                                09760107CCSH       0000001300000000                                                                             
D000061006057601827909082011184855ร.ท.จักรกฤษณ์ เพียรพิจิตร ทว3799                  8837-9697           9721-3359                               10360281CCSH       0000000235500000                                                                             
D000062006057601827909082011185010ร.ท.จักรกฤษณ์ เพียรพิจิตร ทศ9599                  8817-9988           9521-9369                               10360281CCSH       0000000235500000                                                                             
D000063006057601827909082011185121ร.ท.จักรกฤษณ์ เพียรพิจิตร ทว3499                  8877-9698           9421-3359                               10360281CCSH       0000000235500000                                                                             
T000064006057601827900000000000000000000000088382900000062                                                                                                                                                                                                      
