H0000010060576018279บริษัท ไทเอซ สิสซิ่ง จำกัด              05102011TALHO                                                                                                                                                                                       
D000002006057601827905102011083128นายสงกรานต์ แก้วกงพาน ทว.8391                     8837-9291           1321-8359                               00282766CCSH       0000001890500000                                                                             
D000003006057601827905102011083648นายพิทยา ผิวผ่อง มฉ 3186                          8838-8499           6131-3078                               00330398CCSH       0000001275500000                                                                             
D000004006057601827905102011083822เชาว์ พินยะเพียน ทว5005                           88579986            50215350                                10270539CCSH       0000001161000000                                                                             
D000005006057601827905102011084417ลัดดา ผาพิน ทร1254                                88769597            42211335                                10270539CCSH       0000000989800000                                                                             
D000006006057601827905102011090515นางสาวบุญสิตา  สุนทรสวัสดิ์                       8866-9197           5231-7077                               06920406CCSH       0000000030000000                                                                             
D000007006057601827905102011091105นายถวิล นาโควงศ์/0877078810                       88179294            74216357                                00750566CCSH       0000001884200000                                                                             
D000008006057601827905102011093136นาย  พิทักษ์  วุฒิสุรัตน์  ทล  6573               88789193            35216347                                01980820CCSH       0000001734300000                                                                             
D000009006057601827905102011095809นายวิรัตน์   เกิดผล ทล 4272                       88589797            22214347                                00830886CCSH       0000001558300000                                                                             
D000010006057601827905102011100833นายกิติชัย รัตมาศาณประไพ                          88298697            14213344                                01951137CCSH       0000001738400000                                                                             
D000011006057601827905102011101326นายเพชร เกาะแก้ว มง 6326                          88523399            107037867                               00910229CCSH       0000001043300000                                                                             
D000012006057601827905102011101653นาย เพชร เกาะแก้ว ทล 594                          88359797            45210349                                00910229CCSH       0000001921500000                                                                             
D000013006057601827905102011102324นายสมเกียรติ  สีธงชัยรุ่งโรจน์ ทย3603             8816-9595           3621-3320                               01740029CCSH       0000001596700000                                                                             
D000014006057601827905102011102449นายปิยะ ประทีปช่วง                                88669792            58213360            ทศ3805              00721689CCSH       0000001799200000                                                                             
D000015006057601827905102011102503นางสุวีรยา นาสวน  ทศ 2716                         88469595            67212361                                05670558CCSH       0000001194400000                                                                             
D000016006057601827905102011102723นางโสสุดา นุตตะโยธิน                              88469590            79213311                                02610551CCSH       0000001495700000                                                                             
D000017006057601827905102011103056สมเดช แสงสิน                                      88189497            25214342                                10279615CCSH       0000001741500000                                                                             
D000018006057601827905102011111645นัฐพล  บุญวิไลลักษณ์  ทย 5814                     88769596            48215321                                02530516CCSH       0000000884600000                                                                             
D000019006057601827905102011113820นายนพดล โคตา                                      88598297            74211338                                00390143CCSH       0000001451700000                                                                             
D000020006057601827905102011114323นายกฤษฎิ์ ฉัตรภูติ                                88759498            19216365                                01980897CCSH       0000005031000000                                                                             
D000021006057601827905102011115828นายอนุรักษ์  รักษาศิริ ทศ6458                     8896-8597           8421-6365                               04600072CCSH       0000001874000000                                                                             
D000022006057601827905102011120505นาย  อนุสรณ์  วารีน้อย                            8847-9981           7321-7358           ทว7387              07990852CCSH       0000001344700000                                                                             
D000023006057601827905102011120618นาย ธรรมโรจน์  ศรีบุญเลิศ                         88879786            84314071                                00910199CCSH       0000001356900000                                                                             
D000024006057601827905102011120619นาย  อนุสรณ์  วารีน้อย                            8817-8598           0921-2328           ทย2980              07990852CCSH       0000000349800000                                                                             
D000025006057601827905102011121207นายวรเทพ ชมดวง                                    88179995            15215350                                04603621CCSH       0000000030000000                                                                             
D000026006057601827905102011122229สัญญพงศ์ เจียรนัยกูร ทศ8941                       88540499            106195012                               10270539CCLQ685134900000018838000250545                                                                         
D000027006057601827905102011123823พ.ต.ท.สุเทพ ภูดวงเดือน ทศ.7409                    88359597            94217360            0899644214          02500607CCSH       0000001828800000                                                                             
D000028006057601827905102011124201ว่าที่ ร.ต.ทรงพล เสตถาภิรมย์ ทศ8891               88547299            104116007                               01731321CCSH       0000002369900000                                                                             
D000029006057601827905102011124433ว่าที่ ร.ต.ทรงพล เสตถาภิรมย์ ทศ 8893              88546299            104116011                               01731321CCSH       0000002369900000                                                                             
D000030006057601827905102011124522นายสมเกียรติ แซ่ตั้ง ทว7889                       88179392            98217358                                07930727CCSH       0000001799200000                                                                             
D000031006057601827905102011124620ว่าที่ ร.ต.ทรงพล เสตถาภิรมย์ ทศ 6691              88059798            16216369                                01731321CCSH       0000002636000000                                                                             
D000032006057601827905102011124756ว่าที่ ร.ต.ทรงพล เสตถาภิรมย์ ทศ 6419              88168497            94216361                                01731321CCSH       0000002636000000                                                                             
D000033006057601827905102011125111นางสาว สุนิสา ชัยชนะ                              88159995            52218369                                11670053CCSH       0000000132800000                                                                             
D000034006057601827905102011125453ไพรัตน์ โกษาจันทร์ มจ7270                         88525799            107134956                               10270539CCSH       0000000463700000                                                                             
D000035006057601827905102011125522ไขแสง โสฬส                                        88479797            58216320                                08450160CCSH       0000001056100000                                                                             
D000036006057601827905102011125534นายพงษ์ศักดิ์  บุญมา  ทศ 1874                     8896-9197           4821-1367                               11310028CCSH       0000001981000000                                                                             
D000037006057601827905102011125712นายสานิตย์  ศรีม่วง                               8876-7997           0421-4312                               10290212CCSH       0000001451700000                                                                             
D000038006057601827905102011130319นายเสริฐ ทีฆาวงค์ ถส2576                          88269893            65202387                                01200274CCSH       0000000898900000                                                                             
D000039006057601827905102011130508นางชนาทิพย์  สาทสนิท  ทศ 9480                     88524899            107034554                               05701141CCSH       0000000460000000                                                                             
D000040006057601827905102011130925นาย  สมนึก  ทัพน้อย                               8826-9496           5321-2367           ทศ2375              07990852CCSH       0000001884200000                                                                             
D000041006057601827905102011130943นายชำนาญ สินสำอางค์ ทว8504                        88279191            45218350                                04950176CCSH       0000001948500000                                                                             
D000042006057601827905102011131351นาย ชาตรี ขุนติเศษ                                88769493            66213361                                03570761CCSH       0000001617900000                                                                             
D000043006057601827905102011132200นายวิชัย  ปุสารัมย์                               88959196            29217368                                07620776CCSH       0000001519900000                                                                             
D000044006057601827905102011132311กันยา  ทับพระ                                     8876-9292           8321-2322           02-540-1961         08770142CCSH       0000000636000000                                                                             
D000045006057601827905102011133825นายสรายุทธ บัวบัณฑิต                              88189396            99214340                                09760107CCSH       0000001993700000                                                                             
D000046006057601827905102011135015นายวีระ ฉ่ำมณี  ทร 5913                           8846-8497           3921-5331                               00580889CCSH       0000001000000000                                                                             
D000047006057601827905102011135345ศุภกร วิเศษธนาดุล ทย6327                          88508899            107104674                               10270539CCSH       0000001193500000                                                                             
D000048006057601827905102011135436นางไพฑูล รักษาพงษ์ ทว1100                         88888298            01211350                                05750619CCSH       0000001700000000                                                                             
D000049006057601827905102011140116ชาตรี วงค์เพ็ญ                                    88869997            38215338                                01090840CCSH       0000001086500000                                                                             
D000050006057601827905102011140634นาย โกศล อุทัย  ทว 5267                           8807-9886           7221-5356                               04581882CCSH       0000001981000000                                                                             
D000051006057601827905102011141828นายประกอบ ประทุมศรี มง3608                        88869895            86313050                                10120044CCSH       0000000852000000                                                                             
D000052006057601827905102011143200นาง พรทิพา วิเชียรโชติ ทล1650                     8839-9390           0621-1345                               01670845CCSH       0000001665500000                                                                             
D000053006057601827905102011143324พ.อ.หญิง วิภาจรี ณ ตะกั่วทุ่ง                     8829-9390           3621-1345                               01670845CCSH       0000001665500000                                                                             
D000054006057601827905102011144518นาย พรเทพ ชื่นจำรัส  ทย -4532                     88269192            25214323                                00651478CCSH       0000001447000000                                                                             
D000055006057601827905102011144623นายทวี เหล็กเพ็ชร                                 88524499            107063302                               00741604CCSH       0000001495700000                                                                             
D000056006057601827905102011150355นายสมยศ กลิ่นเกษร                                 8868-8298           0421-1353                               01270563CCSH       0000001954000000                                                                             
D000057006057601827905102011151243นาย ทองใบ  ดีวัน ทม 8675                          8837-9394           5621-8317                               04690052CCSH       0000001710000000                                                                             
D000058006057601827905102011152439นายคำรณ ภู่ลา                                     88579491            45315071                                04692643CCSH       0000001799200000                                                                             
D000059006057601827905102011153010อนิวรรตน์ ไชกองชา มฉ 6186                         88178398            61316078                                00771064CCSH       0000001884200000                                                                             
D000060006057601827905102011153955นายคำกอง ผดาศรี มง7442                            8877-9495           2431-7054                               10154881CCSH       0000001193500000                                                                             
D000061006057601827905102011163436นายเถกิงเดช พุกพิบูลย์                            88188397            37313072                                09624492CCSH       0000001884200000                                                                             
D000062006057601827905102011165648นายทศพล ผาช้างเผือก ทศ2524                        8816-9296           4521-2362                               08450531CCSH       0000001884200000                                                                             
D000063006057601827905102011171349น.ส.ธนิก มนูลักษณ์                                88589495            77311071                                00000843CCSH       0000001617900000                                                                             
D000064006057601827905102011172449นายทองม้วน จำนงนิตย์ ทว 3221                      88779398            12213352                                10071091CCSH       0000000260000000                                                                             
D000065006057601827905102011172555พิเชษฐ์ ทวีนุช                                    88477297            37218340                                10670562CCSH       0000000905000000                                                                             
D000066006057601827905102011174720นายสมสุข ชูกิจรุ่งทรัพย์                          88359498            50217360                                00300137CCSH       0000001948200000                                                                             
D000067006057601827905102011181203สงวน มุลตระกร                                     88789493            76215349                                08450160CCSH       0000001700000000                                                                             
D000068006057601827905102011181224ดาลานี วาษา                                       88769793            16213360            ทศ3601              10320321CCSH       0000002274500000                                                                             
D000069006057601827905102011182619นายอธิชา  สุวรรณไตร  ทร 7573                      88869392            35217337            089-7840541         08770142CCSH       0000001130700000                                                                             
D000070006057601827905102011183044นางศศิธร ดวงแก้ว ทศ 2405                          8846-9296           5421-2360                               04881100CCSH       0000001515300000                                                                             
D000071006057601827905102011183428นายธนพงษ์ เครือวณิชธรรม  ทม4468                   8885-7897           8421-4316                               10151005CCSH       0000001374400000                                                                             
T000072006057601827900000000000000000000000106067000000070                                                                                                                                                                                                      
