H0000010060576018279บริษัท ไทเอซ สิสซิ่ง จำกัด              10112011TALHO                                                                                                                                                                                       
D000002006057601827910112011090253นาย คำพัน ศรีโพธิ์                                88589297            26214343                                05760932CCSH       0000001561200000                                                                             
D000003006057601827910112011092026นาง กฤษญา แจ้งเพชร                                88269294            33213364                                00350503CCSH       0000001520000000                                                                             
D000004006057601827910112011092110นายไพรัช เข็มหนู                                  88679295            00216355                                01610661CCSH       0000001799200000                                                                             
D000005006057601827910112011092450จ.ส.ท. กมล แสงสว่าง ทร 9592                       88969793            25219339                                00350503CCSH       0000000829300000                                                                             
D000006006057601827910112011100242นายสุวรรณ อทสาร                                   88869693            06219327            ทย9670              02190168CCSH       0000000893100000                                                                             
D000007006057601827910112011102204นายอรรณพ แจ่มใส                                   88513599            107094402                               00620910CCSH       0000001043300000                                                                             
D000008006057601827910112011103213จ.อ. โกศล สรุปราษฎร์                              88418189            64214327                                02590096CCSH       0000000495500000                                                                             
D000009006057601827910112011103414นาง สมพร อินทะแสง ทว 3088                         8897-9398           8021-3358                               02590608CCSH       0000001700000000                                                                             
D000010006057601827910112011104152นางสาวพิมพ์ชนก  แซ่ตั้ง                           88479493            64210339                                01770444CCSH       0000000870000000                                                                             
D000011006057601827910112011105554นางไพรัตน์   สุขเกษม                              88509989            802177886                               07690793CCSH       0000002212500000                                                                             
D000012006057601827910112011110839นายเจริญ น้อยชื่น                                 8818-9380           4031-3077                               04040492CCSH       0000001432800000                                                                             
D000013006057601827910112011111349นายทองปาน บุญแสนยศ ทร 7940                        8849-9096           0921-7334                               11461039CCSH       0000001063000000                                                                             
D000014006057601827910112011113206นายกระต่าย เทพวงษ์                                88515999            106138674                               10331749CCSH       0000000064300000                                                                             
D000015006057601827910112011113355นาย ธนะจิตต์  พึ่งโพธิ์สภ  ทล9961                 8818-8199           1921-9346           082-4451704         08690033CCSH       0000001700000000                                                                             
D000016006057601827910112011114836นางสาวสุรัตน์ นาคคล้าย                            88510599            107161060                               01810688CCSH       0000001538200000                                                                             
D000017006057601827910112011115806นางสุวรรณี  แก้วแจ่มใส                            88859396            09217362                                00950800CCSH       0000001392100000                                                                             
D000018006057601827910112011121045นายวารี  สืบสายลา                                 88530099            104119506                               11470668CCSH       0000001372800000                                                                             
D000019006057601827910112011121133ด.ต.ถนอม ไพจิตร                                   88520399            107121179                               00060027CCSH       0000001119700000                                                                             
D000020006057601827910112011121538นายวีระศักดิ์ สีสันต์ ทร 9522                     88688499            25219332                                00830604CCSH       0000000671000000                                                                             
D000021006057601827910112011123515นายสุรเดช  แก่นโนรา                               88869797            06361072            ศฉ 1620             00740180CCSH       0000000588500000                                                                             
D000022006057601827910112011124345คุณธันยา บุญเพิ่ม ทศ 1347                         8806-9998           7321-1364                               04710654CCSH       0000001884200000                                                                             
D000023006057601827910112011124443พิเชษฐ  กลั่นประโคน                               88079687            45214350                                03082284CCSH       0000001700000000                                                                             
D000024006057601827910112011130215นายเชาว์ พินยะเพียน ทว 5005                       88579986            50215350                                01266669CCSH       0000001090300000                                                                             
D000025006057601827910112011130332นาย วันชัย ชวาลาภรณ์ ทล 7372                      8808-9591           2321-7347                               04581882CCSH       0000001749300000                                                                             
D000026006057601827910112011130425นาย จารึก ชัณษา                                   88879783            13210346                                02560706CCSH       0000001661000000                                                                             
D000027006057601827910112011130441นายพงษ์เทพ จึงตระกูล                              88537499            107161465                               07620859CCSH       0000001217000000                                                                             
D000028006057601827910112011130637นาย สมพร  คำใจ                                    88268699            08211344                                01230233CCSH       0000001101400000                                                                             
D000029006057601827910112011131335สุทธิ ประวันเต                                    8868-8898           6521-0359                               07953686CCSH       0000001773300000                                                                             
D000030006057601827910112011131511นายสุทธิ ประวันเต                                 8868-8898           6521-0359                               07953686CCSH       0000000919000000                                                                             
D000031006057601827910112011132138นายประภาส จันทวิมล                                8809-8298           4921-8314           ทม8944              01770144CCSH       0000001675700000                                                                             
D000032006057601827910112011133820นายสุพน หาบัณฑิตย์                                88359694            24216310                                10720567CCSH       0000000892100000                                                                             
D000033006057601827910112011134653ประจวบ เพ็งธรรม                                   88769490            60215367                                00530572CCSH       0000001856500000                                                                             
D000034006057601827910112011145523นายสมาน คนหลวง  ทว 7908                           88379192            89217350                                11041367CCSH       0000001884200000                                                                             
D000035006057601827910112011150155นายทศพล ดวงมาลี                                   88488998            63313075                                07990501CCSH       0000000309000000                                                                             
D000036006057601827910112011151422พรชัย ศักดิ์เดชะมณี ทล 6984                       88367397            49216348                                02530516CCSH       0000001700000000                                                                             
D000037006057601827910112011151635ด.ต.เสิม หยุ่นแก้ว ทล 4228                        8878-9093           8221-4342                               01971063CCSH       0000001665500000                                                                             
D000038006057601827910112011151924นางนงคราญ เขมะวิริยะ                              88079790            71147245                                00120152CCSH       0000000328900000                                                                             
D000039006057601827910112011152809นายรอง  หงฝาแก้ว                                  4898-9793           5131-2070                               11140161CCSH       0000001470000000                                                                             
D000040006057601827910112011153028นาย พงศ์เพียร  เพียรสวัสดิ์  มจ 3391              8888-9681           1331-3069                               08690033CCSH       0000001319700000                                                                             
D000041006057601827910112011162012นายวิรัตน์  ติ่งทอง  ทศ 266                       8867-8098           6221-0366                               10720208CCSH       0000001700000000                                                                             
D000042006057601827910112011182543น.ส.มารีนา ประกอบผล                               8876-8798           3021-7359           ทว 7093             05970499CCSH       0000000540000000                                                                             
T000043006057601827900000000000000000000000052303600000041                                                                                                                                                                                                      
