H0000010060576018279บริษัท ไทเอซ สิสซิ่ง จำกัด              13022012TALHO                                                                                                                                                                                       
D000002006057601827913022012083844นายชำนาญ สินสำอางค์                               88279191            45218350                                02150082CCLQ384702000000002000000020182                                                                         
D000003006057601827913022012084007นายชำนาญ สินสำอางค์ ทว8504                        88279191            45218350                                02150082CCSH       0000001684200000                                                                             
D000004006057601827913022012085843นายบัวลา ทองขาว                                   88659497            64217360            ทศ 7406             01210586CCSH       0000001828800000                                                                             
D000005006057601827913022012092955นายธนชัย วุฒิยา มฉ3358                            88188889            83313075                                07601301CCSH       0000001914200000                                                                             
D000006006057601827913022012095535นายรัศเธียร  บัวคลี่ ทศ2933                       88169095            39212363            0870159819          11300791CCSH       0000001799200000                                                                             
D000007006057601827913022012101027นายลิเดช  ปิ่นสุวรรณ                              88129493            96212319                                01048254CCSH       0000000098500000                                                                             
D000008006057601827913022012101656นายกันภัย จิตรวัฒน์ มจ9229                        88519399            107146492                               05670390CCSH       0000000420000000                                                                             
D000009006057601827913022012102055นายธงชัย  สุขศิริ ทย 9827                         8880-9494           7821-9322                               01080089CCSH       0000001156700000                                                                             
D000010006057601827913022012102633นาย ดำรงค์รักษ์ โชคพิมาย                          8857-9887           6421-4353                               00771064CCSH       0000001884200000                                                                             
D000011006057601827913022012103529นายอภิชาติ พินิจจิตร                              88570198            104123538                               01880134CCSH       0000001656550000                                                                             
D000012006057601827913022012103725นายชัยกะมน  สุขกำเนิด                             88768997            35219343                                05760270CCSH       0000001847500000                                                                             
D000013006057601827913022012103945นายดำรงค์ ต่อมพิทักษ์ไพร  ทว 9086                 88179290            60219358                                00640757CCSH       0000001884200000                                                                             
D000014006057601827913022012105407นางบัวแก้ว พรมทอง                                 88518199            106199312                               11540166CCSH       0000001953700000                                                                             
D000015006057601827913022012110219นายขอบตะวัน  ดีประเสริฐ                           88569393            76213362                                01930534CCSH       0000001799200000                                                                             
D000016006057601827913022012110239นางนงคราญ คำมอญ ทว 5279                           88779887            92215357                                04580699CCSH       0000002528300000                                                                             
D000017006057601827913022012111204นายอรุณ สมัครณรงค์ ทษ1692                         88593498            104126046                               04581830CCSH       0000002392740000                                                                             
D000018006057601827913022012111316นายไพรัตน์ สุริยวรรณ                              88598798            107049780                               01230490CCSH       0000000873900000                                                                             
D000019006057601827913022012111317น.ส. เพียนจิตร์ สิทธินาม                          88515499            107066329                               01771050CCSH       0000000980900000                                                                             
D000020006057601827913022012111645นายอำนาจ รวยภิรมย์                                88679092            52315077                                06976239CCSH       0000001918500000                                                                             
D000021006057601827913022012113137นางสาวดวงกมล ห้องแซง ทว8526                       8897-9881           6521-8352                               10360725CCSH       0000000030000000                                                                             
D000022006057601827913022012113720นายปฏิภาณ สมดี ทศ5045                             88669390            50215364                                00610198CCSH       0000001432800000                                                                             
D000023006057601827913022012113721นายสหรัถ ส่งเสียงหล้า ทว808                       88888698            88210350                                05670390CCSH       0000002100000000                                                                             
D000024006057601827913022012113855นางสมวย จอกแก้ว ทศ8361                            88659995            13218366                                05670390CCSH       0000001870000000                                                                             
D000025006057601827913022012113947อนุสรณ์ ศ.                                        8875-9398           8731-9070                               00130240CCSH       0000001905000000                                                                             
D000026006057601827913022012114209นางนันท์นภัส พิพิธพัทธอาภา                        88512599            104121266                               01980916CCSH       0000000030000000                                                                             
D000027006057601827913022012114653นาย สำนึก เจริญโชติตะวัน                          8848-9892           3231-2070                               04581882CCSH       0000001758800000                                                                             
D000028006057601827913022012115221จ.ส.อ.กมล แสงสว่าง                                0198187998498       107151222                               04780516CCSH       0000000753500000                                                                             
D000029006057601827913022012115750นาย สำราญ  ไทรกลมเกลียว ทร3051                    8836-9693           1021-3335                               08550648CCSH       0000000235500000                                                                             
D000030006057601827913022012120228นาย พิชิตชัย ดวงจรัส ทล885                        88968398            58210348                                10070203CCSH       0000000235500000                                                                             
D000031006057601827913022012120258ด.ต.สมทัย องอาจ ทศ2163                            8836-9896           31212366                                01480705CCSH       0000002090000000                                                                             
D000032006057601827913022012120700จ.ส.อ.สุรพล ชุมพลพันธ์ มฉ.4059                    8877-9997           9031-4075                               02564581CCSH       0000005742800000                                                                             
D000033006057601827913022012121404นางสายพิณ พรมประดิษ                               88546989            104116364                               04660090CCSH       0000001839800000                                                                             
D000034006057601827913022012122247ณัชชารีย์ วงษ์กิตติสิงห์                          88506199            106203185                               11255243CCSH       0000001770700000                                                                             
D000035006057601827913022012122301นายศรชัย ไศลวงศ์สกุล                              88279291            64315076                                02602931CCSH       0000001918500000                                                                             
D000036006057601827913022012122855นายศรชัย ไศลวงศ์สกุล                              88279291            64315076                                02602931CCSH       0000000030000000                                                                             
D000037006057601827913022012122955นางธิดา เนาวรัตน์ ทร 4223                         88979893            3221-4332                               05758278CCSH       0000001131900000                                                                             
D000038006057601827913022012123002นางมาลาศรี ทองชา                                  88669194            10211322                                01231109CCSH       0000001800700000                                                                             
D000039006057601827913022012123326นางมาลาศรี ทองชา                                  88521499            107130390                               01231109CCSH       0000000098500000                                                                             
D000040006057601827913022012123614นาย ชิตชัย ลำใย ทม 4239                           88969190            92214313                                01481887CCSH       0000000883600000                                                                             
D000041006057601827913022012124241เข็มทอง สงเคราะห์                                 88769897            05211362                                04607752CCSH       0000000309000000                                                                             
D000042006057601827913022012124442นายวานิช สงเคราะห์                                88089294            59311076                                04607752CCSH       0000001295300000                                                                             
D000043006057601827913022012124853นายธีรพงษ์ สมนาม                                  88523899            107136028           ทร4469              02260933CCSH       0000000490500000                                                                             
D000044006057601827913022012125750ประสงค์ เที่ยงสันเทียะ                            88559898            06214313                                10810811CCSH       0000000923600000                                                                             
D000045006057601827913022012132309นายนคร  ทองแก้ว ทศ 3174                           88669494            41213367                                00650326CCSH       0000001884200000                                                                             
D000046006057601827913022012132644นายเมธา วงษาแก้ว ทล 7708                          8818-9981           8721-7340                               00110057CCSH       0000001700000000                                                                             
D000047006057601827913022012134705นายสิทธิพร แวดอุดม                                8885-9796           2131-0086                               00571548COTH       0000000966200000                                                                             
D000048006057601827913022012134807นางสุภาพร บุบผา ทศ1506                            8886-9697           6521-1360                               05690237CCSH       0000003000000000                                                                             
D000049006057601827913022012135333นางภัสรา เรศสุข                                   8856-8299           6621-5362                               11810142CCSH       0000001833500000                                                                             
D000050006057601827913022012135351นาย ธงชัย ปลัดศรี ทว 7446                         88679683            64217354                                00161192CCSH       0000000384200000                                                                             
D000051006057601827913022012135930คุณพิสิฐพงศ์ พันจำปา                              88959397            23212359                                04710654CCSH       0000001850000000                                                                             
D000052006057601827913022012141052นางสาวไพจิตต์  กีรติพินิจ  ทษ 740                 88516989            106202801                               05701141CCSH       0000001140000000                                                                             
D000053006057601827913022012141404นาย สินธู  แสงสุวิมล  ทร 7070                     8859-9597           0021-7337                               04690052CCSH       0000000960000000                                                                             
D000054006057601827913022012143553คุณพงษ์ศักดิ์ หิรัญวรรณ ทศ 3175                   88869194            51213367                                00470242CCSH       0000001500700000                                                                             
D000055006057601827913022012143642นาง วชิราภรณ์ แสงใจหนัก ทศ 6541                   88168397            15216364                                01200547CCSH       0000001650000000                                                                             
D000056006057601827913022012144006นายกมลาสน์ ละไมกิจ                                88507599            107083985                               11253283CCSH       0000000960000000                                                                             
D000057006057601827913022012144614นางสุรินทร์                                       88559295            25218368                                02610551CCSH       0000001874100000                                                                             
D000058006057601827913022012144840นรชัย แพงศร                                       88504989            104125388                               09761108CCSH       0000001867300000                                                                             
D000059006057601827913022012145634นายชัชวัสส์ ธีรพงษ์                               88508199            104125275                               08560324CCSH       0000002117800000                                                                             
D000060006057601827913022012150749นายณัฐวุฒิ คำมุงคุณ ทศ5108                        88068999            81215360                                10360725CCSH       0000001954600000                                                                             
D000061006057601827913022012151244นายภิญโญ กันเนียม                                 88159395            75218363                                00282766CCSH       0000001812300000                                                                             
D000062006057601827913022012151941นายอนันต์ พรมโสภา ป้ายแดง                         88473198            104127589                               04950176CCSH       0000001568200000                                                                             
D000063006057601827913022012152000นางจุไรรัตน์  สุทธิเวช                            88489097            75214347                                11520169CCSH       0000001591700000                                                                             
D000064006057601827913022012152519นายรามา  ยาเดียว                                  88459894            54211321                                11520169CCSH       0000000235500000                                                                             
D000065006057601827913022012153928นายโพธิ์ บุญกระพือ                                88535099            104119597           มช1282              04930415CCSH       0000001100000000                                                                             
D000066006057601827913022012161149ธนกฤษ มะสังหลง ทศ5739                             88368598            97215363                                04607752CCSH       0000001916000000                                                                             
D000067006057601827913022012170252นายทวีศักดิ์  ด้วงศรี  ทศ3685                     8836-9193           5621-3368                               10431106CCSH       0000001898500000                                                                             
D000068006057601827913022012171528วิชาญ ขนอม                                        88078498            20210369                                10990515CCSH       0000001900000000                                                                             
D000069006057601827913022012172610นายวันดี ใจกล้า   ทย 6563                         8888-8998           3521-6326                               07589677CCSH       0000001491500000                                                                             
D000070006057601827913022012172805ยอดรัก จันทุม                                     88369592            07218331                                06976239CCSH       0000001600000000                                                                             
D000071006057601827913022012173446นายกิตติพงศ์  กรศุภอานนท์ ทย 2990                 8877-8599           0921-2329                               04700190CCSH       0000001650000000                                                                             
D000072006057601827913022012185058นายเสกสันต์ ไชยเสนา ทว4674                        88679587            46214357                                10070236CCSH       0000001792300000                                                                             
D000073006057601827913022012185242ร.ท.จักรกฤษณ์  เพียรพิจิตร ทศ 9599                8817-9988           9521-9369                               11521521CCSH       0000001720000000                                                                             
T000074006057601827900000000000000000000000105415890000072                                                                                                                                                                                                      
