H0000010060576018279บริษัท ไทเอซ สิสซิ่ง จำกัด              03032012TALHO                                                                                                                                                                                       
D000002006057601827903032012104224นาง เกสฬา พันจุย                                  88569495            68212366            ทศ2866              10250256CCSH       0000001240700000                                                                             
D000003006057601827903032012104851นายประเสริฐ บุญเพ็ง                               88359894            68215338                                09700807CCSH       0000001482200000                                                                             
D000004006057601827903032012111014นายธวัชชัย ผลพยุง                                 8862-9397           6621-0310                               10720567CCSH       0000000272800000                                                                             
D000005006057601827903032012112224นายสุชาติ อินทร์แป้น  ทษ1697                      88571698            106204047                               10360725CCSH       0000001868500000                                                                             
D000006006057601827903032012115624นาง ศศิญา จันทร์สิน ทล 7296                       8858-9491           6221-7349                               04780158CCSH       0000001756500000                                                                             
D000007006057601827903032012123325นายไพบูลย์ วิทิตกนกปรีดา                          8876-8198           6721-9283                               10970050CCSH       0000001052200000                                                                             
D000008006057601827903032012123507นางศิริดา  บุราณคุณ                               88559796            77217360                                04930773CCSH       0000002790000000                                                                             
D000009006057601827903032012124528นางลดาวัลย์ ภักดีสุวรรณ                           88159996            44216327                                04880760CCSH       0000001215100000                                                                             
D000010006057601827903032012125514นายอรุณ พงษ์ภักดี                                 88889191            01219280                                08561926CCSH       0000001736400000                                                                             
D000011006057601827903032012125829นางสุบิน งามปานแก้ว                               88689097            66214347                                11250856CCSH       0000000761500000                                                                             
D000012006057601827903032012131340นาย  ฉัตรชัย   แป้นสุข                            0198187996298       402212780                               10140221CCSH       0000002320000000                                                                             
D000013006057601827903032012154845นายภูริพัฒน์ มะโรงศรี                             88968598            00216362            ทศ6020              10038631CCSH       0000001514700000                                                                             
D000014006057601827903032012155155นายสมัย สีหะวงษ์ มฉ2947                           8808-9880           7931-2074                               08691092CCSH       0000001484700000                                                                             
D000015006057601827903032012162807ว่าที่ร.ต.ทรงพล  เสตถาภิรมย์                      88168497            94216361                                01730481CCSH       0000002636000000                                                                             
D000016006057601827903032012162915ว่าที่ร.ต.ทรงพล  เสตถาภิรมย์                      88059798            16216369                                01730481CCSH       0000002636000000                                                                             
D000017006057601827903032012163024ว่าที่ร.ต.ทรงพล  เสตถาภิรมย์                      88547299            104116007                               01730481CCSH       0000002269900000                                                                             
D000018006057601827903032012163130ว่าที่ร.ต.ทรงพล  เสตถาภิรมย์                      88546299            104116011                               01730481CCSH       0000002269900000                                                                             
D000019006057601827903032012171902น.ส.พรนภา พันธ์ประดิษฐ์ ทว4383                    88579297            33214358                                02501075CCSH       0000003088800000                                                                             
D000020006057601827903032012180237น.ส. วิชุดา  พลายแก้ว                             8897-7297           8421-3344                               07540439CCSH       0000001665500000                                                                             
D000021006057601827903032012183242วรกมล  บุญมา  ทษ1103                              88507499            106199558                               08550664CCSH       0000002452300000                                                                             
D000022006057601827903032012184134SUPANEE W.                                        88279491            53218354                                08510239CCSH       0000001884200000                                                                             
D000023006057601827903032012190310นาย สุรศักดิ์  อินทศร  ทศ8843                     8815-9994           3821-8364           081-4949640         08690033CCSH       0000002479200000                                                                             
D000024006057601827903032012191053นางสาวจันทร์จิรา เข็มวรรณ์                        88513299            106199327                               04831051CCSH       0000002011700000                                                                             
D000025006057601827903032012191646นาย พิเชษฐ์  ศรีหาประทุม  ทว4013                  88779197            30214351                                11860608CCSH       0000002046200000                                                                             
T000026006057601827900000000000000000000000044935000000024                                                                                                                                                                                                      
