H0000010060576018279บริษัท ไทเอซ สิสซิ่ง จำกัด              13122011TALHO                                                                                                                                                                                       
D000002006057601827913122011083806นางสาวพนิดา  แสงรัมย์                             88259096            90218366                                03965684CCSH       0000001519900000                                                                             
D000003006057601827913122011090213นายรัศเธียร บัวคลี่                               88179788            45213350                                01480560CCSH       0000002014400000                                                                             
D000004006057601827913122011090341นายรัศเธียร บัวคลี่                               88169095            39212363                                01480560CCSH       0000001799200000                                                                             
D000005006057601827913122011090720นายวานิช  สงเตราะห์                               8808-9294           5931-1076           085-120-6125        04600142CCSH       0000001287300000                                                                             
D000006006057601827913122011091018นายสมบูรณ์  ดาทอง                                 88479495            79215353                                00911077CCSH       0000001884200000                                                                             
D000007006057601827913122011092316นาย สุวรรณ ปรางทอง                                88269791            66219288                                05760932CCSH       0000000552800000                                                                             
D000008006057601827913122011092322นายวารี  สืบสายลา                                 88530099            104119506                               11470668CCSH       0000001372800000                                                                             
D000009006057601827913122011092908นางนงคราญ คำมอญ ทว 5279                           88779887            92215357                                04580699CCSH       0000002528300000                                                                             
D000010006057601827913122011093524สุโรจน์ เสรีกุล                                   88089298            30311075                                00240400CCSH       0000001004800000                                                                             
D000011006057601827913122011093532ประจวบ เพ็งธรรม                                   88769490            60215367                                00530572CCSH       0000001856500000                                                                             
D000012006057601827913122011094145นาย ดำรงค์รักษ์ โชคพิมาย                          8857-9887           6421-4353                               00771064CCSH       0000001884200000                                                                             
D000013006057601827913122011094237ธีระศักดิ์ สุประภากร                              88779791            31218356                                00980224CCSH       0000001897900000                                                                             
D000014006057601827913122011094810นางไพรัตน์ สุขเกษม ทศ9977                         88509989            802177886                               00080533CCSH       0000002144000000                                                                             
D000015006057601827913122011094900บจ.สิฎฐ์โชคดี 3                                   88279593            23257419                                02610551CCSH       0000001196100000                                                                             
D000016006057601827913122011095132นาย ดำรงค์ ต่อมพิทักษ์ไพร                         88179290            60219358                                00641096CCSH       0000001884200000                                                                             
D000017006057601827913122011095525นายจงรักษ์  ถนอมต่วน ทษ344                        88523299            104121634                               02150082CCSH       0000001390900000                                                                             
D000018006057601827913122011101142นายสมนึก จิตรมนตรี ทว3297                         88479298            72213359                                02530836CCSH       0000001918500000                                                                             
D000019006057601827913122011101622นายนิวัฒน์ คำสงค์    ทม 6757                      88509099            107078749                               01760698CCSH       0000001120600000                                                                             
D000020006057601827913122011102208นายพงษ์ศักดิ์ บริบูรณ์ ทว5152                     88279886            21215355                                04581830CCSH       0000001995000000                                                                             
D000021006057601827913122011102346น.ส.นุชนารถ แจ่มศุภพันธ์ ทศ8294                   88597898            104115480                               04581830CCSH       0000002440000000                                                                             
D000022006057601827913122011102746นายออาจ มหิทธิโรจน์                               88879784            46216351            ทว 6614             04954951CCLQ176894200000003000000020118                                                                         
D000023006057601827913122011103140นายถวิล  จำเริญ                                   88079090            73219357            ทว 9377             07990132CCLQ583457900000005000000040400                                                                         
D000024006057601827913122011103848นางสาวอุดมรักษ์ ขอนสี                             88378198            21210367                                10570683CCSH       0000001918500000                                                                             
D000025006057601827913122011105150นายขอบตะวัน ดีประเสริฐ                            88569393            76213362                                01930534CCSH       0000001799200000                                                                             
D000026006057601827913122011110413คุณ ณัชชารีย์ วงษ์กิตติสิงห์ ทษ1411               88506199            106203185                               11250101CCSH       0000001770700000                                                                             
D000027006057601827913122011110846ด.ต.หญิงสุภรณ์ บัวงาม                             88879881            86218352                                00940557CCSH       0000001356900000                                                                             
D000028006057601827913122011111616นายพิสิฐพงศ์ พันจำปา                              88959397            23212359            ทว 2392             04712940CCSH       0000000980300000                                                                             
D000029006057601827913122011113719นายอนุสรณ์ วารีน้อย ทย5441                        88278598            14215324                                00190024CCLQ537005200000014847000040766                                                                         
D000030006057601827913122011114530สตท.ชัยญา เชื้อหงษ์                               88479891            06218350                                04730614CCSH       0000001391200000                                                                             
D000031006057601827913122011114812นาย สุวัฒน์  มีพลอย                               88500399            107122515                               01396715CCSH       0000000902000000                                                                             
D000032006057601827913122011120458นส.อารีวรรณ อิ่มสนธิ์ ทพ9185                      8827-9492           5121-9288                               03990096CCSH       0000001619100000                                                                             
D000033006057601827913122011120622นางสาว นงนาถ ปัญญา ทล8617                         88389980            76218341                                10070203CCSH       0000001700000000                                                                             
D000034006057601827913122011121041นายพุฒิพัฒน์  พีรชัยทัศน์ ทว 9161                 8897-9290           1121-9356                               07650577CCSH       0000001918500000                                                                             
D000035006057601827913122011121103นายคำมี ปะตังเวสา ทว5892                          88879495            28215359                                07010095CCSH       0000001652200000                                                                             
D000036006057601827913122011121702นายมานะ ปานนพภา                                   8888-9196           7921-4345                               00640715CCSH       0000001597000000                                                                             
D000037006057601827913122011121907นางภัสรา  เรศสุข  ทศ226                           88678298            62210362                                08401304CCSH       0000001827500000                                                                             
D000038006057601827913122011122959นายบุญเที่ยง บุญผ่อง มฉ1297                       8828-9397           7231-1079                               10631143CCSH       0000001121300000                                                                             
D000039006057601827913122011123413นางสมร  สุภชิรักษ์ ทล 55                          8819-8698           5021-0345                               11521628CCSH       0000001699800000                                                                             
D000040006057601827913122011123556จันทร์วัชรินทร์ อินต๊ะแก้ว                        88510989            104123384                               01231109CCSH       0000001903900000                                                                             
D000041006057601827913122011123622นายสุรเดช  ขันทอง ทศ 1451                         8826-9398           1421-1365                               11521628CCSH       0000001981000000                                                                             
D000042006057601827913122011124053นายสุริยันต์ ทองโพธิ์ศรี ทล9182                   88577897            21219348                                05670390CCSH       0000001838900000                                                                             
D000043006057601827913122011125050นางนุชนารถ พิมพ์ทอง                               88488988            73211350                                09740261CCSH       0000002356000000                                                                             
D000044006057601827913122011125142นายเสถียร คุณปรึกษา                               8828-9290           2621-2339                               00760201CCSH       0000001670000000                                                                             
D000045006057601827913122011125158นางนุชนารถ พิมพ์ทอง                               88588988            83211350                                09740261CCSH       0000002356000000                                                                             
D000046006057601827913122011125440นาย สมนึก เจริยโชติตะวัน                          8848-9892           3231-2070           มฉ2203              01950405CCSH       0000001757400000                                                                             
D000047006057601827913122011125656นายนิยม  คนขยัน มข 9919                           8806-9397           9931-9021                               04670988CCSH       0000002811600000                                                                             
D000048006057601827913122011130124นาง สลิล มะลิต้น ทล 1756                          88589984            67211345                                04581882CCSH       0000001650000000                                                                             
D000049006057601827913122011130130นายโพธิ์ บุญกระพือ                                88535099            104119597           มช 1282             04670151CCSH       0000001100000000                                                                             
D000050006057601827913122011130818นางจำเรียง เพ็งนิล                                88467097            42219342                                01101665CCSH       0000002209500000                                                                             
D000051006057601827913122011132036นางสาวไพจิตต์ กีรติพินิจ ทพ.740                   88516989            106202801                               02564581CCSH       0000001140000000                                                                             
D000052006057601827913122011133158นายเกรียงศักดิ์  วิสุทธิรัตนกุล                   88279487            65214356                                01900549CCSH       0000001419000000                                                                             
D000053006057601827913122011133204นายเฉลา ฉางทรัพย์                                 88059398            40217360                                11900273CCSH       0000001455300000                                                                             
D000054006057601827913122011134201ศักรินทร์  พุฒิสกุล                               88538499            107136653                               00741604CCSH       0000001119000000                                                                             
D000055006057601827913122011134359นายธงชัย ปลัดศรี                                  8867-9683           6421-7354                               00161200CCSH       0000001884200000                                                                             
D000056006057601827913122011134546นายธนะสิทธิ์  สัจจสิงห์                           8888-8198           4121-2358                               01500101CCSH       0000000714800000                                                                             
D000057006057601827913122011134718นาย สุวรรณ ตรีเหรา                                88659898            31315061            มจ5113              03830182CCSH       0000001143700000                                                                             
D000058006057601827913122011135207นายบุญสูง  ปัญสา                                  88169794            85213318                                01900549CCSH       0000001140000000                                                                             
D000059006057601827913122011140529นายภัทรศักดิ์ แก่นโกมล ทย886                      88068199            68210328                                02260861CCSH       0000001446500000                                                                             
D000060006057601827913122011141044นายแพง  พงษ์สุกรี ทล 5345                         8886-8599           5321-5344                               11521628CCSH       0000000695500000                                                                             
D000061006057601827913122011141209นายแพง  พงษ์สุกรี ทว 3291                         8887-9888           1221-3359                               11521628CCSH       0000001700000000                                                                             
D000062006057601827913122011141321นายแพง  พงษ์สุกรี ทว 3301                         8897-9888           1321-3350                               11521628CCSH       0000001700000000                                                                             
D000063006057601827913122011141757นายวิสุทธิ์  ปามา                                 88269887            22212369                                04690052CCSH       0000001900000000                                                                             
D000064006057601827913122011143132คุณทนงศักดิ์ คงแก้ว                               8848-9597           7321-4342                               11040809CCSH       0000001275700000                                                                             
D000065006057601827913122011143317คุณทนงศักดิ์ คงแก้ว                               8838-9597           6321-4342                               11040809CCSH       0000001275700000                                                                             
D000066006057601827913122011143350นายมีอนันต์ ซ่อนกลิ่น มจ7548                      88059194            85317064                                04620518CCSH       0000003447200000                                                                             
D000067006057601827913122011143620นาย ไพรัตน์  สุริยวรรณ                            88598798            107049780                               01230233CCSH       0000000873900000                                                                             
D000068006057601827913122011144326นายชะอ้อน  แหยมประเสริฐ                           8879-9593           8421-9334                               04700190CCSH       0000000180000000                                                                             
D000069006057601827913122011144848นางสุรินทร์  ฉาบไธสง                              88559295            25218368                                02617277CCSH       0000001874100000                                                                             
D000070006057601827913122011145535นัฐณี  อินทร์เพ็ญ                                 88539099            107129677                               00640800CCSH       0000001610740000                                                                             
D000071006057601827913122011145648นาย ประชา กัลยา                                   88488697            03212353            ทว2330              10250012CCSH       0000001947500000                                                                             
D000072006057601827913122011145804นายประสิทธิ์ แสนจะบก                              88512699            107036744                               09761108CCSH       0000000869400000                                                                             
D000073006057601827913122011150322คุณชัชวัสส์ ธีรพงษ์ ์ ทษ1207                      88508199            104125275                               08561493CCSH       0000002117800000                                                                             
D000074006057601827913122011155052นาย สมหวัง  แซ่อึ้ง                               88526499            107076561                               01610582CCSH       0000001110600000                                                                             
D000075006057601827913122011160457ด.ต.เสิม หยุ่นแก้ว ทล4228                         88789093            82214342                                01971063CCSH       0000001665500000                                                                             
D000076006057601827913122011160546ด.ต.เสิม หยุ่นแก้ว ทว.4197                        88479197            71214359                                01971063CCSH       0000001884200000                                                                             
D000077006057601827913122011161800นายอดิศักดิ์ โทร.0820398787                       88679980            05219355                                10070236CCSH       0000002082100000                                                                             
D000078006057601827913122011164306ร.ท.จักรกฤษณ์ เพียรพิจิตร ทล 6572                 88069793            25216347                                05670406CCSH       0000001030000000                                                                             
D000079006057601827913122011171322นาย จุลพงษ์  สายบัว                               8878-8999           3031-3077           13/12/2011          05970398CCSH       0000001700000000                                                                             
D000080006057601827913122011171529นายยอดชาย ขำจำรูญ ทล2298                          8849-8199           8221-2349                               08408401CCSH       0000001625000000                                                                             
D000081006057601827913122011172019นางสาวจิรัฏฐ์ ศิริกิจจาขจร ทศ7373                 88059497            33217367                                10150884CCSH       0000001846600000                                                                             
D000082006057601827913122011185204นาย พรเทพ ชื่นจำรัส                               8826-9192           2521-4323                               10720567CCSH       0000001447000000                                                                             
T000083006057601827900000000000000000000000128185840000081                                                                                                                                                                                                      
