H0000010060576018279บริษัท ไทเอซ สิสซิ่ง จำกัด              07092011TALHO                                                                                                                                                                                       
D000002006057601827907092011085112นายสุริเยศ โรจน์สุธี มฉ8064                       8846-9392           4031-8076                               04580699CCSH       0000001000000000                                                                             
D000003006057601827907092011090648จักร แท่งเหล็ก ทล5355                             88889394            53215345                                10270539CCSH       0000001617900000                                                                             
D000004006057601827907092011092248นางสาว ศิริกานดา  ทานุรัตน์  ทศ 1956              8856-9987           6921-1365                               04690052CCSH       0000001799200000                                                                             
D000005006057601827907092011092501นาย อนุกูล แก้ววิเชียร                            8887-9984           5521-6356                               01920548CCSH       0000001884200000                                                                             
D000006006057601827907092011092559หจก. วิน คาร์ ทล3594                              8809-8397           4521-3349                               00771064CCLQ708045 00000016655000110180                                                                         
D000007006057601827907092011092659นาย อนุกูล แก้ววิเชียร                            8897-9098           4321-3354                               01920548CCSH       0000001799200000                                                                             
D000008006057601827907092011092841นาย อนุกูล แก้ววิเชียร                            8827-9786           6321-5356                               01920548CCSH       0000001884200000                                                                             
D000009006057601827907092011093945นายรังสันติ เวียงนนท์ ทล5124                      8888-9795           4121-5342                               04630432CCSH       0000001685700000                                                                             
D000010006057601827907092011103039น.ส.เพชรมณี สิงห์วิชัย                            88789894            87217326                                00554094CCSH       0000001550000000                                                                             
D000011006057601827907092011104112นาย ปรีชา หงส์ทอง  ทศ 5836                        8856-8698           6821-5363                               04581882CCSH       0000001856500000                                                                             
D000012006057601827907092011104711นางวันเพ็ญ  วัดล้อม  ทม 6561                      8805-9395           1521-6316                               04990266CCSH       0000001628300000                                                                             
D000013006057601827907092011104935นายสุภะชัย ตู้ที                                  88569198            64211360                                01520889CCSH       0000001913800000                                                                             
D000014006057601827907092011104955นายวิทณา ออ่นคำหล้า                               88068697            34216366                                02540020CCSH       0000001874000000                                                                             
D000015006057601827907092011105208นายภัทรศักดิ์ แก่นโกมล                            8806-8199           6821-0328                               07120179CCSH       0000001437200000                                                                             
D000016006057601827907092011111634SURACHA T.                                        88531699            107160824                               08510239CCSH       0000001595000000                                                                             
D000017006057601827907092011112656อาทิตย์  ทองปิ่น                                  88689494            11214318                                00911062COTH       0000001628000000                                                                             
D000018006057601827907092011112905น.ส.ปนันดา สาระวัน ทว5166                         88879886            61215356                                07601301CCSH       0000001690400000                                                                             
D000019006057601827907092011113346นางธนันทร หอมหวล ทว4993                           8857-9496           3921-4359                               07960037CCSH       0000000064500000                                                                             
D000020006057601827907092011113445นางธนันทร หอมหวล ทร3557                           8887-9683           7521-3335                               07960037CCSH       0000000897800000                                                                             
D000021006057601827907092011113830นาย พรพรต พาทีทิน ทว 6175                         8857-9395           5121-6357                               07620396CCSH       0000001186600000                                                                             
D000022006057601827907092011113851น.ส.สุกัญญา มีชัย ทศ6490                          88868597            04216369                                01266669CCSH       0000001839700000                                                                             
D000023006057601827907092011114656นาย อนุสรณ์  วารีน้อย  ทม 5583                    8827-8399           3521-5318                               01781712CCLQ103738500000013910000040766                                                                         
D000024006057601827907092011115812นายชาตรี  ขุนติเศษ                                88769493            66213361                                10710012CCSH       0000001617900000                                                                             
D000025006057601827907092011120030นายสุรเดช ขันทอง ทศ1451                           8826-9398           1421-1365                               11520390CCSH       0000001979500000                                                                             
D000026006057601827907092011121459นางธิดา   เนาวรัตน์                               88979893            32214332                                05756198CCSH       0000001131900000                                                                             
D000027006057601827907092011122137นายเชาน์วัศ หล้าสุดตา ทว 5002                     88979196            20215350                                04670086CCSH       0000001776500000                                                                             
D000028006057601827907092011124009นายสมชาย ณรงค์ศักดิ์ ทล.2282                      8897-8399           2221-2348                               04798490CCSH       0000001553700000                                                                             
D000029006057601827907092011124021เจนณรงค์ อินทร์สอาด ทม6604                        8847-9790           4621-6310                               00771064CCSH       0000000700000000                                                                             
D000030006057601827907092011124223นายเสน่ห์ แย้มสุดใจ                               88379994            70216355                                04692643CCSH       0000000806000000                                                                             
D000031006057601827907092011125150นางทองลา  มุ่งดี                                  88379891            48214324                                02501795CCSH       0000001230300000                                                                             
D000032006057601827907092011130131นายเสริฐ ทีฆาวงค์ ถส2576                          88269893            65202387                                01200274CCSH       0000000898900000                                                                             
D000033006057601827907092011130440นายณัฐพล บุญวิไลลักษณ์ ทย5814                     8876-9596           4821-5321                               02530554CCSH       0000000884600000                                                                             
D000034006057601827907092011131232นายเอกชัย บุรินทะ ทล3966                          88289494            69213346                                07581773CCSH       0000001600000000                                                                             
D000035006057601827907092011131415นายเอกชัย บุรินทะ ทล7963                          88689191            39217346                                07581773CCSH       0000001700000000                                                                             
D000036006057601827907092011131526วัชรเทพ เชื้อไทย ทย 7560                          8826-8797           0521-7326                               00890296CCSH       0000003157000000                                                                             
D000037006057601827907092011132452นายคำพูน สะหุนันต์                                8856-8997           3131-9078           มฉ9183              00741604CCSH       0000001133400000                                                                             
D000038006057601827907092011133604ลัดดา  วงศ์เหลืองอ่อน                             8885-9794           7411-3010                               04930773CCSH       0000000405700000                                                                             
D000039006057601827907092011133937นายอดิศักดิ์ บำรุงเมือง                           88968497            87217348                                04585612CCSH       0000000164500000                                                                             
D000040006057601827907092011140238นายพรชัย ศักดิ์เดชะมณี ทย 2365                    8849-7597           5321-2326                               02260861CCSH       0000000361500000                                                                             
D000041006057601827907092011140352นายพรชัย ศักดิ์เดชะมณี ทพ8105                     8809-9696           5121-8280                               02260861CCSH       0000000273000000                                                                             
D000042006057601827907092011141554นายมนัด ตั้งเรือนรัตน์ ทล 284                     8865-9997           4221-0348                               08560792CCSH       0000001140000000                                                                             
D000043006057601827907092011141719นายวรวิทย์  ทิพนัด  ทย  4265                      8826-9993           5221-4326                               03970523CCSH       0000000552800000                                                                             
D000044006057601827907092011141830นายวรวิทย์  ทิพนัด  ทล   8746                     8818-9090           6721-8344                               03970523CCSH       0000001622500000                                                                             
D000045006057601827907092011142923นาย สุวรรณดี หนูนิ่ม ทล 2066                      8859-8399           6021-2346                               08001040CCSH       0000000100000000                                                                             
D000046006057601827907092011144311นายสมเด็จ บุญเพชร                                 88869197            46211367                                01210586CCSH       0000001979300000                                                                             
D000047006057601827907092011144743นางสุพรรณี ภูนุภา                                 48659997            62217367                                10720144CCSH       0000000300000000                                                                             
D000048006057601827907092011144843นางสุพรรณี ภูนุภา                                 88059797            62217367                                10720144CCSH       0000001756700000                                                                             
D000049006057601827907092011144911นาย มานะ ปานนพภา ทล 4957                          8888-9196           7921-4345                               08001040CCSH       0000001595500000                                                                             
D000050006057601827907092011144958นางจรรยา อินทศร ทว 825                            8816-7697           5821-0352                               04580699CCSH       0000001807600000                                                                             
D000051006057601827907092011150947นางศิริ  เกียรติเฉลิม  ทย 8577                    8848-9790           7521-8327                               00330234CCSH       0000000830000000                                                                             
D000052006057601827907092011151922นาย สายเงิน จริยสุวรรณ ทล8689                     8888-9090           9621-8348                               02590600CCSH       0000001988200000                                                                             
D000053006057601827907092011152008จิตตกร โกษากุล ทศ 4196                            8836-9392           6121-4369                               01770894CCSH       0000002000000000                                                                             
D000054006057601827907092011154641นายทวีศักดิ์ แหวนหล่อ                             8865-9598           2631-9079                               01871097CCSH       0000001874000000                                                                             
D000055006057601827907092011161914ร.อ.ฤทธิชัย ปรีชาจารย์ ทล9825                     88488299            58219342                                07930727CCSH       0000001836200000                                                                             
D000056006057601827907092011172448กมล แต้มสว่าง                                     8896-9293           6621-3366                               05700127CCSH       0000001799200000                                                                             
T000057006057601827900000000000000000000000076445100000055                                                                                                                                                                                                      
