H0000010060576018279บริษัท ไทเอซ สิสซิ่ง จำกัด              16022012TALHO                                                                                                                                                                                       
D000002006057601827916022012090336น.ส.นวลอนงค์  อินไกร ทว1583                       8858-8688           3521-1358                               00280900CCSH       0000003872000000                                                                             
D000003006057601827916022012091703นาย วุฒิสิทธิ์ ยินดีเวท ทล 7008                   8878-9682           8021-7340                               10900089CCSH       0000001617900000                                                                             
D000004006057601827916022012092635นางสมควร ทิพศักดิ์ ทม 6401                        88689898            14216310                                10270592CCSH       0000001399000000                                                                             
D000005006057601827916022012094655นางสาวภาวิณี แซ่กอ                                88189480            92219344                                09760107CCSH       0000001467100000                                                                             
D000006006057601827916022012100642นายเฉลิมชัย  จันทร์งาม  ทล 5436                   88989693            64215343                                01931056CCSH       0000001530000000                                                                             
D000007006057601827916022012103634นายจตุรพร  สมมิตร  ทว5396                         8807-9686           6321-5359                               00130162CCSH       0000001998800000                                                                             
D000008006057601827916022012103834นายดำรงค์ ศรีนุรัตน์                              88269391            16214360                                01480560CCSH       0000002513400000                                                                             
D000009006057601827916022012103947นายดำรงค์ ศรีนุรัตน์                              88369391            26214360                                01480560CCSH       0000002513400000                                                                             
D000010006057601827916022012105253สอาด แจ่มสกุล มฉ2146                              88689193            61312074                                11830063CCSH       0000001625400000                                                                             
D000011006057601827916022012111531นางสาว ณัฐธิชา ทาระเวท                            88567697            41216357                                03830885CCSH       0000001918500000                                                                             
D000012006057601827916022012115416นาย สนธยา  มีลาดคำ                                8868-8998           7331-3075                               07930498CCSH       0000001868400000                                                                             
D000013006057601827916022012120206นาย สุรพงษ์ วงศ์กำภู                              8826-9290           5021-5367                               01230882CCSH       0000001856500000                                                                             
D000014006057601827916022012121801นายบัณฑิต คำสงค์                                  88507099            107155079                               01800625CCSH       0000001714300000                                                                             
D000015006057601827916022012122405นาย วินัย  จันลา ทล 6120                          88989892            01216342                                04650044CCSH       0000001700000000                                                                             
D000016006057601827916022012122438นายประพนธ์ แสนบูรณพันธ์ ทว6547                    8857-9784           7521-6354                               05670390CCSH       0000001739300000                                                                             
D000017006057601827916022012122739พ.ต.ท.จิตติณัติ รักชาติ                           88468299            54215364                                04780516CCSH       0000002200000000                                                                             
D000018006057601827916022012122852พ.ต.ท.จิตติณัติ รักชาติ                           88568298            55216366                                04780516CCSH       0000002248300000                                                                             
D000019006057601827916022012123336นายสมมาด แสงสุขขา ทศ1875                          8866-9497           5821-1367                               04950529CCSH       0000000315500000                                                                             
D000020006057601827916022012123554น.ส.ภัทรลภา โคตรสมบัติ มจ1615                     88579397            56311061                                02500437CCSH       0000001323800000                                                                             
D000021006057601827916022012124341นายธวัชชัย บุญอยู่                                88979882            26211329                                10290291CCSH       0000001486000000                                                                             
D000022006057601827916022012125115นายชาติชาย ชาติขยัน                               88979688            05213351                                00281171CCSH       0000001884200000                                                                             
D000023006057601827916022012125403สุรชัย โทศรี                                      88469986            37212367                                04230062CCSH       0000001953200000                                                                             
D000024006057601827916022012132153นายเสาร์คำ แก้ววิมล โทร.0875910485                8807-9994           6631-4078                               05943281CCSH       0000001884200000                                                                             
D000025006057601827916022012133609นายอภิรักษ์ ห้อยหวล                               88979391            92218316                                05670403CCSH       0000000808500000                                                                             
D000026006057601827916022012140746นายอภิวัฒน์  เครือวงค์  ทว8586                    8827-9781           6521-8358           0852534570          11300791CCSH       0000001884200000                                                                             
D000027006057601827916022012141040นายมนตรี แก้วใจจง                                 88979894            57314071                                00650099CCSH       0000001884200000                                                                             
D000028006057601827916022012144536นางตุ้งหลิง ตราลาภ ทล 4145                        88789988            51214344                                10071091CCSH       0000002000000000                                                                             
D000029006057601827916022012145358นายอนุสรณ์ วารีน้อย                               8817-8598           0921-2328                               01787080CCSH       0000001649600000                                                                             
D000030006057601827916022012150058นางสาวทองศรี  ธิปไชย                              8836-9886           6521-1320                               02170046CCSH       0000000235500000                                                                             
D000031006057601827916022012151514นายนาวี มีสมวงษ์                                  8897-8889           3031-6071                               00282352CCSH       0000001617900000                                                                             
D000032006057601827916022012153720นางกาญจนา ค้นถาวร                                 0198187996198       107062245                               10320864CCSH       0000001010900000                                                                             
D000033006057601827916022012154029นายนราศักดิ์ ป้องชื่น                             88576798            107160009                               07620489CCSH       0000001179000000                                                                             
D000034006057601827916022012161005นาย ธีรพงศ์ กองแก้ว ทร 2717                       88209891            77212331                                10270592CCSH       0000000295500000                                                                             
D000035006057601827916022012161124คุณบังอร บูระพิน                                  88279788            75213350                                08560324CCSH       0000001947000000                                                                             
D000036006057601827916022012161553นายเอกสิทธิ์ ศรีตองอ่อน ทว 597                    8858-8689           7521-0359                               11861097CCSH       0000001918700000                                                                             
D000037006057601827916022012173859นางสาววิไลรัตน์ บุญเผือก ทล7670                   88789981            06217347                                10070236CCSH       0000000850000000                                                                             
D000038006057601827916022012174939นายกิตติชัย ใจกว้าง ทล9135                        88689580            51219343                                07650724CCSH       0000001873200000                                                                             
D000039006057601827916022012183942น.ส. วิยะดา  ยิ่งยงค์                             8897-8197           0721-0365                               10990536CCSH       0000001884200000                                                                             
D000040006057601827916022012184116นายอุเทน  เพชร์ทอง                                88268298            80216368                                10990536CCSH       0000001839700000                                                                             
D000041006057601827916022012193755นายมงคล  โตเอี่ยม  ทล 7184                        88489791            41217348                                08510045CCSH       0000000030000000                                                                             
T000042006057601827900000000000000000000000065537300000040                                                                                                                                                                                                      
