H0000010060576018279บริษัท ไทเอซ สิสซิ่ง จำกัด              13102011TALHO                                                                                                                                                                                       
D000002006057601827913102011094632นายอมร จันทร์ไว ทล2390                            88998398            03212349                                06230872CCSH       0000000200000000                                                                             
D000003006057601827913102011102449นายวีระศักดิ์ อินจันทึก  มฉ5798                   88979980            87315079                                02590096CCSH       0000000100000000                                                                             
D000004006057601827913102011103117นางสาวสำลี ก้านจักร  ทว 4754                      8877-9587           4721-4355                               01480206CCSH       0000001911700000                                                                             
D000005006057601827913102011103443นายสิทธิรัตน์ ศูนย์ผล ทว4273                      8837-9097           3221-4357                               04950486CCSH       0000001605200000                                                                             
D000006006057601827913102011104502ธงชัย ปลัดศรี                                     8867-9683           6421-7354                               11320905CCSH       0000002019200000                                                                             
D000007006057601827913102011104633นาย ทอง ไสยวิจิตร  ทล 4143                        88589997            31214344                                00651478CCSH       0000001707000000                                                                             
D000008006057601827913102011104836นายรัศเธียร บัวคลี่                               88179788            45213350                                01480560CCSH       0000002014400000                                                                             
D000009006057601827913102011105204นายรัศเธียร บัวคลี่                               88169095            39212363                                01480560CCSH       0000001799200000                                                                             
D000010006057601827913102011110108เหมราช เนื่องพิมพ์                                88389983            29212342                                10279615CCSH       0000001748600000                                                                             
D000011006057601827913102011110245นายวรโชติ  คำเรืองฤทธิ์                           8837-9892           3131-5073           มฉ 5133             07990132CCSH       0000001884200000                                                                             
D000012006057601827913102011110310นายสุวรรณ ตรีเหรา                                 88659898            31315061                                03833635CCSH       0000001145000000                                                                             
D000013006057601827913102011112033นาย นิธิพัฒน์ บังเกิดคงคาดิษฐ์ ทศ 3681            88069293            16213368                                01200547CCSH       0000002792700000                                                                             
D000014006057601827913102011112138นายวชิระ บุญศักดิ์ศรี มฉ2750                      88689981            07312075                                10360725CCSH       0000001799200000                                                                             
D000015006057601827913102011113132นางทีตา  พันลำจันทร์                              88533599            107137960                               03965684CCSH       0000001052200000                                                                             
D000016006057601827913102011113256นางสาววิยะดา ธูปหอม                               88503499            107111438                               02610551CCSH       0000001416400000                                                                             
D000017006057601827913102011114734พเยาว์   ปัญญารอด  089-2195265                    8805-9096           1431-0083                               00336605CCSH       0000001846600000                                                                             
D000018006057601827913102011120652นายคำมี  ปะตังเวสา                                8887-9495           2821-5359                               07010175CCSH       0000001652200000                                                                             
D000019006057601827913102011124748นางสาวภัทรานิษฐ์ รัตนวรธันยา ทว7692               88879892            26217359                                04810155CCSH       0000001629200000                                                                             
D000020006057601827913102011131330นายสาคร  รีฮุง   มฉ 4195                          88279887            5131-4079                               01160236CCSH       0000001990000000                                                                             
D000021006057601827913102011132457วราภรณ์ แก้วทอง                                   8828-9580           2321-9349           ทล 9392             04920051CCSH       0000000656000000                                                                             
D000022006057601827913102011132532นายเสกสรร นาสวน ทศ 3713                           88069393            37213361                                05670558CCSH       0000001194400000                                                                             
D000023006057601827913102011132854นาย นคร  ทองแก้ว  ทศ3174                          88669494            41213367                                09760540CCSH       0000001884200000                                                                             
D000024006057601827913102011135250นายเสถียร คุณปรึกษา ทร 2692                       88289290            26212339                                01890436CCSH       0000001667900000                                                                             
D000025006057601827913102011135253นายนราศักดิ์ ป้องชื่น ทล4144                      8888-9098           4121-4344                               04581830CCSH       0000001754800000                                                                             
D000026006057601827913102011140854ทัศนี จันทจร                                      88069695            95216316                                00800173CCSH       0000001052200000                                                                             
D000027006057601827913102011142739นายอดิศักดิ์ บำรุงเมือง ทล 7788                   8896-8497           8721-7348                               04580699CCSH       0000004600000000                                                                             
D000028006057601827913102011143925จ.ส.อ.ศักดิ์ สะราคำ                               88378897            81313064                                01980916CCSH       0000000960000000                                                                             
D000029006057601827913102011145704นาย ยอดชาย  ขำจำรูญ                               88498199            82212349                                08400047CCSH       0000001625000000                                                                             
D000030006057601827913102011150255นางกมลชนก สิงห์เส                                 88533499            106127224                               09760107CCSH       0000002104400000                                                                             
D000031006057601827913102011150816นายสุมิตร   แพไธสง ทย 2040                        88269591            00212324                                06921923CCSH       0000000916700000                                                                             
D000032006057601827913102011151520นายกังวาน  มุมทอง ทว 9084                         8877-9790           4021-9358                               04690052CCSH       0000001799200000                                                                             
D000033006057601827913102011153002นาย ธีระ สุวรรณเกิด ทว 5195                       8827-9986           5121-5359                               04780201CCSH       0000003400000000                                                                             
D000034006057601827913102011154606นางมาลาศรี ทองชา                                  8866-9194           1021-1322                               01231109CCSH       0000001877700000                                                                             
D000035006057601827913102011154614น.อ.ธนรัชฏ์ ทวีพันธุ์สานต์ ทย1415                 8881-9391           5421-1321                               05670558CCSH       0000000927400000                                                                             
D000036006057601827913102011160140นายพิชิตร์ ภูฆัง  ทย 5417                         8856-8798           7421-5321                               01100680CCSH       0000000884600000                                                                             
D000037006057601827913102011180842น.ส.ฉวีวรรณ สุวรรณวงษ์ ทว8164                     8867-9882           4121-8356                               10360725CCSH       0000001980000000                                                                             
D000038006057601827913102011183914นายลำดวน วงสา                                     88968799            28212343                                11520403CCSH       0000000670900000                                                                             
D000039006057601827913102011193918น.ส.นิตยา  ศิริพลัด                               88899395            09318068                                11140161CCSH       0000001501700000                                                                             
T000040006057601827900000000000000000000000061770100000038                                                                                                                                                                                                      
