H0000010060576018279บริษัท ไทเอซ สิสซิ่ง จำกัด              17012012TALHO                                                                                                                                                                                       
D000002006057601827917012012095651นายพรชัย  สุจริตหัตถชัย                           88519989            107029121                               11240673CCSH       0000000746000000                                                                             
D000003006057601827917012012102127สุรพล  ไกรพ้น                                     88878198            91316075            0843886727          04600142CCSH       0000001900000000                                                                             
D000004006057601827917012012103303คุณประจัญชัย  อัฒจักร                             88679190            22219350                                01760442CCSH       0000001918500000                                                                             
D000005006057601827917012012104157นายจตุพร สมมิตร ทล.5102                           88989694            21215340                                00132065CCLQ769511 00000001600000140080                                                                         
D000006006057601827917012012110700นาง สายบัว ยิ้มใย                                 88377197            47217348                                10800801CCSH       0000002032000000                                                                             
D000007006057601827917012012111434นายสมชัย คณฑา ทม 6643                             8816-9292           3621-6314                               00282766CCSH       0000000509800000                                                                             
D000008006057601827917012012111747นางจุไรรัตน์ สุทธิเวช ทล4789                      88189996            97214348                                11522040CCLQ271606100000018388000020177                                                                         
D000009006057601827917012012111914นางจุไรรัตน์ สุทธิเวช ทล4789                      88189996            97214348                                11522040CCSH       0000000552900000                                                                             
D000010006057601827917012012111923สัณหณัฐ                                           88759195            99218367                                07966650CCSH       0000003258500000                                                                             
D000011006057601827917012012112147นางสาว มารีนา  ประกอบผล  ทว7093                   8876-8798           3021-7359                               08690033CCSH       0000000584000000                                                                             
D000012006057601827917012012112516นางมุกดา ประสงค์สุข ทศ 311                        88978988            13210361                                10071091CCSH       0000001946200000                                                                             
D000013006057601827917012012112904นางประทวน เขียวแล มจ.5512                         88569592            25315061                                10370371CCSH       0000000997100000                                                                             
D000014006057601827917012012113809ส.ต.ท.ชัยญา เชื้อหงษ์                             88479891            06218350                                04730614CCSH       0000001391200000                                                                             
D000015006057601827917012012113814นางสาวนภารัตน์ ปิมปา                              88868899            45210354                                10801119CCSH       0000001801000000                                                                             
D000016006057601827917012012120517คุณ วรโชติ คำเรืองฤทธิ์                           88379892            31315073                                03830446CCSH       0000001884200000                                                                             
D000017006057601827917012012121313นายวินัย ลมสูงเนิน ทว 2512                        88788097            25212351                                05700496CCSH       0000001432800000                                                                             
D000018006057601827917012012121457นางสาวนิ่มนวล  ดอกนาค                             88597998            106127274                               04700196CCSH       0000001579300000                                                                             
D000019006057601827917012012121701นาย สุริเยศ โรจน์สุธี มฉ 8064                     8846-9392           4031-8076                               04581882CCSH       0000001788800000                                                                             
D000020006057601827917012012122133นางสาทิยา  สุภศร                                  88888599            01217312                                05760270CCSH       0000000640700000                                                                             
D000021006057601827917012012122941ส.ต.อ.สมบัติ สิมหลวง                              8858-9798           4821-3342                               09621011CCSH       0000001034800000                                                                             
D000022006057601827917012012123146นายสุรพงษ์ วงศ์กำภู                               88859398            70217365                                01231109CCSH       0000001839700000                                                                             
D000023006057601827917012012130755นายอดิศักดิ์ หันวิสัย                             8856-9693           6531-5067                               01690123CCSH       0000001010600000                                                                             
D000024006057601827917012012132248นางคนึงนิตย์ ตะคุณนะ/ทว 4443                      8847-9687           3421-4354                               05670826CCSH       0000002223000000                                                                             
D000025006057601827917012012133431นายเดชา เชื้อบุญมี                                88378797            04313069                                01480560CCSH       0000001141700000                                                                             
D000026006057601827917012012133613นายสัญญพงศ์ เจียรนัยกูร                           88502199            107130971                               01480560CCSH       0000000922800000                                                                             
D000027006057601827917012012134934นายอัศวิน อิ่มพันธ์                               88516799            106199481                               02610551CCSH       0000000500000000                                                                             
D000028006057601827917012012135043นายประสิทธิ์  แจ้งเหตุผล ทล 412                   88525299            107152834                               00650326CCSH       0000000064300000                                                                             
D000029006057601827917012012135511อนันต์ สิงห์น้อย ทว3038                           88179398            80213353                                04950176CCSH       0000002569600000                                                                             
D000030006057601827917012012135705อนันต์ สิงห์น้อย ทศ1141                           88569498            11211364                                04950176CCSH       0000002996700000                                                                             
D000031006057601827917012012140758นาง มยุรี นนทรีย์                                 8877-9994           6121-6357           ทว6176              01950405CCSH       0000001534600000                                                                             
D000032006057601827917012012142814นายสุรศักดิ์ อินทศร ทศ 5543                       88779493            35215364                                04580699CCSH       0000002100000000                                                                             
D000033006057601827917012012144246นายสมบูรณ์  ผามั่ง                                88269892            08312065                                00200304CCSH       0000001052200000                                                                             
D000034006057601827917012012145315นางนงคราญ คำมอญ ทว7259                            8847-9993           9221-7355                               04585612CCSH       0000002528000000                                                                             
D000035006057601827917012012151029นายนาวี มีสมวงษ์                                  8897-8889           3031-6071                               00282352CCSH       0000001617900000                                                                             
D000036006057601827917012012151447เมตตา  ตะคุณนะ                                    88379687            04214355                                06221673CCSH       0000001977900000                                                                             
D000037006057601827917012012151924นายสวรรค์ บุญชัย                                  88506999            107147939                               01231109CCSH       0000000615300000                                                                             
D000038006057601827917012012152808นายประชุม หลังทอง                                 88479196            00215358                                00243844CCSH       0000001911800000                                                                             
D000039006057601827917012012153245ประเสริฐ                                          8825-9894           6721-8362                               00530428CCSH       0000001966100000                                                                             
D000040006057601827917012012153337นายอภิรักษ์ ห้อยหวล/ทม 8269                       8897-9391           9221-8316                               05670826CCSH       0000000808500000                                                                             
D000041006057601827917012012154830นายวรวิทย์ และสง่า ทว 3030                        88069697            00213353                                01890658CCSH       0000000510000000                                                                             
D000042006057601827917012012160927นายเฉลิมชัย จันทร์งาม                             88989693            64215343                                07660676CCSH       0000001531700000                                                                             
D000043006057601827917012012161352นางสาว มะรินทร์ พรมโลกา ทว4756                    88579587            67214355                                00470517CCSH       0000001912900000                                                                             
D000044006057601827917012012162635นางสาว บังอร บูระพิน ทว3507                       88279788            75213350                                09550503CCSH       0000001922000000                                                                             
D000045006057601827917012012165219นางตุ้งหลิง ตราลาภ ทล 4145                        88789988            51214344                                10071091CCSH       0000002050000000                                                                             
D000046006057601827917012012165933นาย วินัย  ผลดี                                   88679792            86217353            ทว 7638             10250225CCSH       0000001926500000                                                                             
D000047006057601827917012012170300ณรงค์ชัย                                          88669887            39211367                                07966650CCSH       0000001833500000                                                                             
D000048006057601827917012012170628นายเสกสรร นาสวน ทศ2861                            88569195            18212366                                05671599CCSH       0000001194400000                                                                             
D000049006057601827917012012172040นาย สมบูรณ์ คงดี                                  88530399            107089667           มจ2328              10250256CCSH       0000000954300000                                                                             
D000050006057601827917012012180606นาง รำพึง แดงเกาะโพธิ์                            88169096            95212360                                07620396CCSH       0000001228700000                                                                             
D000051006057601827917012012182950นายกิตติชัย ใจกว้าง                               88689580            51219343                                07650103CCSH       0000001873200000                                                                             
T000052006057601827900000000000000000000000074314500000050                                                                                                                                                                                                      
