H0000010060576018279บริษัท ไทเอซ สิสซิ่ง จำกัด              07122011TALHO                                                                                                                                                                                       
D000002006057601827907122011083355นายโสภี คำดีเกิด                                  8807-9792           7631-9051                               02870680CCSH       0000006513000000                                                                             
D000003006057601827907122011090216ยุพดี เที่ยงาย ทย1776                             88179598            67211327                                10640051CCSH       0000000989800000                                                                             
D000004006057601827907122011091920นายวสันติชัย แบนจาด                               8828-9396           3921-4343                               01800625CCSH       0000001665500000                                                                             
D000005006057601827907122011093654นางจันทร์สม โพธิ์แดง                              8825-9693           1421-9369                               01390094CCSH       0000001922300000                                                                             
D000006006057601827907122011094437นายวิทยา  ดาวเรือง                                88526799            107067177                               01900549CCSH       0000002500000000                                                                             
D000007006057601827907122011094439ร.อ.รัฐธีร์  น้อยนิตย์                            88389392            24216347                                09760114CCSH       0000001377800000                                                                             
D000008006057601827907122011094505นายถวิล สุขโข                                     8838-9691           8531-2076                               00240918CCSH       0000001697800000                                                                             
D000009006057601827907122011095420นายสุนทร บุญเกิด                                  88504599            107107351                               03960229CCSH       0000001124500000                                                                             
D000010006057601827907122011100200นายสุริยันต์ ทองโพธิ์ศรี ทล9182                   8857-7897           2121-9348                               05670390CCSH       0000003763800000                                                                             
D000011006057601827907122011102156นายถวิล  นาโควงค์  ทว 6477                        8817-9294           7421-6357                               00750201CCSH       0000001884200000                                                                             
D000012006057601827907122011102258นายจงศักดิ์  ไชยธานี                              88859698            66319073                                01620971CCSH       0000001525700000                                                                             
D000013006057601827907122011102726นายปรีชา หงส์ทอง ทศ 5836                          8856-8698           6821-5363                               04580699CCSH       0000001856500000                                                                             
D000014006057601827907122011103732นายจรัล เผยสกุล                                   88678797            86210362            ทศ628               02581796CCSH       0000001948500000                                                                             
D000015006057601827907122011110055นายพงศ์รพี ปรีชาไพศาลจิต ทศ5861                   8826-8598           1821-5366           นำฝากโดย กัญญารัตน์ 09550176CCSH       0000001856500000                                                                             
D000016006057601827907122011110513นาง นฤชล มณีรัตน์                                 8827-8597           8721-5332                               00000674CCSH       0000000500000000                                                                             
D000017006057601827907122011111314นายจำลอง เที่ยงตรง                                8877-9992           2521-7350                               06920243CCSH       0000001941000000                                                                             
D000018006057601827907122011112558ด.ต.สุวนัย เสาศิริ ทศ2860                         8886-9195           0821-2366                               04781103CCSH       0000001951600000                                                                             
D000019006057601827907122011112622น.ส.สายันต์ ศรีวงค์ษา                             88778397            76210368                                01880018CCSH       0000004400000000                                                                             
D000020006057601827907122011113036นายทองม้วน จำนงนิตย์  ทว3221                      88779398            12213352                                10074338CCLQ737674900000009750000250329                                                                         
D000021006057601827907122011114648นางรัชนี จันทร์แก้ว ทล2177                        88098399            71212347                                01890658CCLQ986938500000004000000650013                                                                         
D000022006057601827907122011114956นายวรรณรบ เนียมทอง                                88506399            106124165                               01900719CCSH       0000001773700000                                                                             
D000023006057601827907122011115006นายสมชาย  ณรงค์ศักดิ์ ทล2282                      88978399            22212348                                00190024CCSH       0000001553700000                                                                             
D000024006057601827907122011120605ว่าที่ร.ต. บุญส่ง สุขทิพย์กิจ                     88359393            4931-0089                               00120277CCSH       0000000524500000                                                                             
D000025006057601827907122011121133นายธีระชาย แสงสุวรรณ                              8858-9292           4521-6342                               10903618CCSH       0000001734300000                                                                             
D000026006057601827907122011122324นายชัชวาลย์ แสงอาวุธ ทศ7235                       8815-9797           5221-7363                               08404479CCSH       0000001856500000                                                                             
D000027006057601827907122011122427นายชัชวาลย์ แสงอาวุธ ทศ8140                       8835-9296           0121-8364                               08404479CCSH       0000001828800000                                                                             
D000028006057601827907122011122513นายธนพงษ์ เครือวณิชธรรม ทม4468                    88857897            84214316                                10150069CCSH       0000001374400000                                                                             
D000029006057601827907122011122648นาวสาว สมทรัพย์ หนองหาร                           8827-8697           5621-0362                               00860670CCSH       0000001088800000                                                                             
D000030006057601827907122011122701นายนัฐพล บุญวิไลลักษณ์ ทย 5814                    8876-9596           4821-5321                               02530654CCSH       0000000884600000                                                                             
D000031006057601827907122011122826นายนัฐพล บุญวิไลลักษณ์ ทย 5814                    88769596            48215321                                02530654CCSH       0000000896600000                                                                             
D000032006057601827907122011123948นายบุญธรรม เยื่อปุย                               88669797            04215325                                01340207CCSH       0000001037500000                                                                             
D000033006057601827907122011124633นายจักร แท่งเหล็ก ทล 5355                         8888-9394           5321-5345                               01481588CCSH       0000001617900000                                                                             
D000034006057601827907122011125427นางจารุวรรณ เลิศไกร ทร 1077                       8866-9291           7021-1337                               09550887CCSH       0000001402900000                                                                             
D000035006057601827907122011125554นายธนพัต คุ้มวงษ์                                 88678797            23316074                                07660755CCSH       0000000960000000                                                                             
D000036006057601827907122011125720นายธนพัต คุ้มวงษ์                                 88078897            85210364                                07660755CCSH       0000000733300000                                                                             
D000037006057601827907122011130246นายบุญมา  ล้ำทวีภักดี  ทย 2620                    88478899            06212322                                05701141CCSH       0000001000000000                                                                             
D000038006057601827907122011131448นายสุชาติ อิ่มอร่าม                               8848-9398           8821-3346                               00940396CCSH       0000001665500000                                                                             
D000039006057601827907122011132614นายกมล แต้มสว่าง                                  88969293            66213366                                04810552CCSH       0000001799200000                                                                             
D000040006057601827907122011133851นาย  รังสันติ  เวียงนนท์  ทล  5124                8888-9795           4121-5342                               03970523CCSH       0000001689400000                                                                             
D000041006057601827907122011133900นางสาว ประทุม ตรีภักดิ์                           8827-8989           7921-9359           ทว 9997             10091582CCSH       0000001794600000                                                                             
D000042006057601827907122011134833นาง สมควร หงษ์ทอง  ทร 3964                        8806-9790           4921-3336                               04581882CCSH       0000001616900000                                                                             
D000043006057601827907122011135714นายศราวุธ แก้วแกมเกษ                              8878-9591           5121-7348                               01720820CCSH       0000001873600000                                                                             
D000044006057601827907122011140316นายประสิทธิ์ หอมสนั่น                             88889990            08312074                                02600066CCSH       0000001818700000                                                                             
D000045006057601827907122011140344นายวันชัย แจ้งเปลี่ยน                             88514299            107119990                               04670401CCSH       0000001603300000                                                                             
D000046006057601827907122011141550นายเกียรติศักดิ์ บุญเอก                           8886-9996           5321-2322                               02871029CCSH       0000001294000000                                                                             
D000047006057601827907122011142926นางสาวสมหวัง นับกลาง ทว8493                       88479291            34218359                                01730895CCSH       0000001884200000                                                                             
D000048006057601827907122011143333เครือฟ้า  สุขกล้า                                 8818-9393           9221-7312                               08690542CCSH       0000000604800000                                                                             
D000049006057601827907122011144040นายประชา กัลยา                                    88488697            03212353                                10254482CCSH       0000000410000000                                                                             
D000050006057601827907122011144307นางกชกร สุยะ                                      88512999            030126620                               00611046CCSH       0000000780300000                                                                             
D000051006057601827907122011144609เสน่ห์ ยิกุสังข์                                  88798897            50213345                                07951972CCSH       0000000096000000                                                                             
D000052006057601827907122011145623สมประสงค์                                         88279794            74216353                                07966650CCSH       0000001788700000                                                                             
D000053006057601827907122011151900นางสายเงิน  จริยสุวรรณ  ทล8689                    88889090            96218348                                02590911CCSH       0000001988200000                                                                             
D000054006057601827907122011152740นายโยธิน มาดลย์ ทว 3506                           88379997            65213350                                04580699CCSH       0000001931200000                                                                             
D000055006057601827907122011154019นายพรเทพ หนูสิลา /มง9568                          8828-8999           8531-9056                               01860180CCSH       0000001296700000                                                                             
D000056006057601827907122011154041เพชรมณี สิงห์วิชัย ทย 7768                        88789894            87217326                                00441768CCSH       0000001200000000                                                                             
D000057006057601827907122011154140นายจตุพร นาคไพรัชช์                               88379498            82213359                                10522154CCSH       0000002011700000                                                                             
D000058006057601827907122011154349ศรีทน กองงาม มฉ5335                               88179093            53315073                                04607752CCSH       0000002204000000                                                                             
D000059006057601827907122011160013นายวิทยา ภิราษร ทล 7497                           88789191            74217349                                10661140CCSH       0000001700000000                                                                             
D000060006057601827907122011162227นายวันดี ใจกล้า                                   8888-8998           3521-6326                               07660755CCSH       0000001452000000                                                                             
D000061006057601827907122011164006นายสุนันท์  วิเศษเนตร ทร 6125                     88559895            81216332                                01730895CCSH       0000000872800000                                                                             
D000062006057601827907122011164543สมศักดิ์  เมฆดำ ทศ575                             88178797            55210367                                04830668CCSH       0000001780500000                                                                             
D000063006057601827907122011182749นางสาวภัคจิรา เอี่ยมนอก  ทศ 6600                  88959396            06216360                                01730895CCSH       0000003485500000                                                                             
D000064006057601827907122011183455บรรจง สุวรรณโคต                                   88879587            77219329                                11045221CCSH       0000001670000000                                                                             
D000065006057601827907122011184736นาย ทรงชัย ลายลวดแก้ว (ทศ1122)                    88878097            21211362                                00311061CCSH       0000001918500000                                                                             
D000066006057601827907122011190834นายเจนณรงค์ อินทร์สอาด  ทม6604                    8847-9790           4621-6310                               08000757CCSH       0000000700000000                                                                             
T000067006057601827900000000000000000000000105991300000065                                                                                                                                                                                                      
