H0000010060576018279บริษัท ไทเอซ สิสซิ่ง จำกัด              19022012TALHO                                                                                                                                                                                       
D000002006057601827919022012115235นายบุญเลิศ ทรัพย์เจริญกุล                         88569994            29212363                                00860670CCSH       0000001679300000                                                                             
D000003006057601827919022012123544นางสาวขวัญเมือง แก้วสระแสน ทย 6160                88859196            01216326                                04880436CCSH       0000001647700000                                                                             
D000004006057601827919022012124319จันทรา เชื้อหมอ โทร.0890566200                    88578099            37219355                                10070071CCSH       0000001515300000                                                                             
D000005006057601827919022012144228นายสุรชัย  นุตตะโยธิน ทย3857                      88959697            78213325                                04881090CCSH       0000001293500000                                                                             
D000006006057601827919022012151052นาย นิวัฒน์ บุบผาสุพรรณ์                          88189893            85215343            ทล 5538             10250012CCSH       0000001789300000                                                                             
D000007006057601827919022012152604หนูกร คงศิริ โทร.0897903944                       88769896            01212363                                10070071CCSH       0000001884200000                                                                             
D000008006057601827919022012161510นาย สมพงษ์  เครือพัฒน์ ทว9290                     88079190            02219359                                04880528CCSH       0000001799200000                                                                             
D000009006057601827919022012161628นาย สมพงษ์  เครือพัฒน์ ทว9286                     88179190            62219358                                04880528CCSH       0000001799200000                                                                             
D000010006057601827919022012163103นายประกอบ ประทุมศรี ทศ2817                        88769895            78212361                                04781103CCSH       0000002002000000                                                                             
D000011006057601827919022012171433นางกันจนี คนหาญ                                   88537699            106198236                               08003818CCSH       0000001883800000                                                                             
D000012006057601827919022012172756น.ส.ภาวินี อุตศาสตร์    ทร520                     88509399            107122647                               10320156CCSH       0000000112300000                                                                             
D000013006057601827919022012173132อนุสรณ์  วารีน้อย                                 88536799            106194991           ทศ9301              07990132CCSH       0000002087700000                                                                             
D000014006057601827919022012174044นาง สุกัญญา วิไลลักษณ์                            88669796            63212367            ทศ 2376             04670151CCSH       0000001356900000                                                                             
D000015006057601827919022012174651ภัทรานิษฐ์ รัตนวรธันยา                            88269787            60212366                                09761108CCSH       0000001595000000                                                                             
D000016006057601827919022012182615นายธรรมสันต์ อุดมวิริยากร                         88379590            17104365                                04700568CCSH       0000002157800000                                                                             
D000017006057601827919022012184224นาย วินัย ผลดี                                    88679792            86217353            ทว 7638             10250012CCSH       0000001979500000                                                                             
T000018006057601827900000000000000000000000026582700000016                                                                                                                                                                                                      
