H0000010060576018279บริษัท ไทเอซ สิสซิ่ง จำกัด              13032012TALHO                                                                                                                                                                                       
D000002006057601827913032012083644นายวิชาญ ขนอม                                     88078498            20210369                                04603236CCSH       0000001900000000                                                                             
D000003006057601827913032012091553นายบรรจง สนิท ทล 7688                             8878-9881           8621-7348                               04991118CCSH       0000001800000000                                                                             
D000004006057601827913032012092319น.ส.ลัดดา ผาพิน ทร1254                            88769597            42211335                                11245499CCSH       0000000989800000                                                                             
D000005006057601827913032012093831นายสุมิตร แพไธสง                                  8826-9591           0021-2324                               01200274CCSH       0000000032000000                                                                             
D000006006057601827913032012094958พงษ์ศักดิ์ หิรัญวรรณ                              88869194            51213367                                00470517CCSH       0000001500700000                                                                             
D000007006057601827913032012095220นางศิริดา  บุราณคุณ                               88869394            91213367                                11540466CCSH       0000001830000000                                                                             
D000008006057601827913032012101012นาย ปิยะ กาญจนภาชน์                               0198187991998       104128759                               03830885CCSH       0000001944000000                                                                             
D000009006057601827913032012102858นายปริญญา สุพร  ถส 3791                           8886-9593           1720-3389                               04990497CCSH       0000000312200000                                                                             
D000010006057601827913032012103051นส.ปริณตรา สะยิ้ม                                 88459696            78217366                                07088261CCSH       0000000960000000                                                                             
D000011006057601827913032012103654นายปฎิภาณ  สมดี  ทศ5045                           88669390            50215364                                04600072CCSH       0000001432800000                                                                             
D000012006057601827913032012103826เสกสรรค์ กลิ่นรอด ทว6617                          88479984            76216351                                01990606CCSH       0000001515300000                                                                             
D000013006057601827913032012103917เสกสรรค์ กลิ่นรอด ทว4998                          88479496            89214359                                01990606CCSH       0000001048800000                                                                             
D000014006057601827913032012105931นางชลิตดา เจริญพวง                                88179587            16214355                                09761108CCSH       0000001048800000                                                                             
D000015006057601827913032012110501นายวีระ ศรีแก้ว  ทม 1009                          88759096            90211310                                10071091CCSH       0000001230500000                                                                             
D000016006057601827913032012110641นายวีระ ศรีแก้ว ทม 7819                           88659096            98217311                                10071091CCSH       0000001230500000                                                                             
D000017006057601827913032012111653นายกมลาสน์ ละไมกิจ                                88507599            107083985                               03150936CCSH       0000000960000000                                                                             
D000018006057601827913032012112139นายวานิช พานะคุณ                                  88178197            43314074                                00920814CCSH       0000003571000000                                                                             
D000019006057601827913032012112842นายประสิทธิ์ แจ้งเหตุผล                           88525299            107152834                               09761108CCSH       0000001000000000                                                                             
D000020006057601827913032012114242นาย บุญจันทร์  สีธาตุ                             88530799            107043199                               04700196CCSH       0000001033000000                                                                             
D000021006057601827913032012114447นายสังเวียน  ขามรัตน์  ทร  7893                   88578998            107105908                               03970523CCSH       0000001230500000                                                                             
D000022006057601827913032012114448นางสาวอรวรรณ ศรีสุวรรณเกศ                         88268599            69210333                                09761108CCSH       0000000829300000                                                                             
D000023006057601827913032012115814ธนพร แสงมณีขจร                                    88959397            23212359                                04710657CCSH       0000001831000000                                                                             
D000024006057601827913032012115904นางสายเงิน จริยสุวรรณ  ทล 8689                    0198187998097                                               02590096CCSH       0000001159200000                                                                             
D000025006057601827913032012120442นายสมเด็จ บุญเพชร                                 88869197            46211367                                01215368CCSH       0000002000000000                                                                             
D000026006057601827913032012121742นางสาวภัทรานิษฐ์ รัตนวรธันยา                      88269787            60212366                                04810552CCSH       0000001595000000                                                                             
D000027006057601827913032012122204นายธนกร ยุทธโรจน์ ทล 1683                         88574098            107155797                               04580699CCSH       0000001489550000                                                                             
D000028006057601827913032012122216นายกิตติพงศ์  กรศุภอานนท์                         88778599            0921-2329                               03971126CCSH       0000001650000000                                                                             
D000029006057601827913032012122243นายอุเทน เพชร์ทอง                                 88878197            47210365                                11522040CCSH       0000001884200000                                                                             
D000030006057601827913032012122317นายกิตติพงศ์  กรศุภอานนท์                         8897-8799           7021-2320                               03971126CCSH       0000000235500000                                                                             
D000031006057601827913032012123410นายจงรักษ์ ถนอมต่วน                               88523299            104121634                               02150522CCSH       0000001390900000                                                                             
D000032006057601827913032012124212ธิดา  เนาวรัตน์                                   88979893            32214332                                05755751CCSH       0000001131900000                                                                             
D000033006057601827913032012130337นาย สรรเสริญ  สีธงชัยรุ่งโรจน์                    88068797            84215364                                07930498CCSH       0000001010600000                                                                             
D000034006057601827913032012130434วิรัตน์ อมรนิรุตติ พท2756                         88570998            099030400                               01990606CCSH       0000000927300000                                                                             
D000035006057601827913032012131937นางสาวณัฐธิชา ทาระเวท                             8856-7697           4121-6357           ทว 6174             10060803CCSH       0000003802700000                                                                             
D000036006057601827913032012132846นางมาลาศรี ทองชา ทย 1021                          88669194            10211322                                01300249CCSH       0000001800700000                                                                             
D000037006057601827913032012133155นายสุรศักดิ์ ถนอมสุข                              88468898            38318055                                09760107CCSH       0000000699300000                                                                             
D000038006057601827913032012133247นายสุรศักดิ์  อินทศร  ทว 5936                     88679495            69215353                                04585612CCSH       0000001992300000                                                                             
D000039006057601827913032012133650นายไพรัตน์ สุริยวรรณ                              8879-9896           9221-7337                               01230490CCSH       0000000873900000                                                                             
D000040006057601827913032012134005วชิระ  อยู่โต                                     88159894            60339067                                02307233CCSH       0000000289800000                                                                             
D000041006057601827913032012135053K.สุรินทร์ ฉาบไธสง ทศ8582                         88559295            25218368                                02610535CCSH       0000001874100000                                                                             
D000042006057601827913032012135648นาง ณัฐพร ผลเกลี้ยง ทม 787                        8847-9894           77210318                                10860250CCSH       0000001073000000                                                                             
D000043006057601827913032012141412นางสาว นัฐณี อินทร์เพ็ญ ทร 2783                   88539099            107129677                               00641040CCSH       0000001610740000                                                                             
D000044006057601827913032012143211พ.ต.ทงจิตติณัติ  รักชาติ                          88525599            104119885                               11300791CCSH       0000002478100000                                                                             
D000045006057601827913032012144823นางนงนุตร แก้วสุวรรณ                              88389493            23213311                                01260388CCSH       0000000064300000                                                                             
D000046006057601827913032012145228นายเอกสิทธิ์ ศรีตองอ่อน ทว4793                    8837-9696           3721-4359                               11861097CCSH       0000000919000000                                                                             
D000047006057601827913032012145341นางสุกัญญา ศรีจันทร์ ทว4753                       8827-9696           3721-4355                               11861097CCSH       0000001070000000                                                                             
D000048006057601827913032012151228นางอุลัยรัตน์ โพธิ์นอก                            88969498            44211363                                08698691CCSH       0000002022500000                                                                             
D000049006057601827913032012151526นายเสกสรร นาสวน                                   88069393            37213361                                05674254CCSH       0000001194400000                                                                             
D000050006057601827913032012151734นายสุริยันต์  ทองโพธิ์ศรี                         88577897            21219348                                11520515CCSH       0000001838900000                                                                             
D000051006057601827913032012151752นายกิตติศักดิ์ นาสวน ทพ1305                       88509199            104121985                               05674254CCSH       0000001330700000                                                                             
D000052006057601827913032012152105นายธงชัย ปลัดศรี ทว7446                           8867-9683           6421-7354                               11320905CCSH       0000001584200000                                                                             
D000053006057601827913032012154552นางสาวมะรินทร์ พรมโลกา ทว 4756                    88579587            67214355                                00470207CCSH       0000001878600000                                                                             
D000054006057601827913032012154655นางสาว มะรินทร์ พรมโลกา ทว.4756                   88579587            67214355                                00470207CCSH       0000000144300000                                                                             
D000055006057601827913032012155603นางวชิราภรณ์ แสงใจหนัก                            88168397            15216364            ทศ 6541             01528111CCSH       0000001650000000                                                                             
D000056006057601827913032012160358นางสาวไพจิตต์ กีรติพินิจ                          88516989            106202801                               02560706CCSH       0000001140000000                                                                             
D000057006057601827913032012171416จุลพงษ์ สายบัว                                    88788999            30313077                                05970092CCSH       0000001700000000                                                                             
D000058006057601827913032012174214ด.ต.สุวนัย เสาศิริ ทศ 2860                        88869195            08212366                                04780158CCSH       0000001705200000                                                                             
D000059006057601827913032012175058นายสมาน พวงพิลา                                   88368597            64319071            025919762           11371371CCSH       0000002417000000                                                                             
D000060006057601827913032012175850ฐานิศวร์ นิติธรรมพงศ์                             8828-9983           1521-6347                               07620899CCSH       0000001514100000                                                                             
D000061006057601827913032012183832นายอดิศักดิ์ หันวิสัย  มจ 5576                    8856-9693           6531-5067                               01730895CCSH       0000001010600000                                                                             
D000062006057601827913032012190043นายอรรณพ ศรีปัญญานนท์ ทศ8230                      88559986            02218363                                10070236CCSH       0000001920000000                                                                             
T000063006057601827900000000000000000000000085302790000061                                                                                                                                                                                                      
