H0000010060576018279บริษัท ไทเอซ สิสซิ่ง จำกัด              07012012TALHO                                                                                                                                                                                       
D000002006057601827907012012090618วุฒิชัย มูลกลาง                                   8897-9696           8821-4352                               10135785CCSH       0000001884200000                                                                             
D000003006057601827907012012104336นายยวรรณรบ เนียมทอง                               88506399            106124165                               04700568CCSH       0000001773700000                                                                             
D000004006057601827907012012110130นางจารุวรรณ เลิศไกร                               88669291            70211337                                04880760CCSH       0000001402900000                                                                             
D000005006057601827907012012111018นาย โสภณ เทพสำราญ                                 88889782            18216345                                11600104CCSH       0000001759800000                                                                             
D000006006057601827907012012112326นางสุบิน งามปานแก้ว                               88689097            66214347                                10660506CCSH       0000001665500000                                                                             
D000007006057601827907012012114133นายธีระชาย แสงสุวรรณ ทล 6524                      8858-9292           4521-6342                               04881100CCSH       0000001700000000                                                                             
D000008006057601827907012012114328นาง ศศิญา จันทร์สิน ทล 7296                       8858-9491           6221-7349                               04780120CCSH       0000001749000000                                                                             
D000009006057601827907012012115946นาย อนุชา สอนเสนา ทล 5630                         8898-9983           0621-5343                               10630588CCSH       0000000239700000                                                                             
D000010006057601827907012012120528นายคำรณ  ภู่ลา                                    8857-9491           4531-5071                               02501795CCSH       0000001799200000                                                                             
D000011006057601827907012012140827นางสาวสุวนันท์ แก้วเผือก                          88168999            50097400                                11280165CCSH       0000000312100000                                                                             
D000012006057601827907012012141732นางภัทรินิษฐ์ ฉัตรมงคลชัย                         88288997            65213338                                04880760CCSH       0000001538600000                                                                             
D000013006057601827907012012142433นายสฤทธิ์ เสนสอน ทล5927                           88889093            79215342                                04950176CCSH       0000001734300000                                                                             
D000014006057601827907012012142933นางบุญมี สิงห์ป้อง                                88679094            54216357                                04880436CCSH       0000001884200000                                                                             
D000015006057601827907012012143227นางวรรณภา เจริญอินทร์                             88869598            59211364            ทศ.1945             07990541CCSH       0000003269600000                                                                             
D000016006057601827907012012144038กมล แต้มสว่าง                                     88189590            85218348                                04810111CCSH       0000001800000000                                                                             
D000017006057601827907012012144252กมล แต้มสว่าง                                     8896-9293           6621-3366                               04810111CCSH       0000001799200000                                                                             
D000018006057601827907012012151218นางศิริดา บุราณคุณ ทว 5455                        88379586            54215355                                04930681CCSH       0000001953500000                                                                             
D000019006057601827907012012152234นายบุญเที่ยง บุญผ่อง มฉ 1297                      8828-9397           7231-1079                               10630588CCSH       0000001107300000                                                                             
D000020006057601827907012012153011นายวิชาญ กุดธาดาพงศ์                              88514099            107136915                               11521521CCSH       0000000144300000                                                                             
D000021006057601827907012012161723นายสุชาติ อิ่มอร่าม ทล3868                        88489398            88213346                                05700914CCSH       0000001665500000                                                                             
D000022006057601827907012012163941คุณปรีชา มุนนี                                    88517789            106009685                               08550650CCSH       0000000500000000                                                                             
D000023006057601827907012012172050นายสมปอง โข่สูงเนิน มง 6513                       88501799            107023859                               10320746CCSH       0000001065400000                                                                             
D000024006057601827907012012172736นานมานัส มุงบัง  5ฒ6170                           88521699            099246185                               08510258CCSH       0000000485000000                                                                             
D000025006057601827907012012172935นางชลิตดา  เจริญพวง  ทว4355                       8897-9097           5321-4355                               09760540CCSH       0000002400000000                                                                             
D000026006057601827907012012173254นางสาว สุปราณี ธนูศิลป์ ทล8861                    88589780            18218346                                10070203CCSH       0000001675000000                                                                             
D000027006057601827907012012175927นาย อนุสรณ์ วารีน้อย                              88469797            47217314                                10061102CCSH       0000001517700000                                                                             
D000028006057601827907012012181638พรพรต พาทีทิน                                     88579395            51216357                                07621764CCSH       0000001186600000                                                                             
D000029006057601827907012012184323นายศุภณัฏฐ์ ใจกล้า                                8866-7197           0231-3076                               11930684CCSH       0000001884200000                                                                             
D000030006057601827907012012185112คุณพรนภา พันธ์ประดิษฐ์                            88579297            33214358                                08550650CCSH       0000003571000000                                                                             
D000031006057601827907012012185341นางกชกร สุยะ                                      88512999            030126620                               07620489CCSH       0000000780300000                                                                             
T000032006057601827900000000000000000000000046247800000030                                                                                                                                                                                                      
