H0000010060576018279บริษัท ไทเอซ สิสซิ่ง จำกัด              11022012TALHO                                                                                                                                                                                       
D000002006057601827911022012114256นางรำพึง แดงเกาะโพธิ์ ทว 2349                     88469493            93212354                                04881100CCSH       0000001864300000                                                                             
D000003006057601827911022012115421WANLOP  K.                                        88769995            09216327                                08510239CCSH       0000001111200000                                                                             
D000004006057601827911022012120504ด.ต.หญิงสุภรณ์ บัวงาม ทว 8628                     88879881            86218352                                05700496CCSH       0000001356900000                                                                             
D000005006057601827911022012121044สมชาย  ฟินยะเพียน                                 88759196            06217366                                01520569CCSH       0000001327900000                                                                             
D000006006057601827911022012124143นางสาว ณัฐธิชา ทาระเวท                            8856-9597           4621-1366                               10061102CCSH       0000001070000000                                                                             
D000007006057601827911022012124221นางสาว ณัฐธิชา ทาระเวท                            88469597            76211367                                10061102CCSH       0000000911800000                                                                             
D000008006057601827911022012124300นางสาว ณัฐธิชา ทาระเวท                            88569597            46211366                                10061102CCSH       0000001861800000                                                                             
D000009006057601827911022012125912น.ส.วชิราภรณ์ นุชสุข                              88969591            04214362                                09621089CCSH       0000002008300000                                                                             
D000010006057601827911022012134816คุณสมาน คนหลวง                                    88379192            89217350                                11040809CCSH       0000001884200000                                                                             
D000011006057601827911022012135625นาง คำพันธ์ จันทร์ผลงาม ทศ7539                    88759297            95217363                                10070203CCSH       0000002200500000                                                                             
D000012006057601827911022012142017ณรงค์ ภู่กรุต  ทศ8418                             88359395            84218361                                07960121CCSH       0000002632000000                                                                             
D000013006057601827911022012151503อรัญ ขาวเนตร                                      88869293            96213313                                09761108CCSH       0000001489000000                                                                             
D000014006057601827911022012162051นายสมเกียรติ สีธงชัยรุ่งโรจน์ ทย2945              8827-8197           5921-2324                               07931067CCSH       0000001253100000                                                                             
D000015006057601827911022012162233นายสมเกียรติ สีธงชัยรุ่งโรจน์ ทร7074              88536999            107145289                               07931067CCSH       0000001273300000                                                                             
D000016006057601827911022012162457นายรังสันติ เวียงนนท์ ทล5124                      8888-9795           4121-5342                               10150884CCSH       0000001693200000                                                                             
D000017006057601827911022012163511นาย องอาจ  มหิทธิโรจน์   ทว 6613                  88979784            36216351                                04950047CCSH       0000001194400000                                                                             
D000018006057601827911022012163644นาย องอาจ  มหิทธิโรจน์                            88879784            46216351                                04950047CCSH       0000001194400000                                                                             
D000019006057601827911022012163808นาย องอาจ  มหิทธิโรจน์                            88409982            07212332                                04950047CCSH       0000000295500000                                                                             
D000020006057601827911022012164715ด.ต.สุวนัย เสาศิริ ทศ 2860                        88869195            08212366                                04780158CCSH       0000001702700000                                                                             
D000021006057601827911022012164830ด.ต.สุวนัย เสาศิริ ทศ 2867                        88769195            78212366                                04780158CCSH       0000001888500000                                                                             
D000022006057601827911022012170906นาย อนุสรณ์ วารีน้อย                              8836-9797           1921-3336                               10061102CCSH       0000001649600000                                                                             
D000023006057601827911022012173359ณรงค์ พรหมอ่อน                                    88868797            31215313                                07621764CCSH       0000000841800000                                                                             
D000024006057601827911022012174802นางสาววิไลรัตน์ บุญเผือก ทล 7670                  88789981            06217347                                10071091CCSH       0000001000000000                                                                             
D000025006057601827911022012180518นายกันภัย จิตราวัฒน์ มจ9229                       88519399            107146492                               10254482CCSH       0000000806800000                                                                             
D000026006057601827911022012182706นายอนุชา สอนเสนา                                  8898-9983           0621-5343                               07650724CCSH       0000001567200000                                                                             
D000027006057601827911022012183720นาย อุเทน  เพชร์ทอง ทศ 754                        8887-8197           4721-0365                               10990991CCSH       0000001884200000                                                                             
D000028006057601827911022012185539นายประยูร  วิเศษนอก  ทศ4508                       88069491            85214360                                11520515CCSH       0000001833400000                                                                             
T000029006057601827900000000000000000000000039796000000027                                                                                                                                                                                                      
