H0000010060576018279บริษัท ไทเอซ สิสซิ่ง จำกัด              18122011TALHO                                                                                                                                                                                       
D000002006057601827918122011120349นายบุญช่วย จิตตั้ง ทศ702                          88978397            27210360                                04780201CCSH       0000001959800000                                                                             
D000003006057601827918122011122825นางสาววิยะดา ยิ่งยงค์                             88978197            07210365                                11520403CCSH       0000001884200000                                                                             
D000004006057601827918122011122902นายอุเทน เพชร์ทอง                                 88878197            47210365                                11520403CCSH       0000001884200000                                                                             
D000005006057601827918122011122951นางสาววิยะดา ยิ่งยงค์                             88078397            27210364                                11520403CCSH       0000001884200000                                                                             
D000006006057601827918122011124048นาง หนูกร คงศิริ   ทศ2130                         88769896                                                    10073833CCSH       0000002052200000                                                                             
D000007006057601827918122011124157นางวินาพร ทองคลองไทร                              88079894            63216353                                11520403CCSH       0000001751500000                                                                             
D000008006057601827918122011130103นางนงนุช  ซอวลี    ทว607                          88588797            76210350            084-6466119         08690033CCSH       0000001739000000                                                                             
D000009006057601827918122011140858เนตรนภา                                           88788989            87219344                                11061061CCSH       0000001700000000                                                                             
D000010006057601827918122011160302นางสิริกร   ศรีกิ้ม                               88359394            70219334                                05756198CCSH       0000000727600000                                                                             
D000011006057601827918122011162158พ.ต.ท.จิตติณัติ รักชาติ ทศ6565                    8856-8298           5521-6366                               04781103CCSH       0000002248300000                                                                             
D000012006057601827918122011162705นายชาญชัย แซ่ปัง                                  88069095            70213368            ทศ3087              05750020CCSH       0000002000000000                                                                             
D000013006057601827918122011162813นายชาญชัย แซ่ปัง                                  88547889            104116003           ทศ9393              05750020CCSH       0000002000000000                                                                             
D000014006057601827918122011163102นายชาญชัย แซ่ปัง                                  88959096            00218368            ทศ8080              05750020CCSH       0000003812300000                                                                             
D000015006057601827918122011164840นางบุญมี สิงห์ป้อง                                88679094            54216357            ทว6475              10253620CCSH       0000001020000000                                                                             
D000016006057601827918122011174527นายวิโรจน์ แก่นจันทร์                             88869493            19316062                                10060150CCSH       0000001062400000                                                                             
D000017006057601827918122011190127นายณัฏฐพล พูลสวัสดิ์                              88269291            76214366            0860954343          11620045CCSH       0000001925000000                                                                             
D000018006057601827918122011192139คุณเครือวัลย์  มุสิกะนันทน์                       8847-9688           2321-4358                               04930494CCSH       0000001739400000                                                                             
T000019006057601827900000000000000000000000031390100000017                                                                                                                                                                                                      
