H0000010060576018279บริษัท ไทเอซ สิสซิ่ง จำกัด              17022012TALHO                                                                                                                                                                                       
D000002006057601827917022012085533นางวาสนา สันติสุขสถาพร                            88459396            47219313                                02600066CCSH       0000001240000000                                                                             
D000003006057601827917022012093640น.ส.ศิริกานดา  ทานุรัตน์                          8876-9893           2321-3364                               11470668CCSH       0000001799200000                                                                             
D000004006057601827917022012095057นางนงนุช  ซอวลี  ทว 607                           88588797            76210350            084-6466119         08690033CCLQ876031500000003600000250329                                                                         
D000005006057601827917022012095227นาย วสันต์ สุวรรณรังษี                            88689682            90217348                                01200200CCSH       0000001561200000                                                                             
D000006006057601827917022012100656นาย ฉัตรชัย งานไว                                 88574497            107028810                               03990096CCSH       0000001392000000                                                                             
D000007006057601827917022012101329สุชาดา ไทยแท้                                     88512099            106202782                               04710657CCSH       0000000030000000                                                                             
D000008006057601827917022012101927พ.อ.อ สมชาย ชมนาค  ทย 4421                        8808-9995           1421-4322                               11311671CCSH       0000001564300000                                                                             
D000009006057601827917022012102118นางสาวสุกัญญา จันทร์แจ้ง                          88359986            50213328                                03870798CCSH       0000000506000000                                                                             
D000010006057601827917022012102539นาง ชลพรรณ แก้วสามสี ทว7583                       8817-9792           3521-7358                               01200200CCSH       0000001884200000                                                                             
D000011006057601827917022012103139นายวรโชติ คำเรืองฤทธิ์                            88379892            31315073                                07690544CCSH       0000001885000000                                                                             
D000012006057601827917022012103546นายกำพล นวปฎลชัยเขต ทล6874                        8878-9891           4821-6347                               00820726CCSH       0000001815900000                                                                             
D000013006057601827917022012103629น.ส.พิมพ์ชนก แซ่ตั้ง ทร496                        88479493            64210339                                01770677CCSH       0000000842800000                                                                             
D000014006057601827917022012103636นายสุวัฒน์ มีพลอย มจ6020                          88500399            107122515           0841204147          01390557CCSH       0000000929500000                                                                             
D000015006057601827917022012105124นายสมเกียรติ  สีธงชัยรุ่งโรจน์                    8826-9797           0721-4289                               07930498CCSH       0000001159200000                                                                             
D000016006057601827917022012105217นายสมเกียรติ  สีธงชัยรุ่งโรจน์                    8846-9598           3921-4317                               07930498CCSH       0000001212700000                                                                             
D000017006057601827917022012105856นางสาวเกษศิรินทร์ ดวงอุปปะ ทย 5400                88969296            04215320                                10361034CCSH       0000000829300000                                                                             
D000018006057601827917022012112357นายศักดิ์คร พวงพิลา                               88778998            30316073                                01300510CCSH       0000001884200000                                                                             
D000019006057601827917022012112641นางรำพึง แดงเกาะโพธิ์                             88169096            9212360                                 04880760CCSH       0000001228700000                                                                             
D000020006057601827917022012113815นาย วินัย ลมสูงเนิน ทว 2512                       8878-8097           2521-2351                               05700767CCSH       0000001432800000                                                                             
D000021006057601827917022012115754นายเพชร เกาะแก้ว ทล2493                           88522399            107157654                               00913543CCSH       0000001891300000                                                                             
D000022006057601827917022012120131นายพงษ์ศักดิ์ บุญมา ทศ 1874                       88969197            48211367                                11312191CCSH       0000000843300000                                                                             
D000023006057601827917022012120931นายประยุทธ อยู่ยงค์ ทล9445                        88688799            54219344                                04780201CCSH       0000001700000000                                                                             
D000024006057601827917022012121842วิชัย  วิเศษ                                      88499881            72211347                                02500872CCSH       0000000385500000                                                                             
D000025006057601827917022012124851วิเชียร แซ่ลิ้ม                                   88459394            37213345                                00281171CCSH       0000001145000000                                                                             
D000026006057601827917022012125049นายสุชาติ วิเศษชิต                                88859596            81212329                                06960126CCSH       0000001052200000                                                                             
D000027006057601827917022012131121นายอนุสรณ์ วารีน้อย                               88278598            14215324                                07990501CCSH       0000001484700000                                                                             
D000028006057601827917022012134613นายธีระเนตร ศุภศฤงคาร                             88189298            99213345                                05711217CCSH       0000003410500000                                                                             
D000029006057601827917022012135557นายสุริยา บุรีรัตน์                               88869590            62213339                                10270271CCSH       0000000847800000                                                                             
D000030006057601827917022012135601ประเสริฐ บุญเพ็ง                                  8825-9894           6721-8362                               00530863CCSH       0000001965100000                                                                             
D000031006057601827917022012135801นาาย อำนวย บัวงาม  ทษ 311                         88514899            104119566                               00600151CCSH       0000002100000000                                                                             
D000032006057601827917022012135802นาย มานัส  มุงบัง                                 88521699            099246185                               00640201CCSH       0000000535000000                                                                             
D000033006057601827917022012140816นายนันทวี  สุนา                                   8847-9794           5731-4075                               01897527CCSH       0000001884200000                                                                             
D000034006057601827917022012141712นายบุญฐิน ถนอมเมฆ                                 88278099            11316072                                11371371CCSH       0000001799200000                                                                             
D000035006057601827917022012141912นางสาวศิรินทร์ทิพย์ สลุงอยู่ ทศ 7643              88959896            36217364                                04580699CCSH       0000001519900000                                                                             
D000036006057601827917022012142419นายประพจน์ พิลาดี                                 88504999            104123374                               08770801CCSH       0000001994700000                                                                             
D000037006057601827917022012144014ศิริดา  บุราณคุณ                                  88089094            94215348                                04934931CCSH       0000001904300000                                                                             
D000038006057601827917022012144532เมตตา  ตะคุณนะ                                    88379687            04214355                                06221673CCSH       0000001976000000                                                                             
D000039006057601827917022012150928นส.ชญาณัฐ ยอดรัก                                  88969291            19211366                                01480363CCSH       0000002764200000                                                                             
D000040006057601827917022012151932คุณสำราญ ไทรกลมเกลียว ทร 3051                     88369693            10213335                                08550650CCSH       0000000989800000                                                                             
D000041006057601827917022012153206นายธันวา ณะธรรม                                   88760099            107137557           ทร 5231             07547541CCSH       0000001349800000                                                                             
D000042006057601827917022012155835ถิรณะ                                             8846-9295           1021-1326                               06991739CCSH       0000001260000000                                                                             
D000043006057601827917022012162019นางสาว วณิชชา จำนงนิตย์ ทม5651                    88507399            107073444                               10070203CCSH       0000001050000000                                                                             
D000044006057601827917022012164047นางคนึงนิตย์ ตะคุณนะ ทว4443                       8847-9687           3421-4354                               05670390CCSH       0000002223000000                                                                             
D000045006057601827917022012171823คุณประพันธ์ยุทธ์ ชัยศรี                           88388797            87211359                                11040809CCSH       0000001977000000                                                                             
D000046006057601827917022012175926น.ส.ภาวินี อุตศาสตร ทร 520                        88509399            107122647                               11861097CCSH       0000000450000000                                                                             
D000047006057601827917022012182547นายประยูร  วิเศษนอก ทว 7757                       8876-9190           7721-7355                               11521628CCSH       0000001935000000                                                                             
D000048006057601827917022012182634นาย ณัฎฐพล พูลสวัสดิ์ ทศ4667                      8826-9291           7621-4366                               07540596CCSH       0000001931500000                                                                             
D000049006057601827917022012182959นายพิทักษ์ วรรณไทย                                0198187999098       107075837                               04810155CCSH       0000000770000000                                                                             
D000050006057601827917022012183045นายสุวิทย์ กองทน ทร5878                           88578898            88215337                                08691092CCSH       0000001471500000                                                                             
D000051006057601827917022012183937นางสาว นันทา  สมทรัพย์                            88679884            15216358                                11520169CCSH       0000001835000000                                                                             
D000052006057601827917022012190100ร.ท.จักรกฤษณ์  เพียรพิจิตร                        88379697            97219369            ค่าภาษี+มิเตอร์     11520169CCSH       0000001275500000                                                                             
D000053006057601827917022012190241ร.ท.จักรกฤษณ์  เพียรพิจิตร                        88989891            99219356                                11520169CCSH       0000001800000000                                                                             
D000054006057601827917022012190349ร.ท.จักรกฤษณ์  เพียรพิจิตร                        88779998            91219369                                11520169CCSH       0000001770000000                                                                             
T000055006057601827900000000000000000000000076848000000053                                                                                                                                                                                                      
