H0000010060576018279บริษัท ไทเอซ สิสซิ่ง จำกัด              30012012TALHO                                                                                                                                                                                       
D000002006057601827930012012083611เบญจมาศ มูลลาด                                    88519299            104122436                               01890216CCSH       0000002080000000                                                                             
D000003006057601827930012012084246นายนปดล  สุขกำเนิด ทย3053                         88868799            30213325                                00820726CCSH       0000001481300000                                                                             
D000004006057601827930012012091231นายโกศล เกิดศรี                                   88459795            53218365            ทศ8355              02544341CCSH       0000001798500000                                                                             
D000005006057601827930012012092254นายสมศักดิ์ ลีประโคน                              88069190            61215367                                03990096CCSH       0000001932800000                                                                             
D000006006057601827930012012093427นายสุวรรณ ชัยชนะ                                  88513499            104121190           ทษ 472              04712940CCSH       0000000265300000                                                                             
D000007006057601827930012012093739นายสุชาติ วิเศษชิต                                8885-9596           8121-2329                               06960116CCSH       0000000167000000                                                                             
D000008006057601827930012012094004นายคณินทร์ นึ่งพุดซา มง5039                       88572298            107029741                               02250511CCSH       0000000030000000                                                                             
D000009006057601827930012012095427นายเฉลา ศรีนาค มจ2581                             88669594            15312068                                01834789CCSH       0000000730600000                                                                             
D000010006057601827930012012100217จันทิมา                                           8879895             92213341                                00701885CCSH       0000002321200000                                                                             
D000011006057601827930012012101001นางสุปราณี แก้วคำ                                 88510889            107133972                               07601301CCSH       0000001050000000                                                                             
D000012006057601827930012012101120นางสุปราณี แก้วคำ                                 88511889            107147061                               07601301CCSH       0000001050000000                                                                             
D000013006057601827930012012103251นายสมเกียรติ บุญปาน                               88459698            33213366                                06230872CCSH       0000001372800000                                                                             
D000014006057601827930012012103924นายรักคิด จันทร์สุวรรณ มฉ3518                     88588198            85313071                                00190024CCSH       0000001884200000                                                                             
D000015006057601827930012012104904ศักดิ์ชัย นิยมนา 0819287458                       88069792            54427020                                11474993CCSH       0000000350000000                                                                             
D000016006057601827930012012105348ด.ต.สายชล กฤษวงษ์ ทศ53                            88678598            30210365                                01936586CCSH       0000001884200000                                                                             
D000017006057601827930012012110734คุณสมัย สีหะวงษ์                                  8808-9880           7931-2074                               11040809CCSH       0000001484700000                                                                             
D000018006057601827930012012110939นางสาววิยะดา ยิ่งยงค์                             88669693            35213360                                11520403CCSH       0000001799200000                                                                             
D000019006057601827930012012111742ขวัญหทัย ดีใจ ทย276                               8816-9393           6221-0327                               05671599CCSH       0000000663500000                                                                             
D000020006057601827930012012114405ประสิทธิ์ นาดอนดู่                                88585798            107159980                               11510113CCSH       0000001043300000                                                                             
D000021006057601827930012012114430นาย ชัยวัฒย์ ชุ่มเย็น                             88501599            106203136                               09741083CCSH       0000002011700000                                                                             
D000022006057601827930012012114458น.ส.ณัฐธิชา ทาระเวท                               88469597            76211367                                03833635CCSH       0000001861800000                                                                             
D000023006057601827930012012115544วิมล สุขจาด                                       88259298            58319071                                00338952CCSH       0000000578900000                                                                             
D000024006057601827930012012115839สุพรรณี แสนทวีสุข                                 88576598            106111376                               04670151CCSH       0000001773100000                                                                             
D000025006057601827930012012120309ธเนส ตราชูกุล                                     88506989            104123341                               01630133CCSH       0000001922300000                                                                             
D000026006057601827930012012120424นายสมบัติ ชื่อสม                                  88569887            63217318                                04631122CCSH       0000001170000000                                                                             
D000027006057601827930012012120626นายวิภพ ฉิวกระโทก ทว9175                          88778099            51219357                                00830255CCSH       0000001420000000                                                                             
D000028006057601827930012012121610นายมนัส ใจกระสินธ์ ทว 865                         88288898            58210356                                11312191CCSH       0000001432800000                                                                             
D000029006057601827930012012123052เวชยันต์ พรธิอั้ว ทว454                           88157697            44210355                                10270539CCSH       0000001884200000                                                                             
D000030006057601827930012012124105นายสรรเสริญ สีธงชัยรุ่งโรจน์ ทร5034               88368498            40215333                                07930727CCSH       0000001051000000                                                                             
D000031006057601827930012012124205นายสมเกียรติ สีธงชัยรุ่งโรจน์ ทศ2343              88469792            33212364                                07930727CCSH       0000001132000000                                                                             
D000032006057601827930012012124248นายสรรเสริญ สีธงชัยรุ่งโรจน์ทย6241                88535299            107108516                               07930727CCSH       0000001132000000                                                                             
D000033006057601827930012012124922นายวิทยา  แซ่จึง ทศ 7322                          8885-9597           2321-7362                               00650326CCSH       0000001566000000                                                                             
D000034006057601827930012012125022นายกฤษฎา แก้วพารา ทศ8205                          8875-9986           5221-8360                               00700707CCSH       0000002366900000                                                                             
D000035006057601827930012012125139นายพรประสิทธิ์ บัวเพชร                            88788399            15219349                                06930091CCSH       0000001884200000                                                                             
D000036006057601827930012012130043นายพิกิจ ภูมิภาค ทส 2834                          88269895            48212363                                02530554CCSH       0000002082100000                                                                             
D000037006057601827930012012130907นางประทวน เขียวแล ทศ4012                          88869692            20214361                                10371561CCSH       0000001897500000                                                                             
D000038006057601827930012012131412คุณเสกสันติ พุทธางกูรวงศ์                         8898-9396           7821-4349                               01210241CCSH       0000001398700000                                                                             
D000039006057601827930012012131540นางแสงเดือน เพ็ชรนิล                              88592598            106112505                               02705864CCSH       0000001551300000                                                                             
D000040006057601827930012012131748นายบัวลา ทองขาว                                   88059595            65216346            ทล 6566             01210586CCSH       0000002423400000                                                                             
D000041006057601827930012012131853สมบัติ  พลเยี่ยม                                  88593598            107158997                               01410494CCSH       0000000096000000                                                                             
D000042006057601827930012012132001ส.อ. ทิมากร จันทร์หง่อม ทว 4808                   8847-9696           8821-4350                               00220792CCSH       0000001928000000                                                                             
D000043006057601827930012012133342นางนัทธดา สุขประเสริฐ  มฉ 2103                    88089193            31312070                                10071091CCSH       0000001420000000                                                                             
D000044006057601827930012012133621นายเสถียร คุณปรึกษา                               8828-9290           2621-2339                               01370906CCSH       0000000064300000                                                                             
D000045006057601827930012012133820นาง นิธิกานต์  วัฒนถนอม  ทศ7388                   88359897            83217368                                10810405CCSH       0000003750000000                                                                             
D000046006057601827930012012134023นางสาว พวงเพ็ญ ศิริพละ  ทว 3142                   88679398            21213354                                04581882CCSH       0000001241200000                                                                             
D000047006057601827930012012134123นางสาว พวงเพ็ญ ศิริพละ  ทว 3143                   88579398            31213354                                04581882CCSH       0000001241200000                                                                             
D000048006057601827930012012134240นางสาว พวงเพ็ญ ศิริพละ  ทว 3144                   88479398            41213354                                04581882CCSH       0000001392200000                                                                             
D000049006057601827930012012135021คุณสาธิต ทองอร่ามเรือง                            88518989            107161814                               01480560CCSH       0000001449000000                                                                             
D000050006057601827930012012140525นายทีระชาติ ภิญโญ                                 88068499            73214364                                01970387CCSH       0000001748600000                                                                             
D000051006057601827930012012143524นายสุรศักดิ์ อินทศร ทว9592                        88678399            25219359                                08691092CCSH       0000002172000000                                                                             
D000052006057601827930012012144606นางถนอมวงศ์  บุญลา                                88575798            107155994                               04920231COTH       0000001530000000                                                                             
D000053006057601827930012012145556นายเขษม คุ้มประยูร                                8858-9594           0221-5346                               02090350CCSH       0000001702200000                                                                             
D000054006057601827930012012151423นายสมบูรณ์  ศรีอ่อนจันทร์                         88559194            58315058                                05760270CCSH       0000000995100000                                                                             
D000055006057601827930012012151636นายมนต์ชัย สุรเกียรติกำจร                         88591898            106203909                               02590600CCSH       0000002248400000                                                                             
D000056006057601827930012012153015นายองอาจ มหิทธิโรจน์ ทล6463                       88589692            34216346                                02150700CCSH       0000001004800000                                                                             
D000057006057601827930012012153138นายองอาจ มหิทธิโรจน์ ทล6441                       88689692            14216344                                02150700CCSH       0000001004800000                                                                             
D000058006057601827930012012153211นายจิระเดช ราหูรักษ์                              88969790            77214360                                01480560CCSH       0000001890800000                                                                             
D000059006057601827930012012153716นายปรีชา ธารีไทย ทว4206                           88979197            62214350                                10150069CCSH       0000000733300000                                                                             
D000060006057601827930012012153816นายปรีชา ธารีไทย ทว4206                           88979197            62214350                                10150069CCSH       0000001756700000                                                                             
D000061006057601827930012012153859นาย เพทาย  ขันทนาลัย ทร 4714                      88078598            47214331                                10250225CCSH       0000001376000000                                                                             
D000062006057601827930012012154030นายพรเทพ สบาย ทล7160                              88167997            01217346                                04950176CCSH       0000001707000000                                                                             
D000063006057601827930012012155119นายมงคล คุณาประทุม                                88979192            09217351                                07582915CCSH       0000001908400000                                                                             
D000064006057601827930012012155229นายวิรัตน์ วาณิชพิเชียร  ทว 6536                  8847-9094           6521-6353                               11830402CCSH       0000001980000000                                                                             
D000065006057601827930012012155707ด.ต.เสิม หยุ่นแก้ว                                88859496            88217361                                01971063CCSH       0000001822300000                                                                             
D000066006057601827930012012162053ด.ต.ภัคพงศ์ พลมีศักดิ์                            8836-9496           9421-2361                               07953686CCSH       0000001650000000                                                                             
D000067006057601827930012012162543นายสิทธิกิตติ์ วรมาลี มฉ 1733                     88514699            106105508                               04670492CCSH       0000001205200000                                                                             
D000068006057601827930012012162907นางชุติมา ธรรพสิทธิ์                              88279998            08212354                                07540596CCSH       0000001799200000                                                                             
D000069006057601827930012012163832คุณภัชกุล ลาภบริสุทธิ์                            88399791            58210340                                07627621CCSH       0000000235500000                                                                             
D000070006057601827930012012170934นายสำเร็จ บุตรปราบ                                88541099            104115288                               07961036CCSH       0000001656600000                                                                             
D000071006057601827930012012171114นายสำเร็จ บุตรปราบ                                88659897            22217368                                07961036CCSH       0000002487400000                                                                             
D000072006057601827930012012171238นายสำเร็จ บุตรปราบ                                88169395            28212367                                07961036CCSH       0000001467100000                                                                             
D000073006057601827930012012171358นายสำเร็จ บุตรปราบ                                88689493            36215345                                07961036CCSH       0000001467100000                                                                             
D000074006057601827930012012171444นายพิเชษฐ์ ศรีหาประทุม                            88269997            94211369                                11864479CCSH       0000000315500000                                                                             
D000075006057601827930012012171514นายสำเร็จ บุตรปราบ                                88179691            84218359                                07961036CCSH       0000002048700000                                                                             
D000076006057601827930012012171957นางมาลาศรี    ทองชา                               88669194            10211322                                04932825CCSH       0000000098500000                                                                             
D000077006057601827930012012183005นายประยูร โพธิ์บริสุทธิ์                          88479587            09212311            ทม2910              04930093CCSH       0000001717300000                                                                             
T000078006057601827900000000000000000000000110238900000076                                                                                                                                                                                                      
