H0000010060576018279บริษัท ไทเอซ สิสซิ่ง จำกัด              25022012TALHO                                                                                                                                                                                       
D000002006057601827925022012111535นายวิทสุวัฒน์ โสวิบูรณ์ ทศ 698                    88969792            86210369                                08450531CCSH       0000001929300000                                                                             
D000003006057601827925022012113211คุณสมชาย จูทะจันทร์                               88189894            62215340                                04831051CCSH       0000001650000000                                                                             
D000004006057601827925022012114455นายบัญชา พิษวงษ์                                  88479697            12214350                                10590117CCSH       0000001750000000                                                                             
D000005006057601827925022012115417นางศิริดา  บุราณคุณ                               88578397            76210369                                04934931CCSH       0000001850000000                                                                             
D000006006057601827925022012120727นายคมสัน  ศรีวะรมย์ ทล6359                        8888-9492           9321-6345                               07620776CCSH       0000001793900000                                                                             
D000007006057601827925022012122542นางละไม  ใจเพ็ชร  ทย 444                          0198187993598       107092475                               09760540CCSH       0000000810100000                                                                             
D000008006057601827925022012125737นายอำพล ชื่นแย้ม                                  8896-8898           8031-9073                               10661140CCSH       0000000647300000                                                                             
D000009006057601827925022012132600นายประชุม หลังทอง                                 88479196            00215358                                08698691CCSH       0000001920800000                                                                             
D000010006057601827925022012133246ธมน  จันทะเหล็ก                                   88669897            64211367                                02500872CCSH       0000001884200000                                                                             
D000011006057601827925022012142414น.ส.ณัฐธิชา ทาระเวท                               8856-7697           4121-6357                               10060150CCSH       0000002433000000                                                                             
D000012006057601827925022012143225นาง จุไรรัตน์  สุทธิเวช ทล4677                    8808-9197           7621-4347                               04880528CCSH       0000000710500000                                                                             
D000013006057601827925022012143333นาง จุไรรัตน์  สุทธิเวช ทล4577                    8848-9097           7521-4347                               04880528CCSH       0000000330500000                                                                             
D000014006057601827925022012143437นาง จุไรรัตน์  สุทธิเวช ทล4789                    88189996            97214348                                04880528CCSH       0000000781500000                                                                             
D000015006057601827925022012145637นายภักดี ถาวรวัฒนะ มจ524                          88669697            45310062                                09740222CCSH       0000001578600000                                                                             
D000016006057601827925022012152951นายอนุสรณ์ วารีน้อย ทม 5583                       8827-8399           3521-5318                               10060150CCSH       0000000060000000                                                                             
D000017006057601827925022012155725นาย ประทุม สุขลาภ ทย4843                          8806-9390           3821-4324                               10010576CCSH       0000000995100000                                                                             
D000018006057601827925022012160442นาง วิภา ดำขำ                                     8877-9597           5921-3353                               04780536CCSH       0000002187300000                                                                             
D000019006057601827925022012160612นางวิภา ดำขำ                                      8887-9597           4921-3353                               04780536CCSH       0000002187300000                                                                             
D000020006057601827925022012161403นายชัชวาล แสงอาวุธ                                88559595            63218365                                10720567CCSH       0000001918100000                                                                             
D000021006057601827925022012161504นาง ภัสรา เรศสุข                                  8876-9693           2421-3369                               10720567CCSH       0000001833500000                                                                             
D000022006057601827925022012162810นายอุดม  คงนอง                                    88988589            34210357                                04770321CCSH       0000001432800000                                                                             
D000023006057601827925022012162842นางสาว วรรณวิการ์ ศิริเจริญ                       88889598            87213342            ทล3728              04881144CCSH       0000001840000000                                                                             
D000024006057601827925022012165316นายสหรัถ  ส่งเสียงหล้า                            8888-8698           8821-0350                               11520515CCSH       0000001960000000                                                                             
D000025006057601827925022012171439นายเชี่ยว  ไหมดำ  มจ 3043                         88769498            30313064                                05701141CCSH       0000001382100000                                                                             
D000026006057601827925022012172327นายวรพงศ์ พูลพิพิธ                                88189591            73211311            ทม1317              10253620CCSH       0000001180000000                                                                             
D000027006057601827925022012175313จ.ส.ต. ยุทธภูมิ รัตนบัติ                          88369196            75210331            ทร517               10050760CCSH       0000001105700000                                                                             
T000028006057601827900000000000000000000000038151600000026                                                                                                                                                                                                      
