H0000010060576018279บริษัท ไทเอซ สิสซิ่ง จำกัด              14102011TALHO                                                                                                                                                                                       
D000002006057601827914102011085912นายนรชัย  แพงศร  ทร 5912                          88512299            107138252                               09760114CCSH       0000001275100000                                                                             
D000003006057601827914102011090356นายสอาด  แจ่มสกุล                                 88689193            61312074                                05760270CCSH       0000001617900000                                                                             
D000004006057601827914102011091401นางสาว ศิริกานดา ทานุรัตน์   ทศ 3342              88769893            23213364                                02260509CCSH       0000001799200000                                                                             
D000005006057601827914102011093934เฉียบวุฒิ   อ่อนยิ่ง                              8896-9292           0131-8074                               03082284CCSH       0000001432800000                                                                             
D000006006057601827914102011094258นางสาวนัฐณี อินทร์เพ็ญ ทร 2783                    88539099            107129677                               00640030CCSH       0000001644980000                                                                             
D000007006057601827914102011095433ส.อ.วรวุฒิ ศรีไพร                                 88098297            81311078                                11070822CCSH       0000000034300000                                                                             
D000008006057601827914102011100519นาง สมควร ทิพศักดิ์ ทม 6401                       88689898            14216310                                10270592CCSH       0000001394000000                                                                             
D000009006057601827914102011101344นายประชุม หลังทอง                                 8847-9196           0021-5358                               02610551CCSH       0000001920800000                                                                             
D000010006057601827914102011101453นาย วินัย ผลดี                                    88279784            38216355            ทว 6853             10250256CCSH       0000001951000000                                                                             
D000011006057601827914102011104324นางสุรินทร์ ฉาบไธสง ทศ8582                        8855-9295           2521-8368                               02610535CCSH       0000001874100000                                                                             
D000012006057601827914102011111541นางสาวประสงค์ เที่ยงสันเทียะ                      88559898            06214313                                10810244CCSH       0000000560000000                                                                             
D000013006057601827914102011113341นายสอน นามเหลา                                    88369795            33213350                                02610862CCSH       0000001918500000                                                                             
D000014006057601827914102011113608นายสุริเยศ โรจน์สุธี มฉ8064                       8846-9392           4031-8076                               04581830CCSH       0000000622200000                                                                             
D000015006057601827914102011114956เสกสรรค์ กลิ่นรอด ทว 6617                         8847-9984           7621-6351                               01990942CCSH       0000001515300000                                                                             
D000016006057601827914102011121208นาง จิรดี เบ็ญจวรรณ                               88078399            44219353            ทว9434              10250256CCSH       0000001700000000                                                                             
D000017006057601827914102011121214นายประกาศ  หลุมทอง                                8897-9394           9621-0315                               06920406CCSH       0000000868800000                                                                             
D000018006057601827914102011122343นาย เพชร  เกาะแก้ว                                88522399            107157654                               00910199CCSH       0000001819000000                                                                             
D000019006057601827914102011122626นายกมลาสน์ ละไมกิจ                                88507599            107083985                               11250200CCSH       0000000944800000                                                                             
D000020006057601827914102011123553จักรกริช รอดทอง                                   88489987            37214344                                01890216CCSH       0000001665500000                                                                             
D000021006057601827914102011124307พงษ์ศักดิ์  บริบูรณ์                              8857-9495           2921-5354                               08690542CCSH       0000001987300000                                                                             
D000022006057601827914102011124411พงษ์ศักดิ์  บริบูรณ์                              8886-9291           8821-7343                               08690542CCSH       0000001970000000                                                                             
D000023006057601827914102011124457นุชนารถ  แจ่มศุภพันธ์                             8826-9097           6121-2361                               08690542CCSH       0000001987300000                                                                             
D000024006057601827914102011125236นายคงฤทธิ์ ผดาวัลย์                               88899290            36211348            ทล1683              03970649CCSH       0000001665500000                                                                             
D000025006057601827914102011125731นางรำพึง แดงเกาะโพธิ์ ทว2349                      8846-9493           9321-2354                               01951137CCSH       0000001864300000                                                                             
D000026006057601827914102011130953นายเอกสิทธิ์ ศรีตองอ่อน                           8858-8689           7521-0359                               00170444CCLQ540191600000019187000150137                                                                         
D000027006057601827914102011131526นางสาว ศิรินทร์ทิพย์ สลุงอยู่  ทศ 7643            88959896            36217364                                04581882CCSH       0000001519900000                                                                             
D000028006057601827914102011131944นายอนันต์  สิงห์น้อย                              88569498            112111364                               07961036CCSH       0000001918440000                                                                             
D000029006057601827914102011132348นายอุเทน  เพชร์ทอง                                88668399            86215360                                11520515CCSH       0000001856500000                                                                             
D000030006057601827914102011133707นายทองสูน เที่ยงแก๊ส ทศ 1974                      88069197            49211367                                04731091CCSH       0000001884200000                                                                             
D000031006057601827914102011134140นายสุนทร  บุญเกิด                                 88069292            85217357                                03965684CCSH       0000001800000000                                                                             
D000032006057601827914102011134253นายสุนทร  บุญเกิด                                 88503599            107075019                               03965684CCSH       0000001159200000                                                                             
D000033006057601827914102011134408นายสุนทร บุญเกิด                                  88504599            107107351                               03965684CCSH       0000001159200000                                                                             
D000034006057601827914102011135939นางสุรินทร์ ฉาบไธสง                               88559295            25218368                                02610862CCSH       0000000030000000                                                                             
D000035006057601827914102011140127นาย วินัย จันลา ทล6120                            8898-9892           0121-6342                               01780060CCSH       0000001700000000                                                                             
D000036006057601827914102011140128นางประไพวรรณ  หวานเย็น                            8856-7297           9521-8355                               00210675CCSH       0000001775000000                                                                             
D000037006057601827914102011140708ศศิธร  เชาว์โน ทร 5037                            8886-9298           7021-5333                               00397779CCSH       0000001413800000                                                                             
D000038006057601827914102011141938คุณการีม สุขเจริญ                                 88505499            107067531           ทม 4411             10250251CCSH       0000000874000000                                                                             
D000039006057601827914102011142230นาย  ประยูร  สุระภา  ทล 9132                      88789480            21219343                                03970523CCSH       0000001136600000                                                                             
D000040006057601827914102011144528สุรชัย  โทศรี                                     8846-9986           3721-2367                               07098246CCSH       0000001908200000                                                                             
D000041006057601827914102011150550นายบุญสูง  ปัญสา                                  88169794            85213318                                01900549CCSH       0000001140000000                                                                             
D000042006057601827914102011151139นายเชาวฤทธิ์ ปานนวม                               88589291            40218340                                00180718CCSH       0000001784300000                                                                             
D000043006057601827914102011152929อารีวรรณ อิ่มสนธิ์ ทพ 9185                        88279492            51219288                                03990096CCSH       0000000751300000                                                                             
D000044006057601827914102011154155นายสุรเชษฐ์ สินเวช มฉ 4299                        88532499            106137366                               10154881CCSH       0000001622800000                                                                             
D000045006057601827914102011161013นายกิตติพงศ์ กรศุภอานนท์                          88778599            09212329            ทย2990              08510518CCSH       0000001650000000                                                                             
D000046006057601827914102011161134นายกิตติพงศ์ กรศุภอานนท์                          88378599            10211324            ทย1041              08510518CCSH       0000001382100000                                                                             
D000047006057601827914102011162700นายธณานันท์ คุปตะวาทิน                            88288097            67214339                                04671034CCSH       0000001405700000                                                                             
D000048006057601827914102011162835นางสุบิน งามปานแก้ว ทล 4676                       8868-9097           6621-4347                               04780158CCSH       0000001665500000                                                                             
D000049006057601827914102011163533นาย กันภัย จิตราวัฒน์ มจ 9229                     88519399            107146492                               08450154CCSH       0000001206800000                                                                             
D000050006057601827914102011171244นาย วันเฉลิม  เกษตรสินธุ์                         88579694            10217354                                09760540CCSH       0000001863500000                                                                             
D000051006057601827914102011171630นาย วันเฉลิม  เกษตรสินธุ์  ทว 4652                8867-9487           2621-4355                               09760540CCSH       0000001938500000                                                                             
D000052006057601827914102011181017นายพิษณุ ด้วยสาร ทย4415                           88679795            54214321                                08510017CCSH       0000000582100000                                                                             
D000053006057601827914102011181102นาย อรุณ พงษ์ภักดี มง 4180                        8898-9491           0131-4058                               09621104CCSH       0000001183700000                                                                             
D000054006057601827914102011181125นายพิษณุ ด้วยสาร ทย4415                           8867-9795           5421-4321                               08510017CCSH       0000001666800000                                                                             
T000055006057601827900000000000000000000000077929520000053                                                                                                                                                                                                      
