H0000010060576018279บริษัท ไทเอซ สิสซิ่ง จำกัด              12082011TALHO                                                                                                                                                                                       
D000002006057601827912082011110359นาย วชิระ ตรงดี ทล 3955                           88589198            59213345                                07930240CCSH       0000001623900000                                                                             
D000003006057601827912082011115919นางรำพึง แดงเกาะโพธิ์                             88169096            95212360            ทศ2509              04881144CCSH       0000001228700000                                                                             
D000004006057601827912082011123538ด.ต. หญิง สุภรณ์ บัวงาม ทว 8628                   8887-9881           8621-8352                               05700914CCSH       0000001356900000                                                                             
D000005006057601827912082011130213นายชอบ  เสวะมาตย์                                 8839-8299           6321-2348           ทล2386              08690266CCSH       0000001665500000                                                                             
D000006006057601827912082011132216นาง กฤษญา แจ้งเพชร ทศ 3343                        8826-9294           3321-3364                               04780120CCSH       0000001520000000                                                                             
D000007006057601827912082011134017นางเครือวรรณ์ สมนาค                               8897-8198           0221-0362           ทศ 220              08512940CCSH       0000001734300000                                                                             
D000008006057601827912082011140506นางมะลิ  สุดสอาด  ทว 6305                         8827-9994           5321-6350                               08510045CCSH       0000001700000000                                                                             
D000009006057601827912082011143859นายสมพงษ์ ดารักษ์                                 88969391            35210349                                10360725CCSH       0000000709000000                                                                             
D000010006057601827912082011144646นางดารา  ผลจันทร์  ทล 1270                        8826-8798           0221-1347                               08510045CCSH       0000001584200000                                                                             
D000011006057601827912082011150134นาย พิชิตชัย ดวงจรัส ทล885                        88968398            58210348                                10070203CCSH       0000001110500000                                                                             
D000012006057601827912082011150746ชัยโรจน์ เพชรพันธศักดิ์                           8887-9092           5021-8353                               08000990CCSH       0000001799200000                                                                             
D000013006057601827912082011151741นายสำฤทธิ์ แก่นจันทร์                             8825-9595           4531-7062           มจ 7524             08698691CCSH       0000001262700000                                                                             
D000014006057601827912082011154904น.ส. วชิราภรณ์ นุชสุข ทศ 4420                     8896-9591           0421-4362                               09620029CCSH       0000001772800000                                                                             
D000015006057601827912082011160844นายคมสัน จันทร์หอม  ทศ825                         8827-8397           5821-0362                               10320014CCSH       0000001587900000                                                                             
D000016006057601827912082011175958นายสมาน พวงพิลา มฉ9416                            8836-8597           6431-9071                               11370605CCSH       0000002417000000                                                                             
D000017006057601827912082011185139ร.ท.จักรกฤษณ์ เพียรพิจิตร ทล6572                  88069793            25216347                                10360725CCSH       0000001020000000                                                                             
D000018006057601827912082011185314ร.ท.จักรกฤษณ์ เพียรพิจิตร ทว9969                  88989891            99219356                                10360725CCSH       0000000080000000                                                                             
T000019006057601827900000000000000000000000024172600000017                                                                                                                                                                                                      
