H0000010060576018279บริษัท ไทเอซ สิสซิ่ง จำกัด              02102011TALHO                                                                                                                                                                                       
D000002006057601827902102011092735นาย  นรชัย  แพงศร  ทย 7678                        8806-9996           8621-7327                               09760540CCSH       0000001271600000                                                                             
D000003006057601827902102011092908นาย นรชัย  แพงศร  ทษ608                           88511299            104123041                               09760540CCSH       0000001994700000                                                                             
D000004006057601827902102011101815นายปรีชา ธารีไทย ทว4206                           88979197            62214350                                10150069CCSH       0000001756700000                                                                             
D000005006057601827902102011104143นายสังทอง  มูลเมืองแสน ทว5006                     88979587            60215350                                08510045CCSH       0000001501500000                                                                             
D000006006057601827902102011110142นาย แอน หวังผล ทศ 8419                            8865-9495           9421-8361           0895220650          07620610CCSH       0000001502500000                                                                             
D000007006057601827902102011111726นายบุญมา ล้ำทวีภักดี                              88478899            06212322                                05705512CCSH       0000001000000000                                                                             
D000008006057601827902102011111938นายบุญมา ล้ำทวีภักดี                              88578899            10212327                                05705512CCSH       0000001000000000                                                                             
D000009006057601827902102011113758รุจี  นุชูภู่                                     88768699            99219337            086-5196844         08770142CCSH       0000001555600000                                                                             
D000010006057601827902102011115215นางทัศนีย์ ลาภผลเจริญ                             88889280            95217315                                10254482CCSH       0000000410000000                                                                             
D000011006057601827902102011115629นางพรเพ็ญ  แซ่ก๊วย                                88289190            04218344            ทล8440              10720144CCSH       0000001700000000                                                                             
D000012006057601827902102011115816นายวินัย กองเงินนอก มฉ 5023                       88779884            30315072                                07620610CCSH       0000001700000000                                                                             
D000013006057601827902102011120040สมนึก ทศ 3621                                     88669393            16213362                                07960038CCSH       0000001799200000                                                                             
D000014006057601827902102011123048นาย สุทที  อัฒจักร                                8867-9983           5031-5071                               06972020CCSH       0000001745700000                                                                             
D000015006057601827902102011123714นายศักดิ์ชัย นิยมนา ฮข7405                        8806-9792           5442-7020                               04950486CCSH       0000000350000000                                                                             
D000016006057601827902102011131354ภูริพัฒน์ มะโรงศรี                                88968598            00216362                                07950091CCSH       0000001514700000                                                                             
D000017006057601827902102011141832คุณบุญฤทธิ์ ศรีสุยิ่ง                             88879586            04313053            มง 3430             10250251CCSH       0000000858500000                                                                             
D000018006057601827902102011145707ประพนธ์ ละม้ายแข                                  88879498            79212357                                10365296CCSH       0000001784300000                                                                             
D000019006057601827902102011153513โสภา สิงห์ศรี ทล 4900                             8818-9496           0921-4340                               11250232CCSH       0000001700000000                                                                             
D000020006057601827902102011160650นาย ประจบ โตพิทักษ์                               88078398            33217353                                10090081CCSH       0000001979600000                                                                             
D000021006057601827902102011164707นายวรพงศ์ พูลพิพิธ  ทม 4898                       8845-9297           8821-4319                               04880055CCSH       0000000680000000                                                                             
D000022006057601827902102011165845นายเสน่ห์ แย้มสุดใจ ทว6057                        8837-9994           7021-6355                               04950529CCSH       0000001518500000                                                                             
D000023006057601827902102011172432ตะวัน                                             8866-9391           0831-8061           มจ8810              05750020CCSH       0000000502000000                                                                             
D000024006057601827902102011172903นายชัยภัทร ธนิตธนายศ                              88544889            107037094           ทม 2913             11330915CCSH       0000002500000000                                                                             
D000025006057601827902102011172925นางสาว เจนนภา ไทยเจริญ  ทว 6432                   88779294            24216353                                10073833CCSH       0000001890000000                                                                             
D000026006057601827902102011175000สงกรานต์ ดีนาง                                    88989196            18214344                                09761108CCSH       0000001569000000                                                                             
D000027006057601827902102011180810ฐิติยา มีนันทร ทว2410                             8878-8397           0421-2351                               07620899CCSH       0000001884200000                                                                             
D000028006057601827902102011183541นางหวานใจ  โกศัลวิตร                              8866-9993           5121-5339                               10990536CCSH       0000000854000000                                                                             
D000029006057601827902102011195325นางสาวธาริณี แก้วผลึก ทว 5155                     8857-9096           5121-5355                               06900618CCSH       0000001884200000                                                                             
T000030006057601827900000000000000000000000040406500000028                                                                                                                                                                                                      
