H0000010060576018279บริษัท ไทเอซ สิสซิ่ง จำกัด              25012012TALHO                                                                                                                                                                                       
D000002006057601827925012012083828นางพรสวรรค์  เงินนาม                              8846-9196           3521-8321                               04120550CCSH       0000001382100000                                                                             
D000003006057601827925012012085118นายสุกิจ ดาวเรือง                                 88459194            31218331                                01900719CCSH       0000000999000000                                                                             
D000004006057601827925012012085834นันทวี สุนา                                       88479794            57314075                                01890216CCSH       0000001884200000                                                                             
D000005006057601827925012012090427พรรณ์สกุล  พันธ์พรหม                              88288998            66210355                                00981066CCSH       0000001873200000                                                                             
D000006006057601827925012012091744สุทิน เจาะจง ทล8122                               88089690            21218342                                10270539CCSH       0000001595400000                                                                             
D000007006057601827925012012094051นายสัมเดช  เกลี้ยงดี                              88169995            83211334            089-9633314         04600142CCSH       0000001550000000                                                                             
D000008006057601827925012012103325นายมานพ ฉิมพล                                     88779392            79372312            ษม2927              01451246CCSH       0000000439000000                                                                             
D000009006057601827925012012105008นางจุไรรัตน์ สุทธิเวช                             88089197            76214347                                11600073CCLQ982739600000020000000650002                                                                         
D000010006057601827925012012105036สมเกียรติ สีธงชัยรุ่งโรจน์ ทย2867                 88069595            78212326                                01990939CCSH       0000001596700000                                                                             
D000011006057601827925012012105620นายปริญญา ประจญยุทธ มจ 3723                       88536099            107107041                               10320864CCSH       0000001000000000                                                                             
D000012006057601827925012012110008นายสุพล สืบดี ทย4956                              88789397            69214325                                07960037CCSH       0000001734400000                                                                             
D000013006057601827925012012110211สมนึก อยู่ยงค์                                    88688799            54219344                                11255243CCSH       0000001700000000                                                                             
D000014006057601827925012012111059ประดิษฐ์  ไลยการ                                  88759898            07216361            0808085810          04600142CCSH       0000001200300000                                                                             
D000015006057601827925012012111602พลฯศุภมงคล สร้อยสายอุบล ทย3611                    88779888            16213321                                07930727CCSH       0000000953500000                                                                             
D000016006057601827925012012111827นางธมน  จันทะเหล็ก                                88669897            64211367                                02501795CCSH       0000001918500000                                                                             
D000017006057601827925012012115003นิสิต หล่อดี                                      88879592            27213322                                08000990CCSH       0000001451700000                                                                             
D000018006057601827925012012120421วิมล  สุขจาด 087-5896451                          88259298            58319071                                00336605CCSH       0000001890800000                                                                             
D000019006057601827925012012121307จสอ.สุรพล ชุมพละนธ์ มฉ 4059                       88779997            90314075                                04580699CCSH       0000001275500000                                                                             
D000020006057601827925012012121407นางสาว พวงเพ็ญ ศิริพละ ทว 4189                    8817-9297           9121-4358                               04581882CCLQ770344 00000008000000140080                                                                         
D000021006057601827925012012121516นางสาว พวงเพ็ญ ศิริพละ ทว 4189                    8817-9297           9121-4358                               04581882CCSH       0000001316700000                                                                             
D000022006057601827925012012121626นางสาว พวงเพ็ญ ศิริพละ ทว 4158                    8827-9297           8121-4355                               04581882CCSH       0000002116700000                                                                             
D000023006057601827925012012121834นายสุพน หาบัณฑิตย์                                88359694            24216310                                01880134CCSH       0000000400000000                                                                             
D000024006057601827925012012122504นายชัชวาล  แสงอาวุธ                               88059895            73218365                                11810176CCSH       0000001828800000                                                                             
D000025006057601827925012012122740นายรัชตะ มาวงษ์นอก                                88668497            30214331                                03741000CCSH       0000000841800000                                                                             
D000026006057601827925012012122755นายคมสัน  ศรีวะรมย์  ทล6359                       88889492            93216345                                07620776CCSH       0000001791600000                                                                             
D000027006057601827925012012125201นายสมบัติ พลเยี่ยม                                88593598            107158997                               11540516CCSH       0000001671000000                                                                             
D000028006057601827925012012125419นายธันยา  บุญเพิ่ม                                88069998            73211364                                11521628CCSH       0000001124500000                                                                             
D000029006057601827925012012125917นายอุเทน  เพชร์ทอง                                88668399            86215360                                11521628CCSH       0000001856500000                                                                             
D000030006057601827925012012125923นายพัฒนา ชื้นดี ทร 515                            88586798            107121816                               08560792CCSH       0000000869400000                                                                             
D000031006057601827925012012131158นายสวนิช  ชาติเผือก  ทย 2873                      88759984            38212327                                01100063COTH       0000001450200000                                                                             
D000032006057601827925012012133348นาง กิ่งวิวรรณ์ กระแสโสม ทศ 7198                  8835-9997           8121-7369                               02590600CCSH       0000001536100000                                                                             
D000033006057601827925012012133552นายทวี นากนิยม ทว 4315                            88379197            53214351                                01881706CCSH       0000001677100000                                                                             
D000034006057601827925012012134155นายประภาส จันทวิมล ทม 8944                        88098298            49218314                                01771050CCSH       0000001582200000                                                                             
D000035006057601827925012012141342นายอินทรัตน์ อินทปุระ ทย 5447                     88511099            107106318                               09769761CCSH       0000001100000000                                                                             
D000036006057601827925012012141752นางจันหอม  สาคะวัตร                               88259696            77217369                                01900549CCSH       0000001846600000                                                                             
D000037006057601827925012012141819ผาณิต จันทร์เมฆา ทว 637                           88467297            76210353                                09660036CCSH       0000001799200000                                                                             
D000038006057601827925012012143517บรรจง  สุวรรณโคต                                  88879587            77219329                                08690542CCSH       0000000068500000                                                                             
D000039006057601827925012012143959นาย มานิตย์ พลพฤกษ์ ทว746                         8808-8898           6721-0354                               01980212CCSH       0000000715600000                                                                             
D000040006057601827925012012144012นางบุญสุข จงศิริโชค ทว6881                        88467987            18216358                                01211627CCSH       0000001799200000                                                                             
D000041006057601827925012012144417นายศักรินทร์ พุฒิสกุล ทร6470                      88538499            107136653                               01971063CCSH       0000000750000000                                                                             
D000042006057601827925012012145219ร.ท.จักรกฤษณ์ เพียรพิจิตร ทศ9499                  88779698            94213359                                10360570CCSH       0000001720000000                                                                             
D000043006057601827925012012145329ปางทอง ซ.มฉ3803                                   88869986            38313070                                10360281CCSH       0000001010600000                                                                             
D000044006057601827925012012145447ปางทอง ซ.ทศ2657                                   88169986            76212365                                10360281CCSH       0000001884200000                                                                             
D000045006057601827925012012150523นายสมศักดิ์ วังสมอ ทร 3049                        88869391            90213334                                01890658CCSH       0000001495600000                                                                             
D000046006057601827925012012151636นาย สุรัตน์ สังข์เงิน ทล 1367                     88503199            107154503                               01200547CCSH       0000000929500000                                                                             
D000047006057601827925012012152147นายบวร วันเพ็ญ ทว 826                             88288698            68210352                                06921923CCSH       0000001884200000                                                                             
D000048006057601827925012012153513นางกมลวัลย์  เสาะขุนทด                            8827-9795           6721-5354                               02501795CCSH       0000001886200000                                                                             
D000049006057601827925012012153712นาย วรพงศ์  พูลพิพิธ ทม 1317                      8818-9591           7321-1311                               10250225CCSH       0000001180000000                                                                             
D000050006057601827925012012153910นาย พิทยา ผิวผ่อง มฉ3186                          88388499            61313078                                01780060CCSH       0000001700000000                                                                             
D000051006057601827925012012154236นายจำนงค์  นันโท                                  88859194            74319053                                05760270CCSH       0000000982100000                                                                             
D000052006057601827925012012154434นางมาลาศรี ทองชา ทร 2902                          88521499            107130390                               01230059CCSH       0000001273000000                                                                             
D000053006057601827925012012155232นายสมนึก ทัพน้อย ทศ2375                           88269496            53212367                                00560227CCSH       0000003802700000                                                                             
D000054006057601827925012012160751นายอดิศร  ซอและ ทม 7626                           88869292            66217312                                05690088CCSH       0000001420000000                                                                             
D000055006057601827925012012161024นางสาวปวีณา บัวเพชร                               88599898            106203903                               00821044CCSH       0000002248400000                                                                             
D000056006057601827925012012162114นายเชี่ยว ไหมดำ                                   8876-9498           3031-3064           มจ 3043             00950541CCSH       0000001382100000                                                                             
D000057006057601827925012012163359นายนันท์มนัส พอใจ0891357829                       88179692            48217353                                04701737CCSH       0000001884200000                                                                             
D000058006057601827925012012165028นาง ทัศนีย์ ลาภผลเจริญ                            8888-9280           9521-7315           ทม7559              10250012CCSH       0000001000000000                                                                             
D000059006057601827925012012172907นายวิษณุ ไชยา                                     88869396            75212362                                00860810CCSH       0000002174000000                                                                             
D000060006057601827925012012173139น.ส.น้ำฝน จันทร์หอม                               88889893            56215345                                00860082CCSH       0000001212800000                                                                             
D000061006057601827925012012173935สอาด  บัวขนก                                      8896-9798           0021-1365                               08690542CCSH       0000001515300000                                                                             
D000062006057601827925012012174722นาง สมร ราวินิช                                   88279993            34213345                                08556223CCSH       0000000960000000                                                                             
D000063006057601827925012012181335รตอ.ศุภกร ธัญญกรรม ทล4169                         8808-9797           9121-4346                               10154881CCSH       0000001476200000                                                                             
D000064006057601827925012012181430รตอ.ศุภกร ธัญญกรรม ทล5353                         8898-9984           3321-5345                               10154881CCSH       0000001617900000                                                                             
D000065006057601827925012012181528รตอ. ศุภกร ธัญญธรรม ทล9302                        8858-8899           2321-9340                               10154881CCSH       0000001432800000                                                                             
D000066006057601827925012012184305นายวรวิทยื และสง่า                                88069697            00213353                                05699910CCSH       0000002023000000                                                                             
T000067006057601827900000000000000000000000095480800000065                                                                                                                                                                                                      
