H0000010060576018279บริษัท ไทเอซ สิสซิ่ง จำกัด              22102011TALHO                                                                                                                                                                                       
D000002006057601827922102011102620นางนงนุช สุทธาวาส ทศ1611                          88669298            16211361                                08691092CCSH       0000001884200000                                                                             
D000003006057601827922102011103126นายปรีชา บุญมั่น                                  8867-9790           3721-8358                               01730481CCSH       0000001934000000                                                                             
D000004006057601827922102011103249นางจินตรัตน์ อุทัยพยัคฆ์                          8807-9995           0621-5355                               09740222CCSH       0000001884200000                                                                             
D000005006057601827922102011103556น.ส.เครือวรรณ์ ดำรงค์ ทศ 220                      4886-8998           0221-0362                               08510258CCSH       0000000306000000                                                                             
D000006006057601827922102011110644ด.ต.วิรัตน์ ตะคุณนะ                               88388498            84211352                                11520403CCSH       0000003836000000                                                                             
D000007006057601827922102011110731นางสาวเมตตา ตะคุณนะ                               88288498            67210355                                11520403CCSH       0000002203000000                                                                             
D000008006057601827922102011110808ด.ต.วิรัตน์ ตะคุณนะ                               88568397            56217320                                11520403CCSH       0000000628700000                                                                             
D000009006057601827922102011111547ชัยวัฒน์  อ่อนอก                                  8887-9096           5931-9035                               04950191CCSH       0000000500000000                                                                             
D000010006057601827922102011113848นางสาว ภัทรลภา โครตสมบัติ มจ 1615                 8857-9397           5631-1061                               02501180CCSH       0000000989800000                                                                             
D000011006057601827922102011114012อัจฉริยะ อุเทนะพันธุ์                             88579894            3221-6358           ทว 6283             07990132CCSH       0000001884200000                                                                             
D000012006057601827922102011114244น.ส.นกน้อย สุราลัย ทศ7689                         88459796            96217368                                10360570CCSH       0000001812300000                                                                             
D000013006057601827922102011114734นางสาวเพชรมณี สิงห์วิชัย ทย9930                   88389780            09219323                                08780012CCSH       0000000700000000                                                                             
D000014006057601827922102011115133นายเกรียงไกร ศรอินทร์ ทย2486                      88969492            64212328                                10320214CCSH       0000002345100000                                                                             
D000015006057601827922102011115636นางภัททิยา จึงเจริญกิจไพศ่าล                      8837-9690           2021-1344                               04784781CCSH       0000001890000000                                                                             
D000016006057601827922102011120522อนุสรณ์  วารีน้อย                                 88278399            35215318            ทม5583              07990132CCSH       0000000235500000                                                                             
D000017006057601827922102011122357นางสาวน้ำฝน จันทร์หอม ทล 5655                     88889893            56215345                                02501180CCSH       0000001212800000                                                                             
D000018006057601827922102011124854นายสมนึก สืบพิลัย ทศ8696                          88359994            66218369                                10150884CCSH       0000002069400000                                                                             
D000019006057601827922102011133027นางสุภาพร บุบผา  ทศ1506                           88869697            65211360                                07931067CCSH       0000001884200000                                                                             
D000020006057601827922102011133402ร.อ.ณัฐ กาญจนโรจน์ ทล 8432                        88969290            24218343                                04770553CCSH       0000001382100000                                                                             
D000021006057601827922102011133812นายสุรศักดิ์ อินทศร ทว5456                        8877-9586           6421-5355                               08691092CCSH       0000002170900000                                                                             
D000022006057601827922102011134213นางวิจิตรา ลาวัณย์วิจิตร                          8818-8997           7521-1358                               07620496CCSH       0000001884200000                                                                             
D000023006057601827922102011143143นางสาว วชิราภรณ์ นุชสุข                           88779794            12216358                                09621104CCSH       0000002983300000                                                                             
D000024006057601827922102011144845นายวิเชต มารกลม                                   88789994            61215346                                07531324CCSH       0000002012500000                                                                             
D000025006057601827922102011150916ปุณยาวัจน์ บุญน้อม                                88389791            15312075                                07620859CCSH       0000001432800000                                                                             
D000026006057601827922102011151543นายทศพล ดวงมาลี                                   88488998            63313075            มฉ.3356             07990541CCSH       0000001867000000                                                                             
D000027006057601827922102011153121นางสาวพรรณ์สกุล  พันธ์พรหม                        88288998            66210355                                04881090CCSH       0000002640900000                                                                             
D000028006057601827922102011153353นางมณฑิรา ทวีกัลป์                                8878-9696           8721-4345                               10325821CCSH       0000001738900000                                                                             
D000029006057601827922102011153526นางสาวเกตุนลิน  ริ้วกระโทก  ทศ6208                88268897            82216360                                10720208CCSH       0000002060000000                                                                             
D000030006057601827922102011154751นายวิริทธิ์พล กานต์กมลภูษิต                       88179694            42216350                                05690237CCSH       0000001980000000                                                                             
D000031006057601827922102011162425นายวรพงศ์  พูลพิพิธ ทย6690                        8898-8597           0621-6329                               04881090CCSH       0000000100000000                                                                             
D000032006057601827922102011163557นายสมจิตร เกษมพงษ์                                88388598            78210352                                11140702CCSH       0000001700000000                                                                             
D000033006057601827922102011174555อนันต์  สิงห์น้อย ทศ 1463                         8876-9797           3421-1366                               04950191CCSH       0000001884200000                                                                             
D000034006057601827922102011175041นางขวัญใจ กระจ่างโพธิ์                            8828-9796           6121-3316                               10970050CCSH       0000001449700000                                                                             
D000035006057601827922102011181504นายวรวิทย์  และสง่า ทว3030                        88069697            00213353                                05690088CCSH       0000002016800000                                                                             
D000036006057601827922102011184623นายธนะจิตต์ พึ่งโพธิ์สภ  ทว512                    88388689            25210351                                08690335CCSH       0000001700000000                                                                             
T000037006057601827900000000000000000000000059202700000035                                                                                                                                                                                                      
