H0000010060576018279บริษัท ไทเอซ สิสซิ่ง จำกัด              20022012TALHO                                                                                                                                                                                       
D000002006057601827920022012083255นายวิรัช ยิ้มถาวร                                 88508299            107084136           มจ1399              00540034CCSH       0000001212700000                                                                             
D000003006057601827920022012084440จารุวรรณ เลิศไกร                                  88569291            76214361                                09550507CCSH       0000001856500000                                                                             
D000004006057601827920022012085649นางสาวกนิษฐา อินฉาย ทม 7045                       88571798            107080859                               01760698CCSH       0000000035000000                                                                             
D000005006057601827920022012085900นางบุญโฮม เกษแสนศรี ทร5420                        88569591            04215332                                04581830CCSH       0000001105700000                                                                             
D000006006057601827920022012090328นายสุกิจ ดาวเรือง                                 88459194            31218331                                01900719CCSH       0000000167000000                                                                             
D000007006057601827920022012090825ฉกาจ ไพมณี                                        88768598            18211347                                02460584CCSH       0000000573000000                                                                             
D000008006057601827920022012090935วลียา อภิสิทธิวาสนา                               88677497            15215344                                01593214CCSH       0000001936500000                                                                             
D000009006057601827920022012092622นางศิรินภา จิตตะยะโสภณ                            8847-9596           8721-4359                               06920243CCSH       0000002346000000                                                                             
D000010006057601827920022012092855นายบุญช่วย พิศาลภูรินาถ ทร 4094                   88668498            40214339                                04603236CCSH       0000001194600000                                                                             
D000011006057601827920022012095021นาย อำนาจ บินตอเล็บ                               88979783            35217352                                00820154CCSH       0000001884200000                                                                             
D000012006057601827920022012095036ด.ต.พชร ดีพอ มฉ 5607                              8817-9890           7631-5070                               04991118CCSH       0000001515300000                                                                             
D000013006057601827920022012095719นาย ราเชนทร์ จันทร์ศรีเมือง                       8858-9291           4021-8340                               00370077CCSH       0000001700000000                                                                             
D000014006057601827920022012095723นายสมบูรณ์  สนศรี                                 88079496            79214352                                01522997CCSH       0000001756700000                                                                             
D000015006057601827920022012095823คุณ สรุพงษ์ ยารังษี                               8856-9590           2231-6065                               03830446CCSH       0000001105700000                                                                             
D000016006057601827920022012100507นายปิยะ เข็มกลัด ทว 6984                          88527599            106145962                               05670406CCSH       0000000102800000                                                                             
D000017006057601827920022012100711นายปิยะ เข็มกลัด ทว 6984                          88527599            106145962                               05670406CCSH       0000003800000000                                                                             
D000018006057601827920022012101810นางทิฆัมพร แช่มเกษม ศศ4668                        88379494            86364366                                00450503CCSH       0000000823900000                                                                             
D000019006057601827920022012102218พิรภัทรา                                          8887-9792           0921-7358                               06991739CCSH       0000001884200000                                                                             
D000020006057601827920022012102220นายสมหมาย ปานเนาว์ มง8921                         88659894            19318052                                07601301CCSH       0000000868700000                                                                             
D000021006057601827920022012102327ภัททิยา  จึง                                      88379690            20211344                                11342729CCSH       0000000235500000                                                                             
D000022006057601827920022012103051นางอรณิชา เทพเทียน ทศ9867                         88529899            106197834                               02190241CCSH       0000001584400000                                                                             
D000023006057601827920022012103158นางอรณิชา เทพเทียน ทศ6284                         88768797            42216368                                02190241CCSH       0000001856500000                                                                             
D000024006057601827920022012103408นายบัวลา ทองขาว                                   88517799            106168881           ทศ 2832             01210586CCSH       0000001925500000                                                                             
D000025006057601827920022012103756อรวรรณ ศรีสุวรรณเกศ                               88569492            82214288                                09761108CCSH       0000000829300000                                                                             
D000026006057601827920022012103850นายบัวลา ทองขาว                                   88659497            64217360            ทศ 7406             01210586CCSH       0000001172800000                                                                             
D000027006057601827920022012104546นาย วิวัฒน์  ขันติพงษ์                            8847-9692           9621-7359                               07930498CCSH       0000001833500000                                                                             
D000028006057601827920022012110511นาย สีห์วัส พงษ์เหล็ง                             88508989            106117928                               06100131CCSH       0000001590000000                                                                             
D000029006057601827920022012111612นางอุไรวรรณ นุตตะโยธิน ทย 3491                    88168898            14213329                                04603236CCSH       0000001391000000                                                                             
D000030006057601827920022012111713นายปฐมพัฒน์ ผาทอง มฉ2800                          88289681            08312070                                10520393CCSH       0000001799200000                                                                             
D000031006057601827920022012112133นายอนันต์ สิงห์น้อย ทว3038                        88179398            80213353                                10150884CCSH       0000001805500000                                                                             
D000032006057601827920022012112237นายอนันต์ สิงห์น้อย ทศ1141                        88569498            11211364                                10150884CCSH       0000001930000000                                                                             
D000033006057601827920022012113253นายสมพร กาศักดิ์                                  88479896            07214356                                00330237CCSH       0000001700000000                                                                             
D000034006057601827920022012114153นาย สุรเชษฐ์  อ่อนคล้าย                           88574198            104123661                               11520169CCSH       0000001165500000                                                                             
D000035006057601827920022012114353นายจิตธง  เทียนหิรัญชัยกุล                        88597598            107161138                               00390351CCSH       0000000948200000                                                                             
D000036006057601827920022012114637นายบุญเลิศ  เทศขำ  ปอ2964                         88888497            49252416                                08690033CCSH       0000000680000000                                                                             
D000037006057601827920022012115128นาย สวัสดิ์ คูณพรม                                88869390            46214337                                00201688CCSH       0000001472300000                                                                             
D000038006057601827920022012115340นายไพโรจน์ บุญขันธ์ ทว8495                        88510999            106151163                               00830255CCSH       0000001716900000                                                                             
D000039006057601827920022012115537นาง ณัฎฐสิณี อยู่พันธุ์                           88779784            07216351                                00880462CCSH       0000001884200000                                                                             
D000040006057601827920022012115826นายสมชัย ไทยสง่า                                  88468599            53216334                                00740562CCSH       0000001414800000                                                                             
D000041006057601827920022012120240ศุทธนุช                                           8846-9095           8321-3339           ทร3398              00920706CCSH       0000000987000000                                                                             
D000042006057601827920022012120319นายมงคล หลักทอง                                   88279881            00315061                                05761504CCSH       0000001376400000                                                                             
D000043006057601827920022012120558พันธวัช  ใบลำใย                                   88572898            107025860                               00390613CCSH       0000000695500000                                                                             
D000044006057601827920022012121003นางประไพวรรณ หวานเย็น                             8815-9798           6521-3334                               00210830CCSH       0000001326800000                                                                             
D000045006057601827920022012121149นายสุริยันต์ ทองโพธิ์ศรี                          88577897            21219348                                05670403CCSH       0000001848900000                                                                             
D000046006057601827920022012121205นางสาวพรรณ์สกุล พันธ์พรหม ทว 656                  88288998            66210355                                00980829CCSH       0000001873200000                                                                             
D000047006057601827920022012121311นาย รัฐ ใจฉ่ำ                                     88506499            107092179                               00640141CCSH       0000001230500000                                                                             
D000048006057601827920022012121644นางอุบลรัตน์                                      88969192            74211325                                02610551CCSH       0000001769000000                                                                             
D000049006057601827920022012121825นางอุบลรัตน์                                      88869192            40214369                                02610551CCSH       0000002346000000                                                                             
D000050006057601827920022012122028นายวรวิทย์  ทิพนัด  ทร 3598                       88582898            107132655                               02260835CCSH       0000000869400000                                                                             
D000051006057601827920022012122103นาย เวชสิทธิ์ สุขสุมิตร มฉ 7979                   88369297            99317077                                00720609CCSH       0000000529100000                                                                             
D000052006057601827920022012123612นาย สิทธิพร แวดอุดม                               88859796            21310086            มช 162              04670151CCSH       0000001663600000                                                                             
D000053006057601827920022012124756ร.อ.สมพงษ์ วิไลลักษณ์                             88505799            000104558                               00060459CCSH       0000002150000000                                                                             
D000054006057601827920022012124915นายถวิล  จำเริญ                                   88178899            13219359                                07990132CCSH       0000001476800000                                                                             
D000055006057601827920022012125256นายถวิล  จำเริญ                                   88279197            80214357            ทว4078              07990132CCSH       0000001476800000                                                                             
D000056006057601827920022012131031นางสาวพวงเพ็ญ ศิริพละ                             88879997            95213354                                04580699CCSH       0000002116700000                                                                             
D000057006057601827920022012131558วัสมล โชติสิงห์                                   88518699            104122412                               05700127CCSH       0000002037200000                                                                             
D000058006057601827920022012131819บจก.ทู-มิเตอร์ ทรานสปอร์ต ทล 5582                 8816-7797           2521-5348                               07605023CCSH       0000001652100000                                                                             
D000059006057601827920022012131845นายพิสิฐ บุญมา ทล 8113                            88489690            31218341                                11312191CCSH       0000001965500000                                                                             
D000060006057601827920022012133227นาย วรัฐ  นบนอบ                                   88540299            107021122                               00600443CCSH       0000000901800000                                                                             
D000061006057601827920022012134030นายสรรเสริญ สีธงชัยรุ่งโรจน์ ทย8327               88759998            73218322                                07930727CCSH       0000001010600000                                                                             
D000062006057601827920022012134134นายสมเกียรติ สีธงชัยรุ่งโรจน์ ทพ9097              88569794            70219289                                07930727CCSH       0000001159200000                                                                             
D000063006057601827920022012134932นางสลิล มะลิต้น ทย 6326                           88189791            63216322                                04580699CCSH       0000001498800000                                                                             
D000064006057601827920022012135855นายปริญญา ผลพานิช มจ9448                          88468399            84319064                                00220927CCSH       0000000927400000                                                                             
D000065006057601827920022012141126นางสาวบุญนำ สมัครเขตรการ                          88520999            104119489                               07930727CCSH       0000001901600000                                                                             
D000066006057601827920022012141300นายสุนทร จันทร                                    8867-9791           6121-8355                               01902177CCSH       0000001884200000                                                                             
D000067006057601827920022012141728นางพรทิพย์ จันทร์ทึก ทม 3678                      88596898            107063382                               04603236CCSH       0000000971000000                                                                             
D000068006057601827920022012143310นายบุญเหลือ พงษ์ธนู                               88388097            50315072                                04661696CCSH       0000001700000000                                                                             
D000069006057601827920022012143333นางสาวนิ่มนวล ดอกนาค                              88597998            106127274                               07130885CCSH       0000001586800000                                                                             
D000070006057601827920022012143902นายพิกิจ ภูมิภาค ทษ496                            88521299            106198852                               02530554CCSH       0000002223000000                                                                             
D000071006057601827920022012144256นายพิกิจ ภูมิภาค ทษ 1716                          88592498            106203209                               02530554CCSH       0000002223000000                                                                             
D000072006057601827920022012144415นายพิกิจ ภูมิภาค mL 2160                          88069887            01212366                                02530554CCSH       0000002346000000                                                                             
D000073006057601827920022012144756นายพิกิจ ภูมิภาค ทศ 2106                          88169887            61212360                                02530554CCSH       0000004692000000                                                                             
D000074006057601827920022012145124นายสรรเสริญ  สีธงชัยรุ่งโรจน์ ทย 7594             88511499            107113555                               00650326CCSH       0000001152100000                                                                             
D000075006057601827920022012145212อัครเดช ขันคำ มฉ5285                              88479982            52315078                                10270539CCSH       0000001799200000                                                                             
D000076006057601827920022012145225นายสมเกียรติ  สีธงชัยรุ่งโรจน์ ทพ 9096            8866-9794           6021-9289                               00650326CCSH       0000001159100000                                                                             
D000077006057601827920022012145556นายอนุชา  วงษ์รุ่งเรือง  ป้ายแดง                  88581998            104122005                               08510045CCSH       0000001855300000                                                                             
D000078006057601827920022012150710นายเผชิญ โพธิ์ศรี                                 8837935             70216350                                00410764CCSH       0000001884200000                                                                             
D000079006057601827920022012151336ด.ต.ชาญ  ทับพุ่ม                                  88798198            66211310                                00140565CCSH       0000000396500000                                                                             
D000080006057601827920022012151717นายสมนึก  สืบพิลัย  ทศ 8696                       88359994            66218369                                02260835CCSH       0000002069400000                                                                             
D000081006057601827920022012151728ดำรง เทพสมบูรณ์                                   88279492            51219288                                03990902CCSH       0000000757800000                                                                             
D000082006057601827920022012151848ดำรง เทพสมบูรณ์                                   88500099            104125523                               03990902CCSH       0000001951000000                                                                             
D000083006057601827920022012153733นายสรุพล  วัฒนบุตร                                88526599            107046884                               01080089CCSH       0000001432000000                                                                             
D000084006057601827920022012155201สุภาพร เดชวรรณ ทว7742                             8807-9692           2721-7354                               05690237CCSH       0000002188000000                                                                             
D000085006057601827920022012160312พ.ต.ณัฐ กาญจนโรจน์                                88505899            106140169                               04770515CCSH       0000001723900000                                                                             
D000086006057601827920022012160822นายสมชาย หนองเส                                   88469991            53216253                                04831051CCSH       0000001000000000                                                                             
D000087006057601827920022012163037อำพร ซองทอง   ทย8221                              88309896            12218322                                10320156CCSH       0000000827700000                                                                             
D000088006057601827920022012171523นายบัญญัติ แก่นจันทร์ มฉ 550                      88259594            05310075                                10071091CCSH       0000001407100000                                                                             
D000089006057601827920022012172747นางจุไรรัตน์ สุทธิเวช ทล4789                      88189996            97214348                                10360725CCSH       0000002391700000                                                                             
D000090006057601827920022012172912นายจักรพันธ์ เลี่ยมรัตน์ ทว 6307                  88679794            73216350                                10071091CCSH       0000001676200000                                                                             
D000091006057601827920022012173446นางจินตรัตน์ อุทัยพยัคฆ์ ทว 4827                  0198187995998       106139746                               09749741CCSH       0000002050900000                                                                             
D000092006057601827920022012174758นาย ทศพล ผาช้างเผือก มฉ 4088                      88669296            80314078                                08450242CCSH       0000001690000000                                                                             
D000093006057601827920022012180930นายสฤษดิ์ พินิจกุลดี                              88769787            40212363                                09761108CCSH       0000001918400000                                                                             
D000094006057601827920022012182629นายบุญโฮม อนุชาด                                  88525699            107102099                               11330131CCSH       0000000900000000                                                                             
D000095006057601827920022012184538นางสาวนริสรา แปนสวย                               88859896            06217364            ทศ 7640             08510518CCSH       0000001863100000                                                                             
D000096006057601827920022012185149นายวิริทธิ์พล  กานต์กมลภูษิต  ทว6204              88179694            42216350            0805501220          08690033CCSH       0000001918500000                                                                             
T000097006057601827900000000000000000000000145231600000095                                                                                                                                                                                                      
