H0000010060576018279บริษัท ไทเอซ สิสซิ่ง จำกัด              03022012TALHO                                                                                                                                                                                       
D000002006057601827903022012084326นายวสันติชัย แบนจาด                               88289396            39214343                                01800625CCSH       0000001665500000                                                                             
D000003006057601827903022012084542น.ส.สมจินตนา มัจฉาชีพ                             88659196            70218360                                06876871CCSH       0000001798500000                                                                             
D000004006057601827903022012085858นางจารุวรรณ เลิศไกร                               8866-9291           7021-1337                               09550507CCSH       0000001402900000                                                                             
D000005006057601827903022012091858น.ส.บุญสิตา สุนทรสวัสดิ์ มฉ 7275                  88669197            52317077                                06920243CCSH       0000001842700000                                                                             
D000006006057601827903022012091906นางจิราพร ทองร่มโพธิ์ ทว 7299                     88979492            92217359                                01890097CCSH       0000001500000000                                                                             
D000007006057601827903022012092014นางจิราพร ทองร่มโพธิ์ ทว 9919                     88078698            99219351                                01890097CCSH       0000001680000000                                                                             
D000008006057601827903022012092115นายบุญมี จันทร์กอง ทล 8809                        88989190            98218340                                01971063CCSH       0000001700000000                                                                             
D000009006057601827903022012093727วิรัตน์  เกิดผล                                   8858-9797           2221-4347                               00360791CCSH       0000001261500000                                                                             
D000010006057601827903022012093904ประพนธ์                                           88879498            79212357                                00530863CCSH       0000000733300000                                                                             
D000011006057601827903022012094719นางศศิธร ดวงแก้ว ทศ 2405                          88469296            54212360                                04603236CCSH       0000001515300000                                                                             
D000012006057601827903022012100152นาย ปรีชา หงส์ทอง  ทศ 5836                        88568698            68215363                                04581882CCSH       0000001890800000                                                                             
D000013006057601827903022012101546นายจตุพร นาคไพรัชช์                               88379498            82213359                                10520869CCSH       0000002187100000                                                                             
D000014006057601827903022012102117นส.นฤชล มณีรัตน์                                  88278597            87215332                                00000658CCSH       0000001765500000                                                                             
D000015006057601827903022012102142นายศุภชัย วงษ์หมั่น                               88580898            104126289                               04700568CCSH       0000002117800000                                                                             
D000016006057601827903022012102728นางศิลมน เจนธรรมกุล                               88659695            43218361                                08698691CCSH       0000001584300000                                                                             
D000017006057601827903022012103031นายธานี แช่มวัฒนา                                 88589694            28311075                                01480560CCSH       0000001617900000                                                                             
D000018006057601827903022012105125นายซาเล็ม ศรีหล้า                                 88669890            06251371                                05670403CCSH       0000000608200000                                                                             
D000019006057601827903022012105604นายสัญญา บุญประเทือง                              8847-9093           2321-7350                               03910771CCSH       0000001884200000                                                                             
D000020006057601827903022012105618นายณรงค์ ประทุมวัน                                88979686            06202233            ถน 2630             07410893CCSH       0000000700000000                                                                             
D000021006057601827903022012110607นายอนัน  สมบูรณ์พันธ์  ทม 108                     8865-9394           8121-0310                               09760540CCSH       0000000882500000                                                                             
D000022006057601827903022012112345กมล  แต้มสว่าง                                    88189590            85218348                                00911062CCSH       0000001800000000                                                                             
D000023006057601827903022012115042โอวาท ศรีตระกูลพร มฉ 6628                         88369598            86316072                                02530516CCSH       0000002000000000                                                                             
D000024006057601827903022012115342นายคงฤทธิ์   ผดาวัลย์                             88479192            50214318                                03970523CCSH       0000001220000000                                                                             
D000025006057601827903022012115354นายทองดี วงษ์จักษุ                                88513789            107153172                               04990497CCSH       0000001159200000                                                                             
D000026006057601827903022012115547นางสาว นวลอนงค์ อินไกร                            8858-8688           3521-1358                               00282766CCSH       0000001884200000                                                                             
D000027006057601827903022012115603นงชนา วรปาณิ ทล5123                               8838-9695           3121-5342           0805513867          04607752CCSH       0000001640000000                                                                             
D000028006057601827903022012115634นายธนพงษ์ เครือวณิชธรรม ทม4468                    8857897             84214316                                10150884CCSH       0000000098500000                                                                             
D000029006057601827903022012115951นายพิเชษฐ  เลิศสุรัง                              88534699            107011889                               01850199CCSH       0000000564200000                                                                             
D000030006057601827903022012120404นาย ชนดล นาทาม ทย3486                             8857-9486           6421-3328                               08510017CCSH       0000001156800000                                                                             
D000031006057601827903022012120448นางประไพวรรณ หวานเย็น                             8857-9591           5321-8352                               00210830CCSH       0000001700000000                                                                             
D000032006057601827903022012120617นางประไพวรรณ หวานเย็น                             8825-9798           17216364                                00210830CCSH       0000001839700000                                                                             
D000033006057601827903022012120805นายสมเกียรติ สีธงชัยรุ่งโรจน์ ทม5672              88069594            26215317                                07930727CCSH       0000001251900000                                                                             
D000034006057601827903022012120856นายสมเกียรติ สีธงชัยรุ่งโรจน์  ทย932              88878297            29210323                                07930727CCSH       0000001293600000                                                                             
D000035006057601827903022012120943นายสมเกียรติ สีธงชัยรุ่งโรจน์  ทพ3823             88569596            38213282                                07930727CCSH       0000001326900000                                                                             
D000036006057601827903022012121037นายสรรเสริญ สีธงชัยรุ่งโรจน์  ทย 9321             88168499            13219322                                07930727CCSH       0000001051000000                                                                             
D000037006057601827903022012121055นายสรรเสริญ  สีธงชัยรุ่งโรจน์ ทร 843              88541699            107124919                               00650326CCSH       0000001293600000                                                                             
D000038006057601827903022012121241วาศิณีย์                                          88569894            09319061                                04710657CCSH       0000001367000000                                                                             
D000039006057601827903022012122602นายชาตรี ศาลางาม                                  88069492            20214364                                03300747CCSH       0000001000000000                                                                             
D000040006057601827903022012122653สุพิชชา ทม6112                                    88088889            21216311                                07960038CCSH       0000000207000000                                                                             
D000041006057601827903022012123745นายสังทอง มูลเมืองแสน ทว5006                      88979587            60215350                                08510017CCSH       0000001501500000                                                                             
D000042006057601827903022012125654น.ส.วรรณา บุญประเสริฐ                             88589798            104126293                               01761687CCSH       0000001867300000                                                                             
D000043006057601827903022012130135พ.ต.ต.สมนาม อ่วมประสิทธิ์                         88669894            71213367                                07931067CCSH       0000001884200000                                                                             
D000044006057601827903022012132651นายยงยุทธ์ สึกชัย                                 88688299            12313072                                01880134CCSH       0000001906000000                                                                             
D000045006057601827903022012134141สุปราณี  วงษ์เสนา  ทว 8345                        88279491            53218354                                10720208CCSH       0000001884200000                                                                             
D000046006057601827903022012135500นายพงษ์ศักดิ์ บุญมา                               88969197            48211367                                03833635CCSH       0000001983000000                                                                             
D000047006057601827903022012135842จ.ส.ต.บุญเลิศ  ทองเตี้ย                           88778399            05219356                                04700196CCSH       0000001878600000                                                                             
D000048006057601827903022012141352นายเรืองเดช ภิญโญยิ่ง                             88359396            79217368                                04603236CCSH       0000001920000000                                                                             
D000049006057601827903022012141654นาง สมร ราวินิช ทล 7182                           8845-9996           2121-7348                               02500437CCSH       0000001210000000                                                                             
D000050006057601827903022012142856นาย อุดร สังกระธาตุ0868883423                     88188499            09219347                                02250416CCSH       0000001732100000                                                                             
D000051006057601827903022012143405นายธีระชาย แสงสุวรรณ  ทล 6524                     88589292            45216342                                04680722CCSH       0000001734300000                                                                             
D000052006057601827903022012143708นาย อนุสรณ์  วารีน้อย ทม5553                      8826-9394           3521-5315                               01781712CCSH       0000001495700000                                                                             
D000053006057601827903022012143802นาย อนุสรณ์  วารีน้อย                             8826-9394           3521-5315                               01781712CCSH       0000000096000000                                                                             
D000054006057601827903022012144155คุณประกอบ                                         88869895            86313050                                10120558CCSH       0000000836000000                                                                             
D000055006057601827903022012144747นาย สมบัติ วงษ์เดอรี                              88669691            10215321            ทย5011              01950405CCSH       0000001147200000                                                                             
D000056006057601827903022012145605ทองดี สุดหล้า                                     88968397            92314055                                01411495CCSH       0000001021000000                                                                             
D000057006057601827903022012150354นายอรุณ  พงษ์ภักดี  ทพ 9100                       88889191            01219280                                08560585CCSH       0000001740000000                                                                             
D000058006057601827903022012151523นส.สุภาภรณ์  อำนาจเจริญยิ่ง                       88579394            54216353                                01307047CCSH       0000001884200000                                                                             
D000059006057601827903022012151850นายวิทยา  แซ่จึง  ทศ 7323                         8855-9597           3321-7362                               09760540CCSH       0000001467400000                                                                             
D000060006057601827903022012154424นายธนกฤต เกริกชัยฤทธิ์                            88543299            104115863           ทศ9394              00611046CCSH       0000001975100000                                                                             
D000061006057601827903022012154837นายสุรศักดิ์  อินทศร                              8877-9493           3521-5364           ทศ5543              08690266CCSH       0000002090000000                                                                             
D000062006057601827903022012155257นายอดิศักดิ์ คุ้ยหะ  ทว9550                       88679980            05219355                                10073833CCSH       0000002082100000                                                                             
D000063006057601827903022012162645นายประเสร็ฐ บุญเพ็ง                               8835-9894           6821-5338           ทร 5886             00530100CCSH       0000001490700000                                                                             
D000064006057601827903022012165138นางทิพย์ ธนทรัพย์สมบัติ                           88576597            106182015                               08640149CCSH       0000001834300000                                                                             
D000065006057601827903022012170648นายสหรัถ ส่งเสียงหล้า พห 1198                     88759995            81281399                                05670406CCSH       0000000801000000                                                                             
D000066006057601827903022012170812ร.ท.จักรกฤษณ์  เพียรพิจิตร                        88779698            94213359            ภาษี+ประกัน         11520515CCSH       0000001275500000                                                                             
D000067006057601827903022012170944ร.ท.จักรกฤษณ์  เพียรพิจิตร                        88179988            95219369            ภาษี+ประกัน         11520515CCSH       0000001250500000                                                                             
D000068006057601827903022012171100ร.ท.จักรกฤษณ์  เพียรพิจิตร                        88989891            99219356            ค่ามิเตอร์          11520515CCSH       0000000235500000                                                                             
D000069006057601827903022012171839นายสุนทร ผาครบุรี ทษ 786                          88516199            106199157                               04881100CCSH       0000001780000000                                                                             
D000070006057601827903022012172557นายวินัย แสงปาน                                   88768998            36318072            มฉ 8623             04670151CCSH       0000001124700000                                                                             
D000071006057601827903022012173517ร.ท. จักรกฤษณ์  เพียรวิจิตร                       88779998            91219369                                11520169CCSH       0000000371000000                                                                             
D000072006057601827903022012174140นายทนงศักดิ์ คงแก้ว ทล 4327                       8848-9597           7321-4342                               04880436CCSH       0000001275700000                                                                             
D000073006057601827903022012174247นายทนงศักดิ์ คงแก้ว                               8838-9597           6321-4342                               04880436CCSH       0000001275700000                                                                             
D000074006057601827903022012174853นภดล เจตรุ่งพันธุ์                                88679391            43218359                                04700568CCSH       0000001799200000                                                                             
D000075006057601827903022012175719นาย ชาญศักดิ์  สาระ  มง 5003                      8806-9994           3031-5050                               10250225CCSH       0000000701500000                                                                             
D000076006057601827903022012181118นาง วันพร องค์ศิริพร                              8816-9994           1321-3323                               10990248CCSH       0000000988000000                                                                             
D000077006057601827903022012184120นายธนพัต คุ้มวงษ์                                 88678797            23316074                                07660755CCSH       0000001773000000                                                                             
D000078006057601827903022012185122นางสาว ปัทมา ทรัพย์กลิ่น มฉ5434                   88979491            44315073                                08691827CCSH       0000001767800000                                                                             
D000079006057601827903022012192820นายพิเชษฐ์ ศรีหาประทุม ทว 4013                    8877-9197           3021-4351                               11861097CCSH       0000002046200000                                                                             
T000080006057601827900000000000000000000000111317800000078                                                                                                                                                                                                      
