H0000010060576018279บริษัท ไทเอซ สิสซิ่ง จำกัด              23072011TALHO                                                                                                                                                                                       
D000002006057601827923072011110050นางผาริต จันทร์เมฆา ทว637                         8846-7297           7621-0353                               09664687CCSH       0000001799200000                                                                             
D000003006057601827923072011114426น.ส.ทิฐินันท์ หิรัญเปรมพัฒน์(ทว4766)              88679696            67214356                                07958112CCSH       0000001834000000                                                                             
D000004006057601827923072011120546นายวิชัย วิเศษ ทล1277                             88499881            72211347                                02500607CCSH       0000001665500000                                                                             
D000005006057601827923072011120651นายวิชัย วิเศษ ทล1277                             88499881            72211347                                02500607CCSH       0000001665500000                                                                             
D000006006057601827923072011120756นายธีระ เสือทอง ทล3806                            88889398            68213340                                02500607CCSH       0000001665500000                                                                             
D000007006057601827923072011120902นายบรรจง วิเศษ ทล2032                             88267397            20212343                                02500607CCSH       0000001267800000                                                                             
D000008006057601827923072011121020นายบรรจง วิเศษ ทล2032                             88267397            20212343                                02500607CCSH       0000001267800000                                                                             
D000009006057601827923072011123106นาย ประสิทธิ์ หอมสนั่น มฉ 2840                    8888-9990           0831-2074                               04881100CCSH       0000001799200000                                                                             
D000010006057601827923072011123527นางขวัญหทัย ดีใจ ทย276                            88169393            62210327                                10360570CCSH       0000000673500000                                                                             
D000011006057601827923072011124007นายอำพล ชื่นแย้ม                                  88968898            80319073                                10661140CCSH       0000000647300000                                                                             
D000012006057601827923072011124418คุณ เทพฤทธิ์ สองใหม่ มง9935                       88879196            59319053                                01731321CCSH       0000001451700000                                                                             
D000013006057601827923072011131259ด.ต.สุวนัย เสาศิริ ทศ 2867                        8876-9195           7821-2366                               04780120CCSH       0000001850200000                                                                             
D000014006057601827923072011132125ธนวันต์ เปี่ยมวรนันท์ ทว4990                      88079596            09214359                                10270539CCSH       0000001506500000                                                                             
D000015006057601827923072011134350นางสาวนกน้อย สุราลัย ทศ7689                       88459796            96217368                                10360570CCSH       0000001812300000                                                                             
D000016006057601827923072011134650นาย มีอนันต์ ซ่อนกลิ่น มจ7548                     8805-9194           8531-7064                               04620534CCSH       0000002131400000                                                                             
D000017006057601827923072011141356นางสาววิยะดา ยิ่งยงค์ ทศ750                       8897-8197           0721-0365                               11522191CCSH       0000001897200000                                                                             
D000018006057601827923072011141510นางสาววิยะดา ยิ่งยงค์ ทศ742                       8807-8397           2721-0364                               11522191CCSH       0000001899700000                                                                             
D000019006057601827923072011144757น.ส.นุชนารถ แจ่มศุภพันธ์                          8806-7097           1521-3350           ทว3501              08698691CCSH       0000001884200000                                                                             
D000020006057601827923072011144821นายวันดี ใจกล้า                                   8888-8998           3521-6326                               07660755CCSH       0000001435200000                                                                             
D000021006057601827923072011150156นางบุณยานิตย์ ศิริรักษ์ ทร3896                    8898-8297           6821-3339                               11240437CCSH       0000001069900000                                                                             
D000022006057601827923072011151217นายประกอบ ทองสะอาด ทม8313                         88778799            33218311                                10360570CCSH       0000000604800000                                                                             
D000023006057601827923072011152608น.อ.ระพีพงษ์  โสวรรณ  ทล 9798                     8838-8299           8721-9349                               04880055CCSH       0000001884200000                                                                             
D000024006057601827923072011160953นาย  กมล  แต้มสว่าง                               8848-9992           4621-8337           ทร8674              07990852CCSH       0000001827100000                                                                             
D000025006057601827923072011161758นายวีระ ศรีแก้ว ทม1009                            88759096            90211310                                10360570CCSH       0000001230500000                                                                             
D000026006057601827923072011161904นายวีระ ศรีแก้ว ทม1009                            88659096            98217311                                10360570CCSH       0000001230500000                                                                             
D000027006057601827923072011163854นางสาววาสนา  สุขเกษม  มง 6319                     8895-9895           9331-6051                               01730895CCSH       0000001033700000                                                                             
D000028006057601827923072011164026นางอุไรวรรณ นุตตะโยธิน                            8816-8898           1421-3329           ทย3491              04880262CCSH       0000001391000000                                                                             
D000029006057601827923072011164113นางสาววาสนา  สุขเกษรม  ทม 1448                    8885-9895           8421-1314                               01730895CCSH       0000001033700000                                                                             
D000030006057601827923072011170334นายสมพงษ์ ติคำ                                    8858-9991           0021-5342                               10720571CCSH       0000001848600000                                                                             
D000031006057601827923072011170907นาย เฉลา ศรีนาค มจ2581                            88669594            15312068                                09660651CCSH       0000000730600000                                                                             
D000032006057601827923072011182230นาย สมจิตร เกษมพงษ์ ทว827                         8838-8598           7821-0352                               11140702CCSH       0000001700000000                                                                             
D000033006057601827923072011182916ประพันธ์ยุทธ์ ชัยศรี                              88388797            87211359            ทว1798              07622098CCSH       0000001949500000                                                                             
D000034006057601827923072011184249สงบ  ระย้า                                        8806-9598           2331-1057                               08690542CCSH       0000000570000000                                                                             
T000035006057601827900000000000000000000000048257800000033                                                                                                                                                                                                      
