H0000010060576018279บริษัท ไทเอซ สิสซิ่ง จำกัด              06092011TALHO                                                                                                                                                                                       
D000002006057601827906092011083555น.ส.บุญสิตา สุนทรสวัสดิ์                          8866-9197           5231-7077                               06920243CCSH       0000001842700000                                                                             
D000003006057601827906092011085014นายไพรสน คำอ่อน ทศ7893                            8825-9496           3821-7369                               01480206CCSH       0000001846600000                                                                             
D000004006057601827906092011085129นายไพรสน คำอ่อน ทศ7993                            8815-9496           3921-7369                               01480206CCSH       0000001846600000                                                                             
D000005006057601827906092011085355นายมงคล หลักทอง มจ5010                            88279881            00315061                                00443099CCSH       0000000098500000                                                                             
D000006006057601827906092011091601กังวาน มุมทอง                                     88779790            40219358                                04692643CCSH       0000001799200000                                                                             
D000007006057601827906092011092211นาย บุญธรรม เยื่อปุย  ทย5450                      8866-9797           0421-5325                               01340207CCSH       0000001800000000                                                                             
D000008006057601827906092011092707นาย จุล  เทพขาม ทว4638                            88079587            86214353                                00310190CCSH       0000000030000000                                                                             
D000009006057601827906092011092900นางสุภาพรณ์ เทพทวี ทว 4675                        8867-9996           5621-4357                               10410123CCSH       0000000064300000                                                                             
D000010006057601827906092011094220นาย สุชาติ อิ่มอร่าม                              88489398            88213346                                01884323CCSH       0000001665500000                                                                             
D000011006057601827906092011095135พ.ต.ท. สุเทพ ภูดวงเดือน                           88359597            94217360                                01800625CCSH       0000001828800000                                                                             
D000012006057601827906092011095227นายวันชัย ชวาลาภรณ์ ทล 7372                       8808-9591           2321-7347                               04580699CCLQ665054000000005200000250329                                                                         
D000013006057601827906092011095324นายวันชัย ชวาลาภรณ์ ทล 7372                       8808-9591           2321-7347                               04580699CCSH       0000001191500000                                                                             
D000014006057601827906092011100620นายประจัญชัย  อัฒจักร  มง 3798                    8816-9992           8731-3059                               00130162CCSH       0000000718700000                                                                             
D000015006057601827906092011102136นายทวี เหล็กเพ็ชร                                 88524499            107063302           ทม3579              00741604CCSH       0000001495700000                                                                             
D000016006057601827906092011104459นางสาวสมหวัง นับกลาง ทว 8493                      8847-9291           3421-8359                               00540049CCSH       0000001884200000                                                                             
D000017006057601827906092011110340สอ.วรวุฒิ ศรีไพร                                  8809-8297           8131-1078                               11075794CCSH       0000000034300000                                                                             
D000018006057601827906092011110707นายจำนงค์ โพธิจักร                                88569795            10213324                                04290358CCSH       0000001105700000                                                                             
D000019006057601827906092011111159นางนงค์เครือ พุทธางกูรวงศ์                        8898-9396           7821-4349                               01210241CCSH       0000000201200000                                                                             
D000020006057601827906092011111315นาย ไสว เทพแสง มจ 5781                            8855-9598           1731-5068                               04700190CCSH       0000001286700000                                                                             
D000021006057601827906092011111505นายอนุรักษ์  รักษาศิริ ทศ6458                     88968597            84216365                                04600072CCSH       0000001874000000                                                                             
D000022006057601827906092011111828นายสมพร กาศักดิ์                                  88479896            07214356                                00330237CCSH       0000000235500000                                                                             
D000023006057601827906092011112627บัวลา ทองขาว                                      88059595            65216346            ทล 6566             01210586CCSH       0000001840000000                                                                             
D000024006057601827906092011112812บัวลา ทองขาว                                      88515799            106124969           ทล 8126             01210586CCSH       0000001716500000                                                                             
D000025006057601827906092011113210ทองศรี ธิปไชย                                     88369886            65211320            ทย1506              00837602CCSH       0000001159200000                                                                             
D000026006057601827906092011114648สังวาลย์  พูลเต่า                                 88978597            46210368                                00911062CCSH       0000000900000000                                                                             
D000027006057601827906092011122457กรรณิการ์ สุบุญสันธิ์                             88533899            107093646                               11250232CCSH       0000000681100000                                                                             
D000028006057601827906092011122556พรนัชชา เนตรจุ้ย                                  88534899            107145883                               11250232CCSH       0000000711100000                                                                             
D000029006057601827906092011122730นายคงฤทธิ์  ผดาวัลย์                              8889-9290           3621-1348                               03970257CCSH       0000001665500000                                                                             
D000030006057601827906092011122821นายคงฤทธิ์  ผดาวัลย์                              88479192            50214318                                03970257CCSH       0000001220000000                                                                             
D000031006057601827906092011123211ศุทธนุช ภัทรศรีสุวัฒน์ ทร 3398                    88469095            83213339                                00920501CCSH       0000001124500000                                                                             
D000032006057601827906092011123411นายสันติ คำคง มค9371                              8805-9796           1331-9037                               05750619CCSH       0000000030000000                                                                             
D000033006057601827906092011123646วิชัย ปุสารัมย์ ทศ7982                            88959196            29217368                                08001096CCSH       0000001519900000                                                                             
D000034006057601827906092011123712นายทองดี ถึงปัดชา                                 88598199            72212349            ทล 2297             01210586CCSH       0000001600000000                                                                             
D000035006057601827906092011124226วิศว คาดหมาย                                      8807-9984           7521-6353                               04610367CCSH       0000001884200000                                                                             
D000036006057601827906092011125136นางสาว ศิริพร ปดิฐพร ทล 2291                      8829-8399           1221-2349                               01980529CCSH       0000001665500000                                                                             
D000037006057601827906092011130159นายอนุสรณ์ วารีน้อย ทว7387                        8847-9981           7321-7358                               07601138CCSH       0000001344700000                                                                             
D000038006057601827906092011130316ไพจิตต์ ก.                                        88379895            99218329                                02560119CCSH       0000001383600000                                                                             
D000039006057601827906092011130436ชาตรี วงค์เพ็ญ                                    8886-9997           3821-5338                               01371972CCSH       0000001086300000                                                                             
D000040006057601827906092011130905นายวันเฉลิม เกษตรสินธุ์ ทว1326                    8838-8988           6321-1352                               11520390CCSH       0000001764300000                                                                             
D000041006057601827906092011131234น.ส. อุดมรักษ์ ขอนสี                              8837-8198           2121-0367                               00821044CCSH       0000001918500000                                                                             
D000042006057601827906092011131608นายธนพงษ์ เครือวณิชธรรม ทม4468                    88857897            84214316                                10150884CCSH       0000002293400000                                                                             
D000043006057601827906092011132809นายกิตติพงศ์ กรศุภอานนท์                          8807-8899           2021-6310           ทม6002              03970649CCSH       0000001590000000                                                                             
D000044006057601827906092011132932นายกิตติพงศ์ กรศุภอานนท์                          8897-8799           7021-2320           ทย2007              03970649CCSH       0000001590000000                                                                             
D000045006057601827906092011133112นายเจริญ จันทร์แสนตอ                              8807-9492           7231-5072                               10720144CCSH       0000001736100000                                                                             
D000046006057601827906092011133114นายสุรศักดิ์ อินทศร ทย8890                        8869-8498           0821-8329                               07940765CCSH       0000001880600000                                                                             
D000047006057601827906092011135711สมพิตย์ อาสาเน                                    8849-8297           6421-3347                               01105785CCSH       0000001724700000                                                                             
D000048006057601827906092011140153ชาญชัย แซ่ปัง ทศ3087                              8806-9095           7021-3368                               05750619CCSH       0000001998200000                                                                             
D000049006057601827906092011140244ชาญชัย แซ่ปัง ทศ9393                              8875-9884           3321-9369                               05750619CCSH       0000001850000000                                                                             
D000050006057601827906092011140320ชาญชัย แซ่ปัง ทศ8080                              8895-9096           0021-8369                               05750619CCSH       0000001850000000                                                                             
D000051006057601827906092011140552นายพลูพิณ เขียวแดง                                8807-9981           5531-5079                               01898928CCSH       0000001679300000                                                                             
D000052006057601827906092011140618นายอัสเราะมะห์  ปานมณี  ทร9701                    8885-9894           1721-9330                               04600072CCSH       0000000773900000                                                                             
D000053006057601827906092011141302น.ส.ดวงกมล ห้องแซง ทว8526                         8897-9881           6521-8352                               10360725CCSH       0000000400000000                                                                             
D000054006057601827906092011143330นายนิวัฒน์ ทองภู ทว7136                           8817-9293           6121-7353                               04671136CCSH       0000001884200000                                                                             
D000055006057601827906092011143558นางสาวลำไพ ปัญยาง ทล 1025                         88538799            107154380                               04580699CCSH       0000000829300000                                                                             
D000056006057601827906092011144052นายอดิสร ซอและ ทล1296                             88959695            62211349                                05694077CCSH       0000001543000000                                                                             
D000057006057601827906092011144400นาย กรชาล จันทะเอ  ทว8622                         8885-7697           2621-8352                               10074338CCSH       0000002090500000                                                                             
D000058006057601827906092011144818โสสุดา นุตตะโยธิน                                 8846-9590           7921-3311                               00240941CCSH       0000001495700000                                                                             
D000059006057601827906092011145154สงคราม เกษศรี                                     88099193            24219339                                04831051CCSH       0000001361500000                                                                             
D000060006057601827906092011150655คุณสมยศ กลิ่นเกษณ                                 8868-8298           0421-1353                               01270115CCSH       0000001949000000                                                                             
D000061006057601827906092011150742นายอรัญ ขาวเนตร                                   88678599            42219326                                09760107CCSH       0000001275000000                                                                             
D000062006057601827906092011151540นาย สมนึก ทัพน้อย ทศ 2375                         8826-9496           5321-2367                               00561145CCSH       0000001884200000                                                                             
D000063006057601827906092011151633สมเกียรติ แซ่ตั้ง ทว7889                          8817-9392           9821-7358                               00190024CCSH       0000001799200000                                                                             
D000064006057601827906092011152020นายสนิท ดอดกระโทก                                 8836-9195           2221-8334                               04700190CCSH       0000000972900000                                                                             
D000065006057601827906092011152640นาบุญเลิศ ทรัพย์เจริญกุล                          88069991            76211322                                10320156CCSH       0000001473100000                                                                             
D000066006057601827906092011154211จ.ส.อ.เฉลิมชัย พูลเจริญ ทว7606                    88779692            66217350                                07950594CCSH       0000001268000000                                                                             
D000067006057601827906092011154415นาย ปิติ เล็กชื่นสกุล ทม 8031                     88588098            10218313                                07680647CCSH       0000002021200000                                                                             
D000068006057601827906092011155732นายเจริญ ชัชวาลย์                                 8807-8499           39315077                                00650260CCSH       0000001981000000                                                                             
D000069006057601827906092011162346นายเสรี  ผายพิมพ์  ทร 7314                        88468797            43217331                                08510045CCSH       0000000235500000                                                                             
D000070006057601827906092011163536นาย เบญจพนต์  รุ่งศรีศศิธร ทล3462                 8815-9895           2421-3346                               04880528CCSH       0000001091400000                                                                             
D000071006057601827906092011165026สมนึก ทศ3621                                      88669393            16213362                                07960038CCSH       0000001799200000                                                                             
D000072006057601827906092011165414บจก.สิฎฐ์โชคดี 3                                  8827-9593           2325-7419           ปอ7392              08690266CCSH       0000000174500000                                                                             
D000073006057601827906092011173404นางสาวสุปราณี ธนูศิลป์                            88589780            18218346                                10071091CCSH       0000001662200000                                                                             
D000074006057601827906092011174532นาย สมสุข ชูกิจรุ่งทรัพย์                         8835-9498           5021-7360                               00300702CCSH       0000001984200000                                                                             
D000075006057601827906092011175357นายจักรชัย ลมัยกุล                                8816-9890           2831-1065                               10136228CCSH       0000001623600000                                                                             
D000076006057601827906092011180055ทรัพย์ นิลเนตร                                    88869790            25311054                                10365296CCSH       0000001543700000                                                                             
D000077006057601827906092011181143นาย ศราวุธ แก้วแกมเกษ 0866999147                  8878-9591           5121-7348                               10660230CCSH       0000001910700000                                                                             
D000078006057601827906092011181808น.ส. นิ่มนวล  ดอกนาค  ทล 8431                     88889190            14218343                                08510045CCSH       0000001090300000                                                                             
D000079006057601827906092011182127วีระศักดิ์ ศรีสมุทร                               88989091            77217342                                10365296CCSH       0000001773300000                                                                             
D000080006057601827906092011183012นายวิเชียร ไมล์กลาง                               8868-9396           0921-4342                               04700568CCSH       0000001720000000                                                                             
D000081006057601827906092011183020นายชายชาญ งามชื่น                                 88079696            2631-9052                               10661017CCSH       0000000867600000                                                                             
D000082006057601827906092011183302ประกอบ ทองสะอาด ทม 8313                           8891-9895           3321-8311                               10361274CCSH       0000001105700000                                                                             
D000083006057601827906092011184102นายสมหวัง  เหล็งศิริ ทล 1204                      88979886            42211340                                05701141CCSH       0000001530000000                                                                             
D000084006057601827906092011190331น่ายไพฑูรย์ แก้วศรีเมือง                          88569886            55213351                                10320156CCSH       0000001668000000                                                                             
T000085006057601827900000000000000000000000113558500000083                                                                                                                                                                                                      
