H0000010060576018279บริษัท ไทเอซ สิสซิ่ง จำกัด              21022012TALHO                                                                                                                                                                                       
D000002006057601827921022012083320คุณณัฐกาญจน์ พุ่มพวง                              8899-9491           5921-0346                               01520684CCSH       0000000400000000                                                                             
D000003006057601827921022012083802นางสาว สุวภัทร พรประภาศักดิ์ ทศ4918               88469198            89214361                                01200200CCSH       0000001794600000                                                                             
D000004006057601827921022012085430ลัดดา ผาพิน ทร1254                                88769597            42211335                                10270539CCSH       0000000989800000                                                                             
D000005006057601827921022012092610วรรณวิกา  ประทุมศรี  ทร 1783                      0198187994398       107125402                               02530516CCSH       0000001159200000                                                                             
D000006006057601827921022012101843นายสำรวย ทองแย้ม  มง688                           88869798            86310058                                08690335CCSH       0000000475700000                                                                             
D000007006057601827921022012104257นายชวลิต จักษุดำ มช2640                           88597798            104127149                               10320864CCSH       0000001811100000                                                                             
D000008006057601827921022012110100นาย ประกอบ เขตบุญไสย มฉ 9856                      88580998            107137247                               04581882CCSH       0000001025500000                                                                             
D000009006057601827921022012110732จิราภรณ์                                          8897-9096           4521-0325                               06991739CCSH       0000001319700000                                                                             
D000010006057601827921022012110839นายสำราญ  ขาวผ่อง                                 88988697            19211353                                02590911CCSH       0000001790300000                                                                             
D000011006057601827921022012110848นายนิธิพัฒน์ บังเกิดคงคาดิษฐ์                     88959795            94218362                                01480363CCSH       0000002600000000                                                                             
D000012006057601827921022012111350นายจักรชัย ลมัยกุล ทศ4710                         88069890            07214361                                06830558CCSH       0000000954800000                                                                             
D000013006057601827921022012112045นายอดิศักดิ์ อุ้ยหะ                               88679980            05219355                                06301136CCSH       0000002082100000                                                                             
D000014006057601827921022012112458นายศิริมงคล  เจริญศิริ                            88279992            05217352                                10720144CCSH       0000000861000000                                                                             
D000015006057601827921022012112646นายศิริมงคล เจริญศิริ                             88379992            15217352                                10720144CCSH       0000001700000000                                                                             
D000016006057601827921022012113334นางศิริดา บุราณคุณ                                88669394            56210323                                11540166CCSH       0000000850000000                                                                             
D000017006057601827921022012113453นางศิริดา บุราณคุณ                                88769394            76211310                                11540166CCSH       0000000850000000                                                                             
D000018006057601827921022012113533นายชนินทร์  อ่อนใจเอื้อ                           88889682            37312071                                00663162CCSH       0000000030000000                                                                             
D000019006057601827921022012114538นายจำลอง  เที่ยงตรง                               88779992            25217350                                06921923CCSH       0000001918500000                                                                             
D000020006057601827921022012115858นางศศิญา จันทร์สิน ทล 7296                        88589491            62217349                                04780201CCSH       0000000235500000                                                                             
D000021006057601827921022012120541นายสมชาย ทองศรี                                   88507889            104123310           ทษ1476              11240761CCSH       0000001855900000                                                                             
D000022006057601827921022012121404ด.ต.เสริม หยุ่นแก้ว                               88469994            23219352                                01970318CCSH       0000001800000000                                                                             
D000023006057601827921022012121516ด.ต.เสริม หยุ่นแก้ว                               88487497            90217340                                01970318CCSH       0000001700000000                                                                             
D000024006057601827921022012121644พรชัย สุจริตหัตถชัย                               88519989            107029121                               01520196CCSH       0000000529000000                                                                             
D000025006057601827921022012122120นายประสิทธิ์ หอมสนั่น                             88889990            08312074            มฉ2840              07990132CCSH       0000001799200000                                                                             
D000026006057601827921022012122319นายสมชาย   ตราลาภ  ทศ8840                         88159794            08218364                                11310028CCSH       0000001910000000                                                                             
D000027006057601827921022012122826บุณยานิตย์ ศิริรักษ์ ทร 3896                      88988297            68213339                                11245499CCSH       0000001056600000                                                                             
D000028006057601827921022012124553สมหวัง แซ่อึ้ง                                    88526499            107076561                               00530863CCSH       0000001112600000                                                                             
D000029006057601827921022012131505นายธีระ สุวรรณเกิด                                88279986            51215359                                00190041CCSH       0000001700000000                                                                             
D000030006057601827921022012131611นายสถาพร  เมฆแก้ว                                 88768498            27315057                                01100263CCSH       0000000710000000                                                                             
D000031006057601827921022012131711เฉลิมพล  ยัญญลักษณ์  ทม 8362                      0198187994998       107085954                               02530516CCSH       0000000646500000                                                                             
D000032006057601827921022012132327นายวีระศักดิ์   สีสันต์                           88688499            25219332                                00830886CCSH       0000000980900000                                                                             
D000033006057601827921022012132402นางสาวนฤมล ชนกศรีทอง                              88488897            88211355                                01520889CCSH       0000001700000000                                                                             
D000034006057601827921022012140451นายดำรงค์  ภูทองขาว  ทศ6123                       4866-8998           3121-6362                               04700012CCSH       0000000310000000                                                                             
D000035006057601827921022012141630นายสมพงษ์ พลพุทธา                                 88088097            35212358                                02040889CCSH       0000001700000000                                                                             
D000036006057601827921022012143533ไพจิตต์ ก.                                        88379895            99218329                                02560119CCSH       0000001383600000                                                                             
D000037006057601827921022012144209นายสุรศักดิ์ อินทศร ทศ 5534                       8876-8399           4521-5363                               04580699CCSH       0000002746000000                                                                             
D000038006057601827921022012144421นายเทพฤทธิ์ สองใหม่ มง 9935                       88879196            59319053                                11461039CCSH       0000001451700000                                                                             
D000039006057601827921022012151054นางสุพรรณี ภูนุภา ทศ7276                          88059797            62217367                                00820726CCSH       0000000965600000                                                                             
D000040006057601827921022012151403นายปิยะ เข็มกลัด ทว6984                           88527599            106145962                               05670390CCSH       0000000650000000                                                                             
D000041006057601827921022012151634นาย วันดี ใจกล้า                                  8888-8998           3521-6326                               07660497CCSH       0000001435200000                                                                             
D000042006057601827921022012152013ภูพนา  ทองสมบูรณ์                                 88079990            66218353            0837181117          04600142CCSH       0000001799200000                                                                             
D000043006057601827921022012152547นางสาวปริณตรา ฮะยิ้ม                              88459696            78217366                                07010922CCSH       0000003582000000                                                                             
D000044006057601827921022012152748นาย เอกสิทธิ์ ศรีตองอ่อน ทว4793                   8837-9696           3721-4359                               11860608CCSH       0000001918700000                                                                             
D000045006057601827921022012153121นาง สุกัญญา ศรีจันทร์ ทว4753                      8827-9696           3721-4355                               11860608CCSH       0000001918700000                                                                             
D000046006057601827921022012153650หจก.วินคาร์ ทล 3594                               88098397            45213349                                00470207CCSH       0000001665500000                                                                             
D000047006057601827921022012160227น.อ.แมน   ศีตะจิตต์  ทศ 8756                      88545999            104117323                               11310028CCSH       0000001575400000                                                                             
D000048006057601827921022012170600นางสาวประทุม ตรีภักดิ์ ทว 9997                    88278989            79219359                                10090081CCSH       0000001828900000                                                                             
D000049006057601827921022012171231นาย ธนกฤต อินนุช ทล 7306                          8828-9491           6321-7340                               05710252CCSH       0000000098500000                                                                             
D000050006057601827921022012173421นางพรรณา  วรรณโนรักษ์  ทว 6918                    8827-9793           8921-6351                               08510045CCSH       0000003233800000                                                                             
D000051006057601827921022012174318นาย ประยูร วิเศษนอก ทศ4508                        88069491            85214360                                10070236CCSH       0000000030000000                                                                             
D000052006057601827921022012174858น.ส.สอาด บัวขนก                                   88969798            00211365                                04880760CCSH       0000001515300000                                                                             
D000053006057601827921022012190840นางสาว วรกมล  บุญมา                               88500799            106199193                               08550648CCSH       0000002452300000                                                                             
T000054006057601827900000000000000000000000072608900000052                                                                                                                                                                                                      
