H0000010060576018279บริษัท ไทเอซ สิสซิ่ง จำกัด              22092011TALHO                                                                                                                                                                                       
D000002006057601827922092011085421นายอนันต์  มีลาภา  มฉ 3101                        8875-7797           1131-3070                               02260835CCSH       0000017980800000                                                                             
D000003006057601827922092011090547นายวิเชียร ชื่นยินดี ทศ8397                       88559695            73218369                                08561493CCSH       0000001812300000                                                                             
D000004006057601827922092011091801นาย ทวี สาระแสน                                   88198699            59211346                                05940436CCSH       0000001589600000                                                                             
D000005006057601827922092011092030นายพีระเดช ศักดิ์เดชะมณี ทล 3457                  8878-7497           7421-3345                               02530554CCSH       0000001665500000                                                                             
D000006006057601827922092011092650นายวุฒิชัย รักษจิตร มง5425                        8876-9591           5431-5052                               00830255CCSH       0000000486200000                                                                             
D000007006057601827922092011100813นายสุทิน เจาะจง ทล8122                            8808-9690           2121-8342                               01200722CCSH       0000001595500000                                                                             
D000008006057601827922092011101255นายอุทิศ กรวยกลาง                                 88578597            20312075                                05760932CCSH       0000001979500000                                                                             
D000009006057601827922092011102742นางสาวชูศรี  งามประเสริฐ                          8811-8688           4921-4327                               01440888CCSH       0000000869800000                                                                             
D000010006057601827922092011103626นายปรีชา บุญมั่น ทว 8783                          8867-9790           3721-8358                               00750049CCSH       0000001900000000                                                                             
D000011006057601827922092011103721นายทน กองเกตุใหญ่ มฉ 6034                         88878999            40316073                                02530554CCSH       0000001884200000                                                                             
D000012006057601827922092011105027น.ส. เกตุนลิน ริ้วกระโทก                          88268897            82216360                                01771050CCSH       0000002060000000                                                                             
D000013006057601827922092011105715นางสาวจิราพร กองประมูล ทล3107                     88598897            71213340                                01900719CCSH       0000001476200000                                                                             
D000014006057601827922092011111540นายสุรศักดิ์ อินทรศร ทว 5456                      8877-9586           6421-5355                               04580699CCSH       0000000235500000                                                                             
D000015006057601827922092011111653นางมยุรี นนทรีย์                                  8877-9994           6121-6357                               01953140CCSH       0000001515300000                                                                             
D000016006057601827922092011111713นางจรรยา อินทศร ทล 8704                           8846-9793           4721-8340                               04580699CCSH       0000001110500000                                                                             
D000017006057601827922092011112436นางสาวธาริณี แก้วผลึก                             88079597            55219334                                00330237CCSH       0000001583600000                                                                             
D000018006057601827922092011113702นายคำพันธ์  พุ่มจันทร์                            8887-9693           5721-4344                               11140161CCSH       0000001626100000                                                                             
D000019006057601827922092011120024นายสายชล คงสมบูรณ์ ทย 6203                        8849-9390           3221-6320                               00601118CCSH       0000001705900000                                                                             
D000020006057601827922092011121937นางสาว เครือวรรณ์ ดำรงค์ ทศ220                    4886-8998           0221-0362                               08510017CCSH       0000000300000000                                                                             
D000021006057601827922092011122035นาย สมเกียรติ สีธงชัยรุ่งโรจน์ ทย 1584            8866-9987           4521-1328                               04581882CCSH       0000001374500000                                                                             
D000022006057601827922092011122035ประมวล เพ็งนิล                                    8846-7097           4221-9342                               01101665CCSH       0000002116700000                                                                             
D000023006057601827922092011122320นาย สมบูรณ์ ผามั่ง                                88269892            08312065                                00201688CCSH       0000001052200000                                                                             
D000024006057601827922092011122954ธนะจิตต์ พึ่งโพธิ์สภ                              88388689            25210351                                08690542CCSH       0000001700000000                                                                             
D000025006057601827922092011123001นายวิระ สวนมนัส ทย3246                            88678897            62213324                                02530836CCSH       0000001166000000                                                                             
D000026006057601827922092011123102นาย บัวลา ทองขาว ทศ 544                           88669290            45210364                                01211627CCSH       0000001670000000                                                                             
D000027006057601827922092011124002พรรณ์สกุล พันธ์พรหม                               88288998            66210355                                00980134CCSH       0000001873200000                                                                             
D000028006057601827922092011124322นายเพชร สูตรอุดม                                  88659297            89214320                                01480560CCSH       0000001287300000                                                                             
D000029006057601827922092011124722นายวิสูตร  ศรีพงษ์สุทธิ์ ทล 1400                  8839-9790           0421-1340                               04670988CCSH       0000001403000000                                                                             
D000030006057601827922092011125629นาย อนุสรณ์ วารีน้อย ทม 7744                      8846-9797           4721-7314                               01781145CCSH       0000001517700000                                                                             
D000031006057601827922092011130453นางสาว ขวัญเมือง แก้วสระแสน                       88859196            01216326                                04581882CCSH       0000001647700000                                                                             
D000032006057601827922092011131437นายสุวรรณ  ฟูศรีกุล                               8839-9490           9231-0074           มฉ 249              02260178CCSH       0000001628100000                                                                             
D000033006057601827922092011132822นายบุญส่ง ตระกูลจั่นนาค ทร8401                    8846-9692           1421-8330                               10360725CCSH       0000001490000000                                                                             
D000034006057601827922092011133424นาง จิราพร ทองร่มโพธิ์ ทว 6633                    88179884            36216353                                01890658CCSH       0000001700000000                                                                             
D000035006057601827922092011134554นายจรัล เผยสกุล                                   88669595            77212361                                02580146CCSH       0000001918500000                                                                             
D000036006057601827922092011134918นางวิจิตรา  ลาวัณย์วิจิตร ทว1587                  88188997            75211358                                07620776CCSH       0000001884200000                                                                             
D000037006057601827922092011140352นางสาวนงลักษณ์ ศรีชื่นชม ทศ9832                   88527899            104119706                               10520393CCSH       0000001855400000                                                                             
D000038006057601827922092011140543นายอำพล ชื่นแย้ม มฉ9038                           8896-8898           8031-9073                               10660615CCSH       0000000647300000                                                                             
D000039006057601827922092011141521นาย รุ่งโรจน์ เนาว์กลาง ทม244                     8856-9392           4221-0314                               02590600CCSH       0000001207000000                                                                             
D000040006057601827922092011143120นายสุพจน์ เพ็งอินทร์ ทว 760                       88788698            07210356                                10130715CCSH       0000002187000000                                                                             
D000041006057601827922092011144106นายเรืองเดช  ภิญโญยิ่ง ทศ7987                     8835-9396           7921-7368                               04600072CCSH       0000000030000000                                                                             
D000042006057601827922092011144301กาญจนา ด่านวิริยะกุล                              8886-9896           9621-5323                               07620489CCSH       0000001123300000                                                                             
D000043006057601827922092011145210เพชรมณี สิงห์วิชีย ทย 9930                        88389780            09219323                                00440033CCSH       0000001634000000                                                                             
D000044006057601827922092011145255ไพจิตต์ กีรติพินิจ                                88088399            30217314                                02560119COTH       0000001580000000                                                                             
D000045006057601827922092011153707นางสาว นงลักษณ์ จันต๊ะราชา                        8847-9486           3421-5355                               00651478CCSH       0000001948500000                                                                             
D000046006057601827922092011154511น.ส.ชื่นใจ ศิริคุณ                                8887-9294           9621-3337                               08698691CCSH       0000000034300000                                                                             
D000047006057601827922092011170204ด.ต.พิพรรธ แสนอินทร์                              8867-8698           6321-4324                               07620489CCSH       0000001105700000                                                                             
D000048006057601827922092011172250นายอรรณพ ศรีปัญญานนท์ ทศ8230                      88559986            02218363                                10071100CCSH       0000001840000000                                                                             
D000049006057601827922092011174553ขวัญใจ กระจ่างโพธิ์                               8828-9796           6121-3316           ทม3166              10970394CCSH       0000001449700000                                                                             
D000050006057601827922092011175546นายวรวิทย์ และสง่า ทว3030                         88069697            00213353                                05694077CCSH       0000002020300000                                                                             
D000051006057601827922092011183343นายวิริทธิ์พล กานต์กมลภูษิต  ทว6204               88179694            42216350                                08690335CCSH       0000001983000000                                                                             
D000052006057601827922092011184911นายวิเชต  มารกลม                                  88789994            61215346                                08832055CCSH       0000002012500000                                                                             
D000053006057601827922092011185105นายวรพงศ์ พูลพิพิธ                                88988597            06216329                                04880760CCSH       0000001000000000                                                                             
D000054006057601827922092011190101นายสมพงษ์ ติคำ                                    88589991            00215342                                00860473CCSH       0000001814600000                                                                             
T000055006057601827900000000000000000000000094278200000053                                                                                                                                                                                                      
