H0000010060576018279บริษัท ไทเอซ สิสซิ่ง จำกัด              06012012TALHO                                                                                                                                                                                       
D000002006057601827906012012085716นาย อนุสรณ์ วารีน้อย ทว7387                       8847-9981           7321-7358                               01780060CCSH       0000000167000000                                                                             
D000003006057601827906012012093536นายพงษ์ศักดิ์ บริบูรณ์ ทศ 7652                    88459896            26217365                                04580699CCSH       0000002376400000                                                                             
D000004006057601827906012012093758นฤมล ราชอาษา                                      88278599            66213334                                01720538CCSH       0000001100000000                                                                             
D000005006057601827906012012095041ส.อ.วรวุฒิ  ศรีไพร                                8809-8297           8131-1078                               11070686CCSH       0000000034300000                                                                             
D000006006057601827906012012095843นายชาตรี ขุนติเศษ                                 88769493            66213361                                03570765CCSH       0000001617900000                                                                             
D000007006057601827906012012100553นายธนภัทร จันทร์หอมกุล ทศ 6816                    88659698            68216361                                05670406CCSH       0000000960000000                                                                             
D000008006057601827906012012101215น.ส.สมพิตย์  อาสาเน                               88498297            64213347                                01100263CCSH       0000001794300000                                                                             
D000009006057601827906012012102944นายจรัล เผยสกุล ทศ628                             88678497            86210362                                02580367CCSH       0000001948500000                                                                             
D000010006057601827906012012103310นายวิทยา แซ่จึง                                   88559597            33217362                                09760107CCLQ770925 00000007891000140080                                                                         
D000011006057601827906012012103400นายวิทยา แซ่จึง                                   88559597            33217362                                09760107CCSH       0000002201700000                                                                             
D000012006057601827906012012103634น.ส.เมตตา ตะคุณนะ/ทว 756                          8828-8498           6721-0355                               05670826CCSH       0000002238000000                                                                             
D000013006057601827906012012105004นายวิทยา แซ่จึง                                   48459997            33217362                                09760107CCSH       0000000642000000                                                                             
D000014006057601827906012012105704นางจันทร์สม โพธิ์แดง                              88532699            104118678                               01396715CCSH       0000001922300000                                                                             
D000015006057601827906012012112121นาย วันเฉลิม  เกษตรสินธุ์ ทว 1326                 8838-8988           6321-1352                               09760540CCSH       0000001615800000                                                                             
D000016006057601827906012012112222นางนงนุช มาลัย                                    88159594            74172065                                01890619CCSH       0000000553000000                                                                             
D000017006057601827906012012112712นางสาว นวลจันทร์ แก้วทอง ทว 452                   8836-9492           2421-0355                               04881100CCSH       0000002009300000                                                                             
D000018006057601827906012012113054นายวีระ ศรีแก้ว 0814519017                        8865-9096           9821-7311           ทม 7819             01481588CCSH       0000001230500000                                                                             
D000019006057601827906012012113156นายวีระ ศรีแก้ว 0814519017                        88759096            90211310            ทม 1009             01481588CCSH       0000001230500000                                                                             
D000020006057601827906012012113423นายสมบูรณ์ ศรีอ่อนจันทร์ มง5885                   88559194            58315058                                08450531CCSH       0000002019700000                                                                             
D000021006057601827906012012115248นาย พงศ์รพี ปรีชาไพศาลจิตร ทศ 5861                88268598            18215366                                09550503CCSH       0000001865600000                                                                             
D000022006057601827906012012120147นาย สมชัย ไทยสง่า ทร6345                          88468599            53216334                                10070203CCSH       0000001414800000                                                                             
D000023006057601827906012012120407นายวานิช ศรีบุญเรือง มค.7111                      8847-9991           1131-7031                               00282766CCSH       0000001350000000                                                                             
D000024006057601827906012012121246นางสาวภัทรานิษฐ์ รัตนวรธันยา ทศ2066               88269787            60212366                                04810155CCSH       0000001595000000                                                                             
D000025006057601827906012012121914จำเนียร ศรีคำมุง                                  88569894            09319061                                04710657CCSH       0000001371900000                                                                             
D000026006057601827906012012123556นางเข็มทอง สงเคราะห์ ทว 7880                      88579492            08217358                                04603236CCSH       0000001750800000                                                                             
D000027006057601827906012012123829นายนรชัย แพงศร                                    88069996            86217327                                09760107CCSH       0000001271600000                                                                             
D000028006057601827906012012125237นายอภิรัตน์ ภู่ศิริ ทย2404                        88179295            44212320                                01761687CCSH       0000001671400000                                                                             
D000029006057601827906012012125254น.ส.ศิริกานดา ทานุรัตน์ ทศ1956                    8856-9987           6921-1365                               02260861CCSH       0000001799200000                                                                             
D000030006057601827906012012130741นาย ชัชวาล  แสงอาวุธ                              88359296            01218364                                08400047CCSH       0000001828800000                                                                             
D000031006057601827906012012131105นาย เวชสิทธิ์ สุขสุมิตร มฉ7979                    88369297            99317077                                04730614CCSH       0000001596800000                                                                             
D000032006057601827906012012131552นาย ภัทรศักดิ์  แก่นโกมล                          8806-8199           6821-0328           ทย 886              02260178CCSH       0000001437200000                                                                             
D000033006057601827906012012134352นายวรวิทย์  ทิพนัด                                88189090            67218344                                03970257CCSH       0000001622500000                                                                             
D000034006057601827906012012134456นายวรวิทย์  ทิพนัด                                88269993            52214326                                03970257CCSH       0000000552800000                                                                             
D000035006057601827906012012135129นาย คงศักดิ์  รุ่งรัตน์                           88501699            104124915                               00640201CCSH       0000001867300000                                                                             
D000036006057601827906012012140734น.ส.ทองศรี ธิปไชย ทย1506                          88369886            65211320                                00830255CCSH       0000001159200000                                                                             
D000037006057601827906012012141432น.ส.นิลวรรณ สมประสงค์                             88539889            107022140           ทศ 9208             04950486CCSH       0000000814800000                                                                             
D000038006057601827906012012141853นายสำเนียง แก้วมณี                                88523499            104121142           0894413548          10900901CCSH       0000001867300000                                                                             
D000039006057601827906012012142907นายอิทธิพงศ์  อินทรีย์ มฉ2769                     8888-9781           9731-2076                               01550091CCSH       0000001800000000                                                                             
D000040006057601827906012012142945นางสาวรัชนีกร วรปัญญา                             88569395            28212363                                11730878CCSH       0000000400000000                                                                             
D000041006057601827906012012143241นาย สุรชา ทองสูงเนิน ทล4256                       88531699            107160824                               08510017CCSH       0000001452800000                                                                             
D000042006057601827906012012143559นายเสนอ สุดศรี   ทล6425                           88889592            54216342                                01770677CCSH       0000000030000000                                                                             
D000043006057601827906012012145001นายสังเวียน  ขามรัตน์ ทร 7893                     88578998            107105908                               05701141CCSH       0000001230500000                                                                             
D000044006057601827906012012145226นายอนุสรณ์ วารีน้อย                               88859795            84213317                                00940109CCSH       0000000995100000                                                                             
D000045006057601827906012012150347นายทศพล ผาช้างเผือก  ทศ2524                       8816-9296           4521-2362                               01480206CCSH       0000001884200000                                                                             
D000046006057601827906012012152020นายวันชัย ชวาลาภรณ์ ทล 7372                       8808-9591           2321-7347                               04580699CCSH       0000001744300000                                                                             
D000047006057601827906012012152027นางสายเงิน จริยสุวรรณ  ทล8689                     88889090            96218348                                02590911CCSH       0000001988200000                                                                             
D000048006057601827906012012152145นายอวิรุจ  บุทธิจักร                              88779093            41217353                                00360013CCSH       0000000930000000                                                                             
D000049006057601827906012012153126นายเจริญ จันทร์แสนตอ                              88079492            72315072                                10720567CCSH       0000001880000000                                                                             
D000050006057601827906012012153814นางรัชนี จันทร์แก้ว ทล 2177                       88098399            71212347                                01890658CCSH       0000001647700000                                                                             
D000051006057601827906012012160200นาย มงคล คุณประทุม                                88979192            09217351                                07580556CCSH       0000001917200000                                                                             
D000052006057601827906012012163323สมเดช แสงสิน ทล4522                               88189497            25214342                                10270539CCSH       0000001809000000                                                                             
D000053006057601827906012012165554นางสุพรรณี ภูนุภา                                 88059797            62217367                                10720567CCSH       0000001756700000                                                                             
D000054006057601827906012012165701นางสุพรรณี ภูนุภา                                 48659997            62217367                                10720567CCSH       0000000300000000                                                                             
D000055006057601827906012012173828นางชลิตดา เจริญพวง                                88079197            43214355                                09760107CCSH       0000002400000000                                                                             
D000056006057601827906012012175522นาย สำราญ อินไชย                                  88590498            104115266           ทศ8953              04881144CCSH       0000001831300000                                                                             
D000057006057601827906012012180753นายสุรศักดิ์ อินทศร ทศ5543                        88779493            35215364                                08691092CCSH       0000002186000000                                                                             
D000058006057601827906012012181326นาย อาด ไม้น้อย                                   88089091            67217348                                10130550CCSH       0000001799200000                                                                             
D000059006057601827906012012182031ร.ต.วิสิษฐ ลอยเกตุ ทร9821                         8889-9983           1821-9332                               05970062CCSH       0000000305500000                                                                             
D000060006057601827906012012182123น.ส.บุญสิตา สุนทรสวัสดิ์                          88669197            52317077                                07542228CCSH       0000001842700000                                                                             
D000061006057601827906012012183001วิชุดา พลายแก้ว ทล 3448                           8897-7297           8421-3344                               07540487CCSH       0000000409000000                                                                             
D000062006057601827906012012183419นางสาว จินดา บุญญานนท์                            88759698            18216365                                00860082CCSH       0000001874000000                                                                             
T000063006057601827900000000000000000000000087700700000061                                                                                                                                                                                                      
