H0000010060576018279บริษัท ไทเอซ สิสซิ่ง จำกัด              04102011TALHO                                                                                                                                                                                       
D000002006057601827904102011085455นางเปรมฤดี สวัสดี ทศ9015                          88544299            104115854                               01746989CCSH       0000002006700000                                                                             
D000003006057601827904102011085957นายเฉลิม จันทร์สอน                                88967097            54316066                                05760932CCSH       0000001016100000                                                                             
D000004006057601827904102011092402ภัทรภร ทว4295                                     88579497            52214359                                01990606CCSH       0000002450000000                                                                             
D000005006057601827904102011095209น.ส.สุกัญญา  จันทร์แจ้ง ทย3085                    88359986            50213328                                03870036CCSH       0000001090300000                                                                             
D000006006057601827904102011095937นาย เพียร แดงโร่ มฉ4350                           8827-9296           0331-4075                               00410695CCSH       0000001880000000                                                                             
D000007006057601827904102011100340ธเนศ นาโควงศ์ มจ5095                              88569190            50315069                                00920501CCSH       0000001105700000                                                                             
D000008006057601827904102011100943นางจันทา ชัยราช ทศ 1736                           8806-9597           6721-1363                               02530654CCSH       0000001918500000                                                                             
D000009006057601827904102011103410นายมนัส  ตั้งเรือนรัตน์                           88659997            42210348                                01470418CCSH       0000001140000000                                                                             
D000010006057601827904102011103945นายสาคร  นามใจยา                                  8877-9397           1021-5336                               01440888CCSH       0000001580000000                                                                             
D000011006057601827904102011104233นางสุพิชชา คล่องแคล่ว ทม6112                      8808-8889           2121-6311                               04950529CCSH       0000000750000000                                                                             
D000012006057601827904102011104853นายธานี   แช่มวัฒนา                               88589694            28311075                                04932825CCSH       0000001617900000                                                                             
D000013006057601827904102011104954สมโชค จีบงาม                                      88559696            03216349                                11241241CCSH       0000001835000000                                                                             
D000014006057601827904102011105115นายศราวุฒิ สุขพัฒน์ ทศ 5002                       8866-9490           2021-5360                               04580699CCSH       0000001856500000                                                                             
D000015006057601827904102011105316นายแอน หวังผล ทศ8419                              88659495            94218361                                08000757CCSH       0000000002700000                                                                             
D000016006057601827904102011105714นายธรรมสันต์ อุดมวิริยากร ฌศ4751                  8837-9590           1710-4365                               11460299CCSH       0000001078900000                                                                             
D000017006057601827904102011112026ประเสริฐ บุญเพ็ง                                  8825-9894           6721-8362                               00530572CCSH       0000001968600000                                                                             
D000018006057601827904102011113659นายพรชัย  ศักดิ์เดชะมณี ื ทม 1434                 88008798            44211313                                02260835CCSH       0000000227000000                                                                             
D000019006057601827904102011113753นายพรชัย  ศักดิ์เดชะมณี   ทล 6984                 88367397            49216348                                02260835CCSH       0000001700000000                                                                             
D000020006057601827904102011114217นาย ชินพันธุ์ รุจิเจริญโรจน์ ทย 1446              8887-8798           6421-1324                               04780158CCSH       0000001139200000                                                                             
D000021006057601827904102011114445นายอโณทัย สัตยานนท์                               88659886            56212333                                08521070CCSH       0000000863600000                                                                             
D000022006057601827904102011114453นายวิชาญ พรมย่อง มช927                            88759394            79310082            0814499356          01970387CCSH       0000001733100000                                                                             
D000023006057601827904102011115204นายธนวัฒน์  รักษาคุณ ทร 9037                      8899-9094           7021-9333                               08510045CCSH       0000000064300000                                                                             
D000024006057601827904102011121647จ.ส.ท.กมล แสงสว่าง ทร9592                         88969793            25219339                                04781103CCSH       0000000829300000                                                                             
D000025006057601827904102011123805นส.วิยะดา  ยิ่งยงค์ ทศ 3503                       8866-9693           3521-3360                               11521628CCSH       0000001799200000                                                                             
D000026006057601827904102011123840นายอรรณพ ศรีปัญญานนท์ ทศ 8230                     88559986            02218363                                10071091CCSH       0000000201200000                                                                             
D000027006057601827904102011124116นายรณภพ พวงวรินทร์                                88989780            00313071                                00573109CCSH       0000001730000000                                                                             
D000028006057601827904102011124127นาง นงคราญ คำมอญ  ทล 9527                         88488599            75219342                                04581882CCSH       0000001275500000                                                                             
D000029006057601827904102011125446ประจัญชัย  อัฒจักร                                88169992            87313059                                01760442CCSH       0000000718700000                                                                             
D000030006057601827904102011125510นาย วันชัย ชวาลาภรณ์ ทล7372                       8808-9591           2321-7347                               04581882CCSH       0000001742300000                                                                             
D000031006057601827904102011125533จสท.อรรณนพ โคตรโสภา ทว.5439                       88079786            94215353                                00506001CCSH       0000000167000000                                                                             
D000032006057601827904102011125616นายชายชาญ งามชื่น                                 88079696            26319052                                06900830CCSH       0000000871100000                                                                             
D000033006057601827904102011125750นายชายชาญ งามชื่น                                 88879596            18214353                                06900830CCSH       0000001906800000                                                                             
D000034006057601827904102011130900นาย วรภพ  งะบัว ทร 2133                           8826-9096           3121-2333                               00290524CCSH       0000001517700000                                                                             
D000035006057601827904102011131831นายวิชาญ ปานสุวรรณ มง 5076                        88169698            60315057                                10900089CCSH       0000000679100000                                                                             
D000036006057601827904102011131936นางจารุวรรณ เลิศไกร                               8866-9291           7021-1337                               09550887CCSH       0000001402900000                                                                             
D000037006057601827904102011134329ถวิล สุขโข                                        88504899            106121361                               00240918CCSH       0000001697800000                                                                             
D000038006057601827904102011135552นางสาว สังวาลย์  พ.                               8897-8597           4621-0368                               01780229CCSH       0000001884200000                                                                             
D000039006057601827904102011135801นาย ธงชัย เดชธุราทัศน์                            8828-7597           8321-0330                               02190075CCSH       0000001395600000                                                                             
D000040006057601827904102011141310นาง  อารมณ์  ทองสงค์                              88198797            51213340                                01230233CCSH       0000001665500000                                                                             
D000041006057601827904102011141431ธีรชาย แสงสุวรรณ                                  8858-9292           4521-6342                               10903534CCSH       0000001734300000                                                                             
D000042006057601827904102011142253นายสนธยา มีลาดคำ มฉ3357                           8868-8998           7331-3075                               10130538CCSH       0000001855400000                                                                             
D000043006057601827904102011143055นายทรงศักดิ์ เผือกแห้ว ทศ3951                     8896-8697           1921-3365                               04600072CCSH       0000001914300000                                                                             
D000044006057601827904102011143156นาย สัมฤทธิ์ พิลาดี                               8877-9496           6921-5319                               01260200CCSH       0000000889300000                                                                             
D000045006057601827904102011143305นาย วิทวัส   เงินมงคล  มฉ 4940                    8857-9593           0931-4074                               11310028CCSH       0000002019500000                                                                             
D000046006057601827904102011145045น.ส.สุภาภรณ์ อำนาจเจริญยิ่ง                       88579394            54216353                                07951758CCSH       0000001884200000                                                                             
D000047006057601827904102011145745วิทยา แซ่จึง                                      88379886            21215356                                09761108CCSH       0000002184500000                                                                             
D000048006057601827904102011151323นายไพรสน คำอ่อน                                   8835-9898           3621-6369                               09740387CCSH       0000001874000000                                                                             
D000049006057601827904102011152725นายชะอ้อน  แหยมประเสริฐ ทร 9448                   8879-9593           8421-9334                               04700012CCSH       0000000034300000                                                                             
D000050006057601827904102011153057รัชนี จันทร์แก้ว                                  88098399            71212347                                01890216CCSH       0000001568300000                                                                             
D000051006057601827904102011153247นายซาเล็ม  ศรีหล้า  ปษ 1610                       8866-9890           0625-1371           0844250947          11300791CCSH       0000000608200000                                                                             
D000052006057601827904102011154215นางสุพรรณี ภูนุภา                                 88059797            62217367            ทศ7276              10720144CCSH       0000001756700000                                                                             
D000053006057601827904102011154458นางสุพรรณี ภูนุภา                                 48659997            62217367                                10720144CCSH       0000000300000000                                                                             
D000054006057601827904102011154532นายสุนันท์ วิเศษเนตร                              88559895            81216332                                01730481CCSH       0000000875800000                                                                             
D000055006057601827904102011154715นาย  จงศักดิ์  ไชยธานี                            8885-9698           6631-9073                               10370408CCSH       0000001542700000                                                                             
D000056006057601827904102011155555นางทิพย์ ธนทรัพย์สมบัติ                           88576597            106182015                               08648641CCSH       0000001834300000                                                                             
D000057006057601827904102011161646กมล แต้มสว่าง                                     8888-9790           8421-8327                               05700127CCSH       0000001617000000                                                                             
D000058006057601827904102011161744กมล แต้มสว่าง                                     8818-9590           8521-8348                               05700127CCSH       0000001800000000                                                                             
D000059006057601827904102011162350พ.อ.อ.สมนาม อ่วมประสิทธิ์ ทศ3177                  88669894            71213367                                07930727CCSH       0000001885000000                                                                             
D000060006057601827904102011162811นางพิไลวรรณ ทองดี                                 88869196            16212363                                00490145CCSH       0000001515300000                                                                             
D000061006057601827904102011165459อมรชัย จันทร์สมุทร ทศ3320                         8846-9794           03213362                                10361274CCSH       0000001467100000                                                                             
D000062006057601827904102011165728นายวันชัย แจ้งเปลี่ยน  ทย.9648                    88514299            107119990                               00310759CCSH       0000001603300000                                                                             
D000063006057601827904102011171452นายบุญเลิศ ทรัพย์เจริญกุล ทว6051                  8807-9295           1021-6355                               10320214CCSH       0000001864400000                                                                             
D000064006057601827904102011171550นาย ยงยุทธ  เมฆยงค์  ทร 3795                      8857-9786           5721-3339           084-0975163         08690033CCSH       0000001583600000                                                                             
D000065006057601827904102011171816นายบุญเลิศ ทรัพย์เจริญกุล ทย5311                  8817-8988           1321-5321                               10320214CCSH       0000001465000000                                                                             
D000066006057601827904102011171938นายบุญเลิศ ทรัพย์เจริญกุล ทศ7974                  8845-9296           4921-7367                               10320214CCSH       0000002008400000                                                                             
D000067006057601827904102011175250นาย ประสิทธิ์  คุณากร                             88889291            36312077                                08000737CCSH       0000002134500000                                                                             
D000068006057601827904102011180435นายทองม้วน จำนงนิตย์ ทว 3221                      88779398            12213352                                10071100CCSH       0000001500000000                                                                             
D000069006057601827904102011182521นายประยูร วิเศษนอก ทว7757                         88769190            77217355                                10070236CCSH       0000001969200000                                                                             
D000070006057601827904102011183617นายสุพพัต ตองติดรัมย์ มฉ 4383                     88679886            33314078                                04780158CCSH       0000001980500000                                                                             
D000071006057601827904102011185010น.ส.สุปราณี  วงษ์เสนา  ทว 8345                    8827-9491           5321-8354                               08510045CCSH       0000001884200000                                                                             
T000072006057601827900000000000000000000000099661300000070                                                                                                                                                                                                      
