H0000010060576018279บริษัท ไทเอซ สิสซิ่ง จำกัด              17092011TALHO                                                                                                                                                                                       
D000002006057601827917092011084550นาย นรชัย  แพงศร  ทร 5912                         88512299            107138252                               09760540CCSH       0000001275100000                                                                             
D000003006057601827917092011100117ฉกาจ ไพมณี                                        8876-8598           1821-1347                               10970394CCSH       0000000577000000                                                                             
D000004006057601827917092011110608น.ส.มลิกา สายที                                   88679396            19214352                                10320156CCSH       0000000235500000                                                                             
D000005006057601827917092011111059นางสาว วิยะดา ยิ่งยงค์ ทศ742                      8807-8397           2721-0364                               11522040CCSH       0000001884200000                                                                             
D000006006057601827917092011114226นายวรวิทย์ ทิพนัด                                 88189090            67218344            ทล 8746             08510518CCSH       0000000657700000                                                                             
D000007006057601827917092011114315นาย วีระพงษ์ สาลีรัมย์ ทย337                      88279890            73210323                                10070236CCSH       0000001737900000                                                                             
D000008006057601827917092011131115ไพรสน คำอ่อน ทศ6093                               88368398            30216369                                10270539CCSH       0000001890800000                                                                             
D000009006057601827917092011132340คุณ วาสนา สุขเกษม  ทม1448                         88859895            84211314                                01731321CCSH       0000001066500000                                                                             
D000010006057601827917092011132501คุณ ปรีดา พิลาแสน ทพ 6025                         88468697            50216282                                01731321CCSH       0000001066500000                                                                             
D000011006057601827917092011133202นางสาวภัทรลภา  โคตรสมบัติ                         88579397            56311061                                08553235CCSH       0000001009800000                                                                             
D000012006057601827917092011133443นายนิยม คนขยัน มข9919                             8806-9397           9931-9021                               10360725CCSH       0000000836000000                                                                             
D000013006057601827917092011141900นิกรณ์ ส. มง8587                                  8856-9995           7531-8058                               10360281CCSH       0000001117000000                                                                             
D000014006057601827917092011143732นายวิโรจน์ แก่นจันทร์                             8886-9493           1931-6062                               09740485CCSH       0000001062400000                                                                             
D000015006057601827917092011151555สุรศักดิ์  อินทศร                                 8867-8399           2521-9359           ทว9592              08690266CCSH       0000002151000000                                                                             
D000016006057601827917092011160552นายประยูร  วิเศษนอก                               88069491            85214360                                11520515CCSH       0000001879700000                                                                             
D000017006057601827917092011161040นาย นรินทร์ ร่มลำดวน ทย 4                         88069297            40210320                                07951194CCSH       0000003017700000                                                                             
D000018006057601827917092011162742นาย อภิวัฒน์ เครือวงค์ ทว 8586                    8827-9781           6521-8358                               04780120CCSH       0000002452700000                                                                             
D000019006057601827917092011170616วรเทพ  ชมดวง                                      88179995            15215350                                08690266CCSH       0000001890000000                                                                             
D000020006057601827917092011174057นายสมเกียรติ สีธงชัยรุ่งโรจน์ ทย3148              88469197            81213324                                07930727CCSH       0000001252000000                                                                             
D000021006057601827917092011174205พ.ต.ท.จิตติณัติ รักชาติ ทศ 6565                   8856-8298           5521-6366                               04780120CCSH       0000002248300000                                                                             
D000022006057601827917092011174206นายสรรเสริญ สีธงชัยรุ่งโรจน์ ทย7858               88068298            88217325                                07930727CCSH       0000001091500000                                                                             
D000023006057601827917092011174308นายสรรเสริญ สีธงชัยรุ่งโรจน์ ทล5168               88368797            81215346                                07930727CCSH       0000001010600000                                                                             
D000024006057601827917092011174357นายสรรเสริญ สีธงชัยรุ่งโรจน์ ทม7700               88979090            07217310                                07930727CCSH       0000001159200000                                                                             
D000025006057601827917092011174451นางสิริอร ศรีกิ้ม ทร9047                          88359394            70219334                                05758278CCSH       0000000727600000                                                                             
D000026006057601827917092011174500นายสรรเสริญ สีธงชัยรุ่งโรจน์ ทย9321               88168499            13219322                                07930727CCSH       0000001051000000                                                                             
D000027006057601827917092011174633นางสาวกุลชา เรืองอนันต์ ทล5110                    88678099            01215341                                10070236CCSH       0000004956100000                                                                             
D000028006057601827917092011180003นาง น้ำฝน ขาวนุ่น                                 8815-9296           2021-5341                               07821151CCSH       0000001678700000                                                                             
D000029006057601827917092011182448วินาพร ทองคลองไทร                                 4857-9994           6321-6353                               07200370CCSH       0000001790300000                                                                             
T000030006057601827900000000000000000000000042772800000028                                                                                                                                                                                                      
