H0000010060576018279บริษัท ไทเอซ สิสซิ่ง จำกัด              18102011TALHO                                                                                                                                                                                       
D000002006057601827918102011083748นางสาวนภารัตน์ ปิมปา                              88868899            45210354                                01720559CCSH       0000002708600000                                                                             
D000003006057601827918102011084139นายอิทธิโชติ ทัดเทียม ทว 2218                     8828-8897           8221-2351                               00940109CCSH       0000001972900000                                                                             
D000004006057601827918102011092343นาย อนุกูล แก้ววิเชียร ทว 7783                    8866-9695           3721-7358                               01921386CCSH       0000001884200000                                                                             
D000005006057601827918102011100618นายไกล วงค์วาร                                    88539299            107155071                               05236699CCSH       0000000862000000                                                                             
D000006006057601827918102011101537นายสนิท ดอดกระโทก                                 88369195            22218334                                01900020CCSH       0000000954500000                                                                             
D000007006057601827918102011102532นายสุรพล  อยู่หาญ มจ9508                          88878299            85319060                                00330234CCSH       0000001230000000                                                                             
D000008006057601827918102011104302นายประสริฐ แพงจันทร์ศรี ทศ 1319                   88269598            93211361                                04580699CCSH       0000002173000000                                                                             
D000009006057601827918102011105927นายเฉลิมชัย  จันทร์งาม                            8898-9693           6421-5343                               01931056CCSH       0000001566000000                                                                             
D000010006057601827918102011111413นายบุญเที่ยง  บุญผ่อง มฉ 1297                     8828-9397           7231-1079                               04670988CCSH       0000001101300000                                                                             
D000011006057601827918102011111706นาย วีระศักดิ์ อินจันทึก มฉ5798                   8897-9980           8731-5079                               02590600CCSH       0000000255800000                                                                             
D000012006057601827918102011111857มะรินทร์ พรมโลกา ทว4756                           88579587            67214355                                00470517CCSH       0000001912900000                                                                             
D000013006057601827918102011113007พิรภัทรา พรมสุรินทร์                              8887-9792           0921-7358                               06991739CCSH       0000001884200000                                                                             
D000014006057601827918102011113328นายอนุสรณ์ วารีน้อย                               88859795            84213317                                00910229CCLQ537004100000009951000040766                                                                         
D000015006057601827918102011113605นายพงษ์ศักดิ์ บริบูรณ์ ทว 5397                    8817-9686           7321-5359                               04580699CCSH       0000001897900000                                                                             
D000016006057601827918102011113650นายพงษ์ศักดิ์ บริบูรณ์ ทศ 1318                    8836-9398           8321-1361                               04580699CCSH       0000001990000000                                                                             
D000017006057601827918102011122210นาย สมพงษ์ เครือพัฒน์ ทว 9286                     4877-9990           6221-9358                               10900089CCSH       0000001799200000                                                                             
D000018006057601827918102011122310นาย สมพงษ์ เครือพัฒน์ ทว 9290                     8807-9190           0221-9359                               10900089CCSH       0000001799200000                                                                             
D000019006057601827918102011123039นายบุญสม สุขเล่ห์                                 88379998            38313076                                03833635CCSH       0000001734300000                                                                             
D000020006057601827918102011124057นายวิสูตร  ศรีพงษ์สุทธิ์   ทล 1400                8839-9790           0421-1340                               04670545CCSH       0000001434200000                                                                             
D000021006057601827918102011124411น.ส.ประสงค์ เที่ยงสันเทียะ ทม4630                 88559898            06214313                                10810269CCSH       0000000247000000                                                                             
D000022006057601827918102011125455นายสมเกียรติ สีธงชัยรุ่งโรจน์  ทย3148             8846-9197           8121-3324                               07931067CCSH       0000001252000000                                                                             
D000023006057601827918102011125645นายสรรเสริญ สีธงชัยรุ่งโรจน์ ทล 5168              8836-8797           8121-5346                               07931067CCSH       0000001010600000                                                                             
D000024006057601827918102011125830นายสรรเสริญ สีธงชัยรุ่งโรจน์  ทย 7858             8806-8298           8821-7325                               07931067CCSH       0000001091500000                                                                             
D000025006057601827918102011130055นายสุวัฒน์ ตั้งตระกูล                             88501899            104123798                               09761108CCSH       0000001867300000                                                                             
D000026006057601827918102011130651นางวินาพร  ทองคลองไทร ทว6336                      88079894            63216353                                11520390CCSH       0000001790200000                                                                             
D000027006057601827918102011130919นางสาวพวงเพ็ญ ศริพละ ทว 3549                      88879997            95213354                                04580699CCSH       0000002116700000                                                                             
D000028006057601827918102011131308นางสาว  ศิริพร  ปดิฐพร  ทล 2291                   8829-8399           1221-2349                               01980820CCSH       0000000960000000                                                                             
D000029006057601827918102011134828นาย นรินทร์ ร่มลำดวน                              88069297            40210320                                01370194CCSH       0000002155700000                                                                             
D000030006057601827918102011135113นายอรัญ ขาวเนตร                                   88879794            48215333                                00650260CCSH       0000001670000000                                                                             
D000031006057601827918102011135214นายอรัญ ขาวเนตร                                   88269898            83212339                                00650260CCSH       0000001567500000                                                                             
D000032006057601827918102011140220นางสิริอร  ศรีกิ้ม                                8835-9394           7021-9334                               05756198CCSH       0000000727600000                                                                             
D000033006057601827918102011140728นาย สมชัย  ไทยสง่า ทร6345                         8846-8599           5321-6334                               04880528CCSH       0000001414800000                                                                             
D000034006057601827918102011141221นายสุรศักดิ์ อินทศร ทศ 4057                       8826-9292           7021-4365                               04580699CCSH       0000001752800000                                                                             
D000035006057601827918102011141316นางอุบลรัตน์ บัวเพชร ทศ4094                       8886-9192           4021-4369                               02610535CCSH       0000002346000000                                                                             
D000036006057601827918102011141421นายสมนึก เจริญโชติตะวัน มฉ 2203                   88489892            32312070                                04585612CCSH       0000001734300000                                                                             
D000037006057601827918102011141919นายวิโรจน์ แก่นจันทร์                             8886-9493           1931-6062                               00560501CCSH       0000001062400000                                                                             
D000038006057601827918102011141941จำนงค์ โพธิจักร                                   88569795            10213324                                03150218CCSH       0000009349900000                                                                             
D000039006057601827918102011142037นาย ปรีชา เชื้อหมอ ทว9753                         88578099            37219355                                10070203CCSH       0000001515300000                                                                             
D000040006057601827918102011142141นายสมชาติ  กวดนอก  ทศ9169                         88548889            104116063           084-0992016         08690033CCSH       0000001602500000                                                                             
D000041006057601827918102011142318นิยม คนขยัน                                       88069397            99319021                                10365296CCSH       0000000834500000                                                                             
D000042006057601827918102011142717นายวิวัฒน์ ขันติพงษ์ ทว 7699                      88479692            96217359                                07930240CCSH       0000001833500000                                                                             
D000043006057601827918102011142900นายณัฐนนท์ นมนาน                                  88788989            87219344                                11060268CCSH       0000001700000000                                                                             
D000044006057601827918102011143157นายสามารถ  พรมศักดิ์ ทย3770                       88188689            07213327                                08401304CCSH       0000001104300000                                                                             
D000045006057601827918102011144624นาย โชคชัย  สนธิ์ชัยสกุล ทว 3503                  8887-9688           3521-3350                               02590608CCSH       0000001756700000                                                                             
D000046006057601827918102011145235นางสุวีรยา นาสวน  ทศ 2716                         88469596            67212361                                05670558CCSH       0000000235500000                                                                             
D000047006057601827918102011145303นายอภิศักดิ์ ลือเมือง ทร5532                      88868897            25215333                                01481588CCSH       0000001198400000                                                                             
D000048006057601827918102011145347นายเสกสรร นาสวน  ทศ 2861                          88569195            18212366                                05670558CCSH       0000001194400000                                                                             
D000049006057601827918102011145613นายวิทยา แซ่จึง ทว 5505                           8887-9995           5521-5350                               00650326CCSH       0000002185000000                                                                             
D000050006057601827918102011171240นาง วันพร องค์ศิริพร                              8816-9994           1321-3323                               10990511CCSH       0000000922800000                                                                             
D000051006057601827918102011172513นางสาว บังอร บูระพิน                              88559886            22218367                                09621011CCSH       0000000301500000                                                                             
D000052006057601827918102011174117สุรัศ ศรีหาเลิศ                                   88557697            36211354                                09761108CCSH       0000001799200000                                                                             
D000053006057601827918102011175806นายสุวิทย์  กองทน  ทร5878                         88578898            88215337            084-6632707         08690033CCSH       0000001405700000                                                                             
D000054006057601827918102011180428นางสุภาพร เดชวรรณ                                 8807-9692           2721-7354                               05690216CCSH       0000002174600000                                                                             
D000055006057601827918102011180636นายวินัย  ผลดี  ทว 7638                           8867-9792           8621-7353                               10250225CCSH       0000001982000000                                                                             
D000056006057601827918102011185651นายธันวา ณะ ธรรม ทร5231                           8807-9096           1221-5333                               11522040CCSH       0000001346800000                                                                             
D000057006057601827918102011192026มณีรัตน์ ชูมณี ทว 9810                            88078999            08219351                                07660694CCSH       0000001700000000                                                                             
T000058006057601827900000000000000000000000091064300000056                                                                                                                                                                                                      
