H0000010060576018279บริษัท ไทเอซ สิสซิ่ง จำกัด              08092011TALHO                                                                                                                                                                                       
D000002006057601827908092011084135นางสาวสังวาลย์ พูลเต่า ทศ684                      88978597            46210368                                00940109CCSH       0000000985000000                                                                             
D000003006057601827908092011085215นาย ทนงศักดิ์  คงแก้ว ทล 4327                     8848-9597           7321-4342                               01951095CCSH       0000001275700000                                                                             
D000004006057601827908092011085402นายทนงศักดิ์  คงแก้ว ทล 4326                      8838-9597           6321-4342                               01951095CCSH       0000001275700000                                                                             
D000005006057601827908092011092256นาย ไพรัช  เข็มหนู  ทว6050                        8867-9295           0021-6355                               01610582CCSH       0000001799200000                                                                             
D000006006057601827908092011092848นางสาวเพชรมณี  สิงห์วิชัย                         88789894            87217326                                00550896CCSH       0000000034300000                                                                             
D000007006057601827908092011101007นายชัยโรจน์ เพชรพันธศักดิ์                        88879092            50218353                                00640403CCSH       0000001799200000                                                                             
D000008006057601827908092011101923จ.ส.ต. จรัส อินบุตร ทล 1779                       88799290            97211347                                00600151CCSH       0000001665500000                                                                             
D000009006057601827908092011104959นางสุภาภรณ์ อธิคมรัตนกุล ทล3                      88398398            30210340                                10660615CCSH       0000001652000000                                                                             
D000010006057601827908092011105629น.ส.อิงอร เอี่ยมวิไล                              8818-8988           7121-2352                               02490052CCSH       0000001700000000                                                                             
D000011006057601827908092011110042สมบูรณ์ คาทอง                                     88479495            79215353                                00911062CCSH       0000001970500000                                                                             
D000012006057601827908092011110258นายธันยา  บุญเพิ่ม                                88069998            73211364                                11520515CCSH       0000001884200000                                                                             
D000013006057601827908092011110713นายบัณฑิต  เลาะวิเศษ                              88199291            32211340            0837828285          08770142CCSH       0000000560300000                                                                             
D000014006057601827908092011111656นาย รวมชัย นาคะสถิตย์ ทศ 1146                     8816-9598           6121-1364                               04881100CCSH       0000001587900000                                                                             
D000015006057601827908092011111928นายราเชนทร์ จันทร์ศรีเมือง                        8858-9291           4021-8340                               01231109CCSH       0000001856800000                                                                             
D000016006057601827908092011113842นายสุชาติ จันทร์เสวก                              8816-9893           5921-8314                               07110043CCSH       0000001159200000                                                                             
D000017006057601827908092011114440นาย อนุสรณ์  วารีน้อย  ทย372                      88278299            23210327                                01781712CCSH       0000001455200000                                                                             
D000018006057601827908092011120407นายชำนาญ สินสำอางค์ ทว8504                        88279191            45218350                                04950176CCSH       0000001953000000                                                                             
D000019006057601827908092011121054นายสายธาร พันธ์ศรี                                8805-9498           5221-7336                               01521090CCSH       0000000030000000                                                                             
D000020006057601827908092011121325นายสุริยันต์ ทองศรีโพธิ์                          88577897            21219348                                05670558CCSH       0000001838900000                                                                             
D000021006057601827908092011122915นางสาวอรวรรณ ศรีสุวรรณเกศ                         88789490            22218343                                09760107CCSH       0000000480000000                                                                             
D000022006057601827908092011123606นางสาว นงนุช กาฬภักดี ทว78                        8828-8099           8021-0357                               04650095CCSH       0000001700000000                                                                             
D000023006057601827908092011123756ประจวบ เพ็งธรรม                                   8876-9490           6021-5367                               00530428CCSH       0000001856500000                                                                             
D000024006057601827908092011124015นายมงคล   ปราบภัย                                 88659597            46214352                                05756198CCSH       0000001617000000                                                                             
D000025006057601827908092011124804นายลำดวน วงสา ทล2832                              88968799            28212343                                11520390CCSH       0000001368400000                                                                             
D000026006057601827908092011124939นายประจักษ์ เวชปาน                                88369791            63215317                                01980916CCSH       0000000939800000                                                                             
D000027006057601827908092011125249นายอภิวัฒน์  เครือวงค์  ทว 8586                   8827-9781           6521-8358                               11300791CCSH       0000000100000000                                                                             
D000028006057601827908092011130932นายสมนึก เจริญโชติตะวัน มฉ 2203                   8848-9892           3231-2070                               04580699CCSH       0000001788500000                                                                             
D000029006057601827908092011131043นาย อนันต์  เปสโล  มฉ 1360                        8808-9497           0331-1076                               04690052CCSH       0000000034300000                                                                             
D000030006057601827908092011131239นางสาววิไลวรรณ เครือบุตร ทล1131                   8897-9786           1121-1343                               05970062CCSH       0000001550700000                                                                             
D000031006057601827908092011131259นาย อนันต์  เปสโล  มฉ 1360                        8808-9497           0331-1076                               04690052CCSH       0000001750000000                                                                             
D000032006057601827908092011131307นางสาวบัวเครือ  ริมเพชร                           88778398            59219358                                04824690CCSH       0000001768500000                                                                             
D000033006057601827908092011131802นาย อิทธิพงศ์ อินทรีย์                            8888-9781           9731-2076                               03260689CCSH       0000001800000000                                                                             
D000034006057601827908092011132958นายศรีทน  กองงาม  มฉ5335                          8817-9093           5331-5073                               08760057CCSH       0000002204000000                                                                             
D000035006057601827908092011133835นายณฐพร พันมะลิ                                   8886-9894           6921-5324           ทย 5946             01770894CCSH       0000001069600000                                                                             
D000036006057601827908092011140902ชาตรี อินทรศักดิ์                                 88289297            35214347            ทล 4573             10320321CCSH       0000001665500000                                                                             
D000037006057601827908092011141033นายสมเกียรติ สีธงชัยรุ่งโรจน์ ทศ2343              88469792            33212364                                07930240CCSH       0000001132000000                                                                             
D000038006057601827908092011141202นายสรรเสริญ สีธงชัยรุ่งโรจน์ ทย 7860              88859998            08217326                                07930240CCSH       0000001010600000                                                                             
D000039006057601827908092011141329นายสมเกียรติ สีธงชัยรุ่งโรจน์ ทพ 3098             88178597            80213289                                07930240CCSH       0000001226300000                                                                             
D000040006057601827908092011141524นาย พงษ์เกียรติ บุญเส็ง                           8895-9696           5721-7310                               00340753CCSH       0000001550000000                                                                             
D000041006057601827908092011141551นายสมเกียรติ สีธงชัยรุ่งโรจน์ ทย 6955             88469694            59216325                                07930240CCSH       0000001159200000                                                                             
D000042006057601827908092011142940นายณรงค์  ภู่กรุต ทศ 8418                         8838-9395           8421-83261                              07961036CCSH       0000002632000000                                                                             
D000043006057601827908092011144411นาย วิทยา แซ่จึง ทล 5945                          8807-7797           5921-5344                               00651478CCSH       0000001776800000                                                                             
D000044006057601827908092011144554นางสาว ไพจิตต์ กีรติพินิจ ทย 7603                 88479798            36217320                                02560706CCSH       0000001383600000                                                                             
D000045006057601827908092011145538นาง สำรวย เดชเถร ทศ 9474                          88535199            104116249                               07930240CCSH       0000001867300000                                                                             
D000046006057601827908092011145634นาย แดนชัย  ศรีพรม                                88188198            81211357                                00910199CCSH       0000001561200000                                                                             
D000047006057601827908092011145752นาย มนัส สมพงษ์ ทล7792                            88289680            27217349                                01370194CCSH       0000001577500000                                                                             
D000048006057601827908092011151054นาย ประเสริฐ แพงจันทร์ศรี ทศ 1319                 8826-9598           9321-1361                               04581882CCSH       0000002217300000                                                                             
D000049006057601827908092011151326นายศักดิ์ชัย นิยมนา                               88069792            54427020                                04692643CCSH       0000000352000000                                                                             
D000050006057601827908092011155558นางสาวมลิกา สายที                                 8867-9396           1921-4352                               10320746CCSH       0000001679300000                                                                             
D000051006057601827908092011171906นายกนกพล คล้ายจินดา ทว8499                        7747-9391           9421-8359                               11520390CCSH       0000003349300000                                                                             
D000052006057601827908092011172723นาย ไพรสน คำอ่อน ทศ 6393                          4856-8997           3321-6369                               09741083CCSH       0000000300000000                                                                             
D000053006057601827908092011173002นาย ไพรสน คำอ่อน ทศ 6393                          8876-8697           3321-6369                               09741083CCSH       0000001874000000                                                                             
D000054006057601827908092011180609เศรษฐพงศ์                                         8868-9892           0621-8318                               04930773CCSH       0000000719000000                                                                             
D000055006057601827908092011185203นายวิทยา ภิราษร                                   8878-9191           7421-7349                               10661140CCSH       0000001700000000                                                                             
T000056006057601827900000000000000000000000077242800000054                                                                                                                                                                                                      
