H0000010060576018279บริษัท ไทเอซ สิสซิ่ง จำกัด              27102011TALHO                                                                                                                                                                                       
D000002006057601827927102011092640ทีระชาติ ภิญโญ                                    8806-8499           7321-4364                               00243534CCSH       0000001748600000                                                                             
D000003006057601827927102011102215นายจรัล เผยสกุล                                   88669595            77212361                                02580601CCSH       0000001918500000                                                                             
D000004006057601827927102011102738นายสุรศักดิ์ อินทศร ทว 9592                       88678399            25219359                                04580699CCSH       0000002162000000                                                                             
D000005006057601827927102011103742นาย ทองดี  สุดหล้า มง 4259                        8896-8397           9231-4055                               04148681CCSH       0000001000000000                                                                             
D000006006057601827927102011104014น.ส.วีณา  วงศ์ศิริ                                8847-9591           0321-8352                               11140161CCSH       0000001884200000                                                                             
D000007006057601827927102011104156ประยุทธ ศรีอำนาจ                                  88507699            100104553                               00480616CCSH       0000001908400000                                                                             
D000008006057601827927102011105603นายแพน ชนะพาล                                     88769695            43317071                                05760932CCSH       0000001705000000                                                                             
D000009006057601827927102011105953นายบวร วัญเพ็ญ                                    8828-8698           6821-0352                               02120805CCSH       0000001884200000                                                                             
D000010006057601827927102011110758นายสุรัตน์ จิตตนาค ทล9440                         88789190            04219344                                00820726CCSH       0000001756800000                                                                             
D000011006057601827927102011110816นางลำยอง แพงจันทร์ศรี มจ 6323                     88535799            107123360                               04580699CCSH       0000001691300000                                                                             
D000012006057601827927102011113141จุลพล ทองอ่วมใหญ่                                 8835-9795           7221-8368                               02464901CCSH       0000001812300000                                                                             
D000013006057601827927102011114620นายณรงค์ บุญพิศาล ทม6073                          8847-9190           30216317                                11820687CCSH       0000001350000000                                                                             
D000014006057601827927102011115158นายสวัสดิ์ คูณพรม ทร.4674                         8886-9390           4621-4337                               00201387CCSH       0000000674300000                                                                             
D000015006057601827927102011115258นางสาวพิรุณรัตน์ ยงท้วม                           88079390            72219354                                09621011CCSH       0000001902200000                                                                             
D000016006057601827927102011121745นาย ทิพย์มนต์ สวนไพรินทร์                         88359698            24218352            ทว 8422             01921386CCSH       0000001914800000                                                                             
D000017006057601827927102011122547นายสิริศักดิ์ วสิษฐ์บุญญาธร                       8865-9797           5221-7367                               11700206CCSH       0000001681240000                                                                             
D000018006057601827927102011123210นางศุภากร สมสุภาพ                                 88998398            03212349                                06230870CCSH       0000001616600000                                                                             
D000019006057601827927102011123921ชลธิชา  พญาแก้ว                                   88368997            22216364                                10990991CCSH       0000001592300000                                                                             
D000020006057601827927102011130042วิรัตน์ อมรนิรุตต์ พท2756                         8887-8797           6728-2215                               01990606CCSH       0000001105700000                                                                             
D000021006057601827927102011131146นางสาวศิริกานดา  ทานุรัตน์  ทศ 2135               8886-9796           5121-2363                               04690052CCSH       0000001799200000                                                                             
D000022006057601827927102011132221ไพฑูรย์ วันเชียง ทล4128                           8878-9997           8121-4342                               08001096CCSH       0000001650000000                                                                             
D000023006057601827927102011132901จ.ส.อ.สมพิศ โหมดเทศ                               8836-9294           7121-5341                               04660090CCSH       0000001518800000                                                                             
D000024006057601827927102011134101นาง นฤมล ฟ้าอรุณ ทว 2768                          88679798            87212356                                05700767CCSH       0000001432800000                                                                             
D000025006057601827927102011134109นาย อุทัย การเกษ                                  88578197            82216324                                08450262CCSH       0000001067000000                                                                             
D000026006057601827927102011134428ยุทธพงศ์ เพิ่มพรพิทักษ์ ทร 1695                   88679393            56211339                                01990942CCSH       0000001580000000                                                                             
D000027006057601827927102011134953นายวรัฐ นบนอบ มง 2846                             88540299            107021122                               00600151CCSH       0000000876100000                                                                             
D000028006057601827927102011135422ด.ต.สมทัย องอาจ ทศ2163                            88369896            31212366                                03078194CCSH       0000002090000000                                                                             
D000029006057601827927102011135548นายกิตติศักดิ์ ร่ำรวย                             88479691            81218357                                08690335CCSH       0000001918500000                                                                             
D000030006057601827927102011135557KAMONWAN  S.                                      88279795            67215354                                08510239CCSH       0000001886200000                                                                             
D000031006057601827927102011141837นายสง่า ไชยคำมิ่ง                                 8897-9694           7321-6354                               11770094CCSH       0000001515300000                                                                             
D000032006057601827927102011144830นาย กึ๋ม  พาดขุนทด                                88088499            07219340                                08550648CCSH       0000000700000000                                                                             
D000033006057601827927102011145339ด.ต. สุวนัย เสาศิริ วศ4499                        8846-9890           9435-4369                               04781103CCSH       0000000987200000                                                                             
D000034006057601827927102011150052นายสุชาติ แก้วดอนรี                               8879-8499           3021-2346           ทล2063              02540020CCSH       0000001665500000                                                                             
D000035006057601827927102011152559นาย วีระ ยุบลพริ้ง                                8836-9887           9521-6358                               00821044CCSH       0000001550000000                                                                             
D000036006057601827927102011155543ประทุม สุขลาภ                                     8806 9390           3821 4324           ทย 4843             10010278CCSH       0000000995100000                                                                             
D000037006057601827927102011161813นาย สมาน ปัญญาดี มง3920                           8827-9595           0931-3052                               08000242CCSH       0000000808500000                                                                             
D000038006057601827927102011171728นายสมเหมาะ จันทร์ทิพย์                            8846-9294           5421-8311                               05700127CCSH       0000000710000000                                                                             
D000039006057601827927102011172209อนุสรณ์  วารีน้อย                                 8896-8599           9321-9310           ทม 9309             07990132CCSH       0000002496700000                                                                             
D000040006057601827927102011175246นายธีรศักดิ์   ตั้งวิรุฬห์รัตน์                   88279596            27214355                                08553235CCSH       0000001918500000                                                                             
T000041006057601827900000000000000000000000060473840000039                                                                                                                                                                                                      
