H0000010060576018279บริษัท ไทเอซ สิสซิ่ง จำกัด              01122011TALHO                                                                                                                                                                                       
D000002006057601827901122011084151นางสาวพิรุณรัตน์ ยงท้วม                           88079390            72219354                                07220037CCSH       0000001940000000                                                                             
D000003006057601827901122011090538นางสาวชื่นใจ ศิริคุณ                              88505999            107149438                               02610862CCSH       0000001165100000                                                                             
D000004006057601827901122011090702นางสาวชื่นใจ ศิริคุณ                              88559997            15216338                                02610862CCSH       0000001159000000                                                                             
D000005006057601827901122011092326นาย ชาญชัย  งามวิไลสมศักดิ์                       8870-8098           6121-5338                               00620222CCSH       0000000495500000                                                                             
D000006006057601827901122011092644นางจันตรี ชาภู่พวง                                88500199            107149387                               00970119CCSH       0000001043300000                                                                             
D000007006057601827901122011093008นายบรรจง สนิท ทล 7688                             8878-9881           8621-7348                               04991118CCSH       0000001800000000                                                                             
D000008006057601827901122011095055นางสาวดวงพร ภาระจ่า ทศ7701                        88759696            17217360                                02530836CCSH       0000002042700000                                                                             
D000009006057601827901122011095335นายสมหมาย  พืชสิงห์  ทย4633                       8831-8289           3621-4323                               06920406CCSH       0000000400000000                                                                             
D000010006057601827901122011095928นายวีระศักดิ์ สีสันต์                             88688499            25219332                                00830604CCSH       0000001863400000                                                                             
D000011006057601827901122011101954พรทิพย์   ใจตรง                                   8817-9593           2921-6356           ทว 6962             00651473CCSH       0000004784300000                                                                             
D000012006057601827901122011103950นาย วินัย ผลดี                                    88979395            60218337            ทร8076              10250012CCSH       0000002049400000                                                                             
D000013006057601827901122011104133นาย วินัย ผลดี                                    88279784            38216355            ทว6853              10250012CCSH       0000000030000000                                                                             
D000014006057601827901122011110347นาง ผานิต จันทร์เมฆา                              8846-7297           7621-0353                               07270038CCSH       0000000316500000                                                                             
D000015006057601827901122011110437นายวุฒิชัย มาตชะรา                                88549499            104115407                               02930775CCSH       0000001901600000                                                                             
D000016006057601827901122011111509นายสุพล สืบดี ทย4956                              88789397            69214325                                07960037CCSH       0000001275500000                                                                             
D000017006057601827901122011112010พ.ต.ท.จิตติณัติ รักชาติ ทศ4443                    8816-9492           3421-4364                               04780201CCSH       0000002083900000                                                                             
D000018006057601827901122011112126นางสมฤทัย บุญถนอมจิต ทร 994                       88588998            107124356                               04580699CCSH       0000000908200000                                                                             
D000019006057601827901122011112133พ.ต.ท.จิตติณัติ รักชาติ ทศ5445                    8846-8299           5421-5364                               04780201CCSH       0000002200000000                                                                             
D000020006057601827901122011112257พ.ต.ท.จิตติณัติ รักชาติ  ทศ 6565                  8856-8298           5521-6366                               04780201CCSH       0000002248300000                                                                             
D000021006057601827901122011113257นายอนันต์ พูลแสวง ทว5768                          8857-9695           8721-5356                               06870259CCSH       0000001549600000                                                                             
D000022006057601827901122011114543นาย กิตติศักดิ์ ธรรมรัตน์ศิวะ                     88068998            53317056                                11630448CCSH       0000001080000000                                                                             
D000023006057601827901122011114621กฤษฎา แก้สพารา                                    88759986            52218360                                01720543CCSH       0000001798500000                                                                             
D000024006057601827901122011115812นางเข็มทอง สงเคราะห์  ทว 7880                     8857-9492           0821-7358                               04600072CCSH       0000001515300000                                                                             
D000025006057601827901122011115935นายวานิช  สงเคราะห์ มฉ1965                        8808-9294           5931-1076                               04600072CCSH       0000001530800000                                                                             
D000026006057601827901122011122207ชาญศักดิ์ สาระ                                    8806-9994           3031-5050           มง 5003             05750020CCSH       0000000700000000                                                                             
D000027006057601827901122011122817นาย ไพบูลย์  วิทิตกนกปรีดา  ทพ9736                88768198            67219283                                04650044CCSH       0000001052200000                                                                             
D000028006057601827901122011123009น.ส.สมร สมสุภาพ                                   88589497            75210333                                06232183CCSH       0000001702900000                                                                             
D000029006057601827901122011125409พลูพิณ เขียวแดง                                   88079981            55315079                                01890216CCSH       0000001679300000                                                                             
D000030006057601827901122011125423นายชำนาญ สินสำอางค์ ทย1358                        88519199            107093077                               04950176CCSH       0000001389000000                                                                             
D000031006057601827901122011125805ชูเกียรติ   โควเนตร                               8858-8897           3721-1353           ทว 1733             00651473CCSH       0000000809000000                                                                             
D000032006057601827901122011125816นายเผด็จ ยินดีขันธ์                               8889-8598           5521-2346                               01040303CCSH       0000001731800000                                                                             
D000033006057601827901122011131221นายประสิทธิ์ คุณากร                               8888-9291           3631-2077                               00760201CCSH       0000002134500000                                                                             
D000034006057601827901122011131920นายทองดี วงษ์จักษุ ทล 630                         88513789            107153172                               04991118CCSH       0000001159200000                                                                             
D000035006057601827901122011132153น.ส.รัชนีกร วรปัญญา ทศ2832                        88569395            28212363                                11734224CCSH       0000000400000000                                                                             
D000036006057601827901122011132902นายเสน่ห์ ยิกุสังข์                               8879-8897           5021-3345                               10294192CCSH       0000000935000000                                                                             
D000037006057601827901122011133410นายเฉลิม สมบัติมี                                 88269193            06219314            ทม9640              03970649CCSH       0000000829300000                                                                             
D000038006057601827901122011140248สุริยา  บุรีรัตน์                                 88869590            62213339                                00390613CCSH       0000001700000000                                                                             
D000039006057601827901122011142004ธงชัย สุขศิริ                                     8871-9597           9021-7313                               01301035CCSH       0000003587300000                                                                             
D000040006057601827901122011142431นส.ไพจิตต์ กีรติพินิจ                             88478199            33216327                                02561757CCSH       0000001087800000                                                                             
D000041006057601827901122011142519คุณ สุบิน งามปานแก้ว ทล4676                       8868-9097           6621-4347                               11250101CCSH       0000001665500000                                                                             
D000042006057601827901122011143137ศิริชัย  จุลแดง  ทล362                            88559195            23210346                                04830668CCSH       0000001216300000                                                                             
D000043006057601827901122011143155นายสุจินต์ ทรงขำ มฉ8181                           8806-9392           1131-8078                               01971063CCSH       0000001791500000                                                                             
D000044006057601827901122011144743นายวิระ  งามจิตร                                  88517989            104123379                               00981066CCSH       0000001716700000                                                                             
D000045006057601827901122011144751นายอาด  ไม้น้อย                                   8808-9091           6721-7348                               04520881CCSH       0000002000000000                                                                             
D000046006057601827901122011145523นางเครือฟ้า  สุขกล้า                              8818-9393           9221-7312           ทม7229              08690266CCSH       0000001589000000                                                                             
D000047006057601827901122011145555นส.เบญจมาศ มูลลาด ทษ 616                          88519299            104122436                               04580699CCSH       0000002080000000                                                                             
D000048006057601827901122011151545ธิดา                                              8807-9993           2821-6359           ทว6892              05750020CCSH       0000001897900000                                                                             
D000049006057601827901122011151928นายพิทักษ์ วุฒิสุรัตน์                            8878-9193           3521-6347                               00700707CCSH       0000001734300000                                                                             
D000050006057601827901122011154313เพียร แดงโร่                                      88279296            03314075                                02540469CCSH       0000001880000000                                                                             
D000051006057601827901122011155124นายวินัย แสงปาน                                   88768998            36318072                                01260388CCSH       0000001102200000                                                                             
D000052006057601827901122011161635พ.จ.อ.สิทธิพงศ์ น้อยแสง 0868245194                88537299            107075093                               07660497CCSH       0000000960000000                                                                             
D000053006057601827901122011161905นายธีระพงษ์ เจริญอินทร์                           88378499            99210369                                07997991CCSH       0000001870000000                                                                             
D000054006057601827901122011165747THAMRONGYOT  M.                                   88859997            84311061                                08510239CCSH       0000000595800000                                                                             
D000055006057601827901122011180322พ.ต.ท. จิตติณัติ รักชาติ ทศ 9993                  88525599            104119885                               04780201CCSH       0000002463100000                                                                             
D000056006057601827901122011180544นาง หวานใจ โกสัลวิตร                              8866-9993           5121-5339                               10990248CCSH       0000000860000000                                                                             
D000057006057601827901122011182426นางสาวปัทมา ทรัพย์กลิ่น                           88979491            44315073                                08690335CCSH       0000001730000000                                                                             
D000058006057601827901122011183008นาย พิเชษฐ์  ศรีหาประทุม                          88779197            30214351                                08400047CCSH       0000002046200000                                                                             
T000059006057601827900000000000000000000000087276700000057                                                                                                                                                                                                      
