H0000010060576018279บริษัท ไทเอซ สิสซิ่ง จำกัด              18092011TALHO                                                                                                                                                                                       
D000002006057601827918092011105520นายบุญเลิศ เทศขำ ปอ2964                           8888-8497           4925-2416                               08691092CCSH       0000000680000000                                                                             
D000003006057601827918092011110332นางคนึงนิตย์ ตะคุณนะ ทว4443                       8847-9687           3421-4354                               11520390CCSH       0000002188700000                                                                             
D000004006057601827918092011120425นิพนธ์ ยั่งยืน ทล 5118                            88289595            81215341                                07580348CCSH       0000001617900000                                                                             
D000005006057601827918092011123358นายศิริชัย  จุลแดง                                88659195            91219368                                04834831CCSH       0000001546700000                                                                             
D000006006057601827918092011133314สมพงษ์ พลพุทธา                                    8808-8097           3521-2358                               07660694CCSH       0000001700000000                                                                             
D000007006057601827918092011134311นายวินัย  ผลดี  ทว 7638                           88679792            86217353                                10250225CCSH       0000001982500000                                                                             
D000008006057601827918092011142716นายณัฐนนท์ นมนาน                                  88788989            87219344                                11060268CCSH       0000001700000000                                                                             
D000009006057601827918092011163433นาย วิทยา  แซ่จึง  ทว 5505                        8887-9995           5521-5350                               09760540CCSH       0000002190000000                                                                             
D000010006057601827918092011163603นาย ธีระเนตร ศุภศฤงคาร ทล 3959                    8818-9298           9921-3345                               05710252CCSH       0000001699800000                                                                             
D000011006057601827918092011165341พวงเพ็ญ ศิริพละ                                   88879997            95213354                                04700261CCSH       0000002116700000                                                                             
D000012006057601827918092011172248รัชชานนท์ ขาวแสง                                  88659494            45217364                                10050128CCSH       0000000989800000                                                                             
D000013006057601827918092011172321นาย อรัญ  ขาวเนตร  ทร 5834                        8887-9794           4821-5333                               09760540CCSH       0000001620600000                                                                             
D000014006057601827918092011172504นาย อรัญ  ขาวเนตร  ทร 2398                        8826-9898           8321-2339                               09760540CCSH       0000001569600000                                                                             
D000015006057601827918092011173215นาย สรรเสริญ สีธงชัยรุ่งโรจน์ ทศ5448              88068797            84215364                                07930240CCSH       0000001010600000                                                                             
D000016006057601827918092011173345นายสรรเสริญ สีธงชัยรุ่งโรจน์  ทย6774              88468597            47216327                                07930240CCSH       0000001010600000                                                                             
D000017006057601827918092011174454นายสมมาด แสงสุขขา                                 88669497            58211367                                04951583CCSH       0000001515300000                                                                             
D000018006057601827918092011174901นาย ทัชพล  โคตรวงษ์  ทย 3720                      8895-9894           0721-3322                               09760540CCSH       0000001550000000                                                                             
D000019006057601827918092011180301นายกิตติชัย ใจกว้าง ทล 9135                       8868-9580           5121-9343                               07650577CCSH       0000001838900000                                                                             
D000020006057601827918092011181832นายโชคชัย สนธิ์ชัยสกุล   ทว3503                   8887-9688           3521-3350                               10320156CCSH       0000001756700000                                                                             
D000021006057601827918092011191626นางสาว นิตยา ศิริพลัด มจ8980                      8815-9595           0931-8068                               11140702CCSH       0000001471700000                                                                             
T000022006057601827900000000000000000000000031756100000020                                                                                                                                                                                                      
