H0000010060576018279บริษัท ไทเอซ สิสซิ่ง จำกัด              05092011TALHO                                                                                                                                                                                       
D000002006057601827905092011083149นายทองม้วน จำนงนิตย์                              88779398            12213352                                01480560CCSH       0000001760000000                                                                             
D000003006057601827905092011083252นายสงกรานต์ แก้วกงพาน                             8837-9291           1321-8359                               00282352CCSH       0000001886500000                                                                             
D000004006057601827905092011083740นายวิชาญ พรมย่อง มช927                            8875-9394           7931-0082                               01970208CCSH       0000001733100000                                                                             
D000005006057601827905092011085123นายทองใบ ดีวัน ทม8675                             88379394            56218317                                04690578CCSH       0000001710000000                                                                             
D000006006057601827905092011085250สัญญพงศ์ เจียรนัยกูร                              88540499            106195012                               10270539CCLQ685134700000018838000250545                                                                         
D000007006057601827905092011085406นางเปรมฤดี สวัสดี ทศ9015                          88544299            104115854                               01746989CCSH       0000002006700000                                                                             
D000008006057601827905092011085949นาย จำลูน ไชยช่วย มฉ8361                          8856-9890           1331-8076                               01780060CCSH       0000001052200000                                                                             
D000009006057601827905092011090300นายเชาว์ พินยะเพียน                               88579986            50215350                                01520196CCSH       0000001155700000                                                                             
D000010006057601827905092011090722นายสัญญา บุญประเทือง  ทว7302                      8847-9093           2321-7350                               02590096CCSH       0000001971500000                                                                             
D000011006057601827905092011093222นางสมพร อินทะแสง  ทว3088                          8897-9398           8021-3358                               02590096CCSH       0000001700000000                                                                             
D000012006057601827905092011093507นายอนิวรรตน์ ไชกองชา                              88178398            61316078                                00771064CCSH       0000001884200000                                                                             
D000013006057601827905092011094046นายนรชัย แพงศร                                    88069996            86217327                                09761108CCSH       0000001271600000                                                                             
D000014006057601827905092011094937นายกิติชัย รัตมาศาณประไพ ทล3441                   88298697            14213344                                01951137CCSH       0000001738400000                                                                             
D000015006057601827905092011095240นายธีระศักดิ์ สุประภากร ทล 7026                   8848-9882           6021-7342                               00980829CCSH       0000001700000000                                                                             
D000016006057601827905092011095722นาย สุพิศ มีลาภ                                   8857-8499           6931-5071                               01101665CCSH       0000001927600000                                                                             
D000017006057601827905092011095735นายพิทักษ์  วุฒิสุรัตน์                           8878-9193           3521-6347                               01987604CCSH       0000001734300000                                                                             
D000018006057601827905092011100319นายยงยุทธ เมฆยงค์ ทร3795                          8857-9786           5721-3339                               08691092CCSH       0000001620000000                                                                             
D000019006057601827905092011100728นายสมเกียรติ สีธงชัยรุ่งโรจน์ ทย 7214             88869995            42217321                                07930240CCSH       0000001483300000                                                                             
D000020006057601827905092011100958นายประกอบ ประทุมศรี  มง3608                       88869895            86313050                                10121673CCSH       0000000820500000                                                                             
D000021006057601827905092011102504ไพทูล รักษาพงษ์                                   8888-8298           0121-1350           ทว1100              05750020CCSH       0000001700000000                                                                             
D000022006057601827905092011102544ถวิล นาโควงค์                                     88179294            74216357                                00754770CCSH       0000001884200000                                                                             
D000023006057601827905092011102836นาย สุรัตน์ สังข์เงิน ทล1367                      88899781            73211346                                01480840CCSH       0000000420000000                                                                             
D000024006057601827905092011102943ลัดดา ผาพิน ทร1254                                88769597            42211335                                10270539CCSH       0000000989800000                                                                             
D000025006057601827905092011104448นายธำรงค์ยศ มะยมหิน                               8885-9997           8431-1061           มจ 1418             08510518CCSH       0000000988200000                                                                             
D000026006057601827905092011104747นายชุน เข็มละทอง มค.9651                          8828-9480           1631-9035                               02610535CCSH       0000000930000000                                                                             
D000027006057601827905092011104806นายวารอง เฉลยโฉม ทพ9918                           8896-9696           8921-9281                               10360725CCSH       0000000863600000                                                                             
D000028006057601827905092011105942นายสมชาย ตราลาภ ทย2948                            8845-9794           8921-2324                               09550887CCSH       0000001540000000                                                                             
D000029006057601827905092011110122นายสมชาย ตราลาภ ทร6892                            88359794            28216339                                09550887CCSH       0000001540000000                                                                             
D000030006057601827905092011110315นายสมชาย ตราลาภ ทม9802                            8825-9794           2821-9310                               09550887CCSH       0000001540000000                                                                             
D000031006057601827905092011110434นายสมชาย ตราลาภ ทล 3862                           8858-9398           2821-3346                               09550887CCSH       0000002040000000                                                                             
D000032006057601827905092011110524น.ส.สุมาลี ศรีอินทร์ ทว5402                       8857-9686           2421-5350                               10320156CCSH       0000001884200000                                                                             
D000033006057601827905092011111019นายอโณทัย สัตยานนท์                               88659886            56212333            ทร2635              08521353CCSH       0000000863600000                                                                             
D000034006057601827905092011111212นายดอเลาะ มูเนาวาเราะห์                           88087497            00215340                                00120152CCSH       0000001494000000                                                                             
D000035006057601827905092011112452ร.อ.รัฐธีร์ น้อยนิตย์                             8838-9392           2421-6347                               01520889CCSH       0000001377800000                                                                             
D000036006057601827905092011113439นายวรวิทย์ ทิพนัด                                 8816-9190           8521-3339           ทร3598              03970649CCSH       0000000663400000                                                                             
D000037006057601827905092011113544สอน นามเหลา                                       8836-9795           3321-3350                               02464901CCSH       0000002074900000                                                                             
D000038006057601827905092011113545นาย โกศล อุทัย  ทว 5267                           8807-9886           7221-5356                               04581882CCSH       0000001970000000                                                                             
D000039006057601827905092011113731นายสมเกียรติ สีธงชัยรุ่งโรจน์                     88469396                                                    01850496CCSH       0000001499700000                                                                             
D000040006057601827905092011114308ธรรมโรจน์  ศรีบุญเลิศ                             8887-9789           8431-4071                               00980495CCSH       0000001356900000                                                                             
D000041006057601827905092011114836นาย วัฒนะ นะจะคูณ มฉ 3915                         88279498            59313071                                10270592CCSH       0000001756700000                                                                             
D000042006057601827905092011114850นางพรทิพา วิเชียรโชติ                             88399390            06211345            ทล1650              06900830CCSH       0000001665500000                                                                             
D000043006057601827905092011114858น.ส. สุกัญญา  จันทร์แจ้ง                          88359986            50213328                                03870036CCSH       0000000587200000                                                                             
D000044006057601827905092011115135นายพงษ์ศักดิ์ บุญมา ทศ 1874                       8896-9197           4821-1367                               11312191CCSH       0000001974500000                                                                             
D000045006057601827905092011115138พอ.หญิง วิภาจรี ณ                                 88299390            36211345            ทล1653              06900830CCSH       0000001665500000                                                                             
D000046006057601827905092011115353นายอำพัน ศรีโพธิ์                                 88589297            26214343                                04600072CCSH       0000001561200000                                                                             
D000047006057601827905092011115406นายกันยา ทับพระ ทย 2328                           8876-9292           8321-2322                               02610535CCSH       0000000636000000                                                                             
D000048006057601827905092011120722นางสาวณัฐธิชา ทาระเวท                             88569597            46211366                                03833635CCSH       0000001861800000                                                                             
D000049006057601827905092011121526นายเมธา   วงษาแก้ว ทล7708                         8818-9981           8721-7340                               03070522CCSH       0000001733400000                                                                             
D000050006057601827905092011121928นาง ภัสรา  เรศสุข  ทศ 226                         8867-8298           6221-0362                               08400047CCSH       0000001827500000                                                                             
D000051006057601827905092011122921นายบรรจง สุวรรณโคต ทย9797                         88879587            77219329                                01951142CCSH       0000001657900000                                                                             
D000052006057601827905092011123318ภัทรานิษฐ์                                        8826-9787           6021-2366                               04810111CCSH       0000001629200000                                                                             
D000053006057601827905092011123648นางประไพวรรณ หวานเย็น                             8827-9397           7921-3358           0                   00210350CCSH       0000001700000000                                                                             
D000054006057601827905092011124334นาย ประสงค์ มาศิริ ทม 5909                        8806-9891           9921-5310                               05700767CCSH       0000001324800000                                                                             
D000055006057601827905092011124434นางระเบียบ พิมทอง                                 88549299            104116175                               01900719CCSH       0000001549300000                                                                             
D000056006057601827905092011124442นาย เพชรพนมพร ดำเนินงาม ทล2067                    8889-8499           7021-2346                               01480840CCSH       0000001665500000                                                                             
D000057006057601827905092011124649น.ส.สายันต์  ศรีวงค์ษา                            88778397            76210368                                00640201CCSH       0000001995000000                                                                             
D000058006057601827905092011130144นายวนัส  วงค์ภา                                   88999790            80310079            มฉ98                00840185CCSH       0000001718300000                                                                             
D000059006057601827905092011131027รัชนี จันทร์แก้ว                                  8809-8399           7121-2347                               01890216CCSH       0000001543800000                                                                             
D000060006057601827905092011131639นางบุญยานิตย์  ศิริรักษ์                          88878397            07217338                                05780305CCSH       0000001527800000                                                                             
D000061006057601827905092011132456นายปิยะ ประทีปช่วง                                88669792            58213360            ทศ3805              00721689CCSH       0000001799200000                                                                             
D000062006057601827905092011133403นาย ทรงชัย ลายลวดแก้ว                             8887-8097           2121-1362                               04730538CCSH       0000001918500000                                                                             
D000063006057601827905092011133910จงศักดิ์ ไชยธานี มฉ9636                           8885-9698           6631-9073                               10373543CCSH       0000001525700000                                                                             
D000064006057601827905092011134611นางอารมณ์ ทองสงค์ ทล3105                          88198797            51213340                                08560792CCSH       0000001665500000                                                                             
D000065006057601827905092011134752ว่าที่ร.ต. ทรงพล เสตถาภิรมย์                      8805-9798           1621-6369                               01731622CCSH       0000002636000000                                                                             
D000066006057601827905092011134918นายสรายุทธ บัวบัณฑิต                              88189396            99214340                                09760107CCSH       0000002013200000                                                                             
D000067006057601827905092011134952ว่าที่ ร.ต. ทรงพล  เสตถาภิรมย์                    8816-8497           9421-6361                               01731622CCSH       0000002636000000                                                                             
D000068006057601827905092011135204ว่าที่ทรงพล  เสตถาภิรมย์                          8875-9294           1821-8369                               01731622CCSH       0000002269900000                                                                             
D000069006057601827905092011135346ว่าที่ ร.ต.ทรงพล  เสตถาภิรมย์                     8865-9294           3821-8369                               01731622CCSH       0000002269900000                                                                             
D000070006057601827905092011135541นายพรชัย  เมตุลา  มจ3440                          8858-8297           0431-3064                               00000370CCSH       0000000200000000                                                                             
D000071006057601827905092011135856นายสานิตย์ ศรีม่วง                                8876-7997           0421-4312                               10293513CCSH       0000001451700000                                                                             
D000072006057601827905092011141214พออ. สมนาม อ่วมประสิทธิ์                          88669894            71213367                                07937931CCSH       0000001893200000                                                                             
D000073006057601827905092011142003นางสาวพวงเพ็ญ ศิริพละ ทว 3144                     8847-9398           4121-3354                               04580699CCSH       0000002116700000                                                                             
D000074006057601827905092011142159นางสาวพวงเพ็ญ ศิริพละ ทว 3143                     8857-9398           3121-3354                               04580699CCSH       0000002116700000                                                                             
D000075006057601827905092011142251นาย ธงชัย เดชธุราทัศน์ ทร308                      8828-7597           8321-0330                               02190075CCSH       0000001395600000                                                                             
D000076006057601827905092011142301นางสาวพวงเพ็ญ ศิริพละ ทว 3142                     8867-9398           2121-3354                               04580699CCSH       0000002116700000                                                                             
D000077006057601827905092011143027เกษศิรินทร์ ด. ทย5400                             8896-9296           0421-5320                               10360281CCSH       0000000897800000                                                                             
D000078006057601827905092011143349นายสุจินต์ ทรงขำ มฉ8181                           8806-9392           1131-8078                               01970387CCSH       0000001721500000                                                                             
D000079006057601827905092011144058นายปรีชา บุญมั่น ทว 8783                          88679790            37218358                                11460299CCSH       0000000960000000                                                                             
D000080006057601827905092011145530สุภาภรณ์ อำนาจเจริญยิ่ง                           88579394            54216353                                01301035CCSH       0000001884200000                                                                             
D000081006057601827905092011150131นายถนอม สารลี                                     88577597            106123228                               10410123CCSH       0000001799200000                                                                             
D000082006057601827905092011150619ประคอง สามงามนิ่ม                                 8827-9193           7521-7355                               00180121CCSH       0000002238300000                                                                             
D000083006057601827905092011151024นางพิไลวรรณ ทองดี                                 8886-9196           1621-2363           ทศ2631              00490656CCSH       0000001515300000                                                                             
D000084006057601827905092011151055นายเสน่ห์ ยิกุสังข์                               8808-9796           3821-4343                               10294192CCSH       0000000064300000                                                                             
D000085006057601827905092011151249นายสมชาย ศรีพลัง ทม3031                           88669787            10213313                                02590600CCSH       0000000701500000                                                                             
D000086006057601827905092011151816นายกิตติศักดิ์ ธรรมรัตน์ศิวะ มง7365               8806-8998           5331-7056                               10130538CCSH       0000001027600000                                                                             
D000087006057601827905092011153313นายสนธยา มีลาดคำ                                  8868-8998           7331-3075                               11730509CCSH       0000001857900000                                                                             
D000088006057601827905092011153327วิระ โพธิ์สองชั้น                                 88969890            98317056                                00190041CCSH       0000002118400000                                                                             
D000089006057601827905092011161326นางสาวสุภาณี ปิ่นรอด ชท6974                       88169398            49086217                                10990539CCSH       0000001161000000                                                                             
D000090006057601827905092011161856นาย ศิวะ นามราชา ทย 3773                          8897-9790           3721-3327                               09621104CCSH       0000001105700000                                                                             
D000091006057601827905092011162318นายธนะสิทธิ์ สัจจสิงห์ ทว2184                     8888-8198           4121-2358                               07653180CCSH       0000001918500000                                                                             
D000092006057601827905092011165109นายณรงค์ชัย อารีรักษ์ ทศ1973                      88669887            39211367                                07960037CCSH       0000000030000000                                                                             
D000093006057601827905092011170622นายธนวัฒน์ รักษาคุณ ทร 9037                       8899-9094           7021-9333                               08510045CCSH       0000000064300000                                                                             
D000094006057601827905092011172337นายวิรัช อ่อนละออ ทว 9083                         8867-9290           3021-9358                               04700190CCSH       0000002146100000                                                                             
D000095006057601827905092011180757นายสรรเสริญ สีธงชัยรุ่งโรจน์ ทพ 9140              88978888            01219284                                07930240CCSH       0000001298300000                                                                             
D000096006057601827905092011180930นายสมเกียรติ สีธงชัยรุ่งโรจน์ ทย 1704             88269196            47211320                                07930240CCSH       0000001495600000                                                                             
D000097006057601827905092011182056นายเถกิงเดช พุกพิบูลย์                            88188397            37313072                                09624492CCSH       0000001884200000                                                                             
D000098006057601827905092011183120นาย ทศพล ผาช้างเผือก ทศ2524                       8816-9296           4521-2362                               08450531CCSH       0000001900000000                                                                             
D000099006057601827905092011183255นาย ไขแสง แสงโสฬส ทย6805                          88479797            58216320                                08450242CCSH       0000001047100000                                                                             
D000100006057601827905092011185622นางสาวมณีรัตน์ ชูมณี                              8807-8999           0821-9351                               07660755CCSH       0000001650000000                                                                             
D000101006057601827905092011193516นาย คำกอง ผดาศรี                                  8877-9495           2431-7054                               10151005CCSH       0000001193500000                                                                             
T000102006057601827900000000000000000000000153945400000100                                                                                                                                                                                                      
