H0000010060576018279บริษัท ไทเอซ สิสซิ่ง จำกัด              13082011TALHO                                                                                                                                                                                       
D000002006057601827913082011102002นางสาวนิ่มนวล ดอกนาค                              8888-9190           1421-8343                               04700568CCSH       0000001924200000                                                                             
D000003006057601827913082011121046นาย วิสุทธิ์ ปามา ทศ2292                          8826-9887           2221-2369                               04950529CCSH       0000001900000000                                                                             
D000004006057601827913082011125448นายอุดม เชาวรินทร์ 6ช-6639                        8866-8797           9606-6083                               07540911CCSH       0000001000000000                                                                             
D000005006057601827913082011132055นายวีระศักดิ์ อินจันทึก                           8897-9980           8731-5079                               10721605CCSH       0000001884200000                                                                             
D000006006057601827913082011140323นายนรชัย แพงศร                                    88698397            64213346                                09761108CCSH       0000001665500000                                                                             
D000007006057601827913082011144225นาย สุรศักดิ์ อินทศร ทว 1327                      88369290            73211352                                07930240CCSH       0000001979500000                                                                             
D000008006057601827913082011151310นาย พิเชษฐ กลั่นประโคน                            8807-9687           4521-4350                               10720567CCSH       0000001700000000                                                                             
D000009006057601827913082011154114นายอดิศักดิ์  หันวิสัย มจ 5576                    88569693            65315067                                01730895CCSH       0000001010600000                                                                             
D000010006057601827913082011154857นางนุชนารถ พิมพ์ทอง ทว1307                        8848-8988           7321-1350                               09740222CCSH       0000002356000000                                                                             
D000011006057601827913082011155100นางนุชนารถ พิมพ์ทอง ทว1308                        8858-8988           8321-1350                               09740222CCSH       0000002356000000                                                                             
D000012006057601827913082011160119นาย ประยูร วิเศษนอก ทศ 4508                       8806-9491           8521-4360                               11520406CCSH       0000001129000000                                                                             
D000013006057601827913082011164551นายสถาพร เมฆแก้ว มง 5772                          8876-8498           2731-5057                               07650138CCSH       0000000372000000                                                                             
D000014006057601827913082011175151นางมีสุข ตุคุณนะ                                  8805-9596           0921-9333                               06840196CCSH       0000001043500000                                                                             
D000015006057601827913082011191249นายสมพร ไกรศรศรี ทศ1644                           8816-9897           4621-1364                               10150884CCSH       0000001650000000                                                                             
D000016006057601827913082011191925SUPRANEE  W.                                      88279491            53218354                                08510239CCSH       0000001207000000                                                                             
T000017006057601827900000000000000000000000023177500000015                                                                                                                                                                                                      
