H0000010060576018279บริษัท ไทเอซ สิสซิ่ง จำกัด              02022012TALHO                                                                                                                                                                                       
D000002006057601827902022012083147นายอนุชิต ปูพบุญ                                  88589090            51219282                                01900719CCSH       0000001517700000                                                                             
D000003006057601827902022012085636นายอำนาจ เจียมเชื่อม ทว 3760                      88179797            07213356                                02530654CCSH       0000001426500000                                                                             
D000004006057601827902022012085913นายชัยกาญน์ น้อยพินิจ                             88259996            30315063                                01860762CCSH       0000002000000000                                                                             
D000005006057601827902022012091925นายสาคร นามใจยา                                   88679397            63211342                                10130550CCSH       0000001580000000                                                                             
D000006006057601827902022012093420นาย  ชัชชัย  ชมชื่น  ทว  4992                     88516789            106135514                               01980820CCSH       0000003310000000                                                                             
D000007006057601827902022012093702นายพงศ์รพี  ปรีชาไพศาลจิต                         88268598            18215366                                09550486CCSH       0000001856500000                                                                             
D000008006057601827902022012094120นางสาว นฤมล ราชอาษา                               88278599            66213334                                01720543CCSH       0000001100000000                                                                             
D000009006057601827902022012095730พ.ต.สะเอื้อน  คชวงค์                              88506799            204012001                               01760442CCSH       0000000869400000                                                                             
D000010006057601827902022012100006นางสาว ฉวีวรรณ สุวรรณวงษ์                         88679882            41218356            ทว8164              10560053CCSH       0000000030000000                                                                             
D000011006057601827902022012100740วิชาญ ปานสุวรรณ                                   88169698            60315057                                10900400CCSH       0000000098500000                                                                             
D000012006057601827902022012101904ภัทรินิษฐ์ ฉัตรมงคลชัย                            88288997            65213338                                09760107CCSH       0000001538600000                                                                             
D000013006057601827902022012103231นส.ฐิติยา  มีนันทพร                               88788397            04212351                                00611358CCSH       0000001884200000                                                                             
D000014006057601827902022012103959นายชายชาญ  งามชื่น มง9622                         8807-9696           2631-9052                               10200754CCSH       0000000871600000                                                                             
D000015006057601827902022012104111นายชายชาญ  งามชื่น ทว 4831                        8887-9596           1821-4353                               10200754CCSH       0000001897300000                                                                             
D000016006057601827902022012104127นาง จำเนียร  ปรีชา ทศ7366                         88759597            63217366                                08550648CCSH       0000001839700000                                                                             
D000017006057601827902022012111211สตอ.สมบัติ สิมหลวง                                88589798            48213342                                11342729CCSH       0000001665500000                                                                             
D000018006057601827902022012111934จ.อ.วรายุ ทองฉิม มฉ6786                           88769497            67316078                                10150069CCSH       0000001506000000                                                                             
D000019006057601827902022012112214นายวิรุฬห์ภพ ศรีงาม                               8880-9198           8221-7323           ทย7238              02684291CCSH       0000000715250000                                                                             
D000020006057601827902022012112326นายวิรุฬห์ภพ ศรีงาม                               8830-9298           3221-7326           ทย7263              02684291CCSH       0000000715250000                                                                             
D000021006057601827902022012113027นายชนะชาติ ทับทิม มจ2058                          88978899            80312065                                00820726CCSH       0000001078400000                                                                             
D000022006057601827902022012113427นายสวรรค์ บุญชัย                                  88506999            107147939                               01238080CCSH       0000000615300000                                                                             
D000023006057601827902022012113550นาย ภานุพงค์ จรมณี                                8878-9394           2921-8316           ทม8962              00570712CCSH       0000001742900000                                                                             
D000024006057601827902022012114401กฤษณะ  ชลภาพ                                      88659595            84214327                                00600804CCSH       0000000954000000                                                                             
D000025006057601827902022012115222นาย เอกชัย  บุรินทะ                               88289494            69213346                                07580556CCSH       0000000301500000                                                                             
D000026006057601827902022012115251นาย เสน่ห์  แย้มสุดใจ  ทว 6057                    8837-9994           7021-6355                               04690052CCSH       0000001000000000                                                                             
D000027006057601827902022012122642นางสาววาสนา จันทร์เพ็ชร  ทน 601                   88511199            104122851                               08560792CCSH       0000002129000000                                                                             
D000028006057601827902022012122738นางสาวสุรทิพย์  อินทรสูต                          88513899            107103711                               05760270CCSH       0000001159200000                                                                             
D000029006057601827902022012122903นาย สมาน เดชะบุญ  ทม 7422                         8875-9993           2421-7312                               04581882CCSH       0000001105700000                                                                             
D000030006057601827902022012123312นายยอด ศรีราชา ทย7815                             8836-7997           5821-7321                               10330064CCSH       0000001811900000                                                                             
D000031006057601827902022012123346ศิริชัย  จุลแดง                                   88559195            23210346                                04830668CCSH       0000001216300000                                                                             
D000032006057601827902022012123737นายสมชาย เอนจินทะ                                 8817-9494           7831-4070                               05761504CCSH       0000001700000000                                                                             
D000033006057601827902022012123827นายบุญมา ล้ำทวีภักดี ทย 2071                      88578899            10212327                                05700496CCSH       0000001050000000                                                                             
D000034006057601827902022012123933นายบุญมา ล้ำทวีภักดี ทย 2620                      88478899            06212322                                05700496CCSH       0000001050000000                                                                             
D000035006057601827902022012124446นายสมพงษ์ ติคำ                                    88503099            000025503                               10720377CCSH       0000001508500000                                                                             
D000036006057601827902022012124609นายสุจินต์ ทรงขำ มฉ8181                           88069392            11318078                                00241780CCSH       0000000030000000                                                                             
D000037006057601827902022012124852นายวิระพันธ์ วงษ์สนธ์                             88576698            107120662                               04700568CCSH       0000001334000000                                                                             
D000038006057601827902022012125303นายประเสริฐ แก้วจั่นเพ็ชร                         88378398            81214332                                06884700CCSH       0000001617800000                                                                             
D000039006057601827902022012130513นายชาญรงค์  ธารีพฤกษ์                             8808-8099           7021-0358                               08670633CCSH       0000001700000000                                                                             
D000040006057601827902022012130633วาสนา สันติสุขสถาพร                               88688297            74212355                                02600520CCSH       0000001850000000                                                                             
D000041006057601827902022012130818นายสมนึก สืบพิลัย ทว7854                          88079392            48217355                                02260861CCSH       0000002116700000                                                                             
D000042006057601827902022012130931นายสมนึก สืบพิลัย ทว7061                          88979393            10217356                                02260861CCSH       0000002116700000                                                                             
D000043006057601827902022012132308นายพงษ์ศักดิ์ แหล่งสนาม ทว9904                    88778798            49219350                                08691092CCSH       0000001884200000                                                                             
D000044006057601827902022012133939สุริยัน ขำดำ                                      88979791            65218338                                01230232CCSH       0000001697800000                                                                             
D000045006057601827902022012134203นางสลิล  มะลิต้น                                  88189995            40210342                                04585612CCSH       0000001678800000                                                                             
D000046006057601827902022012135243นายนิรันทร์ วงษ์จันทร์เพ็ญ ทว8176                 8877-9891           6121-8357                               04780201CCSH       0000001933500000                                                                             
D000047006057601827902022012140707นาย วชิระ  บุญศักดิ์ศรี                           88689981            07312075                                04670086CCSH       0000001848200000                                                                             
D000048006057601827902022012143155นายปรีชา พราวศรี                                  88288798            99210354                                08698691CCSH       0000001930000000                                                                             
D000049006057601827902022012143743นายวิทวัส  เงินมงคล มฉ 4940                       88579593            09314074                                07540593CCSH       0000002019500000                                                                             
D000050006057601827902022012145328อนุรักษ์ รักษาศิริ                                88968597            84216365                                04607752CCSH       0000001874000000                                                                             
D000051006057601827902022012150429นายทรงชัย ลายลวดแก้ว ทศ 1122                      88878097            21211362                                04731091CCSH       0000001918500000                                                                             
D000052006057601827902022012150906สมชาย  ศรีละพรม ทร 1060                           88468998            00211336                                02530516CCSH       0000002862000000                                                                             
D000053006057601827902022012152551นายภูริพัฒน์ มะโรงศรี  ทศ6020                     8896-8598           0021-6362                               00810695CCSH       0000001514700000                                                                             
D000054006057601827902022012152843นาย อัครเดช ขันคำ มฉ 5285                         88479982            52315078                                10270592CCSH       0000000235500000                                                                             
D000055006057601827902022012155833น.ส.นงลักษณ์ จันต๊ะราชา                           88479486            34215355                                00650260CCSH       0000001937000000                                                                             
D000056006057601827902022012162010นายสมเดช แสงสิน ทล 4522                           88189497            25214342                                10270592CCSH       0000001752800000                                                                             
D000057006057601827902022012163605นายจักรชัย ลมัยกุล                                88585998            106121403                               09620092CCSH       0000001688300000                                                                             
D000058006057601827902022012163715นาย จักรชัย ลมัยกุล                               8816-8699           0421-5368                               09620092CCSH       0000002053800000                                                                             
D000059006057601827902022012172356นายพงศ์ศักดิ์  บริบูรณ์                           8857-9495           2921-5354           ทว5942              08690266CCSH       0000001987300000                                                                             
D000060006057601827902022012172533นายนุชนารถ  แจ่มศุภพันธ์                          88269097            61212361            ทศ2116              08690266CCSH       0000001987300000                                                                             
D000061006057601827902022012172730นุชนารถ  แจ่มศุภพันธ์                             8806-7097           1521-3350           ทว3501              08690266CCSH       0000001884200000                                                                             
D000062006057601827902022012172906สุทธิลักษณ์  สาวะโห                               88979895            45215357            ทว5574              08690266CCSH       0000002080000000                                                                             
D000063006057601827902022012172925นางรุ่งอรุณ ภมรจันทร์                             88514889            106202867                               09620092CCSH       0000001450000000                                                                             
D000064006057601827902022012173031นายพงศ์ศักดิ์  บริบูรณ์                           88279486            24215355            ทว5452              08690266CCSH       0000002580000000                                                                             
D000065006057601827902022012174821นายสำราญ  อินไชย                                  88590498            104115266                               08690542CCSH       0000001831300000                                                                             
D000066006057601827902022012181117นายสุรินทร์ บุญมาเลิศ                             88789293            34215348                                10071100CCSH       0000001704100000                                                                             
D000067006057601827902022012183229นาย ณัฏฐพล  พูลสวัสดิ์                            8836-9291           2721-1339                               07540984CCSH       0000002503200000                                                                             
D000068006057601827902022012184034นายพิชยนต์ เปี่ยมทอง ทม1291                       88569991            12211319                                05970617CCSH       0000001348000000                                                                             
T000069006057601827900000000000000000000000103793900000067                                                                                                                                                                                                      
