H0000010060576018279บริษัท ไทเอซ สิสซิ่ง จำกัด              14082011TALHO                                                                                                                                                                                       
D000002006057601827914082011110659เหมราช เนื่องพิมพ์                                88389983            29212342                                10279615CCSH       0000001748600000                                                                             
D000003006057601827914082011113610นายประยูร สุระภา ทล9132                           8878-9480           2121-9343                               10150069CCSH       0000001136600000                                                                             
D000004006057601827914082011114122นายวันเฉลิม เกษตรสินธุ์                           88679487            26214355                                11520403CCSH       0000001918500000                                                                             
D000005006057601827914082011114155นายวันเฉลิม เกษตรสินธุ์                           88579694            10217354                                11520403CCSH       0000001833500000                                                                             
D000006006057601827914082011124803นายประกาศ หลุมทอง ทม 659                          88979394            96210315                                10071091CCSH       0000000860000000                                                                             
D000007006057601827914082011134419นายจักรกริช รอดทอง  ทล4743                        8848-9987           3721-4344                               07680524CCSH       0000001752800000                                                                             
D000008006057601827914082011135519นาย อิสระ สัจจะสรรเสริญ                           8805-9096           1431-0083                               10060150CCSH       0000001846600000                                                                             
D000009006057601827914082011145342นางทนง ศรียางวุฒิ  ทล 9047                        8808-9580           7021-9344                               11041367CCSH       0000002222200000                                                                             
D000010006057601827914082011154754ด.ต.สุวนัย เสาศิริ ทศ 2620                        8866-9986           0621-2362                               04780120CCSH       0000002113200000                                                                             
D000011006057601827914082011163107นางอุบลลักษณ์ โพธิ์แสงทอง                         8876-9291           5721-4367           ทศ 4775             08510518CCSH       0000001856500000                                                                             
D000012006057601827914082011172320รัชชานนท์ ขาวแสง                                  88659494            45217364                                10050128CCSH       0000000989800000                                                                             
D000013006057601827914082011173517สุรศักดิ์  อินทศร                                 8867-9495           6921-5353                               08690542CCSH       0000001987300000                                                                             
D000014006057601827914082011175008นายวชิระ  อยู่โต  รจ 9076                         8815-9894           6033-9067                               04881090CCSH       0000000289800000                                                                             
D000015006057601827914082011192425นายมนัส  สมพงษ์                                   8828-9680           2721-7349                               04930913CCSH       0000001500000000                                                                             
T000016006057601827900000000000000000000000022055400000014                                                                                                                                                                                                      
