H0000010060576018279บริษัท ไทเอซ สิสซิ่ง จำกัด              20122011TALHO                                                                                                                                                                                       
D000002006057601827920122011083949พิรภัทรา                                          88879792            09217358                                06991739CCSH       0000001884200000                                                                             
D000003006057601827920122011084832นายฉัตรชัย  งานไว                                 88574497            107028810                               03991081CCSH       0000001400000000                                                                             
D000004006057601827920122011090835นาย สมชาติ  รัตนสากล                              88318487            52216320                                02161072CCSH       0000000761500000                                                                             
D000005006057601827920122011091728นาง ทิฆัมพร แช่มเกษม  ศศ4668                      88379494            86364366                                00310005CCSH       0000000823900000                                                                             
D000006006057601827920122011100433คุณอำพร  พันธุ์ไพโรจน์                            88516399            104122440                               02617277CCSH       0000001628200000                                                                             
D000007006057601827920122011100615คุณสุรพงษ์ ยารังษี                                88569590            22316065                                03830446CCSH       0000001105700000                                                                             
D000008006057601827920122011101757นายธนภัทร จันทร์หอมกุล ทศ 6816                    8865-9698           6821-6361                               05670406CCSH       0000001940800000                                                                             
D000009006057601827920122011103655นายเกรียงศักดิ์ ทองศรี                            88595798            106150199                               07650724CCSH       0000001800400000                                                                             
D000010006057601827920122011104948คุณอำพร บุนลอด                                    8819-8397           7421-3346                               04690188CCSH       0000001000000000                                                                             
D000011006057601827920122011110012นส.อำนวยพร วารีน้อย                               88569992            67210323                                04553612CCSH       0000001980000000                                                                             
D000012006057601827920122011110229สุกัญญา มีชัย                                     88868597            04216369                                01266669CCSH       0000002661600000                                                                             
D000013006057601827920122011110410นางสาวชูศรี  งามประเสริฐ                          88979981            49214327                                01440888CCSH       0000000865600000                                                                             
D000014006057601827920122011110732นายประพจน์ พิลาดี                                 88504999            104123374                               08770801CCSH       0000002000000000                                                                             
D000015006057601827920122011111202น.ส.พิมพ์ชนก แซ่ตั้ง ทร3463                       88779391            34213336                                01773764CCSH       0000001200000000                                                                             
D000016006057601827920122011113049นายสมพร กาศักดิ์ ทว 4760                          8847-9896           0721-4356                               00330398CCSH       0000001700000000                                                                             
D000017006057601827920122011114114นาย ธนัช กันติ๊บ                                  8816-9692           1421-2333                               00600443CCSH       0000001555600000                                                                             
D000018006057601827920122011114509น.อ.ธวัชชัย วิไลลักษณ์                            88505799            000104558                               00060459CCSH       0000002150000000                                                                             
D000019006057601827920122011114709นาย ทรง อ่อนใจ   ทว 8576                          88579781            65218357                                04581882CCSH       0000001884200000                                                                             
D000020006057601827920122011115046ดวงกมล ห. ทว8526                                  88979881            65218352                                10360281CCSH       0000001700000000                                                                             
D000021006057601827920122011120534นางอุบลลักษณ์  โพธิ์แสงทอง ทศ 4775                88769291            57214367                                04670988CCSH       0000005000000000                                                                             
D000022006057601827920122011120639นายอัครเดช   ขันดำ มฉ5285                         88479982            52315078                                06921923CCSH       0000001799200000                                                                             
D000023006057601827920122011120652รัชนี จันทร์แก้ว                                  88018097            18215322                                01890216CCSH       0000001304500000                                                                             
D000024006057601827920122011120823นายอัครเดช  ขันดำ มฉ5285                          88479982            52315078                                06921923CCSH       0000001799200000                                                                             
D000025006057601827920122011122904นายวรเทพ  ชมดวง  ทว5501                           8817-9995           1521-5350                               04600072CCSH       0000000496500000                                                                             
D000026006057601827920122011124019นางสาวบังอร บูระพิน                               8827-9788           7521-3350                               09550205CCSH       0000000576000000                                                                             
D000027006057601827920122011124725นายบัวลา  ทองขาว                                  88669290            45210364                                01215368CCSH       0000001670000000                                                                             
D000028006057601827920122011130354นายพิทักษ์ วรรณไทย                                88579090            13310060                                04810155CCSH       0000000657700000                                                                             
D000029006057601827920122011132944นายมงคล ทองอยู่  ทว8154                           88679982            41218355                                10410720CCSH       0000001799200000                                                                             
D000030006057601827920122011133914นายบุญเลิศ ทรัพย์เจริญกุล                         88569994            29212363                                02530654CCSH       0000001679300000                                                                             
D000031006057601827920122011134451ถวิล  จำเริญ ทว4078                               88279197            80214357                                07990174CCSH       0000001476800000                                                                             
D000032006057601827920122011134616ถวิล  จำเริญ ทว2774                               88179698            47212357                                07990174CCSH       0000001476800000                                                                             
D000033006057601827920122011134738ถวิล  จำเริญ ทว9391                               88178899            13219359                                07990174CCSH       0000001476800000                                                                             
D000034006057601827920122011135125น.ส.ภิรมย์พร  โสลา                                8898-9897           0121-4344                               05756198CCSH       0000001665500000                                                                             
D000035006057601827920122011135214นิตยา เทพนรินทร์                                  8826-8497           6621-7335                               00640800CCSH       0000001559900000                                                                             
D000036006057601827920122011135517สุนทร  จันทร                                      88679791            61218355                                01900549CCSH       0000001916500000                                                                             
D000037006057601827920122011135537นางศิริ เกียรติเฉลิม                              88504399            107102379                               00600151CCSH       0000001189300000                                                                             
D000038006057601827920122011140237นางสาว วาสนา สุขเกษม มง6319                       8895-9895           9331-6051                               09740391CCSH       0000001033700000                                                                             
D000039006057601827920122011140246นาย วรโชติ  คำเรืองฤทธิ์                          8837-9892           3131-5073           มฉ 5133             01781712CCSH       0000001984000000                                                                             
D000040006057601827920122011140429นาย ปรีดา พิลาแสน ทพ6025                          8846-8697           5021-6282                               09740391CCSH       0000001033700000                                                                             
D000041006057601827920122011142555วัสมล โชติสิงห์                                   88518699            104122412                               04810111CCSH       0000002037200000                                                                             
D000042006057601827920122011143229นายนรชัย แพงศร ทษ1386                             88504989            104125388                               09769761CCSH       0000001867300000                                                                             
D000043006057601827920122011143354นายนรชัย แพงศร ทว 7970                            88779192            09217357                                09769761CCSH       0000001884200000                                                                             
D000044006057601827920122011143718นางสาวจิราพร สายสุวรรณ ทว4650                     88879896            06214355                                08770801CCSH       0000001610300000                                                                             
D000045006057601827920122011143920คุณคล้าย มุจรินทร์ ทพ 9567                        8897-9292           7521-9286                               04710654CCSH       0000001428000000                                                                             
D000046006057601827920122011144937นาย ทศพล ผาช้างเผือก                              88669296            80314078                                05760932CCSH       0000001649600000                                                                             
D000047006057601827920122011145936สมศักดิ์ วังสมอ                                   8886-9391           9021-3334                               01890216CCSH       0000001495600000                                                                             
D000048006057601827920122011150236จักรพันธ์ เลี่ยมรัตน์                             88679794            73216350                                10279615CCSH       0000001675500000                                                                             
D000049006057601827920122011151749นายรุ่งโรจน์ เนาว์กลาง ทม244                      88569392            42210314                                02591097CCSH       0000001083400000                                                                             
D000050006057601827920122011153610นายนิวัฒน์ บุบผาสุพรรณ์                           88189893            85215343                                04880760CCSH       0000001752500000                                                                             
D000051006057601827920122011153936นายบุญสม สุขเล่ห์  มฉ 3863                        88379998            38313076                                04810155CCSH       0000001734300000                                                                             
D000052006057601827920122011154308นางมณฑิรา  ทวีกัลป์                               88789696            87214345                                00960305CCSH       0000001732000000                                                                             
D000053006057601827920122011154747นางสาว นภารัตน์ ปิมปา ทว.544                      8886-8899           4521-0354                               10662136CCSH       0000001903500000                                                                             
D000054006057601827920122011154857นายอนุชา  วงษ์รุ่งเรือง  ป้ายแดง                  88581998            104122005                               08510045CCSH       0000001855300000                                                                             
D000055006057601827920122011161451นายสุรินทร์ ชูวงศ์วาน                             88269592            39312058                                07821151CCSH       0000002704500000                                                                             
D000056006057601827920122011162436นายสฤษดิ์ศักดิ์ พินิจกุลดี                        88769787            40212363                                09760107CCSH       0000001948400000                                                                             
D000057006057601827920122011162825นายมัน  พรมนิมิตร                                 8848-8999           8131-3073                               05760270CCSH       0000001644300000                                                                             
D000058006057601827920122011171836นาย บุญโฮม อนุชาด                                 88525699            107102099                               11331714CCSH       0000000900000000                                                                             
D000059006057601827920122011172406ร.ท.จักรกฤษณ์ เพียรพิจิตร                         88989891            99219356                                05674254CCSH       0000001800000000                                                                             
D000060006057601827920122011172531ร.ท.จักรกฤษณ์ เพียรพิจิตร ทศ9199                  88779998            91219369                                05674254CCSH       0000001760000000                                                                             
D000061006057601827920122011172603นายพิเชษฐ์ ศรีหาประทุม                            88269997            94211369                                08401304CCSH       0000002169600000                                                                             
D000062006057601827920122011173647นายณัฐวุฒิ  คำมุงคุณ  ทศ5108                      88068999            81215360            084-9168422         08690033CCSH       0000001856500000                                                                             
D000063006057601827920122011175852นายนิทัศน์ สิริพุทธวณิชย์ มง7512                  8886-9591           2531-7051                               08691092CCSH       0000000790800000                                                                             
D000064006057601827920122011182342นายประกอบ ทองสะอาด                                88778799            33218311            ทม8313              04930415CCSH       0000001218000000                                                                             
T000065006057601827900000000000000000000000102137100000063                                                                                                                                                                                                      
