H0000010060576018279บริษัท ไทเอซ สิสซิ่ง จำกัด              03122011TALHO                                                                                                                                                                                       
D000002006057601827903122011104612นาย ชนดล นาทาม ทย3486                             8857-9486           6421-3328                               08510017CCSH       0000001156800000                                                                             
D000003006057601827903122011112819อนุ สุริยะ                                        88069596            02211340                                04700261CCSH       0000001784600000                                                                             
D000004006057601827903122011115550นาง ทัศนีย์ ลาภผลเจริญ                            88889280            95217315            ทม7559              10250012CCSH       0000000440000000                                                                             
D000005006057601827903122011120906นางเกสฬา พันจุย                                   88569495            68212366            ทศ2866              10250012CCSH       0000001500700000                                                                             
D000006006057601827903122011121404นาย ชัยโรจน์  เพชรพันธ์ศักดิ์                     88879092            50218353                                08000737CCSH       0000001834500000                                                                             
D000007006057601827903122011124234นายอุดร  สังกระธาตุ                               88188499            09219347                                04700190CCSH       0000001732100000                                                                             
D000008006057601827903122011131719นางจิราพร  ทองร่มโพธิ์ ทว7299                     88979492            92217359                                07620776CCSH       0000001500000000                                                                             
D000009006057601827903122011131823นางจิราพร  ทองร่มดพธิ์ ทว9919                     88078698            99219351                                07620776CCSH       0000001680000000                                                                             
D000010006057601827903122011132512นายคำรณ  ภู่ลา                                    8857-9491           4531-5071                               02501795CCSH       0000001884700000                                                                             
D000011006057601827903122011141452นาย เสกสันต์ ไชยเสนา ทว4674                       88679587            46214357                                10070203CCSH       0000001832500000                                                                             
D000012006057601827903122011143624นายสมนึก  ทองอ่ำ                                  88669393            16213362                                07961036CCSH       0000001799200000                                                                             
D000013006057601827903122011144610อรุณ พงษ์ภักดี                                    88889191            01219280                                04700261CCSH       0000001740000000                                                                             
D000014006057601827903122011151431นายพิชยนต์ เปี่ยมทอง                              8856-9991           1221-1319                               05970554CCSH       0000001348400000                                                                             
D000015006057601827903122011161326นาง ธีรสิริ  พิมพ์ใจชน ทศ8373                     8835-9995           3321-8367                               04880528CCSH       0000001880100000                                                                             
D000016006057601827903122011162117นายสมยศ คูนคร ทล 7414                             88989391            44217341                                01520684CCSH       0000001561200000                                                                             
D000017006057601827903122011162202นาย กิตติศักดิ์  ร่ำรวย  ทว 8178                  88479691            81218357                                04880062CCSH       0000001918500000                                                                             
D000018006057601827903122011165143นางพรเพ็ญ แซ่ก๊วย                                 88289190            04218344                                10720567CCSH       0000001700000000                                                                             
D000019006057601827903122011165222นาย สุรินทร์ บุญมาเลิศ ทล 5483                    88789293            34215348                                08001040CCSH       0000001699900000                                                                             
D000020006057601827903122011165449นายสมสุข ชูกิจรุ่งทรัพย์ ทศ 7005                  88359498            50217360                                11812551CCSH       0000001948200000                                                                             
D000021006057601827903122011165558นางสาว นฤมล ราชอาษา ทร 3646                       8827-8599           6621-3334                               11140083CCSH       0000001100000000                                                                             
D000022006057601827903122011171151นางสาวเสาวรส  จำนงค์ไวย                           88502599            107140020                               04881090CCSH       0000001302400000                                                                             
D000023006057601827903122011172856มานพ  แข็งเขตการณ์ ทศ 1523                        88769997            35211362                                08550664CCSH       0000001884200000                                                                             
D000024006057601827903122011173640นายสุวิทย์  กองทน                                 88578898            88215337            ทร5878              08690266CCSH       0000001446000000                                                                             
D000025006057601827903122011175513นายสมาน พวงพิลา                                   88512199            104122836           025919762           11371371CCSH       0000002483600000                                                                             
D000026006057601827903122011181430นายภานุพงศ์ ผลมาตย์ ทศ1766                        77669797            67211366                                04950529CCSH       0000001643240000                                                                             
T000027006057601827900000000000000000000000040800840000025                                                                                                                                                                                                      
