H0000010060576018279บริษัท ไทเอซ สิสซิ่ง จำกัด              15072011TALHO                                                                                                                                                                                       
D000002006057601827915072011110241นายจิรวัฒน์  ชื่นชม  ทม 4486                      88068599            64214318                                09760114CCSH       0000001092100000                                                                             
D000003006057601827915072011111047นางฐิตาภา เป้าประจำเมือง ทม7560                   8856-8898           0521-7316                               10631143CCSH       0000001498000000                                                                             
D000004006057601827915072011111434นาย จักรชัย ลมัยกุล ทล 7025                       8858-9682           5021-7342                               09621104CCSH       0000001700000000                                                                             
D000005006057601827915072011113655จุไรรัตน์ สุทธิเวช                                88489097            75214347                                10365296CCSH       0000002391700000                                                                             
D000006006057601827915072011115524นายบรรจง สุวรรณโคต  ทย9797                        8887-9587           7721-9329                               08690335CCSH       0000000733300000                                                                             
D000007006057601827915072011115631นาย พิเชษฐ กลั่นประโคน                            8807-9687           4521-4350                               10720567CCSH       0000001700000000                                                                             
D000008006057601827915072011115828ชูชัย จ. มช101                                    8855-9996           1131-0080                               10360281CCSH       0000001832800000                                                                             
D000009006057601827915072011122339ร.ท.จักรกฤษณ์  เพียรพิจิตร  ทว3599                8817-9988           9521-3359                               10360901CCSH       0000001700000000                                                                             
D000010006057601827915072011123630นาง นงคราญ  คำมอญ  ทล7975                         8848-9990           5921-7347           081-9345567         08690033CCSH       0000002036500000                                                                             
D000011006057601827915072011130819นายสอาด  แจ่มสกุล มฉ 2146                         8868-9193           6131-2074                               10130063CCSH       0000001617900000                                                                             
D000012006057601827915072011131950นายสรรเสริญ สีธงชัยรุ่งโรจน์ ทย9321               88168499            13219322                                07930240CCSH       0000001051000000                                                                             
D000013006057601827915072011132109นายสมเกียรติ สีธงชัยรุ่งโรจน์ ทม 5672             88069594            26215317                                07930240CCSH       0000001251900000                                                                             
D000014006057601827915072011132243นายสมเกียรติ สีธงชัยรุ่งโรจน์ ทพ3823              88569596            38213282                                07930240CCSH       0000001326900000                                                                             
D000015006057601827915072011132418นายสมเกียรติ สีธงชัยรุ่งโรจน์ ทย932               88878297            29210323                                07930240CCSH       0000001293600000                                                                             
D000016006057601827915072011132543นายสมเกียรติ สีธงชัยรุ่งโรจน์ ทม 2565             88178397            55212316                                07930240CCSH       0000001382100000                                                                             
D000017006057601827915072011134528นางลำใย โตโส                                      8827-8499           3921-4327                               09740387CCSH       0000001137200000                                                                             
D000018006057601827915072011135150นายพงษ์ศักดิ์ บริบูรณ์ ทว5942                     8857-9495           2921-5354                               08691092CCSH       0000001987300000                                                                             
D000019006057601827915072011145218นายนิธิพัฒน์ บังเกิดคงคาดิษฐ์ ทศ3681              8806-9293           1621-3368                               10631143CCSH       0000002792700000                                                                             
D000020006057601827915072011151112นายวรรณา ทับพระ ทร.9890                           88499992            08219339                                04883687CCSH       0000000550000000                                                                             
D000021006057601827915072011151711นายมนตรี แก้วใจจง มฉ4715                          88979894            57314071                                07930240CCSH       0000001884200000                                                                             
D000022006057601827915072011152000นาย วิรุช สุทธิจันทร์ ทม 1777                     8848-9593           7721-1317                               04780158CCSH       0000001447100000                                                                             
D000023006057601827915072011161521สุพรรษา ไชยมาตย์                                  88569194            02213318                                01528111CCSH       0000002600000000                                                                             
D000024006057601827915072011162224นายอนันต์ มโนศรี ทม698                            8838-9895           8621-0319                               10990539CCSH       0000001639000000                                                                             
D000025006057601827915072011163206บุญส่ง ต. ทล710                                   8836-9692           0721-0341                               10360281CCSH       0000001784500000                                                                             
D000026006057601827915072011165600นางสาว กนกวรรณ  ทรงวิรัตน์  ทว 9732               88878199            27219353                                09760114CCSH       0000001884200000                                                                             
D000027006057601827915072011170708นายอรุณ พงษ์ภักดี                                 8898-9491           0131-4058           มง 4180             09620049CCSH       0000001198000000                                                                             
D000028006057601827915072011175248นายสุรศักดิ์ อินทศร ทว5936                        8867-9495           6921-5353                               08691092CCSH       0000001987300000                                                                             
D000029006057601827915072011180247พออ.สุรัศ ศรีหาเลิศ ทว.1643                       8855-7697           3621-1354                               11521521CCSH       0000001799200000                                                                             
D000030006057601827915072011181056นาง ชลิตดา  เจริญพวง ทว 4651                      8817-9587           1621-4355                               09760540CCSH       0000002000000000                                                                             
D000031006057601827915072011182424จิรศักดิ์ ศรีบุญจิตต์                             8836-9298           8221-0341                               08000990CCSH       0000001090300000                                                                             
D000032006057601827915072011183424นายเมธา  วงษาแก้ว  ทล 7708                        88189981            87217340                                05701141CCSH       0000001700000000                                                                             
D000033006057601827915072011183552นายถวิล  จำเริญ ทล 9692                           8828-8499           2621-9349                               07990174CCSH       0000001476800000                                                                             
T000034006057601827900000000000000000000000051565600000032                                                                                                                                                                                                      
