H0000010060576018279บริษัท ไทเอซ สิสซิ่ง จำกัด              15082011TALHO                                                                                                                                                                                       
D000002006057601827915082011083535นายไพศักดิ์ เทพแสง ทร 2978                        8857-9982           8921-2337                               04603236CCSH       0000002123600000                                                                             
D000003006057601827915082011083855นาย สิทธิศักดิ์ หมายมั่น  มฉ 4985                 8857-9093           5931-4078                               04581882CCSH       0000001700000000                                                                             
D000004006057601827915082011084855นาย ชัยกะมน สุขกำเนิด                             88768997            35219343                                05760932CCSH       0000001847500000                                                                             
D000005006057601827915082011085043นางชลิตดา เจริญพวง                                88179587            16214355                                09761108CCSH       0000002400000000                                                                             
D000006006057601827915082011085557นายอรุณ พงษ์ภักดี                                 8888-9191           0121-9280                               01471089CCSH       0000000064300000                                                                             
D000007006057601827915082011090310นาย เจริญ น้อยชื่น                                8818-9380           4031-3077                               01471089CCSH       0000001432800000                                                                             
D000008006057601827915082011092233น.ส.ณัฐธิดา ทาระเวท                               88569597            46211366                                03830197CCSH       0000000201200000                                                                             
D000009006057601827915082011092446นายวินัย ผลดี                                     8827-9784           3821-6355           ทว 6853             00740562CCSH       0000002331100000                                                                             
D000010006057601827915082011095742นายสมยศ คูนคร                                     88989391            44217341                                01520230CCSH       0000001261500000                                                                             
D000011006057601827915082011100719นายคำมี ปะตังเวสา                                 8887-9495           2821-5359                               07017498CCSH       0000001652200000                                                                             
D000012006057601827915082011101447พลฯพันธ์ศักดิ์  ผลอินทร์                          88959497            68219322                                03970257CCSH       0000000034200000                                                                             
D000013006057601827915082011101607นายอรุณ เกษสกุล ทล1260                            88999091            02211346                                02150700CCSH       0000001665500000                                                                             
D000014006057601827915082011101640พลฯพันธ์ศักดิ์  ผลอินทร์                          88959497            68219322                                03970257CCSH       0000000661400000                                                                             
D000015006057601827915082011101811นาย  เผชิญ    โพธิ์ศรี ทว6007                     8837-9395           7021-6350                               00611358CCSH       0000001884200000                                                                             
D000016006057601827915082011102140กมล แต้มสว่าง                                     88189690            31218343                                00911062CCSH       0000001800000000                                                                             
D000017006057601827915082011103105คุณ ทนงศักดิ์                                     8838-9597           6321-4342                               02610090CCSH       0000000235500000                                                                             
D000018006057601827915082011103222คุณ ทนงศักดิ์                                     8848-9597           7321-4342                               02610090CCSH       0000000235500000                                                                             
D000019006057601827915082011103243นายพิชิตร์  ภูฆัง                                 8856-8798           7421-5321                               01470418CCSH       0000000884600000                                                                             
D000020006057601827915082011105010นายเฉียบวุฒิ อ่อนยิ่ง มฉ8140                      8896-9292           0131-8074                               03084303CCSH       0000001432800000                                                                             
D000021006057601827915082011105808นาง จิรดี เบ็ญจวรรณ                               8807-8399           4421-9353           ทว9434              10250012CCSH       0000001734300000                                                                             
D000022006057601827915082011110030นายศักดิ์ชัย นิยมนา ฮข7405                        8806-9792           5442-7020                               04951583CCSH       0000000372000000                                                                             
D000023006057601827915082011110125นายสำรวย ทองแย้ม  มง688                           8886-9798           8631-0058                               08690335CCSH       0000000472200000                                                                             
D000024006057601827915082011110422คุณ สุรินทร์                                      8855-9295           2521-8368                               02610090CCSH       0000001874100000                                                                             
D000025006057601827915082011110552นายสุพน หาบัณฑิตย์ ทม 6402                        8835-9694           2421-6310                               01770894CCSH       0000000879600000                                                                             
D000026006057601827915082011111625นายบุญมี งามขำ  ทว 210                            8818-8989           0221-0351                               08510258CCSH       0000001700000000                                                                             
D000027006057601827915082011112043นายอมฤต สนิทขำ ทศ2909                             8806-9195           9921-2360                               00770525CCSH       0000001918500000                                                                             
D000028006057601827915082011113206นายธงชัย สุขศิริ                                  8841-8299           7521-3320                               01081088CCSH       0000000227000000                                                                             
D000029006057601827915082011113848นาง นงคราญ คำมอญ ทว 5279                          8877-9887           9221-5357                               04581882CCSH       0000002528300000                                                                             
D000030006057601827915082011114009นาง นงคราญ คำมอญ ทล7975                           8848-9990           5921-7347                               04581882CCSH       0000002036500000                                                                             
D000031006057601827915082011114219นาง นงคราญ คำมอญ ทว 7259                          8847-9993           9221-7355                               04581882CCSH       0000002528000000                                                                             
D000032006057601827915082011114317ส.อ.เสกสรรค์ กลิ่นรอด ทว6617                      8847-9984           7621-6351                               01991041COTH       0000001515300000                                                                             
D000033006057601827915082011114349นายดำรงค์ ต่อมพิทักษ์ไพร ทว 9086                  88179290            60219358                                01890658CCSH       0000001884200000                                                                             
D000034006057601827915082011115042เครือฟ้า ทาใจ                                     88779797            39213350                                10365296CCSH       0000000064300000                                                                             
D000035006057601827915082011115758นายกิตติพงศ์ กรศุภอานนท์                          8877-8599           0921-2329           ทย2990              03970649CCSH       0000001650000000                                                                             
D000036006057601827915082011115950นายกิตติพงศ์ กรศุภอานนท์                          8837-8599           1021-1324           ทย1041              03970649CCSH       0000001382100000                                                                             
D000037006057601827915082011120057นาย ฉลาด วันชนะ ทศ307                             88078988            73210360                                10070071CCSH       0000001918500000                                                                             
D000038006057601827915082011121442นาย ชนินทร์ อ่อนใจเอื้อ                           88889682            37312071                                00660527CCSH       0000000300000000                                                                             
D000039006057601827915082011121509นาย ชัยวัฒน์  โพธิ์เมืองเพีย  มฉ85                8819-9990           5031-0078                               00651470CCSH       0000001589600000                                                                             
D000040006057601827915082011121733นางสาวภัทรานิษฐ์ รัตนวรธันยา ทว7692               88879892            26217359                                04810155CCSH       0000001629200000                                                                             
D000041006057601827915082011122311นางประไพวรรณ หวานเย็ฯ                             8856-7297           9521-8355                               00511886CCSH       0000001775000000                                                                             
D000042006057601827915082011122551นางสาว กนกวรรณ ทรงวิรัตน์                         8887-8199           2721-9353                               10410123CCSH       0000001884200000                                                                             
D000043006057601827915082011122824นาย ธีระ สุวรรณเกิด ทว5195                        8827-9986           5121-5359                               04780158CCSH       0000001700000000                                                                             
D000044006057601827915082011124006นาย สมพร  ไกรศรศรี ทศ1644                         8816-9897           4621-1364                               08550648CCSH       0000000132800000                                                                             
D000045006057601827915082011124948นาย ทองสูน เที่ยงแก๊ส                             8806-9197           4921-1367                               04730538CCSH       0000001884200000                                                                             
D000046006057601827915082011130223นายวินัย  จันลา  ทล 6120                          88989892            01216342                                05701141CCSH       0000001700000000                                                                             
D000047006057601827915082011130308นางสาว ฉวีวรรณ สุวรรณวงษ์                         88679882            41218356                                10564067CCSH       0000001984000000                                                                             
D000048006057601827915082011130539นาย สัมพันธ์  ปรารมย์                             88979296            45215355                                01780229CCSH       0000002704800000                                                                             
D000049006057601827915082011130931ร.ท.จักรกฤษณ์ เพียรพิจิตร                         8817-9988           9521-9369                               04990552CCSH       0000001710000000                                                                             
D000050006057601827915082011131114ร.ท.จักรกฤษณ์ เพียรพิจิตร                         8898-9891           9921-9356                               04990552CCSH       0000000620000000                                                                             
D000051006057601827915082011131911นายธีรชัย จิตมีธรรมเลิศ                           8899-8599           5221-8315                               02150209CCSH       0000001550000000                                                                             
D000052006057601827915082011132214นาง สุบิน  งามปานแก้ว ทล4676                      8868-9097           6621-4347                               11340169CCSH       0000001665500000                                                                             
D000053006057601827915082011132514นาย บุญสูง ปัญสา                                  88169794            85213318                                01900191CCSH       0000001105700000                                                                             
D000054006057601827915082011132910นายถวิล  จำเริญ                                   8828-8499           2621-9349                               07990132CCSH       0000001476800000                                                                             
D000055006057601827915082011134426สุรพงษ์ วงศ์กำภู                                  8885-9398           7021-7365                               01410657CCSH       0000001839700000                                                                             
D000056006057601827915082011134729สุรพงษ์ วงศ์กำภู                                  8826-9290           5021-5367                               01410657CCSH       0000001856500000                                                                             
D000057006057601827915082011135009นางพรทิพย์  จันทร์ทึก ทม 3678                     8859-9592           8621-3317                               04603236CCSH       0000000700000000                                                                             
D000058006057601827915082011135326นาย จำนงค์  นันโท                                 8885-9194           7431-9053                               05760270CCSH       0000000733300000                                                                             
D000059006057601827915082011140206นายณรงค์  พรหมอ่อน ทม5133                         8886-8797           3121-5313                               00611358CCSH       0000000050000000                                                                             
D000060006057601827915082011140732นายลือชา  ศรีพาณิชพันธุ์ ทม7383                   8846-9494           3321-7318                               11310028CCSH       0000001395500000                                                                             
D000061006057601827915082011141248นางทัศนี  จันทจร                                  88069695            95216316                                00800156CCSH       0000001054200000                                                                             
D000062006057601827915082011142122นางสลิล มะลิต้น ทย 6326                           8818-9791           6321-6322                               04580699CCSH       0000001490000000                                                                             
D000063006057601827915082011142535นาย จุล เทพขาม                                    8807-9587           8621-4353                               00550079CCSH       0000001973800000                                                                             
D000064006057601827915082011143826นายแพง พงษ์สุกรี                                  88868599            53215344                                09761108CCSH       0000000695500000                                                                             
D000065006057601827915082011144454นายศราวุฒิ สุขพัฒน์ ทล3987                        8818-9498           7921-3348                               01951137CCSH       0000001665500000                                                                             
D000066006057601827915082011144702นาย สำราญ  ไทรกลมเกลียว ทร3051                    8836-9693           1021-3335                               08550648CCSH       0000001261500000                                                                             
D000067006057601827915082011144728นายศราวุฒิ สุขพัฒน์ ทล3986                        8828-9498           6921-3348                               01951137CCSH       0000001665500000                                                                             
D000068006057601827915082011145805นายสุวรรณ  ปรางทอง                                8826-9791           6621-9288                               05760270CCSH       0000000552800000                                                                             
D000069006057601827915082011151858นายวานิช พานะคุณ มฉ4344                           8817-8197           4331-4074                               01951142CCSH       0000001800000000                                                                             
D000070006057601827915082011152040นายจรัล เผยสกุล ทศ628                             8867-8497           8621-0362                               02580367CCSH       0000001918500000                                                                             
D000071006057601827915082011153755นางมุกดา ประสงค์สุข  ทศ311                        8897-8988           1321-0361                               10074338CCSH       0000001884200000                                                                             
D000072006057601827915082011160741นายสมพร  หนูขวัญ  ทล 7350                         8828-9391           0321-7345                               02260835CCSH       0000001876000000                                                                             
D000073006057601827915082011161414พตท.จิตติณัติ รักชาติ                             8856-8298           5521-6366           ทศ6565/150854       11301301CCSH       0000002248300000                                                                             
D000074006057601827915082011163225นางสาวมะรินทร์ พรมโลกา                            8857-9587           6721-4355                               00470242CCSH       0000001912900000                                                                             
D000075006057601827915082011164211นาย อำนาจ รวยภิรมย์                               8867-9092           5231-5077                               07620489CCSH       0000001918500000                                                                             
D000076006057601827915082011164801นางฐิตาภา  เป้าประจำเมือง ทม 7560                 8856-8898           0521-7316                               10630571CCSH       0000001498000000                                                                             
D000077006057601827915082011165654นายสุทธิรักษ์ พวงพิลา มฉ260                       8847-9887           0231-4076                               11379582CCSH       0000002240200000                                                                             
D000078006057601827915082011170107นาย อภิวัฒน์ เครือวงค์ ทว 8586                    8827-9781           6521-8358                               04780158CCSH       0000001884200000                                                                             
D000079006057601827915082011170806นายจักรชัย ลมัยกุล                                88589682            50217342                                09621011CCSH       0000001807000000                                                                             
D000080006057601827915082011171833นายจุลพงษ์ สายบัว มฉ3073                          8878-8999           3031-3077                               05970617CCSH       0000001700000000                                                                             
D000081006057601827915082011174407นาย อรุณ พงษ์ภักดี มง 4180                        8898-9491           0131-4058                               09621104CCSH       0000001200200000                                                                             
D000082006057601827915082011175653บุญส่ง ตระกูลจั่นนาค                              88369692            07210341                                10365296CCSH       0000001786000000                                                                             
D000083006057601827915082011175933นายสอาด แจ่มสกุล                                  8868-9193           6131-2074                               10130851CCSH       0000001617900000                                                                             
D000084006057601827915082011182002นายอนันต์ มโนศรี  ทม 698                          8838-9895           8621-0319                               10996785CCSH       0000001679600000                                                                             
D000085006057601827915082011182510นางสาวปัทมา ทรัพย์กลิ่น มฉ5434                    8897-9491           4431-5073                               08691092CCSH       0000001275500000                                                                             
D000086006057601827915082011184055นาย พิษณุ  ด้วยสาร ทย 4415                        8867-9795           5421-4321                               08550648CCSH       0000001680000000                                                                             
D000087006057601827915082011184138นาย ณัฏฐพล พูลสวัสดิ์ ทร 1792                     8836-9291           2721-1339                               07540593CCSH       0000001250000000                                                                             
D000088006057601827915082011185223นายณรงค์ชัย อารีรักษ์ ทศ1973                      88669887            39211367                                07960037CCSH       0000001833500000                                                                             
T000089006057601827900000000000000000000000125888900000087                                                                                                                                                                                                      
