H0000010060576018279บริษัท ไทเอซ สิสซิ่ง จำกัด              07112011TALHO                                                                                                                                                                                       
D000002006057601827907112011084322นายคำมี ปะตังเวสา                                 88879495            28215359                                07010751CCSH       0000001652200000                                                                             
D000003006057601827907112011085922นายมัน พรมนิมิตร                                  88488999            8131-3073           โทร 0819078535      00840766CCSH       0000000740000000                                                                             
D000004006057601827907112011091536นายวิชาญ พรมย่อง                                  88547399            106197851                               01970208CCSH       0000001733100000                                                                             
D000005006057601827907112011100109นายนิวัฒน์ ทองภู ทว 7136                          88179293            61217353                                00841716CCSH       0000001884200000                                                                             
D000006006057601827907112011101555นาย เข็มพร จันจุติ                                8877-9097           4221-4350                               08811778CCSH       0000001790940000                                                                             
D000007006057601827907112011102220นางสาวศิริกานดา  ทานุรัตน์                        8856-9987           6921-1365                               03970257CCSH       0000001799200000                                                                             
D000008006057601827907112011103653ระเบียบ พิมทอง                                    88549299            104116175                               04063768CCSH       0000001549300000                                                                             
D000009006057601827907112011105216นายวรรณรบ เนียมทอง                                88506399            106124165                               01900719CCSH       0000001773700000                                                                             
D000010006057601827907112011105943พ.ต.ท.สุเทพ  ภูดวงเดือน                           8835-9597           9421-7360                               02501795CCSH       0000001828800000                                                                             
D000011006057601827907112011110611นายเฉลา  ฉางทรัพย์                                88059398            40217360                                00956995CCSH       0000001455300000                                                                             
D000012006057601827907112011110843นายจำลอง เที่ยงตรง ทว7502                         8877-9992           2521-7350                               00070034CCSH       0000001942000000                                                                             
D000013006057601827907112011111420หจก.วิน คาร์                                      88098397            45213349                                00470242CCLQ708459 00000016655000110180                                                                         
D000014006057601827907112011111803สมชาย                                             8897-8399           2221-2348                               05970092CCSH       0000001553700000                                                                             
D000015006057601827907112011111851นางสาวสุรีย์รัตน์ วงษ์เดอรี ทย5009                8866-9891           9021-5320                               11040535CCSH       0000001091400000                                                                             
D000016006057601827907112011113157นาย เวชสิทธิ์ สุขสุมิตร มฉ7979                    88369297            99317077                                04731091CCSH       0000001568300000                                                                             
D000017006057601827907112011114236สรณีย์ สมอทอง                                     88523799            107059702                               00530428CCSH       0000001264800000                                                                             
D000018006057601827907112011114512คำบู่ โกระนำ                                      88279497            50214351                                02560119CCSH       0000001799200000                                                                             
D000019006057601827907112011115158นางสาว นฤมล ราชอาษา                               88278599            66213334                                01720543CCSH       0000001100000000                                                                             
D000020006057601827907112011115707ปรัญชัย สาชิต                                     88779786            24314074                                00980224CCSH       0000001734300000                                                                             
D000021006057601827907112011121322นายเจริญ จันทร์แสนตอ                              8807-9492           7231-5072                               10720571CCSH       0000001880000000                                                                             
D000022006057601827907112011121953นายถวิล สุขโข  มฉ 2568                            88504899            106121361                               00823394CCSH       0000001697800000                                                                             
D000023006057601827907112011122022นายมานพ แข็งเขตการณ์ ทศ1523                       8876-9997           3521-1362                               02500849CCSH       0000000030000000                                                                             
D000024006057601827907112011122354นายวรวิทย์ ทิพนัด                                 881879090           67218344            ทล8446              03970649CCSH       0000001622500000                                                                             
D000025006057601827907112011122622นายสุรศักดิ์ วิเชียรเกื้อ                         88859497            53217368            ทศ7385              08030112CCSH       0000001309900000                                                                             
D000026006057601827907112011123837นายบุญเลิศ ทรัพย์เจริญกุล ทศ2932                  88569994            29212363                                02530836CCSH       0000001679300000                                                                             
D000027006057601827907112011124053ธนกร                                              8876-8099           1621-4319                               00530428CCSH       0000000520000000                                                                             
D000028006057601827907112011130306นายสุรศักดิ์ อินทศร ทศ5543                        88779493            35215364                                04581830CCSH       0000002100000000                                                                             
D000029006057601827907112011130413นาย บุญฤทธิ์ ศรีสุยิ่ง                            88879586            04313053            มง3430              10250012CCSH       0000000808500000                                                                             
D000030006057601827907112011131955นายชาตรี ขุนติเศษ ทศ 3616                         88769493            66213361                                07120179CCSH       0000001617900000                                                                             
D000031006057601827907112011132007นายปรีชา สุขสมร  มฉ4259                           88579896            92314075                                00000372CCSH       0000001777500000                                                                             
D000032006057601827907112011133324นาย  ปริญญา  สุพร                                 8886-9593           1720-3389                               04360235CCSH       0000000314000000                                                                             
D000033006057601827907112011135839นางชูชื่น เทพสุภรณ์กุล มฉ 4637                    8847-9395           7631-4073                               08001040CCSH       0000000064300000                                                                             
D000034006057601827907112011141223นายบุญมา ล้ำทวีภักดี ทย2620                       88478899            06212322                                05700767CCSH       0000001000000000                                                                             
D000035006057601827907112011141549นายธรรมรัตน์ ดำเนินสวัสดิ์ ทร7034                 88538889            107143113                               01470243CCSH       0000000440100000                                                                             
D000036006057601827907112011142527นายวิทณา อ่อนคำหล้า                               8806-8697           3421-6366                               00471695CCSH       0000001874000000                                                                             
D000037006057601827907112011142556นางกชกร  สุยะ                                     88512999            030126620                               00610717CCSH       0000000780300000                                                                             
D000038006057601827907112011143602นายศรีทน  กองงาม มฉ5335                           8817-9093           5331-5073                               04600072CCSH       0000002204000000                                                                             
D000039006057601827907112011150026นายเจนณรงค์ อินทร์สอาด ทม6604                     8847-9790           4621-6310                               00771064CCSH       0000000700000000                                                                             
D000040006057601827907112011151001ภัทรศักดิ์  แก่นโกมล                              8806-8199           68210328                                07121032CCSH       0000001437200000                                                                             
D000041006057601827907112011151125นายวิเชียร อภิชิตวิทยา                            8815-9196           7121-8361                               00748904CCSH       0000001846600000                                                                             
D000042006057601827907112011151646นายจตุพร นาคไพรัชช์                               88379498            82213359                                00330237CCSH       0000002017800000                                                                             
D000043006057601827907112011152022นายกังวาน มุมทอง ทว 9084                          88779790            40219358                                04690188CCSH       0000001799200000                                                                             
D000044006057601827907112011153020ด.ต. พิพรรธ แสนอินทร์                             8887-8498           7921-9350                               05700127CCSH       0000001884200000                                                                             
D000045006057601827907112011154007นส.เพชรมณี สิงห์วิชัย                             88789894            87217326                                00440033CCSH       0000000800000000                                                                             
D000046006057601827907112011155013นายปิติ เล็กชื่นสกุล                              88588098            10218313                                07687681CCSH       0000002021200000                                                                             
D000047006057601827907112011155557วาสนา สันตืสุขสถาพร                               88688297                                                    02602601CCSH       0000001850000000                                                                             
T000048006057601827900000000000000000000000066002240000046                                                                                                                                                                                                      
