H0000010060576018279บริษัท ไทเอซ สิสซิ่ง จำกัด              01082011TALHO                                                                                                                                                                                       
D000002006057601827901082011084116นายอนุชิต ปูพบุญ ทพ9125                           88589090            51219282                                01900719CCSH       0000001518500000                                                                             
D000003006057601827901082011084237นายเสริมศิลป์ โพนาคา มฉ3240                       8858-8199           0231-3074                               11320905COTH       0000001700000000                                                                             
D000004006057601827901082011085423คุณชาญชัย งามวิไลสมศักดิ์                         88708098            61215338                                00620702CCSH       0000000550000000                                                                             
D000005006057601827901082011090507นางรุ่งรัตน์ ศรีษะ ทล 728                         8859-9991           8721-0342                               00820100CCSH       0000001265600000                                                                             
D000006006057601827901082011092823นาง ยุพดี  เที่ยงสาย  ทย 1776                     8817-9598           6721-1327                               10641098CCSH       0000000989800000                                                                             
D000007006057601827901082011093316นายธนชัย วุฒิยา มฉ3358                            8818-8889           8331-3075                               07601138CCSH       0000001914200000                                                                             
D000008006057601827901082011094225นายพงศ์ศักดิ์  วันอยู่                            8837-9096           8121-5350                               01215368CCSH       0000001934200000                                                                             
D000009006057601827901082011095019นายธรรมนูญ ม่วงมั่งคั้ง                           88869193            62310053            มง236               00410710CCSH       0000000561200000                                                                             
D000010006057601827901082011095422นายสุชาติ ทิพศักดิ์                               8899-9891           8621-0317                               01520196CCSH       0000002861400000                                                                             
D000011006057601827901082011100702นายอำนาจ หมื่นจบ                                  8879-9791           48210340                                01168463CCSH       0000001381900000                                                                             
D000012006057601827901082011101652คุณ วรพงศ์  พูลพิพิธ                              8845-9297           8821-4319                               02617277CCSH       0000001200000000                                                                             
D000013006057601827901082011103406นายคณินทร์ นึ่งพุดซา มง5039                       8857-9995           9031-5053                               02250511CCSH       0000000842000000                                                                             
D000014006057601827901082011104352นางปราณี บุญปก                                    88609897            04217320                                00390351CCSH       0000000261200000                                                                             
D000015006057601827901082011105438นางสาวพิรุณรัตน์ ยงท้วม                           88079390            72219354                                10661140CCSH       0000001900000000                                                                             
D000016006057601827901082011110400นายชนะชาติ  ทับทิม                                8897-8899           8031-2065                               05760270CCSH       0000001076000000                                                                             
D000017006057601827901082011111300นายพิสิษฐ์ สกุลวา                                 8886-9893           9131-6072           มฉ 6129             01870904CCSH       0000002062000000                                                                             
D000018006057601827901082011111625ว่าที่ร.ต.บุณส่ง  สุขทิพย์กิจ                     8835-9393           4931-0089                               00120138CCSH       0000000524500000                                                                             
D000019006057601827901082011111948นาย พงษ์กฤษณ์ เกียรติเจริญพันธุ์ ทล 5347          8858-9394           7321-5344                               04581882CCSH       0000002312800000                                                                             
D000020006057601827901082011112404นางทัศนีย์ ลาภผลเจริญ ทม7559                      8888-9280           9521-7315                               10254482CCSH       0000000420000000                                                                             
D000021006057601827901082011112604ประเสริฐ บุญเพ็ง                                  8825-9894           6721-8362                               00530428CCSH       0000001881300000                                                                             
D000022006057601827901082011113325นาย  ธีระศักดิ์  สุประภากร                        88389880            67218340                                00910199CCSH       0000001700000000                                                                             
D000023006057601827901082011114319ประสูตร  อินทรรักษ์ ทว5810                        8807-9695           0821-5351                               07620899CCSH       0000001880000000                                                                             
D000024006057601827901082011114350นางสาวจินดา บุญญานนท์                             8875-9698           1821-6365           ทศ6851              03970649CCSH       0000001874000000                                                                             
D000025006057601827901082011114426นายปรีชา พราวศรี                                  8828-8798           9921-0354                               08698691CCSH       0000001918200000                                                                             
D000026006057601827901082011115043คุณจักรกฤษณ์ กุหลาบ                               88988199            1821-9343                               01270115CCSH       0000001806300000                                                                             
D000027006057601827901082011120354นาย สามารถ  พรมศักดิ์  ทย 3770                    8818-8689           0721-3327                               08400047CCSH       0000000789400000                                                                             
D000028006057601827901082011120757สมพงษ์ ติคำ                                       8849-8798           7421-2348                               00980224CCSH       0000001706800000                                                                             
D000029006057601827901082011121132Worachot Kamruengrit                              88379892            3131-5073                               00200135CCSH       0000001884200000                                                                             
D000030006057601827901082011121308นายองอาจ มหิทธิโรจน์ ทล6441                       88689692            14216344                                02150700CCLQ375243 00000001700000140327                                                                         
D000031006057601827901082011121507นายองอาจ มหิทธิโรจน์ ทล6441                       88689692            14216344                                02150700CCSH       0000000834800000                                                                             
D000032006057601827901082011121552รัฐพงศ์ สุวรรณสวัสดิ์                             8899-8699           2021-2346           ทล 2062             07955605CCSH       0000001665500000                                                                             
D000033006057601827901082011121614นายองอาจ มหิทธิโรจน์ ทล6463                       88589692            34216346                                02150700CCSH       0000001004800000                                                                             
D000034006057601827901082011121818ด.ต. ภัคพงศ์ พลมีศักดิ์ ทศ 2419                   88369496            94212361                                01370194CCSH       0000001650000000                                                                             
D000035006057601827901082011122448นาย นปดล สุขกำเนิด                                8886-8799           3021-3325                               00821044CCSH       0000001479000000                                                                             
D000036006057601827901082011124420นายมานะ ขำสุวรรณ ทศ6817                           88559698            78216361                                01480363CCSH       0000001839700000                                                                             
D000037006057601827901082011124457นาย อดิศร ซอและ ทล 1296                           8895-9695           6221-1349           0899920995          07620610CCSH       0000001396000000                                                                             
D000038006057601827901082011124848น.ส.เจนนภา ไทยเจริญ 0864153183                    8877-9294           2421-6353           ทว 6432             01481588CCSH       0000001890000000                                                                             
D000039006057601827901082011132619นายบวรพลภ์ สุนทราธนาทิพย์ ทว 5690                 8847-9995           0621-5359                               04585612CCSH       0000001556500000                                                                             
D000040006057601827901082011132857นาย อนันต์ พูลแสวง  ทว  5768                      8857-9695           8721-5356           02-4250850          02160596CCSH       0000001549600000                                                                             
D000041006057601827901082011133245นายสุรศักดิ์ อินทศร  ทศ 4057                      8826-9292           7021-4365                               04585612CCSH       0000001464700000                                                                             
D000042006057601827901082011133514ดารุณี                                            8899-9292           0621-0343                               04993358CCSH       0000001654600000                                                                             
D000043006057601827901082011133933คุณไพบูลย์  วิทิตกนกปรีดา ทพ 9736                 88768198            67219283                                01570810CCSH       0000001052200000                                                                             
D000044006057601827901082011135146นายยงยุทธ์  สึกชัย                                88688299            1231-3072                               00771291CCSH       0000002000000000                                                                             
D000045006057601827901082011140903นายกุล โสมณวัฒน์                                  8886-8298           7131-0059           มง 197              10525505CCSH       0000001343300000                                                                             
D000046006057601827901082011141134น.ส สมร สมสุภาพ ทร537                             88589497            75210333                                01730346CCSH       0000001685000000                                                                             
D000047006057601827901082011142231นาย ยุทธชนะ แดงอินทวัฒน์                          88359494            08310085                                05760932CCSH       0000001602500000                                                                             
D000048006057601827901082011142448นาย บุญฤทธิ์ ศรีสุยิ่ง                            8887-9586           0431-3053           มง3430              10250012CCSH       0000000900500000                                                                             
D000049006057601827901082011142625นาย ภานุพงค์ จรมณี ทม 8962                        8878-9394           2921-8316                               05700767CCSH       0000001300000000                                                                             
D000050006057601827901082011143123นาย ศักดิ์สิทธิ์  พิริยะไพโรจน์                   8826-9886           6521-7357                               10810405CCSH       0000001161000000                                                                             
D000051006057601827901082011143643นาย ทศ พล ดวงมาลี    มฉ 3356                      8848 8998           6331 3075                               07997991CCSH       0000001924200000                                                                             
D000052006057601827901082011145513นายพริ้ง จอมดวง มง5257                            8806-9993           7231-5055                               11522040CCSH       0000000834300000                                                                             
D000053006057601827901082011150237นายเรืองจรัส อิสระวิภรณสกุล ทม1870                8828-8689           0821-1317                               01200548CCSH       0000001042000000                                                                             
D000054006057601827901082011150629นางหวานใจ  โกศัลวิตร                              8866-9993           5121-5339                               10990536CCSH       0000000856000000                                                                             
D000055006057601827901082011151443นายวันชัย ชวาลาภรณ์ ทล 7372                       8808-9591           2321-7347                               04580699CCSH       0000001700000000                                                                             
D000056006057601827901082011153948นายสงวน มุลตะกร ทล5697                            8878-9493           7621-5349                               05970062CCSH       0000001700000000                                                                             
D000057006057601827901082011154412นาย ปรีชา ธารีไทย ทว4206                          8897-9197           6221-4350                               10151005CCSH       0000001756700000                                                                             
D000058006057601827901082011155340นาย เฉียบวุฒิ อ่อนยิ่ง                            8896-9292           0131-8074           0844256225          07800434CCSH       0000000967200000                                                                             
D000059006057601827901082011160550นายสมเกียรติ สีธงชัยรุ่งโรจน์ ทพ 9096             88669794            60219289                                07930240CCSH       0000001159100000                                                                             
D000060006057601827901082011160648นางเรณู จริตเอก                                   8886-9897           1321-4325           ทย4351              04930415CCSH       0000001060000000                                                                             
D000061006057601827901082011160738นายสมเกียรติ สีธงชัยรุ่งโรจน์ ทม 2627             88369095            76212312                                07930240CCSH       0000001414800000                                                                             
D000062006057601827901082011160949นายสมศักดิ์ สีธงชัยรุ่งโรจน์ ทม 450               88379884            04210315                                07930240CCSH       0000001414800000                                                                             
D000063006057601827901082011161124นายสรรเสริญ สีธงชัยรุ่งโรจน์ ทย 7291              88479490            12217329                                07930240CCSH       0000001216300000                                                                             
D000064006057601827901082011161313นายสรรเสริญ สีธงชัยรุ่งโรจน์ ทร 8316              88679690            63218331                                07930240CCSH       0000001492700000                                                                             
D000065006057601827901082011161445นายสมเกียรติ สีธงชัยรุ่งโรจน์ ทม 1072             88378197            20211317                                07930240CCSH       0000001382100000                                                                             
D000066006057601827901082011161623นายสมเกียรติ สีธงชัยรุ่งโรจน์ ทว 717              88169697            77210351                                07930240CCSH       0000001112900000                                                                             
D000067006057601827901082011161803นายสรรเสริญ สีธงชัยรุ่งโรจน์ ทม 3067              88779982            70213316                                07930240CCSH       0000001252000000                                                                             
D000068006057601827901082011162653นาย ประจบ โตพิทักษ์ ทว 7333                       8807-8398           3321-7353                               10090081CCSH       0000001979600000                                                                             
D000069006057601827901082011164100นายไพรสน คำอ่อน                                   8835-9898           3621-6369                               09740485CCSH       0000001874000000                                                                             
D000070006057601827901082011171924นาย พิเชษฐ์ ศรีหาประทุม ทว 4013                   88779197            30214351                                08401304CCSH       0000002046200000                                                                             
D000071006057601827901082011172048นายภิชาติ  ศรีหาประทุม ทล 8536                    88689090            65218343                                08401304CCSH       0000002116700000                                                                             
D000072006057601827901082011172220สมเดช แสงสิน ทล4522                               88189497            25214342                                10270539CCSH       0000001665500000                                                                             
D000073006057601827901082011173134นายประสิทธิ์ จันทร์พิพัฒน์ผล ทย5664               88478599            46215326                                05701141CCSH       0000001418700000                                                                             
D000074006057601827901082011173839สันติ ฤทธี                                        88559897            32217360                                10365296CCSH       0000001839700000                                                                             
D000075006057601827901082011174045สันติ ฤทธี                                        88559897            32217360                                10365296CCSH       0000000274500000                                                                             
D000076006057601827901082011174852สายชล ก. ทศ53                                     8867-8598           3021-0365                               10360281CCSH       0000001884200000                                                                             
T000077006057601827900000000000000000000000107299400000075                                                                                                                                                                                                      
