H0000010060576018279บริษัท ไทเอซ สิสซิ่ง จำกัด              23102011TALHO                                                                                                                                                                                       
D000002006057601827923102011103658น.ส.นุชนารถ แจ่มศุภพันธ์                          8806-7097           1521-3350           ทว 3501             08698691CCSH       0000001884200000                                                                             
D000003006057601827923102011121532นายอมฤต สนิทขำ                                    88069195            99212360                                05970617CCSH       0000001918500000                                                                             
D000004006057601827923102011125937นายณฐพร พันมะลิ                                   88869894            69215324                                10720377CCSH       0000001064400000                                                                             
D000005006057601827923102011131034นาย ระเริง  หยูเอียด ทว9586                       8887-8499           6521-9358                               04880528CCSH       0000001884200000                                                                             
D000006006057601827923102011133243นายสายชล คงสมบูรณ์ ทย 6203                        8849-9390           3221-6320                               07940349CCSH       0000001703900000                                                                             
D000007006057601827923102011150311นางชลพรรณ   แก้วสามสี                             8817-9792           3521-7358                               07708911CCSH       0000001884200000                                                                             
D000008006057601827923102011152401สงบ  ระย้า                                        8806-9598           2331-1057           มง1372              08690266CCSH       0000000572000000                                                                             
D000009006057601827923102011155350นายบัญชา  สีจุ้ย                                  8816-9796           3321-2361           ทศ 2313             07990132CCSH       0000001981000000                                                                             
D000010006057601827923102011171139นาย จำรัส  ผายสุวรรณ  ทศ8650                      88759994            06218365                                04880528CCSH       0000001663600000                                                                             
D000011006057601827923102011171211นาย จำรัส  ผายสุวรรณ                              48859994            06218365                                04880528CCSH       0000000221000000                                                                             
D000012006057601827923102011193937นายจิรเดช โพธิ์สว่าง ทว 8866                      88078797            68218356            0862187258          07620610CCSH       0000001385700000                                                                             
T000013006057601827900000000000000000000000016162700000011                                                                                                                                                                                                      
