H0000010060576018279บริษัท ไทเอซ สิสซิ่ง จำกัด              15102011TALHO                                                                                                                                                                                       
D000002006057601827915102011093225นาย จิรวัฒน์  ชื่นชม  ทม 4486                     8806-8599           6421-4318                               09760540CCSH       0000001394700000                                                                             
D000003006057601827915102011102526นายเพชรน้ำหนึ่ง โตเอี่ยม  ทล 702                  8869-9991           2721-0340                               08510258CCSH       0000002148200000                                                                             
D000004006057601827915102011115127นาย   อำนาจ  รวยภิรมย์                            8867-9092           5231-5077           มฉ5275              07990852CCSH       0000001918500000                                                                             
D000005006057601827915102011122229นาย สมพร พงษ์เหล่างิ้ว มง3731                     88459897            17313053                                07930727CCSH       0000000695500000                                                                             
D000006006057601827915102011122637นายกระต่าย เทพวงษ์                                88515999            106138674                               10330446CCSH       0000001928400000                                                                             
D000007006057601827915102011132018นางสุพรรษา ไชยมาตย์                               88569194            02213318                                04770491CCSH       0000001660000000                                                                             
D000008006057601827915102011132119นายสมบัติ  โคกลือชา ทว7622                        88479683            26217352                                04671136CCSH       0000001700000000                                                                             
D000009006057601827915102011133056นายณรงค์ ประทุมวัน ถน2630                         88979686            06202233                                09660651CCSH       0000000680000000                                                                             
D000010006057601827915102011140105นายพิเชษฐ กลั่นประโคน                             88079687            45214350                                10720567CCSH       0000001700000000                                                                             
D000011006057601827915102011140131นายปางทอง แซ่ตั้ง ทศ2657                          8816-9986           7621-2365                               10360725CCSH       0000001884200000                                                                             
D000012006057601827915102011140200นายฉลาด วันชนะ                                    88078988            73210360                                10071091CCSH       0000001918500000                                                                             
D000013006057601827915102011142850นายมนตรี แก้วใจจง  มฉ4715                         88979894            57314071                                06982410CCSH       0000001884200000                                                                             
D000014006057601827915102011143607นายสุรศักดิ์ วิเชียรเกื้อ ทศ7385                  8885-9497           5321-7368                               04671034CCSH       0000001309900000                                                                             
D000015006057601827915102011143631นายจุล เทพขาม ทว4638                              8807-9587           8621-4353                               04950529CCSH       0000001975800000                                                                             
D000016006057601827915102011144327นายศราวุฒิ สุขพัฒน์                               88289498            69213348                                08698691CCSH       0000001665500000                                                                             
D000017006057601827915102011144507นายศราวุฒิ สุขพัฒน์                               88189498            79213348                                08698691CCSH       0000001665500000                                                                             
D000018006057601827915102011145402นาย วุฒิสิทธิ์  ยินดีเวท ทล 7008                  8878-9682           8021-7340                               04880062CCSH       0000001617900000                                                                             
D000019006057601827915102011145848นายลือชา  ศรีพาณิชพันธุ์                          88469494            33217318                                07540487CCSH       0000001396000000                                                                             
D000020006057601827915102011150201พ.ต.ท.ประเจต ภาพสมุทร                             8817-7697           6521-5343                               04883687CCSH       0000001700000000                                                                             
D000021006057601827915102011152110นายวิรุช สุทธิจันทร์ ทม 1777                      88489593            77211317                                04780120CCSH       0000001447100000                                                                             
D000022006057601827915102011153752นาย ปรีดา พิลาแสน ทพ 6359                         88568697            93216285                                09741083CCSH       0000001030000000                                                                             
D000023006057601827915102011153854นาย ปรีดา พิลาแสน ทพ 6025                         88468697            50216282                                09741083CCSH       0000001030000000                                                                             
D000024006057601827915102011155719นายจักรชัย ลมัยกุล                                8858-9682           5021-7342           ทล7025              09620049CCSH       0000001790300000                                                                             
D000025006057601827915102011155727นาย อภิวัฒน์ เครือวงค์ ทว 8586                    8827-9781           6521-8358                               04780158CCSH       0000001884200000                                                                             
D000026006057601827915102011164055นายสุทธิรักษ์ พวงพิลา มฉ4260                      8847-9887           0231-4076                               11370605CCSH       0000002240200000                                                                             
D000027006057601827915102011165036ร.ท.จักรกฤษณ์ เพียรพิจิตร ทล9369                  8870-9795           7021-9326                               07933341CCSH       0000001296500000                                                                             
D000028006057601827915102011165226ร.ท.จักรกฤษณ์ เพียรพิจิตร ทศ9599                  88179988            95219369                                07933341CCSH       0000001720000000                                                                             
D000029006057601827915102011171327นายบุญมี งามขำ ทว210                              88188989            02210351                                08510017CCSH       0000001700000000                                                                             
D000030006057601827915102011171543นางภัททิรา วีระกูล                                88868598            40210363                                07660755CCSH       0000001739400000                                                                             
D000031006057601827915102011173403นาย ณัฐพร ธนะเนตร ทล943                           88500599            107155077                               10070203CCSH       0000001293000000                                                                             
D000032006057601827915102011174936นายวินัย ลมสูงเนิน                                88788097            25212351                                05700127CCSH       0000001432800000                                                                             
D000033006057601827915102011175712ธนเดช  จารุฐิติมาศ  ทย 7318                       88569493            83217321                                08550664CCSH       0000001172500000                                                                             
D000034006057601827915102011184846นาย อนันต์  มโนศรี  ทม.698                        88389895            86210319                                10990991CCSH       0000001679000000                                                                             
T000035006057601827900000000000000000000000052297800000033                                                                                                                                                                                                      
