H0000010060576018279บริษัท ไทเอซ สิสซิ่ง จำกัด              27012012TALHO                                                                                                                                                                                       
D000002006057601827927012012085714นาย วัชรินทร์ จงดูกลาง ทม 4626                    8886-9295           6621-4312                               03830885CCSH       0000000863900000                                                                             
D000003006057601827927012012085926นาย สมบูรณ์ ผามั่ง                                88269892            08312065                                00201688CCSH       0000001052200000                                                                             
D000004006057601827927012012092319ศิริกานดา ทานุรัตน์ ทศ2135                        88869796            51212363                                04690578CCSH       0000001799200000                                                                             
D000005006057601827927012012093932นางสาวลัดดา ผาพิน ทร 1254                         88769597            42211335                                10270592CCSH       0000000989800000                                                                             
D000006006057601827927012012100219นายรณชัย  อินช่วย                                 88459995            64310087                                10903618CCSH       0000001697900000                                                                             
D000007006057601827927012012100258นาย อนุกูล แก้ววิเชียร                            88769590            28214360            ทศ 4802             01920548CCSH       0000001884200000                                                                             
D000008006057601827927012012100430นาย อนุกูล แก้ววิเชียร                            8846-9591           3921-1366           ทศ 1963             01920548CCSH       0000001884200000                                                                             
D000009006057601827927012012100617นาย อนุกูล แก้ววิเชียร                            8868-9190           4421-8345           ทล 8454             01920548CCSH       0000001700000000                                                                             
D000010006057601827927012012103545นาย ทิพย์มนต์ สวนไพรินทร์  ทว8422                 88359698            24218352                                01921386CCSH       0000001914800000                                                                             
D000011006057601827927012012104924นาย ประยุทธ ศรีอำนาจ                              88507699            100104553                               00480543CCSH       0000001908400000                                                                             
D000012006057601827927012012105221นางจันตรี ชาภู่พวง                                88500199            107149387                               00970556CCSH       0000001131800000                                                                             
D000013006057601827927012012105515นายณรงค์ ภุ่กรุต ทศ6858                           88459798            88216365                                02150082CCSH       0000003216000000                                                                             
D000014006057601827927012012105601นายณรงค์ ภุ่กรุต ทศ6818                           8825-9998           8821-6361                               02150082CCSH       0000003216000000                                                                             
D000015006057601827927012012105658นายณรงค์ ภุ่กรุต ทศ6877                           88559798            78216367                                02150082CCSH       0000003216000000                                                                             
D000016006057601827927012012110721นางภัททิยา  จึงเจริญกิจไพศาล                      88379690            20211344                                11340427CCSH       0000001890000000                                                                             
D000017006057601827927012012110907นายไชยรส  ทับทิมไสย                               88669496            73212367                                11470668CCSH       0000001884200000                                                                             
D000018006057601827927012012111429นายจุมพล เหมือนจีน                                88268597            66210368                                09760107CCSH       0000001030000000                                                                             
D000019006057601827927012012112100นายปัญญา ศรีคำ                                    88979795            76215359                                02580146CCSH       0000001942000000                                                                             
D000020006057601827927012012112248นายหนู มั่นแมน                                    88089893            46215342                                00334177CCSH       0000001617900000                                                                             
D000021006057601827927012012112636นายชญาณัตถพล เขมรพันธ์                            88879793            29314071                                00821044CCSH       0000001771800000                                                                             
D000022006057601827927012012112729นายสัญญา กังวานไกล                                88557997            30210364                                00540018CCLQ411052 00000018842000140120                                                                         
D000023006057601827927012012113008นายสุวรรณ์ ศรีวิพัฒน์                             88509899            106199334                               00720058CCSH       0000001927600000                                                                             
D000024006057601827927012012113413นายทองหล่อ โภคา                                   88789492            09216340            ทล6900              03970649CCSH       0000001700000000                                                                             
D000025006057601827927012012120817คุณวิชุดา พลายแก้ว                                8878-9496           1821-7312                               01270115CCSH       0000001583600000                                                                             
D000026006057601827927012012121251นายประพันธ์ ริเป๊ก ทศ3891                         88169792            18213369                                11734224CCSH       0000001931000000                                                                             
D000027006057601827927012012121723นาย ไพฑูรย์  วันเชียง                             88789997            81214342                                08000737CCSH       0000001650000000                                                                             
D000028006057601827927012012121751พ.ท. เรวัติ มากกุญชร                              8847-9393           7021-7353                               04730538CCSH       0000002084000000                                                                             
D000029006057601827927012012122028นายประจักษ์ เวชปาน                                88369791            63215317                                01980916CCSH       0000000939800000                                                                             
D000030006057601827927012012123609นางสัญญา จันเวียง                                 88479396            69214353                                11370491CCSH       0000002106600000                                                                             
D000031006057601827927012012123612นาย ธวัชชัย เจริญบัณฑิตชัย มฉ4455                 8867-9796           5431-4075                               01980212CCSH       0000002500800000                                                                             
D000032006057601827927012012123853นายสมเกียรติ จิระศรีรังสรรค์                      88505099            107065942           ทม.4482             10721605CCSH       0000002000000000                                                                             
D000033006057601827927012012125251นายชัชวาล แสงอาวุธ   ทศ 8356                      88559595            63218365                                11819722CCSH       0000001863100000                                                                             
D000034006057601827927012012130008นายกึ๋ม   พาดขุนทด                                88088499            07219340                                08553235CCSH       0000001700000000                                                                             
D000035006057601827927012012130221นายมัด  มลมิตร                                    88769987            54314072                                05760270CCSH       0000003463000000                                                                             
D000036006057601827927012012135750นายสุนัย พรมไพโรจน์                               88468698            65217329                                09760107CCSH       0000001374400000                                                                             
D000037006057601827927012012141724นางเฉลา อำนวยพานิช ทศ 743                         88978497            37210364                                01442495CCSH       0000001549600000                                                                             
D000038006057601827927012012141836นางบุณยานิตย์ ศิริรักษ์                           88778297            06217328                                09740387CCSH       0000000100000000                                                                             
D000039006057601827927012012142424นางวรรณภา เจริญอินทร์                             88869598            59211364            ทศ.1945             07990541CCSH       0000003269600000                                                                             
D000040006057601827927012012145615นางพรทิพย์ ใจตรง                                  88179593            29216356                                09760107CCSH       0000002346000000                                                                             
D000041006057601827927012012152201ธนรัตน์  พิทักเจริญ                               88504799            106199546           0896866146          04600142CCSH       0000001918100000                                                                             
D000042006057601827927012012152514นายอริย์ธัช  วิสาติ ทว 8465                       88679990            54218356                                00820726CCSH       0000001402200000                                                                             
D000043006057601827927012012153433นายวรายุทธ  กล้าพร้อม                             88178297            27214339                                04670086CCSH       0000001298300000                                                                             
D000044006057601827927012012154732นายสรรเสริญ สีธงชัยรุ่งโรจน์ ทพ 9568              88521999            107040268                               07930240CCSH       0000001091500000                                                                             
D000045006057601827927012012155031นายสรรเสริญ สีธงชัยรุ่งโรจน์ ทย2914               88259596            49212321                                07930240CCSH       0000001302400000                                                                             
D000046006057601827927012012155146นายสรรเสริญ สีธงชัยรุ่งโรจน์ ทย7860               88859998            08217326                                07930240CCSH       0000001010600000                                                                             
D000047006057601827927012012155307นายสมเกียรติ สีธงชัยรุ่งโรจน์ ทย6955              88469694            59216325                                07930240CCSH       0000001159200000                                                                             
D000048006057601827927012012155425นายสมเกียรติ สีธงชัยรุ่งโรจน์ ทย7214              88869995            42217321                                07930240CCSH       0000001483300000                                                                             
D000049006057601827927012012161432นายตะวัน ประสพวงค์ มจ8810                         88669391            08318061                                07930240CCSH       0000000514900000                                                                             
D000050006057601827927012012162632นาย สุรศักดิ์  อินทศร  ทศ8843                     8815-9994           3821-8364           0814044640          08690033CCSH       0000002518700000                                                                             
D000051006057601827927012012164427เพลินทิพย์ เหิมสารจอด                             88469195            02210321                                04700261CCSH       0000000889300000                                                                             
D000052006057601827927012012164509ยุทธพงศ์ เพิ่มพรพิทักษ์                           88679393            56211339                                10365296CCSH       0000001580000000                                                                             
D000053006057601827927012012171458นายประทุม  สุขลาภ                                 8806-9090           3821-4324                               10010576CCSH       0000000995100000                                                                             
D000054006057601827927012012173310นายอนันต์ สิงห์น้อย ทศ1463                        88769797            34211366                                04950176CCSH       0000003139500000                                                                             
D000055006057601827927012012173641นายนิยม กล้าหาญ  มช123                            88598498            107114878                               08690335CCSH       0000000453000000                                                                             
D000056006057601827927012012180031นายปุณยาวัจน์ บุญน้อม                             8838-9791           1531-2075                               07620489CCSH       0000001432800000                                                                             
D000057006057601827927012012182153นางสาววีณา วงศ์ศิริ                               88479591            03218352                                10720567CCSH       0000001982700000                                                                             
D000058006057601827927012012185257จักรกฤษณ์ เพียรวิจิตร                             88779998            91219369                                11521521CCSH       0000000953300000                                                                             
T000059006057601827900000000000000000000000097708500000057                                                                                                                                                                                                      
