H0000010060576018279บริษัท ไทเอซ สิสซิ่ง จำกัด              08102011TALHO                                                                                                                                                                                       
D000002006057601827908102011111147นาย สมบูรณ์ สนศรี ทว 4927                         88079496            79214352                                10270592CCSH       0000001756700000                                                                             
D000003006057601827908102011111452สุรพล  ไกรพ้น                                     88878198            91316075            086-061-0421        08770142CCSH       0000001880000000                                                                             
D000004006057601827908102011112618นายประชา กัลยา ทว 2330                            88488697            03212353                                10254482CCSH       0000001954000000                                                                             
D000005006057601827908102011114347นายปรีชา มุนนี                                    88517789            106009685           ณล 418              04880760CCSH       0000000600000000                                                                             
D000006006057601827908102011125145นางบุณยานิตย์ ศิริรักษ์                           88878397            07217338                                11240437CCSH       0000001498500000                                                                             
D000007006057601827908102011130335นายมงคล  ปราบภัย                                  88659597            46214352                                05756198CCSH       0000001583600000                                                                             
D000008006057601827908102011130429นายกิตติพงศ์ กรศุภอานนท์                          8807-8899           2021-6310                               04700568CCSH       0000001590000000                                                                             
D000009006057601827908102011130546นายกิตติพงศ์ กรศุภอานนท์                          8897-8799           7021-2320                               04700568CCSH       0000001590000000                                                                             
D000010006057601827908102011133506นายวรวิทย์ ทิพนัด  ทย 4265                        88269993            52214326                                08510258CCSH       0000000552800000                                                                             
D000011006057601827908102011134820วชิราภรณ์  แสงใจหนัก                              88168397            15216364                                01520569CCSH       0000001671600000                                                                             
D000012006057601827908102011135019วชิราภรณ์  แสงใจหนัก                              88688997            35211359                                01520569CCSH       0000001899300000                                                                             
D000013006057601827908102011141352นางสำรวย เดชเถร ทศ 9474                           88559193            44219367                                07930240CCSH       0000001901600000                                                                             
D000014006057601827908102011141539นายเชาวฤทธิ์ หอมพันนา ทว6767                      88579893            77216356                                11522040CCSH       0000003730000000                                                                             
D000015006057601827908102011142122นาย สุรศักดิ์  อินทศร  ทว5456                     88779586            64215355            081-4949640         08690033CCSH       0000002240900000                                                                             
D000016006057601827908102011142243นาย สุรศักดิ์  อินทศร  ทว5936                     88679495            69215353            081-4949640         08690033CCSH       0000002019300000                                                                             
D000017006057601827908102011142432นางสาว อุดมรักษ์ ขอนสี ทศ 172                     88378198            21210367                                08450242CCSH       0000001918500000                                                                             
D000018006057601827908102011155550นาย นิวัฒน์ ทองภู ทว 7136                         8817-9293           6121-7353                               09741083CCSH       0000001884200000                                                                             
D000019006057601827908102011161458นายรังสันติ เวียงนนท์                             8888-9795           4121-5342                               10320156CCSH       0000001690200000                                                                             
D000020006057601827908102011162313นายสมเจตน์ จงพินิจ                                88534989            106133589                               01730895CCSH       0000001478800000                                                                             
D000021006057601827908102011162612ชัยสิทธิ์                                         88169996            30310062                                07966650CCSH       0000001161000000                                                                             
D000022006057601827908102011162754นายสันติ   คำคง                                   88059796            13319037                                05756198CCSH       0000000364100000                                                                             
D000023006057601827908102011163622นายวิทยา แซ่จึง                                   88077797            59215344                                09761108CCSH       0000001790000000                                                                             
D000024006057601827908102011164101ร.ท.จักรกฤษณ์ เพียรพิจิตร ทล 6572                 88069793            25216347                                07930240CCSH       0000001261500000                                                                             
D000025006057601827908102011173442นายลำดวน วงสา ทล2832                              88968799            28212343                                11522040CCSH       0000000700000000                                                                             
D000026006057601827908102011174937นางรำพึง แดงเกาะโพธิ์ ทศ2509                      8816-9096           9521-2360                               08691092CCSH       0000002388800000                                                                             
D000027006057601827908102011183851นางมะลิ สุดสอาด                                   88279994            53216350                                08510258CCSH       0000001700000000                                                                             
T000028006057601827900000000000000000000000042805400000026                                                                                                                                                                                                      
