H0000010060576018279บริษัท ไทเอซ สิสซิ่ง จำกัด              27092011TALHO                                                                                                                                                                                       
D000002006057601827927092011083955นายอนุชา สอนเสนา                                  88989983            06215343            ทล 5630             01520196CCSH       0000001567200000                                                                             
D000003006057601827927092011084101นายวีระศักดิ์ ธิโสภา มฉ963                        8898-9698           3931-0076                               08560792CCSH       0000001700000000                                                                             
D000004006057601827927092011085546นายปราโมทย์ อภิรมย์ดี                             8847-9092           6721-6315                               10200553CCSH       0000000870800000                                                                             
D000005006057601827927092011085610นายศราวุธ วิเก็ง ทศ9348                           88538699            104116124                               02530836CCSH       0000002750300000                                                                             
D000006006057601827927092011090207นางสาวดวงพร ภาระจ่า ทศ7701                        88759696            17217360                                02530836CCSH       0000002042700000                                                                             
D000007006057601827927092011091448นายสิทธิวิชญ์ เกษมพงศ์วณิช มฉ 5176                8836-8497           6131-5077                               01820662CCSH       0000001434700000                                                                             
D000008006057601827927092011093123นายวิภพ ฉิวกระโทก ทว9175                          8877-8099           5121-9357                               00830518CCSH       0000001421700000                                                                             
D000009006057601827927092011100515นายพงษ์ศักดิ์ บริบูรณ์ ทว6228                     8857-9794           8221-6352                               08691092CCSH       0000001987300000                                                                             
D000010006057601827927092011101354นาย กิ๋ม  พาดขุนทด                                8808-8499           0721-9340                               08550648CCSH       0000001800000000                                                                             
D000011006057601827927092011102214พรศักดิ์ วีระพันธ์                                88479593            19216356                                11305412CCLQ342662200000015900000020187                                                                         
D000012006057601827927092011104846นายมานพ แข็งเขตการณ์ ทศ1523                       88769997            35211362                                02500607CCSH       0000001854200000                                                                             
D000013006057601827927092011105319พลฯ ศุภมงคล สร้อยสายอุบล 0841669720               8877-9888           1621-3321                               01890557CCSH       0000000941500000                                                                             
D000014006057601827927092011110307นายเสน่ห์  ยิกุสังข์                              8808-9796           3821-4343                               10290212CCSH       0000001665500000                                                                             
D000015006057601827927092011110534นายเสน่ห์   ยิกุสังข์                             8879-8897           5021-3345                               10290212CCSH       0000000034240000                                                                             
D000016006057601827927092011110631นายสุพจน์ สีหะวงษ์                                88159093            85219322                                00950541CCSH       0000001709500000                                                                             
D000017006057601827927092011110647นายเสน่ห์  ยิกุสังข์                              8879-8897           5021-3345                               10290212CCSH       0000001504500000                                                                             
D000018006057601827927092011111221นาง นิธิกานต์  วัฒนถนอม                           88359897            83217368                                10810405CCSH       0000002331600000                                                                             
D000019006057601827927092011112256วสันติชัย แบนจาด                                  8828-9396           3921-4343                               01800625CCSH       0000000235500000                                                                             
D000020006057601827927092011112904นายคมสัน  ริ่นเริง ทย 3552                        8851-8399           2521-3325                               01080089CCSH       0000000521700000                                                                             
D000021006057601827927092011120120นายวรายุทธ  กล้าพร้อม  ทร 4792                    8817-8297           2721-4339                               01200195CCSH       0000001298300000                                                                             
D000022006057601827927092011120519นายสุนัย พรมไพโรจน์                               88468698            65217329                                09760107CCSH       0000001374400000                                                                             
D000023006057601827927092011121322นางสาว วีณา วงศ์ศิริ                              88479591            03218352                                11142022CCSH       0000001884200000                                                                             
D000024006057601827927092011121557นางสาวรัชนีวรรณ  บุตรานนท์                        88469096            75212360                                07752561CCSH       0000000201200000                                                                             
D000025006057601827927092011122109กิตติพงษ์  กรศุภอานนท์  ทย2007                    8897-8799           7021-2320                               04950191CCSH       0000000100000000                                                                             
D000026006057601827927092011122418นายบุญช่วย จิตตั้ง ทศ702                          8897-8397           2721-0360                               04781103CCSH       0000002002900000                                                                             
D000027006057601827927092011122438นางสาว กิตติพร ตรีศุภกานต์ ทว 6376                8897-9594           6321-6357                               04780201CCSH       0000001918500000                                                                             
D000028006057601827927092011123401นาย สัมพันธ์ ปรารมย์ ทว5554                       88979296            45215355                                01780060CCSH       0000000030000000                                                                             
D000029006057601827927092011123831นาย พรประสิทธิ์ บัวเพชร                           8878-8399           1521-9349                               00821044CCSH       0000001884200000                                                                             
D000030006057601827927092011125152สุริยัน ขำดำ                                      88979791            65218338                                01231109CCSH       0000001697800000                                                                             
D000031006057601827927092011130349นายโชติ ค้าขาย ทล223                              8879-9792           3221-0342                               05671599CCSH       0000001443200000                                                                             
D000032006057601827927092011130840นายเกรียงไกร แทนค้ำ                               8859-9790           7421-1346           ทล1467              03970649CCSH       0000001665500000                                                                             
D000033006057601827927092011131403นางสาว ธนิก มนูลักษณ์                             88589495            77311071            มฉ1717              00001151CCSH       0000001617900000                                                                             
D000034006057601827927092011131818ไชยรส ทับทิมไสย                                   88669496            73212367                                10320156CCSH       0000001884200000                                                                             
D000035006057601827927092011133155นางยุพดี เที่ยงสาย ทย1776                         8817-9598           6721-1327                               10640171CCSH       0000000989800000                                                                             
D000036006057601827927092011133320ปรีชา โพธิแก่ง มง.9714                            8876-8398           4731-9051                               01899404CCSH       0000001658500000                                                                             
D000037006057601827927092011133654นายทวีศักดิ์   เมืองกลาง  ทร 2479                 88168299            94212337                                04670063CCSH       0000001015700000                                                                             
D000038006057601827927092011133943น.ส.ไพจิตต์ กีรติพินิจ                            8847-9798           3621-7320                               02561499CCSH       0000001383600000                                                                             
D000039006057601827927092011134458นายอริย์ธัช วิสาติ                                88679990            54218356                                06930091CCSH       0000001396700000                                                                             
D000040006057601827927092011134541สมาน ปัญญาดี มง3920                               8827-9595           0931-3052                               08001096CCSH       0000000808500000                                                                             
D000041006057601827927092011134929นายเรืองชัย ดอนบำรุง มง 503                       8866-9591           3531-0050                               04690188CCSH       0000001000000000                                                                             
D000042006057601827927092011140042นางสาวมธุรา  วุฒิวงศ์ ทล6804                      88989492            48216340                                06980518CCSH       0000001700000000                                                                             
D000043006057601827927092011141548นายสัญญา กังวานไกล ทศ43                           8855-7997           3021-0364                               00540018CCLQ411046 00000018842000140120                                                                         
D000044006057601827927092011141925ปุณยาวัจน์  บุญน้อม                               88389791            15312075                                11540466CCSH       0000001432800000                                                                             
D000045006057601827927092011144621นายอรรถพันธ์ สีปูน ทม5094                         8816-9294           4021-5319                               02580367CCSH       0000001872900000                                                                             
D000046006057601827927092011144942นาย มานิตย์ พลพฤกษ์ ทว746                         8808-8898           6721-0354                               01980916CCSH       0000003301100000                                                                             
D000047006057601827927092011150623นาย วรัฐ นบนอบ                                    8805-9294           6831-2054           มง2846              00600443CCSH       0000000841800000                                                                             
D000048006057601827927092011152328นายมงคล มูลมณี  มฉ2017                            88689793            70312071                                06920151CCSH       0000001688700000                                                                             
D000049006057601827927092011152822นายประเสริฐ สุริยะ ทม6580                         88478397            05216318                                07930727CCSH       0000001125700000                                                                             
D000050006057601827927092011152939นายสุชาติ แก้วดอนรี  ทล2063                       88798499            30212346                                02540469CCSH       0000001665500000                                                                             
D000051006057601827927092011153134นายสุชาติ แก้วดอนรี ทล2063                        88798499            30212346                                02540469CCSH       0000000034200000                                                                             
D000052006057601827927092011153945นายประทุม สุขลาภ                                  8806-9390           3821-4324                               10010424CCSH       0000000995100000                                                                             
D000053006057601827927092011154024นายประภาส ศรีวรรณา                                775459390           106129153                               02500607CCSH       0000001435240000                                                                             
D000054006057601827927092011154104นายประภูศักดิ์ บุญอำนวย มฉ1136                    8878-9897           6131-1073                               00280900CCSH       0000001665500000                                                                             
D000055006057601827927092011154332ด.ต.เสิม หยุ่นแก้ว ทศ 7818                        8885-9496           8821-7361                               01970208CCSH       0000001812300000                                                                             
D000056006057601827927092011162614นายวีระ ยุบลพริ้ง                                 8836-9887           9521-6358                               10320156CCSH       0000001550000000                                                                             
D000057006057601827927092011171143นายอรัญ ขาวเนตร                                   88178499            65211337                                09760107CCSH       0000001935300000                                                                             
D000058006057601827927092011174724นายวิทยา แซ่จึง                                   88859597            23217362                                09760107CCSH       0000001580000000                                                                             
D000059006057601827927092011175949กิตติศักดิ์  ร่ำรวย                               8847-9691           8121-8357                               08690542CCSH       0000001918500000                                                                             
T000060006057601827900000000000000000000000083656880000058                                                                                                                                                                                                      
