H0000010060576018279บริษัท ไทเอซ สิสซิ่ง จำกัด              17102011TALHO                                                                                                                                                                                       
D000002006057601827917102011091449นายอุดม เชาวรินทร์                                88668797            96066083                                11630404CCSH       0000000670000000                                                                             
D000003006057601827917102011091553ปรัญชัย สาชิต                                     8877-9786           2431-4074                               00980224CCSH       0000001745300000                                                                             
D000004006057601827917102011091813นายเฉลา ฉางทรัพย์                                 88059398            40217360                                00611046CCSH       0000001455300000                                                                             
D000005006057601827917102011091852นางสาว  พัชรินทร์ พงศ์สิริสาโรช                   88512499            700011980                               00190408CCSH       0000001274400000                                                                             
D000006006057601827917102011092158นายทวีศักดิ์ หารบุรุษ ทล 2488                     88998798            84212348                                02530654CCSH       0000001665500000                                                                             
D000007006057601827917102011092640นาย สำรวย มูหะหมัดสะแระ                           88522899            107112791                               01471089CCSH       0000000158000000                                                                             
D000008006057601827917102011093259นางสาวสุกัญญา จันทร์แจ้ง                          88359986            50213328                                03870286CCSH       0000000557900000                                                                             
D000009006057601827917102011093757นายประจัญชัย  อัฒจักร ทว9202                      8867-9190           2221-9350                               00130162CCSH       0000001918500000                                                                             
D000010006057601827917102011101619นายรัฐ ใจฉ่ำ                                      8817-8998           8031-2060                               00640715CCSH       0000001230000000                                                                             
D000011006057601827917102011103327นายสมคิด อินตา ทย 1109                            88288197            91211320                                00410822CCSH       0000001551900000                                                                             
D000012006057601827917102011105333นายชาติชาย  ชาติขยัน ทว3510                       8897-9688           0521-3351                               04600072CCSH       0000001884200000                                                                             
D000013006057601827917102011105433นายสุระ  บรรจง                                    88520799            104120699                               00360013CCSH       0000002029000000                                                                             
D000014006057601827917102011110130นายสันติ ฤทธี ทศ7203                              8855-9897           3221-7360                               10360725CCSH       0000001893500000                                                                             
D000015006057601827917102011110322นายสันติ ฤทธี ทศ7203                              4875-9997           3221-7360                               10360725CCSH       0000000274500000                                                                             
D000016006057601827917102011110610นางมุกดา ประสงค์สุข ทศ311                         88978988            13210361                                10070236CCSH       0000001884200000                                                                             
D000017006057601827917102011110653นายสุภะชัย  ตู้ที   ทศ 1406                       88569198            64211360                                01200488CCSH       0000001930000000                                                                             
D000018006057601827917102011110807ฉกาจ ไพมณี ทล 1871                                88768598            18211347                                10970213CCSH       0000000605200000                                                                             
D000019006057601827917102011112543นายพงศ์พล มั่นศักดิ์ ทม 8466                      88504499            107086218                               05760692CCSH       0000001367400000                                                                             
D000020006057601827917102011113555ธีระเนตร ศุภศฤงคาร                                8818-9298           9921-3345                               05713677CCSH       0000001699800000                                                                             
D000021006057601827917102011114042นายธงชัย  สุขศิริ                                 8880-9494           7821-9322                               01081088CCSH       0000001470000000                                                                             
D000022006057601827917102011114133นายภูเมศ ภู่เกลี้ยง ทย1843                        88759896            38211324                                08566520CCSH       0000001392800000                                                                             
D000023006057601827917102011114229นายภูเมศ ภู่เกลี้ยง ทล5101                        88059397            11215340                                08566520CCSH       0000001814600000                                                                             
D000024006057601827917102011115337นาย ศุภวัฒน์ ดวงจันทร์   ทย 4603                  88718389            36214320                                02260509CCSH       0000000733300000                                                                             
D000025006057601827917102011115422นายดำรงค์ ด่านกำจัด                               88979490            28214311                                09760107CCSH       0000000808500000                                                                             
D000026006057601827917102011120453นาย เจริญ สุวรรณคีรี                              88526899            104119622                               01230882CCSH       0000003316500000                                                                             
D000027006057601827917102011120644นายวัฒนศักดิ์ ศรีบรบือ ทล.9177                    8896-8699           7121-9347                               00282766CCSH       0000001769500000                                                                             
D000028006057601827917102011120700นายรุ่งโรจน์  เนาว์กลาง ทม244                     88569392            42210314                                02590911CCSH       0000001144500000                                                                             
D000029006057601827917102011121759น.ส. ณัฐธิชา ทาระเวท                              8856-7697           4121-6357                               03830197CCSH       0000001918500000                                                                             
D000030006057601827917102011122437นางสาวมะลิวัลย์  จุ่นทอง ทว 8046                  8807-9982           6021-8354                               07540593CCSH       0000001734200000                                                                             
D000031006057601827917102011122615นายสมนึก สืบพิลัย                                 88867497            95219347                                02264904CCSH       0000001700000000                                                                             
D000032006057601827917102011122851นางสาวพิมพ์ชนก แซ่ตั้ง                            88779391            34213336                                01770554CCSH       0000001230500000                                                                             
D000033006057601827917102011123240นาย มานะ ปานนพภา ทล4957                           8888-9196           7921-4345                               00640141CCSH       0000001595500000                                                                             
D000034006057601827917102011124053นายวีระพงษ์ สาลีรัมย์                             8827-9890           7321-0323           ทย337               00570153CCSH       0000001736400000                                                                             
D000035006057601827917102011125144นายอนันต์ เปสโล                                   88089497            03311076                                04690188CCSH       0000001754000000                                                                             
D000036006057601827917102011125247นายอนันต์ เปสโล                                   88089497            03311076                                04690188CCSH       0000000034300000                                                                             
D000037006057601827917102011131443ด.ต. พิพรรธ แสนอินทร์ ทย 4346                     8867-8698           6321-4324                               05700767CCSH       0000001105700000                                                                             
D000038006057601827917102011133033นางพรรณา วรรณโนรักษ์                              88279793            89216351            ทว6918              08510518CCSH       0000001602800000                                                                             
D000039006057601827917102011133037นางนาวี มีสมวงษ์                                  88978889            30316071            มฉ6013              02540020CCSH       0000001617900000                                                                             
D000040006057601827917102011134244นางคนึงนิตย์ ตะคุณนะ ทว 4443                      8847-9687           3421-4354                               05670406CCSH       0000002222000000                                                                             
D000041006057601827917102011135138คุณวีระ                                           8846-8497           3921-5331                               00580617CCSH       0000001000000000                                                                             
D000042006057601827917102011135319นายไพศักดิ์ เทพแสง ทร2978                         88579982            89212337            0814593581          01901901CCSH       0000001088800000                                                                             
D000043006057601827917102011135947นายสุชาติ วิเศษชิต                                88859596            81212329                                06960271CCSH       0000001052200000                                                                             
D000044006057601827917102011141459นาย บุญเลิศ  ทรัพย์เจริญกุล ทศ2932                8856-9994           2921-2363                               02590911CCSH       0000001679300000                                                                             
D000045006057601827917102011141610นายกุล โสมณวัฒน์ มง197                            88868298            71310059                                10520393CCSH       0000000030000000                                                                             
D000046006057601827917102011141913นายศิริชัย จุลแดง  ทศ9189                         88659195            91219368                                04830677CCSH       0000001546700000                                                                             
D000047006057601827917102011142704นางนงคราญ คำมอญ ทว7259                            88479993            92217355                                04580699CCSH       0000002528000000                                                                             
D000048006057601827917102011142709ทน กองเกตุใหญ่                                    88878999            40316073                                02501075CCSH       0000000809000000                                                                             
D000049006057601827917102011142741นางนงคราญ คำมอญ ทว5279                            88779887            92215357                                04580699CCSH       0000002528300000                                                                             
D000050006057601827917102011142825นางนงคราญ คำมอญ ทล 7975                           8848-9990           5921-7347                               04580699CCSH       0000002036500000                                                                             
D000051006057601827917102011143004ทน กองเกตุใหญ่ มฉ 6034                            88878999            40316073                                02501075CCSH       0000001884200000                                                                             
D000052006057601827917102011143438นายไพรสน คำอ่อน                                   88368398            30216369            ทศ 6093             04670151CCSH       0000001890800000                                                                             
D000053006057601827917102011144429นายอนันท์ ทับทิม                                  88459695            40211330                                01800670CCSH       0000001000000000                                                                             
D000054006057601827917102011150334นายไพร๊อท ภูกาบ                                   88078297            00211361                                00830255CCSH       0000001228700000                                                                             
D000055006057601827917102011151327นางวิจืตรา ลาวัณย์วิจิตร                          8871-8789           5721-3328                               07627621CCSH       0000000960000000                                                                             
D000056006057601827917102011151835นายวัฒนา เทพแสง                                   88516899            107065424                               10071100CCSH       0000001293500000                                                                             
D000057006057601827917102011152418นายสุรชัย แก้วใจจง ทว 9791                        88578989            17219359                                07930240CCSH       0000001884200000                                                                             
D000058006057601827917102011152901นายบุญเลิศ เทศขำ ปอ 2964                          88888497            49252416                                04580699CCSH       0000000680000000                                                                             
D000059006057601827917102011154020นายพิกิจ ภูมิภาค ทษ 496                           88521299            106198852                               02530654CCSH       0000002223000000                                                                             
D000060006057601827917102011154130นายพิกิจ ภูมิภาค ทศ 2106                          88169887            61212360                                02530654CCSH       0000002346000000                                                                             
D000061006057601827917102011154240นายพิกิจ ภูมิภาค ทศ 2160                          88069887            01212366                                02530654CCSH       0000002346000000                                                                             
D000062006057601827917102011154954นางนงนุช  ซอวลี ทว607                             88588797            76210350                                08691827CCSH       0000001741100000                                                                             
D000063006057601827917102011155520นางภัททิรา  วีระกูล                               88868598            40210363                                01081088CCSH       0000000500000000                                                                             
D000064006057601827917102011160009K.จิราพร สายสุวรรณ ทว4650                         8887-9896           0621-4355                               02610535CCSH       0000001608900000                                                                             
D000065006057601827917102011161307พล ศุภมงคล สร้อยสายอุบล ทย 3611                   88779888            16213321                                07930240CCSH       0000000096000000                                                                             
D000066006057601827917102011162225นายชูชัย จันทร์สมุทร มช101                        88559996            11310080                                10360570CCSH       0000001832800000                                                                             
D000067006057601827917102011164152มงคล ทองอยู่                                      88679982            41218355                                09761108CCSH       0000001799200000                                                                             
D000068006057601827917102011171736นางศศิธร เชาว์โน ทล2468                           88598598            84212346                                07930240CCSH       0000001500000000                                                                             
D000069006057601827917102011171917นายจุลพงษ์ สายบัว                                 8878-8999           3031-3077                               05970617CCSH       0000001700000000                                                                             
D000070006057601827917102011175511ณรงค์ชัย อารีรักษ์ ทศ1973                         88669887            39211367                                07960121CCSH       0000001833500000                                                                             
D000071006057601827917102011180520นายวรเทพ  ชมดวง                                   88179995            15215350                                05690707CCSH       0000001896000000                                                                             
T000072006057601827900000000000000000000000103038800000070                                                                                                                                                                                                      
