H0000010060576018279บริษัท ไทเอซ สิสซิ่ง จำกัด              01032012TALHO                                                                                                                                                                                       
D000002006057601827901032012083431นายธเนศ ไกรสิทธิ์ ทม 4833                         88596698            107024624                               04580699CCSH       0000000393000000                                                                             
D000003006057601827901032012084051อนุสรณ์  วารีน้อย                                 8827-8299           2321-0327                               00911062CCSH       0000001455200000                                                                             
D000004006057601827901032012084650สุนทร ทองไพวรรณ                                   8838-8597           4721-2353                               02540469CCSH       0000001900000000                                                                             
D000005006057601827901032012084812คุณจารุวรรณ  เลิศไกร                              88669291            70211337                                09550486CCSH       0000001402900000                                                                             
D000006006057601827901032012093151นายถวิล  นาโควงค์ ทว 6477                         8817-9294           7421-6357                               00750766CCSH       0000001884200000                                                                             
D000007006057601827901032012093405นางสาวเบญจมาศ มูลลาด  ทษ616                       88519299            104122436                               01890619CCSH       0000002071500000                                                                             
D000008006057601827901032012100048นายธรภัทร จันทร์หอมกุล ทศ6816                     88659698            68216361                                05671599CCSH       0000003805500000                                                                             
D000009006057601827901032012103736นายสมนึก  ทองอ่ำ                                  88669393            16213362                                02170046CCSH       0000001799200000                                                                             
D000010006057601827901032012104443นายสุมิตร  แพไธสง                                 8826-9591           0021-2324                               06920406CCSH       0000001056600000                                                                             
D000011006057601827901032012105215ด.ต.วิรัตน์ ตะคุณนะ ทว1428                        8838-8498           8421-1352                               05670390CCSH       0000001973000000                                                                             
D000012006057601827901032012105551นาย บวรพลภ์ สุนทราธนาทิพย์ ทว 5690                8847-9995           0621-5359                               04581882CCSH       0000001556500000                                                                             
D000013006057601827901032012110848นายคำนวย รวยภิรมย์                                88079691            34315071            มฉ 5413             06971662CCSH       0000001918500000                                                                             
D000014006057601827901032012112104นาย วิทยา แซ่อ้วง  ป้ายแดง                        0198187995898       104128356                               04880528CCSH       0000001134200000                                                                             
D000015006057601827901032012113452นางลำเพย ศรีดาวเดือน  ทล5807                      88589393            78215340                                11440193CCSH       0000001432800000                                                                             
D000016006057601827901032012113839นายทองหล่อ โภคา                                   88789492            09216340            ทล6900              03970649CCSH       0000001700000000                                                                             
D000017006057601827901032012115914นายสาธิต ทองอร่ามเรือง ทล 3726                    88518989            107161814                               01480525CCSH       0000001449000000                                                                             
D000018006057601827901032012120520นายวุฒิชัย มาตชะรา                                88549499            104115407                               04991118CCSH       0000001901600000                                                                             
D000019006057601827901032012120819นายพรชัย สุจริตหัตถชัย มง1783                     88519989            107029121                               11240684CCSH       0000000725500000                                                                             
D000020006057601827901032012122505นายคะนอง กองสุข                                   88596998            107040570                               01750476CCSH       0000000931200000                                                                             
D000021006057601827901032012132005นางคล้าย มุจรินทร์                                88979292            75219286            ทพ9567              08510518CCSH       0000001450000000                                                                             
D000022006057601827901032012132657นางสาวสุกัญญา มีชัย                               88868597            04216369                                01260388CCSH       0000001839700000                                                                             
D000023006057601827901032012135336นายกำพล นวปฎลชัยเขต                               88789891            48216347                                02388677CCSH       0000003488000000                                                                             
D000024006057601827901032012135742นายประโยชน์ บุญสมเชื้อ                            88609595            04315060                                11250856CCSH       0000001059500000                                                                             
D000025006057601827901032012140320วิฑูร  คงเจริญ  มฉ 3485                           88288298            54313078                                02530516CCSH       0000001924700000                                                                             
D000026006057601827901032012141511นายสุริยัน ขำดำ                                   88979791            65218338                                01230490CCSH       0000001697800000                                                                             
D000027006057601827901032012141746นายอนันต์ พูลแสวง                                 8857-9695           8721-5356                               06870274CCSH       0000001549600000                                                                             
D000028006057601827901032012142401นายผจญ เฉลิมวัฒน์ ทว7518                          8847-9883           8521-7351                               10360725CCSH       0000001990000000                                                                             
D000029006057601827901032012144621นายสุบรรณ์  ยะประภา                               88538299            107160189                               02260835CCSH       0000001408700000                                                                             
D000030006057601827901032012145027นายธนรัตน พิทักเจริญ                              88575898            104126325                               00241780CCSH       0000002029000000                                                                             
D000031006057601827901032012145100นายสาคร  นามใจยา                                  88679397            63211342                                01100263CCSH       0000001580000000                                                                             
D000032006057601827901032012145400นาย กิจจา คลังเพ็ชร                               88568398            02318059            มง 8290             02502980CCSH       0000000628200000                                                                             
D000033006057601827901032012152510นาย สรรเสริญ  สีธงชัยรุ่งโรจน์                    88168698            00216365                                07930498CCSH       0000001091500000                                                                             
D000034006057601827901032012152607นาย สรรเสริญ  สีธงชัยรุ่งโรจน์                    88368498            40215333                                07930498CCSH       0000001051000000                                                                             
D000035006057601827901032012152741นาย สมเกีรติ  สีธงชัยรุ่งโรจน์                    8846-9792           3321-2364                               07930498CCSH       0000001132000000                                                                             
D000036006057601827901032012161507ยอด ศรีราชา                                       8836-7997           5821-7321                               10330064CCSH       0000000851900000                                                                             
D000037006057601827901032012163036นายวีระศักดิ์ ศรีสมุทร ทล7727                     88579598            106123933                               10360725CCSH       0000000030000000                                                                             
D000038006057601827901032012163524ประพนธ์ ละม้ายแข                                  88879498            79212357                                10365296CCSH       0000001700000000                                                                             
D000039006057601827901032012164631นายแอน หวังผล                                     88659495            94218361                                04831051CCSH       0000001505200000                                                                             
D000040006057601827901032012172538นาย สงวน  มุลตะกร  ทล5697                         88789493            76215349                                11860608CCSH       0000001700000000                                                                             
D000041006057601827901032012173120จิรศักดิ์ ศรีบุญจิตต์                             88369298            82210341                                08000990CCSH       0000001449300000                                                                             
D000042006057601827901032012180532นายนพรัตน์ เที่ยงสมบุญ ทย 4630                    88543889            107104167                               10320746CCSH       0000001200000000                                                                             
D000043006057601827901032012183528นายชัชวาลย์  แสงอาวุธ  ทศ 7235                    88159797            52217363                                10720208CCSH       0000001863100000                                                                             
D000044006057601827901032012183626นายชัชวาล  แสงอาวุธ  ทศ 8140                      8835-9296           0121-8364                               10720208CCSH       0000001856500000                                                                             
D000045006057601827901032012184132นายอาคม พูลสวัสดิ์ ทร1792                         8880-9792           2721-1339                               04780516CCSH       0000001079200000                                                                             
D000046006057601827901032012185710ปัทมา  ทรัพย์กลิ่น                                88979491            44315073            มฉ5434              08690266CCSH       0000001764300000                                                                             
D000047006057601827901032012190326คุณพร จันทอง ทย 9490                              88515789            107117586                               08550650CCSH       0000000950000000                                                                             
T000048006057601827900000000000000000000000070359600000046                                                                                                                                                                                                      
