H0000010060576018279บริษัท ไทเอซ สิสซิ่ง จำกัด              19012012TALHO                                                                                                                                                                                       
D000002006057601827919012012083350นาย คงศักดิ์ รุ่งรัตน์                            88389198            29213347                                00641096CCSH       0000001665500000                                                                             
D000003006057601827919012012083558นาย คงศักดิ์ รุ่งรัตน์ ทว6711                     88479784            17216351                                00641096CCSH       0000001990000000                                                                             
D000004006057601827919012012090003จุฑามาศ ทองเปลว                                   88779391            34213336                                01770861CCSH       0000001199200000                                                                             
D000005006057601827919012012090440พิรภัทรา                                          8887-9792           0921-7358                               06991739CCSH       0000001884200000                                                                             
D000006006057601827919012012091943นายเจริญ สุวรรณคีรี  ทศ 9726                      88526899            104119622                               08560792CCSH       0000003281900000                                                                             
D000007006057601827919012012094543นายปฐมพัฒน์ ผาทอง มฉ2800                          88289681            08312070                                00651470CCSH       0000001799200000                                                                             
D000008006057601827919012012094706ดต.สุวนัย เสาศิส์                                 88769195            78212366                                00960200CCSH       0000001892500000                                                                             
D000009006057601827919012012101101นายสุรศักดิ์ เลิศไกร                              88569291            76214361                                09550547CCSH       0000001856500000                                                                             
D000010006057601827919012012102631นาย วิวัฒน์ ขันติพงษ์ ทว 7699                     88479692            96217359                                07930240CCSH       0000001799200000                                                                             
D000011006057601827919012012102754ร.ท.วิไล  ลูกบัว ทว 326                           88769592            63210352                                00650326CCSH       0000001300000000                                                                             
D000012006057601827919012012104040ด.ต.สมศักดิ์ อรชุน นง7317                         88530499            107033723                               05750619CCSH       0000000517200000                                                                             
D000013006057601827919012012110234นายธันยา  บุญเพิ่ม ทศ 1347                        88069998            73211364                                11521628CCSH       0000001884200000                                                                             
D000014006057601827919012012110514นายอมรวงษ์ เปียไพบูลย์ ทษ530                      88519599            104122431                               00771132CCSH       0000001568200000                                                                             
D000015006057601827919012012110605นายอมรวงษ์ เปียไพบูลย์ ทล7828                     8858-9781           8821-7342                               00771132CCSH       0000001587900000                                                                             
D000016006057601827919012012110655นายอมรวงษ์ เปียไพบูลย์ ป้ายแดง                    88589698            104127141                               00771132CCSH       0000001630000000                                                                             
D000017006057601827919012012112638นายวรา จันทร์หลวง                                 88878899            07215330                                00740081CCSH       0000001491800000                                                                             
D000018006057601827919012012113634นาย ประเทือง สุขสมพืช                             88879090            18315070                                01230882CCSH       0000002000000000                                                                             
D000019006057601827919012012115951นายสิทธิพร แววอุดม มช 162                         8885-9796           2131-0086                               07540593COTH       0000001663600000                                                                             
D000020006057601827919012012120808นายทรง อ่อนใจ ทว8576                              88579781            65218357                                04581830CCSH       0000001884200000                                                                             
D000021006057601827919012012121053คุณสำราญ ไทรกลมเกลียว ทร 3051                     88369693            10213335                                08550650CCSH       0000000989800000                                                                             
D000022006057601827919012012121712นายสมพงษ์ เครือพัฒน์                              88179190            62219358                                10903618CCSH       0000001799200000                                                                             
D000023006057601827919012012121823สมพงษ์ เครือพัฒน์                                 88079190            02219359                                10903618CCSH       0000001799200000                                                                             
D000024006057601827919012012123042นายสุพน หาบัณฑิตย์                                88359694            24216310                                10720567CCSH       0000000505000000                                                                             
D000025006057601827919012012123129เจริญ  น้อยชื่น                                   8818-9380           4031-3077                               04040732CCSH       0000001432800000                                                                             
D000026006057601827919012012123242คุณวาสนา ศรีนุรัตน์                               88269391            16214360                                01480560CCSH       0000002513400000                                                                             
D000027006057601827919012012123337ประไพวรรณ หวานเย็น                                8815-9798           6521-3334                               00210713CCSH       0000001326800000                                                                             
D000028006057601827919012012123355คุณวาสนา ศรีนุรัตน์                               88369391            26214360                                01480560CCSH       0000002513400000                                                                             
D000029006057601827919012012125657น.ส.ไพรจิตร  คำสงค์                               88509099            107078749                               01760442CCSH       0000001120600000                                                                             
D000030006057601827919012012130042นางสาวพวงเพ็ญ ศิริพละ ทว 3549                     88879997            95213354                                04580699CCSH       0000002116700000                                                                             
D000031006057601827919012012130956นางทิฆัมพร แช่มเกษม ศศ4668                        88379494            86364366                                00450503CCSH       0000000823900000                                                                             
D000032006057601827919012012134041นายฉัตรชัย งานไว 0814458421                       88574497            107028810                               03993086CCSH       0000001400000000                                                                             
D000033006057601827919012012140232สุนิสา ชัยชนะ                                     88159995            52218369                                11941277CCSH       0000001846600000                                                                             
D000034006057601827919012012142248นายสุนทร  จันทร                                   88679791            61218355                                01900549CCSH       0000001884200000                                                                             
D000035006057601827919012012142854นายศิริมงคล เจริญศิริ  ทว 7520                    88279992            05217352                                10154549CCSH       0000001700000000                                                                             
D000036006057601827919012012143152นายศิริมงคล เจริญศิริ ทว 7521                     88379992            15217352                                10154549CCSH       0000001700000000                                                                             
D000037006057601827919012012143734นายวรวิทย์ ทิพนัด ทร3598                          88582898            107132655                               02260861CCSH       0000000869400000                                                                             
D000038006057601827919012012145202นายอัศวิน อิ่มพันธ์                               88516799            106199481                               02610862CCSH       0000000300000000                                                                             
D000039006057601827919012012150025นายบุญช่วย  พิศาลภูรินาถ ทร4094                   88668498            40214339                                04600072CCSH       0000001150000000                                                                             
D000040006057601827919012012152926สมหมาย ปานเนาว์                                   88659894            19318052                                07609708CCSH       0000000701500000                                                                             
D000041006057601827919012012155159นาย มัน พรมนิมิตร                                 88488999            81313073                                05760932CCSH       0000001644300000                                                                             
D000042006057601827919012012160257ด.ต.เสิม หยุ่นแก้ว                                8848-7497           9021-7340                               01970387CCSH       0000001700000000                                                                             
D000043006057601827919012012171249นาย ปรีชา เชื้อหมอ ทว9753                         88578099            37219355                                10070236CCSH       0000001515300000                                                                             
D000044006057601827919012012182501นายสมพงษ์ พลพุทธา                                 88088097            35212358                                04840289CCSH       0000001700000000                                                                             
T000045006057601827900000000000000000000000067947400000043                                                                                                                                                                                                      
