H0000010060576018279บริษัท ไทเอซ สิสซิ่ง จำกัด              28012012TALHO                                                                                                                                                                                       
D000002006057601827928012012083624นายเชาว์  พินยะเพียน                              88579986            50215350                                11240673CCSH       0000000785000000                                                                             
D000003006057601827928012012110649นายสรายุทธ บัวบัณฑิต                              88189396            99214340                                09761108CCSH       0000002042500000                                                                             
D000004006057601827928012012111418นางนฤมล ฟ้าอรุณ                                   88679798            87212356                                05705512CCSH       0000001432800000                                                                             
D000005006057601827928012012112826นางนงนุช สุทธาวาส ทศ1611                          88669298            16211361                                08691092CCSH       0000001090200000                                                                             
D000006006057601827928012012114104นายสาคร นามใจยา ทร 7551                           8899-9896           1521-7335                               10136228CCSH       0000000573000000                                                                             
D000007006057601827928012012115451นายอรัญ ขาวเนตร                                   8817-8499           6521-1337           ทร 1576             09768355CCSH       0000002039000000                                                                             
D000008006057601827928012012120057นายทอง ไสยวิจิตร                                  88589997            31214344                                09761108CCSH       0000000934800000                                                                             
D000009006057601827928012012120740นาย นิพนธ์ สิทธิราช                               88511599            104121274                               07540596CCSH       0000001867300000                                                                             
D000010006057601827928012012120800นายวิชัย                                          88959196            29217368            ทศ7982              11811811CCSH       0000001588500000                                                                             
D000011006057601827928012012122501คุณ เครือฟ้า ทาใจ                                 88779797            39213350                                07540563CCSH       0000001800000000                                                                             
D000012006057601827928012012123402นาย ยวด ยินดี มฉ 3640                             8845-9293           0631-3074                               11140247CCSH       0000001234700000                                                                             
D000013006057601827928012012134404นายสงวน  มุลตะกร  ทล 5697                         8878-9493           7621-5349                               10720208CCSH       0000001700000000                                                                             
D000014006057601827928012012141651นายเทพฤทธิ์ สองใหม่                               88879196            59319053                                01730198CCSH       0000001451700000                                                                             
D000015006057601827928012012151447นาย ธนกฤต อินนุช                                  88289491            63217340                                05710084CCSH       0000001895000000                                                                             
D000016006057601827928012012153257นาย เสนอ สุดศรี ทล 6425                           8888-9592           5421-6342                               08450154CCSH       0000001734300000                                                                             
D000017006057601827928012012153750นส.วิไลรัตน์ บุญเผือก ทล7670 0865332177           88789981            06217347                                10074338CCSH       0000003100000000                                                                             
D000018006057601827928012012154112วรรณภา  เจริญอินทร์                               88269690            12215361            ทศ 5211             07990132CCSH       0000003241900000                                                                             
D000019006057601827928012012162739นางชนาทิพย์ สาทสนิท                               88504899            107034554                               08000403CCSH       0000001500000000                                                                             
D000020006057601827928012012163256นายดำรงค์ ภูทองขาว                                88068698            31216362                                10720377CCSH       0000001839700000                                                                             
D000021006057601827928012012175454นาย ประสิทธิ์ แจ้งเหตุผล  ทล 412                  88525299            107152834                               09760540CCSH       0000000927400000                                                                             
D000022006057601827928012012175721นางสาวปาริชาติ สุกกลิ่น มช1955                    88518399            106198723                               07940349CCSH       0000001834200000                                                                             
D000023006057601827928012012181740นางสาว วรกมล บุญมา (089-5244705)                  88500799            106199193           ทษ 1037             08552980CCSH       0000002422300000                                                                             
D000024006057601827928012012182301จ.ส.ต.ยุทธภูมิ รัตนบัติ ทร517                     8836-9196           7521-0331                               10050475CCSH       0000001105700000                                                                             
D000025006057601827928012012193037นางพัชรี ศรีหาประทุม ทม8664                       88769491            46218316                                11860608CCSH       0000000808500000                                                                             
T000026006057601827900000000000000000000000038948500000024                                                                                                                                                                                                      
