H0000010060576018279บริษัท ไทเอซ สิสซิ่ง จำกัด              21072011TALHO                                                                                                                                                                                       
D000002006057601827921072011083506นัฐพล บุญวิไลลักษณ์                               88769596            48215321                                02602931CCSH       0000000890000000                                                                             
D000003006057601827921072011084144ด.ต.  พชร  ดีพอ  มฉ  5607                         8817-9890           7631-5070                               04990266CCSH       0000001515300000                                                                             
D000004006057601827921072011090419หยาดอรุณ  ศรีทับทิม                               88479297            79212335                                04710657CCSH       0000001740600000                                                                             
D000005006057601827921072011090916นายวิรัตน์  เกิดผล                                88589797            22214347                                00360013CCSH       0000000235500000                                                                             
D000006006057601827921072011090944บุญเลี้ยง พูนไธสง                                 88198397            74213346                                04710657CCSH       0000001692500000                                                                             
D000007006057601827921072011094809จิราภรณ์ เถื่อนอาราม                              8897-9096           4521-0325                               06990912CCSH       0000001319700000                                                                             
D000008006057601827921072011100004นายจิตธง เทียนหิรัญชัยกุล                         88289998            16213341                                00390143CCSH       0000001665500000                                                                             
D000009006057601827921072011101519นายวัชรพล สิงห์ลี ทว5079                          8837-9496           9021-5357                               08510017CCSH       0000001899500000                                                                             
D000010006057601827921072011102152นาย สมชาย ตราลาภ ทล 3862                          8858-9398           2821-3346                               09550887CCSH       0000002000000000                                                                             
D000011006057601827921072011103339นายสำรวย จางนอก                                   8836-8897           6221-6360           ทศ6206              00570153CCSH       0000001006600000                                                                             
D000012006057601827921072011104544นางสาวชูศรี  งามประเสริฐ                          8811-8688           4921-4327                               01440888CCSH       0000000870800000                                                                             
D000013006057601827921072011110603พ.จ.อ.หญิง บุญทอง จันทร์สุวรรณ ทศ2823             8806-9295           3821-2362                               00060027CCSH       0000001884200000                                                                             
D000014006057601827921072011110932นางลดาวัลย์ ภักดีสุวรรณ ทย 6474                   88159996            44216327                                10071091CCSH       0000001005100000                                                                             
D000015006057601827921072011111306นายเฉลิม จันทร์สอน   มจ6465                       8896-7097           5431-6066                               05769451CCSH       0000000604800000                                                                             
D000016006057601827921072011111908วลียา อภิสิทธิวาสนา ทล5541                        88677497            15215344                                01593214CCSH       0000001936500000                                                                             
D000017006057601827921072011113754ชลิตดา เจริญพวง                                   88889980            97216320                                09760107CCSH       0000000207000000                                                                             
D000018006057601827921072011114309นางสุวิน หวะสุวรรณ                                88579791            02218356                                09740485CCSH       0000001884200000                                                                             
D000019006057601827921072011120737นางอัมพร ยารังษี                                  8856-9590           2231-6065                               03830446CCSH       0000001105700000                                                                             
D000020006057601827921072011123802นายสมชาย ชอบธรรม ทล 1714                          88888798            47211341                                04603621CCSH       0000001823000000                                                                             
D000021006057601827921072011124721อัครเดช ขันคำ                                     88479982            52315078                                10271600CCSH       0000001799200000                                                                             
D000022006057601827921072011125224นายชูเกียรติ โควเนตร                              88588897            37211353                                09760107CCSH       0000001799200000                                                                             
D000023006057601827921072011125953นาง กิ่งวิวรรณ์  กระแสโสม  ทศ  7198               8835-9997           8121-7369                               08400047CCSH       0000001705000000                                                                             
D000024006057601827921072011130111นาง กิ่งวิวรรณ์  กระแสโสม  ทศ  7198               4885-9997           8121-7369                               08400047CCSH       0000000170000000                                                                             
D000025006057601827921072011131017นายบัญญัติ แก่นจันทร์ มฉ550                       88259594            05310075                                05680913CCSH       0000001382100000                                                                             
D000026006057601827921072011131339พ.ต.ท.สุเทพ  ภูดวงเดือน                           8845-9597           0421-9316                               02501795CCSH       0000001232200000                                                                             
D000027006057601827921072011132430นางสาว ขวัญเมือง แก้วสระแสน ทย 6160               8885-9196           0121-6326                               04581882CCSH       0000001613400000                                                                             
D000028006057601827921072011132804นายวิสูตร ศรีพงษ์สุทธิ์ ทล1400                    8839-9790           0421-1340                               04671136CCSH       0000001443700000                                                                             
D000029006057601827921072011134124นาง บุณยานิตย์ ศิริรักษ์ ทย7680                   8877-8297           0621-7328                               01480840CCSH       0000000100000000                                                                             
D000030006057601827921072011134543นางนิตยา วรสาร ทศ 3330                            8836-9893           0321-3363                               07750696CCSH       0000001175500000                                                                             
D000031006057601827921072011140837นายอุไรศักดิ์ เพื่อนสงคราม ทย 5432                8827-9292           2421-5323                               07650577CCSH       0000001466600000                                                                             
D000032006057601827921072011140906นาย วิริทธิ์พล กานต์กมลภูษิต ทว6204               8817-9694           4221-6350                               05690237CCSH       0000001950000000                                                                             
D000033006057601827921072011142319นายนิวัฒน์  บุบผาสุพรรณ์  ทล 5538                 8818-9893           8521-5343                               10250251CCSH       0000001795800000                                                                             
D000034006057601827921072011142723นางสุมาลี ศรีกะภา                                 8859-9192           3621-0345                               00760083CCSH       0000001714300000                                                                             
D000035006057601827921072011143710นายเอกสิทธิ์  ศรีตองอ่อน ทว4796                   8837-9696           3721-4359                               02590911CCSH       0000001918700000                                                                             
D000036006057601827921072011143806นางสุกัญญา ศรีจันทร์ ทว4753                       8827-9696           3721-4355                               02590911CCSH       0000001918700000                                                                             
D000037006057601827921072011144316วุฒิชัย รักษจิตร                                  8876-9591           5431-5052                               02179603CCSH       0000000452000000                                                                             
D000038006057601827921072011144602นายสุรศักดิ์ ถนอมสุข                              8846-8898           3831-8055           มง 8853             09768355CCSH       0000000691200000                                                                             
D000039006057601827921072011150113นายณรงค์กร ศิริยามัน ทศ 7674                      8865-9896           4621-7367                               04580699CCSH       0000001501700000                                                                             
D000040006057601827921072011150218นางจุไรรัตน์ สุทธิเวช ทล4789                      8818-9996           9721-4348                               11522040CCSH       0000002391700000                                                                             
D000041006057601827921072011152619นายธีรชัย  จิตมีธรรมเลิศ ทม 8255                  88998599            52218315                                02170215CCSH       0000001550000000                                                                             
D000042006057601827921072011152622นาย สมใจ ปักการะนัง                               8896-9787           8031-1057                               00340753CCSH       0000000552900000                                                                             
D000043006057601827921072011152702นางสุนิจ สมบัติ                                   8896-9295           4821-2335                               09740387CCSH       0000000200000000                                                                             
D000044006057601827921072011152944คุณสุวทณีย์  จิตต์สนธิ                            8875-7697           4831-7074           มฉ 7844             00580488CCSH       0000001799200000                                                                             
D000045006057601827921072011160806นาย อำนาจ  จันทรวิวัฒน์ ทว 3664                   8897-9788           4621-3356                               08401303CCSH       0000001652150000                                                                             
D000046006057601827921072011162156นางสาว ประทุม  ตรีภักดิ์  ทว 9997                 8827-8989           7921-9359                               10090596CCSH       0000001828900000                                                                             
D000047006057601827921072011162305นาย สรรเสริญ สีธงชัยรุ่งโรจน์ ทย6774              88468597            47216327                                07930727CCSH       0000001010600000                                                                             
D000048006057601827921072011164219นาย ณฐพร พันมะลี                                  8886-9894           6921-5324                               10720567CCSH       0000001055400000                                                                             
D000049006057601827921072011165015นางสาวอรพิน ธนารักษ์เจริญกุล ทล 9301              88188899            13219340                                07800356CCSH       0000001838900000                                                                             
D000050006057601827921072011165532นาย จักรชัย ลมัยกุล                               8806-9890           0721-4361                               09620092CCSH       0000001946800000                                                                             
D000051006057601827921072011171219นางสาวนันทา สมทรัพย์                              88679884            15216358                                11520403CCSH       0000001900000000                                                                             
D000052006057601827921072011171841สมมาด  แสงสุขขา  ทว7504                           8857-9992           4521-7350                               04950191CCSH       0000001515300000                                                                             
D000053006057601827921072011171958นายสมศักดิ์ ตั้งจิตเสถียรกุล ทม 5936              8807-7397           6921-5313                               04620133CCSH       0000001551900000                                                                             
D000054006057601827921072011180302นายนิทัศน์  สิริพุทธวณิชย์  มง 7512               8886-9591           2531-7051                               04881090CCSH       0000001265800000                                                                             
D000055006057601827921072011182326นาย ทศพล ผาช้างเผือก  มฉ 4088                     8866-9296           8031-4078                               08450531CCSH       0000001700000000                                                                             
D000056006057601827921072011183457นาย ณัฏฐพล  พูลสวัสดิ์ ทศ 4667                    8826-9291           7621-4366                               07540593CCSH       0000001950000000                                                                             
D000057006057601827921072011183808นายชายชาญ งามชื่น                                 88079696            26319052                                10661140CCSH       0000000886600000                                                                             
T000058006057601827900000000000000000000000077711950000056                                                                                                                                                                                                      
