H0000010060576018279บริษัท ไทเอซ สิสซิ่ง จำกัด              22082011TALHO                                                                                                                                                                                       
D000002006057601827922082011083021นาย อุไรศักดิ์ เพื่อนสงคราม ทย5432                8827-9292           2421-5323                               11240761CCSH       0000001474800000                                                                             
D000003006057601827922082011083145นางสาว ศิรินทิพย์ สลุงอยู่ ทศ 7643                8895-9896           3621-7364                               04580699CCSH       0000001519900000                                                                             
D000004006057601827922082011084220นางสาว สุวภัทร พรประภาศักดิ์ ทศ4918               8846-9198           8921-4361                               01200402CCSH       0000001794600000                                                                             
D000005006057601827922082011084604นางผาณิต จันทร์เมฆา ทว 637                        8846-7297           7621-0353                               07410893CCSH       0000001799200000                                                                             
D000006006057601827922082011084951นิตยา วรสาร                                       88369893            03213363                                00240400CCSH       0000001175500000                                                                             
D000007006057601827922082011085436นางสาวดวงกมล  ห้องแซง  ทว 8526                    8897-9881           6521-8352                               11310028CCSH       0000001700000000                                                                             
D000008006057601827922082011085958นายวิเชียร  ชื่นยินดี  ทศ 8397                    88559695            73218369                                08560585CCSH       0000001812300000                                                                             
D000009006057601827922082011090246นาย เทพฤทธิ์ สองใหม่ มง 9935                      8887-9196           5931-9053                               11461039CCSH       0000001451700000                                                                             
D000010006057601827922082011094252นายประกอบ ประทุมศรี ทศ2817                        88769895            78212361                                10121673CCSH       0000001948000000                                                                             
D000011006057601827922082011095137นายเกรียงไกร ศรอินทร์  ทย 2486                    8896-9492           6421-2328                               02590096CCSH       0000000800000000                                                                             
D000012006057601827922082011095951ด.ต.  พชร ดีพอ  มฉ 5607                           8817-9890           7631-5070                               04990266CCSH       0000001515300000                                                                             
D000013006057601827922082011101401นายวรา จันทร์หลวง ทร 5700                         8887-8899           0721-5330                               04881100CCLQ477404 00000014863000140143                                                                         
D000014006057601827922082011103157นายสถาพร เมฆแก้ว                                  8876-8498           2731-5057                               01520889CCSH       0000000700000000                                                                             
D000015006057601827922082011103209สุกัญญา ศรีจันทร์                                 88279696            37214355                                00170047CCLQ905657100000006900000240001                                                                         
D000016006057601827922082011103820นายอนุสรณ์  วารีน้อย                              8875-9793           6121-5355                               07990132CCLQ103438000000016585000040766                                                                         
D000017006057601827922082011103952นายพิเชษฐ แก้วมา  ทว2775                          88179898            57212357                                08401304CCSH       0000001786300000                                                                             
D000018006057601827922082011104233วิทยา แซ่จึง  ทศ7322                              8885-9597           2321-7362                               00651470CCSH       0000000132800000                                                                             
D000019006057601827922082011104420นาย วิทยา  แซ่จึง  ทศ 7323                        8855-9597           3321-7362                               00651470CCSH       0000000098500000                                                                             
D000020006057601827922082011105612นายสำรวย จางนอก ทศ 6206                           8836-8897           6221-6360                               00570890CCSH       0000001006600000                                                                             
D000021006057601827922082011105728นาง จิราพร ทองร่มโพธิ์ ทว 6633                    88179884            36216353                                01890436CCSH       0000001700000000                                                                             
D000022006057601827922082011105940THONG-LOR P                                       88599191            21211344                                08518511CCSH       0000001261500000                                                                             
D000023006057601827922082011110121นาย อุดร ผาน้อยวงค์ ทล3562                        8868-9998           2521-3346                               02590911CCSH       0000001665500000                                                                             
D000024006057601827922082011110159กมล แต้มสว่าง                                     88289590            84218348                                00911062CCSH       0000001800000000                                                                             
D000025006057601827922082011111108นาย มานะ เกตุชาญ                                  8825-9194           4721-3329                               00640141CCSH       0000001447000000                                                                             
D000026006057601827922082011111140นาย เพชร สูตรอุดม  ทย 4908                        8865-9297           8921-4320                               01200547CCSH       0000001287300000                                                                             
D000027006057601827922082011112043นางสาว สมพร อินทรสอน ทล 5631                      8848-9193           1621-5343                               10900089CCSH       0000001658800000                                                                             
D000028006057601827922082011112117อิทธิพงศ์  อินทรีย์                               8888-9781           9731-2076                               01550599CCSH       0000000096000000                                                                             
D000029006057601827922082011112134นายสายชล  คงสมบูรณ์  ทย 6203                      8849-9390           3221-6320                               01200195CCSH       0000001681900000                                                                             
D000030006057601827922082011112404นายวัชรพล  สิงห์ลี  ทว 5079                       8837-9496           9021-5357                               08510045CCSH       0000001883500000                                                                             
D000031006057601827922082011112505นาย สวัสดิ์ จันทร์งาม มจ 9936                     8869-9291           6931-9063                               05710252CCSH       0000001275500000                                                                             
D000032006057601827922082011113417นาย เสน่ห์ ขาวสวัสดิ์ ทร7423                      8836-9698           3421-7332                               02590600CCSH       0000001354000000                                                                             
D000033006057601827922082011114803นางกิ่งวิวรรณ์ กระแสโสม  ทศ 7198                  48859997            81217369                                08401304CCSH       0000000170000000                                                                             
D000034006057601827922082011114935นางกิ่งวิวรรณ์  กระแสโสม ทศ7198                   88359997            81217369                                08401304CCSH       0000001705000000                                                                             
D000035006057601827922082011120525นายแพง พงษ์สุกรี                                  88979888            13213350                                09760107CCSH       0000001700000000                                                                             
D000036006057601827922082011120606นายแพง พงษ์สุกรี                                  88879888            12213359                                09760107CCSH       0000001700000000                                                                             
D000037006057601827922082011121129นายสนิท ขุนทอง                                    8807-9694           0631-4079                               07690142CCSH       0000001860000000                                                                             
D000038006057601827922082011121213นาย กฤษณะ ชลภาพ ทย 4478                           88659595            84214327                                00600151CCSH       0000000887500000                                                                             
D000039006057601827922082011121329นาย ประมวล เพ็งนิล                                8846-7097           4221-9342                               01100207CCSH       0000002116700000                                                                             
D000040006057601827922082011121442นายวิลาศ สวัสดิ์วราห์กุล ทย 2937                  88079493            79212323                                10720377CCSH       0000000700000000                                                                             
D000041006057601827922082011121623นาย ธนะจิตต์  พึ่งโพธิ์สภ  ทว 512                 8838-8689           2521-0351           082-4451704         08690033CCSH       0000001700000000                                                                             
D000042006057601827922082011121707นายอุทิศ กรวยกลาง  มฉ2052                         8857-8597           2031-2075                               00260014CCSH       0000001979500000                                                                             
D000043006057601827922082011124001นายอำพล  ชื่นแย้ม                                 8896-8898           8031-9073                               10660680CCSH       0000000647300000                                                                             
D000044006057601827922082011124107นางนงคราญ คำมอญ ทล 9527                           8848-8599           7521-9342                               04580699CCSH       0000002036500000                                                                             
D000045006057601827922082011124215นายชัชวาล  แสงอาวุธ ทศ8357                        8805-9895           7321-8365                               08401296CCSH       0000001828800000                                                                             
D000046006057601827922082011124250พิพรรธ แสนอินทร์ ทย4346                           8867-8698           6321-4324                               07627621CCSH       0000001102700000                                                                             
D000047006057601827922082011124337นางภัสรา  เรศสุข ทศ 2334                          8876-9694           4321-2363                               08401296CCSH       0000001800000000                                                                             
D000048006057601827922082011125015พ.ต.ท.ประเจต ภาพสมุทร ทล5536                      8817-7697           6521-5343                               06900618CCSH       0000001700000000                                                                             
D000049006057601827922082011125017อนันต์ ขำนิล ทล2176                               88098499            61212347                                00920501CCSH       0000001734800000                                                                             
D000050006057601827922082011125407นายมงคล พลรักษา ทว 9440                           8817-8699           0421-9354                               07650577CCSH       0000001799200000                                                                             
D000051006057601827922082011125802นาย สำราญ ขาวผ่อง ทว1931                          8898-8697           1921-1353                               02590608CCSH       0000001788300000                                                                             
D000052006057601827922082011130313นาง สุภาพร บุบผา ทศ1506                           8886-9697           6521-1360                               05690237CCSH       0000002070000000                                                                             
D000053006057601827922082011130751นางประทวน เขียวแล                                 88569592            25315061                                10810269CCSH       0000000975600000                                                                             
D000054006057601827922082011133451นางสาวนฤมล  ชนกศรีทอง                             8848-8897           8821-1355                               01520502CCSH       0000001700000000                                                                             
D000055006057601827922082011134207นางสาวณัฐธิชา ทาระเวท ทว6174                      8856-7697           4121-6357                               10520393CCSH       0000002400000000                                                                             
D000056006057601827922082011134623นายปรีชา บุญมั่น ทว 8783                          8867-9790           3721-8358                               11460299CCSH       0000001900000000                                                                             
D000057006057601827922082011134936นส.เพชรมณี สิงห์วิชัย ทย.9930                     8838-9780           0921-9323                               00440033CCSH       0000001600000000                                                                             
D000058006057601827922082011135025พตท.สุเทพ ภูดวงเดือน ทม9460                       8845-9597           0421-9316                               01800598CCSH       0000001232200000                                                                             
D000059006057601827922082011135508นางสาววิวรรณ  ละม้ายโสม                           8877-8699           7321-9358                               02170215CCSH       0000001994500000                                                                             
D000060006057601827922082011140533นายกมล  แต้มสว่าง                                 88489992            46218337                                00911077CCSH       0000002000000000                                                                             
D000061006057601827922082011140545นายสมมาด แสงสุขขา ทว7504                          88579992            45217350                                04950176CCSH       0000001515300000                                                                             
D000062006057601827922082011140619นางสาวเครือวรรณ์ ดำรงค์                           4886-8998           0221-0362           ทศ 220              08510518CCSH       0000000306000000                                                                             
D000063006057601827922082011140756นายสมมาด แสงสุขขา ทศ1875                          88669497            58211367                                04950176CCSH       0000000235500000                                                                             
D000064006057601827922082011141305นายสาคร นามใจยา ทล1326                            8867-9397           6321-1342                               01100538CCSH       0000001580000000                                                                             
D000065006057601827922082011141457นางแสงเดือน เพ็ชรนิล  ทล5539                      8868-9893           9521-5343                               02700441CCSH       0000001617900000                                                                             
D000066006057601827922082011143031ชูเกียรติ โควเนตร                                 88588897            37211353                                09760107CCSH       0000001799200000                                                                             
D000067006057601827922082011144334สมเดช แสงสิน                                      88189497            25214342                                10279615CCSH       0000000167000000                                                                             
D000068006057601827922082011144721นายบัวลา ทองขาว                                   88669290            45210364                                01210586CCSH       0000001110000000                                                                             
D000069006057601827922082011145311นายนิตยา เทพนรินทร์ ทร7656                        8826-8497           6621-7335                               05690237CCSH       0000001562100000                                                                             
D000070006057601827922082011145850นายสมศักดิ์ ลีประโคน                              8806-9190           6121-5367           ทศ 5176             03041334CCSH       0000001928800000                                                                             
D000071006057601827922082011150332นายสมนึก  สืบพิลัย                                8835-9994           6621-8369           ทศ 8696             02260178CCSH       0000002069400000                                                                             
D000072006057601827922082011150845นาง วิจิตรา ลาวัณย์วิจิตร                         88188997            75211358                                07620396CCSH       0000001884200000                                                                             
D000073006057601827922082011151206นายสุพจน์  เพ็งอินทร์  ทว  760                    8878-8698           0721-0356                               10130063CCSH       0000002178000000                                                                             
D000074006057601827922082011151821นางศิริพร บัติดอน ทย 5596                         8816-9097           6521-5329           0854465673          01481588CCSH       0000002253400000                                                                             
D000075006057601827922082011151914นายพิกิจ ภูมิภาค ทศ 2106                          8816-9887           6121-2360                               02530654CCSH       0000002346000000                                                                             
D000076006057601827922082011152108นาย สุรัตน์ สังข์เงิน ทล1367                      8889-9781           7321-1346                               01200274CCSH       0000001520000000                                                                             
D000077006057601827922082011152242นางคูณ  เทศแท้                                    88579993            37216358                                03970257CCSH       0000001700000000                                                                             
D000078006057601827922082011153921นายอดิศักดิ์ บำรุงเมือง ทล 7788                   8896-8497           8721-7348                               04580699CCSH       0000002130500000                                                                             
D000079006057601827922082011161758นางสาว นัฐพร ประวงษ์                              88969193            95213319                                00860082CCSH       0000000363200000                                                                             
D000080006057601827922082011163613นายวรวิทย์  และสง่า ทว3030                        8806-9697           0021-3353                               05690237CCSH       0000002008000000                                                                             
D000081006057601827922082011164406นางสาว พิรุณรัตน์ ยงท้วม                          88079390            72219354                                09621011CCSH       0000000820000000                                                                             
D000082006057601827922082011170359นายทนงศักดิ์ คงแก้ว ทล1875                        8869-8899           5821-1347                               08691092CCSH       0000001248600000                                                                             
D000083006057601827922082011170442นายทนงศักดิ์ คงแก้ว ทล1874                        8879-8899           4821-1347                               08691092CCSH       0000001248600000                                                                             
D000084006057601827922082011170754นายวิเชต  มารกลม                                  88789994            61215346                                08833910CCSH       0000002012500000                                                                             
D000085006057601827922082011171738นายจงเจริญ ช่วยสงค์ ทว 8106                       8877-9882           6121-8350                               09624492CCSH       0000001931200000                                                                             
D000086006057601827922082011172706นายธีระพงษ์ แก้วแอ่ง 0870957780                   88479695            60312056                                10660230CCSH       0000000753500000                                                                             
D000087006057601827922082011174138นายนิทัศน์ สิริพุทธวณิชย์ มง7512                  8886-9591           2531-7051                               08691092CCSH       0000001266800000                                                                             
D000088006057601827922082011175615นายเกรียงไกร ศรอินทร์ ทย2486                      8896-9492           6421-2328                               10320214CCSH       0000000029300000                                                                             
D000089006057601827922082011175818นาย ธนเดช สงวนรัตน์ ทว 4755                       8857-9796           5721-4355                               11140881CCSH       0000001884200000                                                                             
D000090006057601827922082011180954นางสาว ประทุม ตรีภักดิ์ ทว 9997                   8827-8989           7921-9359                               10090081CCSH       0000001828900000                                                                             
D000091006057601827922082011181845นายวรพงศ์ พูลพิพิธ                                88988597            06216329                                04880760CCSH       0000001000000000                                                                             
D000092006057601827922082011183149นายสายัณห์ เจริญสุข มจ7981                        8869-9994           1931-7068                               08691092CCSH       0000001122200000                                                                             
D000093006057601827922082011185455นายสมพงษ์ ติคำ                                    88589991            00215342                                10720144CCSH       0000001849600000                                                                             
D000094006057601827922082011190024นาย วิริทธิ์พล กานต์กมลภูษิต ทว 6204              8817-9694           4221-6350           0802640527          07620610CCSH       0000002027100000                                                                             
D000095006057601827922082011190113นางสาว วชิราภรณ์ นุชสุข                           88779794            12216358                                09621011CCSH       0000001787800000                                                                             
T000096006057601827900000000000000000000000137574700000094                                                                                                                                                                                                      
