H0000010060576018279บริษัท ไทเอซ สิสซิ่ง จำกัด              26082011TALHO                                                                                                                                                                                       
D000002006057601827926082011085408นางเสน่ห์ อินสุ                                   8877-9690           4721-8358                               01900020CCSH       0000001652200000                                                                             
D000003006057601827926082011085821สุรินทร์ เขียนทอง                                 8825-9295           9321-8335                               00243534CCSH       0000001495200000                                                                             
D000004006057601827926082011093124นายชนินทร์  อ่อนใจเอื้อ                           8888-9682           3731-2071           มฉ 2713             00666792CCSH       0000000096000000                                                                             
D000005006057601827926082011095013นายวิภพ ฉิวกระโทก ทว 9175                         8877-8099           5121-9357                               00830604CCSH       0000001459000000                                                                             
D000006006057601827926082011103119นางนงนุช สุทธาวาส ทศ 1611 โทร.0879946035          8866-9298           1621-1361                               05943281CCSH       0000001895200000                                                                             
D000007006057601827926082011103151นายอุทัย  การเกษ                                  8857-8197           8221-6324           ทย 6248             00740180CCSH       0000001067000000                                                                             
D000008006057601827926082011104925นายวรวิทย์ และสง่า                                8867-9992           2021-1345                               01890557CCSH       0000000405000000                                                                             
D000009006057601827926082011105337วันชัย เอี่ยมผ่องใส  ทศ2429                       8876-9796           9421-2362                               02530516CCSH       0000001884200000                                                                             
D000010006057601827926082011111541จ.ส.ต.ยุทธภูมิ รัตนบัติ ทร 517                    8836-9196           7521-0331                               10050089CCSH       0000001105700000                                                                             
D000011006057601827926082011111621ศุภมงคล สร้อยสายอุบล                              8877-9888           1621-3321                               01990939CCSH       0000000933500000                                                                             
D000012006057601827926082011112053นาย บุญเทิด มาชุมแสง                              88779593            20315072                                00790646CCSH       0000001734300000                                                                             
D000013006057601827926082011112106นางศิรินภา  จิตตะยะโสภณ                           88479596            87214359                                06921923CCSH       0000002358000000                                                                             
D000014006057601827926082011112451นายนันทวี สุนา มฉ 4755                            88479794            57314075                                01890658CCSH       0000001884200000                                                                             
D000015006057601827926082011112600นายประเสริฐ  บุญเพ็ง  ทร 5886                     8835-9894           6821-5338                               00530118CCSH       0000001454700000                                                                             
D000016006057601827926082011114101นายสุรัตน์ จิตตนาค  ทล9440                        8878-9190           0421-9344                               04700190CCSH       0000001755300000                                                                             
D000017006057601827926082011115137นางดารา ผลจันทร์ ทล1270                           8826-8798           0221-1347                               08510017CCSH       0000002846200000                                                                             
D000018006057601827926082011115415นาย สุนทร ทองไพรวรรณ                              88388597            47212353                                05760932CCSH       0000001900000000                                                                             
D000019006057601827926082011120309นายทวีศักดิ์ เมืองกลาง                            88168299            94212337                                01480363CCSH       0000001014700000                                                                             
D000020006057601827926082011120650นาย จักรชัย ลมัยกุล ทศ 4710                       8806-9890           0721-4361                               09621104CCSH       0000000044800000                                                                             
D000021006057601827926082011121156นายทิพย์มนต์  สวนไพรินทร์                         88359698            24218352                                01920232CCSH       0000001914800000                                                                             
D000022006057601827926082011121550นาย ชัชวาล  แสงอาวุธ  ทศ 8732                     8805-9594           2721-8363                               08400047CCSH       0000001883800000                                                                             
D000023006057601827926082011121710นาย ชัชวาล  แสงอาวุธ  ทศ 8356                     8855-9595           6321-8365                               08400047CCSH       0000001828800000                                                                             
D000024006057601827926082011121846นายประภูศักดิ์ บุญอำนวย มฉ.1136                   8878-9897           6131-1073                               00282766CCSH       0000001665500000                                                                             
D000025006057601827926082011121848นาง ภัสรา  เรศสุข  ทศ 3492                        8876-9693           2421-3369                               08400047CCSH       0000001799200000                                                                             
D000026006057601827926082011121853นายวรพงศ์ พูลพิพิธ                                88189591            73211311                                04887053CCSH       0000000750000000                                                                             
D000027006057601827926082011122220นายจิระเดช ราหูรักษ์                              88969790                                                    01270563CCSH       0000002814800000                                                                             
D000028006057601827926082011122721นาง สุมาลี  สังข์ทอง                              8827-9587           8521-4356                               07661135CCSH       0000000235500000                                                                             
D000029006057601827926082011123111นายสมเกียรติ สีธงชัยรุ่งโรจน์                     88169595            36213320                                04880760CCSH       0000001597000000                                                                             
D000030006057601827926082011124008นางสาว พวงเพ็ญ ศิริพละ ทว 4189                    8817-9297           9121-4358                               04581882CCSH       0000002116700000                                                                             
D000031006057601827926082011124055นางสาว พวงเพ็ญ ศิริพละ ทว 4158                    8827-9297           8121-4355                               04581882CCSH       0000002116700000                                                                             
D000032006057601827926082011124832คุณวัลลพ กันหอม                                   8805-9986           1221-6337                               04710469CCSH       0000001115800000                                                                             
D000033006057601827926082011133353เพลินทิพย์ เหิมสารจอด                             88469195            02210321                                02540261CCSH       0000000889300000                                                                             
D000034006057601827926082011133353นายทวีป  คงชนะ                                    8896-9597           6621-3339                               06999197CCSH       0000000860800000                                                                             
D000035006057601827926082011140700สุชาติ ทิพศักดิ์                                  88999891            86210317                                10271600CCSH       0000001418700000                                                                             
D000036006057601827926082011141426นายสุริยัน ขำดำ ทร 8586                           8897-9791           6521-8338                               01230059CCSH       0000001697800000                                                                             
D000037006057601827926082011143605นายพิกิจ ภูมิภาค ทศ2834                           88269895            48212363                                02530836CCSH       0000002082100000                                                                             
D000038006057601827926082011143910นายสมศักดิ์ วังสมอ ทร 3049                        88869391            90213334                                01890658CCSH       0000001495600000                                                                             
D000039006057601827926082011144746นายวีระ ฉ่ำมณี ทร 5913                            8846-8497           3921-5331                               00580153CCSH       0000001000000000                                                                             
D000040006057601827926082011145546นายสุรศักดิ์ อินทศร ทศ 8843                       8815-9994           3821-8364                               04580699CCSH       0000002529700000                                                                             
D000041006057601827926082011145807นุชนารถ พ. ทล6177                                 8828-9792           7121-6347                               10360281CCSH       0000001580000000                                                                             
D000042006057601827926082011150158นางศิริ   เกียรติเฉลิม                            8848-9790           7521-8327                               00336605CCSH       0000003300000000                                                                             
D000043006057601827926082011150159พ.อ.อ.ชำนาญ มณีวรรณ                               8835-9793           9121-9364                               01980916CCSH       0000001568200000                                                                             
D000044006057601827926082011152039นายเมธี เผือกพันธ์มุข                             88559797            75213323                                05760932CCSH       0000001102200000                                                                             
D000045006057601827926082011153532ปรีชา โพธิแก่ง                                    8876-8398           4731-9051                               01890216CCSH       0000001808500000                                                                             
D000046006057601827926082011154139น.ส.เมตตา ตะคุณนะ ทว 4450                         8837-9687           0421-4355                               05670390CCSH       0000001952000000                                                                             
D000047006057601827926082011162459ด.ต.เสิม หยุ่นแก้ว ทศ 7818                        88859496            88217361                                01970208CCSH       0000001812300000                                                                             
D000048006057601827926082011162734นายสันต์ ลาภรุ่งเรือง                             88789593            86215349                                05700127CCSH       0000001357100000                                                                             
D000049006057601827926082011162742ด.ต.เสิม หยุ่นแก้ว ทศ 1962                        88069391            29211366                                01970208CCSH       0000001739400000                                                                             
D000050006057601827926082011163651นาย ประทุม สุขลาภ                                 8806-9390           3821-4324                               10010576CCSH       0000000995100000                                                                             
D000051006057601827926082011172257นายอนุชา สอนเสนา                                  8898-9983           0621-5343                               07650724CCSH       0000001567200000                                                                             
D000052006057601827926082011173121คุณ ประยุทธ อยู่ยงค์ ทล 9445                      88688799            54219344                                11250101CCSH       0000001700000000                                                                             
D000053006057601827926082011173313นาย อุเทน  เพชร์ทอง  ทศ  754                      8887-8197           4721-0365                               10990991CCSH       0000001899200000                                                                             
D000054006057601827926082011173731ศุภกร ธัญญกรรม ทล9302                             8858-8899           2321-9340                               10154881CCSH       0000001432800000                                                                             
D000055006057601827926082011173832ศุภกร ธัญญกรรม ทล4169                             8808-9797           9121-4346                               10154881CCSH       0000001476200000                                                                             
D000056006057601827926082011173920ศุภกร ธัญญกรรม ทล5353                             8898-9984           3321-5345                               10154881CCSH       0000001617900000                                                                             
D000057006057601827926082011180441นายณรงค์   บุญพิศาล  ทม 6073                      8847-9190           30216317                                04670063CCSH       0000001330000000                                                                             
D000058006057601827926082011181153นายเกียรติศักดิ์  บุญเอก                          8886-9996           5321-2322                               11330213CCSH       0000001274500000                                                                             
D000059006057601827926082011183614นายวิชาญ หนูไชยแก้ว                               88669997            88316071                                11251251CCSH       0000000939900000                                                                             
T000060006057601827900000000000000000000000089250300000058                                                                                                                                                                                                      
