H0000010060576018279บริษัท ไทเอซ สิสซิ่ง จำกัด              04092011TALHO                                                                                                                                                                                       
D000002006057601827904092011102934นายสังทอง  มูลเมืองแสน  ทว 5006                   8897-9587           6021-5350                               08510045CCSH       0000001501500000                                                                             
D000003006057601827904092011111616ด.ต. หยิง สุภรร์ บัวงาม ทว 8628                   8887-9881           8621-8352                               05700767CCSH       0000001356900000                                                                             
D000004006057601827904092011111805นาย ภิชาติ  ศรีหาประทุม ทล8536                    8869-9090           6521-8343                               08401303CCSH       0000000265500000                                                                             
D000005006057601827904092011112008นาย  พิเชษฐ์ ศรีหาประทุม ทว4013                   8877-9197           3021-4351                               08401303CCSH       0000002046200000                                                                             
D000006006057601827904092011122209นางสุวิน หวะสุวรรณ ทว8260                         88579791            02218356                                09740222CCSH       0000001884200000                                                                             
D000007006057601827904092011122315นางสุวิน หวะสุวรรณ ทว8260                         88579791            02218356                                09740222CCSH       0000001884200000                                                                             
D000008006057601827904092011122805นายธานี ชาญตะบะ ทล3447                            8829-8797           7421-3344                               07960037CCSH       0000001665500000                                                                             
D000009006057601827904092011124009นายกฤษฎิ์ ฉัตรภูติ ทศ 6951                        8875-9498           1921-6365                               04780536CCSH       0000005031000000                                                                             
D000010006057601827904092011124857นางรำพึง แดงเกาะโพธิ์ ทศ 2509                     88169096            95212360                                04881100CCSH       0000001228700000                                                                             
D000011006057601827904092011133529นายสมยศ คูนคร  ทล 7414                            8898-9391           4421-7341                               01520684CCSH       0000001561200000                                                                             
D000012006057601827904092011134645นางดาลานี วงษา                                    8876-9793           1621-3360                               10720144CCSH       0000002274500000                                                                             
D000013006057601827904092011135050นายมานิตย์ ดวงศรี                                 8828-9598           3721-3348                               02360927CCSH       0000001665500000                                                                             
D000014006057601827904092011142259นางพรเพ็ญ  แซ่ก๊วย                                88289190            04218344                                10720144CCSH       0000001700000000                                                                             
D000015006057601827904092011144541สาคร นามใจยา                                      88079796            47217335                                06976239CCSH       0000000295500000                                                                             
D000016006057601827904092011144647สาคร นามใจยา                                      88679397            63211342                                06976239CCSH       0000000400000000                                                                             
D000017006057601827904092011144712นายประภักตร์ พรหมหอม มฉ3487                       8848-8198           7431-3078                               10720930CCSH       0000001725700000                                                                             
D000018006057601827904092011144750สาคร นามใจยา                                      88679397            63211342                                06976239CCSH       0000001580000000                                                                             
D000019006057601827904092011151654นาย ประสิทธิ์ คุณากร มฉ 2673                      88889291            36312077                                04881100CCSH       0000002134200000                                                                             
D000020006057601827904092011152426ธานี แช่มวัฒนา                                    88589694            28311075                                10365296CCSH       0000001617900000                                                                             
D000021006057601827904092011152808ซาเล็ม ศรีหล้า                                    88669890            06251371                                10365296CCSH       0000000608200000                                                                             
D000022006057601827904092011155555วิทยา แซ่จึง                                      88379886            21215356                                09761108CCSH       0000002169000000                                                                             
D000023006057601827904092011163553นางพรรณา  วรรณโนรักษ์ ทว 6918                     8827-9793           8921-6351                               08510045CCSH       0000001602800000                                                                             
D000024006057601827904092011173547นาย กมลาสน์  ละไมกิจ                              88269994            48217316                                06972020CCSH       0000001220000000                                                                             
D000025006057601827904092011174834นายสุพพัต มฉ4383                                  8867-9886           3331-4078                               04780061CCSH       0000001988500000                                                                             
D000026006057601827904092011190107นาย สมพร พงษ์เหล่างิ้ว มง3731                     8845-9897           1731-3053                               08001096CCSH       0000000695500000                                                                             
T000027006057601827900000000000000000000000040102200000025                                                                                                                                                                                                      
