H0000010060576018279บริษัท ไทเอซ สิสซิ่ง จำกัด              08012012TALHO                                                                                                                                                                                       
D000002006057601827908012012121917นางสาวลัดดา วงศ์เหลืองอ่อน                        88859794            74113010            ญก3407              04930415CCSH       0000000405700000                                                                             
D000003006057601827908012012125639นางสาวปนัดดา สาระวัน                              88879886            61215356                                02500849CCSH       0000001454900000                                                                             
D000004006057601827908012012131502นายวิทยา ภิราพร                                   88789191            74217349                                10661017CCSH       0000001700000000                                                                             
D000005006057601827908012012131842นางบุณยานิตย์ ศิริรักษ์                           88878397            07217338                                11240437CCSH       0000001484300000                                                                             
D000006006057601827908012012140812นายกุล โสมณวัฒน์                                  88868298            71310059            มง197               10630631CCSH       0000002905600000                                                                             
D000007006057601827908012012141521ณรงค์ ภู่กรุต                                     88459798            88216365                                07960121CCSH       0000001282700000                                                                             
D000008006057601827908012012141723ณรงค์ ภูกรุต  ทว2798                              88779798            87212359                                07960121CCSH       0000001335500000                                                                             
D000009006057601827908012012141859ณรงค์ ภูกรุต ทศ 6818                              88259998            88216361                                07960121CCSH       0000001131700000                                                                             
D000010006057601827908012012142017นายณรงค์ ภู่กรุต ทศ6877                           88559798            78216367                                07960121CCSH       0000001131700000                                                                             
D000011006057601827908012012142154นายณรงค์ ภู่กรุต ทศ8418                           88359395            84218361                                07960121CCSH       0000002632000000                                                                             
D000012006057601827908012012142301วิศว คาดหมาย                                      88079984            75216353                                07967961CCSH       0000001884200000                                                                             
D000013006057601827908012012153455นายพงษ์ศักดิ์ บริบูรณ์  ทล7467                    88189391            74217346                                08690335CCSH       0000001787500000                                                                             
D000014006057601827908012012153620น.ส.นุชนารถ แจ่มศุภพันธ์  ทษ1492                  88598898            104122348                               08690335CCSH       0000002235000000                                                                             
D000015006057601827908012012155125กรรณิการ์ สุบุญสันธิ์                             88533899            107093646                               11250232CCSH       0000000711100000                                                                             
D000016006057601827908012012162148พ.ต.ท.จิตติณัติ รักชาติ ทศ 5445                   88468299            54215364                                04780158CCSH       0000002200000000                                                                             
D000017006057601827908012012162337พ.ต.ท.จิตติณัติ รักชาติ ทศ 4443                   88169492            34214364                                04780158CCSH       0000002083900000                                                                             
D000018006057601827908012012171909นายวานิช พานะคุณ  มฉ 4344                         88178197            43314074                                07620496CCSH       0000001800000000                                                                             
D000019006057601827908012012173244นายสมาน พวงพิลา                                   88512199            104122836                               11370605CCSH       0000002483600000                                                                             
D000020006057601827908012012174010นายอนุสรณ์ วารีน้อย                               88537799            106138007                               07990501CCSH       0000001658500000                                                                             
D000021006057601827908012012175842วัลภา ไชยนิด                                      88469490            29214369                                04670151CCSH       0000003768000000                                                                             
T000022006057601827900000000000000000000000036075900000020                                                                                                                                                                                                      
