H0000010060576018279บริษัท ไทเอซ สิสซิ่ง จำกัด              22012012TALHO                                                                                                                                                                                       
D000002006057601827922012012103136นายปรีชา บุญมั่น ทว 8783                          88679790            37218358                                01734121CCSH       0000001950000000                                                                             
D000003006057601827922012012110700นายสฤษดิ์ศักดิ์ พินิจกุลดี                        88769787            40212363                                09761108CCSH       0000001918400000                                                                             
D000004006057601827922012012113040วัสมล โชติสิงห์                                   88518699            104122412                               05700127CCSH       0000002037200000                                                                             
D000005006057601827922012012121405นาย วรพงศ์ พูลพิพิธ                               88988597            06216329            ทย6690              10250256CCSH       0000001200000000                                                                             
D000006006057601827922012012122155ธนะจิตต์  พึ่งโพธิ์สภ                             8838-8689           2521-0351                               08690542CCSH       0000001200000000                                                                             
D000007006057601827922012012130915นาง หนูกร คงศิริ ทศ2130                           88769896            01212363                                10070203CCSH       0000001884200000                                                                             
D000008006057601827922012012135223นาย กิตติศักดิ์  ร่ำรวย ทว8178                    88479691            81218357                                04880528CCSH       0000001918500000                                                                             
D000009006057601827922012012140723นางกาญจนา ด่านวิริยะกุล                           88869896            96215323                                07620396CCSH       0000001118400000                                                                             
D000010006057601827922012012142430พงษ์ศักดิ์ บริบูรณ์                               88679492            81216347                                07621764CCSH       0000002070000000                                                                             
D000011006057601827922012012145647สุพจน์ เพ็งอินทร์                                 88788698            07210356                                10135785CCSH       0000002082100000                                                                             
D000012006057601827922012012150423นายกิตติพงศ์ กรศุภอานนท์ ทม6002                   88078899            20216310                                10150069CCSH       0000000050000000                                                                             
D000013006057601827922012012151040นางศิริดา บุราณคุณ                                88669394            56210323            ทย635               04930415CCSH       0000000900000000                                                                             
D000014006057601827922012012151258นางศิริดา บุราณคุณ                                88769394            76211310            ทม1607              04930415CCSH       0000000900000000                                                                             
D000015006057601827922012012151309นายคงศักดิ์  กองทอง ทศ9790                        88527799            104119626                               04881090CCSH       0000001610000000                                                                             
D000016006057601827922012012154422วิจิตรา  ลาวัณย์วิจิตร                            88188997            75211358                                08690542CCSH       0000001884200000                                                                             
D000017006057601827922012012155213นางสาวนกน้อย สุราลัย ทศ7689                       8845-9796           9621-7368                               10360725CCSH       0000001812300000                                                                             
D000018006057601827922012012155942นายเกรียงไกร ศรอินทร์  ทย2486                     88969492            64212328                                10320014CCSH       0000000829300000                                                                             
D000019006057601827922012012160403นายสวัสดิ์ คูณพรม                                 88869390            46214337                                07660676CCSH       0000001528000000                                                                             
D000020006057601827922012012162352นาย นิพนธ์ ยั่งยืน                                885708598           106107134                               07580556CCSH       0000001159200000                                                                             
D000021006057601827922012012163254นางสาวนงลักษณ์  ศรีชมชื่น                         88527899            104119706           ทศ 9832             07990132CCSH       0000001771300000                                                                             
D000022006057601827922012012163448นางสมร มะหะหมัด ทม 1328                           88279294            83211312                                04881100CCSH       0000001200000000                                                                             
D000023006057601827922012012171115พ.ต.ท.ประเจต ภาพสมุทร ทล 5536                     8817-7697           6521-5343                               09621104CCSH       0000001700000000                                                                             
D000024006057601827922012012171609นายวิเชต มารกลม                                   88789994            61215346                                07822714CCSH       0000002012500000                                                                             
D000025006057601827922012012174322นางสาว วชิราภรณ์ นุชสุข ทว 6281                   8877-9794           1221-6358                               09621104CCSH       0000001787800000                                                                             
D000026006057601827922012012175123นางสาว ขวัญเมือง แก้วสระแสน ทย 6160               8885-9196           0121-6326                               04881100CCSH       0000001647700000                                                                             
D000027006057601827922012012180140นางสาว  วรกมล  บุญมา                              88259797            12217363                                08550648CCSH       0000003347700000                                                                             
D000028006057601827922012012182134นางสาว นัฐพร ประวงษ์ ทม3599                       8896-9193           9521-3319                               00860606CCSH       0000000127100000                                                                             
T000029006057601827900000000000000000000000041645900000027                                                                                                                                                                                                      
