H0000010060576018279บริษัท ไทเอซ สิสซิ่ง จำกัด              08032012TALHO                                                                                                                                                                                       
D000002006057601827908032012083129นาย ดอเลาะ มูเนาวาเราะห์                          88087497            00215340                                00120277CCSH       0000001494000000                                                                             
D000003006057601827908032012083338นายอมรชัย จันทร์สมุทร                             88469794            03213362                                02610077CCSH       0000001467100000                                                                             
D000004006057601827908032012084350K.สุจินต์ ทรงขำ มฉ8181                            8806-9392           1131-8078                               02610535CCSH       0000001721500000                                                                             
D000005006057601827908032012090359คุณปราโมทย์  อภิรมย์ดี                            88479092            67216315                                10200129CCSH       0000000196000000                                                                             
D000006006057601827908032012092425นางสาวขนิษฐา ทิพยโส                               88869695            08217320                                00390351CCSH       0000001077500000                                                                             
D000007006057601827908032012092502K.เสาวรส จำนงค์ไวย                                88574798            107038049                               02610535CCSH       0000001131800000                                                                             
D000008006057601827908032012093123นายไพโรจน์ บุญขันธ์ ทว8495                        88510999            106151163                               00830255CCSH       0000000030000000                                                                             
D000009006057601827908032012094312นายนิติพล ดีเฉลา                                  88359295            49214343                                04653215CCSH       0000001247000000                                                                             
D000010006057601827908032012100022น.ส.อิงอร เอี่ยมวิไล                              8818-8988           7121-2352                               02490239CCSH       0000001700000000                                                                             
D000011006057601827908032012100426นางบุณยานิตย์ ศิริรักษ์                           8887-8397           0721-7338                               01521090CCSH       0000001525800000                                                                             
D000012006057601827908032012100458นายสมเกียรติ บุญปาน                               88459698            33213366                                06230046CCSH       0000001372800000                                                                             
D000013006057601827908032012100609นายอนุน คำทา                                      88513099            107145685                               07310211CCSH       0000000657700000                                                                             
D000014006057601827908032012100638นายวิน แซ่วี                                      88524699            104120696                               00240918CCSH       0000001867300000                                                                             
D000015006057601827908032012101536ด.ต.พงศ์ธวัช รอดหิรัญ                             88595898            030111381                               01810438CCSH       0000000624200000                                                                             
D000016006057601827908032012102539น.ส.เพชรมณี สิงห์วิชัย                            88789894            87217326                                00443099CCSH       0000001600000000                                                                             
D000017006057601827908032012103102นายวิชิต เลียงเล็กจำนงค์ ทศ9523                   88538099            104119018                               01746989CCSH       0000001922300000                                                                             
D000018006057601827908032012103355สิทธิรัตน์  ศูนย์ผล ทว 4273                       88379097            32214357                                04950191CCSH       0000001605200000                                                                             
D000019006057601827908032012104841นายสุวรรณ  ปรางทอง                                88269791            66219288                                05760270CCSH       0000000552800000                                                                             
D000020006057601827908032012104934นาย ราเชนทร์ จันทร์ศรีเมือง ทล8004                8858-9291           4021-8340                               00370348CCSH       0000000098500000                                                                             
D000021006057601827908032012105047นาย ชัยโรจน์ เพชรพันธศักดิ์                       8887-9092           5021-8353                               00641096CCSH       0000001799200000                                                                             
D000022006057601827908032012105157นายสมปอง โข่สูงเนิน มง 6513                       88979092            35316051                                10320746CCSH       0000001030700000                                                                             
D000023006057601827908032012105324นางจันทร์สม โพธิ์แดง                              88532699            104118678                               01081088CCSH       0000001922300000                                                                             
D000024006057601827908032012110524นางสาวสมพิตย์  อาสาเน                             88498297            64213347                                01100263CCSH       0000001794300000                                                                             
D000025006057601827908032012111234นายคงฤทธิ์  ผดาวัลย์                              88479192            50214318                                03970257CCSH       0000001220000000                                                                             
D000026006057601827908032012111541นายชาติชาย เกษตรเอี่ยม ทล4880                     88389596            08214348                                07601138CCSH       0000000943400000                                                                             
D000027006057601827908032012111551นายบัวลา  ทองขาว                                  88515799            106124969                               01215368CCSH       0000000132800000                                                                             
D000028006057601827908032012112721สันต์  ลาภรุ่งเรือง  ทล6781                       88599798            106119256                               07620776CCSH       0000000038700000                                                                             
D000029006057601827908032012112832สันต์  ลาภรุ่งเรือง ทล5698                        88590898            106113947                               07620776CCSH       0000000015400000                                                                             
D000030006057601827908032012114340นาย อดิศักดิ์ บำรุงเมือง ทล 7788                  88968497            87217348                                04581882CCSH       0000000030000000                                                                             
D000031006057601827908032012114352ประจวบ เพ็งธรรม                                   88769490            60215367                                00530428CCSH       0000001856500000                                                                             
D000032006057601827908032012114557นายอนุกูล แก้ววิเชียร                             8827-9786           6321-5356           ทว 5366             01770861CCSH       0000001884200000                                                                             
D000033006057601827908032012114729นายอนุกูล แก้ววิเชียร                             8897-9098           4321-3354           ทว 3344             01770861CCSH       0000001799200000                                                                             
D000034006057601827908032012114856นายอนุกูล แก้ววิเชียร                             8887-9984           5521-6356           ทว 6565             01770861CCSH       0000001884200000                                                                             
D000035006057601827908032012120501นางสาวสุรีย์รัตน์ วงษ์เดอรี ทย5009                88669891            90215320                                11040535CCSH       0000001091400000                                                                             
D000036006057601827908032012120827นางจันหอม สาคะวัตร                                88259696            77217369            ทศ 7797             01902940CCSH       0000000923500000                                                                             
D000037006057601827908032012121011วัสมล โชติสิงห์                                   0198187999277       106170967                               04810111CCSH       0000001799200000                                                                             
D000038006057601827908032012121109นาย อดิศร  ซอและ                                  88959695            62211349                                05699910CCSH       0000000100000000                                                                             
D000039006057601827908032012121159นายเสริมศิลป์ โพนาคา มฉ3240                       8858-8199           0231-3074                               11320905COTH       0000001700000000                                                                             
D000040006057601827908032012121635นางนฤมล  ลมสูงเนิน ทม 9840                        88869398            08219314                                05701141CCSH       0000001131900000                                                                             
D000041006057601827908032012121915นาย มานะ ปานนพภา ทล4957                           88889196            79214345                                00641096CCSH       0000001595500000                                                                             
D000042006057601827908032012122817ประเจต ภาพสมุทร                                   0198187998696       104131635                               04770442CCSH       0000001700000000                                                                             
D000043006057601827908032012123447นายฤทธิเดช  ผลภาษี                                88909881            55213338                                11070686CCSH       0000000192800000                                                                             
D000044006057601827908032012123600นายวานิช พานะคุณ                                  88178197            43314074                                10660506CCSH       0000001275500000                                                                             
D000045006057601827908032012124310นางภัสรา เรศสุข                                   88668299            06215362                                11810505CCSH       0000001461600000                                                                             
D000046006057601827908032012125005นายวิทณา อ่อนคำหล้า ทศ 6463                       88068697            34216366                                00470207CCSH       0000001874000000                                                                             
D000047006057601827908032012125448นายพลูพิณ  เขียวแดง                               8807-9981           5531-5079                               11330213CCSH       0000001679300000                                                                             
D000048006057601827908032012130113นส จิราภา ยอดรัก ทศ1961                           88969291            19211366                                01480363CCSH       0000000110000000                                                                             
D000049006057601827908032012132051นางศิริดา บุราณคุณ                                88859694            77218365                                04930773CCSH       0000001912400000                                                                             
D000050006057601827908032012132922นายสมเกียรติ จิระศรีรังสรรค์ ทม4482               88505099            107065942                               11140083CCSH       0000002000000000                                                                             
D000051006057601827908032012133149นาย สมประสงค์ ยูพานิช ทว6437                      8827-9794           7421-6353                               02190075CCSH       0000001787700000                                                                             
D000052006057601827908032012133834นายประสิทธิ์ แสนจะบก                              88512699            107036744                               09760107CCSH       0000000869400000                                                                             
D000053006057601827908032012135802นางพรนัชชา เนตรจุ้ย                               88534899            107145883                               11250856CCSH       0000002221500000                                                                             
D000054006057601827908032012135946นางกรรณิการ์ สุบุญสันธิ์                          88533899            107093646                               11250856CCSH       0000000681100000                                                                             
D000055006057601827908032012143014พ.ต.ท.สุเทพ ภูดวงเดือน ทศ7409                     88359597            94217360                                01800267CCSH       0000001828800000                                                                             
D000056006057601827908032012143423สุมาลี                                            88579686            24215350                                05970092CCSH       0000001884200000                                                                             
D000057006057601827908032012144457นายสมชัย ไทยสง่า ทร 6345                          88468599            53216334                                05670406CCSH       0000001414800000                                                                             
D000058006057601827908032012144928นายกิตติพงศ์ กรศุภอานนท์ ทม6002                   88078899            20216310                                10150069CCSH       0000001590000000                                                                             
D000059006057601827908032012145008คุณวัลพ กันหอม                                    8805-9986           1221-6337                               04710654CCSH       0000001121800000                                                                             
D000060006057601827908032012145037นายกิตติพงศ์ กรศุภอานนท์ ทย2007                   88978799            70212320                                10150069CCSH       0000001590000000                                                                             
D000061006057601827908032012151035นายสมชาย ตราลาภ ทย 2948                           88459794            89212324                                10361034CCSH       0000001520000000                                                                             
D000062006057601827908032012151142นายสมชาย ตราลาภ ทร 6892                           88359794            28216339                                10361034CCSH       0000001520000000                                                                             
D000063006057601827908032012151429นายสมชาย ตราลาภ ทม 9802                           88259794            28219310                                10361034CCSH       0000001000000000                                                                             
D000064006057601827908032012151711นายณรงค์ ภู่กรุต                                  88989690            51218348                                07967961CCSH       0000000295500000                                                                             
D000065006057601827908032012151934น.ส.สมจิตต์ เตือนจิตต์                            88809296            19218322                                07967961CCSH       0000001170500000                                                                             
D000066006057601827908032012152145นายณรงค์ ภู่กรุต ทศ.8418                          88359395            84218361                                07967961CCSH       0000002632000000                                                                             
D000067006057601827908032012152219นาย สำเริง กมุทชาติ                               88514499            107134447                               11470416CCSH       0000001100000000                                                                             
D000068006057601827908032012152422นายคำรณ  ภู่ลา                                    8857-9491           4531-5071                               03970257CCSH       0000001799200000                                                                             
D000069006057601827908032012152504นายบรรจง สุวรรณโคต ทย 9797                        88879587            77219329                                04581830CCSH       0000001665500000                                                                             
D000070006057601827908032012152740นายนิพนธ์ ยั่งยืน                                 88570598            106107134                               07580441CCSH       0000001159200000                                                                             
D000071006057601827908032012152857นายวรวิทย์ และสง่า ทว3030                         88069697            00213353                                01890436CCSH       0000000250000000                                                                             
D000072006057601827908032012153816พิไลวรรณ ทองดี                                    88869196            16212363                                00490410CCSH       0000001515300000                                                                             
D000073006057601827908032012154741นายเจริญ ชัชวาลย์ มฉ 5973                         88078499            39315077                                00650326CCSH       0000001884200000                                                                             
D000074006057601827908032012155003นายจตุพร นาคไพรัชช์                               88379498            82213359                                10520869CCSH       0000002015300000                                                                             
D000075006057601827908032012160357นางสาว นริสรา เเปนสวย ทศ7640                      88859896            06217364                                08510017CCSH       0000000957200000                                                                             
D000076006057601827908032012161234นายเอกชัย  บุรินทะ                                88289494            69213346                                06976239CCSH       0000001600000000                                                                             
D000077006057601827908032012161444นายเอกชัย  บุรินทะ                                88689191            39217346                                06976239CCSH       0000001935500000                                                                             
D000078006057601827908032012163525นายรวมชัย นาคะสถิตย์                              88169598            61211364                                04880760CCSH       0000001587900000                                                                             
D000079006057601827908032012165507นางสาว สุภาณี ปิ่นรอด                             8816-9398           4908-6217                               10990511CCSH       0000001161000000                                                                             
D000080006057601827908032012170633นาง สมร  ราวินิช ทล7182                           8845-9996           2121-7348                               08550648CCSH       0000000015500000                                                                             
D000081006057601827908032012180206นายจักรพันธ์ ขำเกื้อ ทล 5944                      88289793            49215344                                05700496CCSH       0000001617900000                                                                             
D000082006057601827908032012180556นายสุรศักดิ์  อินทศร  ทว5936                      88679495            69215353            081-4949640         08690033CCSH       0000002067300000                                                                             
D000083006057601827908032012183010นายปรีชา ชูชนะ                                    88489094            35318065                                06987537CCSH       0000001583600000                                                                             
D000084006057601827908032012183100นาย ลำดวน  วงสา                                   88598398            28212343                                11520169CCSH       0000001370800000                                                                             
D000085006057601827908032012190111นายวิรัตน์  ติ่งทอง                               88678098            62210366                                00860810CCSH       0000001700000000                                                                             
D000086006057601827908032012191651นายวิทยา ภิราษร                                   8878-9191           7421-7349                               10660615CCSH       0000001700000000                                                                             
T000087006057601827900000000000000000000000110602200000085                                                                                                                                                                                                      
