H0000010060576018279บริษัท ไทเอซ สิสซิ่ง จำกัด              29082011TALHO                                                                                                                                                                                       
D000002006057601827929082011083255นายพรศักดิ์  วีระพันธ์ ทว6961                     8847-9593           1921-6356           0819045619          11300791CCLQ342661800000015900000020187                                                                         
D000003006057601827929082011083502นายพรศักดิ์  วีระพันธ์ ทว6961                     8847-9593           1921-6356           0819045619          11300791CCLQ342661900000016100000020187                                                                         
D000004006057601827929082011083537นายคอนศรี จิตอามาตย์                              88469196            35218321                                04120069CCSH       0000001382100000                                                                             
D000005006057601827929082011090756นายวีระศักดิ์ ธิโสภา มฉ963                        8898-9698           3931-0076                               08561926CCSH       0000001700000000                                                                             
D000006006057601827929082011094457นายอมร จันทร์ไว                                   88998398            03212349                                06230046CCSH       0000001616600000                                                                             
D000007006057601827929082011095333นายเฉลิม จันทร์สอน                                88967097            54316066                                05760932CCSH       0000000300200000                                                                             
D000008006057601827929082011095527อนุสรณ์  วารีน้อย ทย 2980                         8817-8598           0921-2328                               07990174CCLQ103738300000016496000040766                                                                         
D000009006057601827929082011095632นาย สมเกียรติ สีธงชัยรุ่งโรจน์                    88069595            7821-2326                               01930497CCSH       0000001596700000                                                                             
D000010006057601827929082011095741อนุสรณ์  วารีน้อย ทย 5441                         8827-8598           1421-5324                               07990174CCLQ103738400000014847000040766                                                                         
D000011006057601827929082011100124นาง ยุพดี  เที่ยงสาย  ทย 1776                     8817-9598           6721-1327                               10641098CCSH       0000000989800000                                                                             
D000012006057601827929082011100326นายธนพัต คุ้มวงษ์                                 88078897            8521-0364           ทศ. 548             00207452CCSH       0000001773000000                                                                             
D000013006057601827929082011100555คุณ ศิลมน                                         8865-9695           4321-8361                               02610090CCSH       0000001584300000                                                                             
D000014006057601827929082011100849นายธนพัต คุ้มวงษ์ ทว.4262                         8807-9887           2221-4356           081-8015183         00207452CCSH       0000000760800000                                                                             
D000015006057601827929082011102750คุณกึ๋ม พาดขุนทด ทล 9700                          88088499            0721-9340                               08550650CCSH       0000001700000000                                                                             
D000016006057601827929082011102830นางนงค์เครือ พุทธางกูรวงศ์                        88989396                                                    01210586CCSH       0000001398700000                                                                             
D000017006057601827929082011105140สอ.ทิมากร จันทร์หง่อม ทว4808                      8847-9696           8821-4350                               00220927CCSH       0000001927000000                                                                             
D000018006057601827929082011105518นายโกศล เกิดศรี                                   8845-9795           5321-8365           ทศ8355              03970649CCSH       0000001798500000                                                                             
D000019006057601827929082011111509ลำเพย ศรีดาวเดือน                                 8858-9393           7821-5340                               00090422CCSH       0000001432800000                                                                             
D000020006057601827929082011112708นางสาวสมพร พสุนนท์ ทพ1511                         8846-8997           1521-1281                               10360725CCSH       0000000413000000                                                                             
D000021006057601827929082011112743นายจรัล เผยสกุล                                   88669595            77212361                                02580146CCSH       0000001918500000                                                                             
D000022006057601827929082011112852ด.ต.สายชล กฤษวงษ์                                 8867-8598           3021-0365                               07660755CCSH       0000001884200000                                                                             
D000023006057601827929082011115144คุณธีรศักดิ์ ตั้งวิรุฬห์รัตน์ ทว 4752             88279596            2721-4355                               08550650CCSH       0000001918500000                                                                             
D000024006057601827929082011115330นาง สุพัตรา ภิรมย์ขวัญ                            88379790            19218355                                09621011CCSH       0000001884200000                                                                             
D000025006057601827929082011115440นางสาว วรรณา ท้วมเหลือ                            88878698            09219356                                09621011CCSH       0000001884200000                                                                             
D000026006057601827929082011115518สมพงษ์ กาฬสินธุ์ ทม 1281 กทม.                     8882-9096           1221-1318                               00170444CCSH       0000000224300000                                                                             
D000027006057601827929082011115751นายสมหมาย เจรืญสุข ทว 8645                        8857-9890           5621-8354                               04580699CCSH       0000001170000000                                                                             
D000028006057601827929082011120301นางจิราพร  ทองร่มโพธิ์                            8877-9697           8621-3352                               01897527CCSH       0000001666500000                                                                             
D000029006057601827929082011120911นางกันจนี คนหาญ                                   8875-9693           0321-9360           ทศ 9300             00940396CCSH       0000001883800000                                                                             
D000030006057601827929082011122421หจก.วิน คาร์                                      88699491            41211343                                10720144CCLQ708043 00000013096000110180                                                                         
D000031006057601827929082011122631หจก.วินคาร์                                       88699491            41211343                                10720144CCLQ894259 00000002800000140003                                                                         
D000032006057601827929082011122703นพดล  โกตา                                        8859-8297           7421-1338                               00397779CCSH       0000001451700000                                                                             
D000033006057601827929082011122952นาย ชัชวาล  แสงอาวุธ  ทศ 8140                     8835-9296           0121-8364                               08400047CCSH       0000001828800000                                                                             
D000034006057601827929082011123025นายพันธวัช ยันฝาก                                 88189982            47313053                                00390709CCSH       0000001010600000                                                                             
D000035006057601827929082011123120นาย ชัชวาล  แสงอาวุธ  ทศ 7235                     8815-9797           5221-7363                               08400047CCSH       0000001856500000                                                                             
D000036006057601827929082011124400นาย มัด  มลมิตร  มฉ 4425                          8876-9987           5431-4072                               10250225CCSH       0000001750100000                                                                             
D000037006057601827929082011124501คุณ พรประสิทธิ์                                   8878-8399           1521-9349                               02610090CCSH       0000001884200000                                                                             
D000038006057601827929082011130347นายทองหล่อ โภคา                                   88789492            09216340            ทล6900              03970649CCSH       0000001700000000                                                                             
D000039006057601827929082011130928นายพิทักษ์ วรรณไทย มจ301                          8857-9090           1331-0060                               00130481CCSH       0000000864300000                                                                             
D000040006057601827929082011131444นาง สุรเดช ถนอมชื่น มง 5045                       8827-9092           5031-5054                               04780201CCSH       0000001066400000                                                                             
D000041006057601827929082011131500นาย ณรงค์ ประทุมวัน ถน 2630                       8897-9686           0620-2233                               09660651CCSH       0000000700000000                                                                             
D000042006057601827929082011134156นางนงนุช มาลัย ณจ 2457                            88159594            74172065                                01890658CCSH       0000000558000000                                                                             
D000043006057601827929082011140106นางสาว นัยนา งามทอง ทย8878                        8858-9597           8821-8327                               01200402CCSH       0000001728000000                                                                             
D000044006057601827929082011140120นายวิทยา ทิพย์บุญผล ทศ7619                        88759497            96217361                                07930727CCSH       0000001706900000                                                                             
D000045006057601827929082011140216นายวิทยา ทิพย์บุญผล ทศ7619                        48359997            96217361                                07930727CCSH       0000000321000000                                                                             
D000046006057601827929082011140526นายไชยรส ทับทิมไสย  ทศ2377                        8866-9496           7321-2367                               10320014CCSH       0000001884200000                                                                             
D000047006057601827929082011140843นายสมบัติ ชื่อสม                                  8856-9887           6321-7318                               04634629CCSH       0000001130000000                                                                             
D000048006057601827929082011141818นายไพบูลย์ พิมไธสง                                8895-9595           1531-0082                               00470195CCSH       0000001697900000                                                                             
D000049006057601827929082011142039นายสุรินทร์ บุญมาเลิศ                             8878-9293           3421-5348                               00640403CCSH       0000001653900000                                                                             
D000050006057601827929082011142317นาย อนุสรณ์  วารีน้อย ทม 7744                     8846-9797           4721-7314                               01781712CCSH       0000001517700000                                                                             
D000051006057601827929082011142317นาย เกรียงศักดิ์ วิสุทธิรัตนกุล                   88279487            65214356                                01900191CCSH       0000000235500000                                                                             
D000052006057601827929082011142405นาย เกรียงศักดิ์ วิสุทธิรัตนกุล                   88279487            65214356                                01900191CCSH       0000001419000000                                                                             
D000053006057601827929082011143215นางเฉลา  อำนวยพานิช                               8897-8497           3721-0364                               01440888CCSH       0000001549600000                                                                             
D000054006057601827929082011150310สำเร็จ ทว8498                                     88179691            84218359                                07960038CCSH       0000002014400000                                                                             
D000055006057601827929082011150354สำเร็จ ทล5653                                     88689493            36215345                                07960038CCSH       0000001467100000                                                                             
D000056006057601827929082011150502สำเร็จ ทศ7282                                     88659897            22217368                                07960038CCSH       0000001560000000                                                                             
D000057006057601827929082011150558สำเร็จ ทศ9389                                     88541099            104115288                               07960038CCSH       0000001656600000                                                                             
D000058006057601827929082011150703สำเร็จ ทศ2872                                     88169395            28212367                                07960038CCSH       0000001432800000                                                                             
D000059006057601827929082011152544ด.ต.วิรัตน์ ตะคุณนะ ทย 7605                       8840-9497           5621-7320                               05670390CCSH       0000000164300000                                                                             
D000060006057601827929082011153036นางสาวเพลินทิพย์  เหิมสารจอด ทย210                8846-9195           0221-0321                               00820726CCSH       0000000610000000                                                                             
D000061006057601827929082011153755นางบุญสุข จงศิริโชค                               88467987            18216358                                01210241CCSH       0000001799200000                                                                             
D000062006057601827929082011155530นางกมลวัลย์  เสาะขุนทด  ทว 5746                   88279795            67215354                                08510045CCSH       0000001886200000                                                                             
D000063006057601827929082011162531นาย ผจญ เฉลิมวัฒน์ ทว 7518                        8847-9883           8521-7351                               07540908CCSH       0000001990000000                                                                             
D000064006057601827929082011163653น.อ.สาธิต น้ำฟ้า ทศ8864                           88540399            104116281                               05671599CCSH       0000001541100000                                                                             
D000065006057601827929082011173729นางชลิตดา เจริญพวง                                88468397            76214329                                09760107CCSH       0000000829300000                                                                             
D000066006057601827929082011180508นางสาว กิตติพร ตรีศุภกานต์                        88979594            63216357                                09621011CCSH       0000001918500000                                                                             
D000067006057601827929082011180528นายสุวรรณ ฟูศรีกุล มฉ249                          8839-9490           9231-0074                               10150884CCSH       0000001657900000                                                                             
D000068006057601827929082011181042จ.ส.อ.บุญเลิศ ทองเย็น ทล 3687                     88689798            76213348                                08450154CCSH       0000001699740000                                                                             
D000069006057601827929082011185300น.อ. ระพีพงษ์  โสวรรณ ทล 9798                     8838-8299           8721-9349                               04880062CCSH       0000001884200000                                                                             
D000070006057601827929082011195809นายสมพงษ์ ดารักษ์ ทล593                           88969391            35210349                                04950176CCSH       0000000662800000                                                                             
D000071006057601827929082011200114นายสมพงษ์ ดารักษ์ ทล593                           88969391            35210349                                04950176CCSH       0000000200000000                                                                             
T000072006057601827900000000000000000000000097220040000070                                                                                                                                                                                                      
