H0000010060576018279บริษัท ไทเอซ สิสซิ่ง จำกัด              23022012TALHO                                                                                                                                                                                       
D000002006057601827923022012090341อดิศร ดอนสว่าง                                    88889597            60211336                                02190470CCSH       0000001484700000                                                                             
D000003006057601827923022012091152นายวิทยา แซ่จึง ทศ7322                            88859597            23217362                                00650099CCSH       0000001075000000                                                                             
D000004006057601827923022012092221นายสามารถ สุขเรือง                                88579886            53105318                                01520347CCSH       0000001100000000                                                                             
D000005006057601827923022012092227น.ส.ดวงจันทร์ โมฆรัตน์                            88667697            02216358                                01442495CCSH       0000001884200000                                                                             
D000006006057601827923022012093911นายเฉลิมชัย จันทร์งาม                             88489493            71211348                                00190024CCSH       0000001431200000                                                                             
D000007006057601827923022012101816ชำนาญ  สินสำอางค์                                 88573998            107122095                               04950191CCSH       0000001576500000                                                                             
D000008006057601827923022012102721นายวิเชียร ชื่นยินดี                              88559695            73218369                                08560324CCSH       0000001812300000                                                                             
D000009006057601827923022012102904คุณสุวรรณ ชัยชนะ                                  88513499            104121190                               04710654CCSH       0000002069400000                                                                             
D000010006057601827923022012104324สุบิน  งามปานแก้ว                                 88689097            66214347                                11342729CCSH       0000000500000000                                                                             
D000011006057601827923022012104706นายมานพ ฉิมพล ษม 2927                             88779392            79372312                                01451218CCSH       0000000717200000                                                                             
D000012006057601827923022012110759นาย ปิยะ ประทีปช่วง ทศ.3805                       88669792            58213360                                00720609CCSH       0000001799200000                                                                             
D000013006057601827923022012111635น.ส.อุไร ชูศักดิ์ ทร9232                          88499094            22219333                                10150069CCSH       0000000034300000                                                                             
D000014006057601827923022012112744นายปริญญา ประจญยุทธ มจ3723                        88536099            107107041                               10320864CCSH       0000001150000000                                                                             
D000015006057601827923022012115757นายทน  กองเกตุใหญ่                                88878999            40316073                                02530516CCSH       0000001884200000                                                                             
D000016006057601827923022012120226นายนรชัย แพงศร                                    88969896            81212362                                09760107CCSH       0000001884200000                                                                             
D000017006057601827923022012122014นางสาวเกตุนลิน  ริ้วกระโทก                        8826-8897           8221-6360                               02590911CCSH       0000001750000000                                                                             
D000018006057601827923022012122200นางสาวเกตุนลิน  ริ้วกระโทก ทศ6208                 8826-8897           8221-6360                               02590911CCLQ389145 00000003500000060056                                                                         
D000019006057601827923022012122836นางสาว มณีรัตน์ ชูมณี                             88078999            08219351                                10810244CCSH       0000003300000000                                                                             
D000020006057601827923022012123521นายสุนัย พรมไพโรจน์                               88547899            107159104                               09760107CCSH       0000001374400000                                                                             
D000021006057601827923022012124010นายวราวุฒิ  จันทร์ประโคน ทว3900                   88879697            09213350                                02590911CCSH       0000001734300000                                                                             
D000022006057601827923022012130258นายนิธิพัฒน์ บังเกิดคงคาดิษฐ์ ทศ 7194             88859897            41217369                                04670401CCSH       0000002600000000                                                                             
D000023006057601827923022012130438นายนิธิพัฒน์ บังเกิดคงคาดิษฐ์ ทษ 15               88522799            104120693                               04670401CCSH       0000002850000000                                                                             
D000024006057601827923022012131726นางสาว  วัสมล  โชติสิงห์                          0198187999077       106119056                               00910199CCSH       0000001800000000                                                                             
D000025006057601827923022012132944นายสุระ  บรรจง                                    88520799            104120699                               00360013CCSH       0000002029000000                                                                             
D000026006057601827923022012133538นาย เพชร  เกาะแก้ว                                88569992            67210323                                00910199CCSH       0000001885200000                                                                             
D000027006057601827923022012133638นางสาวอรวรรณ ศรีสุวรรณเกศ ทล 8232                 88789490            22218343                                00510528CCSH       0000001700000000                                                                             
D000028006057601827923022012141354พุธชัย โพธิ์ทอง                                   88869987            70318053                                04607752CCSH       0000002036200000                                                                             
D000029006057601827923022012142113สมยส คุนคร                                        88989391            44217341                                01520196CCSH       0000000235500000                                                                             
D000030006057601827923022012142628นายนภดล  เจตรุ่งพันธุ์                            88679391            43218359                                11470668CCSH       0000000235500000                                                                             
D000031006057601827923022012144739นาย วรรณชัย วิมูลคำ มฉ4886                        88479793            68314078                                02560706CCSH       0000001700000000                                                                             
D000032006057601827923022012150620นาย  สุพจน์  เพ็งอินทร์  ทว 760                   88788698            07210356                                01980820CCSH       0000002189000000                                                                             
D000033006057601827923022012150628นายโยธิน มาดลย์ ทว 3506                           88379997            65213350                                04580699CCSH       0000001884200000                                                                             
D000034006057601827923022012152525คุณสมเกียรติ ลีธงชัยรุ่งโรจน์                     88169595            36213320                                00840820CCSH       0000001596700000                                                                             
D000035006057601827923022012154818นาย ชูเกียรติ  โควเนตร  ทว 1733                   88588897            37211353                                09760540CCSH       0000001799200000                                                                             
D000036006057601827923022012160258นายสงบ ระย้า มง1372                               88069598            23311057                                08691092CCSH       0000000572000000                                                                             
D000037006057601827923022012164143สุรีรัตน์ เอี่ยมอำพร                              8837-9796           0021-5353                               07620489CCSH       0000001329600000                                                                             
D000038006057601827923022012165148นายจิรเดช โพธิ์สว่าง                              88078797            68218356                                05700127CCSH       0000001385700000                                                                             
D000039006057601827923022012165325นางธิดา เนาวรัตน์ ทว6892                          8807-9993           2821-6359                               05750619CCSH       0000001897900000                                                                             
D000040006057601827923022012172104นายวีระ ยุบลพริ้ง ทว 6589                         88369887            95216358                                10320746CCSH       0000000758800000                                                                             
D000041006057601827923022012175532นางพรนัชชา เนตรจุ้ย ทร 7533                       88534899            107145883                               04780120CCSH       0000000681100000                                                                             
D000042006057601827923022012175648นางกรรณิการ์ สุบุญสันธิ์                          88533899            107093646                               04780120CCSH       0000000681100000                                                                             
D000043006057601827923022012180023นายพิชิตชัย ดวงจรัส  ทล 885                       88968398            58210348                                10071091CCSH       0000001079900000                                                                             
D000044006057601827923022012180947นาง สุภาพร  บุบผา ทศ1506                          8886-9697           6521-1360                               05690707CCSH       0000001884200000                                                                             
D000045006057601827923022012185125ร.ท. จักรกฤษณ์  เพียรพิจิตร                       88379697            97219369                                11520169CCSH       0000001710000000                                                                             
D000046006057601827923022012185903ร.ท. จักรกฤษณ์  เพียรพิจิตร                       88779698            94213359                                11520169CCSH       0000001710000000                                                                             
D000047006057601827923022012195139นาย มงคล โตเอี่ยม ทล7184                          8848-9791           4121-7348                               08510017CCSH       0000001900000000                                                                             
T000048006057601827900000000000000000000000069041900000046                                                                                                                                                                                                      
