H0000010060576018279บริษัท ไทเอซ สิสซิ่ง จำกัด              04112011TALHO                                                                                                                                                                                       
D000002006057601827904112011084006ประสิทธิ์ คุณากร                                  8888-9291           3631-2077                               00530572CCSH       0000002134500000                                                                             
D000003006057601827904112011092710นายอนิวรรตน์ ไชกองชา มฉ6186                       88178398            61316078                                00771064CCSH       0000001884200000                                                                             
D000004006057601827904112011094924นายอโณทัย สัตยานนท์                               8865-9886           5621-2333                               08521070CCSH       0000000863600000                                                                             
D000005006057601827904112011100100น.ส.บัวเครือ ริมเพชร ทว 9985                      8877-8398           5921-9358                               00757431CCSH       0000000920000000                                                                             
D000006006057601827904112011100526นาย สุรินทร์ บุญมาเลิศ                            88789293            34215348                                05760932CCSH       0000001712200000                                                                             
D000007006057601827904112011102634บัวลอย ประคุนมาน ทย 2857                          88868399            78212325                                02540008CCSH       0000001321000000                                                                             
D000008006057601827904112011104519นางสำรวย  เดชเถร                                  88559193            44219367                                06942260CCSH       0000001901600000                                                                             
D000009006057601827904112011104818นางสาวฐิติยา  มีนันทร                             88788397            04212351                                07620776CCSH       0000001884200000                                                                             
D000010006057601827904112011110248นายธเนศ นาโควงค์                                  88569190            50315069                                00920219CCSH       0000001105700000                                                                             
D000011006057601827904112011110319นาย อานนท์    วันแจ                               88199391            69355075                                02292670CCSH       0000000624200000                                                                             
D000012006057601827904112011113259คุณสุพพัต ตองติดรัมย์                             8867-9886           3331-4078                               02880251CCSH       0000001982100000                                                                             
D000013006057601827904112011113751ภัทรภร บุณยพุกกฌะ                                 88579497            52214359                                01451246CCSH       0000004763000000                                                                             
D000014006057601827904112011114116นายบุญเลียน  สุขจิตต์                             8857-8998           7331-6065                               03350034CCSH       0000001131900000                                                                             
D000015006057601827904112011115103นายเล็ก ระสอน                                     88589895            75214322                                06884700CCSH       0000006091500000                                                                             
D000016006057601827904112011115511วานิช ศรีบุญเรือง                                 88379991            36212320                                00950800CCSH       0000001649700000                                                                             
D000017006057601827904112011120325นายสมศักดิ์ อะโน                                  8897-9792           4421-2349                               04700568CCSH       0000001090300000                                                                             
D000018006057601827904112011121415นายสุรพล ไกรพ้น                                   88878198            91316075                                04603236CCSH       0000000960000000                                                                             
D000019006057601827904112011121521นายชำนาญ  สินสำอางค์                              88279191            45218350                                02170215CCSH       0000001915000000                                                                             
D000020006057601827904112011122257น.ส.ปาริชาติ สุกกลิ่น                             88518399            106198723                               10660506CCSH       0000001830000000                                                                             
D000021006057601827904112011122449น.ส.ทองศรี  ธิปไชย                                88369886            65211320                                00360013CCSH       0000001159200000                                                                             
D000022006057601827904112011122737นายบดินทร์ อิทร์แก้ว ทร8738                       88099694            87218333                                01670845CCSH       0000000368200000                                                                             
D000023006057601827904112011123159นายทองดี สุดหล้า มง 4259                          8896-8397           9231-4055                               04142350CCSH       0000000230000000                                                                             
D000024006057601827904112011123228นาง รัชนี จันทร์แก้ว  ทล 2177                     8809-8399           7121-2347                               01890619CCSH       0000001571300000                                                                             
D000025006057601827904112011124417นายณรงค์ พรหมอ่อน ทม 5133                         88868797            31215313                                11460299CCSH       0000000829300000                                                                             
D000026006057601827904112011124539นาง จันทา ชัยราช ทศ1736                           88069597            67211363                                02530836CCSH       0000001918500000                                                                             
D000027006057601827904112011130144นายวรภพ งะบัว                                     88269096            31212333            ทร.2133             00142691CCSH       0000001517700000                                                                             
D000028006057601827904112011132848นายวรวิทย์ ทิพนัด                                 88169190            85213339            ทน3598              03970649CCSH       0000000663400000                                                                             
D000029006057601827904112011133148บุญเลิศ ทรัพย์เจริญกุล                            88178988            13215321                                10320746CCSH       0000001465000000                                                                             
D000030006057601827904112011133235บุญเลิศ ทรัพย์เจริญกุล                            88069991            76211322                                10320746CCSH       0000001473100000                                                                             
D000031006057601827904112011134042นายจำลูน  ไชยช่วย                                 8856-9890           1331-8076                               00911077CCSH       0000001052200000                                                                             
D000032006057601827904112011134229นางนงนุช มาลัย ณจ 2457                            88159594            74172065                                01890658CCSH       0000000553000000                                                                             
D000033006057601827904112011134317นายสมศักดิ์ ลีประโคน                              8806-9190           6121-5367                               00500245CCSH       0000001960600000                                                                             
D000034006057601827904112011141438นางสาวพวงเพ็ญ ศิริพละ ทว 3144                     8847-9398           4121-3354                               04580699CCSH       0000002116700000                                                                             
D000035006057601827904112011141548นางสาวพวงเพ็ญ ศิริพละ ทว 3142                     8867-9398           2121-3354                               04580699CCSH       0000002116700000                                                                             
D000036006057601827904112011142253นางสาวพรนภา พันธ์ประดิษฐ์                         88579297            33214358                                02501180CCSH       0000003500000000                                                                             
D000037006057601827904112011142923พิไลวรรณ ทองดี                                    88869196            16212363                                00490533CCSH       0000001515300000                                                                             
D000038006057601827904112011145704นางเปรมฤดี สวัสดี                                 88544299            104115854                               07480882CCSH       0000002006700000                                                                             
D000039006057601827904112011145901ประคอง สามงามนิ่ม                                 88279193            75217355                                00180718CCSH       0000002238240000                                                                             
D000040006057601827904112011151053นายสำเนียง แก้วมณี                                88523499            104121142                               02610077CCSH       0000001867300000                                                                             
D000041006057601827904112011151212นายชนินทร์ อ่อนใจเอื้อ มฉ 2713                    8888-9682           3731-2071                               07750696CCSH       0000001781300000                                                                             
D000042006057601827904112011152203นางทิพย์ ธนทรัพย์สมบัติ                           88576597            106182015                               08640589CCSH       0000001834300000                                                                             
D000043006057601827904112011152959นายสมบูรณ์  สนศรี ทว4927                          88079496            79214352                                00140608CCSH       0000001756700000                                                                             
D000044006057601827904112011160629นายสมสุข ชูกิจรุ่งทรัพย์ ทศ7005                   88359498            50217360                                11812551CCSH       0000001948200000                                                                             
D000045006057601827904112011161447นางสาวพวงเพ็ญ ศิริพละ ทว 3143                     8857-9398           3121-3354                               04580699CCSH       0000002116700000                                                                             
D000046006057601827904112011172313นาย ธนวัฒน์ รักษาคุณ ทร9037                       8899-9094           7021-9333                               08510017CCSH       0000000064300000                                                                             
D000047006057601827904112011174601นายพิเชษฐ์ ศรีหาประทุม ทว4013                     88779197            30214351                                08405593CCSH       0000002046200000                                                                             
T000048006057601827900000000000000000000000077434840000046                                                                                                                                                                                                      
