H0000010060576018279บริษัท ไทเอซ สิสซิ่ง จำกัด              10102011TALHO                                                                                                                                                                                       
D000002006057601827910102011085156นางวันเพ็ญ วัดล้อม                                8805-9395           1521-6316                               00962171CCSH       0000001628300000                                                                             
D000003006057601827910102011090655สมนึก  จิตรมนตรี  ทว 3297                         88479298            72213359                                02530516CCSH       0000001918500000                                                                             
D000004006057601827910102011093637นายวารี  สืบสายลา                                 8805-9093           3231-1089                               11470668CCSH       0000001372800000                                                                             
D000005006057601827910102011100254นายปัญญา มนตรีชน มฉ 887                           88798297            78310078                                00330398CCSH       0000001665500000                                                                             
D000006006057601827910102011102009นางนงคราญ เขมะวิริยะ                              88079790            71147245                                09760107CCSH       0000000329000000                                                                             
D000007006057601827910102011102248นายชอบ เสวะมาตย์ ทล2386                           88398299            63212348                                08691092CCSH       0000001665500000                                                                             
D000008006057601827910102011102519ชาตรี อินทรศักดิ์                                 88289297            35214347            ทล 4573             10320321CCSH       0000001665500000                                                                             
D000009006057601827910102011102607นางสมพร  อินทะแสง  ทว3088                         88979398            80213358                                02590608CCSH       0000001700000000                                                                             
D000010006057601827910102011103708นางสาวเพียนจิตร์  สิทธินาม                        88515499            107066329                               01770569CCSH       0000000980900000                                                                             
D000011006057601827910102011103938นาง ธีลาวัลย์ ศรีบุศยดี                           8887-9895           5421-9310                               09550887CCSH       0000001517700000                                                                             
D000012006057601827910102011104547จ.อ.โกศล สรุปราษฎร์ ทย4476                        88418189            64214327                                02590600CCSH       0000000733300000                                                                             
D000013006057601827910102011104811สรณีย์ สมอทอง                                     88523799            107059702                               00530428CCSH       0000001264800000                                                                             
D000014006057601827910102011105554นางสาว สุรัตน์ นาคคล้าย                           88510599            107161060                               01810608CCSH       0000001538200000                                                                             
D000015006057601827910102011105715นายทองดี ถึงปัดชา ทล2297                          88598199            72212349                                01211627CCSH       0000001600000000                                                                             
D000016006057601827910102011105805นายเอกชัย  บุรินทะ                                88289494            69213346                                07580441CCSH       0000001600000000                                                                             
D000017006057601827910102011105918นายเอกชัย  บุรินทะ                                88689191            39217346                                07580441CCSH       0000001700000000                                                                             
D000018006057601827910102011110316นาย ชัยโรจน์  เพชรพันธศักดิ์                      88879092            50218353                                00640201CCSH       0000001799200000                                                                             
D000019006057601827910102011110838นายวีระ ม้าเฒ่า 086-0587670                       88279984            18314073            มฉ. 4831            00207452CCSH       0000002116700000                                                                             
D000020006057601827910102011112253นายชัยรัตน์ พัฒนจันทร์                            8836-9190           1131-3058                               05263901CCSH       0000001266300000                                                                             
D000021006057601827910102011112719นายจรัล เผยสกุล ทศ628                             88678497            86210362                                02580367CCSH       0000003869500000                                                                             
D000022006057601827910102011113134นางชูชื่น เทพสุภรณ์สกุล                           8847-9395           7631-4073           มฉ 4637             08000757CCSH       0000006664800000                                                                             
D000023006057601827910102011113201สมาน คนหลวง ทว 7908                               88379192            89217350                                11045221CCSH       0000001884200000                                                                             
D000024006057601827910102011113219นายศรีทน กองงาม                                   88179093            53315073                                02610551CCSH       0000002204000000                                                                             
D000025006057601827910102011113907นายสิทธิกิตติ์ วรมาลี                             88514699            106105508                               00920219CCSH       0000001188200000                                                                             
D000026006057601827910102011114933นายวิทยา แซ่จึง                                   88559597            33217362                                09760107CCSH       0000001467400000                                                                             
D000027006057601827910102011115007นายวิทยา แซ่จึง                                   48459997            33217362                                09760107CCSH       0000000321000000                                                                             
D000028006057601827910102011115013ธิดา เนาวรัตน์                                    8897-9893           3221-4332           ทร4223              05750020CCSH       0000001131900000                                                                             
D000029006057601827910102011115019นางสาวอิงอร เอี่ยมวิไล                            88188988            71212352                                02493695CCSH       0000001700000000                                                                             
D000030006057601827910102011115505นายประวัติ กองทน                                  88527399            106147070                               08698691CCSH       0000001782900000                                                                             
D000031006057601827910102011115804นาย ประจักษ์ เวชปาน ทม5376                        88369791            63215317                                01980212CCSH       0000000939800000                                                                             
D000032006057601827910102011115921นาย ไพศาล พรประภาศักดิ์ ทว 9155                   88579390            51219355                                01200547CCSH       0000001704800000                                                                             
D000033006057601827910102011120053นาย ไพศาล พรประภาศักดิ์ ทว 9158                   88479390            81219355                                01200547CCSH       0000001704800000                                                                             
D000034006057601827910102011120218นาย ไพศาล พรประภาศักดิ์ ทศ 397                    88478098            73210369                                01200547CCSH       0000001704800000                                                                             
D000035006057601827910102011120519นายอนุสรณ์ วารีน้อย                               8827-8299           2321-0327                               01890557CCLQ103739400000014552000040766                                                                         
D000036006057601827910102011121120นายปัญญา ศรีคำ                                    88979795            76215359                                02580367CCSH       0000001999700000                                                                             
D000037006057601827910102011121905นายสรรเสริญ สีธงชัยรุ่งโรจน์ ทศ 6050              88168698            00216365                                07930727CCSH       0000001091500000                                                                             
D000038006057601827910102011121911นาง ภัสรา  เรศสุข  ทศ 5630                        88768299            06215363                                08400047CCSH       0000001799200000                                                                             
D000039006057601827910102011121949นายสรรเสริญ สีธงชัยรุ่งโรจน์ ทย8872               88268698            28218327                                07930727CCSH       0000001091500000                                                                             
D000040006057601827910102011122013นาง ภัสรา  เรศสุข  ทศ 5636                        88868299            66215363                                08400047CCSH       0000001799200000                                                                             
D000041006057601827910102011122030นายสรรเสริญ สีธงชัยรุ่งโรจน์ ทม3067               88779982            70213316                                07930727CCSH       0000001252000000                                                                             
D000042006057601827910102011122110นายสรรเสริญ สีธงชัยรุ่งโรจน์ ทย7291               88479490            12217329                                07930727CCSH       0000001216300000                                                                             
D000043006057601827910102011122113นาง ภัสรา  เรศสุข  ทศ 5620                        8866-8299           0621-5362                               08400047CCSH       0000001799200000                                                                             
D000044006057601827910102011122215นายสมเกียรติ สีธงชัยรุ่งโรจน์ ทพ3823              88569596            38213282                                07930727CCSH       0000001326900000                                                                             
D000045006057601827910102011122234นาง ภัสรา  เรศสุข  ทศ 5626                        8856-8299           6621-5362                               08400047CCSH       0000001799200000                                                                             
D000046006057601827910102011122251นายสรรเสริญ สีธงชัยรุ่งโรจน์ ทย9321               88168499            13219322                                07930727CCSH       0000001051000000                                                                             
D000047006057601827910102011123033นายธนะจิตต์ พึ่งโพธิ์สภ  ทล9961                   88188199            19219346                                08690335CCSH       0000001700000000                                                                             
D000048006057601827910102011123358นายพุฒิพัฒน์ พีรชัยทัศน์                          8897-9290           1121-9356                               07650103CCSH       0000001918500000                                                                             
D000049006057601827910102011123451นางจุไรรัตน์  สุทธิเวช ทล 4677                    8808-9197           7621-4347                               11521628CCLQ337580300000002800000020196                                                                         
D000050006057601827910102011123654นายเจริญ น้อยชื่น                                 8818-9380                                                   04040247CCSH       0000001432800000                                                                             
D000051006057601827910102011123714นางจุไรรัตน์  สุทธิเวช ทล 4677                    8808-9197           7621-4347                               11521628CCLQ385770 00000015500000040089                                                                         
D000052006057601827910102011123729นายวิระ  งามจิตร                                  88517989            104123379                               00330234CCSH       0000001716700000                                                                             
D000053006057601827910102011123910นางจุไรรัตน์  สุทธิเวช ทล 4677                    8808-9197           7621-4347                               11521628CCSH       0000000561700000                                                                             
D000054006057601827910102011124347นางสาวไพจิตต์  กีรติพินิจ                         88516989            106202801                               05701141CCSH       0000001140000000                                                                             
D000055006057601827910102011124802นายสฤทธิ์ เสนสอน                                  88889093            79215342                                04692643CCSH       0000001734300000                                                                             
D000056006057601827910102011125057นางสายพิณ พรมประดิษ ทศ 9042                       88546989            104116364                               10270592CCSH       0000001839800000                                                                             
D000057006057601827910102011125348นางสาวพิมพ์ชนก  แซ่ตั้ง ทร 496                    8847-9493           6421-0339                               01770569CCSH       0000000869800000                                                                             
D000058006057601827910102011130853นายสุรศักดิ์ อินทศร ทว 5449                       8887-9386           9421-5354                               04580699CCSH       0000006293500000                                                                             
D000059006057601827910102011130924น.ส.อำพร  บุนลอด                                  88198397            74213346                                11470668CCSH       0000001665500000                                                                             
D000060006057601827910102011130958นายสุรศักดิ์ อินทศร ทศ 5534                       8876-8399           4521-5363                               04580699CCSH       0000003691200000                                                                             
D000061006057601827910102011131042นายสุรศักดิ์ อินทศร ทว 9592                       88678399            25219359                                04580699CCSH       0000001070000000                                                                             
D000062006057601827910102011131143นางจรรยา อินทศรี ทล 8704                          8846-9793           4721-8340                               04580699CCSH       0000004231000000                                                                             
D000063006057601827910102011131229นายสุรศักดิ์ อินทศร ทล 6058                       8848-8698           8021-6345                               04580699CCSH       0000003615000000                                                                             
D000064006057601827910102011131747นางประไพวรรณ หวานเย็น ทว.7317                     88579983            73217351                                00516317CCSH       0000001700000000                                                                             
D000065006057601827910102011134636นายสมเด็จ บุญเพชร                                 88869197            4621-1367                               01213513CCSH       0000002000000000                                                                             
D000066006057601827910102011140726นายวิทณา อ่อนคำหล้า ทศ 6463                       8806-8697           3421-6366                               02530654CCSH       0000001874000000                                                                             
D000067006057601827910102011142324นายกมล แต้มสว่าง ทล8488                           8828-9590           8421-8348                               00940109CCSH       0000001800000000                                                                             
D000068006057601827910102011142436นายกมล แต้มสว่าง ทล8133                           8818-9690           3121-8343                               00940109CCSH       0000001800000000                                                                             
D000069006057601827910102011142809นายสุจินต์ ทรงขำ                                  8806-9392           1131-8078                               01270115CCSH       0000001721500000                                                                             
D000070006057601827910102011142945นาย ศิลา  เกษมโชติพัฒน์    ทศ  6047               88668398            70216364                                01980820CCSH       0000001890750000                                                                             
D000071006057601827910102011143004นายประทุม ไทรแช่มจันทร์                           8846-7897           9821-4353                               01820662CCSH       0000001884200000                                                                             
D000072006057601827910102011143316แดนชัย  ศรีพรม                                    88188198            81211357                                00911062CCSH       0000001561200000                                                                             
D000073006057601827910102011144010น.ส.นงนาถ ปัญญา ทล 8617                           8838-9980           7621-8341                               01481588CCSH       0000001700000000                                                                             
D000074006057601827910102011144115นาย ชุมพล ด้านสิงห์                               8876-9890           3221-0347                               10330913CCSH       0000000414500000                                                                             
D000075006057601827910102011145151นาย ไพบูลย์ พิมไธสง มช 521                        8895-9595           1531-0082                               00480543CCSH       0000000030000000                                                                             
D000076006057601827910102011150049นายอดิศักดิ์ หันวิสัย                             88569693            65315067                                08218855CCSH       0000001010600000                                                                             
D000077006057601827910102011150327นาย อาทิตย์  ทองปิ่น                              88689494            11214318                                00910199COTH       0000001628000000                                                                             
D000078006057601827910102011151255นายไพโรจน์ แก้วงาม ทล 6015                        88089093            50216341                                04603236CCSH       0000001790300000                                                                             
D000079006057601827910102011151721คุณพงษ์ศักดิ์ หิรัญวรรณ                           88869194            51213367                                00470242CCSH       0000001500700000                                                                             
D000080006057601827910102011152623นายอำพัน ศรีโพธิ์ ทล 4632                         88589297            26214343                                04603236CCSH       0000001561200000                                                                             
D000081006057601827910102011153523สุมาลี ศรีอินทร์                                  88579686            24215350            ทว5402              10320321CCSH       0000001884200000                                                                             
D000082006057601827910102011160050จารึก ชัณษา                                       88879783            13210346                                00240400CCSH       0000001660000000                                                                             
D000083006057601827910102011160528นางสาวสุรีย์รัตน์ วงษ์เดอรี  ทย5009               8866-9891           9021-5320                               11041367CCSH       0000001091400000                                                                             
D000084006057601827910102011161136ด.ต.เสิม หยุ่นแก้ว ทล 4228                        8878-9093           8221-4342                               01971063CCSH       0000001665500000                                                                             
D000085006057601827910102011161907น.ส.ธิดารัตน์ ศรีคันธะรักษ์                       88289594            05216310                                09032766CCSH       0000001723300000                                                                             
D000086006057601827910102011163728นางกมลวัลย์  เสาะขุนทด  ทว 5746                   8827-9795           6721-5354                               08510045CCSH       0000000201200000                                                                             
D000087006057601827910102011163816นส. สุภาณี ปิ่นรอด                                8816-9398           4908-6217                               10990248CCSH       0000001161000000                                                                             
D000088006057601827910102011173657นายศราวุธ แก้วแกมเกษ                              88789591            51217348                                10660559CCSH       0000001882500000                                                                             
D000089006057601827910102011180456น.ส.โชติรส รอดนารี                                8838-8789           9321-0359                               07540596CCSH       0000002240200000                                                                             
D000090006057601827910102011180719นายวิศว คาดหมาย ทว6537                            8807-9984           7521-6353                               08510017CCSH       0000001884200000                                                                             
D000091006057601827910102011181247นาย วรวิทย์  และสง่า ทล1052                       88679992            20211345                                05690088CCSH       0000001601500000                                                                             
D000092006057601827910102011181917นางสาว วิไลรัตน์ บุญเผือก ทล7670                  88789981            06217347                                10070203CCSH       0000001000000000                                                                             
D000093006057601827910102011182415นางมีสุข ตะคุณนะ                                  8805-9596           0921-9333                               06842622CCSH       0000002287700000                                                                             
D000094006057601827910102011183537น.ต.ยอด แย้มยืนยงค์ ทว 4275                       88979787            52214357                                10360725CCSH       0000001814700000                                                                             
D000095006057601827910102011184232นาย กิตตินัย ปึงประยูร                            88079198            73213351            ทว3317              04881144CCSH       0000001981000000                                                                             
T000096006057601827900000000000000000000000159266350000094                                                                                                                                                                                                      
