H0000010060576018279บริษัท ไทเอซ สิสซิ่ง จำกัด              30112011TALHO                                                                                                                                                                                       
D000002006057601827930112011085002ภาวัต ไชยสร                                       88778989            96319059                                01080545CCSH       0000001519400000                                                                             
D000003006057601827930112011090106นายวีระศักดิ์ ศรีสมุทร                            8898-9091           7721-7342                               03154594CCSH       0000003759000000                                                                             
D000004006057601827930112011090115นายสุนัย พรมไพโรจน์                               8846-8698           6521-7329                               00651471CCSH       0000001374400000                                                                             
D000005006057601827930112011090339นายสุนัย พรมไพโรจน์                               8854-7899           1071-59104                              00651471CCSH       0000001374400000                                                                             
D000006006057601827930112011092630คุณ สุริยัน  ขำดำ                                 8897-9791           6521-8338                               01230233CCSH       0000001697800000                                                                             
D000007006057601827930112011094011นส สมพิตย์ อาสาเน                                 88498297            64213347                                01101665CCSH       0000001734000000                                                                             
D000008006057601827930112011100244ทิพย์มนต์ สวนไพรินทร์ ืทว 8422                    88359698            24218352                                01921348CCSH       0000001700000000                                                                             
D000009006057601827930112011103944พิสุทธิ์  ลุนพรม                                  88501299            107096962                               00911062CCSH       0000001063700000                                                                             
D000010006057601827930112011105129นางสาวศิริกานดา ทานุรัตน์                         88869796            51212363            ทศ2135              01770144CCSH       0000001799200000                                                                             
D000011006057601827930112011113314นายชลอ พวงมณี  ทย5810                             8849-9090           0821-5321                               11530623CCSH       0000001904300000                                                                             
D000012006057601827930112011113550นายสุวัฒน์ ตั้งตระกูล ป้ายแดง                     88501899            104123798                               07930727CCSH       0000001867300000                                                                             
D000013006057601827930112011114530นาย เหมราช เนื่องพิมพ์ ทล 2922                    88389983            29212342                                09741083CCSH       0000000960000000                                                                             
D000014006057601827930112011115638ฐิติวรรณ                                          88569787            51218338                                00530572CCSH       0000000400000000                                                                             
D000015006057601827930112011121353นางสุพัตรา ภิรมย์ขวัญ                             8837-9790           1921-8355                               05940947CCSH       0000001884200000                                                                             
D000016006057601827930112011122620นาง  ภัสรา เรศสุข ทศ 2334                         8876-9694           4321-2363                               08401303CCSH       0000001800000000                                                                             
D000017006057601827930112011122818นายสมเกียรติ สีธงชัยรุ่งโรจน์                     8846-9396           2521-8317                               11730509CCSH       0000001000000000                                                                             
D000018006057601827930112011122959นาย สันต์ ลาภรุ่งเรือง ทล 5698                    8878-9593           8621-5349                               05700767CCSH       0000000098500000                                                                             
D000019006057601827930112011123814นาย ปวเรศ  วงษ์อามาตย์  ทศ 1965                   8836-9990           5921-1366                               04880062CCSH       0000001519000000                                                                             
D000020006057601827930112011124011นายนวพล  ก้านอินทร์                               88501099            106139735                               02501795CCSH       0000001327300000                                                                             
D000021006057601827930112011131718นางวิจิตรา ลาวัณย์วิจิตร                          8818-8997           7521-1358                               05700127CCSH       0000000357700000                                                                             
D000022006057601827930112011133615นาย นิพนธ์ สิทธิราช ทษ 455                        88511599            104121274                               01481887CCSH       0000001867300000                                                                             
D000023006057601827930112011133702นายไชยรส ทับทิมไสย ทศ2377                         88669496            73212367                                10320214CCSH       0000001884200000                                                                             
D000024006057601827930112011135117นาย พิภพ  ใจยอด   ทย4261                          8888-9797           1221-4326           089-9203752         08690033CCSH       0000001884700000                                                                             
D000025006057601827930112011135847นายสาธิต ทองอร่ามเรือง                            88518989            107161814                               04670151CCSH       0000001335300000                                                                             
D000026006057601827930112011140048นายอภิวัฒน์  เครือวงค์ ทว8586                     8827-9781           6521-8358           0852534570          11300791CCSH       0000001884200000                                                                             
D000027006057601827930112011141421นายองอาจ มหิทธิโรจน์                              88589692            34216346                                02150522CCSH       0000001004800000                                                                             
D000028006057601827930112011141705นางประทวน เขียวแล                                 88869692            20214361                                10370321CCSH       0000002117200000                                                                             
D000029006057601827930112011141729นายองอาจ มหิทธิโรจน์ ทล6441                       88689692            14216344                                02150522CCSH       0000001004800000                                                                             
D000030006057601827930112011141845วิฑูร คงเจริญ                                     88288298            54313078                                02540469CCSH       0000001858000000                                                                             
D000031006057601827930112011142338คมกริช กรศุภกุล                                   88279496            71215357                                03730745CCSH       0000002087000000                                                                             
D000032006057601827930112011142936นายสุรศักดิ์ อินทศร ทล 6058                       8848-8698           8021-6345                               04580699CCSH       0000001825000000                                                                             
D000033006057601827930112011143741อำนาจ  เจียมเชื่อม  ทศ 6549                       88568497            95216364                                02530516CCSH       0000001856500000                                                                             
D000034006057601827930112011144209นายนรชัย  แพงศร ทล 3466                           8869-8397           6421-3346                               00650326CCSH       0000001665500000                                                                             
D000035006057601827930112011144315นายนรชัย แพงศร ทศ 2128                            8896-9896           8121-2362                               00650326CCSH       0000001884200000                                                                             
D000036006057601827930112011144413นายนรชัย แพงศร ทย 7678                            8806-9996           8621-7327                               00650326CCSH       0000001271600000                                                                             
D000037006057601827930112011144517นายนรชัย แพงศร ทร 5912                            88512299            107138252                               00650326CCSH       0000001275100000                                                                             
D000038006057601827930112011144832น.ส.ณิชนันท์  ใจอุ่น                              88591798            104125690                               04880055CCSH       0000002126300000                                                                             
D000039006057601827930112011145754นายกิตติศักดิ์ อารัณย์รักษ์                       8806-9198           3921-9329                               08780395CCSH       0000001404000000                                                                             
D000040006057601827930112011150142นาย เขษม คุ้มประยูร ทล5260                        8858-9594           0221-5346                               04950529CCSH       0000001709300000                                                                             
D000041006057601827930112011150415นายเสริมศิลป์ โพนาคา มฉ3240                       8858-8199           0231-3074                               11320905CCSH       0000001700000000                                                                             
D000042006057601827930112011151215นางนิธิกานต์ วัฒนภนอม                             88359897            83217368                                06910170CCSH       0000002331600000                                                                             
D000043006057601827930112011151256นายประยูร โพธิ์บริสุทธิ์ ทม 2910                  88479587            09212311                                04930681CCSH       0000001683000000                                                                             
D000044006057601827930112011151703นายจำนงค์ นันโท                                   8885-9194           7431-9053                               05760270CCSH       0000001000000000                                                                             
D000045006057601827930112011152216นายวรุตม์ สุขบัติ ทว 6753                         8867-9993           3721-6355                               04580699CCSH       0000001377800000                                                                             
D000046006057601827930112011152436รุ่งอรุร  ภมรจันทร์  ป้ายแดง                      88514889            106202867                               02530516CCSH       0000001450000000                                                                             
D000047006057601827930112011152935นายทัตพล   ฤกษ์อุโฆษ   ทล 7295                    88879897            52217349                                04670545CCSH       0000001187700000                                                                             
D000048006057601827930112011153002นางสาว ธนิก มนูลักษณ์ มฉ 1717                     8858-9495           7731-1071                               00000500CCSH       0000001617900000                                                                             
D000049006057601827930112011153204นางสาว ธนิก มนูลักษณ์ มฉ 1717                     88589495            77311071                                00000500CCSH       0000001617900000                                                                             
D000050006057601827930112011153631นายปิยะ เข็มกลัด  ทว6984                          88527599            106145962                               05670558CCSH       0000003775200000                                                                             
D000051006057601827930112011154333นายจิรศักดิ์ ศรีบุญจิตต์                          88369298            82210341                                00334177CCSH       0000001493600000                                                                             
D000052006057601827930112011160134นาย ชวลิต ใจธรรม                                  88506599            106137897                               00821044CCSH       0000001678400000                                                                             
D000053006057601827930112011160553นางธนันทร หอมหวล ทว4993                           88579496            39214359                                07960037CCSH       0000001958500000                                                                             
D000054006057601827930112011161529ถิรณะ แสงทับทิม                                   88469295            10211326                                06991739CCSH       0000000610000000                                                                             
D000055006057601827930112011162600นายอานนท์ วันแจ                                   88199391            69355075                                02610551CCSH       0000000624200000                                                                             
D000056006057601827930112011170208นายกฤษณะ จันโอ ทร4465                             88189797            54214336                                07960037CCSH       0000000075000000                                                                             
D000057006057601827930112011170519นายพรเทพ สบาย ทล7160                              88167997            01217346                                04950486CCSH       0000001706900000                                                                             
D000058006057601827930112011181220ด.ต.ชาญ ทับพุ่ม                                   88798198            66211310                                08780395CCSH       0000001470000000                                                                             
D000059006057601827930112011181738นางสาวสุปราณี วงษ์เสนา                            88279491            53218354            ทว 8345             08510518CCSH       0000001884200000                                                                             
D000060006057601827930112011182154นายเมตตา นวนน้ำจิตต์  มช498                       8815-9795           8431-0089                               08450531CCSH       0000001812300000                                                                             
D000061006057601827930112011182342น.ส.มณีรัตน์ จันทมล                               88669898            50214338                                08558551CCSH       0000000927400000                                                                             
D000062006057601827930112011194622นาย พรพรต พาทีทิน                                 8857-9395           5121-6357           ทว 6175             07620610CCSH       0000002373200000                                                                             
T000063006057601827900000000000000000000000095440000000061                                                                                                                                                                                                      
