H0000010060576018279บริษัท ไทเอซ สิสซิ่ง จำกัด              05112011TALHO                                                                                                                                                                                       
D000002006057601827905112011095834นายศักดิ์ชัย นิยมนา ฮข7405                        88069792            54427020                                04950529CCSH       0000000350000000                                                                             
D000003006057601827905112011100931อนันต์  สิงห์น้อย  ทว3038                         8817-9398           8021-3353                               04950191CCSH       0000001790940000                                                                             
D000004006057601827905112011104113นายไขแสง แสงโสฬส                                  88479797            58216320                                08450038CCSH       0000001057600000                                                                             
D000005006057601827905112011110146ว่าที่ ร.ต.ทรงพล เสตถาภิรมย์ ทศ6691               88059798            16216369                                01731321CCSH       0000002636000000                                                                             
D000006006057601827905112011110400ว่าที่ ร.ต.ทรงพล เสตถาภิรมย์                      88168497            94216361                                01731321CCSH       0000002636000000                                                                             
D000007006057601827905112011110543ว่าที่ ร.ต.ทรงพล เสตถาภิรมย์ ทศ 8893              88546299            104116011                               01731321CCSH       0000002269900000                                                                             
D000008006057601827905112011111354ว่าที่รต.ทรงพล เสตถาภิรมย์ ทศ8891                 88547299            104116007                               01730198CCSH       0000002269900000                                                                             
D000009006057601827905112011111508นายวรรณลภ กิจทา                                   88769995            09216327                                08510258CCSH       0000001105700000                                                                             
D000010006057601827905112011113146ทองใบ  ดีวัน ทม 8675                              88379394            56218317                                08550664CCSH       0000001740000000                                                                             
D000011006057601827905112011113706นายกิติชัย รัตมาศาณประไพ                          88298697            14213344                                07620489CCSH       0000001738400000                                                                             
D000012006057601827905112011114829นาย สายัณห์  เจริญสุข  มจ7981                     8866-8298           1931-7068           083-2562958         08690033CCSH       0000001136200000                                                                             
D000013006057601827905112011115341นายสมหวัง  เหล็งศิริ  ทล 1204                     88979886            42211340                                05701141CCSH       0000002000000000                                                                             
D000014006057601827905112011120354นายจิตตกร โกษากุล                                 88369392            61214369                                10720554CCSH       0000002000000000                                                                             
D000015006057601827905112011122050นายวีระ ยุบลพริ้ง                                 8836-9887           9521-6358                               10320156CCSH       0000000040000000                                                                             
D000016006057601827905112011123548นาง ภัสรา  เรศสุข  ทศ 226                         88678298            62210362                                08400047CCSH       0000001827500000                                                                             
D000017006057601827905112011135747นายสงวน  มลตะกร   ทล 5697                         88789493            76215349                                10720208CCSH       0000001700000000                                                                             
D000018006057601827905112011140808นางสาวจินดา บุญญานันท์                            88759698            18216365                                02501180CCSH       0000001839700000                                                                             
D000019006057601827905112011143846นายสมชาย แซ่ตั้ง  ทล3497                          88998297            74213349                                08510258CCSH       0000001340000000                                                                             
D000020006057601827905112011144241นายชาญศักดิ์  สาระ มง5003                         88069994            30315050                                07990070CCSH       0000000700000000                                                                             
D000021006057601827905112011150152นายสุชาติ อิ่มอร่าม ทล3868                        8848-9398           8821-3346                               08510017CCSH       0000001665500000                                                                             
D000022006057601827905112011150812นายเถกิงเดช พุกพิบูลย์                            88188397            37313072                                09620581CCSH       0000001884200000                                                                             
D000023006057601827905112011160812วรรณภา  เจริญอินทร์                               8886-9598           5921-1364           ทศ 1945             07990132CCSH       0000003269600000                                                                             
D000024006057601827905112011171210บรรจง สุวรรณโคต                                   88879587            77219329                                07830119CCSH       0000001673000000                                                                             
D000025006057601827905112011173611นายสังทอง มูลเมืองแสน  ทว 5006                    88979587            60215350                                08510258CCSH       0000001501500000                                                                             
T000026006057601827900000000000000000000000040171640000024                                                                                                                                                                                                      
