H0000010060576018279บริษัท ไทเอซ สิสซิ่ง จำกัด              02112011TALHO                                                                                                                                                                                       
D000002006057601827902112011085152นายสมพงษ์ จิตวรางกูร ทร8673                       8889-9694           3621-8337                               01880367CCSH       0000000205500000                                                                             
D000003006057601827902112011085308นายสมพงษ์ จิตวรางกูร ทร8673                       8889-9694           3621-8337                               01880367CCSH       0000000030000000                                                                             
D000004006057601827902112011090027สามารถ โพธิ์แดง                                   88259693            14219369            0865668506          06373418CCSH       0000001922300000                                                                             
D000005006057601827902112011090132สุเทพ เหลาเลิศ                                    88507999            107136882                               11820687CCSH       0000001260400000                                                                             
D000006006057601827902112011090247คุณเสน่ห์ เเย้มสุดใจ                              88379994            06318056                                04690188CCSH       0000001517700000                                                                             
D000007006057601827902112011091105สาธิต   ทองอร่ามเรือง                             88518989            107161814                               02110188CCSH       0000001665500000                                                                             
D000008006057601827902112011091222นาย ภูริพัฒน์  มะโรงศรี                           8896-8598           00216362                                11090812CCSH       0000001514700000                                                                             
D000009006057601827902112011094048นายถวิล นาโควงค์                                  88179294            74216357                                00750760CCSH       0000001884200000                                                                             
D000010006057601827902112011095445น.ส.นันท์ญา จันท์มารถ                             88378099            57215311                                07049303CCSH       0000000500000000                                                                             
D000011006057601827902112011095643นายชัยกาญจน์  น้อยพินิจ มจ 5033                   88259996            30315063                                01860811CCSH       0000002030000000                                                                             
D000012006057601827902112011095804พ.ต.สะเอื้อน คชวงค์ ทย2552                        88506799            204012001                               01761687CCSH       0000000869400000                                                                             
D000013006057601827902112011101327นายกันยา  ทับพระ                                  88769292            83212322                                02617277CCSH       0000000636000000                                                                             
D000014006057601827902112011102218นายปรีชา หงส์ทอง ทศ 5836                          88568698            68215363                                04580699CCSH       0000001856500000                                                                             
D000015006057601827902112011103645นายสหชัชจ์ ทาไธสง                                 88573597            106160438                               00470207CCSH       0000001918500000                                                                             
D000016006057601827902112011105810นายรวมชัย นาคะสถิตย์                              88169598            61211364                                07620489CCSH       0000001587900000                                                                             
D000017006057601827902112011112206นางสาวปริณตรา ฮะยิ้ม ทศ7867                       88459696            78217366                                02460148CCSH       0000001677000000                                                                             
D000018006057601827902112011112413นายปรีชา พราวศรี ทว949                            88288798            99210354                                08691092CCSH       0000001918200000                                                                             
D000019006057601827902112011114850น.ส. สุนันท์ แก้วเผือก                            8816-8999           5009-7400                               06900758CCSH       0000000312100000                                                                             
D000020006057601827902112011115419นายสุนันท์ วิเศษเนตร ทร 6128                      88559895            81216332                                01734121CCSH       0000000867800000                                                                             
D000021006057601827902112011120633นายธรรมโรจน์ ศรีบุญเลิศ                           88879786            84314071                                07690544CCSH       0000001356900000                                                                             
D000022006057601827902112011121430นายชาญณรงค์  ธารีพฤกษ์                            88088099            70210358                                11870745CCSH       0000001700000000                                                                             
D000023006057601827902112011123231นาย ชัชวาล  แสงอาวุธ ทศ8140                       88359296            01218364                                08401303CCSH       0000001828800000                                                                             
D000024006057601827902112011123542นงชนา วรปาณี                                      8838-9695           3121-5342                               04607752CCSH       0000001650000000                                                                             
D000025006057601827902112011123939นางจิราพร ทองร่มโพธิ์                             88078698            99219351            0811512570          01890420CCSH       0000001680000000                                                                             
D000026006057601827902112011124109นางจิราพร ทองร่มโพธิ์                             88979492            92217359            0811512570          01890420CCSH       0000001500000000                                                                             
D000027006057601827902112011124350ร.ต.บุญส่ง สุขทิพย์กิจ                            88359393            49310089                                00120277CCSH       0000000524500000                                                                             
D000028006057601827902112011124952นายธนกร แสงศรี                                    8876-8099           1621-4319                               00411369CCSH       0000000524500000                                                                             
D000029006057601827902112011130156นายนิติพล ดีเฉลา                                  88359295            49214343                                10970971CCSH       0000001240000000                                                                             
D000030006057601827902112011130230สมชาย                                             88559196            74310084                                07966650CCSH       0000001533000000                                                                             
D000031006057601827902112011130509นาย ประสิทธิ์ ผ่านจังหาร                          88998497            22213340                                04730538CCSH       0000001600000000                                                                             
D000032006057601827902112011130833นายบุญมี จันทร์กอง ทล8809                         8898 -9190          9821-8340                               01970208CCSH       0000001700000000                                                                             
D000033006057601827902112011131306นายรุ่งโรจน์ เศรษฐ์ธนวัฒน์                        8850-9494           5921-9320                               01801793CCSH       0000000295500000                                                                             
D000034006057601827902112011131453นายพิเชษฐ เลิศสุรัง                               88534699            107011889                               02560119CCSH       0000000564000000                                                                             
D000035006057601827902112011132005พรเพ็ญ แซ่ก๊วย                                    88289190            04218344                                00480616CCSH       0000001700000000                                                                             
D000036006057601827902112011134740ทวีป คงชนะ                                        88969597            66213339                                06990912CCSH       0000000871800000                                                                             
D000037006057601827902112011140000นายสมาน เดชะบุญ ทม 7422                           8857-9993           2421-7312                               04585612CCSH       0000001105700000                                                                             
D000038006057601827902112011140019นายอนุรักษ์  รักษาศิริ                            88968597            84216365            089-0027317         04600142CCSH       0000001874000000                                                                             
D000039006057601827902112011140158นางสาวสุรทิพย์  อินทรสูต                          88513899            107103711                               05760270CCSH       0000001195200000                                                                             
D000040006057601827902112011141330นาย เลิศพร แสนบรรดิษฐ์ ทร5542                     88478197            25215334                                04650665CCSH       0000001550700000                                                                             
D000041006057601827902112011141709นายสวรรค์ บุญชัย                                  88506999            107147939                               01230490CCSH       0000000615300000                                                                             
D000042006057601827902112011142655นายเผด็จ ยินดีขันธ์                               88898598            55212346                                07260602CCSH       0000001766500000                                                                             
D000043006057601827902112011143313นายวิรัตน์ วาณิชพิเชียร ทว6536                    8847-9094           6521-6353                               00190024CCSH       0000001985500000                                                                             
D000044006057601827902112011143553นายวีระ ไพรณรงค์                                  88389291            42313056                                01540035CCSH       0000000604800000                                                                             
D000045006057601827902112011143947นายอุทิศ  กรวยกลาง                                8857-8597           2031-2075                               09535045CCSH       0000001979500000                                                                             
D000046006057601827902112011144227นายบุญมา ล้ำภักดี ทย 2071                         8857-8899           1021-2327                               05700767CCSH       0000001000000000                                                                             
D000047006057601827902112011144327นางสาว นุชนารถ แจ่มศุภพันธ์  ทล9549               88167097            95219344                                08690335CCSH       0000000989800000                                                                             
D000048006057601827902112011144512นายพงษ์ศักดิ์ บริบูรณ์  ทว6228                    88579794            82216352                                08690335CCSH       0000001987300000                                                                             
D000049006057601827902112011145717นาง วิจิตรา ลาวัณย์วิจิตร                         8871-8789           5721-3328                               07620396CCSH       0000000361500000                                                                             
D000050006057601827902112011145933นส. สุภาณี ปิ่นรอด                                88169398            49086217                                10990248CCSH       0000001161000000                                                                             
D000051006057601827902112011150123นาง เกสฬา พันจุย                                  8856-9495           6821-2366           ทศ2866              10250012CCSH       0000001500700000                                                                             
D000052006057601827902112011150407นางหวานใจ โกหศัลวิตร ทร5195                       8866-9993           5121-5339                               05750619CCSH       0000000860000000                                                                             
D000053006057601827902112011150506นาง ผาณิต จันทร์เมฆา                              88467297            76210353                                07412910CCSH       0000000960000000                                                                             
D000054006057601827902112011150713น.ส.นัฐพร ประวงษ์                                 88969193            95213319                                10330484CCSH       0000003798000000                                                                             
D000055006057601827902112011151930นาย ชนะชาติ ทับทิม มจ 2058                        88978899            80312065                                04581882CCSH       0000001081900000                                                                             
D000056006057601827902112011152402นายอำนาจ กฤษณะเศรณี                               88514789            104122466                               01810555CCSH       0000001689400000                                                                             
D000057006057601827902112011152517นายอำนาจ กฤษณะเศรณี                               88569986            65212364                                01810555CCSH       0000001515300000                                                                             
D000058006057601827902112011153448อนุชิต  ปูพบุญ                                    88589090            51219282                                01900549CCSH       0000001517700000                                                                             
D000059006057601827902112011155555นาย สุขสันต์ นวลดี                                88698998            23212348            ทล 2382             03850248CCSH       0000001692500000                                                                             
D000060006057601827902112011160248นายสมาน  พวงพิลา                                  88512199            104122836                               11370491CCSH       0000002483600000                                                                             
D000061006057601827902112011164244ฉวีวรรณ  ลาภบริสุทธิ์ ทล805                       8839-9791           5821-0340                               07620776CCSH       0000001159900000                                                                             
D000062006057601827902112011165136นายทนงศักดิ์ ทิพย์ปะระ                            88899593            25219330                                04880081CCSH       0000000755800000                                                                             
D000063006057601827902112011165535จ.ส.ต.บุญเลิศ  ทองเตี้ย ทว9560                    8877-8399           0521-9356                               04700012CCSH       0000001878600000                                                                             
D000064006057601827902112011165657นางสาว สมร สมสุภาพ                                88589497            75210333                                10050475CCSH       0000001639600000                                                                             
D000065006057601827902112011172357สุวรรณดี หนูนิ่ม                                  88598399            60212346                                08000990CCSH       0000001550000000                                                                             
D000066006057601827902112011185342นางสาว สุปราณี วงษ์เสนา ทว8345                    8827-9491           5321-8354                               08510017CCSH       0000001884200000                                                                             
T000067006057601827900000000000000000000000088586700000065                                                                                                                                                                                                      
